{
  "abi": [
    {
      "inputs": [
        {
          "internalType": "address",
          "name": "_allowlistOwner",
          "type": "address"
        }
      ],
      "stateMutability": "nonpayable",
      "type": "constructor"
    },
    {
      "inputs": [
        {
          "internalType": "address",
          "name": "_address",
          "type": "address"
        }
      ],
      "name": "Unsigned",
      "type": "error"
    },
    {
      "anonymous": false,
      "inputs": [
        {
          "indexed": true,
          "internalType": "address",
          "name": "previousOwner",
          "type": "address"
        },
        {
          "indexed": true,
          "internalType": "address",
          "name": "newOwner",
          "type": "address"
        }
      ],
      "name": "OwnershipTransferred",
      "type": "event"
    },
    {
      "anonymous": false,
      "inputs": [
        {
          "indexed": true,
          "internalType": "address",
          "name": "_address",
          "type": "address"
        }
      ],
      "name": "Signed",
      "type": "event"
    },
    {
      "anonymous": false,
      "inputs": [
        {
          "indexed": true,
          "internalType": "address",
          "name": "_address",
          "type": "address"
        }
      ],
      "name": "Verified",
      "type": "event"
    },
    {
      "anonymous": false,
      "inputs": [
        {
          "indexed": true,
          "internalType": "bytes32",
          "name": "addressHash",
          "type": "bytes32"
        },
        {
          "indexed": true,
          "internalType": "bool",
          "name": "result",
          "type": "bool"
        }
      ],
      "name": "VerifySignature",
      "type": "event"
    },
    {
      "inputs": [],
      "name": "getAllowlistOwner",
      "outputs": [
        {
          "internalType": "address",
          "name": "",
          "type": "address"
        }
      ],
      "stateMutability": "view",
      "type": "function"
    },
    {
      "inputs": [],
      "name": "owner",
      "outputs": [
        {
          "internalType": "address",
          "name": "",
          "type": "address"
        }
      ],
      "stateMutability": "view",
      "type": "function"
    },
    {
      "inputs": [],
      "name": "renounceOwnership",
      "outputs": [],
      "stateMutability": "nonpayable",
      "type": "function"
    },
    {
      "inputs": [
        {
          "internalType": "address",
          "name": "newOwner",
          "type": "address"
        }
      ],
      "name": "transferOwnership",
      "outputs": [],
      "stateMutability": "nonpayable",
      "type": "function"
    },
    {
      "inputs": [
        {
          "internalType": "bytes32",
          "name": "hash",
          "type": "bytes32"
        },
        {
          "internalType": "bytes",
          "name": "sig",
          "type": "bytes"
        }
      ],
      "name": "verifySignature",
      "outputs": [
        {
          "internalType": "bool",
          "name": "",
          "type": "bool"
        }
      ],
      "stateMutability": "nonpayable",
      "type": "function"
    },
    {
      "inputs": [
        {
          "internalType": "address",
          "name": "_signer",
          "type": "address"
        },
        {
          "internalType": "bytes32",
          "name": "_hash",
          "type": "bytes32"
        },
        {
          "internalType": "bytes",
          "name": "_signature",
          "type": "bytes"
        }
      ],
      "name": "verifySigner",
      "outputs": [
        {
          "internalType": "bool",
          "name": "",
          "type": "bool"
        }
      ],
      "stateMutability": "pure",
      "type": "function"
    }
  ],
  "bytecode": "608060405234801561001057600080fd5b506040516106f53803806106f583398101604081905261002f916100ad565b6100383361005d565b600180546001600160a01b0319166001600160a01b03929092169190911790556100dd565b600080546001600160a01b038381166001600160a01b0319831681178455604051919092169283917f8be0079c531659141344cd1fd0a4f28419497f9722a3daafe3b4186f6b6457e09190a35050565b6000602082840312156100bf57600080fd5b81516001600160a01b03811681146100d657600080fd5b9392505050565b610609806100ec6000396000f3fe608060405234801561001057600080fd5b50600436106100625760003560e01c80636e0a874614610067578063715018a6146100915780638da5cb5b1461009b578063daca6f78146100ac578063e92b0842146100cf578063f2fde38b146100e2575b600080fd5b6001546001600160a01b03165b6040516001600160a01b0390911681526020015b60405180910390f35b6100996100f5565b005b6000546001600160a01b0316610074565b6100bf6100ba3660046104fe565b610109565b6040519015158152602001610088565b6100bf6100dd366004610561565b61011c565b6100996100f03660046105b8565b6101b0565b6100fd61022e565b6101076000610288565b565b600061011583836102d8565b9392505050565b602081810151604080840151606080860151835160008082528188018087528a905291821a81860181905292810186905260808101849052935190959293919260019260a080820193601f1981019281900390910190855afa158015610186573d6000803e3d6000fd5b505050602060405103516001600160a01b0316876001600160a01b03161493505050509392505050565b6101b861022e565b6001600160a01b0381166102225760405162461bcd60e51b815260206004820152602660248201527f4f776e61626c653a206e6577206f776e657220697320746865207a65726f206160448201526564647265737360d01b60648201526084015b60405180910390fd5b61022b81610288565b50565b6000546001600160a01b031633146101075760405162461bcd60e51b815260206004820181905260248201527f4f776e61626c653a2063616c6c6572206973206e6f7420746865206f776e65726044820152606401610219565b600080546001600160a01b038381166001600160a01b0319831681178455604051919092169283917f8be0079c531659141344cd1fd0a4f28419497f9722a3daafe3b4186f6b6457e09190a35050565b60006102e261022e565b6000546001600160a01b031633146103505760405162461bcd60e51b815260206004820152602b60248201527f4552433732313a3a2043616c6c20746f20636f6e7472616374206d616465206260448201526a3c903737b716b7bbb732b960a91b6064820152608401610219565b81516041146103a15760405162461bcd60e51b815260206004820152601e60248201527f4572723a3a20496e76616c6964207369676e6174757265206c656e67746800006044820152606401610219565b602082810151604080850151606080870151835160008082529681018086528a905290861a938101849052908101849052608081018290529293909260019060a0016020604051602081039080840390855afa158015610405573d6000803e3d6000fd5b5050604051601f198101516001549093506001600160a01b038085169116149150819089907f7e4fe2a2a805a357593fdbdde58c02f6a53d8b4960744cd31a98697fc11c2e3690600090a3979650505050505050565b634e487b7160e01b600052604160045260246000fd5b600082601f83011261048257600080fd5b813567ffffffffffffffff8082111561049d5761049d61045b565b604051601f8301601f19908116603f011681019082821181831017156104c5576104c561045b565b816040528381528660208588010111156104de57600080fd5b836020870160208301376000602085830101528094505050505092915050565b6000806040838503121561051157600080fd5b82359150602083013567ffffffffffffffff81111561052f57600080fd5b61053b85828601610471565b9150509250929050565b80356001600160a01b038116811461055c57600080fd5b919050565b60008060006060848603121561057657600080fd5b61057f84610545565b925060208401359150604084013567ffffffffffffffff8111156105a257600080fd5b6105ae86828701610471565b9150509250925092565b6000602082840312156105ca57600080fd5b6101158261054556fea26469706673582212206c492d7604da8f25a51bb09e833fb31745e425f587e459e83be062c1d136cfb764736f6c634300080c0033",
  "bytecodeSha1": "4cb55ed56d5bc7297cfd70820f6d2bcc4f83a640",
  "compiler": {
    "evm_version": "istanbul",
    "optimizer": {
      "enabled": true,
      "runs": 200
    },
    "version": "0.8.12+commit.f00d7308"
  },
  "contractName": "Allowlist",
  "language": "Solidity",
  "natspec": {
    "author": "Daccred.",
    "details": "The allowlist contract serves as a general inheritable       contract that any contract with the need of working with       signatures and signature verifications can inherit and        work with with ease.       Allowlists allow you to ensure that a particular address       has been signed by a particular contract, and is therefore       eligible to receive or be minted a particular token or        partcular sets of tokens.       It will be necessary to state that this contract will be       directly owned by the Daccred.sol [link here], but on       deploy, the address of the wallet deploying the contract       will be stored as the `allowlistOwner`, this address       cannot be changed, and this address will be evaluated for       incoming signature confirmations.       The address must be the signer of the signature.       Changing this address means changing every signature        signed. This is not good.       For clarity:       Contract deployer: Daccred.sol.",
    "errors": {
      "Unsigned(address)": [
        {
          "details": "Thrown when the address passed to the verify function is not signed."
        }
      ]
    },
    "kind": "dev",
    "methods": {
      "constructor": {
        "details": "constructor, setting the allowlistOwner."
      },
      "getAllowlistOwner()": {
        "details": "Return the allowlistOwner.",
        "notice": "Callable by anyone.",
        "returns": {
          "_0": "address of allowlistOwner."
        }
      },
      "owner()": {
        "details": "Returns the address of the current owner."
      },
      "renounceOwnership()": {
        "details": "Leaves the contract without owner. It will not be possible to call       `onlyOwner` functions anymore. Can only be called by the current owner.       NOTE: Renouncing ownership will leave the contract without an owner,       thereby removing any functionality that is only available to the owner."
      },
      "transferOwnership(address)": {
        "details": "Transfers ownership of the contract to a new account (`newOwner`).       Can only be called by the current owner."
      },
      "verifySignature(bytes32,bytes)": {
        "details": "Returns true if the signer of signature `sig` is the `allowlistOwner`.       And false if otherwise.",
        "notice": "Callable by anyone.",
        "returns": {
          "_0": "bool true or false."
        }
      },
      "verifySigner(address,bytes32,bytes)": {
        "details": "Returns true if the signer of `_signature` is `_signer`.",
        "notice": "Callable by anyone.",
        "returns": {
          "_0": "bool true or false."
        }
      }
    },
    "stateVariables": {
      "allowlistOwner": {
        "details": "The wallet that initiated the transaction to deploy         this allowlist contract         [And other subsequent ones inheriting this],          passed as msg.sender from the Daccred.sol."
      }
    },
    "title": "Allowlist Contract.",
    "version": 1
  },
  "opcodes": "PUSH1 0x80 PUSH1 0x40 MSTORE CALLVALUE DUP1 ISZERO PUSH2 0x10 JUMPI PUSH1 0x0 DUP1 REVERT JUMPDEST POP PUSH1 0x4 CALLDATASIZE LT PUSH2 0x62 JUMPI PUSH1 0x0 CALLDATALOAD PUSH1 0xE0 SHR DUP1 PUSH4 0x6E0A8746 EQ PUSH2 0x67 JUMPI DUP1 PUSH4 0x715018A6 EQ PUSH2 0x91 JUMPI DUP1 PUSH4 0x8DA5CB5B EQ PUSH2 0x9B JUMPI DUP1 PUSH4 0xDACA6F78 EQ PUSH2 0xAC JUMPI DUP1 PUSH4 0xE92B0842 EQ PUSH2 0xCF JUMPI DUP1 PUSH4 0xF2FDE38B EQ PUSH2 0xE2 JUMPI JUMPDEST PUSH1 0x0 DUP1 REVERT JUMPDEST PUSH1 0x1 SLOAD PUSH1 0x1 PUSH1 0x1 PUSH1 0xA0 SHL SUB AND JUMPDEST PUSH1 0x40 MLOAD PUSH1 0x1 PUSH1 0x1 PUSH1 0xA0 SHL SUB SWAP1 SWAP2 AND DUP2 MSTORE PUSH1 0x20 ADD JUMPDEST PUSH1 0x40 MLOAD DUP1 SWAP2 SUB SWAP1 RETURN JUMPDEST PUSH2 0x99 PUSH2 0xF5 JUMP JUMPDEST STOP JUMPDEST PUSH1 0x0 SLOAD PUSH1 0x1 PUSH1 0x1 PUSH1 0xA0 SHL SUB AND PUSH2 0x74 JUMP JUMPDEST PUSH2 0xBF PUSH2 0xBA CALLDATASIZE PUSH1 0x4 PUSH2 0x4FE JUMP JUMPDEST PUSH2 0x109 JUMP JUMPDEST PUSH1 0x40 MLOAD SWAP1 ISZERO ISZERO DUP2 MSTORE PUSH1 0x20 ADD PUSH2 0x88 JUMP JUMPDEST PUSH2 0xBF PUSH2 0xDD CALLDATASIZE PUSH1 0x4 PUSH2 0x561 JUMP JUMPDEST PUSH2 0x11C JUMP JUMPDEST PUSH2 0x99 PUSH2 0xF0 CALLDATASIZE PUSH1 0x4 PUSH2 0x5B8 JUMP JUMPDEST PUSH2 0x1B0 JUMP JUMPDEST PUSH2 0xFD PUSH2 0x22E JUMP JUMPDEST PUSH2 0x107 PUSH1 0x0 PUSH2 0x288 JUMP JUMPDEST JUMP JUMPDEST PUSH1 0x0 PUSH2 0x115 DUP4 DUP4 PUSH2 0x2D8 JUMP JUMPDEST SWAP4 SWAP3 POP POP POP JUMP JUMPDEST PUSH1 0x20 DUP2 DUP2 ADD MLOAD PUSH1 0x40 DUP1 DUP5 ADD MLOAD PUSH1 0x60 DUP1 DUP7 ADD MLOAD DUP4 MLOAD PUSH1 0x0 DUP1 DUP3 MSTORE DUP2 DUP9 ADD DUP1 DUP8 MSTORE DUP11 SWAP1 MSTORE SWAP2 DUP3 BYTE DUP2 DUP7 ADD DUP2 SWAP1 MSTORE SWAP3 DUP2 ADD DUP7 SWAP1 MSTORE PUSH1 0x80 DUP2 ADD DUP5 SWAP1 MSTORE SWAP4 MLOAD SWAP1 SWAP6 SWAP3 SWAP4 SWAP2 SWAP3 PUSH1 0x1 SWAP3 PUSH1 0xA0 DUP1 DUP3 ADD SWAP4 PUSH1 0x1F NOT DUP2 ADD SWAP3 DUP2 SWAP1 SUB SWAP1 SWAP2 ADD SWAP1 DUP6 GAS STATICCALL ISZERO DUP1 ISZERO PUSH2 0x186 JUMPI RETURNDATASIZE PUSH1 0x0 DUP1 RETURNDATACOPY RETURNDATASIZE PUSH1 0x0 REVERT JUMPDEST POP POP POP PUSH1 0x20 PUSH1 0x40 MLOAD SUB MLOAD PUSH1 0x1 PUSH1 0x1 PUSH1 0xA0 SHL SUB AND DUP8 PUSH1 0x1 PUSH1 0x1 PUSH1 0xA0 SHL SUB AND EQ SWAP4 POP POP POP POP SWAP4 SWAP3 POP POP POP JUMP JUMPDEST PUSH2 0x1B8 PUSH2 0x22E JUMP JUMPDEST PUSH1 0x1 PUSH1 0x1 PUSH1 0xA0 SHL SUB DUP2 AND PUSH2 0x222 JUMPI PUSH1 0x40 MLOAD PUSH3 0x461BCD PUSH1 0xE5 SHL DUP2 MSTORE PUSH1 0x20 PUSH1 0x4 DUP3 ADD MSTORE PUSH1 0x26 PUSH1 0x24 DUP3 ADD MSTORE PUSH32 0x4F776E61626C653A206E6577206F776E657220697320746865207A65726F2061 PUSH1 0x44 DUP3 ADD MSTORE PUSH6 0x646472657373 PUSH1 0xD0 SHL PUSH1 0x64 DUP3 ADD MSTORE PUSH1 0x84 ADD JUMPDEST PUSH1 0x40 MLOAD DUP1 SWAP2 SUB SWAP1 REVERT JUMPDEST PUSH2 0x22B DUP2 PUSH2 0x288 JUMP JUMPDEST POP JUMP JUMPDEST PUSH1 0x0 SLOAD PUSH1 0x1 PUSH1 0x1 PUSH1 0xA0 SHL SUB AND CALLER EQ PUSH2 0x107 JUMPI PUSH1 0x40 MLOAD PUSH3 0x461BCD PUSH1 0xE5 SHL DUP2 MSTORE PUSH1 0x20 PUSH1 0x4 DUP3 ADD DUP2 SWAP1 MSTORE PUSH1 0x24 DUP3 ADD MSTORE PUSH32 0x4F776E61626C653A2063616C6C6572206973206E6F7420746865206F776E6572 PUSH1 0x44 DUP3 ADD MSTORE PUSH1 0x64 ADD PUSH2 0x219 JUMP JUMPDEST PUSH1 0x0 DUP1 SLOAD PUSH1 0x1 PUSH1 0x1 PUSH1 0xA0 SHL SUB DUP4 DUP2 AND PUSH1 0x1 PUSH1 0x1 PUSH1 0xA0 SHL SUB NOT DUP4 AND DUP2 OR DUP5 SSTORE PUSH1 0x40 MLOAD SWAP2 SWAP1 SWAP3 AND SWAP3 DUP4 SWAP2 PUSH32 0x8BE0079C531659141344CD1FD0A4F28419497F9722A3DAAFE3B4186F6B6457E0 SWAP2 SWAP1 LOG3 POP POP JUMP JUMPDEST PUSH1 0x0 PUSH2 0x2E2 PUSH2 0x22E JUMP JUMPDEST PUSH1 0x0 SLOAD PUSH1 0x1 PUSH1 0x1 PUSH1 0xA0 SHL SUB AND CALLER EQ PUSH2 0x350 JUMPI PUSH1 0x40 MLOAD PUSH3 0x461BCD PUSH1 0xE5 SHL DUP2 MSTORE PUSH1 0x20 PUSH1 0x4 DUP3 ADD MSTORE PUSH1 0x2B PUSH1 0x24 DUP3 ADD MSTORE PUSH32 0x4552433732313A3A2043616C6C20746F20636F6E7472616374206D6164652062 PUSH1 0x44 DUP3 ADD MSTORE PUSH11 0x3C903737B716B7BBB732B9 PUSH1 0xA9 SHL PUSH1 0x64 DUP3 ADD MSTORE PUSH1 0x84 ADD PUSH2 0x219 JUMP JUMPDEST DUP2 MLOAD PUSH1 0x41 EQ PUSH2 0x3A1 JUMPI PUSH1 0x40 MLOAD PUSH3 0x461BCD PUSH1 0xE5 SHL DUP2 MSTORE PUSH1 0x20 PUSH1 0x4 DUP3 ADD MSTORE PUSH1 0x1E PUSH1 0x24 DUP3 ADD MSTORE PUSH32 0x4572723A3A20496E76616C6964207369676E6174757265206C656E6774680000 PUSH1 0x44 DUP3 ADD MSTORE PUSH1 0x64 ADD PUSH2 0x219 JUMP JUMPDEST PUSH1 0x20 DUP3 DUP2 ADD MLOAD PUSH1 0x40 DUP1 DUP6 ADD MLOAD PUSH1 0x60 DUP1 DUP8 ADD MLOAD DUP4 MLOAD PUSH1 0x0 DUP1 DUP3 MSTORE SWAP7 DUP2 ADD DUP1 DUP7 MSTORE DUP11 SWAP1 MSTORE SWAP1 DUP7 BYTE SWAP4 DUP2 ADD DUP5 SWAP1 MSTORE SWAP1 DUP2 ADD DUP5 SWAP1 MSTORE PUSH1 0x80 DUP2 ADD DUP3 SWAP1 MSTORE SWAP3 SWAP4 SWAP1 SWAP3 PUSH1 0x1 SWAP1 PUSH1 0xA0 ADD PUSH1 0x20 PUSH1 0x40 MLOAD PUSH1 0x20 DUP2 SUB SWAP1 DUP1 DUP5 SUB SWAP1 DUP6 GAS STATICCALL ISZERO DUP1 ISZERO PUSH2 0x405 JUMPI RETURNDATASIZE PUSH1 0x0 DUP1 RETURNDATACOPY RETURNDATASIZE PUSH1 0x0 REVERT JUMPDEST POP POP PUSH1 0x40 MLOAD PUSH1 0x1F NOT DUP2 ADD MLOAD PUSH1 0x1 SLOAD SWAP1 SWAP4 POP PUSH1 0x1 PUSH1 0x1 PUSH1 0xA0 SHL SUB DUP1 DUP6 AND SWAP2 AND EQ SWAP2 POP DUP2 SWAP1 DUP10 SWAP1 PUSH32 0x7E4FE2A2A805A357593FDBDDE58C02F6A53D8B4960744CD31A98697FC11C2E36 SWAP1 PUSH1 0x0 SWAP1 LOG3 SWAP8 SWAP7 POP POP POP POP POP POP POP JUMP JUMPDEST PUSH4 0x4E487B71 PUSH1 0xE0 SHL PUSH1 0x0 MSTORE PUSH1 0x41 PUSH1 0x4 MSTORE PUSH1 0x24 PUSH1 0x0 REVERT JUMPDEST PUSH1 0x0 DUP3 PUSH1 0x1F DUP4 ADD SLT PUSH2 0x482 JUMPI PUSH1 0x0 DUP1 REVERT JUMPDEST DUP2 CALLDATALOAD PUSH8 0xFFFFFFFFFFFFFFFF DUP1 DUP3 GT ISZERO PUSH2 0x49D JUMPI PUSH2 0x49D PUSH2 0x45B JUMP JUMPDEST PUSH1 0x40 MLOAD PUSH1 0x1F DUP4 ADD PUSH1 0x1F NOT SWAP1 DUP2 AND PUSH1 0x3F ADD AND DUP2 ADD SWAP1 DUP3 DUP3 GT DUP2 DUP4 LT OR ISZERO PUSH2 0x4C5 JUMPI PUSH2 0x4C5 PUSH2 0x45B JUMP JUMPDEST DUP2 PUSH1 0x40 MSTORE DUP4 DUP2 MSTORE DUP7 PUSH1 0x20 DUP6 DUP9 ADD ADD GT ISZERO PUSH2 0x4DE JUMPI PUSH1 0x0 DUP1 REVERT JUMPDEST DUP4 PUSH1 0x20 DUP8 ADD PUSH1 0x20 DUP4 ADD CALLDATACOPY PUSH1 0x0 PUSH1 0x20 DUP6 DUP4 ADD ADD MSTORE DUP1 SWAP5 POP POP POP POP POP SWAP3 SWAP2 POP POP JUMP JUMPDEST PUSH1 0x0 DUP1 PUSH1 0x40 DUP4 DUP6 SUB SLT ISZERO PUSH2 0x511 JUMPI PUSH1 0x0 DUP1 REVERT JUMPDEST DUP3 CALLDATALOAD SWAP2 POP PUSH1 0x20 DUP4 ADD CALLDATALOAD PUSH8 0xFFFFFFFFFFFFFFFF DUP2 GT ISZERO PUSH2 0x52F JUMPI PUSH1 0x0 DUP1 REVERT JUMPDEST PUSH2 0x53B DUP6 DUP3 DUP7 ADD PUSH2 0x471 JUMP JUMPDEST SWAP2 POP POP SWAP3 POP SWAP3 SWAP1 POP JUMP JUMPDEST DUP1 CALLDATALOAD PUSH1 0x1 PUSH1 0x1 PUSH1 0xA0 SHL SUB DUP2 AND DUP2 EQ PUSH2 0x55C JUMPI PUSH1 0x0 DUP1 REVERT JUMPDEST SWAP2 SWAP1 POP JUMP JUMPDEST PUSH1 0x0 DUP1 PUSH1 0x0 PUSH1 0x60 DUP5 DUP7 SUB SLT ISZERO PUSH2 0x576 JUMPI PUSH1 0x0 DUP1 REVERT JUMPDEST PUSH2 0x57F DUP5 PUSH2 0x545 JUMP JUMPDEST SWAP3 POP PUSH1 0x20 DUP5 ADD CALLDATALOAD SWAP2 POP PUSH1 0x40 DUP5 ADD CALLDATALOAD PUSH8 0xFFFFFFFFFFFFFFFF DUP2 GT ISZERO PUSH2 0x5A2 JUMPI PUSH1 0x0 DUP1 REVERT JUMPDEST PUSH2 0x5AE DUP7 DUP3 DUP8 ADD PUSH2 0x471 JUMP JUMPDEST SWAP2 POP POP SWAP3 POP SWAP3 POP SWAP3 JUMP JUMPDEST PUSH1 0x0 PUSH1 0x20 DUP3 DUP5 SUB SLT ISZERO PUSH2 0x5CA JUMPI PUSH1 0x0 DUP1 REVERT JUMPDEST PUSH2 0x115 DUP3 PUSH2 0x545 JUMP INVALID LOG2 PUSH5 0x6970667358 0x22 SLT KECCAK256 PUSH13 0x492D7604DA8F25A51BB09E833F 0xB3 OR GASLIMIT 0xE4 0x25 CREATE2 DUP8 0xE4 MSIZE 0xE8 EXTCODESIZE 0xE0 PUSH3 0xC1D136 0xCF 0xB7 PUSH5 0x736F6C6343 STOP ADDMOD 0xC STOP CALLER ",
  "sha1": "de17033e6ba778d8411e0bbf63d9f84b498c7705",
  "source": "// SPDX-License-Identifier: GPL-3.0\npragma solidity ^0.8.0;\n\nimport \"./Ownable.sol\";\nimport \"../contracts/interfaces/IAllowlist.sol\";\n\n/**\n* @title Allowlist Contract.\n* @author Daccred.\n* @dev  The allowlist contract serves as a general inheritable\n*       contract that any contract with the need of working with\n*       signatures and signature verifications can inherit and \n*       work with with ease.\n*       Allowlists allow you to ensure that a particular address\n*       has been signed by a particular contract, and is therefore\n*       eligible to receive or be minted a particular token or \n*       partcular sets of tokens.\n*       It will be necessary to state that this contract will be\n*       directly owned by the Daccred.sol [link here], but on\n*       deploy, the address of the wallet deploying the contract\n*       will be stored as the `allowlistOwner`, this address\n*       cannot be changed, and this address will be evaluated for\n*       incoming signature confirmations.\n*       The address must be the signer of the signature.\n*       Changing this address means changing every signature \n*       signed. This is not good.\n*\n*       For clarity:\n*       Contract deployer: Daccred.sol.\n*/\ncontract Allowlist is IAllowlist, Ownable {\n    /// @dev    The wallet that initiated the transaction to deploy\n    ///         this allowlist contract\n    ///         [And other subsequent ones inheriting this], \n    ///         passed as msg.sender from the Daccred.sol.\n    address private allowlistOwner;\n\n    /// @dev constructor, setting the allowlistOwner.\n    constructor(address _allowlistOwner) {\n        /// @dev Set the variable name.\n        allowlistOwner = _allowlistOwner;\n    }\n\n    /// @dev    Emitted when a signature is verified by the\n    ///         allowlistOwner.\n    event VerifySignature(bytes32 indexed addressHash, bool indexed result);\n\n    /**\n    * @dev Return the allowlistOwner.\n    *\n    * @notice Callable by anyone.\n    *\n    * @return address of allowlistOwner.\n    */\n    function getAllowlistOwner() public view returns(address) {\n        return allowlistOwner;\n    }\n\n    /**\n    * @dev  Returns true if the signer of signature `sig` is the `allowlistOwner`.\n    *       And false if otherwise.\n    *\n    * @notice Callable by anyone.\n    *\n    * @return bool true or false.\n    */\n    function verifySignature(bytes32 hash, bytes memory sig)\n    public \n    returns (bool)\n    {\n        return _verifySignature(hash, sig);\n    }\n\n    /**\n    * @dev  Evaluate and return that a particular address message\n    *       was signed by the allowlistOwner.\n    *       In the SoulboundCore.sol, this function will be used\n    *       in the {issueWithSignature} function, to verify that\n    *       the hash of the address was indeed signed by the\n    *       allowlistOwner.\n    *       This functin will be called from the Daccred.sol or\n    *       DaccredDeployer.sol where the address of the \n    *       allowlistOwner will be passed to the function, as \n    *       msg.sender. Meaning that only the owner of the \n    *       allowlist deployed from the Daccred.sol can call \n    *       the function.\n    *       Or using the getAllowlistOwner() for validations.\n    *\n    * @notice Callable by this or inheriting contract.\n    *\n    * @param hash   Hash of the address.\n    * @param sig    Signature of the transaction, made offchain.\n    *\n    * @return bool true or false.\n    */\n    function _verifySignature(bytes32 hash, bytes memory sig)\n    internal\n    onlyOwner\n    returns(bool)\n    {\n        /// @dev    Require that the caller is the owner [deployer]\n        ///         of the contract, [the Daccred.sol].\n        require(\n            _msgSender() == owner(), \n            \"ERC721:: Call to contract made by non-owner\"\n        );\n        /// @dev Require the length of the signature is 65.\n        require(sig.length == 65, \"Err:: Invalid signature length\");\n        /// @dev Use assembly to get the 3 sections of a signature.\n        (bytes32 r, bytes32 s, uint8 v) = splitSignature(sig);\n        /// @dev    Using ecrecover to get the signer.\n        address signer = ecrecover(hash, v, r, s);\n        /// @dev Verify that the signer is the allowlistOwner.\n        bool signerIsAllowlistOwner = (signer == allowlistOwner);\n        /// @dev Emit the {VerifySignature} event.\n        emit VerifySignature(hash, signerIsAllowlistOwner);\n        /// @dev Return the result.\n        return signerIsAllowlistOwner;\n    }\n\n    /**\n    * @dev Returns true if the signer of `_signature` is `_signer`.\n    *\n    * @notice Callable by anyone.\n    *\n    * @return bool true or false.\n    */\n    function verifySigner(\n        address _signer, \n        bytes32 _hash, \n        bytes memory _signature\n    ) public pure returns(bool) {\n        (bytes32 r, bytes32 s, uint8 v) = splitSignature(_signature);\n        return(_signer == ecrecover(_hash, v, r, s));\n    }\n\n    /**\n    * @dev  This function makes use of assembly to split the signature\n    *       into 3 parts.\n    *\n    * @param sig The signature to split with Assembly.\n    *\n    * @return r\n    * @return s\n    * @return v\n    */\n    function splitSignature(bytes memory sig) private pure returns(\n        bytes32 r,\n        bytes32 s,\n        uint8 v\n    )\n    {\n        assembly {\n            /**\n            * @dev  Copied from https://solidity-by-example.org/signature.\n            *       First 32 bytes stores the length of the signature\n            *       add(sig, 32) = pointer of sig + 32\n            *       effectively, skips first 32 bytes of signature\n            *       mload(p) loads next 32 bytes starting at the memory \n            *       address p into memory.\n            */\n\n            /// @dev First 32 bytes, after the length prefix.\n            r := mload(add(sig, 32))\n            /// @dev Second 32 bytes.\n            s := mload(add(sig, 64))\n            /// @dev Final byte (first byte of the next 32 bytes).\n            v := byte(0, mload(add(sig, 96)))\n        }\n\n    }\n}\n",
  "sourcePath": "contracts/extensions/Allowlist.sol",
  "type": "contract"
}