{
  "abi": [
    {
      "inputs": [],
      "stateMutability": "nonpayable",
      "type": "constructor"
    },
    {
      "inputs": [
        {
          "internalType": "address",
          "name": "_facet",
          "type": "address"
        },
        {
          "internalType": "bytes4",
          "name": "_selector",
          "type": "bytes4"
        }
      ],
      "name": "addDeployerSelector",
      "outputs": [],
      "stateMutability": "nonpayable",
      "type": "function"
    },
    {
      "inputs": [
        {
          "internalType": "string",
          "name": "_name",
          "type": "string"
        },
        {
          "internalType": "string",
          "name": "_symbol",
          "type": "string"
        }
      ],
      "name": "deployERC721ExtensionCore",
      "outputs": [
        {
          "internalType": "address",
          "name": "",
          "type": "address"
        }
      ],
      "stateMutability": "nonpayable",
      "type": "function"
    },
    {
      "inputs": [
        {
          "internalType": "string",
          "name": "_name",
          "type": "string"
        },
        {
          "internalType": "string",
          "name": "_symbol",
          "type": "string"
        },
        {
          "internalType": "address",
          "name": "_comissioner",
          "type": "address"
        },
        {
          "internalType": "uint256",
          "name": "_maxSupply",
          "type": "uint256"
        },
        {
          "internalType": "uint256",
          "name": "_commissions",
          "type": "uint256"
        },
        {
          "internalType": "uint256",
          "name": "_cappedSupply",
          "type": "uint256"
        },
        {
          "internalType": "uint256",
          "name": "_redemptionTariff",
          "type": "uint256"
        }
      ],
      "name": "deployERC721ExtensionSignature",
      "outputs": [
        {
          "internalType": "address",
          "name": "",
          "type": "address"
        }
      ],
      "stateMutability": "nonpayable",
      "type": "function"
    },
    {
      "inputs": [
        {
          "internalType": "string",
          "name": "_name",
          "type": "string"
        },
        {
          "internalType": "string",
          "name": "_symbol",
          "type": "string"
        }
      ],
      "name": "deploySoulbound",
      "outputs": [
        {
          "internalType": "address",
          "name": "",
          "type": "address"
        }
      ],
      "stateMutability": "nonpayable",
      "type": "function"
    },
    {
      "inputs": [
        {
          "internalType": "string",
          "name": "_name",
          "type": "string"
        },
        {
          "internalType": "string",
          "name": "_symbol",
          "type": "string"
        },
        {
          "internalType": "address",
          "name": "_allowlistOwner",
          "type": "address"
        },
        {
          "internalType": "uint256",
          "name": "_totalSupply",
          "type": "uint256"
        }
      ],
      "name": "deploySoulboundCore",
      "outputs": [
        {
          "internalType": "address",
          "name": "",
          "type": "address"
        }
      ],
      "stateMutability": "nonpayable",
      "type": "function"
    },
    {
      "inputs": [
        {
          "internalType": "string",
          "name": "_name",
          "type": "string"
        },
        {
          "internalType": "string",
          "name": "_symbol",
          "type": "string"
        },
        {
          "internalType": "address",
          "name": "_allowlistOwner",
          "type": "address"
        },
        {
          "internalType": "uint256",
          "name": "_totalSupply",
          "type": "uint256"
        },
        {
          "internalType": "uint256",
          "name": "_priceLimit",
          "type": "uint256"
        },
        {
          "internalType": "uint256",
          "name": "_tokenPrice",
          "type": "uint256"
        }
      ],
      "name": "deploySoulboundRedeemable",
      "outputs": [
        {
          "internalType": "address",
          "name": "",
          "type": "address"
        }
      ],
      "stateMutability": "nonpayable",
      "type": "function"
    },
    {
      "inputs": [
        {
          "internalType": "string",
          "name": "_name",
          "type": "string"
        },
        {
          "internalType": "string",
          "name": "_symbol",
          "type": "string"
        },
        {
          "internalType": "address",
          "name": "_allowlistOwner",
          "type": "address"
        },
        {
          "internalType": "uint256",
          "name": "_totalSupply",
          "type": "uint256"
        }
      ],
      "name": "deploySoulboundWithSignature",
      "outputs": [
        {
          "internalType": "address",
          "name": "",
          "type": "address"
        }
      ],
      "stateMutability": "nonpayable",
      "type": "function"
    }
  ],
  "bytecode": "608060405234801561001057600080fd5b50600080546001600160a01b03191633179055610dcb806100326000396000f3fe608060405234801561001057600080fd5b506004361061007d5760003560e01c8063aa621cde1161005b578063aa621cde146100d7578063ab184932146100ec578063d4152170146100ff578063e9181d921461011257600080fd5b80630b33c33a1461008257806327a31ded146100b15780632ab7fabf146100c4575b600080fd5b6100956100903660046108f4565b610125565b6040516001600160a01b03909116815260200160405180910390f35b6100956100bf366004610972565b610294565b6100956100d2366004610972565b6103f4565b6100ea6100e53660046109d6565b61042b565b005b6100956100fa366004610a1c565b610500565b61009561010d3660046108f4565b61066c565b610095610120366004610aae565b6106a3565b6040805160048152602481019091526020810180516001600160e01b0316630599e19d60e11b179052600090819061015c90610b49565b905061016781610812565b61018c5760405162461bcd60e51b815260040161018390610b80565b60405180910390fd5b6001600160e01b031981166000908152600160205260408082205490516001600160a01b0390911691908190839085906101d0908c908c908c908c90602401610c0a565b60408051601f198184030181529181526020820180516001600160e01b03166001600160e01b031990941693909317909252905161020e9190610c4c565b600060405180830381855af49150503d8060008114610249576040519150601f19603f3d011682016040523d82523d6000602084013e61024e565b606091505b5091509150816102705760405162461bcd60e51b815260040161018390610c68565b6000818060200190518101906102869190610c96565b9a9950505050505050505050565b6040805160048152602481019091526020810180516001600160e01b03166327a31ded60e01b17905260009081906102cb90610b49565b90506102d681610812565b6102f25760405162461bcd60e51b815260040161018390610b80565b6001600160e01b031981166000908152600160205260408082205490516001600160a01b039091169190819083908590610332908a908a90602401610cba565b60408051601f198184030181529181526020820180516001600160e01b03166001600160e01b03199094169390931790925290516103709190610c4c565b600060405180830381855af49150503d80600081146103ab576040519150601f19603f3d011682016040523d82523d6000602084013e6103b0565b606091505b5091509150816103d25760405162461bcd60e51b815260040161018390610c68565b6000818060200190518101906103e89190610c96565b98975050505050505050565b6040805160048152602481019091526020810180516001600160e01b0316632ab7fabf60e01b17905260009081906102cb90610b49565b6000546001600160a01b031633146104725760405162461bcd60e51b815260206004820152600a6024820152692737ba1027bbb732b91760b11b6044820152606401610183565b6001600160a01b0382166104c85760405162461bcd60e51b815260206004820152601a60248201527f46616365742053657420546f205a65726f20416464726573732e0000000000006044820152606401610183565b6001600160e01b031916600090815260016020526040902080546001600160a01b0319166001600160a01b0392909216919091179055565b6040805160048152602481019091526020810180516001600160e01b031663558c249960e11b179052600090819061053790610b49565b905061054281610812565b61055e5760405162461bcd60e51b815260040161018390610b80565b6001600160e01b031981166000908152600160205260408082205490516001600160a01b0390911691908190839085906105a6908e908e908e908e908e908e90602401610ce8565b60408051601f198184030181529181526020820180516001600160e01b03166001600160e01b03199094169390931790925290516105e49190610c4c565b600060405180830381855af49150503d806000811461061f576040519150601f19603f3d011682016040523d82523d6000602084013e610624565b606091505b5091509150816106465760405162461bcd60e51b815260040161018390610c68565b60008180602001905181019061065c9190610c96565b9c9b505050505050505050505050565b6040805160048152602481019091526020810180516001600160e01b0316630d41521760e41b179052600090819061015c90610b49565b6040805160048152602481019091526020810180516001600160e01b031663748c0ec960e11b17905260009081906106da90610b49565b90506106e581610812565b6107015760405162461bcd60e51b815260040161018390610b80565b6001600160e01b031981166000908152600160205260408082205490516001600160a01b03909116919081908390859061074b908f908f908f908f908f908f908f90602401610d3c565b60408051601f198184030181529181526020820180516001600160e01b03166001600160e01b03199094169390931790925290516107899190610c4c565b600060405180830381855af49150503d80600081146107c4576040519150601f19603f3d011682016040523d82523d6000602084013e6107c9565b606091505b5091509150816107eb5760405162461bcd60e51b815260040161018390610c68565b6000818060200190518101906108019190610c96565b9d9c50505050505050505050505050565b6001600160e01b0319166000908152600160205260409020546001600160a01b0316151590565b634e487b7160e01b600052604160045260246000fd5b600082601f83011261086057600080fd5b813567ffffffffffffffff8082111561087b5761087b610839565b604051601f8301601f19908116603f011681019082821181831017156108a3576108a3610839565b816040528381528660208588010111156108bc57600080fd5b836020870160208301376000602085830101528094505050505092915050565b6001600160a01b03811681146108f157600080fd5b50565b6000806000806080858703121561090a57600080fd5b843567ffffffffffffffff8082111561092257600080fd5b61092e8883890161084f565b9550602087013591508082111561094457600080fd5b506109518782880161084f565b9350506040850135610962816108dc565b9396929550929360600135925050565b6000806040838503121561098557600080fd5b823567ffffffffffffffff8082111561099d57600080fd5b6109a98683870161084f565b935060208501359150808211156109bf57600080fd5b506109cc8582860161084f565b9150509250929050565b600080604083850312156109e957600080fd5b82356109f4816108dc565b915060208301356001600160e01b031981168114610a1157600080fd5b809150509250929050565b60008060008060008060c08789031215610a3557600080fd5b863567ffffffffffffffff80821115610a4d57600080fd5b610a598a838b0161084f565b97506020890135915080821115610a6f57600080fd5b50610a7c89828a0161084f565b9550506040870135610a8d816108dc565b959894975094956060810135955060808101359460a0909101359350915050565b600080600080600080600060e0888a031215610ac957600080fd5b873567ffffffffffffffff80821115610ae157600080fd5b610aed8b838c0161084f565b985060208a0135915080821115610b0357600080fd5b50610b108a828b0161084f565b9650506040880135610b21816108dc565b969995985095966060810135965060808101359560a0820135955060c0909101359350915050565b805160208201516001600160e01b03198082169291906004831015610b785780818460040360031b1b83161693505b505050919050565b60208082526014908201527329b2b632b1ba37b91024b732bc34b9ba32b73a1760611b604082015260600190565b60005b83811015610bc9578181015183820152602001610bb1565b83811115610bd8576000848401525b50505050565b60008151808452610bf6816020860160208601610bae565b601f01601f19169290920160200192915050565b608081526000610c1d6080830187610bde565b8281036020840152610c2f8187610bde565b6001600160a01b0395909516604084015250506060015292915050565b60008251610c5e818460208701610bae565b9190910192915050565b60208082526014908201527344656c656761746563616c6c204661696c65642160601b604082015260600190565b600060208284031215610ca857600080fd5b8151610cb3816108dc565b9392505050565b604081526000610ccd6040830185610bde565b8281036020840152610cdf8185610bde565b95945050505050565b60c081526000610cfb60c0830189610bde565b8281036020840152610d0d8189610bde565b6001600160a01b0397909716604084015250506060810193909352608083019190915260a09091015292915050565b60e081526000610d4f60e083018a610bde565b8281036020840152610d61818a610bde565b6001600160a01b0398909816604084015250506060810194909452608084019290925260a083015260c0909101529291505056fea26469706673582212206845af5d33b87c7ac1e50a65c5fe8f47661e700547046d5f58d1a2dfa2fd4b2964736f6c634300080f0033",
  "bytecodeSha1": "63bf4ddaf73a55a7407006cf662f55a2c018e522",
  "compiler": {
    "evm_version": "istanbul",
    "optimizer": {
      "enabled": true,
      "runs": 200
    },
    "version": "0.8.15+commit.e14f2714"
  },
  "contractName": "Admin",
  "language": "Solidity",
  "natspec": {
    "author": "Daccred.",
    "details": "The admin contract aims at taking all the deployer contracts       and mapping all the deployer function selectors to the respective        addresses, then in turn, calling the selectors via delegatecall       whenever the relevant deployment is needed.       In turn, whenever a new change is made to a contract, we can       easily, redeploy and remap.",
    "kind": "dev",
    "methods": {
      "addDeployerSelector(address,bytes4)": {
        "details": "This function adds a new selector or replaces a particular       selector from the selector map.",
        "params": {
          "_facet": "Facet address containing the function we need.",
          "_selector": "Selector of the function desired."
        }
      },
      "constructor": {
        "details": "Constructor."
      },
      "deployERC721ExtensionCore(string,string)": {
        "details": "Deploys the ERC721ExtensionCore with a set name       and symbol using delegatecall to its facet.",
        "params": {
          "_name": "Name of token.",
          "_symbol": "Desired symbol."
        },
        "returns": {
          "_0": "address"
        }
      },
      "deployERC721ExtensionSignature(string,string,address,uint256,uint256,uint256,uint256)": {
        "details": "Deploys the ERC721ExtensionSignature with its constructor       parameters using delegatecall to its facet.",
        "params": {
          "_name": "Name of token.",
          "_symbol": "Desired symbol."
        },
        "returns": {
          "_0": "address"
        }
      },
      "deploySoulbound(string,string)": {
        "details": "Deploys the Soulbound Contract with a set name       and symbol using delegatecall to its facet.",
        "params": {
          "_name": "Name of token.",
          "_symbol": "Desired symbol."
        },
        "returns": {
          "_0": "address"
        }
      },
      "deploySoulboundCore(string,string,address,uint256)": {
        "details": "Deploys the SoulboundCore Contract with its constructor       parameters using delegatecall to its facet.",
        "params": {
          "_allowlistOwner": "Desired owner of the contrat for sigs.",
          "_name": "Name of token.",
          "_symbol": "Desired symbol.",
          "_totalSupply": "Desired total supply."
        },
        "returns": {
          "_0": "address"
        }
      },
      "deploySoulboundRedeemable(string,string,address,uint256,uint256,uint256)": {
        "details": "Deploys the SoulboundRedeemable Contract with its constructor       parameters using delegatecall to its facet.",
        "params": {
          "_allowlistOwner": "Desired owner of the contrat for sigs.",
          "_name": "Name of token.",
          "_priceLimit": "Desired price limit.",
          "_symbol": "Desired symbol.",
          "_tokenPrice": "Desired token price.",
          "_totalSupply": "Desired total supply."
        },
        "returns": {
          "_0": "address"
        }
      },
      "deploySoulboundWithSignature(string,string,address,uint256)": {
        "details": "Deploys the SoulboundWithSignature Contract with its constructor       parameters using delegatecall to its facet.",
        "params": {
          "_allowlistOwner": "Desired owner of the contrat for sigs.",
          "_name": "Name of token.",
          "_symbol": "Desired symbol.",
          "_totalSupply": "Desired total supply."
        },
        "returns": {
          "_0": "address"
        }
      }
    },
    "stateVariables": {
      "deployerSelectors": {
        "details": "Mapping of all function signatures to the addresses."
      },
      "owner": {
        "details": "Owner address."
      }
    },
    "title": "Admin contract.",
    "version": 1
  },
  "opcodes": "PUSH1 0x80 PUSH1 0x40 MSTORE CALLVALUE DUP1 ISZERO PUSH2 0x10 JUMPI PUSH1 0x0 DUP1 REVERT JUMPDEST POP PUSH1 0x4 CALLDATASIZE LT PUSH2 0x7D JUMPI PUSH1 0x0 CALLDATALOAD PUSH1 0xE0 SHR DUP1 PUSH4 0xAA621CDE GT PUSH2 0x5B JUMPI DUP1 PUSH4 0xAA621CDE EQ PUSH2 0xD7 JUMPI DUP1 PUSH4 0xAB184932 EQ PUSH2 0xEC JUMPI DUP1 PUSH4 0xD4152170 EQ PUSH2 0xFF JUMPI DUP1 PUSH4 0xE9181D92 EQ PUSH2 0x112 JUMPI PUSH1 0x0 DUP1 REVERT JUMPDEST DUP1 PUSH4 0xB33C33A EQ PUSH2 0x82 JUMPI DUP1 PUSH4 0x27A31DED EQ PUSH2 0xB1 JUMPI DUP1 PUSH4 0x2AB7FABF EQ PUSH2 0xC4 JUMPI JUMPDEST PUSH1 0x0 DUP1 REVERT JUMPDEST PUSH2 0x95 PUSH2 0x90 CALLDATASIZE PUSH1 0x4 PUSH2 0x8F4 JUMP JUMPDEST PUSH2 0x125 JUMP JUMPDEST PUSH1 0x40 MLOAD PUSH1 0x1 PUSH1 0x1 PUSH1 0xA0 SHL SUB SWAP1 SWAP2 AND DUP2 MSTORE PUSH1 0x20 ADD PUSH1 0x40 MLOAD DUP1 SWAP2 SUB SWAP1 RETURN JUMPDEST PUSH2 0x95 PUSH2 0xBF CALLDATASIZE PUSH1 0x4 PUSH2 0x972 JUMP JUMPDEST PUSH2 0x294 JUMP JUMPDEST PUSH2 0x95 PUSH2 0xD2 CALLDATASIZE PUSH1 0x4 PUSH2 0x972 JUMP JUMPDEST PUSH2 0x3F4 JUMP JUMPDEST PUSH2 0xEA PUSH2 0xE5 CALLDATASIZE PUSH1 0x4 PUSH2 0x9D6 JUMP JUMPDEST PUSH2 0x42B JUMP JUMPDEST STOP JUMPDEST PUSH2 0x95 PUSH2 0xFA CALLDATASIZE PUSH1 0x4 PUSH2 0xA1C JUMP JUMPDEST PUSH2 0x500 JUMP JUMPDEST PUSH2 0x95 PUSH2 0x10D CALLDATASIZE PUSH1 0x4 PUSH2 0x8F4 JUMP JUMPDEST PUSH2 0x66C JUMP JUMPDEST PUSH2 0x95 PUSH2 0x120 CALLDATASIZE PUSH1 0x4 PUSH2 0xAAE JUMP JUMPDEST PUSH2 0x6A3 JUMP JUMPDEST PUSH1 0x40 DUP1 MLOAD PUSH1 0x4 DUP2 MSTORE PUSH1 0x24 DUP2 ADD SWAP1 SWAP2 MSTORE PUSH1 0x20 DUP2 ADD DUP1 MLOAD PUSH1 0x1 PUSH1 0x1 PUSH1 0xE0 SHL SUB AND PUSH4 0x599E19D PUSH1 0xE1 SHL OR SWAP1 MSTORE PUSH1 0x0 SWAP1 DUP2 SWAP1 PUSH2 0x15C SWAP1 PUSH2 0xB49 JUMP JUMPDEST SWAP1 POP PUSH2 0x167 DUP2 PUSH2 0x812 JUMP JUMPDEST PUSH2 0x18C JUMPI PUSH1 0x40 MLOAD PUSH3 0x461BCD PUSH1 0xE5 SHL DUP2 MSTORE PUSH1 0x4 ADD PUSH2 0x183 SWAP1 PUSH2 0xB80 JUMP JUMPDEST PUSH1 0x40 MLOAD DUP1 SWAP2 SUB SWAP1 REVERT JUMPDEST PUSH1 0x1 PUSH1 0x1 PUSH1 0xE0 SHL SUB NOT DUP2 AND PUSH1 0x0 SWAP1 DUP2 MSTORE PUSH1 0x1 PUSH1 0x20 MSTORE PUSH1 0x40 DUP1 DUP3 KECCAK256 SLOAD SWAP1 MLOAD PUSH1 0x1 PUSH1 0x1 PUSH1 0xA0 SHL SUB SWAP1 SWAP2 AND SWAP2 SWAP1 DUP2 SWAP1 DUP4 SWAP1 DUP6 SWAP1 PUSH2 0x1D0 SWAP1 DUP13 SWAP1 DUP13 SWAP1 DUP13 SWAP1 DUP13 SWAP1 PUSH1 0x24 ADD PUSH2 0xC0A JUMP JUMPDEST PUSH1 0x40 DUP1 MLOAD PUSH1 0x1F NOT DUP2 DUP5 SUB ADD DUP2 MSTORE SWAP2 DUP2 MSTORE PUSH1 0x20 DUP3 ADD DUP1 MLOAD PUSH1 0x1 PUSH1 0x1 PUSH1 0xE0 SHL SUB AND PUSH1 0x1 PUSH1 0x1 PUSH1 0xE0 SHL SUB NOT SWAP1 SWAP5 AND SWAP4 SWAP1 SWAP4 OR SWAP1 SWAP3 MSTORE SWAP1 MLOAD PUSH2 0x20E SWAP2 SWAP1 PUSH2 0xC4C JUMP JUMPDEST PUSH1 0x0 PUSH1 0x40 MLOAD DUP1 DUP4 SUB DUP2 DUP6 GAS DELEGATECALL SWAP2 POP POP RETURNDATASIZE DUP1 PUSH1 0x0 DUP2 EQ PUSH2 0x249 JUMPI PUSH1 0x40 MLOAD SWAP2 POP PUSH1 0x1F NOT PUSH1 0x3F RETURNDATASIZE ADD AND DUP3 ADD PUSH1 0x40 MSTORE RETURNDATASIZE DUP3 MSTORE RETURNDATASIZE PUSH1 0x0 PUSH1 0x20 DUP5 ADD RETURNDATACOPY PUSH2 0x24E JUMP JUMPDEST PUSH1 0x60 SWAP2 POP JUMPDEST POP SWAP2 POP SWAP2 POP DUP2 PUSH2 0x270 JUMPI PUSH1 0x40 MLOAD PUSH3 0x461BCD PUSH1 0xE5 SHL DUP2 MSTORE PUSH1 0x4 ADD PUSH2 0x183 SWAP1 PUSH2 0xC68 JUMP JUMPDEST PUSH1 0x0 DUP2 DUP1 PUSH1 0x20 ADD SWAP1 MLOAD DUP2 ADD SWAP1 PUSH2 0x286 SWAP2 SWAP1 PUSH2 0xC96 JUMP JUMPDEST SWAP11 SWAP10 POP POP POP POP POP POP POP POP POP POP JUMP JUMPDEST PUSH1 0x40 DUP1 MLOAD PUSH1 0x4 DUP2 MSTORE PUSH1 0x24 DUP2 ADD SWAP1 SWAP2 MSTORE PUSH1 0x20 DUP2 ADD DUP1 MLOAD PUSH1 0x1 PUSH1 0x1 PUSH1 0xE0 SHL SUB AND PUSH4 0x27A31DED PUSH1 0xE0 SHL OR SWAP1 MSTORE PUSH1 0x0 SWAP1 DUP2 SWAP1 PUSH2 0x2CB SWAP1 PUSH2 0xB49 JUMP JUMPDEST SWAP1 POP PUSH2 0x2D6 DUP2 PUSH2 0x812 JUMP JUMPDEST PUSH2 0x2F2 JUMPI PUSH1 0x40 MLOAD PUSH3 0x461BCD PUSH1 0xE5 SHL DUP2 MSTORE PUSH1 0x4 ADD PUSH2 0x183 SWAP1 PUSH2 0xB80 JUMP JUMPDEST PUSH1 0x1 PUSH1 0x1 PUSH1 0xE0 SHL SUB NOT DUP2 AND PUSH1 0x0 SWAP1 DUP2 MSTORE PUSH1 0x1 PUSH1 0x20 MSTORE PUSH1 0x40 DUP1 DUP3 KECCAK256 SLOAD SWAP1 MLOAD PUSH1 0x1 PUSH1 0x1 PUSH1 0xA0 SHL SUB SWAP1 SWAP2 AND SWAP2 SWAP1 DUP2 SWAP1 DUP4 SWAP1 DUP6 SWAP1 PUSH2 0x332 SWAP1 DUP11 SWAP1 DUP11 SWAP1 PUSH1 0x24 ADD PUSH2 0xCBA JUMP JUMPDEST PUSH1 0x40 DUP1 MLOAD PUSH1 0x1F NOT DUP2 DUP5 SUB ADD DUP2 MSTORE SWAP2 DUP2 MSTORE PUSH1 0x20 DUP3 ADD DUP1 MLOAD PUSH1 0x1 PUSH1 0x1 PUSH1 0xE0 SHL SUB AND PUSH1 0x1 PUSH1 0x1 PUSH1 0xE0 SHL SUB NOT SWAP1 SWAP5 AND SWAP4 SWAP1 SWAP4 OR SWAP1 SWAP3 MSTORE SWAP1 MLOAD PUSH2 0x370 SWAP2 SWAP1 PUSH2 0xC4C JUMP JUMPDEST PUSH1 0x0 PUSH1 0x40 MLOAD DUP1 DUP4 SUB DUP2 DUP6 GAS DELEGATECALL SWAP2 POP POP RETURNDATASIZE DUP1 PUSH1 0x0 DUP2 EQ PUSH2 0x3AB JUMPI PUSH1 0x40 MLOAD SWAP2 POP PUSH1 0x1F NOT PUSH1 0x3F RETURNDATASIZE ADD AND DUP3 ADD PUSH1 0x40 MSTORE RETURNDATASIZE DUP3 MSTORE RETURNDATASIZE PUSH1 0x0 PUSH1 0x20 DUP5 ADD RETURNDATACOPY PUSH2 0x3B0 JUMP JUMPDEST PUSH1 0x60 SWAP2 POP JUMPDEST POP SWAP2 POP SWAP2 POP DUP2 PUSH2 0x3D2 JUMPI PUSH1 0x40 MLOAD PUSH3 0x461BCD PUSH1 0xE5 SHL DUP2 MSTORE PUSH1 0x4 ADD PUSH2 0x183 SWAP1 PUSH2 0xC68 JUMP JUMPDEST PUSH1 0x0 DUP2 DUP1 PUSH1 0x20 ADD SWAP1 MLOAD DUP2 ADD SWAP1 PUSH2 0x3E8 SWAP2 SWAP1 PUSH2 0xC96 JUMP JUMPDEST SWAP9 SWAP8 POP POP POP POP POP POP POP POP JUMP JUMPDEST PUSH1 0x40 DUP1 MLOAD PUSH1 0x4 DUP2 MSTORE PUSH1 0x24 DUP2 ADD SWAP1 SWAP2 MSTORE PUSH1 0x20 DUP2 ADD DUP1 MLOAD PUSH1 0x1 PUSH1 0x1 PUSH1 0xE0 SHL SUB AND PUSH4 0x2AB7FABF PUSH1 0xE0 SHL OR SWAP1 MSTORE PUSH1 0x0 SWAP1 DUP2 SWAP1 PUSH2 0x2CB SWAP1 PUSH2 0xB49 JUMP JUMPDEST PUSH1 0x0 SLOAD PUSH1 0x1 PUSH1 0x1 PUSH1 0xA0 SHL SUB AND CALLER EQ PUSH2 0x472 JUMPI PUSH1 0x40 MLOAD PUSH3 0x461BCD PUSH1 0xE5 SHL DUP2 MSTORE PUSH1 0x20 PUSH1 0x4 DUP3 ADD MSTORE PUSH1 0xA PUSH1 0x24 DUP3 ADD MSTORE PUSH10 0x2737BA1027BBB732B917 PUSH1 0xB1 SHL PUSH1 0x44 DUP3 ADD MSTORE PUSH1 0x64 ADD PUSH2 0x183 JUMP JUMPDEST PUSH1 0x1 PUSH1 0x1 PUSH1 0xA0 SHL SUB DUP3 AND PUSH2 0x4C8 JUMPI PUSH1 0x40 MLOAD PUSH3 0x461BCD PUSH1 0xE5 SHL DUP2 MSTORE PUSH1 0x20 PUSH1 0x4 DUP3 ADD MSTORE PUSH1 0x1A PUSH1 0x24 DUP3 ADD MSTORE PUSH32 0x46616365742053657420546F205A65726F20416464726573732E000000000000 PUSH1 0x44 DUP3 ADD MSTORE PUSH1 0x64 ADD PUSH2 0x183 JUMP JUMPDEST PUSH1 0x1 PUSH1 0x1 PUSH1 0xE0 SHL SUB NOT AND PUSH1 0x0 SWAP1 DUP2 MSTORE PUSH1 0x1 PUSH1 0x20 MSTORE PUSH1 0x40 SWAP1 KECCAK256 DUP1 SLOAD PUSH1 0x1 PUSH1 0x1 PUSH1 0xA0 SHL SUB NOT AND PUSH1 0x1 PUSH1 0x1 PUSH1 0xA0 SHL SUB SWAP3 SWAP1 SWAP3 AND SWAP2 SWAP1 SWAP2 OR SWAP1 SSTORE JUMP JUMPDEST PUSH1 0x40 DUP1 MLOAD PUSH1 0x4 DUP2 MSTORE PUSH1 0x24 DUP2 ADD SWAP1 SWAP2 MSTORE PUSH1 0x20 DUP2 ADD DUP1 MLOAD PUSH1 0x1 PUSH1 0x1 PUSH1 0xE0 SHL SUB AND PUSH4 0x558C2499 PUSH1 0xE1 SHL OR SWAP1 MSTORE PUSH1 0x0 SWAP1 DUP2 SWAP1 PUSH2 0x537 SWAP1 PUSH2 0xB49 JUMP JUMPDEST SWAP1 POP PUSH2 0x542 DUP2 PUSH2 0x812 JUMP JUMPDEST PUSH2 0x55E JUMPI PUSH1 0x40 MLOAD PUSH3 0x461BCD PUSH1 0xE5 SHL DUP2 MSTORE PUSH1 0x4 ADD PUSH2 0x183 SWAP1 PUSH2 0xB80 JUMP JUMPDEST PUSH1 0x1 PUSH1 0x1 PUSH1 0xE0 SHL SUB NOT DUP2 AND PUSH1 0x0 SWAP1 DUP2 MSTORE PUSH1 0x1 PUSH1 0x20 MSTORE PUSH1 0x40 DUP1 DUP3 KECCAK256 SLOAD SWAP1 MLOAD PUSH1 0x1 PUSH1 0x1 PUSH1 0xA0 SHL SUB SWAP1 SWAP2 AND SWAP2 SWAP1 DUP2 SWAP1 DUP4 SWAP1 DUP6 SWAP1 PUSH2 0x5A6 SWAP1 DUP15 SWAP1 DUP15 SWAP1 DUP15 SWAP1 DUP15 SWAP1 DUP15 SWAP1 DUP15 SWAP1 PUSH1 0x24 ADD PUSH2 0xCE8 JUMP JUMPDEST PUSH1 0x40 DUP1 MLOAD PUSH1 0x1F NOT DUP2 DUP5 SUB ADD DUP2 MSTORE SWAP2 DUP2 MSTORE PUSH1 0x20 DUP3 ADD DUP1 MLOAD PUSH1 0x1 PUSH1 0x1 PUSH1 0xE0 SHL SUB AND PUSH1 0x1 PUSH1 0x1 PUSH1 0xE0 SHL SUB NOT SWAP1 SWAP5 AND SWAP4 SWAP1 SWAP4 OR SWAP1 SWAP3 MSTORE SWAP1 MLOAD PUSH2 0x5E4 SWAP2 SWAP1 PUSH2 0xC4C JUMP JUMPDEST PUSH1 0x0 PUSH1 0x40 MLOAD DUP1 DUP4 SUB DUP2 DUP6 GAS DELEGATECALL SWAP2 POP POP RETURNDATASIZE DUP1 PUSH1 0x0 DUP2 EQ PUSH2 0x61F JUMPI PUSH1 0x40 MLOAD SWAP2 POP PUSH1 0x1F NOT PUSH1 0x3F RETURNDATASIZE ADD AND DUP3 ADD PUSH1 0x40 MSTORE RETURNDATASIZE DUP3 MSTORE RETURNDATASIZE PUSH1 0x0 PUSH1 0x20 DUP5 ADD RETURNDATACOPY PUSH2 0x624 JUMP JUMPDEST PUSH1 0x60 SWAP2 POP JUMPDEST POP SWAP2 POP SWAP2 POP DUP2 PUSH2 0x646 JUMPI PUSH1 0x40 MLOAD PUSH3 0x461BCD PUSH1 0xE5 SHL DUP2 MSTORE PUSH1 0x4 ADD PUSH2 0x183 SWAP1 PUSH2 0xC68 JUMP JUMPDEST PUSH1 0x0 DUP2 DUP1 PUSH1 0x20 ADD SWAP1 MLOAD DUP2 ADD SWAP1 PUSH2 0x65C SWAP2 SWAP1 PUSH2 0xC96 JUMP JUMPDEST SWAP13 SWAP12 POP POP POP POP POP POP POP POP POP POP POP POP JUMP JUMPDEST PUSH1 0x40 DUP1 MLOAD PUSH1 0x4 DUP2 MSTORE PUSH1 0x24 DUP2 ADD SWAP1 SWAP2 MSTORE PUSH1 0x20 DUP2 ADD DUP1 MLOAD PUSH1 0x1 PUSH1 0x1 PUSH1 0xE0 SHL SUB AND PUSH4 0xD415217 PUSH1 0xE4 SHL OR SWAP1 MSTORE PUSH1 0x0 SWAP1 DUP2 SWAP1 PUSH2 0x15C SWAP1 PUSH2 0xB49 JUMP JUMPDEST PUSH1 0x40 DUP1 MLOAD PUSH1 0x4 DUP2 MSTORE PUSH1 0x24 DUP2 ADD SWAP1 SWAP2 MSTORE PUSH1 0x20 DUP2 ADD DUP1 MLOAD PUSH1 0x1 PUSH1 0x1 PUSH1 0xE0 SHL SUB AND PUSH4 0x748C0EC9 PUSH1 0xE1 SHL OR SWAP1 MSTORE PUSH1 0x0 SWAP1 DUP2 SWAP1 PUSH2 0x6DA SWAP1 PUSH2 0xB49 JUMP JUMPDEST SWAP1 POP PUSH2 0x6E5 DUP2 PUSH2 0x812 JUMP JUMPDEST PUSH2 0x701 JUMPI PUSH1 0x40 MLOAD PUSH3 0x461BCD PUSH1 0xE5 SHL DUP2 MSTORE PUSH1 0x4 ADD PUSH2 0x183 SWAP1 PUSH2 0xB80 JUMP JUMPDEST PUSH1 0x1 PUSH1 0x1 PUSH1 0xE0 SHL SUB NOT DUP2 AND PUSH1 0x0 SWAP1 DUP2 MSTORE PUSH1 0x1 PUSH1 0x20 MSTORE PUSH1 0x40 DUP1 DUP3 KECCAK256 SLOAD SWAP1 MLOAD PUSH1 0x1 PUSH1 0x1 PUSH1 0xA0 SHL SUB SWAP1 SWAP2 AND SWAP2 SWAP1 DUP2 SWAP1 DUP4 SWAP1 DUP6 SWAP1 PUSH2 0x74B SWAP1 DUP16 SWAP1 DUP16 SWAP1 DUP16 SWAP1 DUP16 SWAP1 DUP16 SWAP1 DUP16 SWAP1 DUP16 SWAP1 PUSH1 0x24 ADD PUSH2 0xD3C JUMP JUMPDEST PUSH1 0x40 DUP1 MLOAD PUSH1 0x1F NOT DUP2 DUP5 SUB ADD DUP2 MSTORE SWAP2 DUP2 MSTORE PUSH1 0x20 DUP3 ADD DUP1 MLOAD PUSH1 0x1 PUSH1 0x1 PUSH1 0xE0 SHL SUB AND PUSH1 0x1 PUSH1 0x1 PUSH1 0xE0 SHL SUB NOT SWAP1 SWAP5 AND SWAP4 SWAP1 SWAP4 OR SWAP1 SWAP3 MSTORE SWAP1 MLOAD PUSH2 0x789 SWAP2 SWAP1 PUSH2 0xC4C JUMP JUMPDEST PUSH1 0x0 PUSH1 0x40 MLOAD DUP1 DUP4 SUB DUP2 DUP6 GAS DELEGATECALL SWAP2 POP POP RETURNDATASIZE DUP1 PUSH1 0x0 DUP2 EQ PUSH2 0x7C4 JUMPI PUSH1 0x40 MLOAD SWAP2 POP PUSH1 0x1F NOT PUSH1 0x3F RETURNDATASIZE ADD AND DUP3 ADD PUSH1 0x40 MSTORE RETURNDATASIZE DUP3 MSTORE RETURNDATASIZE PUSH1 0x0 PUSH1 0x20 DUP5 ADD RETURNDATACOPY PUSH2 0x7C9 JUMP JUMPDEST PUSH1 0x60 SWAP2 POP JUMPDEST POP SWAP2 POP SWAP2 POP DUP2 PUSH2 0x7EB JUMPI PUSH1 0x40 MLOAD PUSH3 0x461BCD PUSH1 0xE5 SHL DUP2 MSTORE PUSH1 0x4 ADD PUSH2 0x183 SWAP1 PUSH2 0xC68 JUMP JUMPDEST PUSH1 0x0 DUP2 DUP1 PUSH1 0x20 ADD SWAP1 MLOAD DUP2 ADD SWAP1 PUSH2 0x801 SWAP2 SWAP1 PUSH2 0xC96 JUMP JUMPDEST SWAP14 SWAP13 POP POP POP POP POP POP POP POP POP POP POP POP POP JUMP JUMPDEST PUSH1 0x1 PUSH1 0x1 PUSH1 0xE0 SHL SUB NOT AND PUSH1 0x0 SWAP1 DUP2 MSTORE PUSH1 0x1 PUSH1 0x20 MSTORE PUSH1 0x40 SWAP1 KECCAK256 SLOAD PUSH1 0x1 PUSH1 0x1 PUSH1 0xA0 SHL SUB AND ISZERO ISZERO SWAP1 JUMP JUMPDEST PUSH4 0x4E487B71 PUSH1 0xE0 SHL PUSH1 0x0 MSTORE PUSH1 0x41 PUSH1 0x4 MSTORE PUSH1 0x24 PUSH1 0x0 REVERT JUMPDEST PUSH1 0x0 DUP3 PUSH1 0x1F DUP4 ADD SLT PUSH2 0x860 JUMPI PUSH1 0x0 DUP1 REVERT JUMPDEST DUP2 CALLDATALOAD PUSH8 0xFFFFFFFFFFFFFFFF DUP1 DUP3 GT ISZERO PUSH2 0x87B JUMPI PUSH2 0x87B PUSH2 0x839 JUMP JUMPDEST PUSH1 0x40 MLOAD PUSH1 0x1F DUP4 ADD PUSH1 0x1F NOT SWAP1 DUP2 AND PUSH1 0x3F ADD AND DUP2 ADD SWAP1 DUP3 DUP3 GT DUP2 DUP4 LT OR ISZERO PUSH2 0x8A3 JUMPI PUSH2 0x8A3 PUSH2 0x839 JUMP JUMPDEST DUP2 PUSH1 0x40 MSTORE DUP4 DUP2 MSTORE DUP7 PUSH1 0x20 DUP6 DUP9 ADD ADD GT ISZERO PUSH2 0x8BC JUMPI PUSH1 0x0 DUP1 REVERT JUMPDEST DUP4 PUSH1 0x20 DUP8 ADD PUSH1 0x20 DUP4 ADD CALLDATACOPY PUSH1 0x0 PUSH1 0x20 DUP6 DUP4 ADD ADD MSTORE DUP1 SWAP5 POP POP POP POP POP SWAP3 SWAP2 POP POP JUMP JUMPDEST PUSH1 0x1 PUSH1 0x1 PUSH1 0xA0 SHL SUB DUP2 AND DUP2 EQ PUSH2 0x8F1 JUMPI PUSH1 0x0 DUP1 REVERT JUMPDEST POP JUMP JUMPDEST PUSH1 0x0 DUP1 PUSH1 0x0 DUP1 PUSH1 0x80 DUP6 DUP8 SUB SLT ISZERO PUSH2 0x90A JUMPI PUSH1 0x0 DUP1 REVERT JUMPDEST DUP5 CALLDATALOAD PUSH8 0xFFFFFFFFFFFFFFFF DUP1 DUP3 GT ISZERO PUSH2 0x922 JUMPI PUSH1 0x0 DUP1 REVERT JUMPDEST PUSH2 0x92E DUP9 DUP4 DUP10 ADD PUSH2 0x84F JUMP JUMPDEST SWAP6 POP PUSH1 0x20 DUP8 ADD CALLDATALOAD SWAP2 POP DUP1 DUP3 GT ISZERO PUSH2 0x944 JUMPI PUSH1 0x0 DUP1 REVERT JUMPDEST POP PUSH2 0x951 DUP8 DUP3 DUP9 ADD PUSH2 0x84F JUMP JUMPDEST SWAP4 POP POP PUSH1 0x40 DUP6 ADD CALLDATALOAD PUSH2 0x962 DUP2 PUSH2 0x8DC JUMP JUMPDEST SWAP4 SWAP7 SWAP3 SWAP6 POP SWAP3 SWAP4 PUSH1 0x60 ADD CALLDATALOAD SWAP3 POP POP JUMP JUMPDEST PUSH1 0x0 DUP1 PUSH1 0x40 DUP4 DUP6 SUB SLT ISZERO PUSH2 0x985 JUMPI PUSH1 0x0 DUP1 REVERT JUMPDEST DUP3 CALLDATALOAD PUSH8 0xFFFFFFFFFFFFFFFF DUP1 DUP3 GT ISZERO PUSH2 0x99D JUMPI PUSH1 0x0 DUP1 REVERT JUMPDEST PUSH2 0x9A9 DUP7 DUP4 DUP8 ADD PUSH2 0x84F JUMP JUMPDEST SWAP4 POP PUSH1 0x20 DUP6 ADD CALLDATALOAD SWAP2 POP DUP1 DUP3 GT ISZERO PUSH2 0x9BF JUMPI PUSH1 0x0 DUP1 REVERT JUMPDEST POP PUSH2 0x9CC DUP6 DUP3 DUP7 ADD PUSH2 0x84F JUMP JUMPDEST SWAP2 POP POP SWAP3 POP SWAP3 SWAP1 POP JUMP JUMPDEST PUSH1 0x0 DUP1 PUSH1 0x40 DUP4 DUP6 SUB SLT ISZERO PUSH2 0x9E9 JUMPI PUSH1 0x0 DUP1 REVERT JUMPDEST DUP3 CALLDATALOAD PUSH2 0x9F4 DUP2 PUSH2 0x8DC JUMP JUMPDEST SWAP2 POP PUSH1 0x20 DUP4 ADD CALLDATALOAD PUSH1 0x1 PUSH1 0x1 PUSH1 0xE0 SHL SUB NOT DUP2 AND DUP2 EQ PUSH2 0xA11 JUMPI PUSH1 0x0 DUP1 REVERT JUMPDEST DUP1 SWAP2 POP POP SWAP3 POP SWAP3 SWAP1 POP JUMP JUMPDEST PUSH1 0x0 DUP1 PUSH1 0x0 DUP1 PUSH1 0x0 DUP1 PUSH1 0xC0 DUP8 DUP10 SUB SLT ISZERO PUSH2 0xA35 JUMPI PUSH1 0x0 DUP1 REVERT JUMPDEST DUP7 CALLDATALOAD PUSH8 0xFFFFFFFFFFFFFFFF DUP1 DUP3 GT ISZERO PUSH2 0xA4D JUMPI PUSH1 0x0 DUP1 REVERT JUMPDEST PUSH2 0xA59 DUP11 DUP4 DUP12 ADD PUSH2 0x84F JUMP JUMPDEST SWAP8 POP PUSH1 0x20 DUP10 ADD CALLDATALOAD SWAP2 POP DUP1 DUP3 GT ISZERO PUSH2 0xA6F JUMPI PUSH1 0x0 DUP1 REVERT JUMPDEST POP PUSH2 0xA7C DUP10 DUP3 DUP11 ADD PUSH2 0x84F JUMP JUMPDEST SWAP6 POP POP PUSH1 0x40 DUP8 ADD CALLDATALOAD PUSH2 0xA8D DUP2 PUSH2 0x8DC JUMP JUMPDEST SWAP6 SWAP9 SWAP5 SWAP8 POP SWAP5 SWAP6 PUSH1 0x60 DUP2 ADD CALLDATALOAD SWAP6 POP PUSH1 0x80 DUP2 ADD CALLDATALOAD SWAP5 PUSH1 0xA0 SWAP1 SWAP2 ADD CALLDATALOAD SWAP4 POP SWAP2 POP POP JUMP JUMPDEST PUSH1 0x0 DUP1 PUSH1 0x0 DUP1 PUSH1 0x0 DUP1 PUSH1 0x0 PUSH1 0xE0 DUP9 DUP11 SUB SLT ISZERO PUSH2 0xAC9 JUMPI PUSH1 0x0 DUP1 REVERT JUMPDEST DUP8 CALLDATALOAD PUSH8 0xFFFFFFFFFFFFFFFF DUP1 DUP3 GT ISZERO PUSH2 0xAE1 JUMPI PUSH1 0x0 DUP1 REVERT JUMPDEST PUSH2 0xAED DUP12 DUP4 DUP13 ADD PUSH2 0x84F JUMP JUMPDEST SWAP9 POP PUSH1 0x20 DUP11 ADD CALLDATALOAD SWAP2 POP DUP1 DUP3 GT ISZERO PUSH2 0xB03 JUMPI PUSH1 0x0 DUP1 REVERT JUMPDEST POP PUSH2 0xB10 DUP11 DUP3 DUP12 ADD PUSH2 0x84F JUMP JUMPDEST SWAP7 POP POP PUSH1 0x40 DUP9 ADD CALLDATALOAD PUSH2 0xB21 DUP2 PUSH2 0x8DC JUMP JUMPDEST SWAP7 SWAP10 SWAP6 SWAP9 POP SWAP6 SWAP7 PUSH1 0x60 DUP2 ADD CALLDATALOAD SWAP7 POP PUSH1 0x80 DUP2 ADD CALLDATALOAD SWAP6 PUSH1 0xA0 DUP3 ADD CALLDATALOAD SWAP6 POP PUSH1 0xC0 SWAP1 SWAP2 ADD CALLDATALOAD SWAP4 POP SWAP2 POP POP JUMP JUMPDEST DUP1 MLOAD PUSH1 0x20 DUP3 ADD MLOAD PUSH1 0x1 PUSH1 0x1 PUSH1 0xE0 SHL SUB NOT DUP1 DUP3 AND SWAP3 SWAP2 SWAP1 PUSH1 0x4 DUP4 LT ISZERO PUSH2 0xB78 JUMPI DUP1 DUP2 DUP5 PUSH1 0x4 SUB PUSH1 0x3 SHL SHL DUP4 AND AND SWAP4 POP JUMPDEST POP POP POP SWAP2 SWAP1 POP JUMP JUMPDEST PUSH1 0x20 DUP1 DUP3 MSTORE PUSH1 0x14 SWAP1 DUP3 ADD MSTORE PUSH20 0x29B2B632B1BA37B91024B732BC34B9BA32B73A17 PUSH1 0x61 SHL PUSH1 0x40 DUP3 ADD MSTORE PUSH1 0x60 ADD SWAP1 JUMP JUMPDEST PUSH1 0x0 JUMPDEST DUP4 DUP2 LT ISZERO PUSH2 0xBC9 JUMPI DUP2 DUP2 ADD MLOAD DUP4 DUP3 ADD MSTORE PUSH1 0x20 ADD PUSH2 0xBB1 JUMP JUMPDEST DUP4 DUP2 GT ISZERO PUSH2 0xBD8 JUMPI PUSH1 0x0 DUP5 DUP5 ADD MSTORE JUMPDEST POP POP POP POP JUMP JUMPDEST PUSH1 0x0 DUP2 MLOAD DUP1 DUP5 MSTORE PUSH2 0xBF6 DUP2 PUSH1 0x20 DUP7 ADD PUSH1 0x20 DUP7 ADD PUSH2 0xBAE JUMP JUMPDEST PUSH1 0x1F ADD PUSH1 0x1F NOT AND SWAP3 SWAP1 SWAP3 ADD PUSH1 0x20 ADD SWAP3 SWAP2 POP POP JUMP JUMPDEST PUSH1 0x80 DUP2 MSTORE PUSH1 0x0 PUSH2 0xC1D PUSH1 0x80 DUP4 ADD DUP8 PUSH2 0xBDE JUMP JUMPDEST DUP3 DUP2 SUB PUSH1 0x20 DUP5 ADD MSTORE PUSH2 0xC2F DUP2 DUP8 PUSH2 0xBDE JUMP JUMPDEST PUSH1 0x1 PUSH1 0x1 PUSH1 0xA0 SHL SUB SWAP6 SWAP1 SWAP6 AND PUSH1 0x40 DUP5 ADD MSTORE POP POP PUSH1 0x60 ADD MSTORE SWAP3 SWAP2 POP POP JUMP JUMPDEST PUSH1 0x0 DUP3 MLOAD PUSH2 0xC5E DUP2 DUP5 PUSH1 0x20 DUP8 ADD PUSH2 0xBAE JUMP JUMPDEST SWAP2 SWAP1 SWAP2 ADD SWAP3 SWAP2 POP POP JUMP JUMPDEST PUSH1 0x20 DUP1 DUP3 MSTORE PUSH1 0x14 SWAP1 DUP3 ADD MSTORE PUSH20 0x44656C656761746563616C6C204661696C656421 PUSH1 0x60 SHL PUSH1 0x40 DUP3 ADD MSTORE PUSH1 0x60 ADD SWAP1 JUMP JUMPDEST PUSH1 0x0 PUSH1 0x20 DUP3 DUP5 SUB SLT ISZERO PUSH2 0xCA8 JUMPI PUSH1 0x0 DUP1 REVERT JUMPDEST DUP2 MLOAD PUSH2 0xCB3 DUP2 PUSH2 0x8DC JUMP JUMPDEST SWAP4 SWAP3 POP POP POP JUMP JUMPDEST PUSH1 0x40 DUP2 MSTORE PUSH1 0x0 PUSH2 0xCCD PUSH1 0x40 DUP4 ADD DUP6 PUSH2 0xBDE JUMP JUMPDEST DUP3 DUP2 SUB PUSH1 0x20 DUP5 ADD MSTORE PUSH2 0xCDF DUP2 DUP6 PUSH2 0xBDE JUMP JUMPDEST SWAP6 SWAP5 POP POP POP POP POP JUMP JUMPDEST PUSH1 0xC0 DUP2 MSTORE PUSH1 0x0 PUSH2 0xCFB PUSH1 0xC0 DUP4 ADD DUP10 PUSH2 0xBDE JUMP JUMPDEST DUP3 DUP2 SUB PUSH1 0x20 DUP5 ADD MSTORE PUSH2 0xD0D DUP2 DUP10 PUSH2 0xBDE JUMP JUMPDEST PUSH1 0x1 PUSH1 0x1 PUSH1 0xA0 SHL SUB SWAP8 SWAP1 SWAP8 AND PUSH1 0x40 DUP5 ADD MSTORE POP POP PUSH1 0x60 DUP2 ADD SWAP4 SWAP1 SWAP4 MSTORE PUSH1 0x80 DUP4 ADD SWAP2 SWAP1 SWAP2 MSTORE PUSH1 0xA0 SWAP1 SWAP2 ADD MSTORE SWAP3 SWAP2 POP POP JUMP JUMPDEST PUSH1 0xE0 DUP2 MSTORE PUSH1 0x0 PUSH2 0xD4F PUSH1 0xE0 DUP4 ADD DUP11 PUSH2 0xBDE JUMP JUMPDEST DUP3 DUP2 SUB PUSH1 0x20 DUP5 ADD MSTORE PUSH2 0xD61 DUP2 DUP11 PUSH2 0xBDE JUMP JUMPDEST PUSH1 0x1 PUSH1 0x1 PUSH1 0xA0 SHL SUB SWAP9 SWAP1 SWAP9 AND PUSH1 0x40 DUP5 ADD MSTORE POP POP PUSH1 0x60 DUP2 ADD SWAP5 SWAP1 SWAP5 MSTORE PUSH1 0x80 DUP5 ADD SWAP3 SWAP1 SWAP3 MSTORE PUSH1 0xA0 DUP4 ADD MSTORE PUSH1 0xC0 SWAP1 SWAP2 ADD MSTORE SWAP3 SWAP2 POP POP JUMP INVALID LOG2 PUSH5 0x6970667358 0x22 SLT KECCAK256 PUSH9 0x45AF5D33B87C7AC1E5 EXP PUSH6 0xC5FE8F47661E PUSH17 0x547046D5F58D1A2DFA2FD4B2964736F6C PUSH4 0x4300080F STOP CALLER ",
  "sha1": "ce8d5b2c07d88419f6d5efdb378cfd586d4b7ba8",
  "source": "// SPDX-License-Identifier: GPL-3.0\npragma solidity ^0.8.14;\n\n/**\n* @title Admin contract.\n* @author Daccred.\n* @dev  The admin contract aims at taking all the deployer contracts\n*       and mapping all the deployer function selectors to the respective \n*       addresses, then in turn, calling the selectors via delegatecall\n*       whenever the relevant deployment is needed.\n*\n*       In turn, whenever a new change is made to a contract, we can\n*       easily, redeploy and remap.\n*/  \ncontract Admin {\n    /// @dev Owner address.\n    address private owner;\n    /// @dev Mapping of all function signatures to the addresses.\n    mapping(bytes4 => address) private deployerSelectors;\n\n    /// @dev Making sure only the owner can call these functions.\n    modifier onlyOwner() {\n        /// @dev Require that the sender is the owner.\n        require(msg.sender == owner, \"Not Owner.\");\n        _;\n    }\n\n    /// @dev Constructor.\n    constructor() {\n        /// @dev Set owner.\n        owner = msg.sender;\n    }\n\n    /**\n    * @dev  This function adds a new selector or replaces a particular\n    *       selector from the selector map.\n    *\n    * @param _facet     Facet address containing the function we need.\n    * @param _selector  Selector of the function desired.\n    */\n    function addDeployerSelector(address _facet, bytes4 _selector) \n    public\n    onlyOwner\n    {\n        /// @dev Make sure facet is not a zero address.\n        require(_facet != address(0), \"Facet Set To Zero Address.\");\n        /// @dev Add selector to map.\n        deployerSelectors[_selector] = _facet;\n    }\n\n    /**\n    * @dev  Deploys the ERC721ExtensionCore with a set name\n    *       and symbol using delegatecall to its facet.\n    *\n    * @param _name      Name of token.\n    * @param _symbol    Desired symbol.\n    *\n    * @return address\n    */\n    function deployERC721ExtensionCore(string memory _name, string memory _symbol)\n    public\n    returns(address)\n    {\n        /// @dev Get selector.\n        bytes4 _selector = bytes4(\n            abi.encodeWithSignature(\n                \"deployERC721ExtensionCore(string,string)\"\n            )\n        );\n        /// @dev Require that the selector for the function exists.\n        require(exists(_selector), \"Selector Inexistent.\");\n        /// @dev Get the address of the facet mapped to the selector.\n        address _delegate = deployerSelectors[_selector];\n        /// @dev Delegate call to the facet using the parameters passed.\n        (bool sent, bytes memory data) = _delegate.delegatecall(\n            abi.encodeWithSelector(\n                _selector,\n                _name,\n                _symbol\n            )\n        );\n        /// @dev Require the call was sent.\n        require(sent, \"Delegatecall Failed!\");\n        /// @dev Decode returned address from delegatecall.\n        address _deployedAddress = abi.decode(data, (address));\n        /// @dev Return address.\n        return _deployedAddress;\n    }\n\n    /**\n    * @dev  Deploys the ERC721ExtensionSignature with its constructor\n    *       parameters using delegatecall to its facet.\n    *\n    * @param _name      Name of token.\n    * @param _symbol    Desired symbol.\n    *\n    * @return address\n    */\n    function deployERC721ExtensionSignature(\n        string memory _name, \n        string memory _symbol,\n        address _comissioner,\n        uint256 _maxSupply,\n        uint256 _commissions,\n        uint256 _cappedSupply,\n        uint256 _redemptionTariff\n    )\n    public\n    returns(address)\n    {\n        /// @dev Get selector.\n        bytes4 _selector = bytes4(\n            abi.encodeWithSignature(\n                \"deployERC721ExtensionSignature(string,string,address,uint256,uint256,uint256,uint256)\"\n            )\n        );\n        /// @dev Require that the selector for the function exists.\n        require(exists(_selector), \"Selector Inexistent.\");\n        /// @dev Get the address of the facet mapped to the selector.\n        address _delegate = deployerSelectors[_selector];\n        /// @dev Delegate call to the facet using the parameters passed.\n        (bool sent, bytes memory data) = _delegate.delegatecall(\n            abi.encodeWithSelector(\n                _selector,\n                _name, \n                _symbol,\n                _comissioner,\n                _maxSupply,\n                _commissions,\n                _cappedSupply,\n                _redemptionTariff\n            )\n        );\n        /// @dev Require the call was sent.\n        require(sent, \"Delegatecall Failed!\");\n        /// @dev Decode returned address from delegatecall.\n        address _deployedAddress = abi.decode(data, (address));\n        /// @dev Return address.\n        return _deployedAddress;\n    }\n\n    /**\n    * @dev  Deploys the Soulbound Contract with a set name\n    *       and symbol using delegatecall to its facet.\n    *\n    * @param _name      Name of token.\n    * @param _symbol    Desired symbol.\n    *\n    * @return address\n    */\n    function deploySoulbound(string memory _name, string memory _symbol)\n    public\n    returns(address)\n    {\n        /// @dev Get selector.\n        bytes4 _selector = bytes4(\n            abi.encodeWithSignature(\n                \"deploySoulbound(string,string)\"\n            )\n        );\n        /// @dev Require that the selector for the function exists.\n        require(exists(_selector), \"Selector Inexistent.\");\n        /// @dev Get the address of the facet mapped to the selector.\n        address _delegate = deployerSelectors[_selector];\n        /// @dev Delegate call to the facet using the parameters passed.\n        (bool sent, bytes memory data) = _delegate.delegatecall(\n            abi.encodeWithSelector(\n                _selector,\n                _name,\n                _symbol\n            )\n        );\n        /// @dev Require the call was sent.\n        require(sent, \"Delegatecall Failed!\");\n        /// @dev Decode returned address from delegatecall.\n        address _deployedAddress = abi.decode(data, (address));\n        /// @dev Return address.\n        return _deployedAddress;\n    }\n\n    /**\n    * @dev  Deploys the SoulboundCore Contract with its constructor\n    *       parameters using delegatecall to its facet.\n    *\n    * @param _name              Name of token.\n    * @param _symbol            Desired symbol.\n    * @param _allowlistOwner    Desired owner of the contrat for sigs.\n    * @param _totalSupply       Desired total supply.\n    *\n    * @return address\n    */\n    function deploySoulboundCore(\n        string memory _name, \n        string memory _symbol,\n        address _allowlistOwner,\n        uint256 _totalSupply\n    )\n    public\n    returns(address)\n    {\n        /// @dev Get selector.\n        bytes4 _selector = bytes4(\n            abi.encodeWithSignature(\n                \"deploySoulboundCore(string,string,address,uint256)\"\n            )\n        );\n        /// @dev Require that the selector for the function exists.\n        require(exists(_selector), \"Selector Inexistent.\");\n        /// @dev Get the address of the facet mapped to the selector.\n        address _delegate = deployerSelectors[_selector];\n        /// @dev Delegate call to the facet using the parameters passed.\n        (bool sent, bytes memory data) = _delegate.delegatecall(\n            abi.encodeWithSelector(\n                _selector,\n                _name,\n                _symbol,\n                _allowlistOwner,\n                _totalSupply\n            )\n        );\n        /// @dev Require the call was sent.\n        require(sent, \"Delegatecall Failed!\");\n        /// @dev Decode returned address from delegatecall.\n        address _deployedAddress = abi.decode(data, (address));\n        /// @dev Return address.\n        return _deployedAddress;\n    }\n\n    /**\n    * @dev  Deploys the SoulboundRedeemable Contract with its constructor\n    *       parameters using delegatecall to its facet.\n    *\n    * @param _name              Name of token.\n    * @param _symbol            Desired symbol.\n    * @param _allowlistOwner    Desired owner of the contrat for sigs.\n    * @param _totalSupply       Desired total supply.\n    * @param _priceLimit        Desired price limit.\n    * @param _tokenPrice        Desired token price.\n    *\n    * @return address\n    */\n    function deploySoulboundRedeemable(\n        string memory _name, \n        string memory _symbol,\n        address _allowlistOwner,\n        uint256 _totalSupply,\n        uint256 _priceLimit,\n        uint256 _tokenPrice\n    )\n    public\n    returns(address)\n    {\n        /// @dev Get selector.\n        bytes4 _selector = bytes4(\n            abi.encodeWithSignature(\n                \"deploySoulboundRedeemable(string,string,address,uint256,uint256,uint256)\"\n            )\n        );\n        /// @dev Require that the selector for the function exists.\n        require(exists(_selector), \"Selector Inexistent.\");\n        /// @dev Get the address of the facet mapped to the selector.\n        address _delegate = deployerSelectors[_selector];\n        /// @dev Delegate call to the facet using the parameters passed.\n        (bool sent, bytes memory data) = _delegate.delegatecall(\n            abi.encodeWithSelector(\n                _selector,\n                _name,\n                _symbol,\n                _allowlistOwner,\n                _totalSupply,\n                _priceLimit,\n                _tokenPrice\n            )\n        );\n        /// @dev Require the call was sent.\n        require(sent, \"Delegatecall Failed!\");\n        /// @dev Decode returned address from delegatecall.\n        address _deployedAddress = abi.decode(data, (address));\n        /// @dev Return address.\n        return _deployedAddress;\n    }\n\n    /**\n    * @dev  Deploys the SoulboundWithSignature Contract with its constructor\n    *       parameters using delegatecall to its facet.\n    *\n    * @param _name              Name of token.\n    * @param _symbol            Desired symbol.\n    * @param _allowlistOwner    Desired owner of the contrat for sigs.\n    * @param _totalSupply       Desired total supply.\n    *\n    * @return address\n    */\n    function deploySoulboundWithSignature(\n        string memory _name, \n        string memory _symbol,\n        address _allowlistOwner,\n        uint256 _totalSupply\n    )\n    public\n    returns(address)\n    {\n        /// @dev Get selector.\n        bytes4 _selector = bytes4(\n            abi.encodeWithSignature(\n                \"deploySoulboundWithSignature(string,string,address,uint256)\"\n            )\n        );\n        /// @dev Require that the selector for the function exists.\n        require(exists(_selector), \"Selector Inexistent.\");\n        /// @dev Get the address of the facet mapped to the selector.\n        address _delegate = deployerSelectors[_selector];\n        /// @dev Delegate call to the facet using the parameters passed.\n        (bool sent, bytes memory data) = _delegate.delegatecall(\n            abi.encodeWithSelector(\n                _selector,\n                _name,\n                _symbol,\n                _allowlistOwner,\n                _totalSupply\n            )\n        );\n        /// @dev Require the call was sent.\n        require(sent, \"Delegatecall Failed!\");\n        /// @dev Decode returned address from delegatecall.\n        address _deployedAddress = abi.decode(data, (address));\n        /// @dev Return address.\n        return _deployedAddress;\n    }\n\n    /**\n    * @dev  Returns true if a selector `_s` is mapped to a valid\n    *       address in the deployerSelector mapping.\n    *\n    * @param _s Function selector.\n    *\n    * @return bool\n    */\n    function exists(bytes4 _s) private view returns(bool) {\n        /// @dev    Return true if it is mapped to a valid address.\n        ///         OR Return true if it is not mapped to a zero \n        ///         address.\n        return deployerSelectors[_s] != address(0);\n    }\n}\n",
  "sourcePath": "contracts/contracts/core/contracts/Admin.sol",
  "type": "contract"
}