{
  "abi": [
    {
      "anonymous": false,
      "inputs": [
        {
          "indexed": true,
          "internalType": "address",
          "name": "previousOwner",
          "type": "address"
        },
        {
          "indexed": true,
          "internalType": "address",
          "name": "newOwner",
          "type": "address"
        }
      ],
      "name": "OwnershipTransferred",
      "type": "event"
    },
    {
      "anonymous": false,
      "inputs": [],
      "name": "Paused",
      "type": "event"
    },
    {
      "anonymous": false,
      "inputs": [],
      "name": "UnPaused",
      "type": "event"
    },
    {
      "inputs": [],
      "name": "isPaused",
      "outputs": [
        {
          "internalType": "bool",
          "name": "",
          "type": "bool"
        }
      ],
      "stateMutability": "view",
      "type": "function"
    },
    {
      "inputs": [],
      "name": "owner",
      "outputs": [
        {
          "internalType": "address",
          "name": "",
          "type": "address"
        }
      ],
      "stateMutability": "view",
      "type": "function"
    },
    {
      "inputs": [],
      "name": "pause",
      "outputs": [],
      "stateMutability": "nonpayable",
      "type": "function"
    },
    {
      "inputs": [],
      "name": "renounceOwnership",
      "outputs": [],
      "stateMutability": "nonpayable",
      "type": "function"
    },
    {
      "inputs": [
        {
          "internalType": "address",
          "name": "newOwner",
          "type": "address"
        }
      ],
      "name": "transferOwnership",
      "outputs": [],
      "stateMutability": "nonpayable",
      "type": "function"
    },
    {
      "inputs": [],
      "name": "unPause",
      "outputs": [],
      "stateMutability": "nonpayable",
      "type": "function"
    }
  ],
  "bytecode": "608060405234801561001057600080fd5b5061001a3361001f565b61006f565b600080546001600160a01b038381166001600160a01b0319831681178455604051919092169283917f8be0079c531659141344cd1fd0a4f28419497f9722a3daafe3b4186f6b6457e09190a35050565b6103ab8061007e6000396000f3fe608060405234801561001057600080fd5b50600436106100625760003560e01c8063715018a6146100675780638456cb59146100715780638da5cb5b14610079578063b187bd2614610099578063f2fde38b146100b6578063f7b188a5146100c9575b600080fd5b61006f6100d1565b005b61006f610110565b6000546040516001600160a01b0390911681526020015b60405180910390f35b600054600160a01b900460ff166040519015158152602001610090565b61006f6100c4366004610310565b61019c565b61006f610237565b6000546001600160a01b031633146101045760405162461bcd60e51b81526004016100fb90610340565b60405180910390fd5b61010e60006102c0565b565b6000546001600160a01b0316331461013a5760405162461bcd60e51b81526004016100fb90610340565b600054600160a01b900460ff16156101875760405162461bcd60e51b815260206004820152601060248201526f21b7b73a3930b1ba102830bab9b2b21760811b60448201526064016100fb565b6000805460ff60a01b1916600160a01b179055565b6000546001600160a01b031633146101c65760405162461bcd60e51b81526004016100fb90610340565b6001600160a01b03811661022b5760405162461bcd60e51b815260206004820152602660248201527f4f776e61626c653a206e6577206f776e657220697320746865207a65726f206160448201526564647265737360d01b60648201526084016100fb565b610234816102c0565b50565b6000546001600160a01b031633146102615760405162461bcd60e51b81526004016100fb90610340565b600054600160a01b900460ff166102b15760405162461bcd60e51b815260206004820152601460248201527321b7b73a3930b1ba102737ba102830bab9b2b21760611b60448201526064016100fb565b6000805460ff60a01b19169055565b600080546001600160a01b038381166001600160a01b0319831681178455604051919092169283917f8be0079c531659141344cd1fd0a4f28419497f9722a3daafe3b4186f6b6457e09190a35050565b60006020828403121561032257600080fd5b81356001600160a01b038116811461033957600080fd5b9392505050565b6020808252818101527f4f776e61626c653a2063616c6c6572206973206e6f7420746865206f776e657260408201526060019056fea2646970667358221220a743cf321899f207dc067fc03bc7c223e974afec6738bc632ed5dd88dd7e518164736f6c634300080f0033",
  "bytecodeSha1": "3b5be5f17b74c7d6d3ec1c7fa81c132354ec3b49",
  "compiler": {
    "evm_version": "istanbul",
    "optimizer": {
      "enabled": true,
      "runs": 200
    },
    "version": "0.8.15+commit.e14f2714"
  },
  "contractName": "Pausable",
  "language": "Solidity",
  "natspec": {
    "author": "Anthony (fps) https://github.com/0xfps.",
    "details": "This contract seeks to grant the inheriting       contract the ability to pause actions done       on the contract.       The choice to pause or unpause the contract       is made by the owner or deployer.",
    "kind": "dev",
    "methods": {
      "isPaused()": {
        "details": "Returns true or false if the contract is paused.        This function is callable by anyone.",
        "returns": {
          "_0": "bool True or false."
        }
      },
      "owner()": {
        "details": "Returns the address of the current owner."
      },
      "pause()": {
        "details": "Pauses the contract.        This function is callable by the owner or deployer."
      },
      "renounceOwnership()": {
        "details": "Leaves the contract without owner. It will not be possible to call `onlyOwner` functions anymore. Can only be called by the current owner. NOTE: Renouncing ownership will leave the contract without an owner, thereby removing any functionality that is only available to the owner."
      },
      "transferOwnership(address)": {
        "details": "Transfers ownership of the contract to a new account (`newOwner`). Can only be called by the current owner."
      },
      "unPause()": {
        "details": "Pauses the contract.        This function is callable by the owner or deployer."
      }
    },
    "stateVariables": {
      "paused": {
        "details": "Boolean to determine when contract is or         is not paused."
      }
    },
    "title": "Pausable Contract.",
    "version": 1
  },
  "opcodes": "PUSH1 0x80 PUSH1 0x40 MSTORE CALLVALUE DUP1 ISZERO PUSH2 0x10 JUMPI PUSH1 0x0 DUP1 REVERT JUMPDEST POP PUSH1 0x4 CALLDATASIZE LT PUSH2 0x62 JUMPI PUSH1 0x0 CALLDATALOAD PUSH1 0xE0 SHR DUP1 PUSH4 0x715018A6 EQ PUSH2 0x67 JUMPI DUP1 PUSH4 0x8456CB59 EQ PUSH2 0x71 JUMPI DUP1 PUSH4 0x8DA5CB5B EQ PUSH2 0x79 JUMPI DUP1 PUSH4 0xB187BD26 EQ PUSH2 0x99 JUMPI DUP1 PUSH4 0xF2FDE38B EQ PUSH2 0xB6 JUMPI DUP1 PUSH4 0xF7B188A5 EQ PUSH2 0xC9 JUMPI JUMPDEST PUSH1 0x0 DUP1 REVERT JUMPDEST PUSH2 0x6F PUSH2 0xD1 JUMP JUMPDEST STOP JUMPDEST PUSH2 0x6F PUSH2 0x110 JUMP JUMPDEST PUSH1 0x0 SLOAD PUSH1 0x40 MLOAD PUSH1 0x1 PUSH1 0x1 PUSH1 0xA0 SHL SUB SWAP1 SWAP2 AND DUP2 MSTORE PUSH1 0x20 ADD JUMPDEST PUSH1 0x40 MLOAD DUP1 SWAP2 SUB SWAP1 RETURN JUMPDEST PUSH1 0x0 SLOAD PUSH1 0x1 PUSH1 0xA0 SHL SWAP1 DIV PUSH1 0xFF AND PUSH1 0x40 MLOAD SWAP1 ISZERO ISZERO DUP2 MSTORE PUSH1 0x20 ADD PUSH2 0x90 JUMP JUMPDEST PUSH2 0x6F PUSH2 0xC4 CALLDATASIZE PUSH1 0x4 PUSH2 0x310 JUMP JUMPDEST PUSH2 0x19C JUMP JUMPDEST PUSH2 0x6F PUSH2 0x237 JUMP JUMPDEST PUSH1 0x0 SLOAD PUSH1 0x1 PUSH1 0x1 PUSH1 0xA0 SHL SUB AND CALLER EQ PUSH2 0x104 JUMPI PUSH1 0x40 MLOAD PUSH3 0x461BCD PUSH1 0xE5 SHL DUP2 MSTORE PUSH1 0x4 ADD PUSH2 0xFB SWAP1 PUSH2 0x340 JUMP JUMPDEST PUSH1 0x40 MLOAD DUP1 SWAP2 SUB SWAP1 REVERT JUMPDEST PUSH2 0x10E PUSH1 0x0 PUSH2 0x2C0 JUMP JUMPDEST JUMP JUMPDEST PUSH1 0x0 SLOAD PUSH1 0x1 PUSH1 0x1 PUSH1 0xA0 SHL SUB AND CALLER EQ PUSH2 0x13A JUMPI PUSH1 0x40 MLOAD PUSH3 0x461BCD PUSH1 0xE5 SHL DUP2 MSTORE PUSH1 0x4 ADD PUSH2 0xFB SWAP1 PUSH2 0x340 JUMP JUMPDEST PUSH1 0x0 SLOAD PUSH1 0x1 PUSH1 0xA0 SHL SWAP1 DIV PUSH1 0xFF AND ISZERO PUSH2 0x187 JUMPI PUSH1 0x40 MLOAD PUSH3 0x461BCD PUSH1 0xE5 SHL DUP2 MSTORE PUSH1 0x20 PUSH1 0x4 DUP3 ADD MSTORE PUSH1 0x10 PUSH1 0x24 DUP3 ADD MSTORE PUSH16 0x21B7B73A3930B1BA102830BAB9B2B217 PUSH1 0x81 SHL PUSH1 0x44 DUP3 ADD MSTORE PUSH1 0x64 ADD PUSH2 0xFB JUMP JUMPDEST PUSH1 0x0 DUP1 SLOAD PUSH1 0xFF PUSH1 0xA0 SHL NOT AND PUSH1 0x1 PUSH1 0xA0 SHL OR SWAP1 SSTORE JUMP JUMPDEST PUSH1 0x0 SLOAD PUSH1 0x1 PUSH1 0x1 PUSH1 0xA0 SHL SUB AND CALLER EQ PUSH2 0x1C6 JUMPI PUSH1 0x40 MLOAD PUSH3 0x461BCD PUSH1 0xE5 SHL DUP2 MSTORE PUSH1 0x4 ADD PUSH2 0xFB SWAP1 PUSH2 0x340 JUMP JUMPDEST PUSH1 0x1 PUSH1 0x1 PUSH1 0xA0 SHL SUB DUP2 AND PUSH2 0x22B JUMPI PUSH1 0x40 MLOAD PUSH3 0x461BCD PUSH1 0xE5 SHL DUP2 MSTORE PUSH1 0x20 PUSH1 0x4 DUP3 ADD MSTORE PUSH1 0x26 PUSH1 0x24 DUP3 ADD MSTORE PUSH32 0x4F776E61626C653A206E6577206F776E657220697320746865207A65726F2061 PUSH1 0x44 DUP3 ADD MSTORE PUSH6 0x646472657373 PUSH1 0xD0 SHL PUSH1 0x64 DUP3 ADD MSTORE PUSH1 0x84 ADD PUSH2 0xFB JUMP JUMPDEST PUSH2 0x234 DUP2 PUSH2 0x2C0 JUMP JUMPDEST POP JUMP JUMPDEST PUSH1 0x0 SLOAD PUSH1 0x1 PUSH1 0x1 PUSH1 0xA0 SHL SUB AND CALLER EQ PUSH2 0x261 JUMPI PUSH1 0x40 MLOAD PUSH3 0x461BCD PUSH1 0xE5 SHL DUP2 MSTORE PUSH1 0x4 ADD PUSH2 0xFB SWAP1 PUSH2 0x340 JUMP JUMPDEST PUSH1 0x0 SLOAD PUSH1 0x1 PUSH1 0xA0 SHL SWAP1 DIV PUSH1 0xFF AND PUSH2 0x2B1 JUMPI PUSH1 0x40 MLOAD PUSH3 0x461BCD PUSH1 0xE5 SHL DUP2 MSTORE PUSH1 0x20 PUSH1 0x4 DUP3 ADD MSTORE PUSH1 0x14 PUSH1 0x24 DUP3 ADD MSTORE PUSH20 0x21B7B73A3930B1BA102737BA102830BAB9B2B217 PUSH1 0x61 SHL PUSH1 0x44 DUP3 ADD MSTORE PUSH1 0x64 ADD PUSH2 0xFB JUMP JUMPDEST PUSH1 0x0 DUP1 SLOAD PUSH1 0xFF PUSH1 0xA0 SHL NOT AND SWAP1 SSTORE JUMP JUMPDEST PUSH1 0x0 DUP1 SLOAD PUSH1 0x1 PUSH1 0x1 PUSH1 0xA0 SHL SUB DUP4 DUP2 AND PUSH1 0x1 PUSH1 0x1 PUSH1 0xA0 SHL SUB NOT DUP4 AND DUP2 OR DUP5 SSTORE PUSH1 0x40 MLOAD SWAP2 SWAP1 SWAP3 AND SWAP3 DUP4 SWAP2 PUSH32 0x8BE0079C531659141344CD1FD0A4F28419497F9722A3DAAFE3B4186F6B6457E0 SWAP2 SWAP1 LOG3 POP POP JUMP JUMPDEST PUSH1 0x0 PUSH1 0x20 DUP3 DUP5 SUB SLT ISZERO PUSH2 0x322 JUMPI PUSH1 0x0 DUP1 REVERT JUMPDEST DUP2 CALLDATALOAD PUSH1 0x1 PUSH1 0x1 PUSH1 0xA0 SHL SUB DUP2 AND DUP2 EQ PUSH2 0x339 JUMPI PUSH1 0x0 DUP1 REVERT JUMPDEST SWAP4 SWAP3 POP POP POP JUMP JUMPDEST PUSH1 0x20 DUP1 DUP3 MSTORE DUP2 DUP2 ADD MSTORE PUSH32 0x4F776E61626C653A2063616C6C6572206973206E6F7420746865206F776E6572 PUSH1 0x40 DUP3 ADD MSTORE PUSH1 0x60 ADD SWAP1 JUMP INVALID LOG2 PUSH5 0x6970667358 0x22 SLT KECCAK256 0xA7 NUMBER 0xCF ORIGIN XOR SWAP10 CALLCODE SMOD 0xDC MOD PUSH32 0xC03BC7C223E974AFEC6738BC632ED5DD88DD7E518164736F6C634300080F0033 ",
  "sha1": "7ed524ead964a800cec5d2c9595d43aa2bbffe66",
  "source": "// SPDX-License-Identifier: GPL-3.0\n\n///  _____     ______     ______     ______     ______     ______     _____    \n/// /\\  __-.  /\\  __ \\   /\\  ___\\   /\\  ___\\   /\\  == \\   /\\  ___\\   /\\  __-.  \n/// \\ \\ \\/\\ \\ \\ \\  __ \\  \\ \\ \\____  \\ \\ \\____  \\ \\  __<   \\ \\  __\\   \\ \\ \\/\\ \\ \n///  \\ \\____-  \\ \\_\\ \\_\\  \\ \\_____\\  \\ \\_____\\  \\ \\_\\ \\_\\  \\ \\_____\\  \\ \\____- \n///   \\/____/   \\/_/\\/_/   \\/_____/   \\/_____/   \\/_/ /_/   \\/_____/   \\/____/ \n\npragma solidity ^0.8.8;\n\nimport {Ownable} from \"@openzeppelin/contracts/access/Ownable.sol\";\n\n/**\n* @title Pausable Contract.\n* @author Anthony (fps) https://github.com/0xfps.\n* @dev  This contract seeks to grant the inheriting\n*       contract the ability to pause actions done\n*       on the contract.\n*       The choice to pause or unpause the contract\n*       is made by the owner or deployer.\n*/\ncontract Pausable is Ownable {\n    /// @dev    Boolean to determine when contract is or\n    ///         is not paused.\n    bool private paused;\n\n    /// @dev Emitted whenever the contract is paused.\n    event Paused();\n    /// @dev Emitted whenever the contract is unpaused.\n    event UnPaused();\n    \n    /**\n    * @dev  Allows for interactions with contract if the\n    *       contract is paused.\n    */\n    modifier whenPaused() {\n        /// @dev Require contract is paused.\n        require(paused, \"Contract Not Paused.\");\n        _;\n    }\n\n    /**\n    * @dev  Allows for interactions with contract if the\n    *       contract is not paused.\n    */\n    modifier whenNotPaused() {\n        /// @dev Require contract is not paused.\n        require(!paused, \"Contract Paused.\");\n        _;\n    }\n\n    /**\n    * @dev  Pauses the contract. \n    *       This function is callable by the owner or deployer.\n    */\n    function pause() public onlyOwner {\n        /// @dev Require contract is not paused.\n        require(!paused, \"Contract Paused.\");\n        /// @dev Set paused to true.\n        paused = true;\n    }\n\n    /**\n    * @dev  Pauses the contract. \n    *       This function is callable by the owner or deployer.\n    */\n    function unPause() public onlyOwner {\n        /// @dev Require contract is paused.\n        require(paused, \"Contract Not Paused.\");\n        /// @dev Set paused to false.\n        paused = false;\n    }\n\n    /**\n    * @dev  Returns true or false if the contract is paused. \n    *       This function is callable by anyone.\n    *\n    * @return bool True or false.\n    */\n    function isPaused() public view returns(bool) {\n        return paused;\n    }\n}",
  "sourcePath": "contracts/contracts/core/contracts/facets/Pausable.sol",
  "type": "contract"
}