{
  "abi": [
    {
      "inputs": [
        {
          "internalType": "string",
          "name": "name",
          "type": "string"
        },
        {
          "internalType": "string",
          "name": "symbol",
          "type": "string"
        },
        {
          "internalType": "address",
          "name": "_allowlistOwner",
          "type": "address"
        },
        {
          "internalType": "uint256",
          "name": "_totalSupply",
          "type": "uint256"
        },
        {
          "internalType": "uint256",
          "name": "_priceLimit",
          "type": "uint256"
        },
        {
          "internalType": "uint256",
          "name": "_tokenPrice",
          "type": "uint256"
        }
      ],
      "stateMutability": "nonpayable",
      "type": "constructor"
    },
    {
      "inputs": [
        {
          "internalType": "address",
          "name": "_address",
          "type": "address"
        }
      ],
      "name": "Unsigned",
      "type": "error"
    },
    {
      "anonymous": false,
      "inputs": [
        {
          "indexed": true,
          "internalType": "address",
          "name": "to",
          "type": "address"
        },
        {
          "indexed": true,
          "internalType": "uint256",
          "name": "tokenId",
          "type": "uint256"
        }
      ],
      "name": "Attest",
      "type": "event"
    },
    {
      "anonymous": false,
      "inputs": [
        {
          "indexed": false,
          "internalType": "uint256",
          "name": "tokenId",
          "type": "uint256"
        },
        {
          "indexed": false,
          "internalType": "uint256",
          "name": "time",
          "type": "uint256"
        }
      ],
      "name": "Extended",
      "type": "event"
    },
    {
      "anonymous": false,
      "inputs": [
        {
          "indexed": true,
          "internalType": "address",
          "name": "to",
          "type": "address"
        },
        {
          "indexed": true,
          "internalType": "uint256",
          "name": "tokenId",
          "type": "uint256"
        }
      ],
      "name": "IssueWithSignature",
      "type": "event"
    },
    {
      "anonymous": false,
      "inputs": [
        {
          "indexed": true,
          "internalType": "address",
          "name": "previousOwner",
          "type": "address"
        },
        {
          "indexed": true,
          "internalType": "address",
          "name": "newOwner",
          "type": "address"
        }
      ],
      "name": "OwnershipTransferred",
      "type": "event"
    },
    {
      "anonymous": false,
      "inputs": [
        {
          "indexed": true,
          "internalType": "uint256",
          "name": "tokenId",
          "type": "uint256"
        },
        {
          "indexed": true,
          "internalType": "uint256",
          "name": "extension",
          "type": "uint256"
        }
      ],
      "name": "Redeemed",
      "type": "event"
    },
    {
      "anonymous": false,
      "inputs": [
        {
          "indexed": true,
          "internalType": "address",
          "name": "to",
          "type": "address"
        },
        {
          "indexed": true,
          "internalType": "uint256",
          "name": "tokenId",
          "type": "uint256"
        }
      ],
      "name": "Revoke",
      "type": "event"
    },
    {
      "anonymous": false,
      "inputs": [
        {
          "indexed": true,
          "internalType": "uint256",
          "name": "tokenId",
          "type": "uint256"
        }
      ],
      "name": "RevokeWithSignature",
      "type": "event"
    },
    {
      "anonymous": false,
      "inputs": [
        {
          "indexed": true,
          "internalType": "address",
          "name": "_address",
          "type": "address"
        }
      ],
      "name": "Signed",
      "type": "event"
    },
    {
      "anonymous": false,
      "inputs": [
        {
          "indexed": true,
          "internalType": "address",
          "name": "_address",
          "type": "address"
        }
      ],
      "name": "Verified",
      "type": "event"
    },
    {
      "anonymous": false,
      "inputs": [
        {
          "indexed": true,
          "internalType": "bytes32",
          "name": "addressHash",
          "type": "bytes32"
        },
        {
          "indexed": true,
          "internalType": "bool",
          "name": "result",
          "type": "bool"
        }
      ],
      "name": "VerifySignature",
      "type": "event"
    },
    {
      "stateMutability": "payable",
      "type": "fallback"
    },
    {
      "inputs": [],
      "name": "_getBaseURI",
      "outputs": [
        {
          "internalType": "string",
          "name": "_baseURI",
          "type": "string"
        }
      ],
      "stateMutability": "view",
      "type": "function"
    },
    {
      "inputs": [
        {
          "internalType": "address",
          "name": "owner",
          "type": "address"
        }
      ],
      "name": "balanceOf",
      "outputs": [
        {
          "internalType": "uint256",
          "name": "",
          "type": "uint256"
        }
      ],
      "stateMutability": "view",
      "type": "function"
    },
    {
      "inputs": [
        {
          "internalType": "uint256",
          "name": "tokenId",
          "type": "uint256"
        }
      ],
      "name": "burn",
      "outputs": [],
      "stateMutability": "nonpayable",
      "type": "function"
    },
    {
      "inputs": [
        {
          "internalType": "uint256",
          "name": "tokenId",
          "type": "uint256"
        },
        {
          "internalType": "uint256",
          "name": "time",
          "type": "uint256"
        }
      ],
      "name": "extendExpiry",
      "outputs": [],
      "stateMutability": "nonpayable",
      "type": "function"
    },
    {
      "inputs": [
        {
          "internalType": "uint256",
          "name": "tokenId",
          "type": "uint256"
        }
      ],
      "name": "generateTokenURI",
      "outputs": [
        {
          "internalType": "string",
          "name": "_tokenURI",
          "type": "string"
        }
      ],
      "stateMutability": "view",
      "type": "function"
    },
    {
      "inputs": [],
      "name": "getAllowlistOwner",
      "outputs": [
        {
          "internalType": "address",
          "name": "",
          "type": "address"
        }
      ],
      "stateMutability": "view",
      "type": "function"
    },
    {
      "inputs": [
        {
          "internalType": "uint256",
          "name": "tokenId",
          "type": "uint256"
        }
      ],
      "name": "getExpiryDate",
      "outputs": [
        {
          "internalType": "uint256",
          "name": "",
          "type": "uint256"
        }
      ],
      "stateMutability": "view",
      "type": "function"
    },
    {
      "inputs": [],
      "name": "getIndividualTokenPrice",
      "outputs": [
        {
          "internalType": "uint256",
          "name": "_tokenPrice",
          "type": "uint256"
        }
      ],
      "stateMutability": "view",
      "type": "function"
    },
    {
      "inputs": [],
      "name": "getPriceLimit",
      "outputs": [
        {
          "internalType": "uint256",
          "name": "_priceLimit",
          "type": "uint256"
        }
      ],
      "stateMutability": "view",
      "type": "function"
    },
    {
      "inputs": [
        {
          "internalType": "uint256",
          "name": "tokenId",
          "type": "uint256"
        }
      ],
      "name": "getTimeLeft",
      "outputs": [
        {
          "internalType": "uint256",
          "name": "",
          "type": "uint256"
        }
      ],
      "stateMutability": "view",
      "type": "function"
    },
    {
      "inputs": [
        {
          "internalType": "address",
          "name": "_to",
          "type": "address"
        },
        {
          "internalType": "uint256",
          "name": "_tokenId",
          "type": "uint256"
        }
      ],
      "name": "isMinted",
      "outputs": [
        {
          "internalType": "bool",
          "name": "",
          "type": "bool"
        }
      ],
      "stateMutability": "view",
      "type": "function"
    },
    {
      "inputs": [
        {
          "internalType": "uint256",
          "name": "tokenId",
          "type": "uint256"
        }
      ],
      "name": "isValid",
      "outputs": [
        {
          "internalType": "bool",
          "name": "",
          "type": "bool"
        }
      ],
      "stateMutability": "view",
      "type": "function"
    },
    {
      "inputs": [
        {
          "internalType": "address",
          "name": "addr",
          "type": "address"
        },
        {
          "internalType": "bytes32",
          "name": "hash",
          "type": "bytes32"
        },
        {
          "internalType": "bytes",
          "name": "sig",
          "type": "bytes"
        },
        {
          "internalType": "uint256",
          "name": "tokenId",
          "type": "uint256"
        },
        {
          "internalType": "string",
          "name": "tokenURI",
          "type": "string"
        }
      ],
      "name": "issueWithSignature",
      "outputs": [],
      "stateMutability": "nonpayable",
      "type": "function"
    },
    {
      "inputs": [
        {
          "internalType": "address",
          "name": "_to",
          "type": "address"
        },
        {
          "internalType": "uint256",
          "name": "_tokenId",
          "type": "uint256"
        }
      ],
      "name": "issuerOf",
      "outputs": [
        {
          "internalType": "address",
          "name": "",
          "type": "address"
        }
      ],
      "stateMutability": "view",
      "type": "function"
    },
    {
      "inputs": [
        {
          "internalType": "address",
          "name": "from",
          "type": "address"
        },
        {
          "internalType": "address",
          "name": "to",
          "type": "address"
        },
        {
          "internalType": "uint256",
          "name": "tokenId",
          "type": "uint256"
        },
        {
          "internalType": "uint256",
          "name": "_tokenExpiryDate",
          "type": "uint256"
        }
      ],
      "name": "mintPendingRedeemableToken",
      "outputs": [],
      "stateMutability": "nonpayable",
      "type": "function"
    },
    {
      "inputs": [],
      "name": "name",
      "outputs": [
        {
          "internalType": "string",
          "name": "",
          "type": "string"
        }
      ],
      "stateMutability": "view",
      "type": "function"
    },
    {
      "inputs": [],
      "name": "owner",
      "outputs": [
        {
          "internalType": "address",
          "name": "",
          "type": "address"
        }
      ],
      "stateMutability": "view",
      "type": "function"
    },
    {
      "inputs": [
        {
          "internalType": "address",
          "name": "addr",
          "type": "address"
        },
        {
          "internalType": "bytes32",
          "name": "hash",
          "type": "bytes32"
        },
        {
          "internalType": "bytes",
          "name": "sig",
          "type": "bytes"
        },
        {
          "internalType": "uint256",
          "name": "tokenId",
          "type": "uint256"
        },
        {
          "internalType": "string",
          "name": "tokenURI",
          "type": "string"
        }
      ],
      "name": "ownerIssueWithSignature",
      "outputs": [],
      "stateMutability": "nonpayable",
      "type": "function"
    },
    {
      "inputs": [
        {
          "internalType": "uint256",
          "name": "tokenId",
          "type": "uint256"
        }
      ],
      "name": "ownerOf",
      "outputs": [
        {
          "internalType": "address",
          "name": "",
          "type": "address"
        }
      ],
      "stateMutability": "view",
      "type": "function"
    },
    {
      "inputs": [
        {
          "internalType": "bytes32",
          "name": "hash",
          "type": "bytes32"
        },
        {
          "internalType": "bytes",
          "name": "sig",
          "type": "bytes"
        },
        {
          "internalType": "uint256",
          "name": "tokenId",
          "type": "uint256"
        }
      ],
      "name": "ownerRevokeWithSignature",
      "outputs": [],
      "stateMutability": "nonpayable",
      "type": "function"
    },
    {
      "inputs": [
        {
          "internalType": "address",
          "name": "_receiver",
          "type": "address"
        },
        {
          "internalType": "uint256",
          "name": "tokenId",
          "type": "uint256"
        }
      ],
      "name": "payToReceiveToken",
      "outputs": [],
      "stateMutability": "payable",
      "type": "function"
    },
    {
      "inputs": [
        {
          "internalType": "address",
          "name": "_receiver",
          "type": "address"
        },
        {
          "internalType": "uint256",
          "name": "tokenId",
          "type": "uint256"
        },
        {
          "internalType": "uint256",
          "name": "_tokenExpiryDate",
          "type": "uint256"
        }
      ],
      "name": "redeemMintedToken",
      "outputs": [],
      "stateMutability": "payable",
      "type": "function"
    },
    {
      "inputs": [
        {
          "internalType": "address",
          "name": "_caller",
          "type": "address"
        },
        {
          "internalType": "address",
          "name": "_receiver",
          "type": "address"
        },
        {
          "internalType": "uint256",
          "name": "tokenId",
          "type": "uint256"
        },
        {
          "internalType": "uint256",
          "name": "_tokenExpiryDate",
          "type": "uint256"
        },
        {
          "internalType": "bytes32",
          "name": "hash",
          "type": "bytes32"
        },
        {
          "internalType": "bytes",
          "name": "sig",
          "type": "bytes"
        }
      ],
      "name": "redeemMintedTokenWithSignature",
      "outputs": [],
      "stateMutability": "payable",
      "type": "function"
    },
    {
      "inputs": [
        {
          "internalType": "address",
          "name": "_receiver",
          "type": "address"
        },
        {
          "internalType": "uint256",
          "name": "tokenId",
          "type": "uint256"
        },
        {
          "internalType": "uint256",
          "name": "_tokenExpiryDate",
          "type": "uint256"
        }
      ],
      "name": "redeemPendingToken",
      "outputs": [],
      "stateMutability": "payable",
      "type": "function"
    },
    {
      "inputs": [
        {
          "internalType": "address",
          "name": "_caller",
          "type": "address"
        },
        {
          "internalType": "address",
          "name": "_receiver",
          "type": "address"
        },
        {
          "internalType": "uint256",
          "name": "tokenId",
          "type": "uint256"
        },
        {
          "internalType": "uint256",
          "name": "_tokenExpiryDate",
          "type": "uint256"
        },
        {
          "internalType": "bytes32",
          "name": "hash",
          "type": "bytes32"
        },
        {
          "internalType": "bytes",
          "name": "sig",
          "type": "bytes"
        }
      ],
      "name": "redeemPendingTokenWithSignature",
      "outputs": [],
      "stateMutability": "payable",
      "type": "function"
    },
    {
      "inputs": [],
      "name": "renounceOwnership",
      "outputs": [],
      "stateMutability": "nonpayable",
      "type": "function"
    },
    {
      "inputs": [
        {
          "internalType": "bytes32",
          "name": "hash",
          "type": "bytes32"
        },
        {
          "internalType": "bytes",
          "name": "sig",
          "type": "bytes"
        },
        {
          "internalType": "uint256",
          "name": "tokenId",
          "type": "uint256"
        }
      ],
      "name": "revokeWithSignature",
      "outputs": [],
      "stateMutability": "nonpayable",
      "type": "function"
    },
    {
      "inputs": [
        {
          "internalType": "address",
          "name": "caller",
          "type": "address"
        },
        {
          "internalType": "string",
          "name": "_baseURI",
          "type": "string"
        }
      ],
      "name": "setBaseURI",
      "outputs": [],
      "stateMutability": "nonpayable",
      "type": "function"
    },
    {
      "inputs": [
        {
          "internalType": "address",
          "name": "caller",
          "type": "address"
        },
        {
          "internalType": "uint256",
          "name": "_price",
          "type": "uint256"
        }
      ],
      "name": "setPrice",
      "outputs": [],
      "stateMutability": "nonpayable",
      "type": "function"
    },
    {
      "inputs": [
        {
          "internalType": "bytes4",
          "name": "interfaceId",
          "type": "bytes4"
        }
      ],
      "name": "supportsInterface",
      "outputs": [
        {
          "internalType": "bool",
          "name": "",
          "type": "bool"
        }
      ],
      "stateMutability": "view",
      "type": "function"
    },
    {
      "inputs": [],
      "name": "symbol",
      "outputs": [
        {
          "internalType": "string",
          "name": "",
          "type": "string"
        }
      ],
      "stateMutability": "view",
      "type": "function"
    },
    {
      "inputs": [
        {
          "internalType": "uint256",
          "name": "tokenId",
          "type": "uint256"
        }
      ],
      "name": "tokenURI",
      "outputs": [
        {
          "internalType": "string",
          "name": "",
          "type": "string"
        }
      ],
      "stateMutability": "view",
      "type": "function"
    },
    {
      "inputs": [
        {
          "internalType": "address",
          "name": "newOwner",
          "type": "address"
        }
      ],
      "name": "transferOwnership",
      "outputs": [],
      "stateMutability": "nonpayable",
      "type": "function"
    },
    {
      "inputs": [
        {
          "internalType": "bytes32",
          "name": "hash",
          "type": "bytes32"
        },
        {
          "internalType": "bytes",
          "name": "sig",
          "type": "bytes"
        }
      ],
      "name": "verifySignature",
      "outputs": [
        {
          "internalType": "bool",
          "name": "",
          "type": "bool"
        }
      ],
      "stateMutability": "nonpayable",
      "type": "function"
    },
    {
      "inputs": [
        {
          "internalType": "address",
          "name": "_signer",
          "type": "address"
        },
        {
          "internalType": "bytes32",
          "name": "_hash",
          "type": "bytes32"
        },
        {
          "internalType": "bytes",
          "name": "_signature",
          "type": "bytes"
        }
      ],
      "name": "verifySigner",
      "outputs": [
        {
          "internalType": "bool",
          "name": "",
          "type": "bool"
        }
      ],
      "stateMutability": "pure",
      "type": "function"
    },
    {
      "inputs": [
        {
          "internalType": "address",
          "name": "_caller",
          "type": "address"
        }
      ],
      "name": "withdraw",
      "outputs": [],
      "stateMutability": "nonpayable",
      "type": "function"
    },
    {
      "stateMutability": "payable",
      "type": "receive"
    }
  ],
  "bytecode": "6080604052600f6012553480156200001657600080fd5b50604051620033403803806200334083398101604081905262000039916200029f565b858585858383838381848481816001620000548382620003d7565b506002620000638282620003d7565b505050620000806200007a6200017c60201b60201c565b62000180565b50506001600160a01b038116620000d15760405162461bcd60e51b815260206004820152601060248201526f24b73b30b634b21020b2323932b9b99760811b60448201526064015b60405180910390fd5b600980546001600160a01b0319166001600160a01b039290921691909117905560008190036200010857620f4240600a556200010e565b600a8190555b505050505050505081811115620001685760405162461bcd60e51b815260206004820152601860248201527f507269636520686967686572207468616e206c696d69742e00000000000000006044820152606401620000c8565b600e91909155600f5550620004a392505050565b3390565b600680546001600160a01b038381166001600160a01b0319831681179093556040519116919082907f8be0079c531659141344cd1fd0a4f28419497f9722a3daafe3b4186f6b6457e090600090a35050565b634e487b7160e01b600052604160045260246000fd5b600082601f830112620001fa57600080fd5b81516001600160401b0380821115620002175762000217620001d2565b604051601f8301601f19908116603f01168101908282118183101715620002425762000242620001d2565b816040528381526020925086838588010111156200025f57600080fd5b600091505b8382101562000283578582018301518183018401529082019062000264565b83821115620002955760008385830101525b9695505050505050565b60008060008060008060c08789031215620002b957600080fd5b86516001600160401b0380821115620002d157600080fd5b620002df8a838b01620001e8565b97506020890151915080821115620002f657600080fd5b506200030589828a01620001e8565b604089015190965090506001600160a01b03811681146200032557600080fd5b80945050606087015192506080870151915060a087015190509295509295509295565b600181811c908216806200035d57607f821691505b6020821081036200037e57634e487b7160e01b600052602260045260246000fd5b50919050565b601f821115620003d257600081815260208120601f850160051c81016020861015620003ad5750805b601f850160051c820191505b81811015620003ce57828155600101620003b9565b5050505b505050565b81516001600160401b03811115620003f357620003f3620001d2565b6200040b8162000404845462000348565b8462000384565b602080601f8311600181146200044357600084156200042a5750858301515b600019600386901b1c1916600185901b178555620003ce565b600085815260208120601f198616915b82811015620004745788860151825594840194600190910190840162000453565b5085821015620004935787850151600019600388901b60f8161c191681555b5050505050600190811b01905550565b612e8d80620004b36000396000f3fe6080604052600436106101fa5760003560e01c806395d89b411161010c578063daca6f781161009a578063ed7347301161006c578063ed734730146105ef578063f2fde38b14610602578063f577a50014610622578063fad54de714610652578063fb8f198d1461066757005b8063daca6f781461056f578063e8c587631461058f578063e92b0842146105af578063ea5353c7146105cf57005b8063bd97a6ad116100de578063bd97a6ad146104da578063c3cab38a146104fa578063c87b56dd1461051a578063c9dd94c71461053a578063c9e4c54d1461054f57005b806395d89b411461048a578063983a8b941461049f578063a0b97daa146104b2578063bd131786146104c757005b806351cff8d9116101895780636e0a87461161015b5780636e0a8746146103f957806370a0823114610417578063715018a614610437578063884336511461044c5780638da5cb5b1461046c57005b806351cff8d9146103205780635899e7b2146103405780636352211e146103865780636833f200146103be57005b80631f04d135116101cd5780631f04d1351461029a578063210fa96b146102ba57806333e085c1146102da5780633d1a350e146102ed57806342966c681461030057005b8062e4768b1461020357806301ffc9a71461022357806306fdde031461025857806308c92e571461027a57005b3661020157005b005b34801561020f57600080fd5b5061020161021e366004612719565b610687565b34801561022f57600080fd5b5061024361023e366004612743565b610756565b60405190151581526020015b60405180910390f35b34801561026457600080fd5b5061026d6107a8565b60405161024f919061279d565b34801561028657600080fd5b50610201610295366004612873565b61083a565b3480156102a657600080fd5b506102016102b5366004612873565b610970565b3480156102c657600080fd5b5061026d6102d53660046128c3565b610a0c565b6102016102e8366004612719565b610a8e565b6102016102fb3660046128dc565b610da6565b34801561030c57600080fd5b5061020161031b3660046128c3565b611098565b34801561032c57600080fd5b5061020161033b36600461290f565b61110d565b34801561034c57600080fd5b5061024361035b366004612719565b6001600160a01b03919091166000908152600860209081526040808320938352929052205460ff1690565b34801561039257600080fd5b506103a66103a13660046128c3565b611263565b6040516001600160a01b03909116815260200161024f565b3480156103ca57600080fd5b506103eb6103d93660046128c3565b60009081526020819052604090205490565b60405190815260200161024f565b34801561040557600080fd5b506009546001600160a01b03166103a6565b34801561042357600080fd5b506103eb61043236600461290f565b6112c8565b34801561044357600080fd5b50610201611351565b34801561045857600080fd5b5061020161046736600461292a565b611387565b34801561047857600080fd5b506006546001600160a01b03166103a6565b34801561049657600080fd5b5061026d6113fd565b6102016104ad366004612978565b61140c565b3480156104be57600080fd5b50600e546103eb565b6102016104d5366004612978565b611504565b3480156104e657600080fd5b506102016104f53660046129f2565b6115e9565b34801561050657600080fd5b50610201610515366004612a34565b6117dd565b34801561052657600080fd5b5061026d6105353660046128c3565b611835565b34801561054657600080fd5b5061026d61192a565b34801561055b57600080fd5b5061020161056a366004612a56565b611987565b34801561057b57600080fd5b5061024361058a366004612ade565b611a94565b34801561059b57600080fd5b506103eb6105aa3660046128c3565b611aa7565b3480156105bb57600080fd5b506102436105ca366004612b0f565b611ae4565b3480156105db57600080fd5b506102016105ea366004612a56565b611b78565b6102016105fd3660046128dc565b611bf7565b34801561060e57600080fd5b5061020161061d36600461290f565b611da3565b34801561062e57600080fd5b5061024361063d3660046128c3565b60009081526020819052604090205442111590565b34801561065e57600080fd5b50600f546103eb565b34801561067357600080fd5b506103a6610682366004612719565b611e3b565b6006546001600160a01b031633146106ba5760405162461bcd60e51b81526004016106b190612b66565b60405180910390fd5b816106cd6009546001600160a01b031690565b6001600160a01b0316816001600160a01b0316146106fd5760405162461bcd60e51b81526004016106b190612b9b565b600e5482111561074f5760405162461bcd60e51b815260206004820152601860248201527f507269636520686967686572207468616e206c696d69742e000000000000000060448201526064016106b1565b50600f5550565b60006001600160e01b03198216635b5e139f60e01b148061078757506001600160e01b03198216635164cf4760e01b145b806107a257506301ffc9a760e01b6001600160e01b03198316145b92915050565b6060600180546107b790612bc9565b80601f01602080910402602001604051908101604052809291908181526020018280546107e390612bc9565b80156108305780601f1061080557610100808354040283529160200191610830565b820191906000526020600020905b81548152906001019060200180831161081357829003601f168201915b5050505050905090565b61084381611f4f565b61088f5760405162461bcd60e51b815260206004820152601b60248201527f5265766f6b65206f6620696e6578697374656e7420746f6b656e2e000000000060448201526064016106b1565b81516041146108db5760405162461bcd60e51b8152602060048201526018602482015277092dcecc2d8d2c840e6d2cedcc2e8eae4ca40d8cadccee8d60431b60448201526064016106b1565b6108e58383611a94565b61092d5760405162461bcd60e51b81526020600482015260196024820152782430b9b4103737ba1039b4b3b732b210313c9037bbb732b91760391b60448201526064016106b1565b61093f61093982611263565b82611f6c565b5060405181907ff947bf2266afede98f27ad2312db8b2a17921852307f979b6f14a2b41fa774bc90600090a2505050565b6006546001600160a01b0316331461099a5760405162461bcd60e51b81526004016106b190612b66565b600b54156109bc57600b80549060006109b283612c19565b91905055506109fc565b60405162461bcd60e51b81526020600482015260156024820152742637bbb2b9ba103634b6b4ba103932b0b1b432b21760591b60448201526064016106b1565b610a0783838361083a565b505050565b6060610a1661192a565b51600003610a565760405162461bcd60e51b815260206004820152600d60248201526c456d707479206261736555524960981b60448201526064016106b1565b610a5e61192a565b610a6783612034565b604051602001610a78929190612c30565b6040516020818303038152906040529050919050565b6006546001600160a01b03163314610ab85760405162461bcd60e51b81526004016106b190612b66565b60135460ff1615610ac857600080fd5b6013805460ff191660011790556001600160a01b038216610afb5760405162461bcd60e51b81526004016106b190612c5f565b610b0481611f4f565b15610b515760405162461bcd60e51b815260206004820152601f60248201527f4d696e74206f6620616c7265616479206578697374696e6720746f6b656e2e0060448201526064016106b1565b60008181526010602052604090205460ff16610ba95760405162461bcd60e51b815260206004820152601760248201527620b63932b0b23c903932b1b2b4bb32b2103a37b5b2b71760491b60448201526064016106b1565b6000818152601160205260409020546001600160a01b03838116911614610c0a5760405162461bcd60e51b81526020600482015260156024820152742737ba103832b73234b733903932b1b2b4bb32b91760591b60448201526064016106b1565b600081815260208190526040902054421115610c795760405162461bcd60e51b815260206004820152602860248201527f526563656976616c206f66206578706972656420746f6b656e2c20726564656560448201526736903a37b5b2b71760c11b60648201526084016106b1565b600f54341015610ccb5760405162461bcd60e51b815260206004820152601c60248201527f5072696365206c6f776572207468616e20746f6b656e20636f73742e0000000060448201526064016106b1565b6000600f54341115610d1f57600f54610ce49034612c8e565b6040519091506001600160a01b0384169082156108fc029083906000818181858888f19350505050158015610d1d573d6000803e3d6000fd5b505b6000610d2a83610a0c565b9050610d3784848361213d565b50600c8054906000610d4883612ca5565b9190505550600f54600d6000828254610d619190612cbe565b909155505050600091825250601060209081526040808320805460ff19908116909155601190925290912080546001600160a01b031916905560138054909116905550565b6006546001600160a01b03163314610dd05760405162461bcd60e51b81526004016106b190612b66565b60135460ff1615610de057600080fd5b6013805460ff191660011790556001600160a01b038316610e435760405162461bcd60e51b815260206004820152601b60248201527f526564656d7074696f6e20746f207a65726f20616464726573732e000000000060448201526064016106b1565b610e4c82611f4f565b610ea25760405162461bcd60e51b815260206004820152602160248201527f526564656d7074696f6e206f66206e6f6e2d6578697374696e6720746f6b656e6044820152601760f91b60648201526084016106b1565b60008281526010602052604090205460ff1615610ef85760405162461bcd60e51b81526020600482015260146024820152732a37b5b2b71039ba34b636103832b73234b7339760611b60448201526064016106b1565b826001600160a01b0316610f0b83611263565b6001600160a01b031614610f545760405162461bcd60e51b815260206004820152601060248201526f2737ba103a37b5b2b71037bbb732b91760811b60448201526064016106b1565b6000828152602081905260409020544211610fa45760405162461bcd60e51b815260206004820152601060248201526f2a37b5b2b7103ab732bc3834b932b21760811b60448201526064016106b1565b6000610fb1601254612154565b9050803410156110035760405162461bcd60e51b815260206004820181905260248201527f5072696365206c6f776572207468616e20726564656d7074696f6e207461782e60448201526064016106b1565b60008115611050576110158234612c8e565b6040519091506001600160a01b0386169082156108fc029083906000818181858888f1935050505015801561104e573d6000803e3d6000fd5b505b61105a84846117dd565b604051839085907f6f73b7b8d37df32ea60a45eadc8fc3d2d716d705ee099bd506817482ce84731690600090a350506013805460ff19169055505050565b6110a181611263565b6001600160a01b0316336001600160a01b0316146111015760405162461bcd60e51b815260206004820152601a60248201527f6275726e3a2073656e646572206d757374206265206f776e657200000000000060448201526064016106b1565b61110a81612190565b50565b6006546001600160a01b031633146111375760405162461bcd60e51b81526004016106b190612b66565b8061114a6009546001600160a01b031690565b6001600160a01b0316816001600160a01b03161461117a5760405162461bcd60e51b81526004016106b190612b9b565b6001600160a01b0382166111d05760405162461bcd60e51b815260206004820152601860248201527f53656e64696e6720746f207a65726f20616464726573732e000000000000000060448201526064016106b1565b600d544710156112225760405162461bcd60e51b815260206004820152601c60248201527f526576656e756520213d20436f6e74726163742062616c616e63652e0000000060448201526064016106b1565b600d546040516001600160a01b0384169180156108fc02916000818181858888f19350505050158015611259573d6000803e3d6000fd5b50506000600d5550565b6000818152600360205260408120546001600160a01b0316806107a25760405162461bcd60e51b815260206004820152601c60248201527f6f776e65724f663a20746f6b656e20646f65736e27742065786973740000000060448201526064016106b1565b60006001600160a01b0382166113355760405162461bcd60e51b815260206004820152602c60248201527f62616c616e63654f663a2061646472657373207a65726f206973206e6f74206160448201526b103b30b634b21037bbb732b960a11b60648201526084016106b1565b506001600160a01b031660009081526005602052604090205490565b6006546001600160a01b0316331461137b5760405162461bcd60e51b81526004016106b190612b66565b6113856000612237565b565b6006546001600160a01b031633146113b15760405162461bcd60e51b81526004016106b190612b66565b816113c46009546001600160a01b031690565b6001600160a01b0316816001600160a01b0316146113f45760405162461bcd60e51b81526004016106b190612b9b565b610a0782612289565b6060600280546107b790612bc9565b6006546001600160a01b031633146114365760405162461bcd60e51b81526004016106b190612b66565b856114496009546001600160a01b031690565b6001600160a01b0316816001600160a01b0316146114795760405162461bcd60e51b81526004016106b190612b9b565b60135460ff161561148957600080fd5b6013805460ff191660011790556114a08383611a94565b6114e65760405162461bcd60e51b81526020600482015260176024820152762430b9b4103737ba1039b4b3b732b210313c903cb7ba9760491b60448201526064016106b1565b6114f1868686610da6565b50506013805460ff191690555050505050565b6006546001600160a01b0316331461152e5760405162461bcd60e51b81526004016106b190612b66565b856115416009546001600160a01b031690565b6001600160a01b0316816001600160a01b0316146115715760405162461bcd60e51b81526004016106b190612b9b565b60135460ff161561158157600080fd5b6013805460ff191660011790556115988383611a94565b6115de5760405162461bcd60e51b81526020600482015260176024820152762430b9b4103737ba1039b4b3b732b210313c903cb7ba9760491b60448201526064016106b1565b6114f1868686611bf7565b6006546001600160a01b031633146116135760405162461bcd60e51b81526004016106b190612b66565b836116266009546001600160a01b031690565b6001600160a01b0316816001600160a01b0316146116565760405162461bcd60e51b81526004016106b190612b9b565b600a54600b541061169e5760405162461bcd60e51b815260206004820152601260248201527124b9b9bab29021b0b8102932b0b1b432b21760711b60448201526064016106b1565b6001600160a01b0384166116c45760405162461bcd60e51b81526004016106b190612c5f565b6116cd83611f4f565b1561171a5760405162461bcd60e51b815260206004820152601f60248201527f4d696e74206f6620616c7265616479206578697374696e6720746f6b656e2e0060448201526064016106b1565b60008381526010602052604090205460ff16156117795760405162461bcd60e51b815260206004820152601e60248201527f4d696e74206f6620616c72656164792070656e64696e6720746f6b656e2e000060448201526064016106b1565b6000838152601060209081526040808320805460ff191660011790556011909152902080546001600160a01b0386166001600160a01b03199091161790556117c183836117dd565b600b80549060006117d183612ca5565b91905055505050505050565b6117e78142612cbe565b600083815260208181526040918290209290925580518481529182018390527f41a73beb1018a8b63e0f451a8a4f483806142cf14be45b1a58a23776a1e9b4bc910160405180910390a15050565b606061184082611f4f565b61188c5760405162461bcd60e51b815260206004820152601d60248201527f746f6b656e5552493a20746f6b656e20646f65736e277420657869737400000060448201526064016106b1565b600082815260046020526040902080546118a590612bc9565b80601f01602080910402602001604051908101604052809291908181526020018280546118d190612bc9565b801561191e5780601f106118f35761010080835404028352916020019161191e565b820191906000526020600020905b81548152906001019060200180831161190157829003601f168201915b50505050509050919050565b60606007805461193990612bc9565b905060000361197a5760405162461bcd60e51b815260206004820152600d60248201526c456d707479206261736555524960981b60448201526064016106b1565b600780546107b790612bc9565b6001600160a01b0385166119ad5760405162461bcd60e51b81526004016106b190612c5f565b82516041146119f95760405162461bcd60e51b8152602060048201526018602482015277092dcecc2d8d2c840e6d2cedcc2e8eae4ca40d8cadccee8d60431b60448201526064016106b1565b611a038484611a94565b611a4b5760405162461bcd60e51b81526020600482015260196024820152782430b9b4103737ba1039b4b3b732b210313c9037bbb732b91760391b60448201526064016106b1565b611a5685838361213d565b5060405182906001600160a01b038716907f79af0e59b31823dd289ceebabc4d63d25f35926b8548e3a084a500c9d4e1855690600090a35050505050565b6000611aa083836122db565b9392505050565b600081815260208190526040812054421115611ac557506000919050565b6000828152602081905260409020546107a2904290612c8e565b919050565b602081810151604080840151606080860151835160008082528188018087528a905291821a81860181905292810186905260808101849052935190959293919260019260a080820193601f1981019281900390910190855afa158015611b4e573d6000803e3d6000fd5b505050602060405103516001600160a01b0316876001600160a01b03161493505050509392505050565b6006546001600160a01b03163314611ba25760405162461bcd60e51b81526004016106b190612b66565b600a54600b5410611bea5760405162461bcd60e51b815260206004820152601260248201527124b9b9bab29021b0b8102932b0b1b432b21760711b60448201526064016106b1565b6117c18585858585611987565b6006546001600160a01b03163314611c215760405162461bcd60e51b81526004016106b190612b66565b60135460ff1615611c3157600080fd5b6013805460ff191660011790556001600160a01b038316611c945760405162461bcd60e51b815260206004820152601b60248201527f526564656d7074696f6e20746f207a65726f20616464726573732e000000000060448201526064016106b1565b611c9d82611f4f565b15611cea5760405162461bcd60e51b815260206004820152601d60248201527f526564656d7074696f6e206f66206578697374696e6720746f6b656e2e00000060448201526064016106b1565b60008281526010602052604090205460ff16611d425760405162461bcd60e51b815260206004820152601760248201527620b63932b0b23c903932b1b2b4bb32b2103a37b5b2b71760491b60448201526064016106b1565b6000828152601160205260409020546001600160a01b03848116911614610f545760405162461bcd60e51b81526020600482015260156024820152742737ba103832b73234b733903932b1b2b4bb32b91760591b60448201526064016106b1565b6006546001600160a01b03163314611dcd5760405162461bcd60e51b81526004016106b190612b66565b6001600160a01b038116611e325760405162461bcd60e51b815260206004820152602660248201527f4f776e61626c653a206e6577206f776e657220697320746865207a65726f206160448201526564647265737360d01b60648201526084016106b1565b61110a81612237565b60006001600160a01b038316611e935760405162461bcd60e51b815260206004820152601760248201527f517565727920666f72207a65726f20616464726573732e00000000000000000060448201526064016106b1565b611e9c82611f4f565b611ede5760405162461bcd60e51b81526020600482015260136024820152722737b716b2bc34b9ba32b73a103a37b5b2b71760691b60448201526064016106b1565b826001600160a01b0316611ef183611263565b6001600160a01b031614611f475760405162461bcd60e51b815260206004820152601a60248201527f546f6b656e206e6f74206f776e6564206279206164647265737300000000000060448201526064016106b1565b503092915050565b6000908152600360205260409020546001600160a01b0316151590565b6000611f7782611f4f565b611fb95760405162461bcd60e51b81526020600482015260136024820152722737b716b2bc34b9ba32b73a103a37b5b2b71760691b60448201526064016106b1565b826001600160a01b0316611fcc83611263565b6001600160a01b0316146120225760405162461bcd60e51b815260206004820152601a60248201527f546f6b656e206e6f74206f776e6564206279206164647265737300000000000060448201526064016106b1565b61202b82612481565b50600192915050565b60608160000361205b5750506040805180820190915260018152600360fc1b602082015290565b8160005b8115612085578061206f81612ca5565b915061207e9050600a83612cec565b915061205f565b60008167ffffffffffffffff8111156120a0576120a06127d0565b6040519080825280601f01601f1916602001820160405280156120ca576020820181803683370190505b5090505b8415612135576120df600183612c8e565b91506120ec600a86612d00565b6120f7906030612cbe565b60f81b81838151811061210c5761210c612d14565b60200101906001600160f81b031916908160001a90535061212e600a86612cec565b94506120ce565b949350505050565b600061214a848484612517565b5060019392505050565b600064746a528800600d54101561216a57600091505b6103e8600d548361217b9190612d2a565b61218690600a612d2a565b6107a29190612cec565b600061219b82611263565b6001600160a01b038116600090815260056020526040812080549293506001929091906121c9908490612c8e565b9091555050600082815260036020908152604080832080546001600160a01b0319169055600490915281206121fd916126b4565b60405182906001600160a01b038316907fec9ab91322523c899ede7830ec9bfc992b5981cdcc27b91162fb23de5791117b90600090a35050565b600680546001600160a01b038381166001600160a01b0319831681179093556040519116919082907f8be0079c531659141344cd1fd0a4f28419497f9722a3daafe3b4186f6b6457e090600090a35050565b80516000036122cb5760405162461bcd60e51b815260206004820152600e60248201526d092dcecc2d8d2c840d8cadccee8d60931b60448201526064016106b1565b60076122d78282612d97565b5050565b6006546000906001600160a01b031633146123085760405162461bcd60e51b81526004016106b190612b66565b6006546001600160a01b031633146123765760405162461bcd60e51b815260206004820152602b60248201527f4552433732313a3a2043616c6c20746f20636f6e7472616374206d616465206260448201526a3c903737b716b7bbb732b960a91b60648201526084016106b1565b81516041146123c75760405162461bcd60e51b815260206004820152601e60248201527f4572723a3a20496e76616c6964207369676e6174757265206c656e677468000060448201526064016106b1565b602082810151604080850151606080870151835160008082529681018086528a905290861a938101849052908101849052608081018290529293909260019060a0016020604051602081039080840390855afa15801561242b573d6000803e3d6000fd5b5050604051601f198101516009549093506001600160a01b038085169116149150819089907f7e4fe2a2a805a357593fdbdde58c02f6a53d8b4960744cd31a98697fc11c2e3690600090a3979650505050505050565b61248a81611f4f565b6124d65760405162461bcd60e51b815260206004820152601860248201527f4275726e206f6620696e6578697374656e7420746f6b656e000000000000000060448201526064016106b1565b60006124e182611263565b90506124ec82612190565b6001600160a01b0316600090815260086020908152604080832093835292905220805460ff19169055565b6001600160a01b03831661253d5760405162461bcd60e51b81526004016106b190612c5f565b80516000036125805760405162461bcd60e51b815260206004820152600f60248201526e22b6b83a3c903a37b5b2b72aa9249760891b60448201526064016106b1565b61258b8383836125bd565b50506001600160a01b03909116600090815260086020908152604080832093835292905220805460ff19166001179055565b60006125c883611f4f565b1561260c5760405162461bcd60e51b81526020600482015260146024820152736d696e743a20746f6b656e49442065786973747360601b60448201526064016106b1565b6001600160a01b0384166000908152600560205260408120805460019290612635908490612cbe565b9091555050600083815260036020908152604080832080546001600160a01b0319166001600160a01b038916179055600490915290206126758382612d97565b5060405183906001600160a01b038616907fe9274a84b19e9428826de6bae8c48329354f8f0e73f771b97cae2d9dccd45a2790600090a3509092915050565b5080546126c090612bc9565b6000825580601f106126d0575050565b601f01602090049060005260206000209081019061110a91905b808211156126fe57600081556001016126ea565b5090565b80356001600160a01b0381168114611adf57600080fd5b6000806040838503121561272c57600080fd5b61273583612702565b946020939093013593505050565b60006020828403121561275557600080fd5b81356001600160e01b031981168114611aa057600080fd5b60005b83811015612788578181015183820152602001612770565b83811115612797576000848401525b50505050565b60208152600082518060208401526127bc81604085016020870161276d565b601f01601f19169190910160400192915050565b634e487b7160e01b600052604160045260246000fd5b600082601f8301126127f757600080fd5b813567ffffffffffffffff80821115612812576128126127d0565b604051601f8301601f19908116603f0116810190828211818310171561283a5761283a6127d0565b8160405283815286602085880101111561285357600080fd5b836020870160208301376000602085830101528094505050505092915050565b60008060006060848603121561288857600080fd5b83359250602084013567ffffffffffffffff8111156128a657600080fd5b6128b2868287016127e6565b925050604084013590509250925092565b6000602082840312156128d557600080fd5b5035919050565b6000806000606084860312156128f157600080fd5b6128fa84612702565b95602085013595506040909401359392505050565b60006020828403121561292157600080fd5b611aa082612702565b6000806040838503121561293d57600080fd5b61294683612702565b9150602083013567ffffffffffffffff81111561296257600080fd5b61296e858286016127e6565b9150509250929050565b60008060008060008060c0878903121561299157600080fd5b61299a87612702565b95506129a860208801612702565b945060408701359350606087013592506080870135915060a087013567ffffffffffffffff8111156129d957600080fd5b6129e589828a016127e6565b9150509295509295509295565b60008060008060808587031215612a0857600080fd5b612a1185612702565b9350612a1f60208601612702565b93969395505050506040820135916060013590565b60008060408385031215612a4757600080fd5b50508035926020909101359150565b600080600080600060a08688031215612a6e57600080fd5b612a7786612702565b945060208601359350604086013567ffffffffffffffff80821115612a9b57600080fd5b612aa789838a016127e6565b9450606088013593506080880135915080821115612ac457600080fd5b50612ad1888289016127e6565b9150509295509295909350565b60008060408385031215612af157600080fd5b82359150602083013567ffffffffffffffff81111561296257600080fd5b600080600060608486031215612b2457600080fd5b612b2d84612702565b925060208401359150604084013567ffffffffffffffff811115612b5057600080fd5b612b5c868287016127e6565b9150509250925092565b6020808252818101527f4f776e61626c653a2063616c6c6572206973206e6f7420746865206f776e6572604082015260600190565b6020808252601490820152734e6f7420416c6c6f776c697374204f776e65722160601b604082015260600190565b600181811c90821680612bdd57607f821691505b602082108103612bfd57634e487b7160e01b600052602260045260246000fd5b50919050565b634e487b7160e01b600052601160045260246000fd5b600081612c2857612c28612c03565b506000190190565b60008351612c4281846020880161276d565b835190830190612c5681836020880161276d565b01949350505050565b60208082526015908201527426b4b73a103a37903d32b9379030b2323932b9b99760591b604082015260600190565b600082821015612ca057612ca0612c03565b500390565b600060018201612cb757612cb7612c03565b5060010190565b60008219821115612cd157612cd1612c03565b500190565b634e487b7160e01b600052601260045260246000fd5b600082612cfb57612cfb612cd6565b500490565b600082612d0f57612d0f612cd6565b500690565b634e487b7160e01b600052603260045260246000fd5b6000816000190483118215151615612d4457612d44612c03565b500290565b601f821115610a0757600081815260208120601f850160051c81016020861015612d705750805b601f850160051c820191505b81811015612d8f57828155600101612d7c565b505050505050565b815167ffffffffffffffff811115612db157612db16127d0565b612dc581612dbf8454612bc9565b84612d49565b602080601f831160018114612dfa5760008415612de25750858301515b600019600386901b1c1916600185901b178555612d8f565b600085815260208120601f198616915b82811015612e2957888601518255948401946001909101908401612e0a565b5085821015612e475787850151600019600388901b60f8161c191681555b5050505050600190811b0190555056fea2646970667358221220d84be31b55b9957eedec9ac513cd6049f6f334a1ebc344347050ca815bd44d6864736f6c634300080f0033",
  "bytecodeSha1": "cae05163a6e53907f9a771b99db512f3f068f731",
  "compiler": {
    "evm_version": "istanbul",
    "optimizer": {
      "enabled": true,
      "runs": 200
    },
    "version": "0.8.15+commit.e14f2714"
  },
  "contractName": "SoulboundRedeemable",
  "language": "Solidity",
  "natspec": {
    "author": "Daccred.",
    "details": "An instance of the Soulbound token with capped supply       and tokens having their own individual expiry date.       Tokens are minted to and are pendng until receivers       pay to receive their complete token.",
    "errors": {
      "Unsigned(address)": [
        {
          "details": "Thrown when the address passed to the verify function is not signed."
        }
      ]
    },
    "kind": "dev",
    "methods": {
      "_getBaseURI()": {
        "details": "Returns already set baseURI if it exists.",
        "notice": "Callable by anyone.",
        "returns": {
          "_baseURI": "baseURI set."
        }
      },
      "balanceOf(address)": {
        "details": "ABTs assigned to the zero address are considered invalid, and this  function throws for queries about the zero address.",
        "notice": "Count all ABTs assigned to an owner",
        "params": {
          "owner": "An address for whom to query the balance"
        },
        "returns": {
          "_0": "The number of ABTs owned by `owner`, possibly zero"
        }
      },
      "burn(uint256)": {
        "details": "Must emit a `event Revoke` with the `address to` field pointing to  the zero address.",
        "notice": "Destroys `tokenId`. At any time, an ABT receiver must be able to  disassociate themselves from an ABT publicly through calling this  function.",
        "params": {
          "tokenId": "The identifier for an ABT"
        }
      },
      "constructor": {
        "details": "Deploy the SoulboundWithSignature with set         total supply, priceLimit and price of an individual token."
      },
      "extendExpiry(uint256,uint256)": {
        "details": "On every successful redemption or mint of token the       expiry of the token is extended by the duration passed       in the contract.       This should be called on expired tokens.",
        "notice": "This function is expected to be called by the           SoulboundRedeemable on every mint.",
        "params": {
          "time": "Length of time to extend it with.",
          "tokenId": "Token to extend its expiry."
        }
      },
      "generateTokenURI(uint256)": {
        "details": "Using the `tokenId` passed, it generates a `stringified` tokenURI,       packing the baseURI and the current tokenId.       Makes use of OpenZeppelin's uint to string function.",
        "notice": "Callable by anyone.",
        "params": {
          "tokenId": "ID of token whose tokenURI is desired."
        },
        "returns": {
          "_tokenURI": "TokenURI of the passed tokenId."
        }
      },
      "getAllowlistOwner()": {
        "details": "Return the allowlistOwner.",
        "notice": "Callable by anyone.",
        "returns": {
          "_0": "address of allowlistOwner."
        }
      },
      "getExpiryDate(uint256)": {
        "details": "Returns the expiry date of `tokenId`.",
        "notice": "Callable by anyone.",
        "params": {
          "tokenId": "Token to get its expiry."
        },
        "returns": {
          "_0": "time of expiry."
        }
      },
      "getIndividualTokenPrice()": {
        "details": "Return the price of one token, set by the deployer.",
        "notice": "Callable by anyone.",
        "returns": {
          "_tokenPrice": "Price of a single token."
        }
      },
      "getPriceLimit()": {
        "details": "Return the highest possible price for a token.",
        "notice": "Callable by anyone.",
        "returns": {
          "_priceLimit": "Highest possible price."
        }
      },
      "getTimeLeft(uint256)": {
        "details": "Returns the time left for a token to expire.",
        "notice": "Callable by anyone.",
        "params": {
          "tokenId": "Token to get its expiry."
        },
        "returns": {
          "_0": "time left till expiry."
        }
      },
      "isMinted(address,uint256)": {
        "details": "Returns true if token `_tokenId` was minted from this contract to `_to`.       `_to` must not be a 0 address.       `_tokenId` must be an existent token.",
        "notice": "Callable by anyone.",
        "params": {
          "_to": "Address to which token `_tokenId` is minted.",
          "_tokenId": "Token minted."
        },
        "returns": {
          "_0": "bool true or false."
        }
      },
      "isValid(uint256)": {
        "details": "Return true if the token is expired or false if otherwise.",
        "notice": "Callable by anyone.",
        "params": {
          "tokenId": "Token to check if expired."
        },
        "returns": {
          "_0": "bool true or false."
        }
      },
      "issueWithSignature(address,bytes32,bytes,uint256,string)": {
        "details": "Mints a particular quantity of tokens to `to`,       on the condition that the address has been       signed by the allowlistOwner off-chain.       This will emit the {MintSoulboundToken} event       from the Soulbound.sol.",
        "notice": "Callable by anyone.",
        "params": {
          "addr": "Address to mint tokens to.",
          "hash": "Hashed message by the allowlistOwner.",
          "sig": "Signature, signed by the allowlistOwner.",
          "tokenId": "Id of the tokens to mint to the `addr`.",
          "tokenURI": "URI of the token to be minted."
        }
      },
      "issuerOf(address,uint256)": {
        "details": "Since a token cannnot be minted twice.       This function returns the address that minted token `_tokenId` to `_to`,       otherwise this contract.       `_to` must not be a 0 address.       `_tokenId` must be an existent token.       Owner of _tokenId must be _to.",
        "notice": "Callable by anyone.",
        "params": {
          "_to": "Address to which token `_tokenId` is minted.",
          "_tokenId": "Token minted."
        },
        "returns": {
          "_0": "address of issuer."
        }
      },
      "mintPendingRedeemableToken(address,address,uint256,uint256)": {
        "details": "Mints a pending soulbound token to `to`.       Pending tokens are minted and the receiver pays       to receive and completely mint them.",
        "notice": "Callable by the deployer of this contract [DaccredDeployer]           and the allowlistOwner.",
        "params": {
          "_tokenExpiryDate": "Set expiry date from the deployer.",
          "from": "Allowlist owner.",
          "to": "Receiver.",
          "tokenId": "Id of token to be minted."
        }
      },
      "owner()": {
        "details": "Returns the address of the current owner."
      },
      "ownerIssueWithSignature(address,bytes32,bytes,uint256,string)": {
        "details": "Ref SoulboundCore.sol issueWithSignature       This function grants the access to only the       deployer of the contract, unlike the core       that allows the function for anyone who has a       signature signed by the allowlistOwner.       This contract can be called by the deployer of the       contract [DaccredDeployer] but is also protected       as to the allowlistOwner must be the signer of the `sig.`",
        "notice": "Callable by the deployer of this contract [DaccredDeployer].",
        "params": {
          "addr": "Address to be minted to.",
          "hash": "Hash of message signed.",
          "sig": "Signature.",
          "tokenId": "TokenId to be issued.",
          "tokenURI": "URI of token to be issued."
        }
      },
      "ownerOf(uint256)": {
        "details": "ABTs assigned to zero address are considered invalid, and queries  about them do throw.",
        "notice": "Find the address bound to an ERC4973 account-bound token",
        "params": {
          "tokenId": "The identifier for an ABT"
        },
        "returns": {
          "_0": "The address of the owner bound to the ABT"
        }
      },
      "ownerRevokeWithSignature(bytes32,bytes,uint256)": {
        "details": "Ref SoulboundCore.sol revokeWithSignature       This function grants the access to only the       deployer of the contract, unlike the core       that allows the function for anyone who has a       signature signed by the allowlistOwner.       This contract can be called by the deployer of the       contract [DaccredDeployer] but is also protected       as to the allowlistOwner must be the signer of the `sig.`",
        "notice": "Callable by the deployer of this contract [DaccredDeployer].",
        "params": {
          "hash": "Hash of message signed.",
          "sig": "Signature.",
          "tokenId": "TokenId to be issued."
        }
      },
      "payToReceiveToken(address,uint256)": {
        "details": "Allows the `_receiver` to pay the price of one token to       fully mint the pending token.",
        "notice": "Callable by the deployer of this contract [DaccredDeployer].",
        "params": {
          "_receiver": "Receiver of the token.",
          "tokenId": "Pending tokenId for the receiver."
        }
      },
      "redeemMintedToken(address,uint256,uint256)": {
        "details": "For expired minted tokens, this function redeems them and makes       valid for another period of time.       Tokens must be expired for it to be redeemed.       Emits the {Redeemed} event.",
        "notice": "Callable by the deployer of this contract [DaccredDeployer].",
        "params": {
          "_receiver": "Receiver of the token.",
          "_tokenExpiryDate": "New expiry date for tokens.",
          "tokenId": "Pending tokenId for the receiver."
        }
      },
      "redeemMintedTokenWithSignature(address,address,uint256,uint256,bytes32,bytes)": {
        "details": "Allows the allowlistOwner to redeem an expired minted       token on behalf of the tokenOwner.",
        "notice": "Callable by the deployer of this contract [DaccredDeployer]           and the allowlistOwner.",
        "params": {
          "_caller": "Allowlist owner.",
          "_receiver": "Address of receiver.",
          "_tokenExpiryDate": "Days to extend the token.",
          "hash": "Hash of message.",
          "sig": "Signature.",
          "tokenId": "TokenId."
        }
      },
      "redeemPendingToken(address,uint256,uint256)": {
        "details": "For expired pending tokens, this function redeems them and makes       valid for another period of time.       Tokens must be expired for it to be redeemed.       Emits the {Redeemed} event.",
        "notice": "Callable by the deployer of this contract [DaccredDeployer].",
        "params": {
          "_receiver": "Receiver of the token.",
          "_tokenExpiryDate": "New expiry date for tokens.",
          "tokenId": "Pending tokenId for the receiver."
        }
      },
      "redeemPendingTokenWithSignature(address,address,uint256,uint256,bytes32,bytes)": {
        "details": "Allows the allowlistOwner to redeem an expired pending       token on behalf of the tokenOwner.",
        "notice": "Callable by the deployer of this contract [DaccredDeployer]           and the allowlistOwner.",
        "params": {
          "_caller": "Allowlist owner.",
          "_receiver": "Address of receiver.",
          "_tokenExpiryDate": "Days to extend the token.",
          "hash": "Hash of message.",
          "sig": "Signature.",
          "tokenId": "TokenId."
        }
      },
      "renounceOwnership()": {
        "details": "Leaves the contract without owner. It will not be possible to call `onlyOwner` functions anymore. Can only be called by the current owner. NOTE: Renouncing ownership will leave the contract without an owner, thereby removing any functionality that is only available to the owner."
      },
      "revokeWithSignature(bytes32,bytes,uint256)": {
        "details": "Revokes the ownership of `tokenId` from the owner.       The token must exist and the signature must be signed the       allowlistOwner.       This emits the {RevokeWithSignature} event.",
        "notice": "Callable by anyone.",
        "params": {
          "hash": "Hashed message by the allowlistOwner.",
          "sig": "Signature, signed by the allowlistOwner.",
          "tokenId": "Id of the token to revoke."
        }
      },
      "setBaseURI(address,string)": {
        "details": "Allows the `caller` (allowlistOwner) to set the baseURI.       This is really important when the caller wants to mint       Multiple tokens with the same base URI.",
        "notice": "Callable by the deployer of this contract [DaccredDeployer]           and the allowlistOwner."
      },
      "setPrice(address,uint256)": {
        "details": "Allows `caller` to set `_price` as price of one token.",
        "notice": "Callable by the deployer of this contract [DaccredDeployer]           and the allowlistOwner.",
        "params": {
          "_price": "New price.",
          "caller": "AllowlistOwner."
        }
      },
      "supportsInterface(bytes4)": {
        "details": "See {IERC165-supportsInterface}."
      },
      "transferOwnership(address)": {
        "details": "Transfers ownership of the contract to a new account (`newOwner`). Can only be called by the current owner."
      },
      "verifySignature(bytes32,bytes)": {
        "details": "Returns true if the signer of signature `sig` is the `allowlistOwner`.       And false if otherwise.",
        "notice": "Callable by anyone.",
        "returns": {
          "_0": "bool true or false."
        }
      },
      "verifySigner(address,bytes32,bytes)": {
        "details": "Returns true if the signer of `_signature` is `_signer`.",
        "notice": "Callable by anyone.",
        "returns": {
          "_0": "bool true or false."
        }
      },
      "withdraw(address)": {
        "details": "Allows the allowlistowner to withdraw his funds to his wallet.",
        "notice": "Callable by the deployer of this contract [DaccredDeployer]           and the allowlistOwner.",
        "params": {
          "_caller": "Address of allowlistowner."
        }
      }
    },
    "stateVariables": {
      "locked": {
        "details": "ReEntrancy Lock."
      },
      "pending": {
        "details": "Pending token receivals."
      },
      "pendingReceivers": {
        "details": "Pending address to receive tokens."
      },
      "priceLimit": {
        "details": "Price Limit [in eth] set by deploying contract."
      },
      "tax": {
        "details": "Tax for token redemptions.         15 represents 1.5% of total sales."
      },
      "tokenPrice": {
        "details": "Price of individual tokens, set by deployer."
      },
      "totalRevenue": {
        "details": "Total revenue from sales."
      },
      "totalSales": {
        "details": "Total sales of tokens [Total tokens paid for]."
      }
    },
    "title": "Soulbound Redeemable.",
    "version": 1
  },
  "opcodes": "PUSH1 0x80 PUSH1 0x40 MSTORE PUSH1 0x4 CALLDATASIZE LT PUSH2 0x1FA JUMPI PUSH1 0x0 CALLDATALOAD PUSH1 0xE0 SHR DUP1 PUSH4 0x95D89B41 GT PUSH2 0x10C JUMPI DUP1 PUSH4 0xDACA6F78 GT PUSH2 0x9A JUMPI DUP1 PUSH4 0xED734730 GT PUSH2 0x6C JUMPI DUP1 PUSH4 0xED734730 EQ PUSH2 0x5EF JUMPI DUP1 PUSH4 0xF2FDE38B EQ PUSH2 0x602 JUMPI DUP1 PUSH4 0xF577A500 EQ PUSH2 0x622 JUMPI DUP1 PUSH4 0xFAD54DE7 EQ PUSH2 0x652 JUMPI DUP1 PUSH4 0xFB8F198D EQ PUSH2 0x667 JUMPI STOP JUMPDEST DUP1 PUSH4 0xDACA6F78 EQ PUSH2 0x56F JUMPI DUP1 PUSH4 0xE8C58763 EQ PUSH2 0x58F JUMPI DUP1 PUSH4 0xE92B0842 EQ PUSH2 0x5AF JUMPI DUP1 PUSH4 0xEA5353C7 EQ PUSH2 0x5CF JUMPI STOP JUMPDEST DUP1 PUSH4 0xBD97A6AD GT PUSH2 0xDE JUMPI DUP1 PUSH4 0xBD97A6AD EQ PUSH2 0x4DA JUMPI DUP1 PUSH4 0xC3CAB38A EQ PUSH2 0x4FA JUMPI DUP1 PUSH4 0xC87B56DD EQ PUSH2 0x51A JUMPI DUP1 PUSH4 0xC9DD94C7 EQ PUSH2 0x53A JUMPI DUP1 PUSH4 0xC9E4C54D EQ PUSH2 0x54F JUMPI STOP JUMPDEST DUP1 PUSH4 0x95D89B41 EQ PUSH2 0x48A JUMPI DUP1 PUSH4 0x983A8B94 EQ PUSH2 0x49F JUMPI DUP1 PUSH4 0xA0B97DAA EQ PUSH2 0x4B2 JUMPI DUP1 PUSH4 0xBD131786 EQ PUSH2 0x4C7 JUMPI STOP JUMPDEST DUP1 PUSH4 0x51CFF8D9 GT PUSH2 0x189 JUMPI DUP1 PUSH4 0x6E0A8746 GT PUSH2 0x15B JUMPI DUP1 PUSH4 0x6E0A8746 EQ PUSH2 0x3F9 JUMPI DUP1 PUSH4 0x70A08231 EQ PUSH2 0x417 JUMPI DUP1 PUSH4 0x715018A6 EQ PUSH2 0x437 JUMPI DUP1 PUSH4 0x88433651 EQ PUSH2 0x44C JUMPI DUP1 PUSH4 0x8DA5CB5B EQ PUSH2 0x46C JUMPI STOP JUMPDEST DUP1 PUSH4 0x51CFF8D9 EQ PUSH2 0x320 JUMPI DUP1 PUSH4 0x5899E7B2 EQ PUSH2 0x340 JUMPI DUP1 PUSH4 0x6352211E EQ PUSH2 0x386 JUMPI DUP1 PUSH4 0x6833F200 EQ PUSH2 0x3BE JUMPI STOP JUMPDEST DUP1 PUSH4 0x1F04D135 GT PUSH2 0x1CD JUMPI DUP1 PUSH4 0x1F04D135 EQ PUSH2 0x29A JUMPI DUP1 PUSH4 0x210FA96B EQ PUSH2 0x2BA JUMPI DUP1 PUSH4 0x33E085C1 EQ PUSH2 0x2DA JUMPI DUP1 PUSH4 0x3D1A350E EQ PUSH2 0x2ED JUMPI DUP1 PUSH4 0x42966C68 EQ PUSH2 0x300 JUMPI STOP JUMPDEST DUP1 PUSH3 0xE4768B EQ PUSH2 0x203 JUMPI DUP1 PUSH4 0x1FFC9A7 EQ PUSH2 0x223 JUMPI DUP1 PUSH4 0x6FDDE03 EQ PUSH2 0x258 JUMPI DUP1 PUSH4 0x8C92E57 EQ PUSH2 0x27A JUMPI STOP JUMPDEST CALLDATASIZE PUSH2 0x201 JUMPI STOP JUMPDEST STOP JUMPDEST CALLVALUE DUP1 ISZERO PUSH2 0x20F JUMPI PUSH1 0x0 DUP1 REVERT JUMPDEST POP PUSH2 0x201 PUSH2 0x21E CALLDATASIZE PUSH1 0x4 PUSH2 0x2719 JUMP JUMPDEST PUSH2 0x687 JUMP JUMPDEST CALLVALUE DUP1 ISZERO PUSH2 0x22F JUMPI PUSH1 0x0 DUP1 REVERT JUMPDEST POP PUSH2 0x243 PUSH2 0x23E CALLDATASIZE PUSH1 0x4 PUSH2 0x2743 JUMP JUMPDEST PUSH2 0x756 JUMP JUMPDEST PUSH1 0x40 MLOAD SWAP1 ISZERO ISZERO DUP2 MSTORE PUSH1 0x20 ADD JUMPDEST PUSH1 0x40 MLOAD DUP1 SWAP2 SUB SWAP1 RETURN JUMPDEST CALLVALUE DUP1 ISZERO PUSH2 0x264 JUMPI PUSH1 0x0 DUP1 REVERT JUMPDEST POP PUSH2 0x26D PUSH2 0x7A8 JUMP JUMPDEST PUSH1 0x40 MLOAD PUSH2 0x24F SWAP2 SWAP1 PUSH2 0x279D JUMP JUMPDEST CALLVALUE DUP1 ISZERO PUSH2 0x286 JUMPI PUSH1 0x0 DUP1 REVERT JUMPDEST POP PUSH2 0x201 PUSH2 0x295 CALLDATASIZE PUSH1 0x4 PUSH2 0x2873 JUMP JUMPDEST PUSH2 0x83A JUMP JUMPDEST CALLVALUE DUP1 ISZERO PUSH2 0x2A6 JUMPI PUSH1 0x0 DUP1 REVERT JUMPDEST POP PUSH2 0x201 PUSH2 0x2B5 CALLDATASIZE PUSH1 0x4 PUSH2 0x2873 JUMP JUMPDEST PUSH2 0x970 JUMP JUMPDEST CALLVALUE DUP1 ISZERO PUSH2 0x2C6 JUMPI PUSH1 0x0 DUP1 REVERT JUMPDEST POP PUSH2 0x26D PUSH2 0x2D5 CALLDATASIZE PUSH1 0x4 PUSH2 0x28C3 JUMP JUMPDEST PUSH2 0xA0C JUMP JUMPDEST PUSH2 0x201 PUSH2 0x2E8 CALLDATASIZE PUSH1 0x4 PUSH2 0x2719 JUMP JUMPDEST PUSH2 0xA8E JUMP JUMPDEST PUSH2 0x201 PUSH2 0x2FB CALLDATASIZE PUSH1 0x4 PUSH2 0x28DC JUMP JUMPDEST PUSH2 0xDA6 JUMP JUMPDEST CALLVALUE DUP1 ISZERO PUSH2 0x30C JUMPI PUSH1 0x0 DUP1 REVERT JUMPDEST POP PUSH2 0x201 PUSH2 0x31B CALLDATASIZE PUSH1 0x4 PUSH2 0x28C3 JUMP JUMPDEST PUSH2 0x1098 JUMP JUMPDEST CALLVALUE DUP1 ISZERO PUSH2 0x32C JUMPI PUSH1 0x0 DUP1 REVERT JUMPDEST POP PUSH2 0x201 PUSH2 0x33B CALLDATASIZE PUSH1 0x4 PUSH2 0x290F JUMP JUMPDEST PUSH2 0x110D JUMP JUMPDEST CALLVALUE DUP1 ISZERO PUSH2 0x34C JUMPI PUSH1 0x0 DUP1 REVERT JUMPDEST POP PUSH2 0x243 PUSH2 0x35B CALLDATASIZE PUSH1 0x4 PUSH2 0x2719 JUMP JUMPDEST PUSH1 0x1 PUSH1 0x1 PUSH1 0xA0 SHL SUB SWAP2 SWAP1 SWAP2 AND PUSH1 0x0 SWAP1 DUP2 MSTORE PUSH1 0x8 PUSH1 0x20 SWAP1 DUP2 MSTORE PUSH1 0x40 DUP1 DUP4 KECCAK256 SWAP4 DUP4 MSTORE SWAP3 SWAP1 MSTORE KECCAK256 SLOAD PUSH1 0xFF AND SWAP1 JUMP JUMPDEST CALLVALUE DUP1 ISZERO PUSH2 0x392 JUMPI PUSH1 0x0 DUP1 REVERT JUMPDEST POP PUSH2 0x3A6 PUSH2 0x3A1 CALLDATASIZE PUSH1 0x4 PUSH2 0x28C3 JUMP JUMPDEST PUSH2 0x1263 JUMP JUMPDEST PUSH1 0x40 MLOAD PUSH1 0x1 PUSH1 0x1 PUSH1 0xA0 SHL SUB SWAP1 SWAP2 AND DUP2 MSTORE PUSH1 0x20 ADD PUSH2 0x24F JUMP JUMPDEST CALLVALUE DUP1 ISZERO PUSH2 0x3CA JUMPI PUSH1 0x0 DUP1 REVERT JUMPDEST POP PUSH2 0x3EB PUSH2 0x3D9 CALLDATASIZE PUSH1 0x4 PUSH2 0x28C3 JUMP JUMPDEST PUSH1 0x0 SWAP1 DUP2 MSTORE PUSH1 0x20 DUP2 SWAP1 MSTORE PUSH1 0x40 SWAP1 KECCAK256 SLOAD SWAP1 JUMP JUMPDEST PUSH1 0x40 MLOAD SWAP1 DUP2 MSTORE PUSH1 0x20 ADD PUSH2 0x24F JUMP JUMPDEST CALLVALUE DUP1 ISZERO PUSH2 0x405 JUMPI PUSH1 0x0 DUP1 REVERT JUMPDEST POP PUSH1 0x9 SLOAD PUSH1 0x1 PUSH1 0x1 PUSH1 0xA0 SHL SUB AND PUSH2 0x3A6 JUMP JUMPDEST CALLVALUE DUP1 ISZERO PUSH2 0x423 JUMPI PUSH1 0x0 DUP1 REVERT JUMPDEST POP PUSH2 0x3EB PUSH2 0x432 CALLDATASIZE PUSH1 0x4 PUSH2 0x290F JUMP JUMPDEST PUSH2 0x12C8 JUMP JUMPDEST CALLVALUE DUP1 ISZERO PUSH2 0x443 JUMPI PUSH1 0x0 DUP1 REVERT JUMPDEST POP PUSH2 0x201 PUSH2 0x1351 JUMP JUMPDEST CALLVALUE DUP1 ISZERO PUSH2 0x458 JUMPI PUSH1 0x0 DUP1 REVERT JUMPDEST POP PUSH2 0x201 PUSH2 0x467 CALLDATASIZE PUSH1 0x4 PUSH2 0x292A JUMP JUMPDEST PUSH2 0x1387 JUMP JUMPDEST CALLVALUE DUP1 ISZERO PUSH2 0x478 JUMPI PUSH1 0x0 DUP1 REVERT JUMPDEST POP PUSH1 0x6 SLOAD PUSH1 0x1 PUSH1 0x1 PUSH1 0xA0 SHL SUB AND PUSH2 0x3A6 JUMP JUMPDEST CALLVALUE DUP1 ISZERO PUSH2 0x496 JUMPI PUSH1 0x0 DUP1 REVERT JUMPDEST POP PUSH2 0x26D PUSH2 0x13FD JUMP JUMPDEST PUSH2 0x201 PUSH2 0x4AD CALLDATASIZE PUSH1 0x4 PUSH2 0x2978 JUMP JUMPDEST PUSH2 0x140C JUMP JUMPDEST CALLVALUE DUP1 ISZERO PUSH2 0x4BE JUMPI PUSH1 0x0 DUP1 REVERT JUMPDEST POP PUSH1 0xE SLOAD PUSH2 0x3EB JUMP JUMPDEST PUSH2 0x201 PUSH2 0x4D5 CALLDATASIZE PUSH1 0x4 PUSH2 0x2978 JUMP JUMPDEST PUSH2 0x1504 JUMP JUMPDEST CALLVALUE DUP1 ISZERO PUSH2 0x4E6 JUMPI PUSH1 0x0 DUP1 REVERT JUMPDEST POP PUSH2 0x201 PUSH2 0x4F5 CALLDATASIZE PUSH1 0x4 PUSH2 0x29F2 JUMP JUMPDEST PUSH2 0x15E9 JUMP JUMPDEST CALLVALUE DUP1 ISZERO PUSH2 0x506 JUMPI PUSH1 0x0 DUP1 REVERT JUMPDEST POP PUSH2 0x201 PUSH2 0x515 CALLDATASIZE PUSH1 0x4 PUSH2 0x2A34 JUMP JUMPDEST PUSH2 0x17DD JUMP JUMPDEST CALLVALUE DUP1 ISZERO PUSH2 0x526 JUMPI PUSH1 0x0 DUP1 REVERT JUMPDEST POP PUSH2 0x26D PUSH2 0x535 CALLDATASIZE PUSH1 0x4 PUSH2 0x28C3 JUMP JUMPDEST PUSH2 0x1835 JUMP JUMPDEST CALLVALUE DUP1 ISZERO PUSH2 0x546 JUMPI PUSH1 0x0 DUP1 REVERT JUMPDEST POP PUSH2 0x26D PUSH2 0x192A JUMP JUMPDEST CALLVALUE DUP1 ISZERO PUSH2 0x55B JUMPI PUSH1 0x0 DUP1 REVERT JUMPDEST POP PUSH2 0x201 PUSH2 0x56A CALLDATASIZE PUSH1 0x4 PUSH2 0x2A56 JUMP JUMPDEST PUSH2 0x1987 JUMP JUMPDEST CALLVALUE DUP1 ISZERO PUSH2 0x57B JUMPI PUSH1 0x0 DUP1 REVERT JUMPDEST POP PUSH2 0x243 PUSH2 0x58A CALLDATASIZE PUSH1 0x4 PUSH2 0x2ADE JUMP JUMPDEST PUSH2 0x1A94 JUMP JUMPDEST CALLVALUE DUP1 ISZERO PUSH2 0x59B JUMPI PUSH1 0x0 DUP1 REVERT JUMPDEST POP PUSH2 0x3EB PUSH2 0x5AA CALLDATASIZE PUSH1 0x4 PUSH2 0x28C3 JUMP JUMPDEST PUSH2 0x1AA7 JUMP JUMPDEST CALLVALUE DUP1 ISZERO PUSH2 0x5BB JUMPI PUSH1 0x0 DUP1 REVERT JUMPDEST POP PUSH2 0x243 PUSH2 0x5CA CALLDATASIZE PUSH1 0x4 PUSH2 0x2B0F JUMP JUMPDEST PUSH2 0x1AE4 JUMP JUMPDEST CALLVALUE DUP1 ISZERO PUSH2 0x5DB JUMPI PUSH1 0x0 DUP1 REVERT JUMPDEST POP PUSH2 0x201 PUSH2 0x5EA CALLDATASIZE PUSH1 0x4 PUSH2 0x2A56 JUMP JUMPDEST PUSH2 0x1B78 JUMP JUMPDEST PUSH2 0x201 PUSH2 0x5FD CALLDATASIZE PUSH1 0x4 PUSH2 0x28DC JUMP JUMPDEST PUSH2 0x1BF7 JUMP JUMPDEST CALLVALUE DUP1 ISZERO PUSH2 0x60E JUMPI PUSH1 0x0 DUP1 REVERT JUMPDEST POP PUSH2 0x201 PUSH2 0x61D CALLDATASIZE PUSH1 0x4 PUSH2 0x290F JUMP JUMPDEST PUSH2 0x1DA3 JUMP JUMPDEST CALLVALUE DUP1 ISZERO PUSH2 0x62E JUMPI PUSH1 0x0 DUP1 REVERT JUMPDEST POP PUSH2 0x243 PUSH2 0x63D CALLDATASIZE PUSH1 0x4 PUSH2 0x28C3 JUMP JUMPDEST PUSH1 0x0 SWAP1 DUP2 MSTORE PUSH1 0x20 DUP2 SWAP1 MSTORE PUSH1 0x40 SWAP1 KECCAK256 SLOAD TIMESTAMP GT ISZERO SWAP1 JUMP JUMPDEST CALLVALUE DUP1 ISZERO PUSH2 0x65E JUMPI PUSH1 0x0 DUP1 REVERT JUMPDEST POP PUSH1 0xF SLOAD PUSH2 0x3EB JUMP JUMPDEST CALLVALUE DUP1 ISZERO PUSH2 0x673 JUMPI PUSH1 0x0 DUP1 REVERT JUMPDEST POP PUSH2 0x3A6 PUSH2 0x682 CALLDATASIZE PUSH1 0x4 PUSH2 0x2719 JUMP JUMPDEST PUSH2 0x1E3B JUMP JUMPDEST PUSH1 0x6 SLOAD PUSH1 0x1 PUSH1 0x1 PUSH1 0xA0 SHL SUB AND CALLER EQ PUSH2 0x6BA JUMPI PUSH1 0x40 MLOAD PUSH3 0x461BCD PUSH1 0xE5 SHL DUP2 MSTORE PUSH1 0x4 ADD PUSH2 0x6B1 SWAP1 PUSH2 0x2B66 JUMP JUMPDEST PUSH1 0x40 MLOAD DUP1 SWAP2 SUB SWAP1 REVERT JUMPDEST DUP2 PUSH2 0x6CD PUSH1 0x9 SLOAD PUSH1 0x1 PUSH1 0x1 PUSH1 0xA0 SHL SUB AND SWAP1 JUMP JUMPDEST PUSH1 0x1 PUSH1 0x1 PUSH1 0xA0 SHL SUB AND DUP2 PUSH1 0x1 PUSH1 0x1 PUSH1 0xA0 SHL SUB AND EQ PUSH2 0x6FD JUMPI PUSH1 0x40 MLOAD PUSH3 0x461BCD PUSH1 0xE5 SHL DUP2 MSTORE PUSH1 0x4 ADD PUSH2 0x6B1 SWAP1 PUSH2 0x2B9B JUMP JUMPDEST PUSH1 0xE SLOAD DUP3 GT ISZERO PUSH2 0x74F JUMPI PUSH1 0x40 MLOAD PUSH3 0x461BCD PUSH1 0xE5 SHL DUP2 MSTORE PUSH1 0x20 PUSH1 0x4 DUP3 ADD MSTORE PUSH1 0x18 PUSH1 0x24 DUP3 ADD MSTORE PUSH32 0x507269636520686967686572207468616E206C696D69742E0000000000000000 PUSH1 0x44 DUP3 ADD MSTORE PUSH1 0x64 ADD PUSH2 0x6B1 JUMP JUMPDEST POP PUSH1 0xF SSTORE POP JUMP JUMPDEST PUSH1 0x0 PUSH1 0x1 PUSH1 0x1 PUSH1 0xE0 SHL SUB NOT DUP3 AND PUSH4 0x5B5E139F PUSH1 0xE0 SHL EQ DUP1 PUSH2 0x787 JUMPI POP PUSH1 0x1 PUSH1 0x1 PUSH1 0xE0 SHL SUB NOT DUP3 AND PUSH4 0x5164CF47 PUSH1 0xE0 SHL EQ JUMPDEST DUP1 PUSH2 0x7A2 JUMPI POP PUSH4 0x1FFC9A7 PUSH1 0xE0 SHL PUSH1 0x1 PUSH1 0x1 PUSH1 0xE0 SHL SUB NOT DUP4 AND EQ JUMPDEST SWAP3 SWAP2 POP POP JUMP JUMPDEST PUSH1 0x60 PUSH1 0x1 DUP1 SLOAD PUSH2 0x7B7 SWAP1 PUSH2 0x2BC9 JUMP JUMPDEST DUP1 PUSH1 0x1F ADD PUSH1 0x20 DUP1 SWAP2 DIV MUL PUSH1 0x20 ADD PUSH1 0x40 MLOAD SWAP1 DUP2 ADD PUSH1 0x40 MSTORE DUP1 SWAP3 SWAP2 SWAP1 DUP2 DUP2 MSTORE PUSH1 0x20 ADD DUP3 DUP1 SLOAD PUSH2 0x7E3 SWAP1 PUSH2 0x2BC9 JUMP JUMPDEST DUP1 ISZERO PUSH2 0x830 JUMPI DUP1 PUSH1 0x1F LT PUSH2 0x805 JUMPI PUSH2 0x100 DUP1 DUP4 SLOAD DIV MUL DUP4 MSTORE SWAP2 PUSH1 0x20 ADD SWAP2 PUSH2 0x830 JUMP JUMPDEST DUP3 ADD SWAP2 SWAP1 PUSH1 0x0 MSTORE PUSH1 0x20 PUSH1 0x0 KECCAK256 SWAP1 JUMPDEST DUP2 SLOAD DUP2 MSTORE SWAP1 PUSH1 0x1 ADD SWAP1 PUSH1 0x20 ADD DUP1 DUP4 GT PUSH2 0x813 JUMPI DUP3 SWAP1 SUB PUSH1 0x1F AND DUP3 ADD SWAP2 JUMPDEST POP POP POP POP POP SWAP1 POP SWAP1 JUMP JUMPDEST PUSH2 0x843 DUP2 PUSH2 0x1F4F JUMP JUMPDEST PUSH2 0x88F JUMPI PUSH1 0x40 MLOAD PUSH3 0x461BCD PUSH1 0xE5 SHL DUP2 MSTORE PUSH1 0x20 PUSH1 0x4 DUP3 ADD MSTORE PUSH1 0x1B PUSH1 0x24 DUP3 ADD MSTORE PUSH32 0x5265766F6B65206F6620696E6578697374656E7420746F6B656E2E0000000000 PUSH1 0x44 DUP3 ADD MSTORE PUSH1 0x64 ADD PUSH2 0x6B1 JUMP JUMPDEST DUP2 MLOAD PUSH1 0x41 EQ PUSH2 0x8DB JUMPI PUSH1 0x40 MLOAD PUSH3 0x461BCD PUSH1 0xE5 SHL DUP2 MSTORE PUSH1 0x20 PUSH1 0x4 DUP3 ADD MSTORE PUSH1 0x18 PUSH1 0x24 DUP3 ADD MSTORE PUSH24 0x92DCECC2D8D2C840E6D2CEDCC2E8EAE4CA40D8CADCCEE8D PUSH1 0x43 SHL PUSH1 0x44 DUP3 ADD MSTORE PUSH1 0x64 ADD PUSH2 0x6B1 JUMP JUMPDEST PUSH2 0x8E5 DUP4 DUP4 PUSH2 0x1A94 JUMP JUMPDEST PUSH2 0x92D JUMPI PUSH1 0x40 MLOAD PUSH3 0x461BCD PUSH1 0xE5 SHL DUP2 MSTORE PUSH1 0x20 PUSH1 0x4 DUP3 ADD MSTORE PUSH1 0x19 PUSH1 0x24 DUP3 ADD MSTORE PUSH25 0x2430B9B4103737BA1039B4B3B732B210313C9037BBB732B917 PUSH1 0x39 SHL PUSH1 0x44 DUP3 ADD MSTORE PUSH1 0x64 ADD PUSH2 0x6B1 JUMP JUMPDEST PUSH2 0x93F PUSH2 0x939 DUP3 PUSH2 0x1263 JUMP JUMPDEST DUP3 PUSH2 0x1F6C JUMP JUMPDEST POP PUSH1 0x40 MLOAD DUP2 SWAP1 PUSH32 0xF947BF2266AFEDE98F27AD2312DB8B2A17921852307F979B6F14A2B41FA774BC SWAP1 PUSH1 0x0 SWAP1 LOG2 POP POP POP JUMP JUMPDEST PUSH1 0x6 SLOAD PUSH1 0x1 PUSH1 0x1 PUSH1 0xA0 SHL SUB AND CALLER EQ PUSH2 0x99A JUMPI PUSH1 0x40 MLOAD PUSH3 0x461BCD PUSH1 0xE5 SHL DUP2 MSTORE PUSH1 0x4 ADD PUSH2 0x6B1 SWAP1 PUSH2 0x2B66 JUMP JUMPDEST PUSH1 0xB SLOAD ISZERO PUSH2 0x9BC JUMPI PUSH1 0xB DUP1 SLOAD SWAP1 PUSH1 0x0 PUSH2 0x9B2 DUP4 PUSH2 0x2C19 JUMP JUMPDEST SWAP2 SWAP1 POP SSTORE POP PUSH2 0x9FC JUMP JUMPDEST PUSH1 0x40 MLOAD PUSH3 0x461BCD PUSH1 0xE5 SHL DUP2 MSTORE PUSH1 0x20 PUSH1 0x4 DUP3 ADD MSTORE PUSH1 0x15 PUSH1 0x24 DUP3 ADD MSTORE PUSH21 0x2637BBB2B9BA103634B6B4BA103932B0B1B432B217 PUSH1 0x59 SHL PUSH1 0x44 DUP3 ADD MSTORE PUSH1 0x64 ADD PUSH2 0x6B1 JUMP JUMPDEST PUSH2 0xA07 DUP4 DUP4 DUP4 PUSH2 0x83A JUMP JUMPDEST POP POP POP JUMP JUMPDEST PUSH1 0x60 PUSH2 0xA16 PUSH2 0x192A JUMP JUMPDEST MLOAD PUSH1 0x0 SUB PUSH2 0xA56 JUMPI PUSH1 0x40 MLOAD PUSH3 0x461BCD PUSH1 0xE5 SHL DUP2 MSTORE PUSH1 0x20 PUSH1 0x4 DUP3 ADD MSTORE PUSH1 0xD PUSH1 0x24 DUP3 ADD MSTORE PUSH13 0x456D7074792062617365555249 PUSH1 0x98 SHL PUSH1 0x44 DUP3 ADD MSTORE PUSH1 0x64 ADD PUSH2 0x6B1 JUMP JUMPDEST PUSH2 0xA5E PUSH2 0x192A JUMP JUMPDEST PUSH2 0xA67 DUP4 PUSH2 0x2034 JUMP JUMPDEST PUSH1 0x40 MLOAD PUSH1 0x20 ADD PUSH2 0xA78 SWAP3 SWAP2 SWAP1 PUSH2 0x2C30 JUMP JUMPDEST PUSH1 0x40 MLOAD PUSH1 0x20 DUP2 DUP4 SUB SUB DUP2 MSTORE SWAP1 PUSH1 0x40 MSTORE SWAP1 POP SWAP2 SWAP1 POP JUMP JUMPDEST PUSH1 0x6 SLOAD PUSH1 0x1 PUSH1 0x1 PUSH1 0xA0 SHL SUB AND CALLER EQ PUSH2 0xAB8 JUMPI PUSH1 0x40 MLOAD PUSH3 0x461BCD PUSH1 0xE5 SHL DUP2 MSTORE PUSH1 0x4 ADD PUSH2 0x6B1 SWAP1 PUSH2 0x2B66 JUMP JUMPDEST PUSH1 0x13 SLOAD PUSH1 0xFF AND ISZERO PUSH2 0xAC8 JUMPI PUSH1 0x0 DUP1 REVERT JUMPDEST PUSH1 0x13 DUP1 SLOAD PUSH1 0xFF NOT AND PUSH1 0x1 OR SWAP1 SSTORE PUSH1 0x1 PUSH1 0x1 PUSH1 0xA0 SHL SUB DUP3 AND PUSH2 0xAFB JUMPI PUSH1 0x40 MLOAD PUSH3 0x461BCD PUSH1 0xE5 SHL DUP2 MSTORE PUSH1 0x4 ADD PUSH2 0x6B1 SWAP1 PUSH2 0x2C5F JUMP JUMPDEST PUSH2 0xB04 DUP2 PUSH2 0x1F4F JUMP JUMPDEST ISZERO PUSH2 0xB51 JUMPI PUSH1 0x40 MLOAD PUSH3 0x461BCD PUSH1 0xE5 SHL DUP2 MSTORE PUSH1 0x20 PUSH1 0x4 DUP3 ADD MSTORE PUSH1 0x1F PUSH1 0x24 DUP3 ADD MSTORE PUSH32 0x4D696E74206F6620616C7265616479206578697374696E6720746F6B656E2E00 PUSH1 0x44 DUP3 ADD MSTORE PUSH1 0x64 ADD PUSH2 0x6B1 JUMP JUMPDEST PUSH1 0x0 DUP2 DUP2 MSTORE PUSH1 0x10 PUSH1 0x20 MSTORE PUSH1 0x40 SWAP1 KECCAK256 SLOAD PUSH1 0xFF AND PUSH2 0xBA9 JUMPI PUSH1 0x40 MLOAD PUSH3 0x461BCD PUSH1 0xE5 SHL DUP2 MSTORE PUSH1 0x20 PUSH1 0x4 DUP3 ADD MSTORE PUSH1 0x17 PUSH1 0x24 DUP3 ADD MSTORE PUSH23 0x20B63932B0B23C903932B1B2B4BB32B2103A37B5B2B717 PUSH1 0x49 SHL PUSH1 0x44 DUP3 ADD MSTORE PUSH1 0x64 ADD PUSH2 0x6B1 JUMP JUMPDEST PUSH1 0x0 DUP2 DUP2 MSTORE PUSH1 0x11 PUSH1 0x20 MSTORE PUSH1 0x40 SWAP1 KECCAK256 SLOAD PUSH1 0x1 PUSH1 0x1 PUSH1 0xA0 SHL SUB DUP4 DUP2 AND SWAP2 AND EQ PUSH2 0xC0A JUMPI PUSH1 0x40 MLOAD PUSH3 0x461BCD PUSH1 0xE5 SHL DUP2 MSTORE PUSH1 0x20 PUSH1 0x4 DUP3 ADD MSTORE PUSH1 0x15 PUSH1 0x24 DUP3 ADD MSTORE PUSH21 0x2737BA103832B73234B733903932B1B2B4BB32B917 PUSH1 0x59 SHL PUSH1 0x44 DUP3 ADD MSTORE PUSH1 0x64 ADD PUSH2 0x6B1 JUMP JUMPDEST PUSH1 0x0 DUP2 DUP2 MSTORE PUSH1 0x20 DUP2 SWAP1 MSTORE PUSH1 0x40 SWAP1 KECCAK256 SLOAD TIMESTAMP GT ISZERO PUSH2 0xC79 JUMPI PUSH1 0x40 MLOAD PUSH3 0x461BCD PUSH1 0xE5 SHL DUP2 MSTORE PUSH1 0x20 PUSH1 0x4 DUP3 ADD MSTORE PUSH1 0x28 PUSH1 0x24 DUP3 ADD MSTORE PUSH32 0x526563656976616C206F66206578706972656420746F6B656E2C207265646565 PUSH1 0x44 DUP3 ADD MSTORE PUSH8 0x36903A37B5B2B717 PUSH1 0xC1 SHL PUSH1 0x64 DUP3 ADD MSTORE PUSH1 0x84 ADD PUSH2 0x6B1 JUMP JUMPDEST PUSH1 0xF SLOAD CALLVALUE LT ISZERO PUSH2 0xCCB JUMPI PUSH1 0x40 MLOAD PUSH3 0x461BCD PUSH1 0xE5 SHL DUP2 MSTORE PUSH1 0x20 PUSH1 0x4 DUP3 ADD MSTORE PUSH1 0x1C PUSH1 0x24 DUP3 ADD MSTORE PUSH32 0x5072696365206C6F776572207468616E20746F6B656E20636F73742E00000000 PUSH1 0x44 DUP3 ADD MSTORE PUSH1 0x64 ADD PUSH2 0x6B1 JUMP JUMPDEST PUSH1 0x0 PUSH1 0xF SLOAD CALLVALUE GT ISZERO PUSH2 0xD1F JUMPI PUSH1 0xF SLOAD PUSH2 0xCE4 SWAP1 CALLVALUE PUSH2 0x2C8E JUMP JUMPDEST PUSH1 0x40 MLOAD SWAP1 SWAP2 POP PUSH1 0x1 PUSH1 0x1 PUSH1 0xA0 SHL SUB DUP5 AND SWAP1 DUP3 ISZERO PUSH2 0x8FC MUL SWAP1 DUP4 SWAP1 PUSH1 0x0 DUP2 DUP2 DUP2 DUP6 DUP9 DUP9 CALL SWAP4 POP POP POP POP ISZERO DUP1 ISZERO PUSH2 0xD1D JUMPI RETURNDATASIZE PUSH1 0x0 DUP1 RETURNDATACOPY RETURNDATASIZE PUSH1 0x0 REVERT JUMPDEST POP JUMPDEST PUSH1 0x0 PUSH2 0xD2A DUP4 PUSH2 0xA0C JUMP JUMPDEST SWAP1 POP PUSH2 0xD37 DUP5 DUP5 DUP4 PUSH2 0x213D JUMP JUMPDEST POP PUSH1 0xC DUP1 SLOAD SWAP1 PUSH1 0x0 PUSH2 0xD48 DUP4 PUSH2 0x2CA5 JUMP JUMPDEST SWAP2 SWAP1 POP SSTORE POP PUSH1 0xF SLOAD PUSH1 0xD PUSH1 0x0 DUP3 DUP3 SLOAD PUSH2 0xD61 SWAP2 SWAP1 PUSH2 0x2CBE JUMP JUMPDEST SWAP1 SWAP2 SSTORE POP POP POP PUSH1 0x0 SWAP2 DUP3 MSTORE POP PUSH1 0x10 PUSH1 0x20 SWAP1 DUP2 MSTORE PUSH1 0x40 DUP1 DUP4 KECCAK256 DUP1 SLOAD PUSH1 0xFF NOT SWAP1 DUP2 AND SWAP1 SWAP2 SSTORE PUSH1 0x11 SWAP1 SWAP3 MSTORE SWAP1 SWAP2 KECCAK256 DUP1 SLOAD PUSH1 0x1 PUSH1 0x1 PUSH1 0xA0 SHL SUB NOT AND SWAP1 SSTORE PUSH1 0x13 DUP1 SLOAD SWAP1 SWAP2 AND SWAP1 SSTORE POP JUMP JUMPDEST PUSH1 0x6 SLOAD PUSH1 0x1 PUSH1 0x1 PUSH1 0xA0 SHL SUB AND CALLER EQ PUSH2 0xDD0 JUMPI PUSH1 0x40 MLOAD PUSH3 0x461BCD PUSH1 0xE5 SHL DUP2 MSTORE PUSH1 0x4 ADD PUSH2 0x6B1 SWAP1 PUSH2 0x2B66 JUMP JUMPDEST PUSH1 0x13 SLOAD PUSH1 0xFF AND ISZERO PUSH2 0xDE0 JUMPI PUSH1 0x0 DUP1 REVERT JUMPDEST PUSH1 0x13 DUP1 SLOAD PUSH1 0xFF NOT AND PUSH1 0x1 OR SWAP1 SSTORE PUSH1 0x1 PUSH1 0x1 PUSH1 0xA0 SHL SUB DUP4 AND PUSH2 0xE43 JUMPI PUSH1 0x40 MLOAD PUSH3 0x461BCD PUSH1 0xE5 SHL DUP2 MSTORE PUSH1 0x20 PUSH1 0x4 DUP3 ADD MSTORE PUSH1 0x1B PUSH1 0x24 DUP3 ADD MSTORE PUSH32 0x526564656D7074696F6E20746F207A65726F20616464726573732E0000000000 PUSH1 0x44 DUP3 ADD MSTORE PUSH1 0x64 ADD PUSH2 0x6B1 JUMP JUMPDEST PUSH2 0xE4C DUP3 PUSH2 0x1F4F JUMP JUMPDEST PUSH2 0xEA2 JUMPI PUSH1 0x40 MLOAD PUSH3 0x461BCD PUSH1 0xE5 SHL DUP2 MSTORE PUSH1 0x20 PUSH1 0x4 DUP3 ADD MSTORE PUSH1 0x21 PUSH1 0x24 DUP3 ADD MSTORE PUSH32 0x526564656D7074696F6E206F66206E6F6E2D6578697374696E6720746F6B656E PUSH1 0x44 DUP3 ADD MSTORE PUSH1 0x17 PUSH1 0xF9 SHL PUSH1 0x64 DUP3 ADD MSTORE PUSH1 0x84 ADD PUSH2 0x6B1 JUMP JUMPDEST PUSH1 0x0 DUP3 DUP2 MSTORE PUSH1 0x10 PUSH1 0x20 MSTORE PUSH1 0x40 SWAP1 KECCAK256 SLOAD PUSH1 0xFF AND ISZERO PUSH2 0xEF8 JUMPI PUSH1 0x40 MLOAD PUSH3 0x461BCD PUSH1 0xE5 SHL DUP2 MSTORE PUSH1 0x20 PUSH1 0x4 DUP3 ADD MSTORE PUSH1 0x14 PUSH1 0x24 DUP3 ADD MSTORE PUSH20 0x2A37B5B2B71039BA34B636103832B73234B73397 PUSH1 0x61 SHL PUSH1 0x44 DUP3 ADD MSTORE PUSH1 0x64 ADD PUSH2 0x6B1 JUMP JUMPDEST DUP3 PUSH1 0x1 PUSH1 0x1 PUSH1 0xA0 SHL SUB AND PUSH2 0xF0B DUP4 PUSH2 0x1263 JUMP JUMPDEST PUSH1 0x1 PUSH1 0x1 PUSH1 0xA0 SHL SUB AND EQ PUSH2 0xF54 JUMPI PUSH1 0x40 MLOAD PUSH3 0x461BCD PUSH1 0xE5 SHL DUP2 MSTORE PUSH1 0x20 PUSH1 0x4 DUP3 ADD MSTORE PUSH1 0x10 PUSH1 0x24 DUP3 ADD MSTORE PUSH16 0x2737BA103A37B5B2B71037BBB732B917 PUSH1 0x81 SHL PUSH1 0x44 DUP3 ADD MSTORE PUSH1 0x64 ADD PUSH2 0x6B1 JUMP JUMPDEST PUSH1 0x0 DUP3 DUP2 MSTORE PUSH1 0x20 DUP2 SWAP1 MSTORE PUSH1 0x40 SWAP1 KECCAK256 SLOAD TIMESTAMP GT PUSH2 0xFA4 JUMPI PUSH1 0x40 MLOAD PUSH3 0x461BCD PUSH1 0xE5 SHL DUP2 MSTORE PUSH1 0x20 PUSH1 0x4 DUP3 ADD MSTORE PUSH1 0x10 PUSH1 0x24 DUP3 ADD MSTORE PUSH16 0x2A37B5B2B7103AB732BC3834B932B217 PUSH1 0x81 SHL PUSH1 0x44 DUP3 ADD MSTORE PUSH1 0x64 ADD PUSH2 0x6B1 JUMP JUMPDEST PUSH1 0x0 PUSH2 0xFB1 PUSH1 0x12 SLOAD PUSH2 0x2154 JUMP JUMPDEST SWAP1 POP DUP1 CALLVALUE LT ISZERO PUSH2 0x1003 JUMPI PUSH1 0x40 MLOAD PUSH3 0x461BCD PUSH1 0xE5 SHL DUP2 MSTORE PUSH1 0x20 PUSH1 0x4 DUP3 ADD DUP2 SWAP1 MSTORE PUSH1 0x24 DUP3 ADD MSTORE PUSH32 0x5072696365206C6F776572207468616E20726564656D7074696F6E207461782E PUSH1 0x44 DUP3 ADD MSTORE PUSH1 0x64 ADD PUSH2 0x6B1 JUMP JUMPDEST PUSH1 0x0 DUP2 ISZERO PUSH2 0x1050 JUMPI PUSH2 0x1015 DUP3 CALLVALUE PUSH2 0x2C8E JUMP JUMPDEST PUSH1 0x40 MLOAD SWAP1 SWAP2 POP PUSH1 0x1 PUSH1 0x1 PUSH1 0xA0 SHL SUB DUP7 AND SWAP1 DUP3 ISZERO PUSH2 0x8FC MUL SWAP1 DUP4 SWAP1 PUSH1 0x0 DUP2 DUP2 DUP2 DUP6 DUP9 DUP9 CALL SWAP4 POP POP POP POP ISZERO DUP1 ISZERO PUSH2 0x104E JUMPI RETURNDATASIZE PUSH1 0x0 DUP1 RETURNDATACOPY RETURNDATASIZE PUSH1 0x0 REVERT JUMPDEST POP JUMPDEST PUSH2 0x105A DUP5 DUP5 PUSH2 0x17DD JUMP JUMPDEST PUSH1 0x40 MLOAD DUP4 SWAP1 DUP6 SWAP1 PUSH32 0x6F73B7B8D37DF32EA60A45EADC8FC3D2D716D705EE099BD506817482CE847316 SWAP1 PUSH1 0x0 SWAP1 LOG3 POP POP PUSH1 0x13 DUP1 SLOAD PUSH1 0xFF NOT AND SWAP1 SSTORE POP POP POP JUMP JUMPDEST PUSH2 0x10A1 DUP2 PUSH2 0x1263 JUMP JUMPDEST PUSH1 0x1 PUSH1 0x1 PUSH1 0xA0 SHL SUB AND CALLER PUSH1 0x1 PUSH1 0x1 PUSH1 0xA0 SHL SUB AND EQ PUSH2 0x1101 JUMPI PUSH1 0x40 MLOAD PUSH3 0x461BCD PUSH1 0xE5 SHL DUP2 MSTORE PUSH1 0x20 PUSH1 0x4 DUP3 ADD MSTORE PUSH1 0x1A PUSH1 0x24 DUP3 ADD MSTORE PUSH32 0x6275726E3A2073656E646572206D757374206265206F776E6572000000000000 PUSH1 0x44 DUP3 ADD MSTORE PUSH1 0x64 ADD PUSH2 0x6B1 JUMP JUMPDEST PUSH2 0x110A DUP2 PUSH2 0x2190 JUMP JUMPDEST POP JUMP JUMPDEST PUSH1 0x6 SLOAD PUSH1 0x1 PUSH1 0x1 PUSH1 0xA0 SHL SUB AND CALLER EQ PUSH2 0x1137 JUMPI PUSH1 0x40 MLOAD PUSH3 0x461BCD PUSH1 0xE5 SHL DUP2 MSTORE PUSH1 0x4 ADD PUSH2 0x6B1 SWAP1 PUSH2 0x2B66 JUMP JUMPDEST DUP1 PUSH2 0x114A PUSH1 0x9 SLOAD PUSH1 0x1 PUSH1 0x1 PUSH1 0xA0 SHL SUB AND SWAP1 JUMP JUMPDEST PUSH1 0x1 PUSH1 0x1 PUSH1 0xA0 SHL SUB AND DUP2 PUSH1 0x1 PUSH1 0x1 PUSH1 0xA0 SHL SUB AND EQ PUSH2 0x117A JUMPI PUSH1 0x40 MLOAD PUSH3 0x461BCD PUSH1 0xE5 SHL DUP2 MSTORE PUSH1 0x4 ADD PUSH2 0x6B1 SWAP1 PUSH2 0x2B9B JUMP JUMPDEST PUSH1 0x1 PUSH1 0x1 PUSH1 0xA0 SHL SUB DUP3 AND PUSH2 0x11D0 JUMPI PUSH1 0x40 MLOAD PUSH3 0x461BCD PUSH1 0xE5 SHL DUP2 MSTORE PUSH1 0x20 PUSH1 0x4 DUP3 ADD MSTORE PUSH1 0x18 PUSH1 0x24 DUP3 ADD MSTORE PUSH32 0x53656E64696E6720746F207A65726F20616464726573732E0000000000000000 PUSH1 0x44 DUP3 ADD MSTORE PUSH1 0x64 ADD PUSH2 0x6B1 JUMP JUMPDEST PUSH1 0xD SLOAD SELFBALANCE LT ISZERO PUSH2 0x1222 JUMPI PUSH1 0x40 MLOAD PUSH3 0x461BCD PUSH1 0xE5 SHL DUP2 MSTORE PUSH1 0x20 PUSH1 0x4 DUP3 ADD MSTORE PUSH1 0x1C PUSH1 0x24 DUP3 ADD MSTORE PUSH32 0x526576656E756520213D20436F6E74726163742062616C616E63652E00000000 PUSH1 0x44 DUP3 ADD MSTORE PUSH1 0x64 ADD PUSH2 0x6B1 JUMP JUMPDEST PUSH1 0xD SLOAD PUSH1 0x40 MLOAD PUSH1 0x1 PUSH1 0x1 PUSH1 0xA0 SHL SUB DUP5 AND SWAP2 DUP1 ISZERO PUSH2 0x8FC MUL SWAP2 PUSH1 0x0 DUP2 DUP2 DUP2 DUP6 DUP9 DUP9 CALL SWAP4 POP POP POP POP ISZERO DUP1 ISZERO PUSH2 0x1259 JUMPI RETURNDATASIZE PUSH1 0x0 DUP1 RETURNDATACOPY RETURNDATASIZE PUSH1 0x0 REVERT JUMPDEST POP POP PUSH1 0x0 PUSH1 0xD SSTORE POP JUMP JUMPDEST PUSH1 0x0 DUP2 DUP2 MSTORE PUSH1 0x3 PUSH1 0x20 MSTORE PUSH1 0x40 DUP2 KECCAK256 SLOAD PUSH1 0x1 PUSH1 0x1 PUSH1 0xA0 SHL SUB AND DUP1 PUSH2 0x7A2 JUMPI PUSH1 0x40 MLOAD PUSH3 0x461BCD PUSH1 0xE5 SHL DUP2 MSTORE PUSH1 0x20 PUSH1 0x4 DUP3 ADD MSTORE PUSH1 0x1C PUSH1 0x24 DUP3 ADD MSTORE PUSH32 0x6F776E65724F663A20746F6B656E20646F65736E277420657869737400000000 PUSH1 0x44 DUP3 ADD MSTORE PUSH1 0x64 ADD PUSH2 0x6B1 JUMP JUMPDEST PUSH1 0x0 PUSH1 0x1 PUSH1 0x1 PUSH1 0xA0 SHL SUB DUP3 AND PUSH2 0x1335 JUMPI PUSH1 0x40 MLOAD PUSH3 0x461BCD PUSH1 0xE5 SHL DUP2 MSTORE PUSH1 0x20 PUSH1 0x4 DUP3 ADD MSTORE PUSH1 0x2C PUSH1 0x24 DUP3 ADD MSTORE PUSH32 0x62616C616E63654F663A2061646472657373207A65726F206973206E6F742061 PUSH1 0x44 DUP3 ADD MSTORE PUSH12 0x103B30B634B21037BBB732B9 PUSH1 0xA1 SHL PUSH1 0x64 DUP3 ADD MSTORE PUSH1 0x84 ADD PUSH2 0x6B1 JUMP JUMPDEST POP PUSH1 0x1 PUSH1 0x1 PUSH1 0xA0 SHL SUB AND PUSH1 0x0 SWAP1 DUP2 MSTORE PUSH1 0x5 PUSH1 0x20 MSTORE PUSH1 0x40 SWAP1 KECCAK256 SLOAD SWAP1 JUMP JUMPDEST PUSH1 0x6 SLOAD PUSH1 0x1 PUSH1 0x1 PUSH1 0xA0 SHL SUB AND CALLER EQ PUSH2 0x137B JUMPI PUSH1 0x40 MLOAD PUSH3 0x461BCD PUSH1 0xE5 SHL DUP2 MSTORE PUSH1 0x4 ADD PUSH2 0x6B1 SWAP1 PUSH2 0x2B66 JUMP JUMPDEST PUSH2 0x1385 PUSH1 0x0 PUSH2 0x2237 JUMP JUMPDEST JUMP JUMPDEST PUSH1 0x6 SLOAD PUSH1 0x1 PUSH1 0x1 PUSH1 0xA0 SHL SUB AND CALLER EQ PUSH2 0x13B1 JUMPI PUSH1 0x40 MLOAD PUSH3 0x461BCD PUSH1 0xE5 SHL DUP2 MSTORE PUSH1 0x4 ADD PUSH2 0x6B1 SWAP1 PUSH2 0x2B66 JUMP JUMPDEST DUP2 PUSH2 0x13C4 PUSH1 0x9 SLOAD PUSH1 0x1 PUSH1 0x1 PUSH1 0xA0 SHL SUB AND SWAP1 JUMP JUMPDEST PUSH1 0x1 PUSH1 0x1 PUSH1 0xA0 SHL SUB AND DUP2 PUSH1 0x1 PUSH1 0x1 PUSH1 0xA0 SHL SUB AND EQ PUSH2 0x13F4 JUMPI PUSH1 0x40 MLOAD PUSH3 0x461BCD PUSH1 0xE5 SHL DUP2 MSTORE PUSH1 0x4 ADD PUSH2 0x6B1 SWAP1 PUSH2 0x2B9B JUMP JUMPDEST PUSH2 0xA07 DUP3 PUSH2 0x2289 JUMP JUMPDEST PUSH1 0x60 PUSH1 0x2 DUP1 SLOAD PUSH2 0x7B7 SWAP1 PUSH2 0x2BC9 JUMP JUMPDEST PUSH1 0x6 SLOAD PUSH1 0x1 PUSH1 0x1 PUSH1 0xA0 SHL SUB AND CALLER EQ PUSH2 0x1436 JUMPI PUSH1 0x40 MLOAD PUSH3 0x461BCD PUSH1 0xE5 SHL DUP2 MSTORE PUSH1 0x4 ADD PUSH2 0x6B1 SWAP1 PUSH2 0x2B66 JUMP JUMPDEST DUP6 PUSH2 0x1449 PUSH1 0x9 SLOAD PUSH1 0x1 PUSH1 0x1 PUSH1 0xA0 SHL SUB AND SWAP1 JUMP JUMPDEST PUSH1 0x1 PUSH1 0x1 PUSH1 0xA0 SHL SUB AND DUP2 PUSH1 0x1 PUSH1 0x1 PUSH1 0xA0 SHL SUB AND EQ PUSH2 0x1479 JUMPI PUSH1 0x40 MLOAD PUSH3 0x461BCD PUSH1 0xE5 SHL DUP2 MSTORE PUSH1 0x4 ADD PUSH2 0x6B1 SWAP1 PUSH2 0x2B9B JUMP JUMPDEST PUSH1 0x13 SLOAD PUSH1 0xFF AND ISZERO PUSH2 0x1489 JUMPI PUSH1 0x0 DUP1 REVERT JUMPDEST PUSH1 0x13 DUP1 SLOAD PUSH1 0xFF NOT AND PUSH1 0x1 OR SWAP1 SSTORE PUSH2 0x14A0 DUP4 DUP4 PUSH2 0x1A94 JUMP JUMPDEST PUSH2 0x14E6 JUMPI PUSH1 0x40 MLOAD PUSH3 0x461BCD PUSH1 0xE5 SHL DUP2 MSTORE PUSH1 0x20 PUSH1 0x4 DUP3 ADD MSTORE PUSH1 0x17 PUSH1 0x24 DUP3 ADD MSTORE PUSH23 0x2430B9B4103737BA1039B4B3B732B210313C903CB7BA97 PUSH1 0x49 SHL PUSH1 0x44 DUP3 ADD MSTORE PUSH1 0x64 ADD PUSH2 0x6B1 JUMP JUMPDEST PUSH2 0x14F1 DUP7 DUP7 DUP7 PUSH2 0xDA6 JUMP JUMPDEST POP POP PUSH1 0x13 DUP1 SLOAD PUSH1 0xFF NOT AND SWAP1 SSTORE POP POP POP POP POP JUMP JUMPDEST PUSH1 0x6 SLOAD PUSH1 0x1 PUSH1 0x1 PUSH1 0xA0 SHL SUB AND CALLER EQ PUSH2 0x152E JUMPI PUSH1 0x40 MLOAD PUSH3 0x461BCD PUSH1 0xE5 SHL DUP2 MSTORE PUSH1 0x4 ADD PUSH2 0x6B1 SWAP1 PUSH2 0x2B66 JUMP JUMPDEST DUP6 PUSH2 0x1541 PUSH1 0x9 SLOAD PUSH1 0x1 PUSH1 0x1 PUSH1 0xA0 SHL SUB AND SWAP1 JUMP JUMPDEST PUSH1 0x1 PUSH1 0x1 PUSH1 0xA0 SHL SUB AND DUP2 PUSH1 0x1 PUSH1 0x1 PUSH1 0xA0 SHL SUB AND EQ PUSH2 0x1571 JUMPI PUSH1 0x40 MLOAD PUSH3 0x461BCD PUSH1 0xE5 SHL DUP2 MSTORE PUSH1 0x4 ADD PUSH2 0x6B1 SWAP1 PUSH2 0x2B9B JUMP JUMPDEST PUSH1 0x13 SLOAD PUSH1 0xFF AND ISZERO PUSH2 0x1581 JUMPI PUSH1 0x0 DUP1 REVERT JUMPDEST PUSH1 0x13 DUP1 SLOAD PUSH1 0xFF NOT AND PUSH1 0x1 OR SWAP1 SSTORE PUSH2 0x1598 DUP4 DUP4 PUSH2 0x1A94 JUMP JUMPDEST PUSH2 0x15DE JUMPI PUSH1 0x40 MLOAD PUSH3 0x461BCD PUSH1 0xE5 SHL DUP2 MSTORE PUSH1 0x20 PUSH1 0x4 DUP3 ADD MSTORE PUSH1 0x17 PUSH1 0x24 DUP3 ADD MSTORE PUSH23 0x2430B9B4103737BA1039B4B3B732B210313C903CB7BA97 PUSH1 0x49 SHL PUSH1 0x44 DUP3 ADD MSTORE PUSH1 0x64 ADD PUSH2 0x6B1 JUMP JUMPDEST PUSH2 0x14F1 DUP7 DUP7 DUP7 PUSH2 0x1BF7 JUMP JUMPDEST PUSH1 0x6 SLOAD PUSH1 0x1 PUSH1 0x1 PUSH1 0xA0 SHL SUB AND CALLER EQ PUSH2 0x1613 JUMPI PUSH1 0x40 MLOAD PUSH3 0x461BCD PUSH1 0xE5 SHL DUP2 MSTORE PUSH1 0x4 ADD PUSH2 0x6B1 SWAP1 PUSH2 0x2B66 JUMP JUMPDEST DUP4 PUSH2 0x1626 PUSH1 0x9 SLOAD PUSH1 0x1 PUSH1 0x1 PUSH1 0xA0 SHL SUB AND SWAP1 JUMP JUMPDEST PUSH1 0x1 PUSH1 0x1 PUSH1 0xA0 SHL SUB AND DUP2 PUSH1 0x1 PUSH1 0x1 PUSH1 0xA0 SHL SUB AND EQ PUSH2 0x1656 JUMPI PUSH1 0x40 MLOAD PUSH3 0x461BCD PUSH1 0xE5 SHL DUP2 MSTORE PUSH1 0x4 ADD PUSH2 0x6B1 SWAP1 PUSH2 0x2B9B JUMP JUMPDEST PUSH1 0xA SLOAD PUSH1 0xB SLOAD LT PUSH2 0x169E JUMPI PUSH1 0x40 MLOAD PUSH3 0x461BCD PUSH1 0xE5 SHL DUP2 MSTORE PUSH1 0x20 PUSH1 0x4 DUP3 ADD MSTORE PUSH1 0x12 PUSH1 0x24 DUP3 ADD MSTORE PUSH18 0x24B9B9BAB29021B0B8102932B0B1B432B217 PUSH1 0x71 SHL PUSH1 0x44 DUP3 ADD MSTORE PUSH1 0x64 ADD PUSH2 0x6B1 JUMP JUMPDEST PUSH1 0x1 PUSH1 0x1 PUSH1 0xA0 SHL SUB DUP5 AND PUSH2 0x16C4 JUMPI PUSH1 0x40 MLOAD PUSH3 0x461BCD PUSH1 0xE5 SHL DUP2 MSTORE PUSH1 0x4 ADD PUSH2 0x6B1 SWAP1 PUSH2 0x2C5F JUMP JUMPDEST PUSH2 0x16CD DUP4 PUSH2 0x1F4F JUMP JUMPDEST ISZERO PUSH2 0x171A JUMPI PUSH1 0x40 MLOAD PUSH3 0x461BCD PUSH1 0xE5 SHL DUP2 MSTORE PUSH1 0x20 PUSH1 0x4 DUP3 ADD MSTORE PUSH1 0x1F PUSH1 0x24 DUP3 ADD MSTORE PUSH32 0x4D696E74206F6620616C7265616479206578697374696E6720746F6B656E2E00 PUSH1 0x44 DUP3 ADD MSTORE PUSH1 0x64 ADD PUSH2 0x6B1 JUMP JUMPDEST PUSH1 0x0 DUP4 DUP2 MSTORE PUSH1 0x10 PUSH1 0x20 MSTORE PUSH1 0x40 SWAP1 KECCAK256 SLOAD PUSH1 0xFF AND ISZERO PUSH2 0x1779 JUMPI PUSH1 0x40 MLOAD PUSH3 0x461BCD PUSH1 0xE5 SHL DUP2 MSTORE PUSH1 0x20 PUSH1 0x4 DUP3 ADD MSTORE PUSH1 0x1E PUSH1 0x24 DUP3 ADD MSTORE PUSH32 0x4D696E74206F6620616C72656164792070656E64696E6720746F6B656E2E0000 PUSH1 0x44 DUP3 ADD MSTORE PUSH1 0x64 ADD PUSH2 0x6B1 JUMP JUMPDEST PUSH1 0x0 DUP4 DUP2 MSTORE PUSH1 0x10 PUSH1 0x20 SWAP1 DUP2 MSTORE PUSH1 0x40 DUP1 DUP4 KECCAK256 DUP1 SLOAD PUSH1 0xFF NOT AND PUSH1 0x1 OR SWAP1 SSTORE PUSH1 0x11 SWAP1 SWAP2 MSTORE SWAP1 KECCAK256 DUP1 SLOAD PUSH1 0x1 PUSH1 0x1 PUSH1 0xA0 SHL SUB DUP7 AND PUSH1 0x1 PUSH1 0x1 PUSH1 0xA0 SHL SUB NOT SWAP1 SWAP2 AND OR SWAP1 SSTORE PUSH2 0x17C1 DUP4 DUP4 PUSH2 0x17DD JUMP JUMPDEST PUSH1 0xB DUP1 SLOAD SWAP1 PUSH1 0x0 PUSH2 0x17D1 DUP4 PUSH2 0x2CA5 JUMP JUMPDEST SWAP2 SWAP1 POP SSTORE POP POP POP POP POP POP JUMP JUMPDEST PUSH2 0x17E7 DUP2 TIMESTAMP PUSH2 0x2CBE JUMP JUMPDEST PUSH1 0x0 DUP4 DUP2 MSTORE PUSH1 0x20 DUP2 DUP2 MSTORE PUSH1 0x40 SWAP2 DUP3 SWAP1 KECCAK256 SWAP3 SWAP1 SWAP3 SSTORE DUP1 MLOAD DUP5 DUP2 MSTORE SWAP2 DUP3 ADD DUP4 SWAP1 MSTORE PUSH32 0x41A73BEB1018A8B63E0F451A8A4F483806142CF14BE45B1A58A23776A1E9B4BC SWAP2 ADD PUSH1 0x40 MLOAD DUP1 SWAP2 SUB SWAP1 LOG1 POP POP JUMP JUMPDEST PUSH1 0x60 PUSH2 0x1840 DUP3 PUSH2 0x1F4F JUMP JUMPDEST PUSH2 0x188C JUMPI PUSH1 0x40 MLOAD PUSH3 0x461BCD PUSH1 0xE5 SHL DUP2 MSTORE PUSH1 0x20 PUSH1 0x4 DUP3 ADD MSTORE PUSH1 0x1D PUSH1 0x24 DUP3 ADD MSTORE PUSH32 0x746F6B656E5552493A20746F6B656E20646F65736E2774206578697374000000 PUSH1 0x44 DUP3 ADD MSTORE PUSH1 0x64 ADD PUSH2 0x6B1 JUMP JUMPDEST PUSH1 0x0 DUP3 DUP2 MSTORE PUSH1 0x4 PUSH1 0x20 MSTORE PUSH1 0x40 SWAP1 KECCAK256 DUP1 SLOAD PUSH2 0x18A5 SWAP1 PUSH2 0x2BC9 JUMP JUMPDEST DUP1 PUSH1 0x1F ADD PUSH1 0x20 DUP1 SWAP2 DIV MUL PUSH1 0x20 ADD PUSH1 0x40 MLOAD SWAP1 DUP2 ADD PUSH1 0x40 MSTORE DUP1 SWAP3 SWAP2 SWAP1 DUP2 DUP2 MSTORE PUSH1 0x20 ADD DUP3 DUP1 SLOAD PUSH2 0x18D1 SWAP1 PUSH2 0x2BC9 JUMP JUMPDEST DUP1 ISZERO PUSH2 0x191E JUMPI DUP1 PUSH1 0x1F LT PUSH2 0x18F3 JUMPI PUSH2 0x100 DUP1 DUP4 SLOAD DIV MUL DUP4 MSTORE SWAP2 PUSH1 0x20 ADD SWAP2 PUSH2 0x191E JUMP JUMPDEST DUP3 ADD SWAP2 SWAP1 PUSH1 0x0 MSTORE PUSH1 0x20 PUSH1 0x0 KECCAK256 SWAP1 JUMPDEST DUP2 SLOAD DUP2 MSTORE SWAP1 PUSH1 0x1 ADD SWAP1 PUSH1 0x20 ADD DUP1 DUP4 GT PUSH2 0x1901 JUMPI DUP3 SWAP1 SUB PUSH1 0x1F AND DUP3 ADD SWAP2 JUMPDEST POP POP POP POP POP SWAP1 POP SWAP2 SWAP1 POP JUMP JUMPDEST PUSH1 0x60 PUSH1 0x7 DUP1 SLOAD PUSH2 0x1939 SWAP1 PUSH2 0x2BC9 JUMP JUMPDEST SWAP1 POP PUSH1 0x0 SUB PUSH2 0x197A JUMPI PUSH1 0x40 MLOAD PUSH3 0x461BCD PUSH1 0xE5 SHL DUP2 MSTORE PUSH1 0x20 PUSH1 0x4 DUP3 ADD MSTORE PUSH1 0xD PUSH1 0x24 DUP3 ADD MSTORE PUSH13 0x456D7074792062617365555249 PUSH1 0x98 SHL PUSH1 0x44 DUP3 ADD MSTORE PUSH1 0x64 ADD PUSH2 0x6B1 JUMP JUMPDEST PUSH1 0x7 DUP1 SLOAD PUSH2 0x7B7 SWAP1 PUSH2 0x2BC9 JUMP JUMPDEST PUSH1 0x1 PUSH1 0x1 PUSH1 0xA0 SHL SUB DUP6 AND PUSH2 0x19AD JUMPI PUSH1 0x40 MLOAD PUSH3 0x461BCD PUSH1 0xE5 SHL DUP2 MSTORE PUSH1 0x4 ADD PUSH2 0x6B1 SWAP1 PUSH2 0x2C5F JUMP JUMPDEST DUP3 MLOAD PUSH1 0x41 EQ PUSH2 0x19F9 JUMPI PUSH1 0x40 MLOAD PUSH3 0x461BCD PUSH1 0xE5 SHL DUP2 MSTORE PUSH1 0x20 PUSH1 0x4 DUP3 ADD MSTORE PUSH1 0x18 PUSH1 0x24 DUP3 ADD MSTORE PUSH24 0x92DCECC2D8D2C840E6D2CEDCC2E8EAE4CA40D8CADCCEE8D PUSH1 0x43 SHL PUSH1 0x44 DUP3 ADD MSTORE PUSH1 0x64 ADD PUSH2 0x6B1 JUMP JUMPDEST PUSH2 0x1A03 DUP5 DUP5 PUSH2 0x1A94 JUMP JUMPDEST PUSH2 0x1A4B JUMPI PUSH1 0x40 MLOAD PUSH3 0x461BCD PUSH1 0xE5 SHL DUP2 MSTORE PUSH1 0x20 PUSH1 0x4 DUP3 ADD MSTORE PUSH1 0x19 PUSH1 0x24 DUP3 ADD MSTORE PUSH25 0x2430B9B4103737BA1039B4B3B732B210313C9037BBB732B917 PUSH1 0x39 SHL PUSH1 0x44 DUP3 ADD MSTORE PUSH1 0x64 ADD PUSH2 0x6B1 JUMP JUMPDEST PUSH2 0x1A56 DUP6 DUP4 DUP4 PUSH2 0x213D JUMP JUMPDEST POP PUSH1 0x40 MLOAD DUP3 SWAP1 PUSH1 0x1 PUSH1 0x1 PUSH1 0xA0 SHL SUB DUP8 AND SWAP1 PUSH32 0x79AF0E59B31823DD289CEEBABC4D63D25F35926B8548E3A084A500C9D4E18556 SWAP1 PUSH1 0x0 SWAP1 LOG3 POP POP POP POP POP JUMP JUMPDEST PUSH1 0x0 PUSH2 0x1AA0 DUP4 DUP4 PUSH2 0x22DB JUMP JUMPDEST SWAP4 SWAP3 POP POP POP JUMP JUMPDEST PUSH1 0x0 DUP2 DUP2 MSTORE PUSH1 0x20 DUP2 SWAP1 MSTORE PUSH1 0x40 DUP2 KECCAK256 SLOAD TIMESTAMP GT ISZERO PUSH2 0x1AC5 JUMPI POP PUSH1 0x0 SWAP2 SWAP1 POP JUMP JUMPDEST PUSH1 0x0 DUP3 DUP2 MSTORE PUSH1 0x20 DUP2 SWAP1 MSTORE PUSH1 0x40 SWAP1 KECCAK256 SLOAD PUSH2 0x7A2 SWAP1 TIMESTAMP SWAP1 PUSH2 0x2C8E JUMP JUMPDEST SWAP2 SWAP1 POP JUMP JUMPDEST PUSH1 0x20 DUP2 DUP2 ADD MLOAD PUSH1 0x40 DUP1 DUP5 ADD MLOAD PUSH1 0x60 DUP1 DUP7 ADD MLOAD DUP4 MLOAD PUSH1 0x0 DUP1 DUP3 MSTORE DUP2 DUP9 ADD DUP1 DUP8 MSTORE DUP11 SWAP1 MSTORE SWAP2 DUP3 BYTE DUP2 DUP7 ADD DUP2 SWAP1 MSTORE SWAP3 DUP2 ADD DUP7 SWAP1 MSTORE PUSH1 0x80 DUP2 ADD DUP5 SWAP1 MSTORE SWAP4 MLOAD SWAP1 SWAP6 SWAP3 SWAP4 SWAP2 SWAP3 PUSH1 0x1 SWAP3 PUSH1 0xA0 DUP1 DUP3 ADD SWAP4 PUSH1 0x1F NOT DUP2 ADD SWAP3 DUP2 SWAP1 SUB SWAP1 SWAP2 ADD SWAP1 DUP6 GAS STATICCALL ISZERO DUP1 ISZERO PUSH2 0x1B4E JUMPI RETURNDATASIZE PUSH1 0x0 DUP1 RETURNDATACOPY RETURNDATASIZE PUSH1 0x0 REVERT JUMPDEST POP POP POP PUSH1 0x20 PUSH1 0x40 MLOAD SUB MLOAD PUSH1 0x1 PUSH1 0x1 PUSH1 0xA0 SHL SUB AND DUP8 PUSH1 0x1 PUSH1 0x1 PUSH1 0xA0 SHL SUB AND EQ SWAP4 POP POP POP POP SWAP4 SWAP3 POP POP POP JUMP JUMPDEST PUSH1 0x6 SLOAD PUSH1 0x1 PUSH1 0x1 PUSH1 0xA0 SHL SUB AND CALLER EQ PUSH2 0x1BA2 JUMPI PUSH1 0x40 MLOAD PUSH3 0x461BCD PUSH1 0xE5 SHL DUP2 MSTORE PUSH1 0x4 ADD PUSH2 0x6B1 SWAP1 PUSH2 0x2B66 JUMP JUMPDEST PUSH1 0xA SLOAD PUSH1 0xB SLOAD LT PUSH2 0x1BEA JUMPI PUSH1 0x40 MLOAD PUSH3 0x461BCD PUSH1 0xE5 SHL DUP2 MSTORE PUSH1 0x20 PUSH1 0x4 DUP3 ADD MSTORE PUSH1 0x12 PUSH1 0x24 DUP3 ADD MSTORE PUSH18 0x24B9B9BAB29021B0B8102932B0B1B432B217 PUSH1 0x71 SHL PUSH1 0x44 DUP3 ADD MSTORE PUSH1 0x64 ADD PUSH2 0x6B1 JUMP JUMPDEST PUSH2 0x17C1 DUP6 DUP6 DUP6 DUP6 DUP6 PUSH2 0x1987 JUMP JUMPDEST PUSH1 0x6 SLOAD PUSH1 0x1 PUSH1 0x1 PUSH1 0xA0 SHL SUB AND CALLER EQ PUSH2 0x1C21 JUMPI PUSH1 0x40 MLOAD PUSH3 0x461BCD PUSH1 0xE5 SHL DUP2 MSTORE PUSH1 0x4 ADD PUSH2 0x6B1 SWAP1 PUSH2 0x2B66 JUMP JUMPDEST PUSH1 0x13 SLOAD PUSH1 0xFF AND ISZERO PUSH2 0x1C31 JUMPI PUSH1 0x0 DUP1 REVERT JUMPDEST PUSH1 0x13 DUP1 SLOAD PUSH1 0xFF NOT AND PUSH1 0x1 OR SWAP1 SSTORE PUSH1 0x1 PUSH1 0x1 PUSH1 0xA0 SHL SUB DUP4 AND PUSH2 0x1C94 JUMPI PUSH1 0x40 MLOAD PUSH3 0x461BCD PUSH1 0xE5 SHL DUP2 MSTORE PUSH1 0x20 PUSH1 0x4 DUP3 ADD MSTORE PUSH1 0x1B PUSH1 0x24 DUP3 ADD MSTORE PUSH32 0x526564656D7074696F6E20746F207A65726F20616464726573732E0000000000 PUSH1 0x44 DUP3 ADD MSTORE PUSH1 0x64 ADD PUSH2 0x6B1 JUMP JUMPDEST PUSH2 0x1C9D DUP3 PUSH2 0x1F4F JUMP JUMPDEST ISZERO PUSH2 0x1CEA JUMPI PUSH1 0x40 MLOAD PUSH3 0x461BCD PUSH1 0xE5 SHL DUP2 MSTORE PUSH1 0x20 PUSH1 0x4 DUP3 ADD MSTORE PUSH1 0x1D PUSH1 0x24 DUP3 ADD MSTORE PUSH32 0x526564656D7074696F6E206F66206578697374696E6720746F6B656E2E000000 PUSH1 0x44 DUP3 ADD MSTORE PUSH1 0x64 ADD PUSH2 0x6B1 JUMP JUMPDEST PUSH1 0x0 DUP3 DUP2 MSTORE PUSH1 0x10 PUSH1 0x20 MSTORE PUSH1 0x40 SWAP1 KECCAK256 SLOAD PUSH1 0xFF AND PUSH2 0x1D42 JUMPI PUSH1 0x40 MLOAD PUSH3 0x461BCD PUSH1 0xE5 SHL DUP2 MSTORE PUSH1 0x20 PUSH1 0x4 DUP3 ADD MSTORE PUSH1 0x17 PUSH1 0x24 DUP3 ADD MSTORE PUSH23 0x20B63932B0B23C903932B1B2B4BB32B2103A37B5B2B717 PUSH1 0x49 SHL PUSH1 0x44 DUP3 ADD MSTORE PUSH1 0x64 ADD PUSH2 0x6B1 JUMP JUMPDEST PUSH1 0x0 DUP3 DUP2 MSTORE PUSH1 0x11 PUSH1 0x20 MSTORE PUSH1 0x40 SWAP1 KECCAK256 SLOAD PUSH1 0x1 PUSH1 0x1 PUSH1 0xA0 SHL SUB DUP5 DUP2 AND SWAP2 AND EQ PUSH2 0xF54 JUMPI PUSH1 0x40 MLOAD PUSH3 0x461BCD PUSH1 0xE5 SHL DUP2 MSTORE PUSH1 0x20 PUSH1 0x4 DUP3 ADD MSTORE PUSH1 0x15 PUSH1 0x24 DUP3 ADD MSTORE PUSH21 0x2737BA103832B73234B733903932B1B2B4BB32B917 PUSH1 0x59 SHL PUSH1 0x44 DUP3 ADD MSTORE PUSH1 0x64 ADD PUSH2 0x6B1 JUMP JUMPDEST PUSH1 0x6 SLOAD PUSH1 0x1 PUSH1 0x1 PUSH1 0xA0 SHL SUB AND CALLER EQ PUSH2 0x1DCD JUMPI PUSH1 0x40 MLOAD PUSH3 0x461BCD PUSH1 0xE5 SHL DUP2 MSTORE PUSH1 0x4 ADD PUSH2 0x6B1 SWAP1 PUSH2 0x2B66 JUMP JUMPDEST PUSH1 0x1 PUSH1 0x1 PUSH1 0xA0 SHL SUB DUP2 AND PUSH2 0x1E32 JUMPI PUSH1 0x40 MLOAD PUSH3 0x461BCD PUSH1 0xE5 SHL DUP2 MSTORE PUSH1 0x20 PUSH1 0x4 DUP3 ADD MSTORE PUSH1 0x26 PUSH1 0x24 DUP3 ADD MSTORE PUSH32 0x4F776E61626C653A206E6577206F776E657220697320746865207A65726F2061 PUSH1 0x44 DUP3 ADD MSTORE PUSH6 0x646472657373 PUSH1 0xD0 SHL PUSH1 0x64 DUP3 ADD MSTORE PUSH1 0x84 ADD PUSH2 0x6B1 JUMP JUMPDEST PUSH2 0x110A DUP2 PUSH2 0x2237 JUMP JUMPDEST PUSH1 0x0 PUSH1 0x1 PUSH1 0x1 PUSH1 0xA0 SHL SUB DUP4 AND PUSH2 0x1E93 JUMPI PUSH1 0x40 MLOAD PUSH3 0x461BCD PUSH1 0xE5 SHL DUP2 MSTORE PUSH1 0x20 PUSH1 0x4 DUP3 ADD MSTORE PUSH1 0x17 PUSH1 0x24 DUP3 ADD MSTORE PUSH32 0x517565727920666F72207A65726F20616464726573732E000000000000000000 PUSH1 0x44 DUP3 ADD MSTORE PUSH1 0x64 ADD PUSH2 0x6B1 JUMP JUMPDEST PUSH2 0x1E9C DUP3 PUSH2 0x1F4F JUMP JUMPDEST PUSH2 0x1EDE JUMPI PUSH1 0x40 MLOAD PUSH3 0x461BCD PUSH1 0xE5 SHL DUP2 MSTORE PUSH1 0x20 PUSH1 0x4 DUP3 ADD MSTORE PUSH1 0x13 PUSH1 0x24 DUP3 ADD MSTORE PUSH19 0x2737B716B2BC34B9BA32B73A103A37B5B2B717 PUSH1 0x69 SHL PUSH1 0x44 DUP3 ADD MSTORE PUSH1 0x64 ADD PUSH2 0x6B1 JUMP JUMPDEST DUP3 PUSH1 0x1 PUSH1 0x1 PUSH1 0xA0 SHL SUB AND PUSH2 0x1EF1 DUP4 PUSH2 0x1263 JUMP JUMPDEST PUSH1 0x1 PUSH1 0x1 PUSH1 0xA0 SHL SUB AND EQ PUSH2 0x1F47 JUMPI PUSH1 0x40 MLOAD PUSH3 0x461BCD PUSH1 0xE5 SHL DUP2 MSTORE PUSH1 0x20 PUSH1 0x4 DUP3 ADD MSTORE PUSH1 0x1A PUSH1 0x24 DUP3 ADD MSTORE PUSH32 0x546F6B656E206E6F74206F776E65642062792061646472657373000000000000 PUSH1 0x44 DUP3 ADD MSTORE PUSH1 0x64 ADD PUSH2 0x6B1 JUMP JUMPDEST POP ADDRESS SWAP3 SWAP2 POP POP JUMP JUMPDEST PUSH1 0x0 SWAP1 DUP2 MSTORE PUSH1 0x3 PUSH1 0x20 MSTORE PUSH1 0x40 SWAP1 KECCAK256 SLOAD PUSH1 0x1 PUSH1 0x1 PUSH1 0xA0 SHL SUB AND ISZERO ISZERO SWAP1 JUMP JUMPDEST PUSH1 0x0 PUSH2 0x1F77 DUP3 PUSH2 0x1F4F JUMP JUMPDEST PUSH2 0x1FB9 JUMPI PUSH1 0x40 MLOAD PUSH3 0x461BCD PUSH1 0xE5 SHL DUP2 MSTORE PUSH1 0x20 PUSH1 0x4 DUP3 ADD MSTORE PUSH1 0x13 PUSH1 0x24 DUP3 ADD MSTORE PUSH19 0x2737B716B2BC34B9BA32B73A103A37B5B2B717 PUSH1 0x69 SHL PUSH1 0x44 DUP3 ADD MSTORE PUSH1 0x64 ADD PUSH2 0x6B1 JUMP JUMPDEST DUP3 PUSH1 0x1 PUSH1 0x1 PUSH1 0xA0 SHL SUB AND PUSH2 0x1FCC DUP4 PUSH2 0x1263 JUMP JUMPDEST PUSH1 0x1 PUSH1 0x1 PUSH1 0xA0 SHL SUB AND EQ PUSH2 0x2022 JUMPI PUSH1 0x40 MLOAD PUSH3 0x461BCD PUSH1 0xE5 SHL DUP2 MSTORE PUSH1 0x20 PUSH1 0x4 DUP3 ADD MSTORE PUSH1 0x1A PUSH1 0x24 DUP3 ADD MSTORE PUSH32 0x546F6B656E206E6F74206F776E65642062792061646472657373000000000000 PUSH1 0x44 DUP3 ADD MSTORE PUSH1 0x64 ADD PUSH2 0x6B1 JUMP JUMPDEST PUSH2 0x202B DUP3 PUSH2 0x2481 JUMP JUMPDEST POP PUSH1 0x1 SWAP3 SWAP2 POP POP JUMP JUMPDEST PUSH1 0x60 DUP2 PUSH1 0x0 SUB PUSH2 0x205B JUMPI POP POP PUSH1 0x40 DUP1 MLOAD DUP1 DUP3 ADD SWAP1 SWAP2 MSTORE PUSH1 0x1 DUP2 MSTORE PUSH1 0x3 PUSH1 0xFC SHL PUSH1 0x20 DUP3 ADD MSTORE SWAP1 JUMP JUMPDEST DUP2 PUSH1 0x0 JUMPDEST DUP2 ISZERO PUSH2 0x2085 JUMPI DUP1 PUSH2 0x206F DUP2 PUSH2 0x2CA5 JUMP JUMPDEST SWAP2 POP PUSH2 0x207E SWAP1 POP PUSH1 0xA DUP4 PUSH2 0x2CEC JUMP JUMPDEST SWAP2 POP PUSH2 0x205F JUMP JUMPDEST PUSH1 0x0 DUP2 PUSH8 0xFFFFFFFFFFFFFFFF DUP2 GT ISZERO PUSH2 0x20A0 JUMPI PUSH2 0x20A0 PUSH2 0x27D0 JUMP JUMPDEST PUSH1 0x40 MLOAD SWAP1 DUP1 DUP3 MSTORE DUP1 PUSH1 0x1F ADD PUSH1 0x1F NOT AND PUSH1 0x20 ADD DUP3 ADD PUSH1 0x40 MSTORE DUP1 ISZERO PUSH2 0x20CA JUMPI PUSH1 0x20 DUP3 ADD DUP2 DUP1 CALLDATASIZE DUP4 CALLDATACOPY ADD SWAP1 POP JUMPDEST POP SWAP1 POP JUMPDEST DUP5 ISZERO PUSH2 0x2135 JUMPI PUSH2 0x20DF PUSH1 0x1 DUP4 PUSH2 0x2C8E JUMP JUMPDEST SWAP2 POP PUSH2 0x20EC PUSH1 0xA DUP7 PUSH2 0x2D00 JUMP JUMPDEST PUSH2 0x20F7 SWAP1 PUSH1 0x30 PUSH2 0x2CBE JUMP JUMPDEST PUSH1 0xF8 SHL DUP2 DUP4 DUP2 MLOAD DUP2 LT PUSH2 0x210C JUMPI PUSH2 0x210C PUSH2 0x2D14 JUMP JUMPDEST PUSH1 0x20 ADD ADD SWAP1 PUSH1 0x1 PUSH1 0x1 PUSH1 0xF8 SHL SUB NOT AND SWAP1 DUP2 PUSH1 0x0 BYTE SWAP1 MSTORE8 POP PUSH2 0x212E PUSH1 0xA DUP7 PUSH2 0x2CEC JUMP JUMPDEST SWAP5 POP PUSH2 0x20CE JUMP JUMPDEST SWAP5 SWAP4 POP POP POP POP JUMP JUMPDEST PUSH1 0x0 PUSH2 0x214A DUP5 DUP5 DUP5 PUSH2 0x2517 JUMP JUMPDEST POP PUSH1 0x1 SWAP4 SWAP3 POP POP POP JUMP JUMPDEST PUSH1 0x0 PUSH5 0x746A528800 PUSH1 0xD SLOAD LT ISZERO PUSH2 0x216A JUMPI PUSH1 0x0 SWAP2 POP JUMPDEST PUSH2 0x3E8 PUSH1 0xD SLOAD DUP4 PUSH2 0x217B SWAP2 SWAP1 PUSH2 0x2D2A JUMP JUMPDEST PUSH2 0x2186 SWAP1 PUSH1 0xA PUSH2 0x2D2A JUMP JUMPDEST PUSH2 0x7A2 SWAP2 SWAP1 PUSH2 0x2CEC JUMP JUMPDEST PUSH1 0x0 PUSH2 0x219B DUP3 PUSH2 0x1263 JUMP JUMPDEST PUSH1 0x1 PUSH1 0x1 PUSH1 0xA0 SHL SUB DUP2 AND PUSH1 0x0 SWAP1 DUP2 MSTORE PUSH1 0x5 PUSH1 0x20 MSTORE PUSH1 0x40 DUP2 KECCAK256 DUP1 SLOAD SWAP3 SWAP4 POP PUSH1 0x1 SWAP3 SWAP1 SWAP2 SWAP1 PUSH2 0x21C9 SWAP1 DUP5 SWAP1 PUSH2 0x2C8E JUMP JUMPDEST SWAP1 SWAP2 SSTORE POP POP PUSH1 0x0 DUP3 DUP2 MSTORE PUSH1 0x3 PUSH1 0x20 SWAP1 DUP2 MSTORE PUSH1 0x40 DUP1 DUP4 KECCAK256 DUP1 SLOAD PUSH1 0x1 PUSH1 0x1 PUSH1 0xA0 SHL SUB NOT AND SWAP1 SSTORE PUSH1 0x4 SWAP1 SWAP2 MSTORE DUP2 KECCAK256 PUSH2 0x21FD SWAP2 PUSH2 0x26B4 JUMP JUMPDEST PUSH1 0x40 MLOAD DUP3 SWAP1 PUSH1 0x1 PUSH1 0x1 PUSH1 0xA0 SHL SUB DUP4 AND SWAP1 PUSH32 0xEC9AB91322523C899EDE7830EC9BFC992B5981CDCC27B91162FB23DE5791117B SWAP1 PUSH1 0x0 SWAP1 LOG3 POP POP JUMP JUMPDEST PUSH1 0x6 DUP1 SLOAD PUSH1 0x1 PUSH1 0x1 PUSH1 0xA0 SHL SUB DUP4 DUP2 AND PUSH1 0x1 PUSH1 0x1 PUSH1 0xA0 SHL SUB NOT DUP4 AND DUP2 OR SWAP1 SWAP4 SSTORE PUSH1 0x40 MLOAD SWAP2 AND SWAP2 SWAP1 DUP3 SWAP1 PUSH32 0x8BE0079C531659141344CD1FD0A4F28419497F9722A3DAAFE3B4186F6B6457E0 SWAP1 PUSH1 0x0 SWAP1 LOG3 POP POP JUMP JUMPDEST DUP1 MLOAD PUSH1 0x0 SUB PUSH2 0x22CB JUMPI PUSH1 0x40 MLOAD PUSH3 0x461BCD PUSH1 0xE5 SHL DUP2 MSTORE PUSH1 0x20 PUSH1 0x4 DUP3 ADD MSTORE PUSH1 0xE PUSH1 0x24 DUP3 ADD MSTORE PUSH14 0x92DCECC2D8D2C840D8CADCCEE8D PUSH1 0x93 SHL PUSH1 0x44 DUP3 ADD MSTORE PUSH1 0x64 ADD PUSH2 0x6B1 JUMP JUMPDEST PUSH1 0x7 PUSH2 0x22D7 DUP3 DUP3 PUSH2 0x2D97 JUMP JUMPDEST POP POP JUMP JUMPDEST PUSH1 0x6 SLOAD PUSH1 0x0 SWAP1 PUSH1 0x1 PUSH1 0x1 PUSH1 0xA0 SHL SUB AND CALLER EQ PUSH2 0x2308 JUMPI PUSH1 0x40 MLOAD PUSH3 0x461BCD PUSH1 0xE5 SHL DUP2 MSTORE PUSH1 0x4 ADD PUSH2 0x6B1 SWAP1 PUSH2 0x2B66 JUMP JUMPDEST PUSH1 0x6 SLOAD PUSH1 0x1 PUSH1 0x1 PUSH1 0xA0 SHL SUB AND CALLER EQ PUSH2 0x2376 JUMPI PUSH1 0x40 MLOAD PUSH3 0x461BCD PUSH1 0xE5 SHL DUP2 MSTORE PUSH1 0x20 PUSH1 0x4 DUP3 ADD MSTORE PUSH1 0x2B PUSH1 0x24 DUP3 ADD MSTORE PUSH32 0x4552433732313A3A2043616C6C20746F20636F6E7472616374206D6164652062 PUSH1 0x44 DUP3 ADD MSTORE PUSH11 0x3C903737B716B7BBB732B9 PUSH1 0xA9 SHL PUSH1 0x64 DUP3 ADD MSTORE PUSH1 0x84 ADD PUSH2 0x6B1 JUMP JUMPDEST DUP2 MLOAD PUSH1 0x41 EQ PUSH2 0x23C7 JUMPI PUSH1 0x40 MLOAD PUSH3 0x461BCD PUSH1 0xE5 SHL DUP2 MSTORE PUSH1 0x20 PUSH1 0x4 DUP3 ADD MSTORE PUSH1 0x1E PUSH1 0x24 DUP3 ADD MSTORE PUSH32 0x4572723A3A20496E76616C6964207369676E6174757265206C656E6774680000 PUSH1 0x44 DUP3 ADD MSTORE PUSH1 0x64 ADD PUSH2 0x6B1 JUMP JUMPDEST PUSH1 0x20 DUP3 DUP2 ADD MLOAD PUSH1 0x40 DUP1 DUP6 ADD MLOAD PUSH1 0x60 DUP1 DUP8 ADD MLOAD DUP4 MLOAD PUSH1 0x0 DUP1 DUP3 MSTORE SWAP7 DUP2 ADD DUP1 DUP7 MSTORE DUP11 SWAP1 MSTORE SWAP1 DUP7 BYTE SWAP4 DUP2 ADD DUP5 SWAP1 MSTORE SWAP1 DUP2 ADD DUP5 SWAP1 MSTORE PUSH1 0x80 DUP2 ADD DUP3 SWAP1 MSTORE SWAP3 SWAP4 SWAP1 SWAP3 PUSH1 0x1 SWAP1 PUSH1 0xA0 ADD PUSH1 0x20 PUSH1 0x40 MLOAD PUSH1 0x20 DUP2 SUB SWAP1 DUP1 DUP5 SUB SWAP1 DUP6 GAS STATICCALL ISZERO DUP1 ISZERO PUSH2 0x242B JUMPI RETURNDATASIZE PUSH1 0x0 DUP1 RETURNDATACOPY RETURNDATASIZE PUSH1 0x0 REVERT JUMPDEST POP POP PUSH1 0x40 MLOAD PUSH1 0x1F NOT DUP2 ADD MLOAD PUSH1 0x9 SLOAD SWAP1 SWAP4 POP PUSH1 0x1 PUSH1 0x1 PUSH1 0xA0 SHL SUB DUP1 DUP6 AND SWAP2 AND EQ SWAP2 POP DUP2 SWAP1 DUP10 SWAP1 PUSH32 0x7E4FE2A2A805A357593FDBDDE58C02F6A53D8B4960744CD31A98697FC11C2E36 SWAP1 PUSH1 0x0 SWAP1 LOG3 SWAP8 SWAP7 POP POP POP POP POP POP POP JUMP JUMPDEST PUSH2 0x248A DUP2 PUSH2 0x1F4F JUMP JUMPDEST PUSH2 0x24D6 JUMPI PUSH1 0x40 MLOAD PUSH3 0x461BCD PUSH1 0xE5 SHL DUP2 MSTORE PUSH1 0x20 PUSH1 0x4 DUP3 ADD MSTORE PUSH1 0x18 PUSH1 0x24 DUP3 ADD MSTORE PUSH32 0x4275726E206F6620696E6578697374656E7420746F6B656E0000000000000000 PUSH1 0x44 DUP3 ADD MSTORE PUSH1 0x64 ADD PUSH2 0x6B1 JUMP JUMPDEST PUSH1 0x0 PUSH2 0x24E1 DUP3 PUSH2 0x1263 JUMP JUMPDEST SWAP1 POP PUSH2 0x24EC DUP3 PUSH2 0x2190 JUMP JUMPDEST PUSH1 0x1 PUSH1 0x1 PUSH1 0xA0 SHL SUB AND PUSH1 0x0 SWAP1 DUP2 MSTORE PUSH1 0x8 PUSH1 0x20 SWAP1 DUP2 MSTORE PUSH1 0x40 DUP1 DUP4 KECCAK256 SWAP4 DUP4 MSTORE SWAP3 SWAP1 MSTORE KECCAK256 DUP1 SLOAD PUSH1 0xFF NOT AND SWAP1 SSTORE JUMP JUMPDEST PUSH1 0x1 PUSH1 0x1 PUSH1 0xA0 SHL SUB DUP4 AND PUSH2 0x253D JUMPI PUSH1 0x40 MLOAD PUSH3 0x461BCD PUSH1 0xE5 SHL DUP2 MSTORE PUSH1 0x4 ADD PUSH2 0x6B1 SWAP1 PUSH2 0x2C5F JUMP JUMPDEST DUP1 MLOAD PUSH1 0x0 SUB PUSH2 0x2580 JUMPI PUSH1 0x40 MLOAD PUSH3 0x461BCD PUSH1 0xE5 SHL DUP2 MSTORE PUSH1 0x20 PUSH1 0x4 DUP3 ADD MSTORE PUSH1 0xF PUSH1 0x24 DUP3 ADD MSTORE PUSH15 0x22B6B83A3C903A37B5B2B72AA92497 PUSH1 0x89 SHL PUSH1 0x44 DUP3 ADD MSTORE PUSH1 0x64 ADD PUSH2 0x6B1 JUMP JUMPDEST PUSH2 0x258B DUP4 DUP4 DUP4 PUSH2 0x25BD JUMP JUMPDEST POP POP PUSH1 0x1 PUSH1 0x1 PUSH1 0xA0 SHL SUB SWAP1 SWAP2 AND PUSH1 0x0 SWAP1 DUP2 MSTORE PUSH1 0x8 PUSH1 0x20 SWAP1 DUP2 MSTORE PUSH1 0x40 DUP1 DUP4 KECCAK256 SWAP4 DUP4 MSTORE SWAP3 SWAP1 MSTORE KECCAK256 DUP1 SLOAD PUSH1 0xFF NOT AND PUSH1 0x1 OR SWAP1 SSTORE JUMP JUMPDEST PUSH1 0x0 PUSH2 0x25C8 DUP4 PUSH2 0x1F4F JUMP JUMPDEST ISZERO PUSH2 0x260C JUMPI PUSH1 0x40 MLOAD PUSH3 0x461BCD PUSH1 0xE5 SHL DUP2 MSTORE PUSH1 0x20 PUSH1 0x4 DUP3 ADD MSTORE PUSH1 0x14 PUSH1 0x24 DUP3 ADD MSTORE PUSH20 0x6D696E743A20746F6B656E494420657869737473 PUSH1 0x60 SHL PUSH1 0x44 DUP3 ADD MSTORE PUSH1 0x64 ADD PUSH2 0x6B1 JUMP JUMPDEST PUSH1 0x1 PUSH1 0x1 PUSH1 0xA0 SHL SUB DUP5 AND PUSH1 0x0 SWAP1 DUP2 MSTORE PUSH1 0x5 PUSH1 0x20 MSTORE PUSH1 0x40 DUP2 KECCAK256 DUP1 SLOAD PUSH1 0x1 SWAP3 SWAP1 PUSH2 0x2635 SWAP1 DUP5 SWAP1 PUSH2 0x2CBE JUMP JUMPDEST SWAP1 SWAP2 SSTORE POP POP PUSH1 0x0 DUP4 DUP2 MSTORE PUSH1 0x3 PUSH1 0x20 SWAP1 DUP2 MSTORE PUSH1 0x40 DUP1 DUP4 KECCAK256 DUP1 SLOAD PUSH1 0x1 PUSH1 0x1 PUSH1 0xA0 SHL SUB NOT AND PUSH1 0x1 PUSH1 0x1 PUSH1 0xA0 SHL SUB DUP10 AND OR SWAP1 SSTORE PUSH1 0x4 SWAP1 SWAP2 MSTORE SWAP1 KECCAK256 PUSH2 0x2675 DUP4 DUP3 PUSH2 0x2D97 JUMP JUMPDEST POP PUSH1 0x40 MLOAD DUP4 SWAP1 PUSH1 0x1 PUSH1 0x1 PUSH1 0xA0 SHL SUB DUP7 AND SWAP1 PUSH32 0xE9274A84B19E9428826DE6BAE8C48329354F8F0E73F771B97CAE2D9DCCD45A27 SWAP1 PUSH1 0x0 SWAP1 LOG3 POP SWAP1 SWAP3 SWAP2 POP POP JUMP JUMPDEST POP DUP1 SLOAD PUSH2 0x26C0 SWAP1 PUSH2 0x2BC9 JUMP JUMPDEST PUSH1 0x0 DUP3 SSTORE DUP1 PUSH1 0x1F LT PUSH2 0x26D0 JUMPI POP POP JUMP JUMPDEST PUSH1 0x1F ADD PUSH1 0x20 SWAP1 DIV SWAP1 PUSH1 0x0 MSTORE PUSH1 0x20 PUSH1 0x0 KECCAK256 SWAP1 DUP2 ADD SWAP1 PUSH2 0x110A SWAP2 SWAP1 JUMPDEST DUP1 DUP3 GT ISZERO PUSH2 0x26FE JUMPI PUSH1 0x0 DUP2 SSTORE PUSH1 0x1 ADD PUSH2 0x26EA JUMP JUMPDEST POP SWAP1 JUMP JUMPDEST DUP1 CALLDATALOAD PUSH1 0x1 PUSH1 0x1 PUSH1 0xA0 SHL SUB DUP2 AND DUP2 EQ PUSH2 0x1ADF JUMPI PUSH1 0x0 DUP1 REVERT JUMPDEST PUSH1 0x0 DUP1 PUSH1 0x40 DUP4 DUP6 SUB SLT ISZERO PUSH2 0x272C JUMPI PUSH1 0x0 DUP1 REVERT JUMPDEST PUSH2 0x2735 DUP4 PUSH2 0x2702 JUMP JUMPDEST SWAP5 PUSH1 0x20 SWAP4 SWAP1 SWAP4 ADD CALLDATALOAD SWAP4 POP POP POP JUMP JUMPDEST PUSH1 0x0 PUSH1 0x20 DUP3 DUP5 SUB SLT ISZERO PUSH2 0x2755 JUMPI PUSH1 0x0 DUP1 REVERT JUMPDEST DUP2 CALLDATALOAD PUSH1 0x1 PUSH1 0x1 PUSH1 0xE0 SHL SUB NOT DUP2 AND DUP2 EQ PUSH2 0x1AA0 JUMPI PUSH1 0x0 DUP1 REVERT JUMPDEST PUSH1 0x0 JUMPDEST DUP4 DUP2 LT ISZERO PUSH2 0x2788 JUMPI DUP2 DUP2 ADD MLOAD DUP4 DUP3 ADD MSTORE PUSH1 0x20 ADD PUSH2 0x2770 JUMP JUMPDEST DUP4 DUP2 GT ISZERO PUSH2 0x2797 JUMPI PUSH1 0x0 DUP5 DUP5 ADD MSTORE JUMPDEST POP POP POP POP JUMP JUMPDEST PUSH1 0x20 DUP2 MSTORE PUSH1 0x0 DUP3 MLOAD DUP1 PUSH1 0x20 DUP5 ADD MSTORE PUSH2 0x27BC DUP2 PUSH1 0x40 DUP6 ADD PUSH1 0x20 DUP8 ADD PUSH2 0x276D JUMP JUMPDEST PUSH1 0x1F ADD PUSH1 0x1F NOT AND SWAP2 SWAP1 SWAP2 ADD PUSH1 0x40 ADD SWAP3 SWAP2 POP POP JUMP JUMPDEST PUSH4 0x4E487B71 PUSH1 0xE0 SHL PUSH1 0x0 MSTORE PUSH1 0x41 PUSH1 0x4 MSTORE PUSH1 0x24 PUSH1 0x0 REVERT JUMPDEST PUSH1 0x0 DUP3 PUSH1 0x1F DUP4 ADD SLT PUSH2 0x27F7 JUMPI PUSH1 0x0 DUP1 REVERT JUMPDEST DUP2 CALLDATALOAD PUSH8 0xFFFFFFFFFFFFFFFF DUP1 DUP3 GT ISZERO PUSH2 0x2812 JUMPI PUSH2 0x2812 PUSH2 0x27D0 JUMP JUMPDEST PUSH1 0x40 MLOAD PUSH1 0x1F DUP4 ADD PUSH1 0x1F NOT SWAP1 DUP2 AND PUSH1 0x3F ADD AND DUP2 ADD SWAP1 DUP3 DUP3 GT DUP2 DUP4 LT OR ISZERO PUSH2 0x283A JUMPI PUSH2 0x283A PUSH2 0x27D0 JUMP JUMPDEST DUP2 PUSH1 0x40 MSTORE DUP4 DUP2 MSTORE DUP7 PUSH1 0x20 DUP6 DUP9 ADD ADD GT ISZERO PUSH2 0x2853 JUMPI PUSH1 0x0 DUP1 REVERT JUMPDEST DUP4 PUSH1 0x20 DUP8 ADD PUSH1 0x20 DUP4 ADD CALLDATACOPY PUSH1 0x0 PUSH1 0x20 DUP6 DUP4 ADD ADD MSTORE DUP1 SWAP5 POP POP POP POP POP SWAP3 SWAP2 POP POP JUMP JUMPDEST PUSH1 0x0 DUP1 PUSH1 0x0 PUSH1 0x60 DUP5 DUP7 SUB SLT ISZERO PUSH2 0x2888 JUMPI PUSH1 0x0 DUP1 REVERT JUMPDEST DUP4 CALLDATALOAD SWAP3 POP PUSH1 0x20 DUP5 ADD CALLDATALOAD PUSH8 0xFFFFFFFFFFFFFFFF DUP2 GT ISZERO PUSH2 0x28A6 JUMPI PUSH1 0x0 DUP1 REVERT JUMPDEST PUSH2 0x28B2 DUP7 DUP3 DUP8 ADD PUSH2 0x27E6 JUMP JUMPDEST SWAP3 POP POP PUSH1 0x40 DUP5 ADD CALLDATALOAD SWAP1 POP SWAP3 POP SWAP3 POP SWAP3 JUMP JUMPDEST PUSH1 0x0 PUSH1 0x20 DUP3 DUP5 SUB SLT ISZERO PUSH2 0x28D5 JUMPI PUSH1 0x0 DUP1 REVERT JUMPDEST POP CALLDATALOAD SWAP2 SWAP1 POP JUMP JUMPDEST PUSH1 0x0 DUP1 PUSH1 0x0 PUSH1 0x60 DUP5 DUP7 SUB SLT ISZERO PUSH2 0x28F1 JUMPI PUSH1 0x0 DUP1 REVERT JUMPDEST PUSH2 0x28FA DUP5 PUSH2 0x2702 JUMP JUMPDEST SWAP6 PUSH1 0x20 DUP6 ADD CALLDATALOAD SWAP6 POP PUSH1 0x40 SWAP1 SWAP5 ADD CALLDATALOAD SWAP4 SWAP3 POP POP POP JUMP JUMPDEST PUSH1 0x0 PUSH1 0x20 DUP3 DUP5 SUB SLT ISZERO PUSH2 0x2921 JUMPI PUSH1 0x0 DUP1 REVERT JUMPDEST PUSH2 0x1AA0 DUP3 PUSH2 0x2702 JUMP JUMPDEST PUSH1 0x0 DUP1 PUSH1 0x40 DUP4 DUP6 SUB SLT ISZERO PUSH2 0x293D JUMPI PUSH1 0x0 DUP1 REVERT JUMPDEST PUSH2 0x2946 DUP4 PUSH2 0x2702 JUMP JUMPDEST SWAP2 POP PUSH1 0x20 DUP4 ADD CALLDATALOAD PUSH8 0xFFFFFFFFFFFFFFFF DUP2 GT ISZERO PUSH2 0x2962 JUMPI PUSH1 0x0 DUP1 REVERT JUMPDEST PUSH2 0x296E DUP6 DUP3 DUP7 ADD PUSH2 0x27E6 JUMP JUMPDEST SWAP2 POP POP SWAP3 POP SWAP3 SWAP1 POP JUMP JUMPDEST PUSH1 0x0 DUP1 PUSH1 0x0 DUP1 PUSH1 0x0 DUP1 PUSH1 0xC0 DUP8 DUP10 SUB SLT ISZERO PUSH2 0x2991 JUMPI PUSH1 0x0 DUP1 REVERT JUMPDEST PUSH2 0x299A DUP8 PUSH2 0x2702 JUMP JUMPDEST SWAP6 POP PUSH2 0x29A8 PUSH1 0x20 DUP9 ADD PUSH2 0x2702 JUMP JUMPDEST SWAP5 POP PUSH1 0x40 DUP8 ADD CALLDATALOAD SWAP4 POP PUSH1 0x60 DUP8 ADD CALLDATALOAD SWAP3 POP PUSH1 0x80 DUP8 ADD CALLDATALOAD SWAP2 POP PUSH1 0xA0 DUP8 ADD CALLDATALOAD PUSH8 0xFFFFFFFFFFFFFFFF DUP2 GT ISZERO PUSH2 0x29D9 JUMPI PUSH1 0x0 DUP1 REVERT JUMPDEST PUSH2 0x29E5 DUP10 DUP3 DUP11 ADD PUSH2 0x27E6 JUMP JUMPDEST SWAP2 POP POP SWAP3 SWAP6 POP SWAP3 SWAP6 POP SWAP3 SWAP6 JUMP JUMPDEST PUSH1 0x0 DUP1 PUSH1 0x0 DUP1 PUSH1 0x80 DUP6 DUP8 SUB SLT ISZERO PUSH2 0x2A08 JUMPI PUSH1 0x0 DUP1 REVERT JUMPDEST PUSH2 0x2A11 DUP6 PUSH2 0x2702 JUMP JUMPDEST SWAP4 POP PUSH2 0x2A1F PUSH1 0x20 DUP7 ADD PUSH2 0x2702 JUMP JUMPDEST SWAP4 SWAP7 SWAP4 SWAP6 POP POP POP POP PUSH1 0x40 DUP3 ADD CALLDATALOAD SWAP2 PUSH1 0x60 ADD CALLDATALOAD SWAP1 JUMP JUMPDEST PUSH1 0x0 DUP1 PUSH1 0x40 DUP4 DUP6 SUB SLT ISZERO PUSH2 0x2A47 JUMPI PUSH1 0x0 DUP1 REVERT JUMPDEST POP POP DUP1 CALLDATALOAD SWAP3 PUSH1 0x20 SWAP1 SWAP2 ADD CALLDATALOAD SWAP2 POP JUMP JUMPDEST PUSH1 0x0 DUP1 PUSH1 0x0 DUP1 PUSH1 0x0 PUSH1 0xA0 DUP7 DUP9 SUB SLT ISZERO PUSH2 0x2A6E JUMPI PUSH1 0x0 DUP1 REVERT JUMPDEST PUSH2 0x2A77 DUP7 PUSH2 0x2702 JUMP JUMPDEST SWAP5 POP PUSH1 0x20 DUP7 ADD CALLDATALOAD SWAP4 POP PUSH1 0x40 DUP7 ADD CALLDATALOAD PUSH8 0xFFFFFFFFFFFFFFFF DUP1 DUP3 GT ISZERO PUSH2 0x2A9B JUMPI PUSH1 0x0 DUP1 REVERT JUMPDEST PUSH2 0x2AA7 DUP10 DUP4 DUP11 ADD PUSH2 0x27E6 JUMP JUMPDEST SWAP5 POP PUSH1 0x60 DUP9 ADD CALLDATALOAD SWAP4 POP PUSH1 0x80 DUP9 ADD CALLDATALOAD SWAP2 POP DUP1 DUP3 GT ISZERO PUSH2 0x2AC4 JUMPI PUSH1 0x0 DUP1 REVERT JUMPDEST POP PUSH2 0x2AD1 DUP9 DUP3 DUP10 ADD PUSH2 0x27E6 JUMP JUMPDEST SWAP2 POP POP SWAP3 SWAP6 POP SWAP3 SWAP6 SWAP1 SWAP4 POP JUMP JUMPDEST PUSH1 0x0 DUP1 PUSH1 0x40 DUP4 DUP6 SUB SLT ISZERO PUSH2 0x2AF1 JUMPI PUSH1 0x0 DUP1 REVERT JUMPDEST DUP3 CALLDATALOAD SWAP2 POP PUSH1 0x20 DUP4 ADD CALLDATALOAD PUSH8 0xFFFFFFFFFFFFFFFF DUP2 GT ISZERO PUSH2 0x2962 JUMPI PUSH1 0x0 DUP1 REVERT JUMPDEST PUSH1 0x0 DUP1 PUSH1 0x0 PUSH1 0x60 DUP5 DUP7 SUB SLT ISZERO PUSH2 0x2B24 JUMPI PUSH1 0x0 DUP1 REVERT JUMPDEST PUSH2 0x2B2D DUP5 PUSH2 0x2702 JUMP JUMPDEST SWAP3 POP PUSH1 0x20 DUP5 ADD CALLDATALOAD SWAP2 POP PUSH1 0x40 DUP5 ADD CALLDATALOAD PUSH8 0xFFFFFFFFFFFFFFFF DUP2 GT ISZERO PUSH2 0x2B50 JUMPI PUSH1 0x0 DUP1 REVERT JUMPDEST PUSH2 0x2B5C DUP7 DUP3 DUP8 ADD PUSH2 0x27E6 JUMP JUMPDEST SWAP2 POP POP SWAP3 POP SWAP3 POP SWAP3 JUMP JUMPDEST PUSH1 0x20 DUP1 DUP3 MSTORE DUP2 DUP2 ADD MSTORE PUSH32 0x4F776E61626C653A2063616C6C6572206973206E6F7420746865206F776E6572 PUSH1 0x40 DUP3 ADD MSTORE PUSH1 0x60 ADD SWAP1 JUMP JUMPDEST PUSH1 0x20 DUP1 DUP3 MSTORE PUSH1 0x14 SWAP1 DUP3 ADD MSTORE PUSH20 0x4E6F7420416C6C6F776C697374204F776E657221 PUSH1 0x60 SHL PUSH1 0x40 DUP3 ADD MSTORE PUSH1 0x60 ADD SWAP1 JUMP JUMPDEST PUSH1 0x1 DUP2 DUP2 SHR SWAP1 DUP3 AND DUP1 PUSH2 0x2BDD JUMPI PUSH1 0x7F DUP3 AND SWAP2 POP JUMPDEST PUSH1 0x20 DUP3 LT DUP2 SUB PUSH2 0x2BFD JUMPI PUSH4 0x4E487B71 PUSH1 0xE0 SHL PUSH1 0x0 MSTORE PUSH1 0x22 PUSH1 0x4 MSTORE PUSH1 0x24 PUSH1 0x0 REVERT JUMPDEST POP SWAP2 SWAP1 POP JUMP JUMPDEST PUSH4 0x4E487B71 PUSH1 0xE0 SHL PUSH1 0x0 MSTORE PUSH1 0x11 PUSH1 0x4 MSTORE PUSH1 0x24 PUSH1 0x0 REVERT JUMPDEST PUSH1 0x0 DUP2 PUSH2 0x2C28 JUMPI PUSH2 0x2C28 PUSH2 0x2C03 JUMP JUMPDEST POP PUSH1 0x0 NOT ADD SWAP1 JUMP JUMPDEST PUSH1 0x0 DUP4 MLOAD PUSH2 0x2C42 DUP2 DUP5 PUSH1 0x20 DUP9 ADD PUSH2 0x276D JUMP JUMPDEST DUP4 MLOAD SWAP1 DUP4 ADD SWAP1 PUSH2 0x2C56 DUP2 DUP4 PUSH1 0x20 DUP9 ADD PUSH2 0x276D JUMP JUMPDEST ADD SWAP5 SWAP4 POP POP POP POP JUMP JUMPDEST PUSH1 0x20 DUP1 DUP3 MSTORE PUSH1 0x15 SWAP1 DUP3 ADD MSTORE PUSH21 0x26B4B73A103A37903D32B9379030B2323932B9B997 PUSH1 0x59 SHL PUSH1 0x40 DUP3 ADD MSTORE PUSH1 0x60 ADD SWAP1 JUMP JUMPDEST PUSH1 0x0 DUP3 DUP3 LT ISZERO PUSH2 0x2CA0 JUMPI PUSH2 0x2CA0 PUSH2 0x2C03 JUMP JUMPDEST POP SUB SWAP1 JUMP JUMPDEST PUSH1 0x0 PUSH1 0x1 DUP3 ADD PUSH2 0x2CB7 JUMPI PUSH2 0x2CB7 PUSH2 0x2C03 JUMP JUMPDEST POP PUSH1 0x1 ADD SWAP1 JUMP JUMPDEST PUSH1 0x0 DUP3 NOT DUP3 GT ISZERO PUSH2 0x2CD1 JUMPI PUSH2 0x2CD1 PUSH2 0x2C03 JUMP JUMPDEST POP ADD SWAP1 JUMP JUMPDEST PUSH4 0x4E487B71 PUSH1 0xE0 SHL PUSH1 0x0 MSTORE PUSH1 0x12 PUSH1 0x4 MSTORE PUSH1 0x24 PUSH1 0x0 REVERT JUMPDEST PUSH1 0x0 DUP3 PUSH2 0x2CFB JUMPI PUSH2 0x2CFB PUSH2 0x2CD6 JUMP JUMPDEST POP DIV SWAP1 JUMP JUMPDEST PUSH1 0x0 DUP3 PUSH2 0x2D0F JUMPI PUSH2 0x2D0F PUSH2 0x2CD6 JUMP JUMPDEST POP MOD SWAP1 JUMP JUMPDEST PUSH4 0x4E487B71 PUSH1 0xE0 SHL PUSH1 0x0 MSTORE PUSH1 0x32 PUSH1 0x4 MSTORE PUSH1 0x24 PUSH1 0x0 REVERT JUMPDEST PUSH1 0x0 DUP2 PUSH1 0x0 NOT DIV DUP4 GT DUP3 ISZERO ISZERO AND ISZERO PUSH2 0x2D44 JUMPI PUSH2 0x2D44 PUSH2 0x2C03 JUMP JUMPDEST POP MUL SWAP1 JUMP JUMPDEST PUSH1 0x1F DUP3 GT ISZERO PUSH2 0xA07 JUMPI PUSH1 0x0 DUP2 DUP2 MSTORE PUSH1 0x20 DUP2 KECCAK256 PUSH1 0x1F DUP6 ADD PUSH1 0x5 SHR DUP2 ADD PUSH1 0x20 DUP7 LT ISZERO PUSH2 0x2D70 JUMPI POP DUP1 JUMPDEST PUSH1 0x1F DUP6 ADD PUSH1 0x5 SHR DUP3 ADD SWAP2 POP JUMPDEST DUP2 DUP2 LT ISZERO PUSH2 0x2D8F JUMPI DUP3 DUP2 SSTORE PUSH1 0x1 ADD PUSH2 0x2D7C JUMP JUMPDEST POP POP POP POP POP POP JUMP JUMPDEST DUP2 MLOAD PUSH8 0xFFFFFFFFFFFFFFFF DUP2 GT ISZERO PUSH2 0x2DB1 JUMPI PUSH2 0x2DB1 PUSH2 0x27D0 JUMP JUMPDEST PUSH2 0x2DC5 DUP2 PUSH2 0x2DBF DUP5 SLOAD PUSH2 0x2BC9 JUMP JUMPDEST DUP5 PUSH2 0x2D49 JUMP JUMPDEST PUSH1 0x20 DUP1 PUSH1 0x1F DUP4 GT PUSH1 0x1 DUP2 EQ PUSH2 0x2DFA JUMPI PUSH1 0x0 DUP5 ISZERO PUSH2 0x2DE2 JUMPI POP DUP6 DUP4 ADD MLOAD JUMPDEST PUSH1 0x0 NOT PUSH1 0x3 DUP7 SWAP1 SHL SHR NOT AND PUSH1 0x1 DUP6 SWAP1 SHL OR DUP6 SSTORE PUSH2 0x2D8F JUMP JUMPDEST PUSH1 0x0 DUP6 DUP2 MSTORE PUSH1 0x20 DUP2 KECCAK256 PUSH1 0x1F NOT DUP7 AND SWAP2 JUMPDEST DUP3 DUP2 LT ISZERO PUSH2 0x2E29 JUMPI DUP9 DUP7 ADD MLOAD DUP3 SSTORE SWAP5 DUP5 ADD SWAP5 PUSH1 0x1 SWAP1 SWAP2 ADD SWAP1 DUP5 ADD PUSH2 0x2E0A JUMP JUMPDEST POP DUP6 DUP3 LT ISZERO PUSH2 0x2E47 JUMPI DUP8 DUP6 ADD MLOAD PUSH1 0x0 NOT PUSH1 0x3 DUP9 SWAP1 SHL PUSH1 0xF8 AND SHR NOT AND DUP2 SSTORE JUMPDEST POP POP POP POP POP PUSH1 0x1 SWAP1 DUP2 SHL ADD SWAP1 SSTORE POP JUMP INVALID LOG2 PUSH5 0x6970667358 0x22 SLT KECCAK256 0xD8 0x4B 0xE3 SHL SSTORE 0xB9 SWAP6 PUSH31 0xEDEC9AC513CD6049F6F334A1EBC344347050CA815BD44D6864736F6C634300 ADDMOD 0xF STOP CALLER ",
  "sha1": "6b88f2fffb0e719e45e6f7b0610f3a978370d776",
  "source": "// SPDX-License-Identifier: GPL-3.0\n\n///  _____     ______     ______     ______     ______     ______     _____    \n/// /\\  __-.  /\\  __ \\   /\\  ___\\   /\\  ___\\   /\\  == \\   /\\  ___\\   /\\  __-.  \n/// \\ \\ \\/\\ \\ \\ \\  __ \\  \\ \\ \\____  \\ \\ \\____  \\ \\  __<   \\ \\  __\\   \\ \\ \\/\\ \\ \n///  \\ \\____-  \\ \\_\\ \\_\\  \\ \\_____\\  \\ \\_____\\  \\ \\_\\ \\_\\  \\ \\_____\\  \\ \\____- \n///   \\/____/   \\/_/\\/_/   \\/_____/   \\/_____/   \\/_/ /_/   \\/_____/   \\/____/ \n\npragma solidity ^0.8.8;\n\nimport \"./SoulboundWithSignature.sol\";\nimport \"./IsValidWithDate.sol\";\n\n/**\n * @title Soulbound Redeemable.\n * @author Daccred.\n * @dev  An instance of the Soulbound token with capped supply\n *       and tokens having their own individual expiry date.\n *       Tokens are minted to and are pendng until receivers\n *       pay to receive their complete token.\n */\ncontract SoulboundRedeemable is IsValidWithDate, SoulboundWithSignature {\n    /// @dev Total sales of tokens [Total tokens paid for].\n    uint256 private totalSales;\n    /// @dev Total revenue from sales.\n    uint256 private totalRevenue;\n    /// @dev Price Limit [in eth] set by deploying contract.\n    uint256 private priceLimit;\n    /// @dev Price of individual tokens, set by deployer.\n    uint256 private tokenPrice;\n    /// @dev Pending token receivals.\n    mapping(uint256 => bool) private pending;\n    /// @dev Pending address to receive tokens.\n    mapping(uint256 => address) private pendingReceivers;\n    /// @dev    Tax for token redemptions.\n    ///         15 represents 1.5% of total sales.\n    uint256 private tax = 15;\n    /// @dev ReEntrancy Lock.\n    bool private locked;\n\n    /// @dev Emitted when a token is redeemed.\n    event Redeemed(uint256 indexed tokenId, uint256 indexed extension);\n\n    /// @dev    Deploy the SoulboundWithSignature with set\n    ///         total supply, priceLimit and price of an individual token.\n    constructor(\n        string memory name,\n        string memory symbol,\n        address _allowlistOwner,\n        uint256 _totalSupply,\n        uint256 _priceLimit,\n        uint256 _tokenPrice\n    ) SoulboundWithSignature(name, symbol, _allowlistOwner, _totalSupply) {\n        /// @dev Ensure that limit is higher or equal to individual token price.\n        require(_tokenPrice <= _priceLimit, \"Price higher than limit.\");\n        /// @dev Set priceLimit.\n        priceLimit = _priceLimit;\n        /// @dev Set individual token price.\n        tokenPrice = _tokenPrice;\n    }\n\n    /// @dev Receive function.\n    receive() external payable {}\n\n    /// @dev Fallback function.\n    fallback() external payable {}\n\n    /**\n     * @dev Protect against Re-Entrancy.\n     */\n    modifier nonReentrant() {\n        require(!locked);\n        locked = true;\n        _;\n        locked = false;\n    }\n\n    /**\n     * @dev Return the price of one token, set by the deployer.\n     *\n     * @notice Callable by anyone.\n     *\n     * @return _tokenPrice Price of a single token.\n     */\n    function getIndividualTokenPrice()\n        public\n        view\n        returns (uint256 _tokenPrice)\n    {\n        _tokenPrice = tokenPrice;\n    }\n\n    /**\n     * @dev Return the highest possible price for a token.\n     *\n     * @notice Callable by anyone.\n     *\n     * @return _priceLimit Highest possible price.\n     */\n    function getPriceLimit() public view returns (uint256 _priceLimit) {\n        _priceLimit = priceLimit;\n    }\n\n    /**\n     * @dev Allows `caller` to set `_price` as price of one token.\n     *\n     * @notice   Callable by the deployer of this contract [DaccredDeployer]\n     *           and the allowlistOwner.\n     *\n     * @param caller AllowlistOwner.\n     * @param _price New price.\n     */\n    function setPrice(address caller, uint256 _price)\n        public\n        onlyOwner\n        onlyAllowlistOwner(caller)\n    {\n        /// @dev Ensure that the price passed isn't more than the price limit.\n        require(_price <= getPriceLimit(), \"Price higher than limit.\");\n        /// @dev Set price.\n        tokenPrice = _price;\n    }\n\n    /**\n     * @dev  Mints a pending soulbound token to `to`.\n     *       Pending tokens are minted and the receiver pays\n     *       to receive and completely mint them.\n     *\n     * @notice   Callable by the deployer of this contract [DaccredDeployer]\n     *           and the allowlistOwner.\n     *\n     * @param from               Allowlist owner.\n     * @param to                 Receiver.\n     * @param tokenId            Id of token to be minted.\n     * @param _tokenExpiryDate   Set expiry date from the deployer.\n     */\n    function mintPendingRedeemableToken(\n        address from,\n        address to,\n        uint256 tokenId,\n        uint256 _tokenExpiryDate\n    ) public onlyOwner onlyAllowlistOwner(from) {\n        /// @dev Ensure that the supply is not crossed.\n        /// @dev    Should all soulbound tokens need to be limited,\n        ///         copy this code and paste in Soulboundcore.sol\n        ///         issueWithSignature function.\n        require(supply < totalSupply, \"Issue Cap Reached.\");\n        /// @dev Require `to` is not a zero address.\n        require(to != address(0), \"Mint to zero address.\");\n        /// @dev Require the token does not exist already.\n        require(!_exists(tokenId), \"Mint of already existing token.\");\n        /// @dev Require that the token is not on the pending list.\n        require(!pending[tokenId], \"Mint of already pending token.\");\n        /// @dev Set the token's pending state to true.\n        pending[tokenId] = true;\n        /// @dev Set the pending receiver of the token to `to`.\n        pendingReceivers[tokenId] = to;\n        /// @dev Set a new expiry date for the token.\n        extendExpiry(tokenId, _tokenExpiryDate);\n        /// @dev Increment supply.\n        supply++;\n    }\n\n    /**\n     * @dev  Allows the `_receiver` to pay the price of one token to\n     *       fully mint the pending token.\n     *\n     * @notice   Callable by the deployer of this contract [DaccredDeployer].\n     *\n     * @param _receiver  Receiver of the token.\n     * @param tokenId    Pending tokenId for the receiver.\n     */\n    function payToReceiveToken(address _receiver, uint256 tokenId)\n        public\n        payable\n        onlyOwner\n        nonReentrant\n    {\n        /// @dev Require that the receiver is not a zero address.\n        require(_receiver != address(0), \"Mint to zero address.\");\n        /// @dev Require that the token does not exist yet.\n        require(!_exists(tokenId), \"Mint of already existing token.\");\n        /// @dev Require that the token is indeed pending.\n        require(pending[tokenId], \"Already received token.\");\n        /// @dev    Require that the expected receiver of pending\n        ///         token is the `_receiver`.\n        require(\n            pendingReceivers[tokenId] == _receiver,\n            \"Not pending receiver.\"\n        );\n        /// @dev Require that the token has not expired already.\n        require(isValid(tokenId), \"Receival of expired token, redeem token.\");\n        /// @dev Require that the amount sent is GTE the price of one token.\n        require(msg.value >= tokenPrice, \"Price lower than token cost.\");\n        /// @dev Initialize balance.\n        uint256 balance;\n\n        /// @dev If the amount sent is bigger than the price of one token.\n        if (msg.value > tokenPrice) {\n            /// @dev Calculate the balance of the `_receiver`.\n            balance = msg.value - tokenPrice;\n            /// @dev Pay the `_receiver` his balance.\n            payable(_receiver).transfer(balance);\n        }\n\n        /// @dev Generate tokenURI.\n        string memory _tokenURI = generateTokenURI(tokenId);\n        /// @dev Finally issue the token to the `_receiver`.\n        issue(_receiver, tokenId, _tokenURI);\n        /// @dev Increment totalSales.\n        totalSales++;\n        /// @dev Add to the total Revenue.\n        totalRevenue += tokenPrice;\n        /// @dev Set the pending token to false.\n        pending[tokenId] = false;\n        /// @dev Delete the pending receiver.\n        delete pendingReceivers[tokenId];\n    }\n\n    /**\n     * @dev  For expired pending tokens, this function redeems them and makes\n     *       valid for another period of time.\n     *       Tokens must be expired for it to be redeemed.\n     *       Emits the {Redeemed} event.\n     *\n     * @notice   Callable by the deployer of this contract [DaccredDeployer].\n     *\n     * @param _receiver          Receiver of the token.\n     * @param tokenId            Pending tokenId for the receiver.\n     * @param _tokenExpiryDate   New expiry date for tokens.\n     */\n    function redeemPendingToken(\n        address _receiver,\n        uint256 tokenId,\n        uint256 _tokenExpiryDate\n    ) public payable onlyOwner nonReentrant {\n        /// @dev Require _receiver is not a zero address.\n        require(_receiver != address(0), \"Redemption to zero address.\");\n        /// @dev Require tokenId is existent.\n        require(!_exists(tokenId), \"Redemption of existing token.\");\n        /// @dev Require that the token is still pending.\n        require(pending[tokenId], \"Already received token.\");\n        /// @dev Require that the pending receiver is the `_receiver`.\n        require(\n            pendingReceivers[tokenId] == _receiver,\n            \"Not pending receiver.\"\n        );\n        /// @dev Require the token has expired.\n        require(!isValid(tokenId), \"Token unexpired.\");\n        /// @dev Calculate tax.\n        uint256 _tax = calculateTax(tax);\n        /// @dev Require that the amount sent is GTE the tax.\n        require(msg.value >= _tax, \"Price lower than redemption tax.\");\n        /// @dev Initiate balance.\n        uint256 balance;\n\n        /// @dev If the tax is not 0.\n        if (_tax != 0) {\n            /// @dev Calculate receiver's balance.\n            balance = msg.value - _tax;\n            /// @dev Pay to receiver.\n            payable(_receiver).transfer(balance);\n        }\n\n        /// @dev Extend expiry of tokenId.\n        extendExpiry(tokenId, _tokenExpiryDate);\n        /// @dev Emit the Redeemed event.\n        emit Redeemed(tokenId, _tokenExpiryDate);\n    }\n\n    /**\n     * @dev  For expired minted tokens, this function redeems them and makes\n     *       valid for another period of time.\n     *       Tokens must be expired for it to be redeemed.\n     *       Emits the {Redeemed} event.\n     *\n     * @notice   Callable by the deployer of this contract [DaccredDeployer].\n     *\n     * @param _receiver          Receiver of the token.\n     * @param tokenId            Pending tokenId for the receiver.\n     * @param _tokenExpiryDate   New expiry date for tokens.\n     */\n    function redeemMintedToken(\n        address _receiver,\n        uint256 tokenId,\n        uint256 _tokenExpiryDate\n    ) public payable onlyOwner nonReentrant {\n        /// @dev Require _receiver is not a zero address.\n        require(_receiver != address(0), \"Redemption to zero address.\");\n        /// @dev Require tokenId is existent.\n        require(_exists(tokenId), \"Redemption of non-existing token.\");\n        /// @dev Require that the token is still pending.\n        require(!pending[tokenId], \"Token still pending.\");\n        /// @dev Require that the pending receiver is the `_receiver`.\n        require(ownerOf(tokenId) == _receiver, \"Not token owner.\");\n        /// @dev Require the token has expired.\n        require(!isValid(tokenId), \"Token unexpired.\");\n        /// @dev Calculate tax.\n        uint256 _tax = calculateTax(tax);\n        /// @dev Require that the amount sent is GTE the tax.\n        require(msg.value >= _tax, \"Price lower than redemption tax.\");\n        /// @dev Initiate balance.\n        uint256 balance;\n\n        /// @dev If the tax is not 0.\n        if (_tax != 0) {\n            /// @dev Calculate receiver's balance.\n            balance = msg.value - _tax;\n            /// @dev Pay to receiver.\n            payable(_receiver).transfer(balance);\n        }\n\n        /// @dev Extend expiry of tokenId.\n        extendExpiry(tokenId, _tokenExpiryDate);\n        /// @dev Emit the Redeemed event.\n        emit Redeemed(tokenId, _tokenExpiryDate);\n    }\n\n    /**\n     * @dev  Allows the allowlistOwner to redeem an expired pending\n     *       token on behalf of the tokenOwner.\n     *\n     * @notice   Callable by the deployer of this contract [DaccredDeployer]\n     *           and the allowlistOwner.\n     *\n     * @param _caller            Allowlist owner.\n     * @param _receiver          Address of receiver.\n     * @param tokenId            TokenId.\n     * @param _tokenExpiryDate   Days to extend the token.\n     * @param hash               Hash of message.\n     * @param sig                Signature.\n     */\n    function redeemPendingTokenWithSignature(\n        address _caller,\n        address _receiver,\n        uint256 tokenId,\n        uint256 _tokenExpiryDate,\n        bytes32 hash,\n        bytes memory sig\n    ) public payable onlyOwner onlyAllowlistOwner(_caller) nonReentrant {\n        /// @dev Require that the signer is the allowlistowner.\n        require(verifySignature(hash, sig), \"Hash not signed by you.\");\n        /// @dev RedeemToken.\n        redeemPendingToken(_receiver, tokenId, _tokenExpiryDate);\n    }\n\n    /**\n     * @dev  Allows the allowlistOwner to redeem an expired minted\n     *       token on behalf of the tokenOwner.\n     *\n     * @notice   Callable by the deployer of this contract [DaccredDeployer]\n     *           and the allowlistOwner.\n     *\n     * @param _caller            Allowlist owner.\n     * @param _receiver          Address of receiver.\n     * @param tokenId            TokenId.\n     * @param _tokenExpiryDate   Days to extend the token.\n     * @param hash               Hash of message.\n     * @param sig                Signature.\n     */\n    function redeemMintedTokenWithSignature(\n        address _caller,\n        address _receiver,\n        uint256 tokenId,\n        uint256 _tokenExpiryDate,\n        bytes32 hash,\n        bytes memory sig\n    ) public payable onlyOwner onlyAllowlistOwner(_caller) nonReentrant {\n        /// @dev Require that the signer is the allowlistowner.\n        require(verifySignature(hash, sig), \"Hash not signed by you.\");\n        /// @dev RedeemToken.\n        redeemMintedToken(_receiver, tokenId, _tokenExpiryDate);\n    }\n\n    /**\n     * @dev  Allows the allowlistowner to withdraw his funds to his wallet.\n     *\n     * @notice   Callable by the deployer of this contract [DaccredDeployer]\n     *           and the allowlistOwner.\n     *\n     * @param _caller Address of allowlistowner.\n     */\n    function withdraw(address _caller)\n        public\n        onlyOwner\n        onlyAllowlistOwner(_caller)\n    {\n        /// @dev Require that the allowlistowner is not a zero address.\n        require(_caller != address(0), \"Sending to zero address.\");\n        /// @dev Require that the balance of this contract is GTE the totalRevenue.\n        require(\n            address(this).balance >= totalRevenue,\n            \"Revenue != Contract balance.\"\n        );\n        /// @dev Pay the totalRevenue to the allowlistowner.\n        payable(_caller).transfer(totalRevenue);\n        /// @dev Set the totalRevenue to 0.\n        totalRevenue = 0;\n    }\n\n    /**\n     * @dev Calculates the tax off the totalSales.\n     *\n     * @param _tax Percentage tax.\n     *\n     * @return __tax Tax calculated.\n     */\n    function calculateTax(uint256 _tax) private view returns (uint256 __tax) {\n        /// Grant free tax if the total revenue of the contract is\n        /// in range of 0 - 500 gwei.\n        if (totalRevenue >= 0 && totalRevenue < 500 gwei) {\n            /// @dev Set tax to 0.\n            _tax = 0;\n        }\n\n        /// Else simply calculate tax on total revenue.\n        __tax = (_tax * totalRevenue * 10) / 1000;\n    }\n}\n",
  "sourcePath": "contracts/contracts/packages/soulbound/contracts/SoulboundRedeemable.sol",
  "type": "contract"
}