{
  "abi": [
    {
      "inputs": [
        {
          "internalType": "string",
          "name": "name",
          "type": "string"
        },
        {
          "internalType": "string",
          "name": "symbol",
          "type": "string"
        },
        {
          "internalType": "address",
          "name": "_allowlistOwner",
          "type": "address"
        },
        {
          "internalType": "uint256",
          "name": "_totalSupply",
          "type": "uint256"
        }
      ],
      "stateMutability": "nonpayable",
      "type": "constructor"
    },
    {
      "inputs": [
        {
          "internalType": "address",
          "name": "_address",
          "type": "address"
        }
      ],
      "name": "Unsigned",
      "type": "error"
    },
    {
      "anonymous": false,
      "inputs": [
        {
          "indexed": true,
          "internalType": "address",
          "name": "to",
          "type": "address"
        },
        {
          "indexed": true,
          "internalType": "uint256",
          "name": "tokenId",
          "type": "uint256"
        }
      ],
      "name": "Attest",
      "type": "event"
    },
    {
      "anonymous": false,
      "inputs": [
        {
          "indexed": true,
          "internalType": "address",
          "name": "to",
          "type": "address"
        },
        {
          "indexed": true,
          "internalType": "uint256",
          "name": "tokenId",
          "type": "uint256"
        }
      ],
      "name": "IssueWithSignature",
      "type": "event"
    },
    {
      "anonymous": false,
      "inputs": [
        {
          "indexed": true,
          "internalType": "address",
          "name": "previousOwner",
          "type": "address"
        },
        {
          "indexed": true,
          "internalType": "address",
          "name": "newOwner",
          "type": "address"
        }
      ],
      "name": "OwnershipTransferred",
      "type": "event"
    },
    {
      "anonymous": false,
      "inputs": [
        {
          "indexed": true,
          "internalType": "address",
          "name": "to",
          "type": "address"
        },
        {
          "indexed": true,
          "internalType": "uint256",
          "name": "tokenId",
          "type": "uint256"
        }
      ],
      "name": "Revoke",
      "type": "event"
    },
    {
      "anonymous": false,
      "inputs": [
        {
          "indexed": true,
          "internalType": "uint256",
          "name": "tokenId",
          "type": "uint256"
        }
      ],
      "name": "RevokeWithSignature",
      "type": "event"
    },
    {
      "anonymous": false,
      "inputs": [
        {
          "indexed": true,
          "internalType": "address",
          "name": "_address",
          "type": "address"
        }
      ],
      "name": "Signed",
      "type": "event"
    },
    {
      "anonymous": false,
      "inputs": [
        {
          "indexed": true,
          "internalType": "address",
          "name": "_address",
          "type": "address"
        }
      ],
      "name": "Verified",
      "type": "event"
    },
    {
      "anonymous": false,
      "inputs": [
        {
          "indexed": true,
          "internalType": "bytes32",
          "name": "addressHash",
          "type": "bytes32"
        },
        {
          "indexed": true,
          "internalType": "bool",
          "name": "result",
          "type": "bool"
        }
      ],
      "name": "VerifySignature",
      "type": "event"
    },
    {
      "inputs": [],
      "name": "_getBaseURI",
      "outputs": [
        {
          "internalType": "string",
          "name": "_baseURI",
          "type": "string"
        }
      ],
      "stateMutability": "view",
      "type": "function"
    },
    {
      "inputs": [
        {
          "internalType": "address",
          "name": "owner",
          "type": "address"
        }
      ],
      "name": "balanceOf",
      "outputs": [
        {
          "internalType": "uint256",
          "name": "",
          "type": "uint256"
        }
      ],
      "stateMutability": "view",
      "type": "function"
    },
    {
      "inputs": [
        {
          "internalType": "uint256",
          "name": "tokenId",
          "type": "uint256"
        }
      ],
      "name": "burn",
      "outputs": [],
      "stateMutability": "nonpayable",
      "type": "function"
    },
    {
      "inputs": [
        {
          "internalType": "uint256",
          "name": "tokenId",
          "type": "uint256"
        }
      ],
      "name": "generateTokenURI",
      "outputs": [
        {
          "internalType": "string",
          "name": "_tokenURI",
          "type": "string"
        }
      ],
      "stateMutability": "view",
      "type": "function"
    },
    {
      "inputs": [],
      "name": "getAllowlistOwner",
      "outputs": [
        {
          "internalType": "address",
          "name": "",
          "type": "address"
        }
      ],
      "stateMutability": "view",
      "type": "function"
    },
    {
      "inputs": [
        {
          "internalType": "address",
          "name": "_to",
          "type": "address"
        },
        {
          "internalType": "uint256",
          "name": "_tokenId",
          "type": "uint256"
        }
      ],
      "name": "isMinted",
      "outputs": [
        {
          "internalType": "bool",
          "name": "",
          "type": "bool"
        }
      ],
      "stateMutability": "view",
      "type": "function"
    },
    {
      "inputs": [
        {
          "internalType": "address",
          "name": "addr",
          "type": "address"
        },
        {
          "internalType": "bytes32",
          "name": "hash",
          "type": "bytes32"
        },
        {
          "internalType": "bytes",
          "name": "sig",
          "type": "bytes"
        },
        {
          "internalType": "uint256",
          "name": "tokenId",
          "type": "uint256"
        },
        {
          "internalType": "string",
          "name": "tokenURI",
          "type": "string"
        }
      ],
      "name": "issueWithSignature",
      "outputs": [],
      "stateMutability": "nonpayable",
      "type": "function"
    },
    {
      "inputs": [
        {
          "internalType": "address",
          "name": "_to",
          "type": "address"
        },
        {
          "internalType": "uint256",
          "name": "_tokenId",
          "type": "uint256"
        }
      ],
      "name": "issuerOf",
      "outputs": [
        {
          "internalType": "address",
          "name": "",
          "type": "address"
        }
      ],
      "stateMutability": "view",
      "type": "function"
    },
    {
      "inputs": [],
      "name": "name",
      "outputs": [
        {
          "internalType": "string",
          "name": "",
          "type": "string"
        }
      ],
      "stateMutability": "view",
      "type": "function"
    },
    {
      "inputs": [],
      "name": "owner",
      "outputs": [
        {
          "internalType": "address",
          "name": "",
          "type": "address"
        }
      ],
      "stateMutability": "view",
      "type": "function"
    },
    {
      "inputs": [
        {
          "internalType": "address",
          "name": "addr",
          "type": "address"
        },
        {
          "internalType": "bytes32",
          "name": "hash",
          "type": "bytes32"
        },
        {
          "internalType": "bytes",
          "name": "sig",
          "type": "bytes"
        },
        {
          "internalType": "uint256",
          "name": "tokenId",
          "type": "uint256"
        },
        {
          "internalType": "string",
          "name": "tokenURI",
          "type": "string"
        }
      ],
      "name": "ownerIssueWithSignature",
      "outputs": [],
      "stateMutability": "nonpayable",
      "type": "function"
    },
    {
      "inputs": [
        {
          "internalType": "uint256",
          "name": "tokenId",
          "type": "uint256"
        }
      ],
      "name": "ownerOf",
      "outputs": [
        {
          "internalType": "address",
          "name": "",
          "type": "address"
        }
      ],
      "stateMutability": "view",
      "type": "function"
    },
    {
      "inputs": [
        {
          "internalType": "bytes32",
          "name": "hash",
          "type": "bytes32"
        },
        {
          "internalType": "bytes",
          "name": "sig",
          "type": "bytes"
        },
        {
          "internalType": "uint256",
          "name": "tokenId",
          "type": "uint256"
        }
      ],
      "name": "ownerRevokeWithSignature",
      "outputs": [],
      "stateMutability": "nonpayable",
      "type": "function"
    },
    {
      "inputs": [],
      "name": "renounceOwnership",
      "outputs": [],
      "stateMutability": "nonpayable",
      "type": "function"
    },
    {
      "inputs": [
        {
          "internalType": "bytes32",
          "name": "hash",
          "type": "bytes32"
        },
        {
          "internalType": "bytes",
          "name": "sig",
          "type": "bytes"
        },
        {
          "internalType": "uint256",
          "name": "tokenId",
          "type": "uint256"
        }
      ],
      "name": "revokeWithSignature",
      "outputs": [],
      "stateMutability": "nonpayable",
      "type": "function"
    },
    {
      "inputs": [
        {
          "internalType": "address",
          "name": "caller",
          "type": "address"
        },
        {
          "internalType": "string",
          "name": "_baseURI",
          "type": "string"
        }
      ],
      "name": "setBaseURI",
      "outputs": [],
      "stateMutability": "nonpayable",
      "type": "function"
    },
    {
      "inputs": [
        {
          "internalType": "bytes4",
          "name": "interfaceId",
          "type": "bytes4"
        }
      ],
      "name": "supportsInterface",
      "outputs": [
        {
          "internalType": "bool",
          "name": "",
          "type": "bool"
        }
      ],
      "stateMutability": "view",
      "type": "function"
    },
    {
      "inputs": [],
      "name": "symbol",
      "outputs": [
        {
          "internalType": "string",
          "name": "",
          "type": "string"
        }
      ],
      "stateMutability": "view",
      "type": "function"
    },
    {
      "inputs": [
        {
          "internalType": "uint256",
          "name": "tokenId",
          "type": "uint256"
        }
      ],
      "name": "tokenURI",
      "outputs": [
        {
          "internalType": "string",
          "name": "",
          "type": "string"
        }
      ],
      "stateMutability": "view",
      "type": "function"
    },
    {
      "inputs": [
        {
          "internalType": "address",
          "name": "newOwner",
          "type": "address"
        }
      ],
      "name": "transferOwnership",
      "outputs": [],
      "stateMutability": "nonpayable",
      "type": "function"
    },
    {
      "inputs": [
        {
          "internalType": "bytes32",
          "name": "hash",
          "type": "bytes32"
        },
        {
          "internalType": "bytes",
          "name": "sig",
          "type": "bytes"
        }
      ],
      "name": "verifySignature",
      "outputs": [
        {
          "internalType": "bool",
          "name": "",
          "type": "bool"
        }
      ],
      "stateMutability": "nonpayable",
      "type": "function"
    },
    {
      "inputs": [
        {
          "internalType": "address",
          "name": "_signer",
          "type": "address"
        },
        {
          "internalType": "bytes32",
          "name": "_hash",
          "type": "bytes32"
        },
        {
          "internalType": "bytes",
          "name": "_signature",
          "type": "bytes"
        }
      ],
      "name": "verifySigner",
      "outputs": [
        {
          "internalType": "bool",
          "name": "",
          "type": "bool"
        }
      ],
      "stateMutability": "pure",
      "type": "function"
    }
  ],
  "bytecode": "60806040523480156200001157600080fd5b5060405162001ff538038062001ff5833981016040819052620000349162000235565b83838383818484818160006200004b838262000357565b5060016200005a828262000357565b50505062000077620000716200011260201b60201c565b62000116565b50506001600160a01b038116620000c75760405162461bcd60e51b815260206004820152601060248201526f24b73b30b634b21020b2323932b9b99760811b604482015260640160405180910390fd5b600880546001600160a01b0319166001600160a01b03929092169190911790556000819003620000fe57620f424060095562000104565b60098190555b505050505050505062000423565b3390565b600580546001600160a01b038381166001600160a01b0319831681179093556040519116919082907f8be0079c531659141344cd1fd0a4f28419497f9722a3daafe3b4186f6b6457e090600090a35050565b634e487b7160e01b600052604160045260246000fd5b600082601f8301126200019057600080fd5b81516001600160401b0380821115620001ad57620001ad62000168565b604051601f8301601f19908116603f01168101908282118183101715620001d857620001d862000168565b81604052838152602092508683858801011115620001f557600080fd5b600091505b83821015620002195785820183015181830184015290820190620001fa565b838211156200022b5760008385830101525b9695505050505050565b600080600080608085870312156200024c57600080fd5b84516001600160401b03808211156200026457600080fd5b62000272888389016200017e565b955060208701519150808211156200028957600080fd5b5062000298878288016200017e565b604087015190945090506001600160a01b0381168114620002b857600080fd5b6060959095015193969295505050565b600181811c90821680620002dd57607f821691505b602082108103620002fe57634e487b7160e01b600052602260045260246000fd5b50919050565b601f8211156200035257600081815260208120601f850160051c810160208610156200032d5750805b601f850160051c820191505b818110156200034e5782815560010162000339565b5050505b505050565b81516001600160401b0381111562000373576200037362000168565b6200038b81620003848454620002c8565b8462000304565b602080601f831160018114620003c35760008415620003aa5750858301515b600019600386901b1c1916600185901b1785556200034e565b600085815260208120601f198616915b82811015620003f457888601518255948401946001909101908401620003d3565b5085821015620004135787850151600019600388901b60f8161c191681555b5050505050600190811b01905550565b611bc280620004336000396000f3fe608060405234801561001057600080fd5b50600436106101425760003560e01c806388433651116100b8578063c9e4c54d1161007c578063c9e4c54d146102b7578063daca6f78146102ca578063e92b0842146102dd578063ea5353c7146102f0578063f2fde38b14610303578063fb8f198d1461031657600080fd5b806388433651146102705780638da5cb5b1461028357806395d89b4114610294578063c87b56dd1461029c578063c9dd94c7146102af57600080fd5b806342966c681161010a57806342966c68146101bf5780635899e7b2146101d25780636352211e1461020b5780636e0a87461461023657806370a0823114610247578063715018a61461026857600080fd5b806301ffc9a71461014757806306fdde031461016f57806308c92e57146101845780631f04d13514610199578063210fa96b146101ac575b600080fd5b61015a6101553660046115bf565b610329565b60405190151581526020015b60405180910390f35b61017761037b565b6040516101669190611619565b6101976101923660046116ef565b61040d565b005b6101976101a73660046116ef565b610548565b6101776101ba36600461173f565b6105e4565b6101976101cd36600461173f565b610666565b61015a6101e0366004611774565b6001600160a01b03919091166000908152600760209081526040808320938352929052205460ff1690565b61021e61021936600461173f565b6106db565b6040516001600160a01b039091168152602001610166565b6008546001600160a01b031661021e565b61025a61025536600461179e565b610740565b604051908152602001610166565b6101976107c9565b61019761027e3660046117b9565b6107ff565b6005546001600160a01b031661021e565b61017761089c565b6101776102aa36600461173f565b6108ab565b6101776109a0565b6101976102c5366004611807565b6109fd565b61015a6102d836600461188f565b610b32565b61015a6102eb3660046118c0565b610b45565b6101976102fe366004611807565b610bd9565b61019761031136600461179e565b610c74565b61021e610324366004611774565b610d0c565b60006001600160e01b03198216635b5e139f60e01b148061035a57506001600160e01b03198216635164cf4760e01b145b8061037557506301ffc9a760e01b6001600160e01b03198316145b92915050565b60606000805461038a90611917565b80601f01602080910402602001604051908101604052809291908181526020018280546103b690611917565b80156104035780601f106103d857610100808354040283529160200191610403565b820191906000526020600020905b8154815290600101906020018083116103e657829003601f168201915b5050505050905090565b61041681610e20565b6104675760405162461bcd60e51b815260206004820152601b60248201527f5265766f6b65206f6620696e6578697374656e7420746f6b656e2e000000000060448201526064015b60405180910390fd5b81516041146104b35760405162461bcd60e51b8152602060048201526018602482015277092dcecc2d8d2c840e6d2cedcc2e8eae4ca40d8cadccee8d60431b604482015260640161045e565b6104bd8383610b32565b6105055760405162461bcd60e51b81526020600482015260196024820152782430b9b4103737ba1039b4b3b732b210313c9037bbb732b91760391b604482015260640161045e565b610517610511826106db565b82610e3d565b5060405181907ff947bf2266afede98f27ad2312db8b2a17921852307f979b6f14a2b41fa774bc90600090a2505050565b6005546001600160a01b031633146105725760405162461bcd60e51b815260040161045e90611951565b600a541561059457600a805490600061058a8361199c565b91905055506105d4565b60405162461bcd60e51b81526020600482015260156024820152742637bbb2b9ba103634b6b4ba103932b0b1b432b21760591b604482015260640161045e565b6105df83838361040d565b505050565b60606105ee6109a0565b5160000361062e5760405162461bcd60e51b815260206004820152600d60248201526c456d707479206261736555524960981b604482015260640161045e565b6106366109a0565b61063f83610f05565b6040516020016106509291906119b3565b6040516020818303038152906040529050919050565b61066f816106db565b6001600160a01b0316336001600160a01b0316146106cf5760405162461bcd60e51b815260206004820152601a60248201527f6275726e3a2073656e646572206d757374206265206f776e6572000000000000604482015260640161045e565b6106d88161100e565b50565b6000818152600260205260408120546001600160a01b0316806103755760405162461bcd60e51b815260206004820152601c60248201527f6f776e65724f663a20746f6b656e20646f65736e277420657869737400000000604482015260640161045e565b60006001600160a01b0382166107ad5760405162461bcd60e51b815260206004820152602c60248201527f62616c616e63654f663a2061646472657373207a65726f206973206e6f74206160448201526b103b30b634b21037bbb732b960a11b606482015260840161045e565b506001600160a01b031660009081526004602052604090205490565b6005546001600160a01b031633146107f35760405162461bcd60e51b815260040161045e90611951565b6107fd60006110b5565b565b6005546001600160a01b031633146108295760405162461bcd60e51b815260040161045e90611951565b8161083c6008546001600160a01b031690565b6001600160a01b0316816001600160a01b0316146108935760405162461bcd60e51b81526020600482015260146024820152734e6f7420416c6c6f776c697374204f776e65722160601b604482015260640161045e565b6105df82611107565b60606001805461038a90611917565b60606108b682610e20565b6109025760405162461bcd60e51b815260206004820152601d60248201527f746f6b656e5552493a20746f6b656e20646f65736e2774206578697374000000604482015260640161045e565b6000828152600360205260409020805461091b90611917565b80601f016020809104026020016040519081016040528092919081815260200182805461094790611917565b80156109945780601f1061096957610100808354040283529160200191610994565b820191906000526020600020905b81548152906001019060200180831161097757829003601f168201915b50505050509050919050565b6060600680546109af90611917565b90506000036109f05760405162461bcd60e51b815260206004820152600d60248201526c456d707479206261736555524960981b604482015260640161045e565b6006805461038a90611917565b6001600160a01b038516610a4b5760405162461bcd60e51b815260206004820152601560248201527426b4b73a103a37903d32b9379030b2323932b9b99760591b604482015260640161045e565b8251604114610a975760405162461bcd60e51b8152602060048201526018602482015277092dcecc2d8d2c840e6d2cedcc2e8eae4ca40d8cadccee8d60431b604482015260640161045e565b610aa18484610b32565b610ae95760405162461bcd60e51b81526020600482015260196024820152782430b9b4103737ba1039b4b3b732b210313c9037bbb732b91760391b604482015260640161045e565b610af4858383611159565b5060405182906001600160a01b038716907f79af0e59b31823dd289ceebabc4d63d25f35926b8548e3a084a500c9d4e1855690600090a35050505050565b6000610b3e8383611170565b9392505050565b602081810151604080840151606080860151835160008082528188018087528a905291821a81860181905292810186905260808101849052935190959293919260019260a080820193601f1981019281900390910190855afa158015610baf573d6000803e3d6000fd5b505050602060405103516001600160a01b0316876001600160a01b03161493505050509392505050565b6005546001600160a01b03163314610c035760405162461bcd60e51b815260040161045e90611951565b600954600a5410610c4b5760405162461bcd60e51b815260206004820152601260248201527124b9b9bab29021b0b8102932b0b1b432b21760711b604482015260640161045e565b610c5885858585856109fd565b600a8054906000610c68836119e2565b91905055505050505050565b6005546001600160a01b03163314610c9e5760405162461bcd60e51b815260040161045e90611951565b6001600160a01b038116610d035760405162461bcd60e51b815260206004820152602660248201527f4f776e61626c653a206e6577206f776e657220697320746865207a65726f206160448201526564647265737360d01b606482015260840161045e565b6106d8816110b5565b60006001600160a01b038316610d645760405162461bcd60e51b815260206004820152601760248201527f517565727920666f72207a65726f20616464726573732e000000000000000000604482015260640161045e565b610d6d82610e20565b610daf5760405162461bcd60e51b81526020600482015260136024820152722737b716b2bc34b9ba32b73a103a37b5b2b71760691b604482015260640161045e565b826001600160a01b0316610dc2836106db565b6001600160a01b031614610e185760405162461bcd60e51b815260206004820152601a60248201527f546f6b656e206e6f74206f776e65642062792061646472657373000000000000604482015260640161045e565b503092915050565b6000908152600260205260409020546001600160a01b0316151590565b6000610e4882610e20565b610e8a5760405162461bcd60e51b81526020600482015260136024820152722737b716b2bc34b9ba32b73a103a37b5b2b71760691b604482015260640161045e565b826001600160a01b0316610e9d836106db565b6001600160a01b031614610ef35760405162461bcd60e51b815260206004820152601a60248201527f546f6b656e206e6f74206f776e65642062792061646472657373000000000000604482015260640161045e565b610efc82611316565b50600192915050565b606081600003610f2c5750506040805180820190915260018152600360fc1b602082015290565b8160005b8115610f565780610f40816119e2565b9150610f4f9050600a83611a11565b9150610f30565b60008167ffffffffffffffff811115610f7157610f7161164c565b6040519080825280601f01601f191660200182016040528015610f9b576020820181803683370190505b5090505b841561100657610fb0600183611a25565b9150610fbd600a86611a3c565b610fc8906030611a50565b60f81b818381518110610fdd57610fdd611a68565b60200101906001600160f81b031916908160001a905350610fff600a86611a11565b9450610f9f565b949350505050565b6000611019826106db565b6001600160a01b03811660009081526004602052604081208054929350600192909190611047908490611a25565b9091555050600082815260026020908152604080832080546001600160a01b03191690556003909152812061107b91611571565b60405182906001600160a01b038316907fec9ab91322523c899ede7830ec9bfc992b5981cdcc27b91162fb23de5791117b90600090a35050565b600580546001600160a01b038381166001600160a01b0319831681179093556040519116919082907f8be0079c531659141344cd1fd0a4f28419497f9722a3daafe3b4186f6b6457e090600090a35050565b80516000036111495760405162461bcd60e51b815260206004820152600e60248201526d092dcecc2d8d2c840d8cadccee8d60931b604482015260640161045e565b60066111558282611acc565b5050565b60006111668484846113ac565b5060019392505050565b6005546000906001600160a01b0316331461119d5760405162461bcd60e51b815260040161045e90611951565b6005546001600160a01b0316331461120b5760405162461bcd60e51b815260206004820152602b60248201527f4552433732313a3a2043616c6c20746f20636f6e7472616374206d616465206260448201526a3c903737b716b7bbb732b960a91b606482015260840161045e565b815160411461125c5760405162461bcd60e51b815260206004820152601e60248201527f4572723a3a20496e76616c6964207369676e6174757265206c656e6774680000604482015260640161045e565b602082810151604080850151606080870151835160008082529681018086528a905290861a938101849052908101849052608081018290529293909260019060a0016020604051602081039080840390855afa1580156112c0573d6000803e3d6000fd5b5050604051601f198101516008549093506001600160a01b038085169116149150819089907f7e4fe2a2a805a357593fdbdde58c02f6a53d8b4960744cd31a98697fc11c2e3690600090a3979650505050505050565b61131f81610e20565b61136b5760405162461bcd60e51b815260206004820152601860248201527f4275726e206f6620696e6578697374656e7420746f6b656e0000000000000000604482015260640161045e565b6000611376826106db565b90506113818261100e565b6001600160a01b0316600090815260076020908152604080832093835292905220805460ff19169055565b6001600160a01b0383166113fa5760405162461bcd60e51b815260206004820152601560248201527426b4b73a103a37903d32b9379030b2323932b9b99760591b604482015260640161045e565b805160000361143d5760405162461bcd60e51b815260206004820152600f60248201526e22b6b83a3c903a37b5b2b72aa9249760891b604482015260640161045e565b61144883838361147a565b50506001600160a01b03909116600090815260076020908152604080832093835292905220805460ff19166001179055565b600061148583610e20565b156114c95760405162461bcd60e51b81526020600482015260146024820152736d696e743a20746f6b656e49442065786973747360601b604482015260640161045e565b6001600160a01b03841660009081526004602052604081208054600192906114f2908490611a50565b9091555050600083815260026020908152604080832080546001600160a01b0319166001600160a01b038916179055600390915290206115328382611acc565b5060405183906001600160a01b038616907fe9274a84b19e9428826de6bae8c48329354f8f0e73f771b97cae2d9dccd45a2790600090a3509092915050565b50805461157d90611917565b6000825580601f1061158d575050565b601f0160209004906000526020600020908101906106d891905b808211156115bb57600081556001016115a7565b5090565b6000602082840312156115d157600080fd5b81356001600160e01b031981168114610b3e57600080fd5b60005b838110156116045781810151838201526020016115ec565b83811115611613576000848401525b50505050565b60208152600082518060208401526116388160408501602087016115e9565b601f01601f19169190910160400192915050565b634e487b7160e01b600052604160045260246000fd5b600082601f83011261167357600080fd5b813567ffffffffffffffff8082111561168e5761168e61164c565b604051601f8301601f19908116603f011681019082821181831017156116b6576116b661164c565b816040528381528660208588010111156116cf57600080fd5b836020870160208301376000602085830101528094505050505092915050565b60008060006060848603121561170457600080fd5b83359250602084013567ffffffffffffffff81111561172257600080fd5b61172e86828701611662565b925050604084013590509250925092565b60006020828403121561175157600080fd5b5035919050565b80356001600160a01b038116811461176f57600080fd5b919050565b6000806040838503121561178757600080fd5b61179083611758565b946020939093013593505050565b6000602082840312156117b057600080fd5b610b3e82611758565b600080604083850312156117cc57600080fd5b6117d583611758565b9150602083013567ffffffffffffffff8111156117f157600080fd5b6117fd85828601611662565b9150509250929050565b600080600080600060a0868803121561181f57600080fd5b61182886611758565b945060208601359350604086013567ffffffffffffffff8082111561184c57600080fd5b61185889838a01611662565b945060608801359350608088013591508082111561187557600080fd5b5061188288828901611662565b9150509295509295909350565b600080604083850312156118a257600080fd5b82359150602083013567ffffffffffffffff8111156117f157600080fd5b6000806000606084860312156118d557600080fd5b6118de84611758565b925060208401359150604084013567ffffffffffffffff81111561190157600080fd5b61190d86828701611662565b9150509250925092565b600181811c9082168061192b57607f821691505b60208210810361194b57634e487b7160e01b600052602260045260246000fd5b50919050565b6020808252818101527f4f776e61626c653a2063616c6c6572206973206e6f7420746865206f776e6572604082015260600190565b634e487b7160e01b600052601160045260246000fd5b6000816119ab576119ab611986565b506000190190565b600083516119c58184602088016115e9565b8351908301906119d98183602088016115e9565b01949350505050565b6000600182016119f4576119f4611986565b5060010190565b634e487b7160e01b600052601260045260246000fd5b600082611a2057611a206119fb565b500490565b600082821015611a3757611a37611986565b500390565b600082611a4b57611a4b6119fb565b500690565b60008219821115611a6357611a63611986565b500190565b634e487b7160e01b600052603260045260246000fd5b601f8211156105df57600081815260208120601f850160051c81016020861015611aa55750805b601f850160051c820191505b81811015611ac457828155600101611ab1565b505050505050565b815167ffffffffffffffff811115611ae657611ae661164c565b611afa81611af48454611917565b84611a7e565b602080601f831160018114611b2f5760008415611b175750858301515b600019600386901b1c1916600185901b178555611ac4565b600085815260208120601f198616915b82811015611b5e57888601518255948401946001909101908401611b3f565b5085821015611b7c5787850151600019600388901b60f8161c191681555b5050505050600190811b0190555056fea2646970667358221220b1ceaa4c757b20410497822c8f13d0bec45391587c052ebd71ae5059a9d86a0d64736f6c634300080f0033",
  "bytecodeSha1": "2bc40e57320a49569442760b8f5ca6efabc2794d",
  "compiler": {
    "evm_version": "istanbul",
    "optimizer": {
      "enabled": true,
      "runs": 200
    },
    "version": "0.8.15+commit.e14f2714"
  },
  "contractName": "SoulboundWithSignature",
  "language": "Solidity",
  "natspec": {
    "author": "Daccred.",
    "details": "SoulboundWithSignature contract template allows freedom of       issuing and revoking tokens with Signature while controlling       the totalSupply of the token.",
    "errors": {
      "Unsigned(address)": [
        {
          "details": "Thrown when the address passed to the verify function is not signed."
        }
      ]
    },
    "kind": "dev",
    "methods": {
      "_getBaseURI()": {
        "details": "Returns already set baseURI if it exists.",
        "notice": "Callable by anyone.",
        "returns": {
          "_baseURI": "baseURI set."
        }
      },
      "balanceOf(address)": {
        "details": "ABTs assigned to the zero address are considered invalid, and this  function throws for queries about the zero address.",
        "notice": "Count all ABTs assigned to an owner",
        "params": {
          "owner": "An address for whom to query the balance"
        },
        "returns": {
          "_0": "The number of ABTs owned by `owner`, possibly zero"
        }
      },
      "burn(uint256)": {
        "details": "Must emit a `event Revoke` with the `address to` field pointing to  the zero address.",
        "notice": "Destroys `tokenId`. At any time, an ABT receiver must be able to  disassociate themselves from an ABT publicly through calling this  function.",
        "params": {
          "tokenId": "The identifier for an ABT"
        }
      },
      "constructor": {
        "details": "Deploys inherited contract and sub contracts."
      },
      "generateTokenURI(uint256)": {
        "details": "Using the `tokenId` passed, it generates a `stringified` tokenURI,       packing the baseURI and the current tokenId.       Makes use of OpenZeppelin's uint to string function.",
        "notice": "Callable by anyone.",
        "params": {
          "tokenId": "ID of token whose tokenURI is desired."
        },
        "returns": {
          "_tokenURI": "TokenURI of the passed tokenId."
        }
      },
      "getAllowlistOwner()": {
        "details": "Return the allowlistOwner.",
        "notice": "Callable by anyone.",
        "returns": {
          "_0": "address of allowlistOwner."
        }
      },
      "isMinted(address,uint256)": {
        "details": "Returns true if token `_tokenId` was minted from this contract to `_to`.       `_to` must not be a 0 address.       `_tokenId` must be an existent token.",
        "notice": "Callable by anyone.",
        "params": {
          "_to": "Address to which token `_tokenId` is minted.",
          "_tokenId": "Token minted."
        },
        "returns": {
          "_0": "bool true or false."
        }
      },
      "issueWithSignature(address,bytes32,bytes,uint256,string)": {
        "details": "Mints a particular quantity of tokens to `to`,       on the condition that the address has been       signed by the allowlistOwner off-chain.       This will emit the {MintSoulboundToken} event       from the Soulbound.sol.",
        "notice": "Callable by anyone.",
        "params": {
          "addr": "Address to mint tokens to.",
          "hash": "Hashed message by the allowlistOwner.",
          "sig": "Signature, signed by the allowlistOwner.",
          "tokenId": "Id of the tokens to mint to the `addr`.",
          "tokenURI": "URI of the token to be minted."
        }
      },
      "issuerOf(address,uint256)": {
        "details": "Since a token cannnot be minted twice.       This function returns the address that minted token `_tokenId` to `_to`,       otherwise this contract.       `_to` must not be a 0 address.       `_tokenId` must be an existent token.       Owner of _tokenId must be _to.",
        "notice": "Callable by anyone.",
        "params": {
          "_to": "Address to which token `_tokenId` is minted.",
          "_tokenId": "Token minted."
        },
        "returns": {
          "_0": "address of issuer."
        }
      },
      "owner()": {
        "details": "Returns the address of the current owner."
      },
      "ownerIssueWithSignature(address,bytes32,bytes,uint256,string)": {
        "details": "Ref SoulboundCore.sol issueWithSignature       This function grants the access to only the       deployer of the contract, unlike the core       that allows the function for anyone who has a       signature signed by the allowlistOwner.       This contract can be called by the deployer of the       contract [DaccredDeployer] but is also protected       as to the allowlistOwner must be the signer of the `sig.`",
        "notice": "Callable by the deployer of this contract [DaccredDeployer].",
        "params": {
          "addr": "Address to be minted to.",
          "hash": "Hash of message signed.",
          "sig": "Signature.",
          "tokenId": "TokenId to be issued.",
          "tokenURI": "URI of token to be issued."
        }
      },
      "ownerOf(uint256)": {
        "details": "ABTs assigned to zero address are considered invalid, and queries  about them do throw.",
        "notice": "Find the address bound to an ERC4973 account-bound token",
        "params": {
          "tokenId": "The identifier for an ABT"
        },
        "returns": {
          "_0": "The address of the owner bound to the ABT"
        }
      },
      "ownerRevokeWithSignature(bytes32,bytes,uint256)": {
        "details": "Ref SoulboundCore.sol revokeWithSignature       This function grants the access to only the       deployer of the contract, unlike the core       that allows the function for anyone who has a       signature signed by the allowlistOwner.       This contract can be called by the deployer of the       contract [DaccredDeployer] but is also protected       as to the allowlistOwner must be the signer of the `sig.`",
        "notice": "Callable by the deployer of this contract [DaccredDeployer].",
        "params": {
          "hash": "Hash of message signed.",
          "sig": "Signature.",
          "tokenId": "TokenId to be issued."
        }
      },
      "renounceOwnership()": {
        "details": "Leaves the contract without owner. It will not be possible to call `onlyOwner` functions anymore. Can only be called by the current owner. NOTE: Renouncing ownership will leave the contract without an owner, thereby removing any functionality that is only available to the owner."
      },
      "revokeWithSignature(bytes32,bytes,uint256)": {
        "details": "Revokes the ownership of `tokenId` from the owner.       The token must exist and the signature must be signed the       allowlistOwner.       This emits the {RevokeWithSignature} event.",
        "notice": "Callable by anyone.",
        "params": {
          "hash": "Hashed message by the allowlistOwner.",
          "sig": "Signature, signed by the allowlistOwner.",
          "tokenId": "Id of the token to revoke."
        }
      },
      "setBaseURI(address,string)": {
        "details": "Allows the `caller` (allowlistOwner) to set the baseURI.       This is really important when the caller wants to mint       Multiple tokens with the same base URI.",
        "notice": "Callable by the deployer of this contract [DaccredDeployer]           and the allowlistOwner."
      },
      "supportsInterface(bytes4)": {
        "details": "See {IERC165-supportsInterface}."
      },
      "transferOwnership(address)": {
        "details": "Transfers ownership of the contract to a new account (`newOwner`). Can only be called by the current owner."
      },
      "verifySignature(bytes32,bytes)": {
        "details": "Returns true if the signer of signature `sig` is the `allowlistOwner`.       And false if otherwise.",
        "notice": "Callable by anyone.",
        "returns": {
          "_0": "bool true or false."
        }
      },
      "verifySigner(address,bytes32,bytes)": {
        "details": "Returns true if the signer of `_signature` is `_signer`.",
        "notice": "Callable by anyone.",
        "returns": {
          "_0": "bool true or false."
        }
      }
    },
    "title": "SoulboundWithSignature.",
    "version": 1
  },
  "opcodes": "PUSH1 0x80 PUSH1 0x40 MSTORE CALLVALUE DUP1 ISZERO PUSH2 0x10 JUMPI PUSH1 0x0 DUP1 REVERT JUMPDEST POP PUSH1 0x4 CALLDATASIZE LT PUSH2 0x142 JUMPI PUSH1 0x0 CALLDATALOAD PUSH1 0xE0 SHR DUP1 PUSH4 0x88433651 GT PUSH2 0xB8 JUMPI DUP1 PUSH4 0xC9E4C54D GT PUSH2 0x7C JUMPI DUP1 PUSH4 0xC9E4C54D EQ PUSH2 0x2B7 JUMPI DUP1 PUSH4 0xDACA6F78 EQ PUSH2 0x2CA JUMPI DUP1 PUSH4 0xE92B0842 EQ PUSH2 0x2DD JUMPI DUP1 PUSH4 0xEA5353C7 EQ PUSH2 0x2F0 JUMPI DUP1 PUSH4 0xF2FDE38B EQ PUSH2 0x303 JUMPI DUP1 PUSH4 0xFB8F198D EQ PUSH2 0x316 JUMPI PUSH1 0x0 DUP1 REVERT JUMPDEST DUP1 PUSH4 0x88433651 EQ PUSH2 0x270 JUMPI DUP1 PUSH4 0x8DA5CB5B EQ PUSH2 0x283 JUMPI DUP1 PUSH4 0x95D89B41 EQ PUSH2 0x294 JUMPI DUP1 PUSH4 0xC87B56DD EQ PUSH2 0x29C JUMPI DUP1 PUSH4 0xC9DD94C7 EQ PUSH2 0x2AF JUMPI PUSH1 0x0 DUP1 REVERT JUMPDEST DUP1 PUSH4 0x42966C68 GT PUSH2 0x10A JUMPI DUP1 PUSH4 0x42966C68 EQ PUSH2 0x1BF JUMPI DUP1 PUSH4 0x5899E7B2 EQ PUSH2 0x1D2 JUMPI DUP1 PUSH4 0x6352211E EQ PUSH2 0x20B JUMPI DUP1 PUSH4 0x6E0A8746 EQ PUSH2 0x236 JUMPI DUP1 PUSH4 0x70A08231 EQ PUSH2 0x247 JUMPI DUP1 PUSH4 0x715018A6 EQ PUSH2 0x268 JUMPI PUSH1 0x0 DUP1 REVERT JUMPDEST DUP1 PUSH4 0x1FFC9A7 EQ PUSH2 0x147 JUMPI DUP1 PUSH4 0x6FDDE03 EQ PUSH2 0x16F JUMPI DUP1 PUSH4 0x8C92E57 EQ PUSH2 0x184 JUMPI DUP1 PUSH4 0x1F04D135 EQ PUSH2 0x199 JUMPI DUP1 PUSH4 0x210FA96B EQ PUSH2 0x1AC JUMPI JUMPDEST PUSH1 0x0 DUP1 REVERT JUMPDEST PUSH2 0x15A PUSH2 0x155 CALLDATASIZE PUSH1 0x4 PUSH2 0x15BF JUMP JUMPDEST PUSH2 0x329 JUMP JUMPDEST PUSH1 0x40 MLOAD SWAP1 ISZERO ISZERO DUP2 MSTORE PUSH1 0x20 ADD JUMPDEST PUSH1 0x40 MLOAD DUP1 SWAP2 SUB SWAP1 RETURN JUMPDEST PUSH2 0x177 PUSH2 0x37B JUMP JUMPDEST PUSH1 0x40 MLOAD PUSH2 0x166 SWAP2 SWAP1 PUSH2 0x1619 JUMP JUMPDEST PUSH2 0x197 PUSH2 0x192 CALLDATASIZE PUSH1 0x4 PUSH2 0x16EF JUMP JUMPDEST PUSH2 0x40D JUMP JUMPDEST STOP JUMPDEST PUSH2 0x197 PUSH2 0x1A7 CALLDATASIZE PUSH1 0x4 PUSH2 0x16EF JUMP JUMPDEST PUSH2 0x548 JUMP JUMPDEST PUSH2 0x177 PUSH2 0x1BA CALLDATASIZE PUSH1 0x4 PUSH2 0x173F JUMP JUMPDEST PUSH2 0x5E4 JUMP JUMPDEST PUSH2 0x197 PUSH2 0x1CD CALLDATASIZE PUSH1 0x4 PUSH2 0x173F JUMP JUMPDEST PUSH2 0x666 JUMP JUMPDEST PUSH2 0x15A PUSH2 0x1E0 CALLDATASIZE PUSH1 0x4 PUSH2 0x1774 JUMP JUMPDEST PUSH1 0x1 PUSH1 0x1 PUSH1 0xA0 SHL SUB SWAP2 SWAP1 SWAP2 AND PUSH1 0x0 SWAP1 DUP2 MSTORE PUSH1 0x7 PUSH1 0x20 SWAP1 DUP2 MSTORE PUSH1 0x40 DUP1 DUP4 KECCAK256 SWAP4 DUP4 MSTORE SWAP3 SWAP1 MSTORE KECCAK256 SLOAD PUSH1 0xFF AND SWAP1 JUMP JUMPDEST PUSH2 0x21E PUSH2 0x219 CALLDATASIZE PUSH1 0x4 PUSH2 0x173F JUMP JUMPDEST PUSH2 0x6DB JUMP JUMPDEST PUSH1 0x40 MLOAD PUSH1 0x1 PUSH1 0x1 PUSH1 0xA0 SHL SUB SWAP1 SWAP2 AND DUP2 MSTORE PUSH1 0x20 ADD PUSH2 0x166 JUMP JUMPDEST PUSH1 0x8 SLOAD PUSH1 0x1 PUSH1 0x1 PUSH1 0xA0 SHL SUB AND PUSH2 0x21E JUMP JUMPDEST PUSH2 0x25A PUSH2 0x255 CALLDATASIZE PUSH1 0x4 PUSH2 0x179E JUMP JUMPDEST PUSH2 0x740 JUMP JUMPDEST PUSH1 0x40 MLOAD SWAP1 DUP2 MSTORE PUSH1 0x20 ADD PUSH2 0x166 JUMP JUMPDEST PUSH2 0x197 PUSH2 0x7C9 JUMP JUMPDEST PUSH2 0x197 PUSH2 0x27E CALLDATASIZE PUSH1 0x4 PUSH2 0x17B9 JUMP JUMPDEST PUSH2 0x7FF JUMP JUMPDEST PUSH1 0x5 SLOAD PUSH1 0x1 PUSH1 0x1 PUSH1 0xA0 SHL SUB AND PUSH2 0x21E JUMP JUMPDEST PUSH2 0x177 PUSH2 0x89C JUMP JUMPDEST PUSH2 0x177 PUSH2 0x2AA CALLDATASIZE PUSH1 0x4 PUSH2 0x173F JUMP JUMPDEST PUSH2 0x8AB JUMP JUMPDEST PUSH2 0x177 PUSH2 0x9A0 JUMP JUMPDEST PUSH2 0x197 PUSH2 0x2C5 CALLDATASIZE PUSH1 0x4 PUSH2 0x1807 JUMP JUMPDEST PUSH2 0x9FD JUMP JUMPDEST PUSH2 0x15A PUSH2 0x2D8 CALLDATASIZE PUSH1 0x4 PUSH2 0x188F JUMP JUMPDEST PUSH2 0xB32 JUMP JUMPDEST PUSH2 0x15A PUSH2 0x2EB CALLDATASIZE PUSH1 0x4 PUSH2 0x18C0 JUMP JUMPDEST PUSH2 0xB45 JUMP JUMPDEST PUSH2 0x197 PUSH2 0x2FE CALLDATASIZE PUSH1 0x4 PUSH2 0x1807 JUMP JUMPDEST PUSH2 0xBD9 JUMP JUMPDEST PUSH2 0x197 PUSH2 0x311 CALLDATASIZE PUSH1 0x4 PUSH2 0x179E JUMP JUMPDEST PUSH2 0xC74 JUMP JUMPDEST PUSH2 0x21E PUSH2 0x324 CALLDATASIZE PUSH1 0x4 PUSH2 0x1774 JUMP JUMPDEST PUSH2 0xD0C JUMP JUMPDEST PUSH1 0x0 PUSH1 0x1 PUSH1 0x1 PUSH1 0xE0 SHL SUB NOT DUP3 AND PUSH4 0x5B5E139F PUSH1 0xE0 SHL EQ DUP1 PUSH2 0x35A JUMPI POP PUSH1 0x1 PUSH1 0x1 PUSH1 0xE0 SHL SUB NOT DUP3 AND PUSH4 0x5164CF47 PUSH1 0xE0 SHL EQ JUMPDEST DUP1 PUSH2 0x375 JUMPI POP PUSH4 0x1FFC9A7 PUSH1 0xE0 SHL PUSH1 0x1 PUSH1 0x1 PUSH1 0xE0 SHL SUB NOT DUP4 AND EQ JUMPDEST SWAP3 SWAP2 POP POP JUMP JUMPDEST PUSH1 0x60 PUSH1 0x0 DUP1 SLOAD PUSH2 0x38A SWAP1 PUSH2 0x1917 JUMP JUMPDEST DUP1 PUSH1 0x1F ADD PUSH1 0x20 DUP1 SWAP2 DIV MUL PUSH1 0x20 ADD PUSH1 0x40 MLOAD SWAP1 DUP2 ADD PUSH1 0x40 MSTORE DUP1 SWAP3 SWAP2 SWAP1 DUP2 DUP2 MSTORE PUSH1 0x20 ADD DUP3 DUP1 SLOAD PUSH2 0x3B6 SWAP1 PUSH2 0x1917 JUMP JUMPDEST DUP1 ISZERO PUSH2 0x403 JUMPI DUP1 PUSH1 0x1F LT PUSH2 0x3D8 JUMPI PUSH2 0x100 DUP1 DUP4 SLOAD DIV MUL DUP4 MSTORE SWAP2 PUSH1 0x20 ADD SWAP2 PUSH2 0x403 JUMP JUMPDEST DUP3 ADD SWAP2 SWAP1 PUSH1 0x0 MSTORE PUSH1 0x20 PUSH1 0x0 KECCAK256 SWAP1 JUMPDEST DUP2 SLOAD DUP2 MSTORE SWAP1 PUSH1 0x1 ADD SWAP1 PUSH1 0x20 ADD DUP1 DUP4 GT PUSH2 0x3E6 JUMPI DUP3 SWAP1 SUB PUSH1 0x1F AND DUP3 ADD SWAP2 JUMPDEST POP POP POP POP POP SWAP1 POP SWAP1 JUMP JUMPDEST PUSH2 0x416 DUP2 PUSH2 0xE20 JUMP JUMPDEST PUSH2 0x467 JUMPI PUSH1 0x40 MLOAD PUSH3 0x461BCD PUSH1 0xE5 SHL DUP2 MSTORE PUSH1 0x20 PUSH1 0x4 DUP3 ADD MSTORE PUSH1 0x1B PUSH1 0x24 DUP3 ADD MSTORE PUSH32 0x5265766F6B65206F6620696E6578697374656E7420746F6B656E2E0000000000 PUSH1 0x44 DUP3 ADD MSTORE PUSH1 0x64 ADD JUMPDEST PUSH1 0x40 MLOAD DUP1 SWAP2 SUB SWAP1 REVERT JUMPDEST DUP2 MLOAD PUSH1 0x41 EQ PUSH2 0x4B3 JUMPI PUSH1 0x40 MLOAD PUSH3 0x461BCD PUSH1 0xE5 SHL DUP2 MSTORE PUSH1 0x20 PUSH1 0x4 DUP3 ADD MSTORE PUSH1 0x18 PUSH1 0x24 DUP3 ADD MSTORE PUSH24 0x92DCECC2D8D2C840E6D2CEDCC2E8EAE4CA40D8CADCCEE8D PUSH1 0x43 SHL PUSH1 0x44 DUP3 ADD MSTORE PUSH1 0x64 ADD PUSH2 0x45E JUMP JUMPDEST PUSH2 0x4BD DUP4 DUP4 PUSH2 0xB32 JUMP JUMPDEST PUSH2 0x505 JUMPI PUSH1 0x40 MLOAD PUSH3 0x461BCD PUSH1 0xE5 SHL DUP2 MSTORE PUSH1 0x20 PUSH1 0x4 DUP3 ADD MSTORE PUSH1 0x19 PUSH1 0x24 DUP3 ADD MSTORE PUSH25 0x2430B9B4103737BA1039B4B3B732B210313C9037BBB732B917 PUSH1 0x39 SHL PUSH1 0x44 DUP3 ADD MSTORE PUSH1 0x64 ADD PUSH2 0x45E JUMP JUMPDEST PUSH2 0x517 PUSH2 0x511 DUP3 PUSH2 0x6DB JUMP JUMPDEST DUP3 PUSH2 0xE3D JUMP JUMPDEST POP PUSH1 0x40 MLOAD DUP2 SWAP1 PUSH32 0xF947BF2266AFEDE98F27AD2312DB8B2A17921852307F979B6F14A2B41FA774BC SWAP1 PUSH1 0x0 SWAP1 LOG2 POP POP POP JUMP JUMPDEST PUSH1 0x5 SLOAD PUSH1 0x1 PUSH1 0x1 PUSH1 0xA0 SHL SUB AND CALLER EQ PUSH2 0x572 JUMPI PUSH1 0x40 MLOAD PUSH3 0x461BCD PUSH1 0xE5 SHL DUP2 MSTORE PUSH1 0x4 ADD PUSH2 0x45E SWAP1 PUSH2 0x1951 JUMP JUMPDEST PUSH1 0xA SLOAD ISZERO PUSH2 0x594 JUMPI PUSH1 0xA DUP1 SLOAD SWAP1 PUSH1 0x0 PUSH2 0x58A DUP4 PUSH2 0x199C JUMP JUMPDEST SWAP2 SWAP1 POP SSTORE POP PUSH2 0x5D4 JUMP JUMPDEST PUSH1 0x40 MLOAD PUSH3 0x461BCD PUSH1 0xE5 SHL DUP2 MSTORE PUSH1 0x20 PUSH1 0x4 DUP3 ADD MSTORE PUSH1 0x15 PUSH1 0x24 DUP3 ADD MSTORE PUSH21 0x2637BBB2B9BA103634B6B4BA103932B0B1B432B217 PUSH1 0x59 SHL PUSH1 0x44 DUP3 ADD MSTORE PUSH1 0x64 ADD PUSH2 0x45E JUMP JUMPDEST PUSH2 0x5DF DUP4 DUP4 DUP4 PUSH2 0x40D JUMP JUMPDEST POP POP POP JUMP JUMPDEST PUSH1 0x60 PUSH2 0x5EE PUSH2 0x9A0 JUMP JUMPDEST MLOAD PUSH1 0x0 SUB PUSH2 0x62E JUMPI PUSH1 0x40 MLOAD PUSH3 0x461BCD PUSH1 0xE5 SHL DUP2 MSTORE PUSH1 0x20 PUSH1 0x4 DUP3 ADD MSTORE PUSH1 0xD PUSH1 0x24 DUP3 ADD MSTORE PUSH13 0x456D7074792062617365555249 PUSH1 0x98 SHL PUSH1 0x44 DUP3 ADD MSTORE PUSH1 0x64 ADD PUSH2 0x45E JUMP JUMPDEST PUSH2 0x636 PUSH2 0x9A0 JUMP JUMPDEST PUSH2 0x63F DUP4 PUSH2 0xF05 JUMP JUMPDEST PUSH1 0x40 MLOAD PUSH1 0x20 ADD PUSH2 0x650 SWAP3 SWAP2 SWAP1 PUSH2 0x19B3 JUMP JUMPDEST PUSH1 0x40 MLOAD PUSH1 0x20 DUP2 DUP4 SUB SUB DUP2 MSTORE SWAP1 PUSH1 0x40 MSTORE SWAP1 POP SWAP2 SWAP1 POP JUMP JUMPDEST PUSH2 0x66F DUP2 PUSH2 0x6DB JUMP JUMPDEST PUSH1 0x1 PUSH1 0x1 PUSH1 0xA0 SHL SUB AND CALLER PUSH1 0x1 PUSH1 0x1 PUSH1 0xA0 SHL SUB AND EQ PUSH2 0x6CF JUMPI PUSH1 0x40 MLOAD PUSH3 0x461BCD PUSH1 0xE5 SHL DUP2 MSTORE PUSH1 0x20 PUSH1 0x4 DUP3 ADD MSTORE PUSH1 0x1A PUSH1 0x24 DUP3 ADD MSTORE PUSH32 0x6275726E3A2073656E646572206D757374206265206F776E6572000000000000 PUSH1 0x44 DUP3 ADD MSTORE PUSH1 0x64 ADD PUSH2 0x45E JUMP JUMPDEST PUSH2 0x6D8 DUP2 PUSH2 0x100E JUMP JUMPDEST POP JUMP JUMPDEST PUSH1 0x0 DUP2 DUP2 MSTORE PUSH1 0x2 PUSH1 0x20 MSTORE PUSH1 0x40 DUP2 KECCAK256 SLOAD PUSH1 0x1 PUSH1 0x1 PUSH1 0xA0 SHL SUB AND DUP1 PUSH2 0x375 JUMPI PUSH1 0x40 MLOAD PUSH3 0x461BCD PUSH1 0xE5 SHL DUP2 MSTORE PUSH1 0x20 PUSH1 0x4 DUP3 ADD MSTORE PUSH1 0x1C PUSH1 0x24 DUP3 ADD MSTORE PUSH32 0x6F776E65724F663A20746F6B656E20646F65736E277420657869737400000000 PUSH1 0x44 DUP3 ADD MSTORE PUSH1 0x64 ADD PUSH2 0x45E JUMP JUMPDEST PUSH1 0x0 PUSH1 0x1 PUSH1 0x1 PUSH1 0xA0 SHL SUB DUP3 AND PUSH2 0x7AD JUMPI PUSH1 0x40 MLOAD PUSH3 0x461BCD PUSH1 0xE5 SHL DUP2 MSTORE PUSH1 0x20 PUSH1 0x4 DUP3 ADD MSTORE PUSH1 0x2C PUSH1 0x24 DUP3 ADD MSTORE PUSH32 0x62616C616E63654F663A2061646472657373207A65726F206973206E6F742061 PUSH1 0x44 DUP3 ADD MSTORE PUSH12 0x103B30B634B21037BBB732B9 PUSH1 0xA1 SHL PUSH1 0x64 DUP3 ADD MSTORE PUSH1 0x84 ADD PUSH2 0x45E JUMP JUMPDEST POP PUSH1 0x1 PUSH1 0x1 PUSH1 0xA0 SHL SUB AND PUSH1 0x0 SWAP1 DUP2 MSTORE PUSH1 0x4 PUSH1 0x20 MSTORE PUSH1 0x40 SWAP1 KECCAK256 SLOAD SWAP1 JUMP JUMPDEST PUSH1 0x5 SLOAD PUSH1 0x1 PUSH1 0x1 PUSH1 0xA0 SHL SUB AND CALLER EQ PUSH2 0x7F3 JUMPI PUSH1 0x40 MLOAD PUSH3 0x461BCD PUSH1 0xE5 SHL DUP2 MSTORE PUSH1 0x4 ADD PUSH2 0x45E SWAP1 PUSH2 0x1951 JUMP JUMPDEST PUSH2 0x7FD PUSH1 0x0 PUSH2 0x10B5 JUMP JUMPDEST JUMP JUMPDEST PUSH1 0x5 SLOAD PUSH1 0x1 PUSH1 0x1 PUSH1 0xA0 SHL SUB AND CALLER EQ PUSH2 0x829 JUMPI PUSH1 0x40 MLOAD PUSH3 0x461BCD PUSH1 0xE5 SHL DUP2 MSTORE PUSH1 0x4 ADD PUSH2 0x45E SWAP1 PUSH2 0x1951 JUMP JUMPDEST DUP2 PUSH2 0x83C PUSH1 0x8 SLOAD PUSH1 0x1 PUSH1 0x1 PUSH1 0xA0 SHL SUB AND SWAP1 JUMP JUMPDEST PUSH1 0x1 PUSH1 0x1 PUSH1 0xA0 SHL SUB AND DUP2 PUSH1 0x1 PUSH1 0x1 PUSH1 0xA0 SHL SUB AND EQ PUSH2 0x893 JUMPI PUSH1 0x40 MLOAD PUSH3 0x461BCD PUSH1 0xE5 SHL DUP2 MSTORE PUSH1 0x20 PUSH1 0x4 DUP3 ADD MSTORE PUSH1 0x14 PUSH1 0x24 DUP3 ADD MSTORE PUSH20 0x4E6F7420416C6C6F776C697374204F776E657221 PUSH1 0x60 SHL PUSH1 0x44 DUP3 ADD MSTORE PUSH1 0x64 ADD PUSH2 0x45E JUMP JUMPDEST PUSH2 0x5DF DUP3 PUSH2 0x1107 JUMP JUMPDEST PUSH1 0x60 PUSH1 0x1 DUP1 SLOAD PUSH2 0x38A SWAP1 PUSH2 0x1917 JUMP JUMPDEST PUSH1 0x60 PUSH2 0x8B6 DUP3 PUSH2 0xE20 JUMP JUMPDEST PUSH2 0x902 JUMPI PUSH1 0x40 MLOAD PUSH3 0x461BCD PUSH1 0xE5 SHL DUP2 MSTORE PUSH1 0x20 PUSH1 0x4 DUP3 ADD MSTORE PUSH1 0x1D PUSH1 0x24 DUP3 ADD MSTORE PUSH32 0x746F6B656E5552493A20746F6B656E20646F65736E2774206578697374000000 PUSH1 0x44 DUP3 ADD MSTORE PUSH1 0x64 ADD PUSH2 0x45E JUMP JUMPDEST PUSH1 0x0 DUP3 DUP2 MSTORE PUSH1 0x3 PUSH1 0x20 MSTORE PUSH1 0x40 SWAP1 KECCAK256 DUP1 SLOAD PUSH2 0x91B SWAP1 PUSH2 0x1917 JUMP JUMPDEST DUP1 PUSH1 0x1F ADD PUSH1 0x20 DUP1 SWAP2 DIV MUL PUSH1 0x20 ADD PUSH1 0x40 MLOAD SWAP1 DUP2 ADD PUSH1 0x40 MSTORE DUP1 SWAP3 SWAP2 SWAP1 DUP2 DUP2 MSTORE PUSH1 0x20 ADD DUP3 DUP1 SLOAD PUSH2 0x947 SWAP1 PUSH2 0x1917 JUMP JUMPDEST DUP1 ISZERO PUSH2 0x994 JUMPI DUP1 PUSH1 0x1F LT PUSH2 0x969 JUMPI PUSH2 0x100 DUP1 DUP4 SLOAD DIV MUL DUP4 MSTORE SWAP2 PUSH1 0x20 ADD SWAP2 PUSH2 0x994 JUMP JUMPDEST DUP3 ADD SWAP2 SWAP1 PUSH1 0x0 MSTORE PUSH1 0x20 PUSH1 0x0 KECCAK256 SWAP1 JUMPDEST DUP2 SLOAD DUP2 MSTORE SWAP1 PUSH1 0x1 ADD SWAP1 PUSH1 0x20 ADD DUP1 DUP4 GT PUSH2 0x977 JUMPI DUP3 SWAP1 SUB PUSH1 0x1F AND DUP3 ADD SWAP2 JUMPDEST POP POP POP POP POP SWAP1 POP SWAP2 SWAP1 POP JUMP JUMPDEST PUSH1 0x60 PUSH1 0x6 DUP1 SLOAD PUSH2 0x9AF SWAP1 PUSH2 0x1917 JUMP JUMPDEST SWAP1 POP PUSH1 0x0 SUB PUSH2 0x9F0 JUMPI PUSH1 0x40 MLOAD PUSH3 0x461BCD PUSH1 0xE5 SHL DUP2 MSTORE PUSH1 0x20 PUSH1 0x4 DUP3 ADD MSTORE PUSH1 0xD PUSH1 0x24 DUP3 ADD MSTORE PUSH13 0x456D7074792062617365555249 PUSH1 0x98 SHL PUSH1 0x44 DUP3 ADD MSTORE PUSH1 0x64 ADD PUSH2 0x45E JUMP JUMPDEST PUSH1 0x6 DUP1 SLOAD PUSH2 0x38A SWAP1 PUSH2 0x1917 JUMP JUMPDEST PUSH1 0x1 PUSH1 0x1 PUSH1 0xA0 SHL SUB DUP6 AND PUSH2 0xA4B JUMPI PUSH1 0x40 MLOAD PUSH3 0x461BCD PUSH1 0xE5 SHL DUP2 MSTORE PUSH1 0x20 PUSH1 0x4 DUP3 ADD MSTORE PUSH1 0x15 PUSH1 0x24 DUP3 ADD MSTORE PUSH21 0x26B4B73A103A37903D32B9379030B2323932B9B997 PUSH1 0x59 SHL PUSH1 0x44 DUP3 ADD MSTORE PUSH1 0x64 ADD PUSH2 0x45E JUMP JUMPDEST DUP3 MLOAD PUSH1 0x41 EQ PUSH2 0xA97 JUMPI PUSH1 0x40 MLOAD PUSH3 0x461BCD PUSH1 0xE5 SHL DUP2 MSTORE PUSH1 0x20 PUSH1 0x4 DUP3 ADD MSTORE PUSH1 0x18 PUSH1 0x24 DUP3 ADD MSTORE PUSH24 0x92DCECC2D8D2C840E6D2CEDCC2E8EAE4CA40D8CADCCEE8D PUSH1 0x43 SHL PUSH1 0x44 DUP3 ADD MSTORE PUSH1 0x64 ADD PUSH2 0x45E JUMP JUMPDEST PUSH2 0xAA1 DUP5 DUP5 PUSH2 0xB32 JUMP JUMPDEST PUSH2 0xAE9 JUMPI PUSH1 0x40 MLOAD PUSH3 0x461BCD PUSH1 0xE5 SHL DUP2 MSTORE PUSH1 0x20 PUSH1 0x4 DUP3 ADD MSTORE PUSH1 0x19 PUSH1 0x24 DUP3 ADD MSTORE PUSH25 0x2430B9B4103737BA1039B4B3B732B210313C9037BBB732B917 PUSH1 0x39 SHL PUSH1 0x44 DUP3 ADD MSTORE PUSH1 0x64 ADD PUSH2 0x45E JUMP JUMPDEST PUSH2 0xAF4 DUP6 DUP4 DUP4 PUSH2 0x1159 JUMP JUMPDEST POP PUSH1 0x40 MLOAD DUP3 SWAP1 PUSH1 0x1 PUSH1 0x1 PUSH1 0xA0 SHL SUB DUP8 AND SWAP1 PUSH32 0x79AF0E59B31823DD289CEEBABC4D63D25F35926B8548E3A084A500C9D4E18556 SWAP1 PUSH1 0x0 SWAP1 LOG3 POP POP POP POP POP JUMP JUMPDEST PUSH1 0x0 PUSH2 0xB3E DUP4 DUP4 PUSH2 0x1170 JUMP JUMPDEST SWAP4 SWAP3 POP POP POP JUMP JUMPDEST PUSH1 0x20 DUP2 DUP2 ADD MLOAD PUSH1 0x40 DUP1 DUP5 ADD MLOAD PUSH1 0x60 DUP1 DUP7 ADD MLOAD DUP4 MLOAD PUSH1 0x0 DUP1 DUP3 MSTORE DUP2 DUP9 ADD DUP1 DUP8 MSTORE DUP11 SWAP1 MSTORE SWAP2 DUP3 BYTE DUP2 DUP7 ADD DUP2 SWAP1 MSTORE SWAP3 DUP2 ADD DUP7 SWAP1 MSTORE PUSH1 0x80 DUP2 ADD DUP5 SWAP1 MSTORE SWAP4 MLOAD SWAP1 SWAP6 SWAP3 SWAP4 SWAP2 SWAP3 PUSH1 0x1 SWAP3 PUSH1 0xA0 DUP1 DUP3 ADD SWAP4 PUSH1 0x1F NOT DUP2 ADD SWAP3 DUP2 SWAP1 SUB SWAP1 SWAP2 ADD SWAP1 DUP6 GAS STATICCALL ISZERO DUP1 ISZERO PUSH2 0xBAF JUMPI RETURNDATASIZE PUSH1 0x0 DUP1 RETURNDATACOPY RETURNDATASIZE PUSH1 0x0 REVERT JUMPDEST POP POP POP PUSH1 0x20 PUSH1 0x40 MLOAD SUB MLOAD PUSH1 0x1 PUSH1 0x1 PUSH1 0xA0 SHL SUB AND DUP8 PUSH1 0x1 PUSH1 0x1 PUSH1 0xA0 SHL SUB AND EQ SWAP4 POP POP POP POP SWAP4 SWAP3 POP POP POP JUMP JUMPDEST PUSH1 0x5 SLOAD PUSH1 0x1 PUSH1 0x1 PUSH1 0xA0 SHL SUB AND CALLER EQ PUSH2 0xC03 JUMPI PUSH1 0x40 MLOAD PUSH3 0x461BCD PUSH1 0xE5 SHL DUP2 MSTORE PUSH1 0x4 ADD PUSH2 0x45E SWAP1 PUSH2 0x1951 JUMP JUMPDEST PUSH1 0x9 SLOAD PUSH1 0xA SLOAD LT PUSH2 0xC4B JUMPI PUSH1 0x40 MLOAD PUSH3 0x461BCD PUSH1 0xE5 SHL DUP2 MSTORE PUSH1 0x20 PUSH1 0x4 DUP3 ADD MSTORE PUSH1 0x12 PUSH1 0x24 DUP3 ADD MSTORE PUSH18 0x24B9B9BAB29021B0B8102932B0B1B432B217 PUSH1 0x71 SHL PUSH1 0x44 DUP3 ADD MSTORE PUSH1 0x64 ADD PUSH2 0x45E JUMP JUMPDEST PUSH2 0xC58 DUP6 DUP6 DUP6 DUP6 DUP6 PUSH2 0x9FD JUMP JUMPDEST PUSH1 0xA DUP1 SLOAD SWAP1 PUSH1 0x0 PUSH2 0xC68 DUP4 PUSH2 0x19E2 JUMP JUMPDEST SWAP2 SWAP1 POP SSTORE POP POP POP POP POP POP JUMP JUMPDEST PUSH1 0x5 SLOAD PUSH1 0x1 PUSH1 0x1 PUSH1 0xA0 SHL SUB AND CALLER EQ PUSH2 0xC9E JUMPI PUSH1 0x40 MLOAD PUSH3 0x461BCD PUSH1 0xE5 SHL DUP2 MSTORE PUSH1 0x4 ADD PUSH2 0x45E SWAP1 PUSH2 0x1951 JUMP JUMPDEST PUSH1 0x1 PUSH1 0x1 PUSH1 0xA0 SHL SUB DUP2 AND PUSH2 0xD03 JUMPI PUSH1 0x40 MLOAD PUSH3 0x461BCD PUSH1 0xE5 SHL DUP2 MSTORE PUSH1 0x20 PUSH1 0x4 DUP3 ADD MSTORE PUSH1 0x26 PUSH1 0x24 DUP3 ADD MSTORE PUSH32 0x4F776E61626C653A206E6577206F776E657220697320746865207A65726F2061 PUSH1 0x44 DUP3 ADD MSTORE PUSH6 0x646472657373 PUSH1 0xD0 SHL PUSH1 0x64 DUP3 ADD MSTORE PUSH1 0x84 ADD PUSH2 0x45E JUMP JUMPDEST PUSH2 0x6D8 DUP2 PUSH2 0x10B5 JUMP JUMPDEST PUSH1 0x0 PUSH1 0x1 PUSH1 0x1 PUSH1 0xA0 SHL SUB DUP4 AND PUSH2 0xD64 JUMPI PUSH1 0x40 MLOAD PUSH3 0x461BCD PUSH1 0xE5 SHL DUP2 MSTORE PUSH1 0x20 PUSH1 0x4 DUP3 ADD MSTORE PUSH1 0x17 PUSH1 0x24 DUP3 ADD MSTORE PUSH32 0x517565727920666F72207A65726F20616464726573732E000000000000000000 PUSH1 0x44 DUP3 ADD MSTORE PUSH1 0x64 ADD PUSH2 0x45E JUMP JUMPDEST PUSH2 0xD6D DUP3 PUSH2 0xE20 JUMP JUMPDEST PUSH2 0xDAF JUMPI PUSH1 0x40 MLOAD PUSH3 0x461BCD PUSH1 0xE5 SHL DUP2 MSTORE PUSH1 0x20 PUSH1 0x4 DUP3 ADD MSTORE PUSH1 0x13 PUSH1 0x24 DUP3 ADD MSTORE PUSH19 0x2737B716B2BC34B9BA32B73A103A37B5B2B717 PUSH1 0x69 SHL PUSH1 0x44 DUP3 ADD MSTORE PUSH1 0x64 ADD PUSH2 0x45E JUMP JUMPDEST DUP3 PUSH1 0x1 PUSH1 0x1 PUSH1 0xA0 SHL SUB AND PUSH2 0xDC2 DUP4 PUSH2 0x6DB JUMP JUMPDEST PUSH1 0x1 PUSH1 0x1 PUSH1 0xA0 SHL SUB AND EQ PUSH2 0xE18 JUMPI PUSH1 0x40 MLOAD PUSH3 0x461BCD PUSH1 0xE5 SHL DUP2 MSTORE PUSH1 0x20 PUSH1 0x4 DUP3 ADD MSTORE PUSH1 0x1A PUSH1 0x24 DUP3 ADD MSTORE PUSH32 0x546F6B656E206E6F74206F776E65642062792061646472657373000000000000 PUSH1 0x44 DUP3 ADD MSTORE PUSH1 0x64 ADD PUSH2 0x45E JUMP JUMPDEST POP ADDRESS SWAP3 SWAP2 POP POP JUMP JUMPDEST PUSH1 0x0 SWAP1 DUP2 MSTORE PUSH1 0x2 PUSH1 0x20 MSTORE PUSH1 0x40 SWAP1 KECCAK256 SLOAD PUSH1 0x1 PUSH1 0x1 PUSH1 0xA0 SHL SUB AND ISZERO ISZERO SWAP1 JUMP JUMPDEST PUSH1 0x0 PUSH2 0xE48 DUP3 PUSH2 0xE20 JUMP JUMPDEST PUSH2 0xE8A JUMPI PUSH1 0x40 MLOAD PUSH3 0x461BCD PUSH1 0xE5 SHL DUP2 MSTORE PUSH1 0x20 PUSH1 0x4 DUP3 ADD MSTORE PUSH1 0x13 PUSH1 0x24 DUP3 ADD MSTORE PUSH19 0x2737B716B2BC34B9BA32B73A103A37B5B2B717 PUSH1 0x69 SHL PUSH1 0x44 DUP3 ADD MSTORE PUSH1 0x64 ADD PUSH2 0x45E JUMP JUMPDEST DUP3 PUSH1 0x1 PUSH1 0x1 PUSH1 0xA0 SHL SUB AND PUSH2 0xE9D DUP4 PUSH2 0x6DB JUMP JUMPDEST PUSH1 0x1 PUSH1 0x1 PUSH1 0xA0 SHL SUB AND EQ PUSH2 0xEF3 JUMPI PUSH1 0x40 MLOAD PUSH3 0x461BCD PUSH1 0xE5 SHL DUP2 MSTORE PUSH1 0x20 PUSH1 0x4 DUP3 ADD MSTORE PUSH1 0x1A PUSH1 0x24 DUP3 ADD MSTORE PUSH32 0x546F6B656E206E6F74206F776E65642062792061646472657373000000000000 PUSH1 0x44 DUP3 ADD MSTORE PUSH1 0x64 ADD PUSH2 0x45E JUMP JUMPDEST PUSH2 0xEFC DUP3 PUSH2 0x1316 JUMP JUMPDEST POP PUSH1 0x1 SWAP3 SWAP2 POP POP JUMP JUMPDEST PUSH1 0x60 DUP2 PUSH1 0x0 SUB PUSH2 0xF2C JUMPI POP POP PUSH1 0x40 DUP1 MLOAD DUP1 DUP3 ADD SWAP1 SWAP2 MSTORE PUSH1 0x1 DUP2 MSTORE PUSH1 0x3 PUSH1 0xFC SHL PUSH1 0x20 DUP3 ADD MSTORE SWAP1 JUMP JUMPDEST DUP2 PUSH1 0x0 JUMPDEST DUP2 ISZERO PUSH2 0xF56 JUMPI DUP1 PUSH2 0xF40 DUP2 PUSH2 0x19E2 JUMP JUMPDEST SWAP2 POP PUSH2 0xF4F SWAP1 POP PUSH1 0xA DUP4 PUSH2 0x1A11 JUMP JUMPDEST SWAP2 POP PUSH2 0xF30 JUMP JUMPDEST PUSH1 0x0 DUP2 PUSH8 0xFFFFFFFFFFFFFFFF DUP2 GT ISZERO PUSH2 0xF71 JUMPI PUSH2 0xF71 PUSH2 0x164C JUMP JUMPDEST PUSH1 0x40 MLOAD SWAP1 DUP1 DUP3 MSTORE DUP1 PUSH1 0x1F ADD PUSH1 0x1F NOT AND PUSH1 0x20 ADD DUP3 ADD PUSH1 0x40 MSTORE DUP1 ISZERO PUSH2 0xF9B JUMPI PUSH1 0x20 DUP3 ADD DUP2 DUP1 CALLDATASIZE DUP4 CALLDATACOPY ADD SWAP1 POP JUMPDEST POP SWAP1 POP JUMPDEST DUP5 ISZERO PUSH2 0x1006 JUMPI PUSH2 0xFB0 PUSH1 0x1 DUP4 PUSH2 0x1A25 JUMP JUMPDEST SWAP2 POP PUSH2 0xFBD PUSH1 0xA DUP7 PUSH2 0x1A3C JUMP JUMPDEST PUSH2 0xFC8 SWAP1 PUSH1 0x30 PUSH2 0x1A50 JUMP JUMPDEST PUSH1 0xF8 SHL DUP2 DUP4 DUP2 MLOAD DUP2 LT PUSH2 0xFDD JUMPI PUSH2 0xFDD PUSH2 0x1A68 JUMP JUMPDEST PUSH1 0x20 ADD ADD SWAP1 PUSH1 0x1 PUSH1 0x1 PUSH1 0xF8 SHL SUB NOT AND SWAP1 DUP2 PUSH1 0x0 BYTE SWAP1 MSTORE8 POP PUSH2 0xFFF PUSH1 0xA DUP7 PUSH2 0x1A11 JUMP JUMPDEST SWAP5 POP PUSH2 0xF9F JUMP JUMPDEST SWAP5 SWAP4 POP POP POP POP JUMP JUMPDEST PUSH1 0x0 PUSH2 0x1019 DUP3 PUSH2 0x6DB JUMP JUMPDEST PUSH1 0x1 PUSH1 0x1 PUSH1 0xA0 SHL SUB DUP2 AND PUSH1 0x0 SWAP1 DUP2 MSTORE PUSH1 0x4 PUSH1 0x20 MSTORE PUSH1 0x40 DUP2 KECCAK256 DUP1 SLOAD SWAP3 SWAP4 POP PUSH1 0x1 SWAP3 SWAP1 SWAP2 SWAP1 PUSH2 0x1047 SWAP1 DUP5 SWAP1 PUSH2 0x1A25 JUMP JUMPDEST SWAP1 SWAP2 SSTORE POP POP PUSH1 0x0 DUP3 DUP2 MSTORE PUSH1 0x2 PUSH1 0x20 SWAP1 DUP2 MSTORE PUSH1 0x40 DUP1 DUP4 KECCAK256 DUP1 SLOAD PUSH1 0x1 PUSH1 0x1 PUSH1 0xA0 SHL SUB NOT AND SWAP1 SSTORE PUSH1 0x3 SWAP1 SWAP2 MSTORE DUP2 KECCAK256 PUSH2 0x107B SWAP2 PUSH2 0x1571 JUMP JUMPDEST PUSH1 0x40 MLOAD DUP3 SWAP1 PUSH1 0x1 PUSH1 0x1 PUSH1 0xA0 SHL SUB DUP4 AND SWAP1 PUSH32 0xEC9AB91322523C899EDE7830EC9BFC992B5981CDCC27B91162FB23DE5791117B SWAP1 PUSH1 0x0 SWAP1 LOG3 POP POP JUMP JUMPDEST PUSH1 0x5 DUP1 SLOAD PUSH1 0x1 PUSH1 0x1 PUSH1 0xA0 SHL SUB DUP4 DUP2 AND PUSH1 0x1 PUSH1 0x1 PUSH1 0xA0 SHL SUB NOT DUP4 AND DUP2 OR SWAP1 SWAP4 SSTORE PUSH1 0x40 MLOAD SWAP2 AND SWAP2 SWAP1 DUP3 SWAP1 PUSH32 0x8BE0079C531659141344CD1FD0A4F28419497F9722A3DAAFE3B4186F6B6457E0 SWAP1 PUSH1 0x0 SWAP1 LOG3 POP POP JUMP JUMPDEST DUP1 MLOAD PUSH1 0x0 SUB PUSH2 0x1149 JUMPI PUSH1 0x40 MLOAD PUSH3 0x461BCD PUSH1 0xE5 SHL DUP2 MSTORE PUSH1 0x20 PUSH1 0x4 DUP3 ADD MSTORE PUSH1 0xE PUSH1 0x24 DUP3 ADD MSTORE PUSH14 0x92DCECC2D8D2C840D8CADCCEE8D PUSH1 0x93 SHL PUSH1 0x44 DUP3 ADD MSTORE PUSH1 0x64 ADD PUSH2 0x45E JUMP JUMPDEST PUSH1 0x6 PUSH2 0x1155 DUP3 DUP3 PUSH2 0x1ACC JUMP JUMPDEST POP POP JUMP JUMPDEST PUSH1 0x0 PUSH2 0x1166 DUP5 DUP5 DUP5 PUSH2 0x13AC JUMP JUMPDEST POP PUSH1 0x1 SWAP4 SWAP3 POP POP POP JUMP JUMPDEST PUSH1 0x5 SLOAD PUSH1 0x0 SWAP1 PUSH1 0x1 PUSH1 0x1 PUSH1 0xA0 SHL SUB AND CALLER EQ PUSH2 0x119D JUMPI PUSH1 0x40 MLOAD PUSH3 0x461BCD PUSH1 0xE5 SHL DUP2 MSTORE PUSH1 0x4 ADD PUSH2 0x45E SWAP1 PUSH2 0x1951 JUMP JUMPDEST PUSH1 0x5 SLOAD PUSH1 0x1 PUSH1 0x1 PUSH1 0xA0 SHL SUB AND CALLER EQ PUSH2 0x120B JUMPI PUSH1 0x40 MLOAD PUSH3 0x461BCD PUSH1 0xE5 SHL DUP2 MSTORE PUSH1 0x20 PUSH1 0x4 DUP3 ADD MSTORE PUSH1 0x2B PUSH1 0x24 DUP3 ADD MSTORE PUSH32 0x4552433732313A3A2043616C6C20746F20636F6E7472616374206D6164652062 PUSH1 0x44 DUP3 ADD MSTORE PUSH11 0x3C903737B716B7BBB732B9 PUSH1 0xA9 SHL PUSH1 0x64 DUP3 ADD MSTORE PUSH1 0x84 ADD PUSH2 0x45E JUMP JUMPDEST DUP2 MLOAD PUSH1 0x41 EQ PUSH2 0x125C JUMPI PUSH1 0x40 MLOAD PUSH3 0x461BCD PUSH1 0xE5 SHL DUP2 MSTORE PUSH1 0x20 PUSH1 0x4 DUP3 ADD MSTORE PUSH1 0x1E PUSH1 0x24 DUP3 ADD MSTORE PUSH32 0x4572723A3A20496E76616C6964207369676E6174757265206C656E6774680000 PUSH1 0x44 DUP3 ADD MSTORE PUSH1 0x64 ADD PUSH2 0x45E JUMP JUMPDEST PUSH1 0x20 DUP3 DUP2 ADD MLOAD PUSH1 0x40 DUP1 DUP6 ADD MLOAD PUSH1 0x60 DUP1 DUP8 ADD MLOAD DUP4 MLOAD PUSH1 0x0 DUP1 DUP3 MSTORE SWAP7 DUP2 ADD DUP1 DUP7 MSTORE DUP11 SWAP1 MSTORE SWAP1 DUP7 BYTE SWAP4 DUP2 ADD DUP5 SWAP1 MSTORE SWAP1 DUP2 ADD DUP5 SWAP1 MSTORE PUSH1 0x80 DUP2 ADD DUP3 SWAP1 MSTORE SWAP3 SWAP4 SWAP1 SWAP3 PUSH1 0x1 SWAP1 PUSH1 0xA0 ADD PUSH1 0x20 PUSH1 0x40 MLOAD PUSH1 0x20 DUP2 SUB SWAP1 DUP1 DUP5 SUB SWAP1 DUP6 GAS STATICCALL ISZERO DUP1 ISZERO PUSH2 0x12C0 JUMPI RETURNDATASIZE PUSH1 0x0 DUP1 RETURNDATACOPY RETURNDATASIZE PUSH1 0x0 REVERT JUMPDEST POP POP PUSH1 0x40 MLOAD PUSH1 0x1F NOT DUP2 ADD MLOAD PUSH1 0x8 SLOAD SWAP1 SWAP4 POP PUSH1 0x1 PUSH1 0x1 PUSH1 0xA0 SHL SUB DUP1 DUP6 AND SWAP2 AND EQ SWAP2 POP DUP2 SWAP1 DUP10 SWAP1 PUSH32 0x7E4FE2A2A805A357593FDBDDE58C02F6A53D8B4960744CD31A98697FC11C2E36 SWAP1 PUSH1 0x0 SWAP1 LOG3 SWAP8 SWAP7 POP POP POP POP POP POP POP JUMP JUMPDEST PUSH2 0x131F DUP2 PUSH2 0xE20 JUMP JUMPDEST PUSH2 0x136B JUMPI PUSH1 0x40 MLOAD PUSH3 0x461BCD PUSH1 0xE5 SHL DUP2 MSTORE PUSH1 0x20 PUSH1 0x4 DUP3 ADD MSTORE PUSH1 0x18 PUSH1 0x24 DUP3 ADD MSTORE PUSH32 0x4275726E206F6620696E6578697374656E7420746F6B656E0000000000000000 PUSH1 0x44 DUP3 ADD MSTORE PUSH1 0x64 ADD PUSH2 0x45E JUMP JUMPDEST PUSH1 0x0 PUSH2 0x1376 DUP3 PUSH2 0x6DB JUMP JUMPDEST SWAP1 POP PUSH2 0x1381 DUP3 PUSH2 0x100E JUMP JUMPDEST PUSH1 0x1 PUSH1 0x1 PUSH1 0xA0 SHL SUB AND PUSH1 0x0 SWAP1 DUP2 MSTORE PUSH1 0x7 PUSH1 0x20 SWAP1 DUP2 MSTORE PUSH1 0x40 DUP1 DUP4 KECCAK256 SWAP4 DUP4 MSTORE SWAP3 SWAP1 MSTORE KECCAK256 DUP1 SLOAD PUSH1 0xFF NOT AND SWAP1 SSTORE JUMP JUMPDEST PUSH1 0x1 PUSH1 0x1 PUSH1 0xA0 SHL SUB DUP4 AND PUSH2 0x13FA JUMPI PUSH1 0x40 MLOAD PUSH3 0x461BCD PUSH1 0xE5 SHL DUP2 MSTORE PUSH1 0x20 PUSH1 0x4 DUP3 ADD MSTORE PUSH1 0x15 PUSH1 0x24 DUP3 ADD MSTORE PUSH21 0x26B4B73A103A37903D32B9379030B2323932B9B997 PUSH1 0x59 SHL PUSH1 0x44 DUP3 ADD MSTORE PUSH1 0x64 ADD PUSH2 0x45E JUMP JUMPDEST DUP1 MLOAD PUSH1 0x0 SUB PUSH2 0x143D JUMPI PUSH1 0x40 MLOAD PUSH3 0x461BCD PUSH1 0xE5 SHL DUP2 MSTORE PUSH1 0x20 PUSH1 0x4 DUP3 ADD MSTORE PUSH1 0xF PUSH1 0x24 DUP3 ADD MSTORE PUSH15 0x22B6B83A3C903A37B5B2B72AA92497 PUSH1 0x89 SHL PUSH1 0x44 DUP3 ADD MSTORE PUSH1 0x64 ADD PUSH2 0x45E JUMP JUMPDEST PUSH2 0x1448 DUP4 DUP4 DUP4 PUSH2 0x147A JUMP JUMPDEST POP POP PUSH1 0x1 PUSH1 0x1 PUSH1 0xA0 SHL SUB SWAP1 SWAP2 AND PUSH1 0x0 SWAP1 DUP2 MSTORE PUSH1 0x7 PUSH1 0x20 SWAP1 DUP2 MSTORE PUSH1 0x40 DUP1 DUP4 KECCAK256 SWAP4 DUP4 MSTORE SWAP3 SWAP1 MSTORE KECCAK256 DUP1 SLOAD PUSH1 0xFF NOT AND PUSH1 0x1 OR SWAP1 SSTORE JUMP JUMPDEST PUSH1 0x0 PUSH2 0x1485 DUP4 PUSH2 0xE20 JUMP JUMPDEST ISZERO PUSH2 0x14C9 JUMPI PUSH1 0x40 MLOAD PUSH3 0x461BCD PUSH1 0xE5 SHL DUP2 MSTORE PUSH1 0x20 PUSH1 0x4 DUP3 ADD MSTORE PUSH1 0x14 PUSH1 0x24 DUP3 ADD MSTORE PUSH20 0x6D696E743A20746F6B656E494420657869737473 PUSH1 0x60 SHL PUSH1 0x44 DUP3 ADD MSTORE PUSH1 0x64 ADD PUSH2 0x45E JUMP JUMPDEST PUSH1 0x1 PUSH1 0x1 PUSH1 0xA0 SHL SUB DUP5 AND PUSH1 0x0 SWAP1 DUP2 MSTORE PUSH1 0x4 PUSH1 0x20 MSTORE PUSH1 0x40 DUP2 KECCAK256 DUP1 SLOAD PUSH1 0x1 SWAP3 SWAP1 PUSH2 0x14F2 SWAP1 DUP5 SWAP1 PUSH2 0x1A50 JUMP JUMPDEST SWAP1 SWAP2 SSTORE POP POP PUSH1 0x0 DUP4 DUP2 MSTORE PUSH1 0x2 PUSH1 0x20 SWAP1 DUP2 MSTORE PUSH1 0x40 DUP1 DUP4 KECCAK256 DUP1 SLOAD PUSH1 0x1 PUSH1 0x1 PUSH1 0xA0 SHL SUB NOT AND PUSH1 0x1 PUSH1 0x1 PUSH1 0xA0 SHL SUB DUP10 AND OR SWAP1 SSTORE PUSH1 0x3 SWAP1 SWAP2 MSTORE SWAP1 KECCAK256 PUSH2 0x1532 DUP4 DUP3 PUSH2 0x1ACC JUMP JUMPDEST POP PUSH1 0x40 MLOAD DUP4 SWAP1 PUSH1 0x1 PUSH1 0x1 PUSH1 0xA0 SHL SUB DUP7 AND SWAP1 PUSH32 0xE9274A84B19E9428826DE6BAE8C48329354F8F0E73F771B97CAE2D9DCCD45A27 SWAP1 PUSH1 0x0 SWAP1 LOG3 POP SWAP1 SWAP3 SWAP2 POP POP JUMP JUMPDEST POP DUP1 SLOAD PUSH2 0x157D SWAP1 PUSH2 0x1917 JUMP JUMPDEST PUSH1 0x0 DUP3 SSTORE DUP1 PUSH1 0x1F LT PUSH2 0x158D JUMPI POP POP JUMP JUMPDEST PUSH1 0x1F ADD PUSH1 0x20 SWAP1 DIV SWAP1 PUSH1 0x0 MSTORE PUSH1 0x20 PUSH1 0x0 KECCAK256 SWAP1 DUP2 ADD SWAP1 PUSH2 0x6D8 SWAP2 SWAP1 JUMPDEST DUP1 DUP3 GT ISZERO PUSH2 0x15BB JUMPI PUSH1 0x0 DUP2 SSTORE PUSH1 0x1 ADD PUSH2 0x15A7 JUMP JUMPDEST POP SWAP1 JUMP JUMPDEST PUSH1 0x0 PUSH1 0x20 DUP3 DUP5 SUB SLT ISZERO PUSH2 0x15D1 JUMPI PUSH1 0x0 DUP1 REVERT JUMPDEST DUP2 CALLDATALOAD PUSH1 0x1 PUSH1 0x1 PUSH1 0xE0 SHL SUB NOT DUP2 AND DUP2 EQ PUSH2 0xB3E JUMPI PUSH1 0x0 DUP1 REVERT JUMPDEST PUSH1 0x0 JUMPDEST DUP4 DUP2 LT ISZERO PUSH2 0x1604 JUMPI DUP2 DUP2 ADD MLOAD DUP4 DUP3 ADD MSTORE PUSH1 0x20 ADD PUSH2 0x15EC JUMP JUMPDEST DUP4 DUP2 GT ISZERO PUSH2 0x1613 JUMPI PUSH1 0x0 DUP5 DUP5 ADD MSTORE JUMPDEST POP POP POP POP JUMP JUMPDEST PUSH1 0x20 DUP2 MSTORE PUSH1 0x0 DUP3 MLOAD DUP1 PUSH1 0x20 DUP5 ADD MSTORE PUSH2 0x1638 DUP2 PUSH1 0x40 DUP6 ADD PUSH1 0x20 DUP8 ADD PUSH2 0x15E9 JUMP JUMPDEST PUSH1 0x1F ADD PUSH1 0x1F NOT AND SWAP2 SWAP1 SWAP2 ADD PUSH1 0x40 ADD SWAP3 SWAP2 POP POP JUMP JUMPDEST PUSH4 0x4E487B71 PUSH1 0xE0 SHL PUSH1 0x0 MSTORE PUSH1 0x41 PUSH1 0x4 MSTORE PUSH1 0x24 PUSH1 0x0 REVERT JUMPDEST PUSH1 0x0 DUP3 PUSH1 0x1F DUP4 ADD SLT PUSH2 0x1673 JUMPI PUSH1 0x0 DUP1 REVERT JUMPDEST DUP2 CALLDATALOAD PUSH8 0xFFFFFFFFFFFFFFFF DUP1 DUP3 GT ISZERO PUSH2 0x168E JUMPI PUSH2 0x168E PUSH2 0x164C JUMP JUMPDEST PUSH1 0x40 MLOAD PUSH1 0x1F DUP4 ADD PUSH1 0x1F NOT SWAP1 DUP2 AND PUSH1 0x3F ADD AND DUP2 ADD SWAP1 DUP3 DUP3 GT DUP2 DUP4 LT OR ISZERO PUSH2 0x16B6 JUMPI PUSH2 0x16B6 PUSH2 0x164C JUMP JUMPDEST DUP2 PUSH1 0x40 MSTORE DUP4 DUP2 MSTORE DUP7 PUSH1 0x20 DUP6 DUP9 ADD ADD GT ISZERO PUSH2 0x16CF JUMPI PUSH1 0x0 DUP1 REVERT JUMPDEST DUP4 PUSH1 0x20 DUP8 ADD PUSH1 0x20 DUP4 ADD CALLDATACOPY PUSH1 0x0 PUSH1 0x20 DUP6 DUP4 ADD ADD MSTORE DUP1 SWAP5 POP POP POP POP POP SWAP3 SWAP2 POP POP JUMP JUMPDEST PUSH1 0x0 DUP1 PUSH1 0x0 PUSH1 0x60 DUP5 DUP7 SUB SLT ISZERO PUSH2 0x1704 JUMPI PUSH1 0x0 DUP1 REVERT JUMPDEST DUP4 CALLDATALOAD SWAP3 POP PUSH1 0x20 DUP5 ADD CALLDATALOAD PUSH8 0xFFFFFFFFFFFFFFFF DUP2 GT ISZERO PUSH2 0x1722 JUMPI PUSH1 0x0 DUP1 REVERT JUMPDEST PUSH2 0x172E DUP7 DUP3 DUP8 ADD PUSH2 0x1662 JUMP JUMPDEST SWAP3 POP POP PUSH1 0x40 DUP5 ADD CALLDATALOAD SWAP1 POP SWAP3 POP SWAP3 POP SWAP3 JUMP JUMPDEST PUSH1 0x0 PUSH1 0x20 DUP3 DUP5 SUB SLT ISZERO PUSH2 0x1751 JUMPI PUSH1 0x0 DUP1 REVERT JUMPDEST POP CALLDATALOAD SWAP2 SWAP1 POP JUMP JUMPDEST DUP1 CALLDATALOAD PUSH1 0x1 PUSH1 0x1 PUSH1 0xA0 SHL SUB DUP2 AND DUP2 EQ PUSH2 0x176F JUMPI PUSH1 0x0 DUP1 REVERT JUMPDEST SWAP2 SWAP1 POP JUMP JUMPDEST PUSH1 0x0 DUP1 PUSH1 0x40 DUP4 DUP6 SUB SLT ISZERO PUSH2 0x1787 JUMPI PUSH1 0x0 DUP1 REVERT JUMPDEST PUSH2 0x1790 DUP4 PUSH2 0x1758 JUMP JUMPDEST SWAP5 PUSH1 0x20 SWAP4 SWAP1 SWAP4 ADD CALLDATALOAD SWAP4 POP POP POP JUMP JUMPDEST PUSH1 0x0 PUSH1 0x20 DUP3 DUP5 SUB SLT ISZERO PUSH2 0x17B0 JUMPI PUSH1 0x0 DUP1 REVERT JUMPDEST PUSH2 0xB3E DUP3 PUSH2 0x1758 JUMP JUMPDEST PUSH1 0x0 DUP1 PUSH1 0x40 DUP4 DUP6 SUB SLT ISZERO PUSH2 0x17CC JUMPI PUSH1 0x0 DUP1 REVERT JUMPDEST PUSH2 0x17D5 DUP4 PUSH2 0x1758 JUMP JUMPDEST SWAP2 POP PUSH1 0x20 DUP4 ADD CALLDATALOAD PUSH8 0xFFFFFFFFFFFFFFFF DUP2 GT ISZERO PUSH2 0x17F1 JUMPI PUSH1 0x0 DUP1 REVERT JUMPDEST PUSH2 0x17FD DUP6 DUP3 DUP7 ADD PUSH2 0x1662 JUMP JUMPDEST SWAP2 POP POP SWAP3 POP SWAP3 SWAP1 POP JUMP JUMPDEST PUSH1 0x0 DUP1 PUSH1 0x0 DUP1 PUSH1 0x0 PUSH1 0xA0 DUP7 DUP9 SUB SLT ISZERO PUSH2 0x181F JUMPI PUSH1 0x0 DUP1 REVERT JUMPDEST PUSH2 0x1828 DUP7 PUSH2 0x1758 JUMP JUMPDEST SWAP5 POP PUSH1 0x20 DUP7 ADD CALLDATALOAD SWAP4 POP PUSH1 0x40 DUP7 ADD CALLDATALOAD PUSH8 0xFFFFFFFFFFFFFFFF DUP1 DUP3 GT ISZERO PUSH2 0x184C JUMPI PUSH1 0x0 DUP1 REVERT JUMPDEST PUSH2 0x1858 DUP10 DUP4 DUP11 ADD PUSH2 0x1662 JUMP JUMPDEST SWAP5 POP PUSH1 0x60 DUP9 ADD CALLDATALOAD SWAP4 POP PUSH1 0x80 DUP9 ADD CALLDATALOAD SWAP2 POP DUP1 DUP3 GT ISZERO PUSH2 0x1875 JUMPI PUSH1 0x0 DUP1 REVERT JUMPDEST POP PUSH2 0x1882 DUP9 DUP3 DUP10 ADD PUSH2 0x1662 JUMP JUMPDEST SWAP2 POP POP SWAP3 SWAP6 POP SWAP3 SWAP6 SWAP1 SWAP4 POP JUMP JUMPDEST PUSH1 0x0 DUP1 PUSH1 0x40 DUP4 DUP6 SUB SLT ISZERO PUSH2 0x18A2 JUMPI PUSH1 0x0 DUP1 REVERT JUMPDEST DUP3 CALLDATALOAD SWAP2 POP PUSH1 0x20 DUP4 ADD CALLDATALOAD PUSH8 0xFFFFFFFFFFFFFFFF DUP2 GT ISZERO PUSH2 0x17F1 JUMPI PUSH1 0x0 DUP1 REVERT JUMPDEST PUSH1 0x0 DUP1 PUSH1 0x0 PUSH1 0x60 DUP5 DUP7 SUB SLT ISZERO PUSH2 0x18D5 JUMPI PUSH1 0x0 DUP1 REVERT JUMPDEST PUSH2 0x18DE DUP5 PUSH2 0x1758 JUMP JUMPDEST SWAP3 POP PUSH1 0x20 DUP5 ADD CALLDATALOAD SWAP2 POP PUSH1 0x40 DUP5 ADD CALLDATALOAD PUSH8 0xFFFFFFFFFFFFFFFF DUP2 GT ISZERO PUSH2 0x1901 JUMPI PUSH1 0x0 DUP1 REVERT JUMPDEST PUSH2 0x190D DUP7 DUP3 DUP8 ADD PUSH2 0x1662 JUMP JUMPDEST SWAP2 POP POP SWAP3 POP SWAP3 POP SWAP3 JUMP JUMPDEST PUSH1 0x1 DUP2 DUP2 SHR SWAP1 DUP3 AND DUP1 PUSH2 0x192B JUMPI PUSH1 0x7F DUP3 AND SWAP2 POP JUMPDEST PUSH1 0x20 DUP3 LT DUP2 SUB PUSH2 0x194B JUMPI PUSH4 0x4E487B71 PUSH1 0xE0 SHL PUSH1 0x0 MSTORE PUSH1 0x22 PUSH1 0x4 MSTORE PUSH1 0x24 PUSH1 0x0 REVERT JUMPDEST POP SWAP2 SWAP1 POP JUMP JUMPDEST PUSH1 0x20 DUP1 DUP3 MSTORE DUP2 DUP2 ADD MSTORE PUSH32 0x4F776E61626C653A2063616C6C6572206973206E6F7420746865206F776E6572 PUSH1 0x40 DUP3 ADD MSTORE PUSH1 0x60 ADD SWAP1 JUMP JUMPDEST PUSH4 0x4E487B71 PUSH1 0xE0 SHL PUSH1 0x0 MSTORE PUSH1 0x11 PUSH1 0x4 MSTORE PUSH1 0x24 PUSH1 0x0 REVERT JUMPDEST PUSH1 0x0 DUP2 PUSH2 0x19AB JUMPI PUSH2 0x19AB PUSH2 0x1986 JUMP JUMPDEST POP PUSH1 0x0 NOT ADD SWAP1 JUMP JUMPDEST PUSH1 0x0 DUP4 MLOAD PUSH2 0x19C5 DUP2 DUP5 PUSH1 0x20 DUP9 ADD PUSH2 0x15E9 JUMP JUMPDEST DUP4 MLOAD SWAP1 DUP4 ADD SWAP1 PUSH2 0x19D9 DUP2 DUP4 PUSH1 0x20 DUP9 ADD PUSH2 0x15E9 JUMP JUMPDEST ADD SWAP5 SWAP4 POP POP POP POP JUMP JUMPDEST PUSH1 0x0 PUSH1 0x1 DUP3 ADD PUSH2 0x19F4 JUMPI PUSH2 0x19F4 PUSH2 0x1986 JUMP JUMPDEST POP PUSH1 0x1 ADD SWAP1 JUMP JUMPDEST PUSH4 0x4E487B71 PUSH1 0xE0 SHL PUSH1 0x0 MSTORE PUSH1 0x12 PUSH1 0x4 MSTORE PUSH1 0x24 PUSH1 0x0 REVERT JUMPDEST PUSH1 0x0 DUP3 PUSH2 0x1A20 JUMPI PUSH2 0x1A20 PUSH2 0x19FB JUMP JUMPDEST POP DIV SWAP1 JUMP JUMPDEST PUSH1 0x0 DUP3 DUP3 LT ISZERO PUSH2 0x1A37 JUMPI PUSH2 0x1A37 PUSH2 0x1986 JUMP JUMPDEST POP SUB SWAP1 JUMP JUMPDEST PUSH1 0x0 DUP3 PUSH2 0x1A4B JUMPI PUSH2 0x1A4B PUSH2 0x19FB JUMP JUMPDEST POP MOD SWAP1 JUMP JUMPDEST PUSH1 0x0 DUP3 NOT DUP3 GT ISZERO PUSH2 0x1A63 JUMPI PUSH2 0x1A63 PUSH2 0x1986 JUMP JUMPDEST POP ADD SWAP1 JUMP JUMPDEST PUSH4 0x4E487B71 PUSH1 0xE0 SHL PUSH1 0x0 MSTORE PUSH1 0x32 PUSH1 0x4 MSTORE PUSH1 0x24 PUSH1 0x0 REVERT JUMPDEST PUSH1 0x1F DUP3 GT ISZERO PUSH2 0x5DF JUMPI PUSH1 0x0 DUP2 DUP2 MSTORE PUSH1 0x20 DUP2 KECCAK256 PUSH1 0x1F DUP6 ADD PUSH1 0x5 SHR DUP2 ADD PUSH1 0x20 DUP7 LT ISZERO PUSH2 0x1AA5 JUMPI POP DUP1 JUMPDEST PUSH1 0x1F DUP6 ADD PUSH1 0x5 SHR DUP3 ADD SWAP2 POP JUMPDEST DUP2 DUP2 LT ISZERO PUSH2 0x1AC4 JUMPI DUP3 DUP2 SSTORE PUSH1 0x1 ADD PUSH2 0x1AB1 JUMP JUMPDEST POP POP POP POP POP POP JUMP JUMPDEST DUP2 MLOAD PUSH8 0xFFFFFFFFFFFFFFFF DUP2 GT ISZERO PUSH2 0x1AE6 JUMPI PUSH2 0x1AE6 PUSH2 0x164C JUMP JUMPDEST PUSH2 0x1AFA DUP2 PUSH2 0x1AF4 DUP5 SLOAD PUSH2 0x1917 JUMP JUMPDEST DUP5 PUSH2 0x1A7E JUMP JUMPDEST PUSH1 0x20 DUP1 PUSH1 0x1F DUP4 GT PUSH1 0x1 DUP2 EQ PUSH2 0x1B2F JUMPI PUSH1 0x0 DUP5 ISZERO PUSH2 0x1B17 JUMPI POP DUP6 DUP4 ADD MLOAD JUMPDEST PUSH1 0x0 NOT PUSH1 0x3 DUP7 SWAP1 SHL SHR NOT AND PUSH1 0x1 DUP6 SWAP1 SHL OR DUP6 SSTORE PUSH2 0x1AC4 JUMP JUMPDEST PUSH1 0x0 DUP6 DUP2 MSTORE PUSH1 0x20 DUP2 KECCAK256 PUSH1 0x1F NOT DUP7 AND SWAP2 JUMPDEST DUP3 DUP2 LT ISZERO PUSH2 0x1B5E JUMPI DUP9 DUP7 ADD MLOAD DUP3 SSTORE SWAP5 DUP5 ADD SWAP5 PUSH1 0x1 SWAP1 SWAP2 ADD SWAP1 DUP5 ADD PUSH2 0x1B3F JUMP JUMPDEST POP DUP6 DUP3 LT ISZERO PUSH2 0x1B7C JUMPI DUP8 DUP6 ADD MLOAD PUSH1 0x0 NOT PUSH1 0x3 DUP9 SWAP1 SHL PUSH1 0xF8 AND SHR NOT AND DUP2 SSTORE JUMPDEST POP POP POP POP POP PUSH1 0x1 SWAP1 DUP2 SHL ADD SWAP1 SSTORE POP JUMP INVALID LOG2 PUSH5 0x6970667358 0x22 SLT KECCAK256 0xB1 0xCE 0xAA 0x4C PUSH22 0x7B20410497822C8F13D0BEC45391587C052EBD71AE50 MSIZE 0xA9 0xD8 PUSH11 0xD64736F6C634300080F00 CALLER ",
  "sha1": "0c19de967a8bb71991d9b9f821ecb3bd45dc444a",
  "source": "// SPDX-License-Identifier: GPL-3.0\npragma solidity ^0.8.8;\n\nimport \"./SoulboundCore.sol\";\n\n/**\n * @title SoulboundWithSignature.\n * @author Daccred.\n * @dev  SoulboundWithSignature contract template allows freedom of\n *       issuing and revoking tokens with Signature while controlling\n *       the totalSupply of the token.\n */\ncontract SoulboundWithSignature is SoulboundCore {\n    /// @dev Deploys inherited contract and sub contracts.\n    constructor(\n        string memory name,\n        string memory symbol,\n        address _allowlistOwner,\n        uint256 _totalSupply\n    ) SoulboundCore(name, symbol, _allowlistOwner, _totalSupply) {}\n\n    /**\n     * @dev Ref SoulboundCore.sol issueWithSignature\n     *       This function grants the access to only the\n     *       deployer of the contract, unlike the core\n     *       that allows the function for anyone who has a\n     *       signature signed by the allowlistOwner.\n     *       This contract can be called by the deployer of the\n     *       contract [DaccredDeployer] but is also protected\n     *       as to the allowlistOwner must be the signer of the `sig.`\n     *\n     * @notice Callable by the deployer of this contract [DaccredDeployer].\n     *\n     * @param addr       Address to be minted to.\n     * @param hash       Hash of message signed.\n     * @param sig        Signature.\n     * @param tokenId    TokenId to be issued.\n     * @param tokenURI   URI of token to be issued.\n     */\n    function ownerIssueWithSignature(\n        address addr,\n        bytes32 hash,\n        bytes memory sig,\n        uint256 tokenId,\n        string memory tokenURI\n    ) public onlyOwner {\n        /// @dev Ensure that the supply is not crossed.\n        /// @dev    Should all soulbound tokens need to be limited,\n        ///         copy this code and paste in Soulboundcore.sol\n        ///         issueWithSignature function.\n        require(supply < totalSupply, \"Issue Cap Reached.\");\n        /// @dev Issue With Signature.\n        issueWithSignature(addr, hash, sig, tokenId, tokenURI);\n        /// @dev Incrememt supply on successful issue.\n        supply++;\n    }\n\n    /**\n     * @dev Ref SoulboundCore.sol revokeWithSignature\n     *       This function grants the access to only the\n     *       deployer of the contract, unlike the core\n     *       that allows the function for anyone who has a\n     *       signature signed by the allowlistOwner.\n     *       This contract can be called by the deployer of the\n     *       contract [DaccredDeployer] but is also protected\n     *       as to the allowlistOwner must be the signer of the `sig.`\n     *\n     * @notice Callable by the deployer of this contract [DaccredDeployer].\n     *\n     * @param hash       Hash of message signed.\n     * @param sig        Signature.\n     * @param tokenId    TokenId to be issued.\n     */\n    function ownerRevokeWithSignature(\n        bytes32 hash,\n        bytes memory sig,\n        uint256 tokenId\n    ) public onlyOwner {\n        /// @dev    If the supply control is not 0,\n        ///         decrement the supply.\n        ///         Should all soulbound tokens need to be limited,\n        ///         copy this code and paste in Soulboundcore.sol\n        ///         revokeWithSignature function.\n        if (supply != 0) {\n            /// @dev Decrement supply.\n            supply--;\n        } else {\n            /// @dev Throw error if 0 is reached.\n            revert(\"Lowest limit reached.\");\n        }\n\n        /// @dev Revoke With Signature.\n        revokeWithSignature(hash, sig, tokenId);\n    }\n}\n",
  "sourcePath": "contracts/contracts/packages/soulbound/contracts/SoulboundWithSignature.sol",
  "type": "contract"
}