{
  "abi": [
    {
      "inputs": [
        {
          "internalType": "uint256",
          "name": "startTokenId_",
          "type": "uint256"
        }
      ],
      "stateMutability": "nonpayable",
      "type": "constructor"
    },
    {
      "inputs": [],
      "name": "startTokenId",
      "outputs": [
        {
          "internalType": "uint256",
          "name": "",
          "type": "uint256"
        }
      ],
      "stateMutability": "view",
      "type": "function"
    }
  ],
  "bytecode": "608060405234801561001057600080fd5b506040516100db3803806100db83398101604081905261002f91610037565b600055610050565b60006020828403121561004957600080fd5b5051919050565b607d8061005e6000396000f3fe6080604052348015600f57600080fd5b506004361060285760003560e01c8063e6798baa14602d575b600080fd5b603560005481565b60405190815260200160405180910390f3fea2646970667358221220a2ad42ffdeb264730a0ce52c0b1d5c737b84852edcd8f17ddd90a11e5cd0a3d064736f6c634300080f0033",
  "bytecodeSha1": "c7a0822956208462f5d70c767b4471e2f6a87c9f",
  "compiler": {
    "evm_version": "istanbul",
    "optimizer": {
      "enabled": true,
      "runs": 200
    },
    "version": "0.8.15+commit.e14f2714"
  },
  "contractName": "StartTokenIdHelper",
  "language": "Solidity",
  "natspec": {
    "kind": "dev",
    "methods": {},
    "notice": "This Helper is used to return a dynmamic value in the overriden _startTokenId() function. Extending this Helper before the ERC721A contract give us access to the herein set `startTokenId` to be returned by the overriden `_startTokenId()` function of ERC721A in the ERC721AStartTokenId mocks.",
    "version": 1
  },
  "opcodes": "PUSH1 0x80 PUSH1 0x40 MSTORE CALLVALUE DUP1 ISZERO PUSH1 0xF JUMPI PUSH1 0x0 DUP1 REVERT JUMPDEST POP PUSH1 0x4 CALLDATASIZE LT PUSH1 0x28 JUMPI PUSH1 0x0 CALLDATALOAD PUSH1 0xE0 SHR DUP1 PUSH4 0xE6798BAA EQ PUSH1 0x2D JUMPI JUMPDEST PUSH1 0x0 DUP1 REVERT JUMPDEST PUSH1 0x35 PUSH1 0x0 SLOAD DUP2 JUMP JUMPDEST PUSH1 0x40 MLOAD SWAP1 DUP2 MSTORE PUSH1 0x20 ADD PUSH1 0x40 MLOAD DUP1 SWAP2 SUB SWAP1 RETURN INVALID LOG2 PUSH5 0x6970667358 0x22 SLT KECCAK256 LOG2 0xAD TIMESTAMP SELFDESTRUCT 0xDE 0xB2 PUSH5 0x730A0CE52C SIGNEXTEND SAR 0x5C PUSH20 0x7B84852EDCD8F17DDD90A11E5CD0A3D064736F6C PUSH4 0x4300080F STOP CALLER ",
  "sha1": "a145115a812b1835ac0f54472ad15ed8f71cb785",
  "source": "// SPDX-License-Identifier: GPL-3.0\n\n// \t _____     ______     ______     ______     ______     ______     _____\n//  /\\  __-.  /\\  __ \\   /\\  ___\\   /\\  ___\\   /\\  == \\   /\\  ___\\   /\\  __-.\n//  \\ \\ \\/\\ \\ \\ \\  __ \\  \\ \\ \\____  \\ \\ \\____  \\ \\  __<   \\ \\  __\\   \\ \\ \\/\\ \\\n//   \\ \\____-  \\ \\_\\ \\_\\  \\ \\_____\\  \\ \\_____\\  \\ \\_\\ \\_\\  \\ \\_____\\  \\ \\____-\n//    \\/____/   \\/_/\\/_/   \\/_____/   \\/_____/   \\/_/ /_/   \\/_____/   \\/____/\n\npragma solidity ^0.8.4;\n\n/**\n * This Helper is used to return a dynmamic value in the overriden _startTokenId() function.\n * Extending this Helper before the ERC721A contract give us access to the herein set `startTokenId`\n * to be returned by the overriden `_startTokenId()` function of ERC721A in the ERC721AStartTokenId mocks.\n */\ncontract StartTokenIdHelper {\n    uint256 public startTokenId;\n\n    constructor(uint256 startTokenId_) {\n        startTokenId = startTokenId_;\n    }\n}\n",
  "sourcePath": "contracts/contracts/packages/nft/contracts/mocks/StartTokenIdHelper.sol",
  "type": "contract"
}