{
  "abi": [
    {
      "anonymous": false,
      "inputs": [
        {
          "indexed": false,
          "internalType": "uint256",
          "name": "tokenId",
          "type": "uint256"
        },
        {
          "indexed": false,
          "internalType": "uint256",
          "name": "time",
          "type": "uint256"
        }
      ],
      "name": "Extended",
      "type": "event"
    },
    {
      "inputs": [
        {
          "internalType": "uint256",
          "name": "tokenId",
          "type": "uint256"
        },
        {
          "internalType": "uint256",
          "name": "time",
          "type": "uint256"
        }
      ],
      "name": "extendExpiry",
      "outputs": [],
      "stateMutability": "nonpayable",
      "type": "function"
    },
    {
      "inputs": [
        {
          "internalType": "uint256",
          "name": "tokenId",
          "type": "uint256"
        }
      ],
      "name": "getExpiryDate",
      "outputs": [
        {
          "internalType": "uint256",
          "name": "",
          "type": "uint256"
        }
      ],
      "stateMutability": "view",
      "type": "function"
    },
    {
      "inputs": [
        {
          "internalType": "uint256",
          "name": "tokenId",
          "type": "uint256"
        }
      ],
      "name": "getTimeLeft",
      "outputs": [
        {
          "internalType": "uint256",
          "name": "",
          "type": "uint256"
        }
      ],
      "stateMutability": "view",
      "type": "function"
    },
    {
      "inputs": [
        {
          "internalType": "uint256",
          "name": "tokenId",
          "type": "uint256"
        }
      ],
      "name": "isValid",
      "outputs": [
        {
          "internalType": "bool",
          "name": "",
          "type": "bool"
        }
      ],
      "stateMutability": "view",
      "type": "function"
    }
  ],
  "bytecode": "608060405234801561001057600080fd5b5061022b806100206000396000f3fe608060405234801561001057600080fd5b506004361061004c5760003560e01c80636833f20014610051578063c3cab38a14610084578063e8c5876314610099578063f577a500146100ac575b600080fd5b61007161005f366004610175565b60009081526020819052604090205490565b6040519081526020015b60405180910390f35b61009761009236600461018e565b6100df565b005b6100716100a7366004610175565b610137565b6100cf6100ba366004610175565b60009081526020819052604090205442111590565b604051901515815260200161007b565b6100e981426101c6565b600083815260208181526040918290209290925580518481529182018390527f41a73beb1018a8b63e0f451a8a4f483806142cf14be45b1a58a23776a1e9b4bc910160405180910390a15050565b60008181526020819052604081205442111561015557506000919050565b60008281526020819052604090205461016f9042906101de565b92915050565b60006020828403121561018757600080fd5b5035919050565b600080604083850312156101a157600080fd5b50508035926020909101359150565b634e487b7160e01b600052601160045260246000fd5b600082198211156101d9576101d96101b0565b500190565b6000828210156101f0576101f06101b0565b50039056fea2646970667358221220239debd896361c280ea4e7eb5d2462bfdb533927594d1022b012d84e2dc7bebc64736f6c634300080c0033",
  "bytecodeSha1": "67fe842c4073c6e48d213685bf4aa3589531317c",
  "compiler": {
    "evm_version": "istanbul",
    "optimizer": {
      "enabled": true,
      "runs": 200
    },
    "version": "0.8.12+commit.f00d7308"
  },
  "contractName": "IsValidWithDate",
  "language": "Solidity",
  "natspec": {
    "author": "Daccred.",
    "details": "Controls time for minted tokens till expiry.",
    "kind": "dev",
    "methods": {
      "extendExpiry(uint256,uint256)": {
        "details": "On every successful redemption or mint of token the       expiry of the token is extended by the duration passed       in the contract.       This should be called on expired tokens.",
        "notice": "This function is expected to be called by the           SoulboundRedeemable on every mint.",
        "params": {
          "time": "Length of time to extend it with.",
          "tokenId": "Token to extend its expiry."
        }
      },
      "getExpiryDate(uint256)": {
        "details": "Returns the expiry date of `tokenId`.",
        "notice": "Callable by anyone.",
        "params": {
          "tokenId": "Token to get its expiry."
        },
        "returns": {
          "_0": "time of expiry."
        }
      },
      "getTimeLeft(uint256)": {
        "details": "Returns the time left for a token to expire.",
        "notice": "Callable by anyone.",
        "params": {
          "tokenId": "Token to get its expiry."
        },
        "returns": {
          "_0": "time left till expiry."
        }
      },
      "isValid(uint256)": {
        "details": "Return true if the token is expired or false if otherwise.",
        "notice": "Callable by anyone.",
        "params": {
          "tokenId": "Token to check if expired."
        },
        "returns": {
          "_0": "bool true or false."
        }
      }
    },
    "stateVariables": {
      "tokenExpiryDate": {
        "details": "Mapping individual tokens to their expiry dates."
      }
    },
    "title": "IsValidWithDate contract.",
    "version": 1
  },
  "opcodes": "PUSH1 0x80 PUSH1 0x40 MSTORE CALLVALUE DUP1 ISZERO PUSH2 0x10 JUMPI PUSH1 0x0 DUP1 REVERT JUMPDEST POP PUSH1 0x4 CALLDATASIZE LT PUSH2 0x4C JUMPI PUSH1 0x0 CALLDATALOAD PUSH1 0xE0 SHR DUP1 PUSH4 0x6833F200 EQ PUSH2 0x51 JUMPI DUP1 PUSH4 0xC3CAB38A EQ PUSH2 0x84 JUMPI DUP1 PUSH4 0xE8C58763 EQ PUSH2 0x99 JUMPI DUP1 PUSH4 0xF577A500 EQ PUSH2 0xAC JUMPI JUMPDEST PUSH1 0x0 DUP1 REVERT JUMPDEST PUSH2 0x71 PUSH2 0x5F CALLDATASIZE PUSH1 0x4 PUSH2 0x175 JUMP JUMPDEST PUSH1 0x0 SWAP1 DUP2 MSTORE PUSH1 0x20 DUP2 SWAP1 MSTORE PUSH1 0x40 SWAP1 KECCAK256 SLOAD SWAP1 JUMP JUMPDEST PUSH1 0x40 MLOAD SWAP1 DUP2 MSTORE PUSH1 0x20 ADD JUMPDEST PUSH1 0x40 MLOAD DUP1 SWAP2 SUB SWAP1 RETURN JUMPDEST PUSH2 0x97 PUSH2 0x92 CALLDATASIZE PUSH1 0x4 PUSH2 0x18E JUMP JUMPDEST PUSH2 0xDF JUMP JUMPDEST STOP JUMPDEST PUSH2 0x71 PUSH2 0xA7 CALLDATASIZE PUSH1 0x4 PUSH2 0x175 JUMP JUMPDEST PUSH2 0x137 JUMP JUMPDEST PUSH2 0xCF PUSH2 0xBA CALLDATASIZE PUSH1 0x4 PUSH2 0x175 JUMP JUMPDEST PUSH1 0x0 SWAP1 DUP2 MSTORE PUSH1 0x20 DUP2 SWAP1 MSTORE PUSH1 0x40 SWAP1 KECCAK256 SLOAD TIMESTAMP GT ISZERO SWAP1 JUMP JUMPDEST PUSH1 0x40 MLOAD SWAP1 ISZERO ISZERO DUP2 MSTORE PUSH1 0x20 ADD PUSH2 0x7B JUMP JUMPDEST PUSH2 0xE9 DUP2 TIMESTAMP PUSH2 0x1C6 JUMP JUMPDEST PUSH1 0x0 DUP4 DUP2 MSTORE PUSH1 0x20 DUP2 DUP2 MSTORE PUSH1 0x40 SWAP2 DUP3 SWAP1 KECCAK256 SWAP3 SWAP1 SWAP3 SSTORE DUP1 MLOAD DUP5 DUP2 MSTORE SWAP2 DUP3 ADD DUP4 SWAP1 MSTORE PUSH32 0x41A73BEB1018A8B63E0F451A8A4F483806142CF14BE45B1A58A23776A1E9B4BC SWAP2 ADD PUSH1 0x40 MLOAD DUP1 SWAP2 SUB SWAP1 LOG1 POP POP JUMP JUMPDEST PUSH1 0x0 DUP2 DUP2 MSTORE PUSH1 0x20 DUP2 SWAP1 MSTORE PUSH1 0x40 DUP2 KECCAK256 SLOAD TIMESTAMP GT ISZERO PUSH2 0x155 JUMPI POP PUSH1 0x0 SWAP2 SWAP1 POP JUMP JUMPDEST PUSH1 0x0 DUP3 DUP2 MSTORE PUSH1 0x20 DUP2 SWAP1 MSTORE PUSH1 0x40 SWAP1 KECCAK256 SLOAD PUSH2 0x16F SWAP1 TIMESTAMP SWAP1 PUSH2 0x1DE JUMP JUMPDEST SWAP3 SWAP2 POP POP JUMP JUMPDEST PUSH1 0x0 PUSH1 0x20 DUP3 DUP5 SUB SLT ISZERO PUSH2 0x187 JUMPI PUSH1 0x0 DUP1 REVERT JUMPDEST POP CALLDATALOAD SWAP2 SWAP1 POP JUMP JUMPDEST PUSH1 0x0 DUP1 PUSH1 0x40 DUP4 DUP6 SUB SLT ISZERO PUSH2 0x1A1 JUMPI PUSH1 0x0 DUP1 REVERT JUMPDEST POP POP DUP1 CALLDATALOAD SWAP3 PUSH1 0x20 SWAP1 SWAP2 ADD CALLDATALOAD SWAP2 POP JUMP JUMPDEST PUSH4 0x4E487B71 PUSH1 0xE0 SHL PUSH1 0x0 MSTORE PUSH1 0x11 PUSH1 0x4 MSTORE PUSH1 0x24 PUSH1 0x0 REVERT JUMPDEST PUSH1 0x0 DUP3 NOT DUP3 GT ISZERO PUSH2 0x1D9 JUMPI PUSH2 0x1D9 PUSH2 0x1B0 JUMP JUMPDEST POP ADD SWAP1 JUMP JUMPDEST PUSH1 0x0 DUP3 DUP3 LT ISZERO PUSH2 0x1F0 JUMPI PUSH2 0x1F0 PUSH2 0x1B0 JUMP JUMPDEST POP SUB SWAP1 JUMP INVALID LOG2 PUSH5 0x6970667358 0x22 SLT KECCAK256 0x23 SWAP14 0xEB 0xD8 SWAP7 CALLDATASIZE SHR 0x28 0xE LOG4 0xE7 0xEB 0x5D 0x24 PUSH3 0xBFDB53 CODECOPY 0x27 MSIZE 0x4D LT 0x22 0xB0 SLT 0xD8 0x4E 0x2D 0xC7 0xBE 0xBC PUSH5 0x736F6C6343 STOP ADDMOD 0xC STOP CALLER ",
  "sha1": "9e39d3ecd9f9d22539cf27f5b8df6d0ec00e1154",
  "source": "// SPDX-License-Identifier: GPL-3.0\npragma solidity ^0.8.0;\n\n/**\n* @title IsValidWithDate contract.\n* @author Daccred.\n* @dev Controls time for minted tokens till expiry.\n*/\ncontract IsValidWithDate {\n    /// @dev Mapping individual tokens to their expiry dates.\n    mapping(uint256 => uint256) internal tokenExpiryDate;\n\n    /// @dev Emitted when a token is extended by redemption.\n    event Extended(uint256 tokenId, uint256 time);\n\n    /**\n    * @dev  On every successful redemption or mint of token the\n    *       expiry of the token is extended by the duration passed\n    *       in the contract.\n    *       This should be called on expired tokens.\n    *\n    * @notice   This function is expected to be called by the\n    *           SoulboundRedeemable on every mint.\n    *\n    * @param tokenId    Token to extend its expiry.\n    * @param time       Length of time to extend it with.\n    */\n    function extendExpiry(uint256 tokenId, uint256 time) \n    public\n    {\n        /// @dev Set expiry to new time.\n        tokenExpiryDate[tokenId] = block.timestamp + time;\n        /// @dev Emit the {Extended} event.\n        emit Extended(tokenId, time);\n    }\n\n    /**\n    * @dev Returns the expiry date of `tokenId`.\n    *\n    * @notice Callable by anyone.\n    *\n    * @param tokenId Token to get its expiry.\n    *\n    * @return time of expiry.\n    */\n    function getExpiryDate(uint256 tokenId) public view returns(uint256) {\n        return tokenExpiryDate[tokenId];\n    }\n\n    /**\n    * @dev Return true if the token is expired or false if otherwise.\n    *\n    * @notice Callable by anyone.\n    *\n    * @param tokenId Token to check if expired.\n    *\n    * @return bool true or false.\n    */\n    function isValid(uint256 tokenId) public view returns(bool) {\n        return block.timestamp <= getExpiryDate(tokenId);\n    }\n\n    /**\n    * @dev Returns the time left for a token to expire.\n    *\n    * @notice Callable by anyone.\n    *\n    * @param tokenId Token to get its expiry.\n    *\n    * @return time left till expiry.\n    */\n    function getTimeLeft(uint256 tokenId) public view returns(uint256) {\n        /// @dev    If the current time has passed the mapped expiry \n        ///         time of token.\n        if (block.timestamp > getExpiryDate(tokenId)) {\n            /// @dev Return 0.\n            return 0;\n        } else {\n            /// @dev    Else,\n            ///         Return time left.\n            return getExpiryDate(tokenId) - block.timestamp;\n        }\n    }\n}\n",
  "sourcePath": "contracts/extensions/IsValidWithDate.sol",
  "type": "contract"
}