{
  "abi": [
    {
      "inputs": [],
      "stateMutability": "nonpayable",
      "type": "constructor"
    },
    {
      "anonymous": false,
      "inputs": [
        {
          "indexed": true,
          "internalType": "address",
          "name": "previousOwner",
          "type": "address"
        },
        {
          "indexed": true,
          "internalType": "address",
          "name": "newOwner",
          "type": "address"
        }
      ],
      "name": "OwnershipTransferred",
      "type": "event"
    },
    {
      "inputs": [],
      "name": "owner",
      "outputs": [
        {
          "internalType": "address",
          "name": "",
          "type": "address"
        }
      ],
      "stateMutability": "view",
      "type": "function"
    },
    {
      "inputs": [],
      "name": "renounceOwnership",
      "outputs": [],
      "stateMutability": "nonpayable",
      "type": "function"
    },
    {
      "inputs": [
        {
          "internalType": "address",
          "name": "newOwner",
          "type": "address"
        }
      ],
      "name": "transferOwnership",
      "outputs": [],
      "stateMutability": "nonpayable",
      "type": "function"
    }
  ],
  "bytecode": "608060405234801561001057600080fd5b5061001a3361001f565b61006f565b600080546001600160a01b038381166001600160a01b0319831681178455604051919092169283917f8be0079c531659141344cd1fd0a4f28419497f9722a3daafe3b4186f6b6457e09190a35050565b6102248061007e6000396000f3fe608060405234801561001057600080fd5b50600436106100415760003560e01c8063715018a6146100465780638da5cb5b14610050578063f2fde38b1461006f575b600080fd5b61004e610082565b005b600054604080516001600160a01b039092168252519081900360200190f35b61004e61007d3660046101be565b610096565b61008a610114565b610094600061016e565b565b61009e610114565b6001600160a01b0381166101085760405162461bcd60e51b815260206004820152602660248201527f4f776e61626c653a206e6577206f776e657220697320746865207a65726f206160448201526564647265737360d01b60648201526084015b60405180910390fd5b6101118161016e565b50565b6000546001600160a01b031633146100945760405162461bcd60e51b815260206004820181905260248201527f4f776e61626c653a2063616c6c6572206973206e6f7420746865206f776e657260448201526064016100ff565b600080546001600160a01b038381166001600160a01b0319831681178455604051919092169283917f8be0079c531659141344cd1fd0a4f28419497f9722a3daafe3b4186f6b6457e09190a35050565b6000602082840312156101d057600080fd5b81356001600160a01b03811681146101e757600080fd5b939250505056fea2646970667358221220c485ecebbffd9160fe4319e1ea9756f76fa040180160598167852321a079f70664736f6c634300080c0033",
  "bytecodeSha1": "369e52a292af054f336349ca0496d52a8d559ef4",
  "compiler": {
    "evm_version": "istanbul",
    "optimizer": {
      "enabled": true,
      "runs": 200
    },
    "version": "0.8.12+commit.f00d7308"
  },
  "contractName": "Ownable",
  "language": "Solidity",
  "natspec": {
    "details": "Contract module which provides a basic access control mechanism, where       there is an account (an owner) that can be granted exclusive access to       specific functions.       By default, the owner account will be the one that deploys the contract. This       can later be changed with {transferOwnership}.       This module is used through inheritance. It will make available the modifier       `onlyOwner`, which can be applied to your functions to restrict their use to       the owner.",
    "kind": "dev",
    "methods": {
      "constructor": {
        "details": "Initializes the contract setting the deployer as the initial owner."
      },
      "owner()": {
        "details": "Returns the address of the current owner."
      },
      "renounceOwnership()": {
        "details": "Leaves the contract without owner. It will not be possible to call       `onlyOwner` functions anymore. Can only be called by the current owner.       NOTE: Renouncing ownership will leave the contract without an owner,       thereby removing any functionality that is only available to the owner."
      },
      "transferOwnership(address)": {
        "details": "Transfers ownership of the contract to a new account (`newOwner`).       Can only be called by the current owner."
      }
    },
    "version": 1
  },
  "opcodes": "PUSH1 0x80 PUSH1 0x40 MSTORE CALLVALUE DUP1 ISZERO PUSH2 0x10 JUMPI PUSH1 0x0 DUP1 REVERT JUMPDEST POP PUSH1 0x4 CALLDATASIZE LT PUSH2 0x41 JUMPI PUSH1 0x0 CALLDATALOAD PUSH1 0xE0 SHR DUP1 PUSH4 0x715018A6 EQ PUSH2 0x46 JUMPI DUP1 PUSH4 0x8DA5CB5B EQ PUSH2 0x50 JUMPI DUP1 PUSH4 0xF2FDE38B EQ PUSH2 0x6F JUMPI JUMPDEST PUSH1 0x0 DUP1 REVERT JUMPDEST PUSH2 0x4E PUSH2 0x82 JUMP JUMPDEST STOP JUMPDEST PUSH1 0x0 SLOAD PUSH1 0x40 DUP1 MLOAD PUSH1 0x1 PUSH1 0x1 PUSH1 0xA0 SHL SUB SWAP1 SWAP3 AND DUP3 MSTORE MLOAD SWAP1 DUP2 SWAP1 SUB PUSH1 0x20 ADD SWAP1 RETURN JUMPDEST PUSH2 0x4E PUSH2 0x7D CALLDATASIZE PUSH1 0x4 PUSH2 0x1BE JUMP JUMPDEST PUSH2 0x96 JUMP JUMPDEST PUSH2 0x8A PUSH2 0x114 JUMP JUMPDEST PUSH2 0x94 PUSH1 0x0 PUSH2 0x16E JUMP JUMPDEST JUMP JUMPDEST PUSH2 0x9E PUSH2 0x114 JUMP JUMPDEST PUSH1 0x1 PUSH1 0x1 PUSH1 0xA0 SHL SUB DUP2 AND PUSH2 0x108 JUMPI PUSH1 0x40 MLOAD PUSH3 0x461BCD PUSH1 0xE5 SHL DUP2 MSTORE PUSH1 0x20 PUSH1 0x4 DUP3 ADD MSTORE PUSH1 0x26 PUSH1 0x24 DUP3 ADD MSTORE PUSH32 0x4F776E61626C653A206E6577206F776E657220697320746865207A65726F2061 PUSH1 0x44 DUP3 ADD MSTORE PUSH6 0x646472657373 PUSH1 0xD0 SHL PUSH1 0x64 DUP3 ADD MSTORE PUSH1 0x84 ADD JUMPDEST PUSH1 0x40 MLOAD DUP1 SWAP2 SUB SWAP1 REVERT JUMPDEST PUSH2 0x111 DUP2 PUSH2 0x16E JUMP JUMPDEST POP JUMP JUMPDEST PUSH1 0x0 SLOAD PUSH1 0x1 PUSH1 0x1 PUSH1 0xA0 SHL SUB AND CALLER EQ PUSH2 0x94 JUMPI PUSH1 0x40 MLOAD PUSH3 0x461BCD PUSH1 0xE5 SHL DUP2 MSTORE PUSH1 0x20 PUSH1 0x4 DUP3 ADD DUP2 SWAP1 MSTORE PUSH1 0x24 DUP3 ADD MSTORE PUSH32 0x4F776E61626C653A2063616C6C6572206973206E6F7420746865206F776E6572 PUSH1 0x44 DUP3 ADD MSTORE PUSH1 0x64 ADD PUSH2 0xFF JUMP JUMPDEST PUSH1 0x0 DUP1 SLOAD PUSH1 0x1 PUSH1 0x1 PUSH1 0xA0 SHL SUB DUP4 DUP2 AND PUSH1 0x1 PUSH1 0x1 PUSH1 0xA0 SHL SUB NOT DUP4 AND DUP2 OR DUP5 SSTORE PUSH1 0x40 MLOAD SWAP2 SWAP1 SWAP3 AND SWAP3 DUP4 SWAP2 PUSH32 0x8BE0079C531659141344CD1FD0A4F28419497F9722A3DAAFE3B4186F6B6457E0 SWAP2 SWAP1 LOG3 POP POP JUMP JUMPDEST PUSH1 0x0 PUSH1 0x20 DUP3 DUP5 SUB SLT ISZERO PUSH2 0x1D0 JUMPI PUSH1 0x0 DUP1 REVERT JUMPDEST DUP2 CALLDATALOAD PUSH1 0x1 PUSH1 0x1 PUSH1 0xA0 SHL SUB DUP2 AND DUP2 EQ PUSH2 0x1E7 JUMPI PUSH1 0x0 DUP1 REVERT JUMPDEST SWAP4 SWAP3 POP POP POP JUMP INVALID LOG2 PUSH5 0x6970667358 0x22 SLT KECCAK256 0xC4 DUP6 0xEC 0xEB 0xBF REVERT SWAP2 PUSH1 0xFE NUMBER NOT 0xE1 0xEA SWAP8 JUMP 0xF7 PUSH16 0xA040180160598167852321A079F70664 PUSH20 0x6F6C634300080C00330000000000000000000000 ",
  "sha1": "ccf832f5535ac98fb97133d3127e095c684c0de9",
  "source": "// SPDX-License-Identifier: MIT\npragma solidity ^0.8.0;\n\n/**\n* @dev  Contract module which provides a basic access control mechanism, where\n*       there is an account (an owner) that can be granted exclusive access to\n*       specific functions.\n*\n*       By default, the owner account will be the one that deploys the contract. This\n*       can later be changed with {transferOwnership}.\n*\n*       This module is used through inheritance. It will make available the modifier\n*       `onlyOwner`, which can be applied to your functions to restrict their use to\n*       the owner.\n*/\ncontract Ownable{\n    address private _owner;\n\n    event OwnershipTransferred(address indexed previousOwner, address indexed newOwner);\n\n    /**\n    * @dev Initializes the contract setting the deployer as the initial owner.\n    */\n    constructor() {\n        _transferOwnership(_msgSender());\n    }\n\n    /**\n    * @dev Throws if called by any account other than the owner.\n    */\n    modifier onlyOwner() {\n        _checkOwner();\n        _;\n    }\n\n    /**\n    * @dev Returns the address of the current owner.\n    */\n    function owner() public view virtual returns (address) {\n        return _owner;\n    }\n\n    /**\n    * @dev Throws if the sender is not the owner.\n    */\n    function _checkOwner() internal view virtual {\n        require(owner() == _msgSender(), \"Ownable: caller is not the owner\");\n    }\n\n    /**\n    * @dev  Leaves the contract without owner. It will not be possible to call\n    *       `onlyOwner` functions anymore. Can only be called by the current owner.\n    *\n    *       NOTE: Renouncing ownership will leave the contract without an owner,\n    *       thereby removing any functionality that is only available to the owner.\n    */\n    function renounceOwnership() public virtual onlyOwner {\n        _transferOwnership(address(0));\n    }\n\n    /**\n    * @dev  Transfers ownership of the contract to a new account (`newOwner`).\n    *       Can only be called by the current owner.\n    */\n    function transferOwnership(address newOwner) public virtual onlyOwner {\n        require(newOwner != address(0), \"Ownable: new owner is the zero address\");\n        _transferOwnership(newOwner);\n    }\n\n    /**\n    * @dev  Transfers ownership of the contract to a new account (`newOwner`).\n    *       Internal function without access restriction.\n    */\n    function _transferOwnership(address newOwner) internal virtual {\n        address oldOwner = _owner;\n        _owner = newOwner;\n        emit OwnershipTransferred(oldOwner, newOwner);\n    }\n\n    /// @dev Returns the msg.sender.\n    function _msgSender() internal view returns(address) {\n        return msg.sender;\n    }\n}\n",
  "sourcePath": "contracts/extensions/Ownable.sol",
  "type": "contract"
}