{
  "abi": [
    {
      "inputs": [
        {
          "internalType": "string",
          "name": "name",
          "type": "string"
        },
        {
          "internalType": "string",
          "name": "symbol",
          "type": "string"
        },
        {
          "internalType": "address",
          "name": "_allowlistOwner",
          "type": "address"
        },
        {
          "internalType": "uint256",
          "name": "_totalSupply",
          "type": "uint256"
        }
      ],
      "stateMutability": "nonpayable",
      "type": "constructor"
    },
    {
      "inputs": [
        {
          "internalType": "address",
          "name": "_address",
          "type": "address"
        }
      ],
      "name": "Unsigned",
      "type": "error"
    },
    {
      "anonymous": false,
      "inputs": [
        {
          "indexed": true,
          "internalType": "address",
          "name": "to",
          "type": "address"
        },
        {
          "indexed": true,
          "internalType": "uint256",
          "name": "tokenId",
          "type": "uint256"
        }
      ],
      "name": "Attest",
      "type": "event"
    },
    {
      "anonymous": false,
      "inputs": [
        {
          "indexed": true,
          "internalType": "address",
          "name": "to",
          "type": "address"
        },
        {
          "indexed": true,
          "internalType": "uint256",
          "name": "tokenId",
          "type": "uint256"
        }
      ],
      "name": "IssueWithSignature",
      "type": "event"
    },
    {
      "anonymous": false,
      "inputs": [
        {
          "indexed": true,
          "internalType": "address",
          "name": "previousOwner",
          "type": "address"
        },
        {
          "indexed": true,
          "internalType": "address",
          "name": "newOwner",
          "type": "address"
        }
      ],
      "name": "OwnershipTransferred",
      "type": "event"
    },
    {
      "anonymous": false,
      "inputs": [
        {
          "indexed": true,
          "internalType": "address",
          "name": "to",
          "type": "address"
        },
        {
          "indexed": true,
          "internalType": "uint256",
          "name": "tokenId",
          "type": "uint256"
        }
      ],
      "name": "Revoke",
      "type": "event"
    },
    {
      "anonymous": false,
      "inputs": [
        {
          "indexed": true,
          "internalType": "uint256",
          "name": "tokenId",
          "type": "uint256"
        }
      ],
      "name": "RevokeWithSignature",
      "type": "event"
    },
    {
      "anonymous": false,
      "inputs": [
        {
          "indexed": true,
          "internalType": "address",
          "name": "_address",
          "type": "address"
        }
      ],
      "name": "Signed",
      "type": "event"
    },
    {
      "anonymous": false,
      "inputs": [
        {
          "indexed": true,
          "internalType": "address",
          "name": "_address",
          "type": "address"
        }
      ],
      "name": "Verified",
      "type": "event"
    },
    {
      "anonymous": false,
      "inputs": [
        {
          "indexed": true,
          "internalType": "bytes32",
          "name": "addressHash",
          "type": "bytes32"
        },
        {
          "indexed": true,
          "internalType": "bool",
          "name": "result",
          "type": "bool"
        }
      ],
      "name": "VerifySignature",
      "type": "event"
    },
    {
      "inputs": [],
      "name": "_getBaseURI",
      "outputs": [
        {
          "internalType": "string",
          "name": "_baseURI",
          "type": "string"
        }
      ],
      "stateMutability": "view",
      "type": "function"
    },
    {
      "inputs": [
        {
          "internalType": "address",
          "name": "owner",
          "type": "address"
        }
      ],
      "name": "balanceOf",
      "outputs": [
        {
          "internalType": "uint256",
          "name": "",
          "type": "uint256"
        }
      ],
      "stateMutability": "view",
      "type": "function"
    },
    {
      "inputs": [
        {
          "internalType": "uint256",
          "name": "tokenId",
          "type": "uint256"
        }
      ],
      "name": "burn",
      "outputs": [],
      "stateMutability": "nonpayable",
      "type": "function"
    },
    {
      "inputs": [
        {
          "internalType": "uint256",
          "name": "tokenId",
          "type": "uint256"
        }
      ],
      "name": "generateTokenURI",
      "outputs": [
        {
          "internalType": "string",
          "name": "_tokenURI",
          "type": "string"
        }
      ],
      "stateMutability": "view",
      "type": "function"
    },
    {
      "inputs": [],
      "name": "getAllowlistOwner",
      "outputs": [
        {
          "internalType": "address",
          "name": "",
          "type": "address"
        }
      ],
      "stateMutability": "view",
      "type": "function"
    },
    {
      "inputs": [
        {
          "internalType": "address",
          "name": "_to",
          "type": "address"
        },
        {
          "internalType": "uint256",
          "name": "_tokenId",
          "type": "uint256"
        }
      ],
      "name": "isMinted",
      "outputs": [
        {
          "internalType": "bool",
          "name": "",
          "type": "bool"
        }
      ],
      "stateMutability": "view",
      "type": "function"
    },
    {
      "inputs": [
        {
          "internalType": "address",
          "name": "addr",
          "type": "address"
        },
        {
          "internalType": "bytes32",
          "name": "hash",
          "type": "bytes32"
        },
        {
          "internalType": "bytes",
          "name": "sig",
          "type": "bytes"
        },
        {
          "internalType": "uint256",
          "name": "tokenId",
          "type": "uint256"
        },
        {
          "internalType": "string",
          "name": "tokenURI",
          "type": "string"
        }
      ],
      "name": "issueWithSignature",
      "outputs": [],
      "stateMutability": "nonpayable",
      "type": "function"
    },
    {
      "inputs": [
        {
          "internalType": "address",
          "name": "_to",
          "type": "address"
        },
        {
          "internalType": "uint256",
          "name": "_tokenId",
          "type": "uint256"
        }
      ],
      "name": "issuerOf",
      "outputs": [
        {
          "internalType": "address",
          "name": "",
          "type": "address"
        }
      ],
      "stateMutability": "view",
      "type": "function"
    },
    {
      "inputs": [],
      "name": "name",
      "outputs": [
        {
          "internalType": "string",
          "name": "",
          "type": "string"
        }
      ],
      "stateMutability": "view",
      "type": "function"
    },
    {
      "inputs": [],
      "name": "owner",
      "outputs": [
        {
          "internalType": "address",
          "name": "",
          "type": "address"
        }
      ],
      "stateMutability": "view",
      "type": "function"
    },
    {
      "inputs": [
        {
          "internalType": "uint256",
          "name": "tokenId",
          "type": "uint256"
        }
      ],
      "name": "ownerOf",
      "outputs": [
        {
          "internalType": "address",
          "name": "",
          "type": "address"
        }
      ],
      "stateMutability": "view",
      "type": "function"
    },
    {
      "inputs": [],
      "name": "renounceOwnership",
      "outputs": [],
      "stateMutability": "nonpayable",
      "type": "function"
    },
    {
      "inputs": [
        {
          "internalType": "bytes32",
          "name": "hash",
          "type": "bytes32"
        },
        {
          "internalType": "bytes",
          "name": "sig",
          "type": "bytes"
        },
        {
          "internalType": "uint256",
          "name": "tokenId",
          "type": "uint256"
        }
      ],
      "name": "revokeWithSignature",
      "outputs": [],
      "stateMutability": "nonpayable",
      "type": "function"
    },
    {
      "inputs": [
        {
          "internalType": "address",
          "name": "caller",
          "type": "address"
        },
        {
          "internalType": "string",
          "name": "_baseURI",
          "type": "string"
        }
      ],
      "name": "setBaseURI",
      "outputs": [],
      "stateMutability": "nonpayable",
      "type": "function"
    },
    {
      "inputs": [
        {
          "internalType": "bytes4",
          "name": "interfaceId",
          "type": "bytes4"
        }
      ],
      "name": "supportsInterface",
      "outputs": [
        {
          "internalType": "bool",
          "name": "",
          "type": "bool"
        }
      ],
      "stateMutability": "view",
      "type": "function"
    },
    {
      "inputs": [],
      "name": "symbol",
      "outputs": [
        {
          "internalType": "string",
          "name": "",
          "type": "string"
        }
      ],
      "stateMutability": "view",
      "type": "function"
    },
    {
      "inputs": [
        {
          "internalType": "uint256",
          "name": "tokenId",
          "type": "uint256"
        }
      ],
      "name": "tokenURI",
      "outputs": [
        {
          "internalType": "string",
          "name": "",
          "type": "string"
        }
      ],
      "stateMutability": "view",
      "type": "function"
    },
    {
      "inputs": [
        {
          "internalType": "address",
          "name": "newOwner",
          "type": "address"
        }
      ],
      "name": "transferOwnership",
      "outputs": [],
      "stateMutability": "nonpayable",
      "type": "function"
    },
    {
      "inputs": [
        {
          "internalType": "bytes32",
          "name": "hash",
          "type": "bytes32"
        },
        {
          "internalType": "bytes",
          "name": "sig",
          "type": "bytes"
        }
      ],
      "name": "verifySignature",
      "outputs": [
        {
          "internalType": "bool",
          "name": "",
          "type": "bool"
        }
      ],
      "stateMutability": "nonpayable",
      "type": "function"
    },
    {
      "inputs": [
        {
          "internalType": "address",
          "name": "_signer",
          "type": "address"
        },
        {
          "internalType": "bytes32",
          "name": "_hash",
          "type": "bytes32"
        },
        {
          "internalType": "bytes",
          "name": "_signature",
          "type": "bytes"
        }
      ],
      "name": "verifySigner",
      "outputs": [
        {
          "internalType": "bool",
          "name": "",
          "type": "bool"
        }
      ],
      "stateMutability": "pure",
      "type": "function"
    }
  ],
  "bytecode": "60806040523480156200001157600080fd5b5060405162001c8338038062001c83833981016040819052620000349162000292565b81848481818160009080519060200190620000519291906200011f565b508051620000679060019060208401906200011f565b505050620000846200007e620000c960201b60201c565b620000cd565b5050600880546001600160a01b0319166001600160a01b039290921691909117905580620000b957620f4240600955620000bf565b60098190555b5050505062000362565b3390565b600580546001600160a01b038381166001600160a01b0319831681179093556040519116919082907f8be0079c531659141344cd1fd0a4f28419497f9722a3daafe3b4186f6b6457e090600090a35050565b8280546200012d9062000325565b90600052602060002090601f0160209004810192826200015157600085556200019c565b82601f106200016c57805160ff19168380011785556200019c565b828001600101855582156200019c579182015b828111156200019c5782518255916020019190600101906200017f565b50620001aa929150620001ae565b5090565b5b80821115620001aa5760008155600101620001af565b634e487b7160e01b600052604160045260246000fd5b600082601f830112620001ed57600080fd5b81516001600160401b03808211156200020a576200020a620001c5565b604051601f8301601f19908116603f01168101908282118183101715620002355762000235620001c5565b816040528381526020925086838588010111156200025257600080fd5b600091505b8382101562000276578582018301518183018401529082019062000257565b83821115620002885760008385830101525b9695505050505050565b60008060008060808587031215620002a957600080fd5b84516001600160401b0380821115620002c157600080fd5b620002cf88838901620001db565b95506020870151915080821115620002e657600080fd5b50620002f587828801620001db565b604087015190945090506001600160a01b03811681146200031557600080fd5b6060959095015193969295505050565b600181811c908216806200033a57607f821691505b602082108114156200035c57634e487b7160e01b600052602260045260246000fd5b50919050565b61191180620003726000396000f3fe608060405234801561001057600080fd5b506004361061012c5760003560e01c806388433651116100ad578063c9e4c54d11610071578063c9e4c54d1461028e578063daca6f78146102a1578063e92b0842146102b4578063f2fde38b146102c7578063fb8f198d146102da57600080fd5b806388433651146102475780638da5cb5b1461025a57806395d89b411461026b578063c87b56dd14610273578063c9dd94c71461028657600080fd5b80635899e7b2116100f45780635899e7b2146101a95780636352211e146101e25780636e0a87461461020d57806370a082311461021e578063715018a61461023f57600080fd5b806301ffc9a71461013157806306fdde031461015957806308c92e571461016e578063210fa96b1461018357806342966c6814610196575b600080fd5b61014461013f366004611465565b6102ed565b60405190151581526020015b60405180910390f35b61016161033f565b60405161015091906114bf565b61018161017c366004611595565b6103d1565b005b6101616101913660046115e5565b61050c565b6101816101a43660046115e5565b61058b565b6101446101b736600461161a565b6001600160a01b03919091166000908152600760209081526040808320938352929052205460ff1690565b6101f56101f03660046115e5565b610600565b6040516001600160a01b039091168152602001610150565b6008546001600160a01b03166101f5565b61023161022c366004611644565b610665565b604051908152602001610150565b6101816106ee565b61018161025536600461165f565b610702565b6005546001600160a01b03166101f5565b610161610782565b6101616102813660046115e5565b610791565b610161610886565b61018161029c3660046116ad565b6108e2565b6101446102af366004611735565b610a17565b6101446102c2366004611766565b610a2a565b6101816102d5366004611644565b610abe565b6101f56102e836600461161a565b610b34565b60006001600160e01b03198216635b5e139f60e01b148061031e57506001600160e01b03198216635164cf4760e01b145b8061033957506301ffc9a760e01b6001600160e01b03198316145b92915050565b60606000805461034e906117bd565b80601f016020809104026020016040519081016040528092919081815260200182805461037a906117bd565b80156103c75780601f1061039c576101008083540402835291602001916103c7565b820191906000526020600020905b8154815290600101906020018083116103aa57829003601f168201915b5050505050905090565b6103da81610c48565b61042b5760405162461bcd60e51b815260206004820152601b60248201527f5265766f6b65206f6620696e6578697374656e7420746f6b656e2e000000000060448201526064015b60405180910390fd5b81516041146104775760405162461bcd60e51b8152602060048201526018602482015277092dcecc2d8d2c840e6d2cedcc2e8eae4ca40d8cadccee8d60431b6044820152606401610422565b6104818383610a17565b6104c95760405162461bcd60e51b81526020600482015260196024820152782430b9b4103737ba1039b4b3b732b210313c9037bbb732b91760391b6044820152606401610422565b6104db6104d582610600565b82610c65565b5060405181907ff947bf2266afede98f27ad2312db8b2a17921852307f979b6f14a2b41fa774bc90600090a2505050565b6060610516610886565b516105535760405162461bcd60e51b815260206004820152600d60248201526c456d707479206261736555524960981b6044820152606401610422565b61055b610886565b61056483610d2d565b6040516020016105759291906117f8565b6040516020818303038152906040529050919050565b61059481610600565b6001600160a01b0316336001600160a01b0316146105f45760405162461bcd60e51b815260206004820152601a60248201527f6275726e3a2073656e646572206d757374206265206f776e65720000000000006044820152606401610422565b6105fd81610e33565b50565b6000818152600260205260408120546001600160a01b0316806103395760405162461bcd60e51b815260206004820152601c60248201527f6f776e65724f663a20746f6b656e20646f65736e2774206578697374000000006044820152606401610422565b60006001600160a01b0382166106d25760405162461bcd60e51b815260206004820152602c60248201527f62616c616e63654f663a2061646472657373207a65726f206973206e6f74206160448201526b103b30b634b21037bbb732b960a11b6064820152608401610422565b506001600160a01b031660009081526004602052604090205490565b6106f6610eda565b6107006000610f34565b565b61070a610eda565b8161071d6008546001600160a01b031690565b6001600160a01b0316816001600160a01b0316146107745760405162461bcd60e51b81526020600482015260146024820152734e6f7420416c6c6f776c697374204f776e65722160601b6044820152606401610422565b61077d82610f86565b505050565b60606001805461034e906117bd565b606061079c82610c48565b6107e85760405162461bcd60e51b815260206004820152601d60248201527f746f6b656e5552493a20746f6b656e20646f65736e27742065786973740000006044820152606401610422565b60008281526003602052604090208054610801906117bd565b80601f016020809104026020016040519081016040528092919081815260200182805461082d906117bd565b801561087a5780601f1061084f5761010080835404028352916020019161087a565b820191906000526020600020905b81548152906001019060200180831161085d57829003601f168201915b50505050509050919050565b606060068054610895906117bd565b151590506108d55760405162461bcd60e51b815260206004820152600d60248201526c456d707479206261736555524960981b6044820152606401610422565b6006805461034e906117bd565b6001600160a01b0385166109305760405162461bcd60e51b815260206004820152601560248201527426b4b73a103a37903d32b9379030b2323932b9b99760591b6044820152606401610422565b825160411461097c5760405162461bcd60e51b8152602060048201526018602482015277092dcecc2d8d2c840e6d2cedcc2e8eae4ca40d8cadccee8d60431b6044820152606401610422565b6109868484610a17565b6109ce5760405162461bcd60e51b81526020600482015260196024820152782430b9b4103737ba1039b4b3b732b210313c9037bbb732b91760391b6044820152606401610422565b6109d9858383610fdc565b5060405182906001600160a01b038716907f79af0e59b31823dd289ceebabc4d63d25f35926b8548e3a084a500c9d4e1855690600090a35050505050565b6000610a238383610ff3565b9392505050565b602081810151604080840151606080860151835160008082528188018087528a905291821a81860181905292810186905260808101849052935190959293919260019260a080820193601f1981019281900390910190855afa158015610a94573d6000803e3d6000fd5b505050602060405103516001600160a01b0316876001600160a01b03161493505050509392505050565b610ac6610eda565b6001600160a01b038116610b2b5760405162461bcd60e51b815260206004820152602660248201527f4f776e61626c653a206e6577206f776e657220697320746865207a65726f206160448201526564647265737360d01b6064820152608401610422565b6105fd81610f34565b60006001600160a01b038316610b8c5760405162461bcd60e51b815260206004820152601760248201527f517565727920666f72207a65726f20616464726573732e0000000000000000006044820152606401610422565b610b9582610c48565b610bd75760405162461bcd60e51b81526020600482015260136024820152722737b716b2bc34b9ba32b73a103a37b5b2b71760691b6044820152606401610422565b826001600160a01b0316610bea83610600565b6001600160a01b031614610c405760405162461bcd60e51b815260206004820152601a60248201527f546f6b656e206e6f74206f776e656420627920616464726573730000000000006044820152606401610422565b503092915050565b6000908152600260205260409020546001600160a01b0316151590565b6000610c7082610c48565b610cb25760405162461bcd60e51b81526020600482015260136024820152722737b716b2bc34b9ba32b73a103a37b5b2b71760691b6044820152606401610422565b826001600160a01b0316610cc583610600565b6001600160a01b031614610d1b5760405162461bcd60e51b815260206004820152601a60248201527f546f6b656e206e6f74206f776e656420627920616464726573730000000000006044820152606401610422565b610d2482611176565b50600192915050565b606081610d515750506040805180820190915260018152600360fc1b602082015290565b8160005b8115610d7b5780610d658161183d565b9150610d749050600a8361186e565b9150610d55565b60008167ffffffffffffffff811115610d9657610d966114f2565b6040519080825280601f01601f191660200182016040528015610dc0576020820181803683370190505b5090505b8415610e2b57610dd5600183611882565b9150610de2600a86611899565b610ded9060306118ad565b60f81b818381518110610e0257610e026118c5565b60200101906001600160f81b031916908160001a905350610e24600a8661186e565b9450610dc4565b949350505050565b6000610e3e82610600565b6001600160a01b03811660009081526004602052604081208054929350600192909190610e6c908490611882565b9091555050600082815260026020908152604080832080546001600160a01b031916905560039091528120610ea091611392565b60405182906001600160a01b038316907fec9ab91322523c899ede7830ec9bfc992b5981cdcc27b91162fb23de5791117b90600090a35050565b6005546001600160a01b031633146107005760405162461bcd60e51b815260206004820181905260248201527f4f776e61626c653a2063616c6c6572206973206e6f7420746865206f776e65726044820152606401610422565b600580546001600160a01b038381166001600160a01b0319831681179093556040519116919082907f8be0079c531659141344cd1fd0a4f28419497f9722a3daafe3b4186f6b6457e090600090a35050565b8051610fc55760405162461bcd60e51b815260206004820152600e60248201526d092dcecc2d8d2c840d8cadccee8d60931b6044820152606401610422565b8051610fd89060069060208401906113cc565b5050565b6000610fe984848461120c565b5060019392505050565b6000610ffd610eda565b6005546001600160a01b0316331461106b5760405162461bcd60e51b815260206004820152602b60248201527f4552433732313a3a2043616c6c20746f20636f6e7472616374206d616465206260448201526a3c903737b716b7bbb732b960a91b6064820152608401610422565b81516041146110bc5760405162461bcd60e51b815260206004820152601e60248201527f4572723a3a20496e76616c6964207369676e6174757265206c656e67746800006044820152606401610422565b602082810151604080850151606080870151835160008082529681018086528a905290861a938101849052908101849052608081018290529293909260019060a0016020604051602081039080840390855afa158015611120573d6000803e3d6000fd5b5050604051601f198101516008549093506001600160a01b038085169116149150819089907f7e4fe2a2a805a357593fdbdde58c02f6a53d8b4960744cd31a98697fc11c2e3690600090a3979650505050505050565b61117f81610c48565b6111cb5760405162461bcd60e51b815260206004820152601860248201527f4275726e206f6620696e6578697374656e7420746f6b656e00000000000000006044820152606401610422565b60006111d682610600565b90506111e182610e33565b6001600160a01b0316600090815260076020908152604080832093835292905220805460ff19169055565b6001600160a01b03831661125a5760405162461bcd60e51b815260206004820152601560248201527426b4b73a103a37903d32b9379030b2323932b9b99760591b6044820152606401610422565b611265838383611297565b50506001600160a01b03909116600090815260076020908152604080832093835292905220805460ff19166001179055565b60006112a283610c48565b156112e65760405162461bcd60e51b81526020600482015260146024820152736d696e743a20746f6b656e49442065786973747360601b6044820152606401610422565b6001600160a01b038416600090815260046020526040812080546001929061130f9084906118ad565b9091555050600083815260026020908152604080832080546001600160a01b0319166001600160a01b038916179055600382529091208351611353928501906113cc565b5060405183906001600160a01b038616907fe9274a84b19e9428826de6bae8c48329354f8f0e73f771b97cae2d9dccd45a2790600090a3509092915050565b50805461139e906117bd565b6000825580601f106113ae575050565b601f0160209004906000526020600020908101906105fd9190611450565b8280546113d8906117bd565b90600052602060002090601f0160209004810192826113fa5760008555611440565b82601f1061141357805160ff1916838001178555611440565b82800160010185558215611440579182015b82811115611440578251825591602001919060010190611425565b5061144c929150611450565b5090565b5b8082111561144c5760008155600101611451565b60006020828403121561147757600080fd5b81356001600160e01b031981168114610a2357600080fd5b60005b838110156114aa578181015183820152602001611492565b838111156114b9576000848401525b50505050565b60208152600082518060208401526114de81604085016020870161148f565b601f01601f19169190910160400192915050565b634e487b7160e01b600052604160045260246000fd5b600082601f83011261151957600080fd5b813567ffffffffffffffff80821115611534576115346114f2565b604051601f8301601f19908116603f0116810190828211818310171561155c5761155c6114f2565b8160405283815286602085880101111561157557600080fd5b836020870160208301376000602085830101528094505050505092915050565b6000806000606084860312156115aa57600080fd5b83359250602084013567ffffffffffffffff8111156115c857600080fd5b6115d486828701611508565b925050604084013590509250925092565b6000602082840312156115f757600080fd5b5035919050565b80356001600160a01b038116811461161557600080fd5b919050565b6000806040838503121561162d57600080fd5b611636836115fe565b946020939093013593505050565b60006020828403121561165657600080fd5b610a23826115fe565b6000806040838503121561167257600080fd5b61167b836115fe565b9150602083013567ffffffffffffffff81111561169757600080fd5b6116a385828601611508565b9150509250929050565b600080600080600060a086880312156116c557600080fd5b6116ce866115fe565b945060208601359350604086013567ffffffffffffffff808211156116f257600080fd5b6116fe89838a01611508565b945060608801359350608088013591508082111561171b57600080fd5b5061172888828901611508565b9150509295509295909350565b6000806040838503121561174857600080fd5b82359150602083013567ffffffffffffffff81111561169757600080fd5b60008060006060848603121561177b57600080fd5b611784846115fe565b925060208401359150604084013567ffffffffffffffff8111156117a757600080fd5b6117b386828701611508565b9150509250925092565b600181811c908216806117d157607f821691505b602082108114156117f257634e487b7160e01b600052602260045260246000fd5b50919050565b6000835161180a81846020880161148f565b83519083019061181e81836020880161148f565b01949350505050565b634e487b7160e01b600052601160045260246000fd5b600060001982141561185157611851611827565b5060010190565b634e487b7160e01b600052601260045260246000fd5b60008261187d5761187d611858565b500490565b60008282101561189457611894611827565b500390565b6000826118a8576118a8611858565b500690565b600082198211156118c0576118c0611827565b500190565b634e487b7160e01b600052603260045260246000fdfea26469706673582212204cacbb54bb1456e156deba3f95bfdadd31e73679ab0abb63d3832da3a0ae51af64736f6c634300080c0033",
  "bytecodeSha1": "8b7c5d369c492f66dea52938ddeca23b14b7d5c6",
  "compiler": {
    "evm_version": "istanbul",
    "optimizer": {
      "enabled": true,
      "runs": 200
    },
    "version": "0.8.12+commit.f00d7308"
  },
  "contractName": "SoulboundCore",
  "language": "Solidity",
  "natspec": {
    "author": "Daccred.",
    "details": "Soulbound Core template. This contract aims at a soulbound token with       capped supply, set by the deployer or defaulted to 1000000.       Mints and burns affect the current supply of tokens respectively.",
    "errors": {
      "Unsigned(address)": [
        {
          "details": "Thrown when the address passed to the verify function is not signed."
        }
      ]
    },
    "kind": "dev",
    "methods": {
      "_getBaseURI()": {
        "details": "Returns already set baseURI if it exists.",
        "notice": "Callable by anyone.",
        "returns": {
          "_baseURI": "baseURI set."
        }
      },
      "balanceOf(address)": {
        "details": "ABTs assigned to the zero address are considered invalid, and this  function throws for queries about the zero address.",
        "notice": "Count all ABTs assigned to an owner",
        "params": {
          "owner": "An address for whom to query the balance"
        },
        "returns": {
          "_0": "The number of ABTs owned by `owner`, possibly zero"
        }
      },
      "burn(uint256)": {
        "details": "Must emit a `event Revoke` with the `address to` field pointing to  the zero address.",
        "notice": "Destroys `tokenId`. At any time, an ABT receiver must be able to  disassociate themselves from an ABT publicly through calling this  function.",
        "params": {
          "tokenId": "The identifier for an ABT"
        }
      },
      "constructor": {
        "details": "Deploys the 3 contracts inherited by the SoulboundCore."
      },
      "generateTokenURI(uint256)": {
        "details": "Using the `tokenId` passed, it generates a `stringified` tokenURI,       packing the baseURI and the current tokenId.       Makes use of OpenZeppelin's uint to string function.",
        "notice": "Callable by anyone.",
        "params": {
          "tokenId": "ID of token whose tokenURI is desired."
        },
        "returns": {
          "_tokenURI": "TokenURI of the passed tokenId."
        }
      },
      "getAllowlistOwner()": {
        "details": "Return the allowlistOwner.",
        "notice": "Callable by anyone.",
        "returns": {
          "_0": "address of allowlistOwner."
        }
      },
      "isMinted(address,uint256)": {
        "details": "Returns true if token `_tokenId` was minted from this contract to `_to`.       `_to` must not be a 0 address.       `_tokenId` must be an existent token.",
        "notice": "Callable by anyone.",
        "params": {
          "_to": "Address to which token `_tokenId` is minted.",
          "_tokenId": "Token minted."
        },
        "returns": {
          "_0": "bool true or false."
        }
      },
      "issueWithSignature(address,bytes32,bytes,uint256,string)": {
        "details": "Mints a particular quantity of tokens to `to`,        on the condition that the address has been        signed by the allowlistOwner off-chain.       This will emit the {MintSoulboundToken} event       from the Soulbound.sol.",
        "notice": "Callable by anyone.",
        "params": {
          "addr": "Address to mint tokens to.",
          "hash": "Hashed message by the allowlistOwner.",
          "sig": "Signature, signed by the allowlistOwner.",
          "tokenId": "Id of the tokens to mint to the `addr`.",
          "tokenURI": "URI of the token to be minted."
        }
      },
      "issuerOf(address,uint256)": {
        "details": "Since a token cannnot be minted twice.       This function returns the address that minted token `_tokenId` to `_to`,       otherwise this contract.       `_to` must not be a 0 address.       `_tokenId` must be an existent token.       Owner of _tokenId must be _to.",
        "notice": "Callable by anyone.",
        "params": {
          "_to": "Address to which token `_tokenId` is minted.",
          "_tokenId": "Token minted."
        },
        "returns": {
          "_0": "address of issuer."
        }
      },
      "owner()": {
        "details": "Returns the address of the current owner."
      },
      "ownerOf(uint256)": {
        "details": "ABTs assigned to zero address are considered invalid, and queries  about them do throw.",
        "notice": "Find the address bound to an ERC4973 account-bound token",
        "params": {
          "tokenId": "The identifier for an ABT"
        },
        "returns": {
          "_0": "The address of the owner bound to the ABT"
        }
      },
      "renounceOwnership()": {
        "details": "Leaves the contract without owner. It will not be possible to call       `onlyOwner` functions anymore. Can only be called by the current owner.       NOTE: Renouncing ownership will leave the contract without an owner,       thereby removing any functionality that is only available to the owner."
      },
      "revokeWithSignature(bytes32,bytes,uint256)": {
        "details": "Revokes the ownership of `tokenId` from the owner.       The token must exist and the signature must be signed the       allowlistOwner.       This emits the {RevokeWithSignature} event.",
        "notice": "Callable by anyone.",
        "params": {
          "hash": "Hashed message by the allowlistOwner.",
          "sig": "Signature, signed by the allowlistOwner.",
          "tokenId": "Id of the token to revoke."
        }
      },
      "setBaseURI(address,string)": {
        "details": "Allows the `caller` (allowlistOwner) to set the baseURI.       This is really important when the caller wants to mint       Multiple tokens with the same base URI.",
        "notice": "Callable by the deployer of this contract [DaccredDeployer]           and the allowlistOwner."
      },
      "supportsInterface(bytes4)": {
        "details": "See {IERC165-supportsInterface}."
      },
      "transferOwnership(address)": {
        "details": "Transfers ownership of the contract to a new account (`newOwner`).       Can only be called by the current owner."
      },
      "verifySignature(bytes32,bytes)": {
        "details": "Returns true if the signer of signature `sig` is the `allowlistOwner`.       And false if otherwise.",
        "notice": "Callable by anyone.",
        "returns": {
          "_0": "bool true or false."
        }
      },
      "verifySigner(address,bytes32,bytes)": {
        "details": "Returns true if the signer of `_signature` is `_signer`.",
        "notice": "Callable by anyone.",
        "returns": {
          "_0": "bool true or false."
        }
      }
    },
    "stateVariables": {
      "supply": {
        "details": "With every issue and revoke, this value         increases and reduces.         It cannot be GT the TOTAL_SUPPLY."
      },
      "totalSupply": {
        "details": "Total supply limit set by deployer or defaulted to 1000000."
      }
    },
    "title": "Soulbound Core Contract.",
    "version": 1
  },
  "opcodes": "PUSH1 0x80 PUSH1 0x40 MSTORE CALLVALUE DUP1 ISZERO PUSH2 0x10 JUMPI PUSH1 0x0 DUP1 REVERT JUMPDEST POP PUSH1 0x4 CALLDATASIZE LT PUSH2 0x12C JUMPI PUSH1 0x0 CALLDATALOAD PUSH1 0xE0 SHR DUP1 PUSH4 0x88433651 GT PUSH2 0xAD JUMPI DUP1 PUSH4 0xC9E4C54D GT PUSH2 0x71 JUMPI DUP1 PUSH4 0xC9E4C54D EQ PUSH2 0x28E JUMPI DUP1 PUSH4 0xDACA6F78 EQ PUSH2 0x2A1 JUMPI DUP1 PUSH4 0xE92B0842 EQ PUSH2 0x2B4 JUMPI DUP1 PUSH4 0xF2FDE38B EQ PUSH2 0x2C7 JUMPI DUP1 PUSH4 0xFB8F198D EQ PUSH2 0x2DA JUMPI PUSH1 0x0 DUP1 REVERT JUMPDEST DUP1 PUSH4 0x88433651 EQ PUSH2 0x247 JUMPI DUP1 PUSH4 0x8DA5CB5B EQ PUSH2 0x25A JUMPI DUP1 PUSH4 0x95D89B41 EQ PUSH2 0x26B JUMPI DUP1 PUSH4 0xC87B56DD EQ PUSH2 0x273 JUMPI DUP1 PUSH4 0xC9DD94C7 EQ PUSH2 0x286 JUMPI PUSH1 0x0 DUP1 REVERT JUMPDEST DUP1 PUSH4 0x5899E7B2 GT PUSH2 0xF4 JUMPI DUP1 PUSH4 0x5899E7B2 EQ PUSH2 0x1A9 JUMPI DUP1 PUSH4 0x6352211E EQ PUSH2 0x1E2 JUMPI DUP1 PUSH4 0x6E0A8746 EQ PUSH2 0x20D JUMPI DUP1 PUSH4 0x70A08231 EQ PUSH2 0x21E JUMPI DUP1 PUSH4 0x715018A6 EQ PUSH2 0x23F JUMPI PUSH1 0x0 DUP1 REVERT JUMPDEST DUP1 PUSH4 0x1FFC9A7 EQ PUSH2 0x131 JUMPI DUP1 PUSH4 0x6FDDE03 EQ PUSH2 0x159 JUMPI DUP1 PUSH4 0x8C92E57 EQ PUSH2 0x16E JUMPI DUP1 PUSH4 0x210FA96B EQ PUSH2 0x183 JUMPI DUP1 PUSH4 0x42966C68 EQ PUSH2 0x196 JUMPI JUMPDEST PUSH1 0x0 DUP1 REVERT JUMPDEST PUSH2 0x144 PUSH2 0x13F CALLDATASIZE PUSH1 0x4 PUSH2 0x1465 JUMP JUMPDEST PUSH2 0x2ED JUMP JUMPDEST PUSH1 0x40 MLOAD SWAP1 ISZERO ISZERO DUP2 MSTORE PUSH1 0x20 ADD JUMPDEST PUSH1 0x40 MLOAD DUP1 SWAP2 SUB SWAP1 RETURN JUMPDEST PUSH2 0x161 PUSH2 0x33F JUMP JUMPDEST PUSH1 0x40 MLOAD PUSH2 0x150 SWAP2 SWAP1 PUSH2 0x14BF JUMP JUMPDEST PUSH2 0x181 PUSH2 0x17C CALLDATASIZE PUSH1 0x4 PUSH2 0x1595 JUMP JUMPDEST PUSH2 0x3D1 JUMP JUMPDEST STOP JUMPDEST PUSH2 0x161 PUSH2 0x191 CALLDATASIZE PUSH1 0x4 PUSH2 0x15E5 JUMP JUMPDEST PUSH2 0x50C JUMP JUMPDEST PUSH2 0x181 PUSH2 0x1A4 CALLDATASIZE PUSH1 0x4 PUSH2 0x15E5 JUMP JUMPDEST PUSH2 0x58B JUMP JUMPDEST PUSH2 0x144 PUSH2 0x1B7 CALLDATASIZE PUSH1 0x4 PUSH2 0x161A JUMP JUMPDEST PUSH1 0x1 PUSH1 0x1 PUSH1 0xA0 SHL SUB SWAP2 SWAP1 SWAP2 AND PUSH1 0x0 SWAP1 DUP2 MSTORE PUSH1 0x7 PUSH1 0x20 SWAP1 DUP2 MSTORE PUSH1 0x40 DUP1 DUP4 KECCAK256 SWAP4 DUP4 MSTORE SWAP3 SWAP1 MSTORE KECCAK256 SLOAD PUSH1 0xFF AND SWAP1 JUMP JUMPDEST PUSH2 0x1F5 PUSH2 0x1F0 CALLDATASIZE PUSH1 0x4 PUSH2 0x15E5 JUMP JUMPDEST PUSH2 0x600 JUMP JUMPDEST PUSH1 0x40 MLOAD PUSH1 0x1 PUSH1 0x1 PUSH1 0xA0 SHL SUB SWAP1 SWAP2 AND DUP2 MSTORE PUSH1 0x20 ADD PUSH2 0x150 JUMP JUMPDEST PUSH1 0x8 SLOAD PUSH1 0x1 PUSH1 0x1 PUSH1 0xA0 SHL SUB AND PUSH2 0x1F5 JUMP JUMPDEST PUSH2 0x231 PUSH2 0x22C CALLDATASIZE PUSH1 0x4 PUSH2 0x1644 JUMP JUMPDEST PUSH2 0x665 JUMP JUMPDEST PUSH1 0x40 MLOAD SWAP1 DUP2 MSTORE PUSH1 0x20 ADD PUSH2 0x150 JUMP JUMPDEST PUSH2 0x181 PUSH2 0x6EE JUMP JUMPDEST PUSH2 0x181 PUSH2 0x255 CALLDATASIZE PUSH1 0x4 PUSH2 0x165F JUMP JUMPDEST PUSH2 0x702 JUMP JUMPDEST PUSH1 0x5 SLOAD PUSH1 0x1 PUSH1 0x1 PUSH1 0xA0 SHL SUB AND PUSH2 0x1F5 JUMP JUMPDEST PUSH2 0x161 PUSH2 0x782 JUMP JUMPDEST PUSH2 0x161 PUSH2 0x281 CALLDATASIZE PUSH1 0x4 PUSH2 0x15E5 JUMP JUMPDEST PUSH2 0x791 JUMP JUMPDEST PUSH2 0x161 PUSH2 0x886 JUMP JUMPDEST PUSH2 0x181 PUSH2 0x29C CALLDATASIZE PUSH1 0x4 PUSH2 0x16AD JUMP JUMPDEST PUSH2 0x8E2 JUMP JUMPDEST PUSH2 0x144 PUSH2 0x2AF CALLDATASIZE PUSH1 0x4 PUSH2 0x1735 JUMP JUMPDEST PUSH2 0xA17 JUMP JUMPDEST PUSH2 0x144 PUSH2 0x2C2 CALLDATASIZE PUSH1 0x4 PUSH2 0x1766 JUMP JUMPDEST PUSH2 0xA2A JUMP JUMPDEST PUSH2 0x181 PUSH2 0x2D5 CALLDATASIZE PUSH1 0x4 PUSH2 0x1644 JUMP JUMPDEST PUSH2 0xABE JUMP JUMPDEST PUSH2 0x1F5 PUSH2 0x2E8 CALLDATASIZE PUSH1 0x4 PUSH2 0x161A JUMP JUMPDEST PUSH2 0xB34 JUMP JUMPDEST PUSH1 0x0 PUSH1 0x1 PUSH1 0x1 PUSH1 0xE0 SHL SUB NOT DUP3 AND PUSH4 0x5B5E139F PUSH1 0xE0 SHL EQ DUP1 PUSH2 0x31E JUMPI POP PUSH1 0x1 PUSH1 0x1 PUSH1 0xE0 SHL SUB NOT DUP3 AND PUSH4 0x5164CF47 PUSH1 0xE0 SHL EQ JUMPDEST DUP1 PUSH2 0x339 JUMPI POP PUSH4 0x1FFC9A7 PUSH1 0xE0 SHL PUSH1 0x1 PUSH1 0x1 PUSH1 0xE0 SHL SUB NOT DUP4 AND EQ JUMPDEST SWAP3 SWAP2 POP POP JUMP JUMPDEST PUSH1 0x60 PUSH1 0x0 DUP1 SLOAD PUSH2 0x34E SWAP1 PUSH2 0x17BD JUMP JUMPDEST DUP1 PUSH1 0x1F ADD PUSH1 0x20 DUP1 SWAP2 DIV MUL PUSH1 0x20 ADD PUSH1 0x40 MLOAD SWAP1 DUP2 ADD PUSH1 0x40 MSTORE DUP1 SWAP3 SWAP2 SWAP1 DUP2 DUP2 MSTORE PUSH1 0x20 ADD DUP3 DUP1 SLOAD PUSH2 0x37A SWAP1 PUSH2 0x17BD JUMP JUMPDEST DUP1 ISZERO PUSH2 0x3C7 JUMPI DUP1 PUSH1 0x1F LT PUSH2 0x39C JUMPI PUSH2 0x100 DUP1 DUP4 SLOAD DIV MUL DUP4 MSTORE SWAP2 PUSH1 0x20 ADD SWAP2 PUSH2 0x3C7 JUMP JUMPDEST DUP3 ADD SWAP2 SWAP1 PUSH1 0x0 MSTORE PUSH1 0x20 PUSH1 0x0 KECCAK256 SWAP1 JUMPDEST DUP2 SLOAD DUP2 MSTORE SWAP1 PUSH1 0x1 ADD SWAP1 PUSH1 0x20 ADD DUP1 DUP4 GT PUSH2 0x3AA JUMPI DUP3 SWAP1 SUB PUSH1 0x1F AND DUP3 ADD SWAP2 JUMPDEST POP POP POP POP POP SWAP1 POP SWAP1 JUMP JUMPDEST PUSH2 0x3DA DUP2 PUSH2 0xC48 JUMP JUMPDEST PUSH2 0x42B JUMPI PUSH1 0x40 MLOAD PUSH3 0x461BCD PUSH1 0xE5 SHL DUP2 MSTORE PUSH1 0x20 PUSH1 0x4 DUP3 ADD MSTORE PUSH1 0x1B PUSH1 0x24 DUP3 ADD MSTORE PUSH32 0x5265766F6B65206F6620696E6578697374656E7420746F6B656E2E0000000000 PUSH1 0x44 DUP3 ADD MSTORE PUSH1 0x64 ADD JUMPDEST PUSH1 0x40 MLOAD DUP1 SWAP2 SUB SWAP1 REVERT JUMPDEST DUP2 MLOAD PUSH1 0x41 EQ PUSH2 0x477 JUMPI PUSH1 0x40 MLOAD PUSH3 0x461BCD PUSH1 0xE5 SHL DUP2 MSTORE PUSH1 0x20 PUSH1 0x4 DUP3 ADD MSTORE PUSH1 0x18 PUSH1 0x24 DUP3 ADD MSTORE PUSH24 0x92DCECC2D8D2C840E6D2CEDCC2E8EAE4CA40D8CADCCEE8D PUSH1 0x43 SHL PUSH1 0x44 DUP3 ADD MSTORE PUSH1 0x64 ADD PUSH2 0x422 JUMP JUMPDEST PUSH2 0x481 DUP4 DUP4 PUSH2 0xA17 JUMP JUMPDEST PUSH2 0x4C9 JUMPI PUSH1 0x40 MLOAD PUSH3 0x461BCD PUSH1 0xE5 SHL DUP2 MSTORE PUSH1 0x20 PUSH1 0x4 DUP3 ADD MSTORE PUSH1 0x19 PUSH1 0x24 DUP3 ADD MSTORE PUSH25 0x2430B9B4103737BA1039B4B3B732B210313C9037BBB732B917 PUSH1 0x39 SHL PUSH1 0x44 DUP3 ADD MSTORE PUSH1 0x64 ADD PUSH2 0x422 JUMP JUMPDEST PUSH2 0x4DB PUSH2 0x4D5 DUP3 PUSH2 0x600 JUMP JUMPDEST DUP3 PUSH2 0xC65 JUMP JUMPDEST POP PUSH1 0x40 MLOAD DUP2 SWAP1 PUSH32 0xF947BF2266AFEDE98F27AD2312DB8B2A17921852307F979B6F14A2B41FA774BC SWAP1 PUSH1 0x0 SWAP1 LOG2 POP POP POP JUMP JUMPDEST PUSH1 0x60 PUSH2 0x516 PUSH2 0x886 JUMP JUMPDEST MLOAD PUSH2 0x553 JUMPI PUSH1 0x40 MLOAD PUSH3 0x461BCD PUSH1 0xE5 SHL DUP2 MSTORE PUSH1 0x20 PUSH1 0x4 DUP3 ADD MSTORE PUSH1 0xD PUSH1 0x24 DUP3 ADD MSTORE PUSH13 0x456D7074792062617365555249 PUSH1 0x98 SHL PUSH1 0x44 DUP3 ADD MSTORE PUSH1 0x64 ADD PUSH2 0x422 JUMP JUMPDEST PUSH2 0x55B PUSH2 0x886 JUMP JUMPDEST PUSH2 0x564 DUP4 PUSH2 0xD2D JUMP JUMPDEST PUSH1 0x40 MLOAD PUSH1 0x20 ADD PUSH2 0x575 SWAP3 SWAP2 SWAP1 PUSH2 0x17F8 JUMP JUMPDEST PUSH1 0x40 MLOAD PUSH1 0x20 DUP2 DUP4 SUB SUB DUP2 MSTORE SWAP1 PUSH1 0x40 MSTORE SWAP1 POP SWAP2 SWAP1 POP JUMP JUMPDEST PUSH2 0x594 DUP2 PUSH2 0x600 JUMP JUMPDEST PUSH1 0x1 PUSH1 0x1 PUSH1 0xA0 SHL SUB AND CALLER PUSH1 0x1 PUSH1 0x1 PUSH1 0xA0 SHL SUB AND EQ PUSH2 0x5F4 JUMPI PUSH1 0x40 MLOAD PUSH3 0x461BCD PUSH1 0xE5 SHL DUP2 MSTORE PUSH1 0x20 PUSH1 0x4 DUP3 ADD MSTORE PUSH1 0x1A PUSH1 0x24 DUP3 ADD MSTORE PUSH32 0x6275726E3A2073656E646572206D757374206265206F776E6572000000000000 PUSH1 0x44 DUP3 ADD MSTORE PUSH1 0x64 ADD PUSH2 0x422 JUMP JUMPDEST PUSH2 0x5FD DUP2 PUSH2 0xE33 JUMP JUMPDEST POP JUMP JUMPDEST PUSH1 0x0 DUP2 DUP2 MSTORE PUSH1 0x2 PUSH1 0x20 MSTORE PUSH1 0x40 DUP2 KECCAK256 SLOAD PUSH1 0x1 PUSH1 0x1 PUSH1 0xA0 SHL SUB AND DUP1 PUSH2 0x339 JUMPI PUSH1 0x40 MLOAD PUSH3 0x461BCD PUSH1 0xE5 SHL DUP2 MSTORE PUSH1 0x20 PUSH1 0x4 DUP3 ADD MSTORE PUSH1 0x1C PUSH1 0x24 DUP3 ADD MSTORE PUSH32 0x6F776E65724F663A20746F6B656E20646F65736E277420657869737400000000 PUSH1 0x44 DUP3 ADD MSTORE PUSH1 0x64 ADD PUSH2 0x422 JUMP JUMPDEST PUSH1 0x0 PUSH1 0x1 PUSH1 0x1 PUSH1 0xA0 SHL SUB DUP3 AND PUSH2 0x6D2 JUMPI PUSH1 0x40 MLOAD PUSH3 0x461BCD PUSH1 0xE5 SHL DUP2 MSTORE PUSH1 0x20 PUSH1 0x4 DUP3 ADD MSTORE PUSH1 0x2C PUSH1 0x24 DUP3 ADD MSTORE PUSH32 0x62616C616E63654F663A2061646472657373207A65726F206973206E6F742061 PUSH1 0x44 DUP3 ADD MSTORE PUSH12 0x103B30B634B21037BBB732B9 PUSH1 0xA1 SHL PUSH1 0x64 DUP3 ADD MSTORE PUSH1 0x84 ADD PUSH2 0x422 JUMP JUMPDEST POP PUSH1 0x1 PUSH1 0x1 PUSH1 0xA0 SHL SUB AND PUSH1 0x0 SWAP1 DUP2 MSTORE PUSH1 0x4 PUSH1 0x20 MSTORE PUSH1 0x40 SWAP1 KECCAK256 SLOAD SWAP1 JUMP JUMPDEST PUSH2 0x6F6 PUSH2 0xEDA JUMP JUMPDEST PUSH2 0x700 PUSH1 0x0 PUSH2 0xF34 JUMP JUMPDEST JUMP JUMPDEST PUSH2 0x70A PUSH2 0xEDA JUMP JUMPDEST DUP2 PUSH2 0x71D PUSH1 0x8 SLOAD PUSH1 0x1 PUSH1 0x1 PUSH1 0xA0 SHL SUB AND SWAP1 JUMP JUMPDEST PUSH1 0x1 PUSH1 0x1 PUSH1 0xA0 SHL SUB AND DUP2 PUSH1 0x1 PUSH1 0x1 PUSH1 0xA0 SHL SUB AND EQ PUSH2 0x774 JUMPI PUSH1 0x40 MLOAD PUSH3 0x461BCD PUSH1 0xE5 SHL DUP2 MSTORE PUSH1 0x20 PUSH1 0x4 DUP3 ADD MSTORE PUSH1 0x14 PUSH1 0x24 DUP3 ADD MSTORE PUSH20 0x4E6F7420416C6C6F776C697374204F776E657221 PUSH1 0x60 SHL PUSH1 0x44 DUP3 ADD MSTORE PUSH1 0x64 ADD PUSH2 0x422 JUMP JUMPDEST PUSH2 0x77D DUP3 PUSH2 0xF86 JUMP JUMPDEST POP POP POP JUMP JUMPDEST PUSH1 0x60 PUSH1 0x1 DUP1 SLOAD PUSH2 0x34E SWAP1 PUSH2 0x17BD JUMP JUMPDEST PUSH1 0x60 PUSH2 0x79C DUP3 PUSH2 0xC48 JUMP JUMPDEST PUSH2 0x7E8 JUMPI PUSH1 0x40 MLOAD PUSH3 0x461BCD PUSH1 0xE5 SHL DUP2 MSTORE PUSH1 0x20 PUSH1 0x4 DUP3 ADD MSTORE PUSH1 0x1D PUSH1 0x24 DUP3 ADD MSTORE PUSH32 0x746F6B656E5552493A20746F6B656E20646F65736E2774206578697374000000 PUSH1 0x44 DUP3 ADD MSTORE PUSH1 0x64 ADD PUSH2 0x422 JUMP JUMPDEST PUSH1 0x0 DUP3 DUP2 MSTORE PUSH1 0x3 PUSH1 0x20 MSTORE PUSH1 0x40 SWAP1 KECCAK256 DUP1 SLOAD PUSH2 0x801 SWAP1 PUSH2 0x17BD JUMP JUMPDEST DUP1 PUSH1 0x1F ADD PUSH1 0x20 DUP1 SWAP2 DIV MUL PUSH1 0x20 ADD PUSH1 0x40 MLOAD SWAP1 DUP2 ADD PUSH1 0x40 MSTORE DUP1 SWAP3 SWAP2 SWAP1 DUP2 DUP2 MSTORE PUSH1 0x20 ADD DUP3 DUP1 SLOAD PUSH2 0x82D SWAP1 PUSH2 0x17BD JUMP JUMPDEST DUP1 ISZERO PUSH2 0x87A JUMPI DUP1 PUSH1 0x1F LT PUSH2 0x84F JUMPI PUSH2 0x100 DUP1 DUP4 SLOAD DIV MUL DUP4 MSTORE SWAP2 PUSH1 0x20 ADD SWAP2 PUSH2 0x87A JUMP JUMPDEST DUP3 ADD SWAP2 SWAP1 PUSH1 0x0 MSTORE PUSH1 0x20 PUSH1 0x0 KECCAK256 SWAP1 JUMPDEST DUP2 SLOAD DUP2 MSTORE SWAP1 PUSH1 0x1 ADD SWAP1 PUSH1 0x20 ADD DUP1 DUP4 GT PUSH2 0x85D JUMPI DUP3 SWAP1 SUB PUSH1 0x1F AND DUP3 ADD SWAP2 JUMPDEST POP POP POP POP POP SWAP1 POP SWAP2 SWAP1 POP JUMP JUMPDEST PUSH1 0x60 PUSH1 0x6 DUP1 SLOAD PUSH2 0x895 SWAP1 PUSH2 0x17BD JUMP JUMPDEST ISZERO ISZERO SWAP1 POP PUSH2 0x8D5 JUMPI PUSH1 0x40 MLOAD PUSH3 0x461BCD PUSH1 0xE5 SHL DUP2 MSTORE PUSH1 0x20 PUSH1 0x4 DUP3 ADD MSTORE PUSH1 0xD PUSH1 0x24 DUP3 ADD MSTORE PUSH13 0x456D7074792062617365555249 PUSH1 0x98 SHL PUSH1 0x44 DUP3 ADD MSTORE PUSH1 0x64 ADD PUSH2 0x422 JUMP JUMPDEST PUSH1 0x6 DUP1 SLOAD PUSH2 0x34E SWAP1 PUSH2 0x17BD JUMP JUMPDEST PUSH1 0x1 PUSH1 0x1 PUSH1 0xA0 SHL SUB DUP6 AND PUSH2 0x930 JUMPI PUSH1 0x40 MLOAD PUSH3 0x461BCD PUSH1 0xE5 SHL DUP2 MSTORE PUSH1 0x20 PUSH1 0x4 DUP3 ADD MSTORE PUSH1 0x15 PUSH1 0x24 DUP3 ADD MSTORE PUSH21 0x26B4B73A103A37903D32B9379030B2323932B9B997 PUSH1 0x59 SHL PUSH1 0x44 DUP3 ADD MSTORE PUSH1 0x64 ADD PUSH2 0x422 JUMP JUMPDEST DUP3 MLOAD PUSH1 0x41 EQ PUSH2 0x97C JUMPI PUSH1 0x40 MLOAD PUSH3 0x461BCD PUSH1 0xE5 SHL DUP2 MSTORE PUSH1 0x20 PUSH1 0x4 DUP3 ADD MSTORE PUSH1 0x18 PUSH1 0x24 DUP3 ADD MSTORE PUSH24 0x92DCECC2D8D2C840E6D2CEDCC2E8EAE4CA40D8CADCCEE8D PUSH1 0x43 SHL PUSH1 0x44 DUP3 ADD MSTORE PUSH1 0x64 ADD PUSH2 0x422 JUMP JUMPDEST PUSH2 0x986 DUP5 DUP5 PUSH2 0xA17 JUMP JUMPDEST PUSH2 0x9CE JUMPI PUSH1 0x40 MLOAD PUSH3 0x461BCD PUSH1 0xE5 SHL DUP2 MSTORE PUSH1 0x20 PUSH1 0x4 DUP3 ADD MSTORE PUSH1 0x19 PUSH1 0x24 DUP3 ADD MSTORE PUSH25 0x2430B9B4103737BA1039B4B3B732B210313C9037BBB732B917 PUSH1 0x39 SHL PUSH1 0x44 DUP3 ADD MSTORE PUSH1 0x64 ADD PUSH2 0x422 JUMP JUMPDEST PUSH2 0x9D9 DUP6 DUP4 DUP4 PUSH2 0xFDC JUMP JUMPDEST POP PUSH1 0x40 MLOAD DUP3 SWAP1 PUSH1 0x1 PUSH1 0x1 PUSH1 0xA0 SHL SUB DUP8 AND SWAP1 PUSH32 0x79AF0E59B31823DD289CEEBABC4D63D25F35926B8548E3A084A500C9D4E18556 SWAP1 PUSH1 0x0 SWAP1 LOG3 POP POP POP POP POP JUMP JUMPDEST PUSH1 0x0 PUSH2 0xA23 DUP4 DUP4 PUSH2 0xFF3 JUMP JUMPDEST SWAP4 SWAP3 POP POP POP JUMP JUMPDEST PUSH1 0x20 DUP2 DUP2 ADD MLOAD PUSH1 0x40 DUP1 DUP5 ADD MLOAD PUSH1 0x60 DUP1 DUP7 ADD MLOAD DUP4 MLOAD PUSH1 0x0 DUP1 DUP3 MSTORE DUP2 DUP9 ADD DUP1 DUP8 MSTORE DUP11 SWAP1 MSTORE SWAP2 DUP3 BYTE DUP2 DUP7 ADD DUP2 SWAP1 MSTORE SWAP3 DUP2 ADD DUP7 SWAP1 MSTORE PUSH1 0x80 DUP2 ADD DUP5 SWAP1 MSTORE SWAP4 MLOAD SWAP1 SWAP6 SWAP3 SWAP4 SWAP2 SWAP3 PUSH1 0x1 SWAP3 PUSH1 0xA0 DUP1 DUP3 ADD SWAP4 PUSH1 0x1F NOT DUP2 ADD SWAP3 DUP2 SWAP1 SUB SWAP1 SWAP2 ADD SWAP1 DUP6 GAS STATICCALL ISZERO DUP1 ISZERO PUSH2 0xA94 JUMPI RETURNDATASIZE PUSH1 0x0 DUP1 RETURNDATACOPY RETURNDATASIZE PUSH1 0x0 REVERT JUMPDEST POP POP POP PUSH1 0x20 PUSH1 0x40 MLOAD SUB MLOAD PUSH1 0x1 PUSH1 0x1 PUSH1 0xA0 SHL SUB AND DUP8 PUSH1 0x1 PUSH1 0x1 PUSH1 0xA0 SHL SUB AND EQ SWAP4 POP POP POP POP SWAP4 SWAP3 POP POP POP JUMP JUMPDEST PUSH2 0xAC6 PUSH2 0xEDA JUMP JUMPDEST PUSH1 0x1 PUSH1 0x1 PUSH1 0xA0 SHL SUB DUP2 AND PUSH2 0xB2B JUMPI PUSH1 0x40 MLOAD PUSH3 0x461BCD PUSH1 0xE5 SHL DUP2 MSTORE PUSH1 0x20 PUSH1 0x4 DUP3 ADD MSTORE PUSH1 0x26 PUSH1 0x24 DUP3 ADD MSTORE PUSH32 0x4F776E61626C653A206E6577206F776E657220697320746865207A65726F2061 PUSH1 0x44 DUP3 ADD MSTORE PUSH6 0x646472657373 PUSH1 0xD0 SHL PUSH1 0x64 DUP3 ADD MSTORE PUSH1 0x84 ADD PUSH2 0x422 JUMP JUMPDEST PUSH2 0x5FD DUP2 PUSH2 0xF34 JUMP JUMPDEST PUSH1 0x0 PUSH1 0x1 PUSH1 0x1 PUSH1 0xA0 SHL SUB DUP4 AND PUSH2 0xB8C JUMPI PUSH1 0x40 MLOAD PUSH3 0x461BCD PUSH1 0xE5 SHL DUP2 MSTORE PUSH1 0x20 PUSH1 0x4 DUP3 ADD MSTORE PUSH1 0x17 PUSH1 0x24 DUP3 ADD MSTORE PUSH32 0x517565727920666F72207A65726F20616464726573732E000000000000000000 PUSH1 0x44 DUP3 ADD MSTORE PUSH1 0x64 ADD PUSH2 0x422 JUMP JUMPDEST PUSH2 0xB95 DUP3 PUSH2 0xC48 JUMP JUMPDEST PUSH2 0xBD7 JUMPI PUSH1 0x40 MLOAD PUSH3 0x461BCD PUSH1 0xE5 SHL DUP2 MSTORE PUSH1 0x20 PUSH1 0x4 DUP3 ADD MSTORE PUSH1 0x13 PUSH1 0x24 DUP3 ADD MSTORE PUSH19 0x2737B716B2BC34B9BA32B73A103A37B5B2B717 PUSH1 0x69 SHL PUSH1 0x44 DUP3 ADD MSTORE PUSH1 0x64 ADD PUSH2 0x422 JUMP JUMPDEST DUP3 PUSH1 0x1 PUSH1 0x1 PUSH1 0xA0 SHL SUB AND PUSH2 0xBEA DUP4 PUSH2 0x600 JUMP JUMPDEST PUSH1 0x1 PUSH1 0x1 PUSH1 0xA0 SHL SUB AND EQ PUSH2 0xC40 JUMPI PUSH1 0x40 MLOAD PUSH3 0x461BCD PUSH1 0xE5 SHL DUP2 MSTORE PUSH1 0x20 PUSH1 0x4 DUP3 ADD MSTORE PUSH1 0x1A PUSH1 0x24 DUP3 ADD MSTORE PUSH32 0x546F6B656E206E6F74206F776E65642062792061646472657373000000000000 PUSH1 0x44 DUP3 ADD MSTORE PUSH1 0x64 ADD PUSH2 0x422 JUMP JUMPDEST POP ADDRESS SWAP3 SWAP2 POP POP JUMP JUMPDEST PUSH1 0x0 SWAP1 DUP2 MSTORE PUSH1 0x2 PUSH1 0x20 MSTORE PUSH1 0x40 SWAP1 KECCAK256 SLOAD PUSH1 0x1 PUSH1 0x1 PUSH1 0xA0 SHL SUB AND ISZERO ISZERO SWAP1 JUMP JUMPDEST PUSH1 0x0 PUSH2 0xC70 DUP3 PUSH2 0xC48 JUMP JUMPDEST PUSH2 0xCB2 JUMPI PUSH1 0x40 MLOAD PUSH3 0x461BCD PUSH1 0xE5 SHL DUP2 MSTORE PUSH1 0x20 PUSH1 0x4 DUP3 ADD MSTORE PUSH1 0x13 PUSH1 0x24 DUP3 ADD MSTORE PUSH19 0x2737B716B2BC34B9BA32B73A103A37B5B2B717 PUSH1 0x69 SHL PUSH1 0x44 DUP3 ADD MSTORE PUSH1 0x64 ADD PUSH2 0x422 JUMP JUMPDEST DUP3 PUSH1 0x1 PUSH1 0x1 PUSH1 0xA0 SHL SUB AND PUSH2 0xCC5 DUP4 PUSH2 0x600 JUMP JUMPDEST PUSH1 0x1 PUSH1 0x1 PUSH1 0xA0 SHL SUB AND EQ PUSH2 0xD1B JUMPI PUSH1 0x40 MLOAD PUSH3 0x461BCD PUSH1 0xE5 SHL DUP2 MSTORE PUSH1 0x20 PUSH1 0x4 DUP3 ADD MSTORE PUSH1 0x1A PUSH1 0x24 DUP3 ADD MSTORE PUSH32 0x546F6B656E206E6F74206F776E65642062792061646472657373000000000000 PUSH1 0x44 DUP3 ADD MSTORE PUSH1 0x64 ADD PUSH2 0x422 JUMP JUMPDEST PUSH2 0xD24 DUP3 PUSH2 0x1176 JUMP JUMPDEST POP PUSH1 0x1 SWAP3 SWAP2 POP POP JUMP JUMPDEST PUSH1 0x60 DUP2 PUSH2 0xD51 JUMPI POP POP PUSH1 0x40 DUP1 MLOAD DUP1 DUP3 ADD SWAP1 SWAP2 MSTORE PUSH1 0x1 DUP2 MSTORE PUSH1 0x3 PUSH1 0xFC SHL PUSH1 0x20 DUP3 ADD MSTORE SWAP1 JUMP JUMPDEST DUP2 PUSH1 0x0 JUMPDEST DUP2 ISZERO PUSH2 0xD7B JUMPI DUP1 PUSH2 0xD65 DUP2 PUSH2 0x183D JUMP JUMPDEST SWAP2 POP PUSH2 0xD74 SWAP1 POP PUSH1 0xA DUP4 PUSH2 0x186E JUMP JUMPDEST SWAP2 POP PUSH2 0xD55 JUMP JUMPDEST PUSH1 0x0 DUP2 PUSH8 0xFFFFFFFFFFFFFFFF DUP2 GT ISZERO PUSH2 0xD96 JUMPI PUSH2 0xD96 PUSH2 0x14F2 JUMP JUMPDEST PUSH1 0x40 MLOAD SWAP1 DUP1 DUP3 MSTORE DUP1 PUSH1 0x1F ADD PUSH1 0x1F NOT AND PUSH1 0x20 ADD DUP3 ADD PUSH1 0x40 MSTORE DUP1 ISZERO PUSH2 0xDC0 JUMPI PUSH1 0x20 DUP3 ADD DUP2 DUP1 CALLDATASIZE DUP4 CALLDATACOPY ADD SWAP1 POP JUMPDEST POP SWAP1 POP JUMPDEST DUP5 ISZERO PUSH2 0xE2B JUMPI PUSH2 0xDD5 PUSH1 0x1 DUP4 PUSH2 0x1882 JUMP JUMPDEST SWAP2 POP PUSH2 0xDE2 PUSH1 0xA DUP7 PUSH2 0x1899 JUMP JUMPDEST PUSH2 0xDED SWAP1 PUSH1 0x30 PUSH2 0x18AD JUMP JUMPDEST PUSH1 0xF8 SHL DUP2 DUP4 DUP2 MLOAD DUP2 LT PUSH2 0xE02 JUMPI PUSH2 0xE02 PUSH2 0x18C5 JUMP JUMPDEST PUSH1 0x20 ADD ADD SWAP1 PUSH1 0x1 PUSH1 0x1 PUSH1 0xF8 SHL SUB NOT AND SWAP1 DUP2 PUSH1 0x0 BYTE SWAP1 MSTORE8 POP PUSH2 0xE24 PUSH1 0xA DUP7 PUSH2 0x186E JUMP JUMPDEST SWAP5 POP PUSH2 0xDC4 JUMP JUMPDEST SWAP5 SWAP4 POP POP POP POP JUMP JUMPDEST PUSH1 0x0 PUSH2 0xE3E DUP3 PUSH2 0x600 JUMP JUMPDEST PUSH1 0x1 PUSH1 0x1 PUSH1 0xA0 SHL SUB DUP2 AND PUSH1 0x0 SWAP1 DUP2 MSTORE PUSH1 0x4 PUSH1 0x20 MSTORE PUSH1 0x40 DUP2 KECCAK256 DUP1 SLOAD SWAP3 SWAP4 POP PUSH1 0x1 SWAP3 SWAP1 SWAP2 SWAP1 PUSH2 0xE6C SWAP1 DUP5 SWAP1 PUSH2 0x1882 JUMP JUMPDEST SWAP1 SWAP2 SSTORE POP POP PUSH1 0x0 DUP3 DUP2 MSTORE PUSH1 0x2 PUSH1 0x20 SWAP1 DUP2 MSTORE PUSH1 0x40 DUP1 DUP4 KECCAK256 DUP1 SLOAD PUSH1 0x1 PUSH1 0x1 PUSH1 0xA0 SHL SUB NOT AND SWAP1 SSTORE PUSH1 0x3 SWAP1 SWAP2 MSTORE DUP2 KECCAK256 PUSH2 0xEA0 SWAP2 PUSH2 0x1392 JUMP JUMPDEST PUSH1 0x40 MLOAD DUP3 SWAP1 PUSH1 0x1 PUSH1 0x1 PUSH1 0xA0 SHL SUB DUP4 AND SWAP1 PUSH32 0xEC9AB91322523C899EDE7830EC9BFC992B5981CDCC27B91162FB23DE5791117B SWAP1 PUSH1 0x0 SWAP1 LOG3 POP POP JUMP JUMPDEST PUSH1 0x5 SLOAD PUSH1 0x1 PUSH1 0x1 PUSH1 0xA0 SHL SUB AND CALLER EQ PUSH2 0x700 JUMPI PUSH1 0x40 MLOAD PUSH3 0x461BCD PUSH1 0xE5 SHL DUP2 MSTORE PUSH1 0x20 PUSH1 0x4 DUP3 ADD DUP2 SWAP1 MSTORE PUSH1 0x24 DUP3 ADD MSTORE PUSH32 0x4F776E61626C653A2063616C6C6572206973206E6F7420746865206F776E6572 PUSH1 0x44 DUP3 ADD MSTORE PUSH1 0x64 ADD PUSH2 0x422 JUMP JUMPDEST PUSH1 0x5 DUP1 SLOAD PUSH1 0x1 PUSH1 0x1 PUSH1 0xA0 SHL SUB DUP4 DUP2 AND PUSH1 0x1 PUSH1 0x1 PUSH1 0xA0 SHL SUB NOT DUP4 AND DUP2 OR SWAP1 SWAP4 SSTORE PUSH1 0x40 MLOAD SWAP2 AND SWAP2 SWAP1 DUP3 SWAP1 PUSH32 0x8BE0079C531659141344CD1FD0A4F28419497F9722A3DAAFE3B4186F6B6457E0 SWAP1 PUSH1 0x0 SWAP1 LOG3 POP POP JUMP JUMPDEST DUP1 MLOAD PUSH2 0xFC5 JUMPI PUSH1 0x40 MLOAD PUSH3 0x461BCD PUSH1 0xE5 SHL DUP2 MSTORE PUSH1 0x20 PUSH1 0x4 DUP3 ADD MSTORE PUSH1 0xE PUSH1 0x24 DUP3 ADD MSTORE PUSH14 0x92DCECC2D8D2C840D8CADCCEE8D PUSH1 0x93 SHL PUSH1 0x44 DUP3 ADD MSTORE PUSH1 0x64 ADD PUSH2 0x422 JUMP JUMPDEST DUP1 MLOAD PUSH2 0xFD8 SWAP1 PUSH1 0x6 SWAP1 PUSH1 0x20 DUP5 ADD SWAP1 PUSH2 0x13CC JUMP JUMPDEST POP POP JUMP JUMPDEST PUSH1 0x0 PUSH2 0xFE9 DUP5 DUP5 DUP5 PUSH2 0x120C JUMP JUMPDEST POP PUSH1 0x1 SWAP4 SWAP3 POP POP POP JUMP JUMPDEST PUSH1 0x0 PUSH2 0xFFD PUSH2 0xEDA JUMP JUMPDEST PUSH1 0x5 SLOAD PUSH1 0x1 PUSH1 0x1 PUSH1 0xA0 SHL SUB AND CALLER EQ PUSH2 0x106B JUMPI PUSH1 0x40 MLOAD PUSH3 0x461BCD PUSH1 0xE5 SHL DUP2 MSTORE PUSH1 0x20 PUSH1 0x4 DUP3 ADD MSTORE PUSH1 0x2B PUSH1 0x24 DUP3 ADD MSTORE PUSH32 0x4552433732313A3A2043616C6C20746F20636F6E7472616374206D6164652062 PUSH1 0x44 DUP3 ADD MSTORE PUSH11 0x3C903737B716B7BBB732B9 PUSH1 0xA9 SHL PUSH1 0x64 DUP3 ADD MSTORE PUSH1 0x84 ADD PUSH2 0x422 JUMP JUMPDEST DUP2 MLOAD PUSH1 0x41 EQ PUSH2 0x10BC JUMPI PUSH1 0x40 MLOAD PUSH3 0x461BCD PUSH1 0xE5 SHL DUP2 MSTORE PUSH1 0x20 PUSH1 0x4 DUP3 ADD MSTORE PUSH1 0x1E PUSH1 0x24 DUP3 ADD MSTORE PUSH32 0x4572723A3A20496E76616C6964207369676E6174757265206C656E6774680000 PUSH1 0x44 DUP3 ADD MSTORE PUSH1 0x64 ADD PUSH2 0x422 JUMP JUMPDEST PUSH1 0x20 DUP3 DUP2 ADD MLOAD PUSH1 0x40 DUP1 DUP6 ADD MLOAD PUSH1 0x60 DUP1 DUP8 ADD MLOAD DUP4 MLOAD PUSH1 0x0 DUP1 DUP3 MSTORE SWAP7 DUP2 ADD DUP1 DUP7 MSTORE DUP11 SWAP1 MSTORE SWAP1 DUP7 BYTE SWAP4 DUP2 ADD DUP5 SWAP1 MSTORE SWAP1 DUP2 ADD DUP5 SWAP1 MSTORE PUSH1 0x80 DUP2 ADD DUP3 SWAP1 MSTORE SWAP3 SWAP4 SWAP1 SWAP3 PUSH1 0x1 SWAP1 PUSH1 0xA0 ADD PUSH1 0x20 PUSH1 0x40 MLOAD PUSH1 0x20 DUP2 SUB SWAP1 DUP1 DUP5 SUB SWAP1 DUP6 GAS STATICCALL ISZERO DUP1 ISZERO PUSH2 0x1120 JUMPI RETURNDATASIZE PUSH1 0x0 DUP1 RETURNDATACOPY RETURNDATASIZE PUSH1 0x0 REVERT JUMPDEST POP POP PUSH1 0x40 MLOAD PUSH1 0x1F NOT DUP2 ADD MLOAD PUSH1 0x8 SLOAD SWAP1 SWAP4 POP PUSH1 0x1 PUSH1 0x1 PUSH1 0xA0 SHL SUB DUP1 DUP6 AND SWAP2 AND EQ SWAP2 POP DUP2 SWAP1 DUP10 SWAP1 PUSH32 0x7E4FE2A2A805A357593FDBDDE58C02F6A53D8B4960744CD31A98697FC11C2E36 SWAP1 PUSH1 0x0 SWAP1 LOG3 SWAP8 SWAP7 POP POP POP POP POP POP POP JUMP JUMPDEST PUSH2 0x117F DUP2 PUSH2 0xC48 JUMP JUMPDEST PUSH2 0x11CB JUMPI PUSH1 0x40 MLOAD PUSH3 0x461BCD PUSH1 0xE5 SHL DUP2 MSTORE PUSH1 0x20 PUSH1 0x4 DUP3 ADD MSTORE PUSH1 0x18 PUSH1 0x24 DUP3 ADD MSTORE PUSH32 0x4275726E206F6620696E6578697374656E7420746F6B656E0000000000000000 PUSH1 0x44 DUP3 ADD MSTORE PUSH1 0x64 ADD PUSH2 0x422 JUMP JUMPDEST PUSH1 0x0 PUSH2 0x11D6 DUP3 PUSH2 0x600 JUMP JUMPDEST SWAP1 POP PUSH2 0x11E1 DUP3 PUSH2 0xE33 JUMP JUMPDEST PUSH1 0x1 PUSH1 0x1 PUSH1 0xA0 SHL SUB AND PUSH1 0x0 SWAP1 DUP2 MSTORE PUSH1 0x7 PUSH1 0x20 SWAP1 DUP2 MSTORE PUSH1 0x40 DUP1 DUP4 KECCAK256 SWAP4 DUP4 MSTORE SWAP3 SWAP1 MSTORE KECCAK256 DUP1 SLOAD PUSH1 0xFF NOT AND SWAP1 SSTORE JUMP JUMPDEST PUSH1 0x1 PUSH1 0x1 PUSH1 0xA0 SHL SUB DUP4 AND PUSH2 0x125A JUMPI PUSH1 0x40 MLOAD PUSH3 0x461BCD PUSH1 0xE5 SHL DUP2 MSTORE PUSH1 0x20 PUSH1 0x4 DUP3 ADD MSTORE PUSH1 0x15 PUSH1 0x24 DUP3 ADD MSTORE PUSH21 0x26B4B73A103A37903D32B9379030B2323932B9B997 PUSH1 0x59 SHL PUSH1 0x44 DUP3 ADD MSTORE PUSH1 0x64 ADD PUSH2 0x422 JUMP JUMPDEST PUSH2 0x1265 DUP4 DUP4 DUP4 PUSH2 0x1297 JUMP JUMPDEST POP POP PUSH1 0x1 PUSH1 0x1 PUSH1 0xA0 SHL SUB SWAP1 SWAP2 AND PUSH1 0x0 SWAP1 DUP2 MSTORE PUSH1 0x7 PUSH1 0x20 SWAP1 DUP2 MSTORE PUSH1 0x40 DUP1 DUP4 KECCAK256 SWAP4 DUP4 MSTORE SWAP3 SWAP1 MSTORE KECCAK256 DUP1 SLOAD PUSH1 0xFF NOT AND PUSH1 0x1 OR SWAP1 SSTORE JUMP JUMPDEST PUSH1 0x0 PUSH2 0x12A2 DUP4 PUSH2 0xC48 JUMP JUMPDEST ISZERO PUSH2 0x12E6 JUMPI PUSH1 0x40 MLOAD PUSH3 0x461BCD PUSH1 0xE5 SHL DUP2 MSTORE PUSH1 0x20 PUSH1 0x4 DUP3 ADD MSTORE PUSH1 0x14 PUSH1 0x24 DUP3 ADD MSTORE PUSH20 0x6D696E743A20746F6B656E494420657869737473 PUSH1 0x60 SHL PUSH1 0x44 DUP3 ADD MSTORE PUSH1 0x64 ADD PUSH2 0x422 JUMP JUMPDEST PUSH1 0x1 PUSH1 0x1 PUSH1 0xA0 SHL SUB DUP5 AND PUSH1 0x0 SWAP1 DUP2 MSTORE PUSH1 0x4 PUSH1 0x20 MSTORE PUSH1 0x40 DUP2 KECCAK256 DUP1 SLOAD PUSH1 0x1 SWAP3 SWAP1 PUSH2 0x130F SWAP1 DUP5 SWAP1 PUSH2 0x18AD JUMP JUMPDEST SWAP1 SWAP2 SSTORE POP POP PUSH1 0x0 DUP4 DUP2 MSTORE PUSH1 0x2 PUSH1 0x20 SWAP1 DUP2 MSTORE PUSH1 0x40 DUP1 DUP4 KECCAK256 DUP1 SLOAD PUSH1 0x1 PUSH1 0x1 PUSH1 0xA0 SHL SUB NOT AND PUSH1 0x1 PUSH1 0x1 PUSH1 0xA0 SHL SUB DUP10 AND OR SWAP1 SSTORE PUSH1 0x3 DUP3 MSTORE SWAP1 SWAP2 KECCAK256 DUP4 MLOAD PUSH2 0x1353 SWAP3 DUP6 ADD SWAP1 PUSH2 0x13CC JUMP JUMPDEST POP PUSH1 0x40 MLOAD DUP4 SWAP1 PUSH1 0x1 PUSH1 0x1 PUSH1 0xA0 SHL SUB DUP7 AND SWAP1 PUSH32 0xE9274A84B19E9428826DE6BAE8C48329354F8F0E73F771B97CAE2D9DCCD45A27 SWAP1 PUSH1 0x0 SWAP1 LOG3 POP SWAP1 SWAP3 SWAP2 POP POP JUMP JUMPDEST POP DUP1 SLOAD PUSH2 0x139E SWAP1 PUSH2 0x17BD JUMP JUMPDEST PUSH1 0x0 DUP3 SSTORE DUP1 PUSH1 0x1F LT PUSH2 0x13AE JUMPI POP POP JUMP JUMPDEST PUSH1 0x1F ADD PUSH1 0x20 SWAP1 DIV SWAP1 PUSH1 0x0 MSTORE PUSH1 0x20 PUSH1 0x0 KECCAK256 SWAP1 DUP2 ADD SWAP1 PUSH2 0x5FD SWAP2 SWAP1 PUSH2 0x1450 JUMP JUMPDEST DUP3 DUP1 SLOAD PUSH2 0x13D8 SWAP1 PUSH2 0x17BD JUMP JUMPDEST SWAP1 PUSH1 0x0 MSTORE PUSH1 0x20 PUSH1 0x0 KECCAK256 SWAP1 PUSH1 0x1F ADD PUSH1 0x20 SWAP1 DIV DUP2 ADD SWAP3 DUP3 PUSH2 0x13FA JUMPI PUSH1 0x0 DUP6 SSTORE PUSH2 0x1440 JUMP JUMPDEST DUP3 PUSH1 0x1F LT PUSH2 0x1413 JUMPI DUP1 MLOAD PUSH1 0xFF NOT AND DUP4 DUP1 ADD OR DUP6 SSTORE PUSH2 0x1440 JUMP JUMPDEST DUP3 DUP1 ADD PUSH1 0x1 ADD DUP6 SSTORE DUP3 ISZERO PUSH2 0x1440 JUMPI SWAP2 DUP3 ADD JUMPDEST DUP3 DUP2 GT ISZERO PUSH2 0x1440 JUMPI DUP3 MLOAD DUP3 SSTORE SWAP2 PUSH1 0x20 ADD SWAP2 SWAP1 PUSH1 0x1 ADD SWAP1 PUSH2 0x1425 JUMP JUMPDEST POP PUSH2 0x144C SWAP3 SWAP2 POP PUSH2 0x1450 JUMP JUMPDEST POP SWAP1 JUMP JUMPDEST JUMPDEST DUP1 DUP3 GT ISZERO PUSH2 0x144C JUMPI PUSH1 0x0 DUP2 SSTORE PUSH1 0x1 ADD PUSH2 0x1451 JUMP JUMPDEST PUSH1 0x0 PUSH1 0x20 DUP3 DUP5 SUB SLT ISZERO PUSH2 0x1477 JUMPI PUSH1 0x0 DUP1 REVERT JUMPDEST DUP2 CALLDATALOAD PUSH1 0x1 PUSH1 0x1 PUSH1 0xE0 SHL SUB NOT DUP2 AND DUP2 EQ PUSH2 0xA23 JUMPI PUSH1 0x0 DUP1 REVERT JUMPDEST PUSH1 0x0 JUMPDEST DUP4 DUP2 LT ISZERO PUSH2 0x14AA JUMPI DUP2 DUP2 ADD MLOAD DUP4 DUP3 ADD MSTORE PUSH1 0x20 ADD PUSH2 0x1492 JUMP JUMPDEST DUP4 DUP2 GT ISZERO PUSH2 0x14B9 JUMPI PUSH1 0x0 DUP5 DUP5 ADD MSTORE JUMPDEST POP POP POP POP JUMP JUMPDEST PUSH1 0x20 DUP2 MSTORE PUSH1 0x0 DUP3 MLOAD DUP1 PUSH1 0x20 DUP5 ADD MSTORE PUSH2 0x14DE DUP2 PUSH1 0x40 DUP6 ADD PUSH1 0x20 DUP8 ADD PUSH2 0x148F JUMP JUMPDEST PUSH1 0x1F ADD PUSH1 0x1F NOT AND SWAP2 SWAP1 SWAP2 ADD PUSH1 0x40 ADD SWAP3 SWAP2 POP POP JUMP JUMPDEST PUSH4 0x4E487B71 PUSH1 0xE0 SHL PUSH1 0x0 MSTORE PUSH1 0x41 PUSH1 0x4 MSTORE PUSH1 0x24 PUSH1 0x0 REVERT JUMPDEST PUSH1 0x0 DUP3 PUSH1 0x1F DUP4 ADD SLT PUSH2 0x1519 JUMPI PUSH1 0x0 DUP1 REVERT JUMPDEST DUP2 CALLDATALOAD PUSH8 0xFFFFFFFFFFFFFFFF DUP1 DUP3 GT ISZERO PUSH2 0x1534 JUMPI PUSH2 0x1534 PUSH2 0x14F2 JUMP JUMPDEST PUSH1 0x40 MLOAD PUSH1 0x1F DUP4 ADD PUSH1 0x1F NOT SWAP1 DUP2 AND PUSH1 0x3F ADD AND DUP2 ADD SWAP1 DUP3 DUP3 GT DUP2 DUP4 LT OR ISZERO PUSH2 0x155C JUMPI PUSH2 0x155C PUSH2 0x14F2 JUMP JUMPDEST DUP2 PUSH1 0x40 MSTORE DUP4 DUP2 MSTORE DUP7 PUSH1 0x20 DUP6 DUP9 ADD ADD GT ISZERO PUSH2 0x1575 JUMPI PUSH1 0x0 DUP1 REVERT JUMPDEST DUP4 PUSH1 0x20 DUP8 ADD PUSH1 0x20 DUP4 ADD CALLDATACOPY PUSH1 0x0 PUSH1 0x20 DUP6 DUP4 ADD ADD MSTORE DUP1 SWAP5 POP POP POP POP POP SWAP3 SWAP2 POP POP JUMP JUMPDEST PUSH1 0x0 DUP1 PUSH1 0x0 PUSH1 0x60 DUP5 DUP7 SUB SLT ISZERO PUSH2 0x15AA JUMPI PUSH1 0x0 DUP1 REVERT JUMPDEST DUP4 CALLDATALOAD SWAP3 POP PUSH1 0x20 DUP5 ADD CALLDATALOAD PUSH8 0xFFFFFFFFFFFFFFFF DUP2 GT ISZERO PUSH2 0x15C8 JUMPI PUSH1 0x0 DUP1 REVERT JUMPDEST PUSH2 0x15D4 DUP7 DUP3 DUP8 ADD PUSH2 0x1508 JUMP JUMPDEST SWAP3 POP POP PUSH1 0x40 DUP5 ADD CALLDATALOAD SWAP1 POP SWAP3 POP SWAP3 POP SWAP3 JUMP JUMPDEST PUSH1 0x0 PUSH1 0x20 DUP3 DUP5 SUB SLT ISZERO PUSH2 0x15F7 JUMPI PUSH1 0x0 DUP1 REVERT JUMPDEST POP CALLDATALOAD SWAP2 SWAP1 POP JUMP JUMPDEST DUP1 CALLDATALOAD PUSH1 0x1 PUSH1 0x1 PUSH1 0xA0 SHL SUB DUP2 AND DUP2 EQ PUSH2 0x1615 JUMPI PUSH1 0x0 DUP1 REVERT JUMPDEST SWAP2 SWAP1 POP JUMP JUMPDEST PUSH1 0x0 DUP1 PUSH1 0x40 DUP4 DUP6 SUB SLT ISZERO PUSH2 0x162D JUMPI PUSH1 0x0 DUP1 REVERT JUMPDEST PUSH2 0x1636 DUP4 PUSH2 0x15FE JUMP JUMPDEST SWAP5 PUSH1 0x20 SWAP4 SWAP1 SWAP4 ADD CALLDATALOAD SWAP4 POP POP POP JUMP JUMPDEST PUSH1 0x0 PUSH1 0x20 DUP3 DUP5 SUB SLT ISZERO PUSH2 0x1656 JUMPI PUSH1 0x0 DUP1 REVERT JUMPDEST PUSH2 0xA23 DUP3 PUSH2 0x15FE JUMP JUMPDEST PUSH1 0x0 DUP1 PUSH1 0x40 DUP4 DUP6 SUB SLT ISZERO PUSH2 0x1672 JUMPI PUSH1 0x0 DUP1 REVERT JUMPDEST PUSH2 0x167B DUP4 PUSH2 0x15FE JUMP JUMPDEST SWAP2 POP PUSH1 0x20 DUP4 ADD CALLDATALOAD PUSH8 0xFFFFFFFFFFFFFFFF DUP2 GT ISZERO PUSH2 0x1697 JUMPI PUSH1 0x0 DUP1 REVERT JUMPDEST PUSH2 0x16A3 DUP6 DUP3 DUP7 ADD PUSH2 0x1508 JUMP JUMPDEST SWAP2 POP POP SWAP3 POP SWAP3 SWAP1 POP JUMP JUMPDEST PUSH1 0x0 DUP1 PUSH1 0x0 DUP1 PUSH1 0x0 PUSH1 0xA0 DUP7 DUP9 SUB SLT ISZERO PUSH2 0x16C5 JUMPI PUSH1 0x0 DUP1 REVERT JUMPDEST PUSH2 0x16CE DUP7 PUSH2 0x15FE JUMP JUMPDEST SWAP5 POP PUSH1 0x20 DUP7 ADD CALLDATALOAD SWAP4 POP PUSH1 0x40 DUP7 ADD CALLDATALOAD PUSH8 0xFFFFFFFFFFFFFFFF DUP1 DUP3 GT ISZERO PUSH2 0x16F2 JUMPI PUSH1 0x0 DUP1 REVERT JUMPDEST PUSH2 0x16FE DUP10 DUP4 DUP11 ADD PUSH2 0x1508 JUMP JUMPDEST SWAP5 POP PUSH1 0x60 DUP9 ADD CALLDATALOAD SWAP4 POP PUSH1 0x80 DUP9 ADD CALLDATALOAD SWAP2 POP DUP1 DUP3 GT ISZERO PUSH2 0x171B JUMPI PUSH1 0x0 DUP1 REVERT JUMPDEST POP PUSH2 0x1728 DUP9 DUP3 DUP10 ADD PUSH2 0x1508 JUMP JUMPDEST SWAP2 POP POP SWAP3 SWAP6 POP SWAP3 SWAP6 SWAP1 SWAP4 POP JUMP JUMPDEST PUSH1 0x0 DUP1 PUSH1 0x40 DUP4 DUP6 SUB SLT ISZERO PUSH2 0x1748 JUMPI PUSH1 0x0 DUP1 REVERT JUMPDEST DUP3 CALLDATALOAD SWAP2 POP PUSH1 0x20 DUP4 ADD CALLDATALOAD PUSH8 0xFFFFFFFFFFFFFFFF DUP2 GT ISZERO PUSH2 0x1697 JUMPI PUSH1 0x0 DUP1 REVERT JUMPDEST PUSH1 0x0 DUP1 PUSH1 0x0 PUSH1 0x60 DUP5 DUP7 SUB SLT ISZERO PUSH2 0x177B JUMPI PUSH1 0x0 DUP1 REVERT JUMPDEST PUSH2 0x1784 DUP5 PUSH2 0x15FE JUMP JUMPDEST SWAP3 POP PUSH1 0x20 DUP5 ADD CALLDATALOAD SWAP2 POP PUSH1 0x40 DUP5 ADD CALLDATALOAD PUSH8 0xFFFFFFFFFFFFFFFF DUP2 GT ISZERO PUSH2 0x17A7 JUMPI PUSH1 0x0 DUP1 REVERT JUMPDEST PUSH2 0x17B3 DUP7 DUP3 DUP8 ADD PUSH2 0x1508 JUMP JUMPDEST SWAP2 POP POP SWAP3 POP SWAP3 POP SWAP3 JUMP JUMPDEST PUSH1 0x1 DUP2 DUP2 SHR SWAP1 DUP3 AND DUP1 PUSH2 0x17D1 JUMPI PUSH1 0x7F DUP3 AND SWAP2 POP JUMPDEST PUSH1 0x20 DUP3 LT DUP2 EQ ISZERO PUSH2 0x17F2 JUMPI PUSH4 0x4E487B71 PUSH1 0xE0 SHL PUSH1 0x0 MSTORE PUSH1 0x22 PUSH1 0x4 MSTORE PUSH1 0x24 PUSH1 0x0 REVERT JUMPDEST POP SWAP2 SWAP1 POP JUMP JUMPDEST PUSH1 0x0 DUP4 MLOAD PUSH2 0x180A DUP2 DUP5 PUSH1 0x20 DUP9 ADD PUSH2 0x148F JUMP JUMPDEST DUP4 MLOAD SWAP1 DUP4 ADD SWAP1 PUSH2 0x181E DUP2 DUP4 PUSH1 0x20 DUP9 ADD PUSH2 0x148F JUMP JUMPDEST ADD SWAP5 SWAP4 POP POP POP POP JUMP JUMPDEST PUSH4 0x4E487B71 PUSH1 0xE0 SHL PUSH1 0x0 MSTORE PUSH1 0x11 PUSH1 0x4 MSTORE PUSH1 0x24 PUSH1 0x0 REVERT JUMPDEST PUSH1 0x0 PUSH1 0x0 NOT DUP3 EQ ISZERO PUSH2 0x1851 JUMPI PUSH2 0x1851 PUSH2 0x1827 JUMP JUMPDEST POP PUSH1 0x1 ADD SWAP1 JUMP JUMPDEST PUSH4 0x4E487B71 PUSH1 0xE0 SHL PUSH1 0x0 MSTORE PUSH1 0x12 PUSH1 0x4 MSTORE PUSH1 0x24 PUSH1 0x0 REVERT JUMPDEST PUSH1 0x0 DUP3 PUSH2 0x187D JUMPI PUSH2 0x187D PUSH2 0x1858 JUMP JUMPDEST POP DIV SWAP1 JUMP JUMPDEST PUSH1 0x0 DUP3 DUP3 LT ISZERO PUSH2 0x1894 JUMPI PUSH2 0x1894 PUSH2 0x1827 JUMP JUMPDEST POP SUB SWAP1 JUMP JUMPDEST PUSH1 0x0 DUP3 PUSH2 0x18A8 JUMPI PUSH2 0x18A8 PUSH2 0x1858 JUMP JUMPDEST POP MOD SWAP1 JUMP JUMPDEST PUSH1 0x0 DUP3 NOT DUP3 GT ISZERO PUSH2 0x18C0 JUMPI PUSH2 0x18C0 PUSH2 0x1827 JUMP JUMPDEST POP ADD SWAP1 JUMP JUMPDEST PUSH4 0x4E487B71 PUSH1 0xE0 SHL PUSH1 0x0 MSTORE PUSH1 0x32 PUSH1 0x4 MSTORE PUSH1 0x24 PUSH1 0x0 REVERT INVALID LOG2 PUSH5 0x6970667358 0x22 SLT KECCAK256 0x4C 0xAC 0xBB SLOAD 0xBB EQ JUMP 0xE1 JUMP 0xDE 0xBA EXTCODEHASH SWAP6 0xBF 0xDA 0xDD BALANCE 0xE7 CALLDATASIZE PUSH26 0xAB0ABB63D3832DA3A0AE51AF64736F6C634300080C0033000000 ",
  "sha1": "ed3985f19ad4650ece4042b5d7a39ea03bee4437",
  "source": "// SPDX-License-Identifier: GPL-3.0\npragma solidity ^0.8.0;\n\nimport \"./Soulbound.sol\";\nimport \"./Ownable.sol\";\nimport \"./Allowlist.sol\";\n\n/**\n* @title Soulbound Core Contract.\n* @author Daccred.\n* @dev  Soulbound Core template. This contract aims at a soulbound token with\n*       capped supply, set by the deployer or defaulted to 1000000.\n*       Mints and burns affect the current supply of tokens respectively.\n*/\ncontract SoulboundCore is Ownable, Soulbound, Allowlist {\n    /// @dev Total supply limit set by deployer or defaulted to 1000000.\n    uint256 internal totalSupply;\n    /// @dev    With every issue and revoke, this value\n    ///         increases and reduces.\n    ///         It cannot be GT the TOTAL_SUPPLY.\n    uint256 internal supply;\n\n    /// @dev Emitted when a token is minted from Signature.\n    event IssueWithSignature(address indexed to, uint256 indexed tokenId);\n    /// @dev Emitted when a token is revoked with Signature.\n    event RevokeWithSignature(uint256 indexed tokenId);\n\n    /**\n    * @dev  Security check to require that the address calling a particular\n    *       function is the allowlistOwner.\n    *       \n    * @param _caller Address.\n    */\n    modifier onlyAllowlistOwner(address _caller) {\n        require(_caller == getAllowlistOwner(), \"Not Allowlist Owner!\");\n        _;\n    }\n\n    /// @dev Deploys the 3 contracts inherited by the SoulboundCore.\n    constructor(\n        string memory name, \n        string memory symbol,\n        address _allowlistOwner,\n        uint256 _totalSupply\n    )\n    Soulbound(name, symbol)\n    Allowlist(_allowlistOwner) {\n        if (_totalSupply == 0) {\n            totalSupply = 1e6;\n        } else {\n            totalSupply = _totalSupply;\n        }\n    }\n\n    /**\n    * @dev  Mints a particular quantity of tokens to `to`, \n    *       on the condition that the address has been \n    *       signed by the allowlistOwner off-chain.\n    *       This will emit the {MintSoulboundToken} event\n    *       from the Soulbound.sol.\n    *\n    * @notice Callable by anyone.\n    *\n    * @param addr       Address to mint tokens to.\n    * @param hash       Hashed message by the allowlistOwner.\n    * @param sig        Signature, signed by the allowlistOwner.\n    * @param tokenId    Id of the tokens to mint to the `addr`.\n    * @param tokenURI   URI of the token to be minted.\n    */\n    function issueWithSignature(\n        address addr,\n        bytes32 hash,\n        bytes memory sig,\n        uint256 tokenId,\n        string memory tokenURI\n    ) public\n    {\n        /// @dev Require that the address is not a zero address.\n        require(addr != address(0), \"Mint to zero address.\");\n        /// @dev    Require that the hash is actually 32 [64 characters]\n        ///         in length.\n        require(hash.length == 32, \"Invalid hash.\");\n        /// @dev Require the length of the signature is 65.\n        require(sig.length == 65, \"Invalid signature length\");\n        /// @dev    Verifies that the address was actually signed by the\n        ///         allowlistOwner.\n        require(verifySignature(hash, sig), \"Hash not signed by owner.\");\n        /// @dev    Mint the tokens to address.\n        ///         [Ref Soulbound.sol].\n        issue(addr, tokenId, tokenURI);\n        /// @dev Emit the IssueWithSignature event.\n        emit IssueWithSignature(addr, tokenId);\n    }\n\n    /**\n    * @dev  Revokes the ownership of `tokenId` from the owner.\n    *       The token must exist and the signature must be signed the\n    *       allowlistOwner.\n    *       This emits the {RevokeWithSignature} event.\n    *\n    * @notice Callable by anyone.\n    *\n    * @param hash       Hashed message by the allowlistOwner.\n    * @param sig        Signature, signed by the allowlistOwner.\n    * @param tokenId    Id of the token to revoke.\n    */\n    function revokeWithSignature(\n        bytes32 hash,\n        bytes memory sig,\n        uint256 tokenId\n    ) public\n    {\n        /// @dev Require that the token exists.\n        require(_exists(tokenId), \"Revoke of inexistent token.\");\n        /// @dev    Require that the hash is actually 32 [64 characters]\n        ///         in length.\n        require(hash.length == 32, \"Invalid hash.\");\n        /// @dev Require the length of the signature is 65.\n        require(sig.length == 65, \"Invalid signature length\");\n        /// @dev    Verifies that the address was actually signed by the\n        ///         allowlistOwner.\n        require(verifySignature(hash, sig), \"Hash not signed by owner.\");\n        /// @dev    Mint the tokens to address.\n        ///         [Ref Soulbound.sol].\n        revoke(ownerOf(tokenId), tokenId);\n        /// @dev Emit the RevokeWithSignature event.\n        emit RevokeWithSignature(tokenId);\n    }\n\n    /**\n    * @dev  Allows the `caller` (allowlistOwner) to set the baseURI.\n    *       This is really important when the caller wants to mint\n    *       Multiple tokens with the same base URI.\n    *\n    * @notice   Callable by the deployer of this contract [DaccredDeployer]\n    *           and the allowlistOwner.\n    */\n    function setBaseURI(address caller, string memory _baseURI) \n    public \n    onlyOwner \n    onlyAllowlistOwner(caller)\n    {\n        /// @dev Set baseURI.\n        _setBaseURI(_baseURI);\n    }\n\n    /**\n    * @dev  Using the `tokenId` passed, it generates a `stringified` tokenURI,\n    *       packing the baseURI and the current tokenId.\n    *       Makes use of OpenZeppelin's uint to string function.\n    *\n    * @notice Callable by anyone.\n    *\n    * @param tokenId ID of token whose tokenURI is desired.\n    *\n    * @return _tokenURI TokenURI of the passed tokenId.\n    */\n    function generateTokenURI(uint256 tokenId) \n    public \n    view\n    returns(string memory _tokenURI)\n    {\n        /// @dev Require baseURI length is not currently 0.\n        require(bytes(_getBaseURI()).length != 0, \"Empty baseURI\");\n        /// @dev Return a packed tokenURI string.\n        _tokenURI = string(abi.encodePacked(\n            _getBaseURI(),\n            toString(tokenId)\n        ));\n    }\n\n    /**\n    * @dev Converts a `uint256` to its ASCII `string` decimal representation.\n    *      Copied from OpenZeppelin.\n    */\n    function toString(uint256 value) internal pure returns (string memory) {\n        // Inspired by OraclizeAPI's implementation - MIT licence\n        // https://github.com/oraclize/ethereum-api/blob/b42146b063c7d6ee1358846c198246239e9360e8/oraclizeAPI_0.4.25.sol\n\n        if (value == 0) {\n            return \"0\";\n        }\n        uint256 temp = value;\n        uint256 digits;\n        while (temp != 0) {\n            digits++;\n            temp /= 10;\n        }\n        bytes memory buffer = new bytes(digits);\n        while (value != 0) {\n            digits -= 1;\n            buffer[digits] = bytes1(uint8(48 + uint256(value % 10)));\n            value /= 10;\n        }\n        return string(buffer);\n    }\n\n}\n",
  "sourcePath": "contracts/extensions/SoulboundCore.sol",
  "type": "contract"
}