{
  "abi": [
    {
      "inputs": [
        {
          "internalType": "string",
          "name": "name",
          "type": "string"
        },
        {
          "internalType": "string",
          "name": "symbol",
          "type": "string"
        },
        {
          "internalType": "address",
          "name": "_allowlistOwner",
          "type": "address"
        },
        {
          "internalType": "uint256",
          "name": "_totalSupply",
          "type": "uint256"
        },
        {
          "internalType": "uint256",
          "name": "_priceLimit",
          "type": "uint256"
        },
        {
          "internalType": "uint256",
          "name": "_tokenPrice",
          "type": "uint256"
        }
      ],
      "stateMutability": "nonpayable",
      "type": "constructor"
    },
    {
      "inputs": [
        {
          "internalType": "address",
          "name": "_address",
          "type": "address"
        }
      ],
      "name": "Unsigned",
      "type": "error"
    },
    {
      "anonymous": false,
      "inputs": [
        {
          "indexed": true,
          "internalType": "address",
          "name": "to",
          "type": "address"
        },
        {
          "indexed": true,
          "internalType": "uint256",
          "name": "tokenId",
          "type": "uint256"
        }
      ],
      "name": "Attest",
      "type": "event"
    },
    {
      "anonymous": false,
      "inputs": [
        {
          "indexed": false,
          "internalType": "uint256",
          "name": "tokenId",
          "type": "uint256"
        },
        {
          "indexed": false,
          "internalType": "uint256",
          "name": "time",
          "type": "uint256"
        }
      ],
      "name": "Extended",
      "type": "event"
    },
    {
      "anonymous": false,
      "inputs": [
        {
          "indexed": true,
          "internalType": "address",
          "name": "to",
          "type": "address"
        },
        {
          "indexed": true,
          "internalType": "uint256",
          "name": "tokenId",
          "type": "uint256"
        }
      ],
      "name": "IssueWithSignature",
      "type": "event"
    },
    {
      "anonymous": false,
      "inputs": [
        {
          "indexed": true,
          "internalType": "address",
          "name": "previousOwner",
          "type": "address"
        },
        {
          "indexed": true,
          "internalType": "address",
          "name": "newOwner",
          "type": "address"
        }
      ],
      "name": "OwnershipTransferred",
      "type": "event"
    },
    {
      "anonymous": false,
      "inputs": [
        {
          "indexed": true,
          "internalType": "uint256",
          "name": "tokenId",
          "type": "uint256"
        },
        {
          "indexed": true,
          "internalType": "uint256",
          "name": "extension",
          "type": "uint256"
        }
      ],
      "name": "Redeemed",
      "type": "event"
    },
    {
      "anonymous": false,
      "inputs": [
        {
          "indexed": true,
          "internalType": "address",
          "name": "to",
          "type": "address"
        },
        {
          "indexed": true,
          "internalType": "uint256",
          "name": "tokenId",
          "type": "uint256"
        }
      ],
      "name": "Revoke",
      "type": "event"
    },
    {
      "anonymous": false,
      "inputs": [
        {
          "indexed": true,
          "internalType": "uint256",
          "name": "tokenId",
          "type": "uint256"
        }
      ],
      "name": "RevokeWithSignature",
      "type": "event"
    },
    {
      "anonymous": false,
      "inputs": [
        {
          "indexed": true,
          "internalType": "address",
          "name": "_address",
          "type": "address"
        }
      ],
      "name": "Signed",
      "type": "event"
    },
    {
      "anonymous": false,
      "inputs": [
        {
          "indexed": true,
          "internalType": "address",
          "name": "_address",
          "type": "address"
        }
      ],
      "name": "Verified",
      "type": "event"
    },
    {
      "anonymous": false,
      "inputs": [
        {
          "indexed": true,
          "internalType": "bytes32",
          "name": "addressHash",
          "type": "bytes32"
        },
        {
          "indexed": true,
          "internalType": "bool",
          "name": "result",
          "type": "bool"
        }
      ],
      "name": "VerifySignature",
      "type": "event"
    },
    {
      "inputs": [],
      "name": "_getBaseURI",
      "outputs": [
        {
          "internalType": "string",
          "name": "_baseURI",
          "type": "string"
        }
      ],
      "stateMutability": "view",
      "type": "function"
    },
    {
      "inputs": [
        {
          "internalType": "address",
          "name": "owner",
          "type": "address"
        }
      ],
      "name": "balanceOf",
      "outputs": [
        {
          "internalType": "uint256",
          "name": "",
          "type": "uint256"
        }
      ],
      "stateMutability": "view",
      "type": "function"
    },
    {
      "inputs": [
        {
          "internalType": "uint256",
          "name": "tokenId",
          "type": "uint256"
        }
      ],
      "name": "burn",
      "outputs": [],
      "stateMutability": "nonpayable",
      "type": "function"
    },
    {
      "inputs": [
        {
          "internalType": "uint256",
          "name": "tokenId",
          "type": "uint256"
        },
        {
          "internalType": "uint256",
          "name": "time",
          "type": "uint256"
        }
      ],
      "name": "extendExpiry",
      "outputs": [],
      "stateMutability": "nonpayable",
      "type": "function"
    },
    {
      "inputs": [
        {
          "internalType": "uint256",
          "name": "tokenId",
          "type": "uint256"
        }
      ],
      "name": "generateTokenURI",
      "outputs": [
        {
          "internalType": "string",
          "name": "_tokenURI",
          "type": "string"
        }
      ],
      "stateMutability": "view",
      "type": "function"
    },
    {
      "inputs": [],
      "name": "getAllowlistOwner",
      "outputs": [
        {
          "internalType": "address",
          "name": "",
          "type": "address"
        }
      ],
      "stateMutability": "view",
      "type": "function"
    },
    {
      "inputs": [
        {
          "internalType": "uint256",
          "name": "tokenId",
          "type": "uint256"
        }
      ],
      "name": "getExpiryDate",
      "outputs": [
        {
          "internalType": "uint256",
          "name": "",
          "type": "uint256"
        }
      ],
      "stateMutability": "view",
      "type": "function"
    },
    {
      "inputs": [],
      "name": "getIndividualTokenPrice",
      "outputs": [
        {
          "internalType": "uint256",
          "name": "_tokenPrice",
          "type": "uint256"
        }
      ],
      "stateMutability": "view",
      "type": "function"
    },
    {
      "inputs": [],
      "name": "getPriceLimit",
      "outputs": [
        {
          "internalType": "uint256",
          "name": "_priceLimit",
          "type": "uint256"
        }
      ],
      "stateMutability": "view",
      "type": "function"
    },
    {
      "inputs": [
        {
          "internalType": "uint256",
          "name": "tokenId",
          "type": "uint256"
        }
      ],
      "name": "getTimeLeft",
      "outputs": [
        {
          "internalType": "uint256",
          "name": "",
          "type": "uint256"
        }
      ],
      "stateMutability": "view",
      "type": "function"
    },
    {
      "inputs": [
        {
          "internalType": "address",
          "name": "_to",
          "type": "address"
        },
        {
          "internalType": "uint256",
          "name": "_tokenId",
          "type": "uint256"
        }
      ],
      "name": "isMinted",
      "outputs": [
        {
          "internalType": "bool",
          "name": "",
          "type": "bool"
        }
      ],
      "stateMutability": "view",
      "type": "function"
    },
    {
      "inputs": [
        {
          "internalType": "uint256",
          "name": "tokenId",
          "type": "uint256"
        }
      ],
      "name": "isValid",
      "outputs": [
        {
          "internalType": "bool",
          "name": "",
          "type": "bool"
        }
      ],
      "stateMutability": "view",
      "type": "function"
    },
    {
      "inputs": [
        {
          "internalType": "address",
          "name": "addr",
          "type": "address"
        },
        {
          "internalType": "bytes32",
          "name": "hash",
          "type": "bytes32"
        },
        {
          "internalType": "bytes",
          "name": "sig",
          "type": "bytes"
        },
        {
          "internalType": "uint256",
          "name": "tokenId",
          "type": "uint256"
        },
        {
          "internalType": "string",
          "name": "tokenURI",
          "type": "string"
        }
      ],
      "name": "issueWithSignature",
      "outputs": [],
      "stateMutability": "nonpayable",
      "type": "function"
    },
    {
      "inputs": [
        {
          "internalType": "address",
          "name": "_to",
          "type": "address"
        },
        {
          "internalType": "uint256",
          "name": "_tokenId",
          "type": "uint256"
        }
      ],
      "name": "issuerOf",
      "outputs": [
        {
          "internalType": "address",
          "name": "",
          "type": "address"
        }
      ],
      "stateMutability": "view",
      "type": "function"
    },
    {
      "inputs": [
        {
          "internalType": "address",
          "name": "from",
          "type": "address"
        },
        {
          "internalType": "address",
          "name": "to",
          "type": "address"
        },
        {
          "internalType": "uint256",
          "name": "tokenId",
          "type": "uint256"
        },
        {
          "internalType": "uint256",
          "name": "_tokenExpiryDate",
          "type": "uint256"
        }
      ],
      "name": "mintPendingRedeemableToken",
      "outputs": [],
      "stateMutability": "nonpayable",
      "type": "function"
    },
    {
      "inputs": [],
      "name": "name",
      "outputs": [
        {
          "internalType": "string",
          "name": "",
          "type": "string"
        }
      ],
      "stateMutability": "view",
      "type": "function"
    },
    {
      "inputs": [],
      "name": "owner",
      "outputs": [
        {
          "internalType": "address",
          "name": "",
          "type": "address"
        }
      ],
      "stateMutability": "view",
      "type": "function"
    },
    {
      "inputs": [
        {
          "internalType": "address",
          "name": "addr",
          "type": "address"
        },
        {
          "internalType": "bytes32",
          "name": "hash",
          "type": "bytes32"
        },
        {
          "internalType": "bytes",
          "name": "sig",
          "type": "bytes"
        },
        {
          "internalType": "uint256",
          "name": "tokenId",
          "type": "uint256"
        },
        {
          "internalType": "string",
          "name": "tokenURI",
          "type": "string"
        }
      ],
      "name": "ownerIssueWithSignature",
      "outputs": [],
      "stateMutability": "nonpayable",
      "type": "function"
    },
    {
      "inputs": [
        {
          "internalType": "uint256",
          "name": "tokenId",
          "type": "uint256"
        }
      ],
      "name": "ownerOf",
      "outputs": [
        {
          "internalType": "address",
          "name": "",
          "type": "address"
        }
      ],
      "stateMutability": "view",
      "type": "function"
    },
    {
      "inputs": [
        {
          "internalType": "bytes32",
          "name": "hash",
          "type": "bytes32"
        },
        {
          "internalType": "bytes",
          "name": "sig",
          "type": "bytes"
        },
        {
          "internalType": "uint256",
          "name": "tokenId",
          "type": "uint256"
        }
      ],
      "name": "ownerRevokeWithSignature",
      "outputs": [],
      "stateMutability": "nonpayable",
      "type": "function"
    },
    {
      "inputs": [
        {
          "internalType": "address",
          "name": "_receiver",
          "type": "address"
        },
        {
          "internalType": "uint256",
          "name": "tokenId",
          "type": "uint256"
        }
      ],
      "name": "payToReceiveToken",
      "outputs": [],
      "stateMutability": "payable",
      "type": "function"
    },
    {
      "inputs": [
        {
          "internalType": "address",
          "name": "_receiver",
          "type": "address"
        },
        {
          "internalType": "uint256",
          "name": "tokenId",
          "type": "uint256"
        },
        {
          "internalType": "uint256",
          "name": "_tokenExpiryDate",
          "type": "uint256"
        }
      ],
      "name": "redeemMintedToken",
      "outputs": [],
      "stateMutability": "payable",
      "type": "function"
    },
    {
      "inputs": [
        {
          "internalType": "address",
          "name": "_caller",
          "type": "address"
        },
        {
          "internalType": "address",
          "name": "_receiver",
          "type": "address"
        },
        {
          "internalType": "uint256",
          "name": "tokenId",
          "type": "uint256"
        },
        {
          "internalType": "uint256",
          "name": "_tokenExpiryDate",
          "type": "uint256"
        },
        {
          "internalType": "bytes32",
          "name": "hash",
          "type": "bytes32"
        },
        {
          "internalType": "bytes",
          "name": "sig",
          "type": "bytes"
        }
      ],
      "name": "redeemMintedTokenWithSignature",
      "outputs": [],
      "stateMutability": "payable",
      "type": "function"
    },
    {
      "inputs": [
        {
          "internalType": "address",
          "name": "_receiver",
          "type": "address"
        },
        {
          "internalType": "uint256",
          "name": "tokenId",
          "type": "uint256"
        },
        {
          "internalType": "uint256",
          "name": "_tokenExpiryDate",
          "type": "uint256"
        }
      ],
      "name": "redeemPendingToken",
      "outputs": [],
      "stateMutability": "payable",
      "type": "function"
    },
    {
      "inputs": [
        {
          "internalType": "address",
          "name": "_caller",
          "type": "address"
        },
        {
          "internalType": "address",
          "name": "_receiver",
          "type": "address"
        },
        {
          "internalType": "uint256",
          "name": "tokenId",
          "type": "uint256"
        },
        {
          "internalType": "uint256",
          "name": "_tokenExpiryDate",
          "type": "uint256"
        },
        {
          "internalType": "bytes32",
          "name": "hash",
          "type": "bytes32"
        },
        {
          "internalType": "bytes",
          "name": "sig",
          "type": "bytes"
        }
      ],
      "name": "redeemPendingTokenWithSignature",
      "outputs": [],
      "stateMutability": "payable",
      "type": "function"
    },
    {
      "inputs": [],
      "name": "renounceOwnership",
      "outputs": [],
      "stateMutability": "nonpayable",
      "type": "function"
    },
    {
      "inputs": [
        {
          "internalType": "bytes32",
          "name": "hash",
          "type": "bytes32"
        },
        {
          "internalType": "bytes",
          "name": "sig",
          "type": "bytes"
        },
        {
          "internalType": "uint256",
          "name": "tokenId",
          "type": "uint256"
        }
      ],
      "name": "revokeWithSignature",
      "outputs": [],
      "stateMutability": "nonpayable",
      "type": "function"
    },
    {
      "inputs": [
        {
          "internalType": "address",
          "name": "caller",
          "type": "address"
        },
        {
          "internalType": "string",
          "name": "_baseURI",
          "type": "string"
        }
      ],
      "name": "setBaseURI",
      "outputs": [],
      "stateMutability": "nonpayable",
      "type": "function"
    },
    {
      "inputs": [
        {
          "internalType": "address",
          "name": "caller",
          "type": "address"
        },
        {
          "internalType": "uint256",
          "name": "_price",
          "type": "uint256"
        }
      ],
      "name": "setPrice",
      "outputs": [],
      "stateMutability": "nonpayable",
      "type": "function"
    },
    {
      "inputs": [
        {
          "internalType": "bytes4",
          "name": "interfaceId",
          "type": "bytes4"
        }
      ],
      "name": "supportsInterface",
      "outputs": [
        {
          "internalType": "bool",
          "name": "",
          "type": "bool"
        }
      ],
      "stateMutability": "view",
      "type": "function"
    },
    {
      "inputs": [],
      "name": "symbol",
      "outputs": [
        {
          "internalType": "string",
          "name": "",
          "type": "string"
        }
      ],
      "stateMutability": "view",
      "type": "function"
    },
    {
      "inputs": [
        {
          "internalType": "uint256",
          "name": "tokenId",
          "type": "uint256"
        }
      ],
      "name": "tokenURI",
      "outputs": [
        {
          "internalType": "string",
          "name": "",
          "type": "string"
        }
      ],
      "stateMutability": "view",
      "type": "function"
    },
    {
      "inputs": [
        {
          "internalType": "address",
          "name": "newOwner",
          "type": "address"
        }
      ],
      "name": "transferOwnership",
      "outputs": [],
      "stateMutability": "nonpayable",
      "type": "function"
    },
    {
      "inputs": [
        {
          "internalType": "bytes32",
          "name": "hash",
          "type": "bytes32"
        },
        {
          "internalType": "bytes",
          "name": "sig",
          "type": "bytes"
        }
      ],
      "name": "verifySignature",
      "outputs": [
        {
          "internalType": "bool",
          "name": "",
          "type": "bool"
        }
      ],
      "stateMutability": "nonpayable",
      "type": "function"
    },
    {
      "inputs": [
        {
          "internalType": "address",
          "name": "_signer",
          "type": "address"
        },
        {
          "internalType": "bytes32",
          "name": "_hash",
          "type": "bytes32"
        },
        {
          "internalType": "bytes",
          "name": "_signature",
          "type": "bytes"
        }
      ],
      "name": "verifySigner",
      "outputs": [
        {
          "internalType": "bool",
          "name": "",
          "type": "bool"
        }
      ],
      "stateMutability": "pure",
      "type": "function"
    },
    {
      "inputs": [
        {
          "internalType": "address",
          "name": "_caller",
          "type": "address"
        }
      ],
      "name": "withdraw",
      "outputs": [],
      "stateMutability": "nonpayable",
      "type": "function"
    }
  ],
  "bytecode": "6080604052600f6012553480156200001657600080fd5b506040516200305b3803806200305b833981016040819052620000399162000306565b8585858583838383818484818181600190805190602001906200005e92919062000193565b5080516200007490600290602084019062000193565b505050620000916200008b6200013d60201b60201c565b62000141565b5050600980546001600160a01b0319166001600160a01b039290921691909117905580620000c657620f4240600a55620000cc565b600a8190555b505050505050505081811115620001295760405162461bcd60e51b815260206004820152601860248201527f507269636520686967686572207468616e206c696d69742e0000000000000000604482015260640160405180910390fd5b600e91909155600f5550620003ec92505050565b3390565b600680546001600160a01b038381166001600160a01b0319831681179093556040519116919082907f8be0079c531659141344cd1fd0a4f28419497f9722a3daafe3b4186f6b6457e090600090a35050565b828054620001a190620003af565b90600052602060002090601f016020900481019282620001c5576000855562000210565b82601f10620001e057805160ff191683800117855562000210565b8280016001018555821562000210579182015b8281111562000210578251825591602001919060010190620001f3565b506200021e92915062000222565b5090565b5b808211156200021e576000815560010162000223565b634e487b7160e01b600052604160045260246000fd5b600082601f8301126200026157600080fd5b81516001600160401b03808211156200027e576200027e62000239565b604051601f8301601f19908116603f01168101908282118183101715620002a957620002a962000239565b81604052838152602092508683858801011115620002c657600080fd5b600091505b83821015620002ea5785820183015181830184015290820190620002cb565b83821115620002fc5760008385830101525b9695505050505050565b60008060008060008060c087890312156200032057600080fd5b86516001600160401b03808211156200033857600080fd5b620003468a838b016200024f565b975060208901519150808211156200035d57600080fd5b506200036c89828a016200024f565b604089015190965090506001600160a01b03811681146200038c57600080fd5b80945050606087015192506080870151915060a087015190509295509295509295565b600181811c90821680620003c457607f821691505b60208210811415620003e657634e487b7160e01b600052602260045260246000fd5b50919050565b612c5f80620003fc6000396000f3fe60806040526004361061020e5760003560e01c806395d89b4111610118578063daca6f78116100a0578063ed7347301161006f578063ed73473014610601578063f2fde38b14610614578063f577a50014610634578063fad54de714610664578063fb8f198d1461067957600080fd5b8063daca6f7814610581578063e8c58763146105a1578063e92b0842146105c1578063ea5353c7146105e157600080fd5b8063bd97a6ad116100e7578063bd97a6ad146104ec578063c3cab38a1461050c578063c87b56dd1461052c578063c9dd94c71461054c578063c9e4c54d1461056157600080fd5b806395d89b411461049c578063983a8b94146104b1578063a0b97daa146104c4578063bd131786146104d957600080fd5b806351cff8d91161019b5780636e0a87461161016a5780636e0a87461461040b57806370a0823114610429578063715018a614610449578063884336511461045e5780638da5cb5b1461047e57600080fd5b806351cff8d9146103325780635899e7b2146103525780636352211e146103985780636833f200146103d057600080fd5b80631f04d135116101e25780631f04d135146102ac578063210fa96b146102cc57806333e085c1146102ec5780633d1a350e146102ff57806342966c681461031257600080fd5b8062e4768b1461021357806301ffc9a71461023557806306fdde031461026a57806308c92e571461028c575b600080fd5b34801561021f57600080fd5b5061023361022e36600461262b565b610699565b005b34801561024157600080fd5b50610255610250366004612655565b610746565b60405190151581526020015b60405180910390f35b34801561027657600080fd5b5061027f610798565b60405161026191906126af565b34801561029857600080fd5b506102336102a7366004612785565b61082a565b3480156102b857600080fd5b506102336102c7366004612785565b610960565b3480156102d857600080fd5b5061027f6102e73660046127d5565b6109da565b6102336102fa36600461262b565b610a59565b61023361030d3660046127ee565b610d4f565b34801561031e57600080fd5b5061023361032d3660046127d5565b61101f565b34801561033e57600080fd5b5061023361034d366004612821565b611094565b34801561035e57600080fd5b5061025561036d36600461262b565b6001600160a01b03919091166000908152600860209081526040808320938352929052205460ff1690565b3480156103a457600080fd5b506103b86103b33660046127d5565b6111c8565b6040516001600160a01b039091168152602001610261565b3480156103dc57600080fd5b506103fd6103eb3660046127d5565b60009081526020819052604090205490565b604051908152602001610261565b34801561041757600080fd5b506009546001600160a01b03166103b8565b34801561043557600080fd5b506103fd610444366004612821565b61122d565b34801561045557600080fd5b506102336112b6565b34801561046a57600080fd5b5061023361047936600461283c565b6112ca565b34801561048a57600080fd5b506006546001600160a01b03166103b8565b3480156104a857600080fd5b5061027f61131e565b6102336104bf36600461288a565b61132d565b3480156104d057600080fd5b50600e546103fd565b6102336104e736600461288a565b611403565b3480156104f857600080fd5b50610233610507366004612904565b6114c6565b34801561051857600080fd5b50610233610527366004612946565b611698565b34801561053857600080fd5b5061027f6105473660046127d5565b6116f0565b34801561055857600080fd5b5061027f6117e5565b34801561056d57600080fd5b5061023361057c366004612968565b611841565b34801561058d57600080fd5b5061025561059c3660046129f0565b61194e565b3480156105ad57600080fd5b506103fd6105bc3660046127d5565b611961565b3480156105cd57600080fd5b506102556105dc366004612a21565b61199e565b3480156105ed57600080fd5b506102336105fc366004612968565b611a32565b61023361060f3660046127ee565b611a8f565b34801561062057600080fd5b5061023361062f366004612821565b611c19565b34801561064057600080fd5b5061025561064f3660046127d5565b60009081526020819052604090205442111590565b34801561067057600080fd5b50600f546103fd565b34801561068557600080fd5b506103b861069436600461262b565b611c8f565b6106a1611da3565b816106b46009546001600160a01b031690565b6001600160a01b0316816001600160a01b0316146106ed5760405162461bcd60e51b81526004016106e490612a78565b60405180910390fd5b600e5482111561073f5760405162461bcd60e51b815260206004820152601860248201527f507269636520686967686572207468616e206c696d69742e000000000000000060448201526064016106e4565b50600f5550565b60006001600160e01b03198216635b5e139f60e01b148061077757506001600160e01b03198216635164cf4760e01b145b8061079257506301ffc9a760e01b6001600160e01b03198316145b92915050565b6060600180546107a790612aa6565b80601f01602080910402602001604051908101604052809291908181526020018280546107d390612aa6565b80156108205780601f106107f557610100808354040283529160200191610820565b820191906000526020600020905b81548152906001019060200180831161080357829003601f168201915b5050505050905090565b61083381611dfd565b61087f5760405162461bcd60e51b815260206004820152601b60248201527f5265766f6b65206f6620696e6578697374656e7420746f6b656e2e000000000060448201526064016106e4565b81516041146108cb5760405162461bcd60e51b8152602060048201526018602482015277092dcecc2d8d2c840e6d2cedcc2e8eae4ca40d8cadccee8d60431b60448201526064016106e4565b6108d5838361194e565b61091d5760405162461bcd60e51b81526020600482015260196024820152782430b9b4103737ba1039b4b3b732b210313c9037bbb732b91760391b60448201526064016106e4565b61092f610929826111c8565b82611e1a565b5060405181907ff947bf2266afede98f27ad2312db8b2a17921852307f979b6f14a2b41fa774bc90600090a2505050565b610968611da3565b600b541561098a57600b805490600061098083612af7565b91905055506109ca565b60405162461bcd60e51b81526020600482015260156024820152742637bbb2b9ba103634b6b4ba103932b0b1b432b21760591b60448201526064016106e4565b6109d583838361082a565b505050565b60606109e46117e5565b51610a215760405162461bcd60e51b815260206004820152600d60248201526c456d707479206261736555524960981b60448201526064016106e4565b610a296117e5565b610a3283611ee2565b604051602001610a43929190612b0e565b6040516020818303038152906040529050919050565b610a61611da3565b60135460ff1615610a7157600080fd5b6013805460ff191660011790556001600160a01b038216610aa45760405162461bcd60e51b81526004016106e490612b3d565b610aad81611dfd565b15610afa5760405162461bcd60e51b815260206004820152601f60248201527f4d696e74206f6620616c7265616479206578697374696e6720746f6b656e2e0060448201526064016106e4565b60008181526010602052604090205460ff16610b525760405162461bcd60e51b815260206004820152601760248201527620b63932b0b23c903932b1b2b4bb32b2103a37b5b2b71760491b60448201526064016106e4565b6000818152601160205260409020546001600160a01b03838116911614610bb35760405162461bcd60e51b81526020600482015260156024820152742737ba103832b73234b733903932b1b2b4bb32b91760591b60448201526064016106e4565b600081815260208190526040902054421115610c225760405162461bcd60e51b815260206004820152602860248201527f526563656976616c206f66206578706972656420746f6b656e2c20726564656560448201526736903a37b5b2b71760c11b60648201526084016106e4565b600f54341015610c745760405162461bcd60e51b815260206004820152601c60248201527f5072696365206c6f776572207468616e20746f6b656e20636f73742e0000000060448201526064016106e4565b6000600f54341115610cc857600f54610c8d9034612b6c565b6040519091506001600160a01b0384169082156108fc029083906000818181858888f19350505050158015610cc6573d6000803e3d6000fd5b505b6000610cd3836109da565b9050610ce0848483611fe8565b50600c8054906000610cf183612b83565b9190505550600f54600d6000828254610d0a9190612b9e565b909155505050600091825250601060209081526040808320805460ff19908116909155601190925290912080546001600160a01b031916905560138054909116905550565b610d57611da3565b60135460ff1615610d6757600080fd5b6013805460ff191660011790556001600160a01b038316610dca5760405162461bcd60e51b815260206004820152601b60248201527f526564656d7074696f6e20746f207a65726f20616464726573732e000000000060448201526064016106e4565b610dd382611dfd565b610e295760405162461bcd60e51b815260206004820152602160248201527f526564656d7074696f6e206f66206e6f6e2d6578697374696e6720746f6b656e6044820152601760f91b60648201526084016106e4565b60008281526010602052604090205460ff1615610e7f5760405162461bcd60e51b81526020600482015260146024820152732a37b5b2b71039ba34b636103832b73234b7339760611b60448201526064016106e4565b826001600160a01b0316610e92836111c8565b6001600160a01b031614610edb5760405162461bcd60e51b815260206004820152601060248201526f2737ba103a37b5b2b71037bbb732b91760811b60448201526064016106e4565b6000828152602081905260409020544211610f2b5760405162461bcd60e51b815260206004820152601060248201526f2a37b5b2b7103ab732bc3834b932b21760811b60448201526064016106e4565b6000610f38601254611fff565b905080341015610f8a5760405162461bcd60e51b815260206004820181905260248201527f5072696365206c6f776572207468616e20726564656d7074696f6e207461782e60448201526064016106e4565b60008115610fd757610f9c8234612b6c565b6040519091506001600160a01b0386169082156108fc029083906000818181858888f19350505050158015610fd5573d6000803e3d6000fd5b505b610fe18484611698565b604051839085907f6f73b7b8d37df32ea60a45eadc8fc3d2d716d705ee099bd506817482ce84731690600090a350506013805460ff19169055505050565b611028816111c8565b6001600160a01b0316336001600160a01b0316146110885760405162461bcd60e51b815260206004820152601a60248201527f6275726e3a2073656e646572206d757374206265206f776e657200000000000060448201526064016106e4565b6110918161203b565b50565b61109c611da3565b806110af6009546001600160a01b031690565b6001600160a01b0316816001600160a01b0316146110df5760405162461bcd60e51b81526004016106e490612a78565b6001600160a01b0382166111355760405162461bcd60e51b815260206004820152601860248201527f53656e64696e6720746f207a65726f20616464726573732e000000000000000060448201526064016106e4565b600d544710156111875760405162461bcd60e51b815260206004820152601c60248201527f526576656e756520213d20436f6e74726163742062616c616e63652e0000000060448201526064016106e4565b600d546040516001600160a01b0384169180156108fc02916000818181858888f193505050501580156111be573d6000803e3d6000fd5b50506000600d5550565b6000818152600360205260408120546001600160a01b0316806107925760405162461bcd60e51b815260206004820152601c60248201527f6f776e65724f663a20746f6b656e20646f65736e27742065786973740000000060448201526064016106e4565b60006001600160a01b03821661129a5760405162461bcd60e51b815260206004820152602c60248201527f62616c616e63654f663a2061646472657373207a65726f206973206e6f74206160448201526b103b30b634b21037bbb732b960a11b60648201526084016106e4565b506001600160a01b031660009081526005602052604090205490565b6112be611da3565b6112c860006120e2565b565b6112d2611da3565b816112e56009546001600160a01b031690565b6001600160a01b0316816001600160a01b0316146113155760405162461bcd60e51b81526004016106e490612a78565b6109d582612134565b6060600280546107a790612aa6565b611335611da3565b856113486009546001600160a01b031690565b6001600160a01b0316816001600160a01b0316146113785760405162461bcd60e51b81526004016106e490612a78565b60135460ff161561138857600080fd5b6013805460ff1916600117905561139f838361194e565b6113e55760405162461bcd60e51b81526020600482015260176024820152762430b9b4103737ba1039b4b3b732b210313c903cb7ba9760491b60448201526064016106e4565b6113f0868686610d4f565b50506013805460ff191690555050505050565b61140b611da3565b8561141e6009546001600160a01b031690565b6001600160a01b0316816001600160a01b03161461144e5760405162461bcd60e51b81526004016106e490612a78565b60135460ff161561145e57600080fd5b6013805460ff19166001179055611475838361194e565b6114bb5760405162461bcd60e51b81526020600482015260176024820152762430b9b4103737ba1039b4b3b732b210313c903cb7ba9760491b60448201526064016106e4565b6113f0868686611a8f565b6114ce611da3565b836114e16009546001600160a01b031690565b6001600160a01b0316816001600160a01b0316146115115760405162461bcd60e51b81526004016106e490612a78565b600a54600b54106115595760405162461bcd60e51b815260206004820152601260248201527124b9b9bab29021b0b8102932b0b1b432b21760711b60448201526064016106e4565b6001600160a01b03841661157f5760405162461bcd60e51b81526004016106e490612b3d565b61158883611dfd565b156115d55760405162461bcd60e51b815260206004820152601f60248201527f4d696e74206f6620616c7265616479206578697374696e6720746f6b656e2e0060448201526064016106e4565b60008381526010602052604090205460ff16156116345760405162461bcd60e51b815260206004820152601e60248201527f4d696e74206f6620616c72656164792070656e64696e6720746f6b656e2e000060448201526064016106e4565b6000838152601060209081526040808320805460ff191660011790556011909152902080546001600160a01b0386166001600160a01b031990911617905561167c8383611698565b600b805490600061168c83612b83565b91905055505050505050565b6116a28142612b9e565b600083815260208181526040918290209290925580518481529182018390527f41a73beb1018a8b63e0f451a8a4f483806142cf14be45b1a58a23776a1e9b4bc910160405180910390a15050565b60606116fb82611dfd565b6117475760405162461bcd60e51b815260206004820152601d60248201527f746f6b656e5552493a20746f6b656e20646f65736e277420657869737400000060448201526064016106e4565b6000828152600460205260409020805461176090612aa6565b80601f016020809104026020016040519081016040528092919081815260200182805461178c90612aa6565b80156117d95780601f106117ae576101008083540402835291602001916117d9565b820191906000526020600020905b8154815290600101906020018083116117bc57829003601f168201915b50505050509050919050565b6060600780546117f490612aa6565b151590506118345760405162461bcd60e51b815260206004820152600d60248201526c456d707479206261736555524960981b60448201526064016106e4565b600780546107a790612aa6565b6001600160a01b0385166118675760405162461bcd60e51b81526004016106e490612b3d565b82516041146118b35760405162461bcd60e51b8152602060048201526018602482015277092dcecc2d8d2c840e6d2cedcc2e8eae4ca40d8cadccee8d60431b60448201526064016106e4565b6118bd848461194e565b6119055760405162461bcd60e51b81526020600482015260196024820152782430b9b4103737ba1039b4b3b732b210313c9037bbb732b91760391b60448201526064016106e4565b611910858383611fe8565b5060405182906001600160a01b038716907f79af0e59b31823dd289ceebabc4d63d25f35926b8548e3a084a500c9d4e1855690600090a35050505050565b600061195a838361218a565b9392505050565b60008181526020819052604081205442111561197f57506000919050565b600082815260208190526040902054610792904290612b6c565b919050565b602081810151604080840151606080860151835160008082528188018087528a905291821a81860181905292810186905260808101849052935190959293919260019260a080820193601f1981019281900390910190855afa158015611a08573d6000803e3d6000fd5b505050602060405103516001600160a01b0316876001600160a01b03161493505050509392505050565b611a3a611da3565b600a54600b5410611a825760405162461bcd60e51b815260206004820152601260248201527124b9b9bab29021b0b8102932b0b1b432b21760711b60448201526064016106e4565b61167c8585858585611841565b611a97611da3565b60135460ff1615611aa757600080fd5b6013805460ff191660011790556001600160a01b038316611b0a5760405162461bcd60e51b815260206004820152601b60248201527f526564656d7074696f6e20746f207a65726f20616464726573732e000000000060448201526064016106e4565b611b1382611dfd565b15611b605760405162461bcd60e51b815260206004820152601d60248201527f526564656d7074696f6e206f66206578697374696e6720746f6b656e2e00000060448201526064016106e4565b60008281526010602052604090205460ff16611bb85760405162461bcd60e51b815260206004820152601760248201527620b63932b0b23c903932b1b2b4bb32b2103a37b5b2b71760491b60448201526064016106e4565b6000828152601160205260409020546001600160a01b03848116911614610edb5760405162461bcd60e51b81526020600482015260156024820152742737ba103832b73234b733903932b1b2b4bb32b91760591b60448201526064016106e4565b611c21611da3565b6001600160a01b038116611c865760405162461bcd60e51b815260206004820152602660248201527f4f776e61626c653a206e6577206f776e657220697320746865207a65726f206160448201526564647265737360d01b60648201526084016106e4565b611091816120e2565b60006001600160a01b038316611ce75760405162461bcd60e51b815260206004820152601760248201527f517565727920666f72207a65726f20616464726573732e00000000000000000060448201526064016106e4565b611cf082611dfd565b611d325760405162461bcd60e51b81526020600482015260136024820152722737b716b2bc34b9ba32b73a103a37b5b2b71760691b60448201526064016106e4565b826001600160a01b0316611d45836111c8565b6001600160a01b031614611d9b5760405162461bcd60e51b815260206004820152601a60248201527f546f6b656e206e6f74206f776e6564206279206164647265737300000000000060448201526064016106e4565b503092915050565b6006546001600160a01b031633146112c85760405162461bcd60e51b815260206004820181905260248201527f4f776e61626c653a2063616c6c6572206973206e6f7420746865206f776e657260448201526064016106e4565b6000908152600360205260409020546001600160a01b0316151590565b6000611e2582611dfd565b611e675760405162461bcd60e51b81526020600482015260136024820152722737b716b2bc34b9ba32b73a103a37b5b2b71760691b60448201526064016106e4565b826001600160a01b0316611e7a836111c8565b6001600160a01b031614611ed05760405162461bcd60e51b815260206004820152601a60248201527f546f6b656e206e6f74206f776e6564206279206164647265737300000000000060448201526064016106e4565b611ed98261230d565b50600192915050565b606081611f065750506040805180820190915260018152600360fc1b602082015290565b8160005b8115611f305780611f1a81612b83565b9150611f299050600a83612bcc565b9150611f0a565b60008167ffffffffffffffff811115611f4b57611f4b6126e2565b6040519080825280601f01601f191660200182016040528015611f75576020820181803683370190505b5090505b8415611fe057611f8a600183612b6c565b9150611f97600a86612be0565b611fa2906030612b9e565b60f81b818381518110611fb757611fb7612bf4565b60200101906001600160f81b031916908160001a905350611fd9600a86612bcc565b9450611f79565b949350505050565b6000611ff58484846123a3565b5060019392505050565b600064746a528800600d54101561201557600091505b6103e8600d54836120269190612c0a565b61203190600a612c0a565b6107929190612bcc565b6000612046826111c8565b6001600160a01b03811660009081526005602052604081208054929350600192909190612074908490612b6c565b9091555050600082815260036020908152604080832080546001600160a01b0319169055600490915281206120a891612541565b60405182906001600160a01b038316907fec9ab91322523c899ede7830ec9bfc992b5981cdcc27b91162fb23de5791117b90600090a35050565b600680546001600160a01b038381166001600160a01b0319831681179093556040519116919082907f8be0079c531659141344cd1fd0a4f28419497f9722a3daafe3b4186f6b6457e090600090a35050565b80516121735760405162461bcd60e51b815260206004820152600e60248201526d092dcecc2d8d2c840d8cadccee8d60931b60448201526064016106e4565b805161218690600790602084019061257b565b5050565b6000612194611da3565b6006546001600160a01b031633146122025760405162461bcd60e51b815260206004820152602b60248201527f4552433732313a3a2043616c6c20746f20636f6e7472616374206d616465206260448201526a3c903737b716b7bbb732b960a91b60648201526084016106e4565b81516041146122535760405162461bcd60e51b815260206004820152601e60248201527f4572723a3a20496e76616c6964207369676e6174757265206c656e677468000060448201526064016106e4565b602082810151604080850151606080870151835160008082529681018086528a905290861a938101849052908101849052608081018290529293909260019060a0016020604051602081039080840390855afa1580156122b7573d6000803e3d6000fd5b5050604051601f198101516009549093506001600160a01b038085169116149150819089907f7e4fe2a2a805a357593fdbdde58c02f6a53d8b4960744cd31a98697fc11c2e3690600090a3979650505050505050565b61231681611dfd565b6123625760405162461bcd60e51b815260206004820152601860248201527f4275726e206f6620696e6578697374656e7420746f6b656e000000000000000060448201526064016106e4565b600061236d826111c8565b90506123788261203b565b6001600160a01b0316600090815260086020908152604080832093835292905220805460ff19169055565b6001600160a01b0383166123c95760405162461bcd60e51b81526004016106e490612b3d565b80516124095760405162461bcd60e51b815260206004820152600f60248201526e22b6b83a3c903a37b5b2b72aa9249760891b60448201526064016106e4565b612414838383612446565b50506001600160a01b03909116600090815260086020908152604080832093835292905220805460ff19166001179055565b600061245183611dfd565b156124955760405162461bcd60e51b81526020600482015260146024820152736d696e743a20746f6b656e49442065786973747360601b60448201526064016106e4565b6001600160a01b03841660009081526005602052604081208054600192906124be908490612b9e565b9091555050600083815260036020908152604080832080546001600160a01b0319166001600160a01b0389161790556004825290912083516125029285019061257b565b5060405183906001600160a01b038616907fe9274a84b19e9428826de6bae8c48329354f8f0e73f771b97cae2d9dccd45a2790600090a3509092915050565b50805461254d90612aa6565b6000825580601f1061255d575050565b601f01602090049060005260206000209081019061109191906125ff565b82805461258790612aa6565b90600052602060002090601f0160209004810192826125a957600085556125ef565b82601f106125c257805160ff19168380011785556125ef565b828001600101855582156125ef579182015b828111156125ef5782518255916020019190600101906125d4565b506125fb9291506125ff565b5090565b5b808211156125fb5760008155600101612600565b80356001600160a01b038116811461199957600080fd5b6000806040838503121561263e57600080fd5b61264783612614565b946020939093013593505050565b60006020828403121561266757600080fd5b81356001600160e01b03198116811461195a57600080fd5b60005b8381101561269a578181015183820152602001612682565b838111156126a9576000848401525b50505050565b60208152600082518060208401526126ce81604085016020870161267f565b601f01601f19169190910160400192915050565b634e487b7160e01b600052604160045260246000fd5b600082601f83011261270957600080fd5b813567ffffffffffffffff80821115612724576127246126e2565b604051601f8301601f19908116603f0116810190828211818310171561274c5761274c6126e2565b8160405283815286602085880101111561276557600080fd5b836020870160208301376000602085830101528094505050505092915050565b60008060006060848603121561279a57600080fd5b83359250602084013567ffffffffffffffff8111156127b857600080fd5b6127c4868287016126f8565b925050604084013590509250925092565b6000602082840312156127e757600080fd5b5035919050565b60008060006060848603121561280357600080fd5b61280c84612614565b95602085013595506040909401359392505050565b60006020828403121561283357600080fd5b61195a82612614565b6000806040838503121561284f57600080fd5b61285883612614565b9150602083013567ffffffffffffffff81111561287457600080fd5b612880858286016126f8565b9150509250929050565b60008060008060008060c087890312156128a357600080fd5b6128ac87612614565b95506128ba60208801612614565b945060408701359350606087013592506080870135915060a087013567ffffffffffffffff8111156128eb57600080fd5b6128f789828a016126f8565b9150509295509295509295565b6000806000806080858703121561291a57600080fd5b61292385612614565b935061293160208601612614565b93969395505050506040820135916060013590565b6000806040838503121561295957600080fd5b50508035926020909101359150565b600080600080600060a0868803121561298057600080fd5b61298986612614565b945060208601359350604086013567ffffffffffffffff808211156129ad57600080fd5b6129b989838a016126f8565b94506060880135935060808801359150808211156129d657600080fd5b506129e3888289016126f8565b9150509295509295909350565b60008060408385031215612a0357600080fd5b82359150602083013567ffffffffffffffff81111561287457600080fd5b600080600060608486031215612a3657600080fd5b612a3f84612614565b925060208401359150604084013567ffffffffffffffff811115612a6257600080fd5b612a6e868287016126f8565b9150509250925092565b6020808252601490820152734e6f7420416c6c6f776c697374204f776e65722160601b604082015260600190565b600181811c90821680612aba57607f821691505b60208210811415612adb57634e487b7160e01b600052602260045260246000fd5b50919050565b634e487b7160e01b600052601160045260246000fd5b600081612b0657612b06612ae1565b506000190190565b60008351612b2081846020880161267f565b835190830190612b3481836020880161267f565b01949350505050565b60208082526015908201527426b4b73a103a37903d32b9379030b2323932b9b99760591b604082015260600190565b600082821015612b7e57612b7e612ae1565b500390565b6000600019821415612b9757612b97612ae1565b5060010190565b60008219821115612bb157612bb1612ae1565b500190565b634e487b7160e01b600052601260045260246000fd5b600082612bdb57612bdb612bb6565b500490565b600082612bef57612bef612bb6565b500690565b634e487b7160e01b600052603260045260246000fd5b6000816000190483118215151615612c2457612c24612ae1565b50029056fea2646970667358221220dacd93a7d5ddc4fa23e4a42660b9aa01e131681603ece4b2f2935b04e058f6a664736f6c634300080c0033",
  "bytecodeSha1": "3cb2a9aa09c00f128e439d4cf9a27dc12e4244a5",
  "compiler": {
    "evm_version": "istanbul",
    "optimizer": {
      "enabled": true,
      "runs": 200
    },
    "version": "0.8.12+commit.f00d7308"
  },
  "contractName": "SoulboundRedeemable",
  "language": "Solidity",
  "natspec": {
    "author": "Daccred.",
    "details": "An instance of the Soulbound token with capped supply       and tokens having their own individual expiry date.       Tokens are minted to and are pendng until receivers       pay to receive their complete token.",
    "errors": {
      "Unsigned(address)": [
        {
          "details": "Thrown when the address passed to the verify function is not signed."
        }
      ]
    },
    "kind": "dev",
    "methods": {
      "_getBaseURI()": {
        "details": "Returns already set baseURI if it exists.",
        "notice": "Callable by anyone.",
        "returns": {
          "_baseURI": "baseURI set."
        }
      },
      "balanceOf(address)": {
        "details": "ABTs assigned to the zero address are considered invalid, and this  function throws for queries about the zero address.",
        "notice": "Count all ABTs assigned to an owner",
        "params": {
          "owner": "An address for whom to query the balance"
        },
        "returns": {
          "_0": "The number of ABTs owned by `owner`, possibly zero"
        }
      },
      "burn(uint256)": {
        "details": "Must emit a `event Revoke` with the `address to` field pointing to  the zero address.",
        "notice": "Destroys `tokenId`. At any time, an ABT receiver must be able to  disassociate themselves from an ABT publicly through calling this  function.",
        "params": {
          "tokenId": "The identifier for an ABT"
        }
      },
      "constructor": {
        "details": "Deploy the SoulboundWithSignature with set         total supply, priceLimit and price of an individual token."
      },
      "extendExpiry(uint256,uint256)": {
        "details": "On every successful redemption or mint of token the       expiry of the token is extended by the duration passed       in the contract.       This should be called on expired tokens.",
        "notice": "This function is expected to be called by the           SoulboundRedeemable on every mint.",
        "params": {
          "time": "Length of time to extend it with.",
          "tokenId": "Token to extend its expiry."
        }
      },
      "generateTokenURI(uint256)": {
        "details": "Using the `tokenId` passed, it generates a `stringified` tokenURI,       packing the baseURI and the current tokenId.       Makes use of OpenZeppelin's uint to string function.",
        "notice": "Callable by anyone.",
        "params": {
          "tokenId": "ID of token whose tokenURI is desired."
        },
        "returns": {
          "_tokenURI": "TokenURI of the passed tokenId."
        }
      },
      "getAllowlistOwner()": {
        "details": "Return the allowlistOwner.",
        "notice": "Callable by anyone.",
        "returns": {
          "_0": "address of allowlistOwner."
        }
      },
      "getExpiryDate(uint256)": {
        "details": "Returns the expiry date of `tokenId`.",
        "notice": "Callable by anyone.",
        "params": {
          "tokenId": "Token to get its expiry."
        },
        "returns": {
          "_0": "time of expiry."
        }
      },
      "getIndividualTokenPrice()": {
        "details": "Return the price of one token, set by the deployer.",
        "notice": "Callable by anyone.",
        "returns": {
          "_tokenPrice": "Price of a single token."
        }
      },
      "getPriceLimit()": {
        "details": "Return the highest possible price for a token.",
        "notice": "Callable by anyone.",
        "returns": {
          "_priceLimit": "Highest possible price."
        }
      },
      "getTimeLeft(uint256)": {
        "details": "Returns the time left for a token to expire.",
        "notice": "Callable by anyone.",
        "params": {
          "tokenId": "Token to get its expiry."
        },
        "returns": {
          "_0": "time left till expiry."
        }
      },
      "isMinted(address,uint256)": {
        "details": "Returns true if token `_tokenId` was minted from this contract to `_to`.       `_to` must not be a 0 address.       `_tokenId` must be an existent token.",
        "notice": "Callable by anyone.",
        "params": {
          "_to": "Address to which token `_tokenId` is minted.",
          "_tokenId": "Token minted."
        },
        "returns": {
          "_0": "bool true or false."
        }
      },
      "isValid(uint256)": {
        "details": "Return true if the token is expired or false if otherwise.",
        "notice": "Callable by anyone.",
        "params": {
          "tokenId": "Token to check if expired."
        },
        "returns": {
          "_0": "bool true or false."
        }
      },
      "issueWithSignature(address,bytes32,bytes,uint256,string)": {
        "details": "Mints a particular quantity of tokens to `to`,        on the condition that the address has been        signed by the allowlistOwner off-chain.       This will emit the {MintSoulboundToken} event       from the Soulbound.sol.",
        "notice": "Callable by anyone.",
        "params": {
          "addr": "Address to mint tokens to.",
          "hash": "Hashed message by the allowlistOwner.",
          "sig": "Signature, signed by the allowlistOwner.",
          "tokenId": "Id of the tokens to mint to the `addr`.",
          "tokenURI": "URI of the token to be minted."
        }
      },
      "issuerOf(address,uint256)": {
        "details": "Since a token cannnot be minted twice.       This function returns the address that minted token `_tokenId` to `_to`,       otherwise this contract.       `_to` must not be a 0 address.       `_tokenId` must be an existent token.       Owner of _tokenId must be _to.",
        "notice": "Callable by anyone.",
        "params": {
          "_to": "Address to which token `_tokenId` is minted.",
          "_tokenId": "Token minted."
        },
        "returns": {
          "_0": "address of issuer."
        }
      },
      "mintPendingRedeemableToken(address,address,uint256,uint256)": {
        "details": "Mints a pending soulbound token to `to`.       Pending tokens are minted and the receiver pays       to receive and completely mint them.",
        "notice": "Callable by the deployer of this contract [DaccredDeployer]           and the allowlistOwner.",
        "params": {
          "_tokenExpiryDate": "Set expiry date from the deployer.",
          "from": "Allowlist owner.",
          "to": "Receiver.",
          "tokenId": "Id of token to be minted."
        }
      },
      "owner()": {
        "details": "Returns the address of the current owner."
      },
      "ownerIssueWithSignature(address,bytes32,bytes,uint256,string)": {
        "details": "Ref SoulboundCore.sol issueWithSignature       This function grants the access to only the       deployer of the contract, unlike the core       that allows the function for anyone who has a       signature signed by the allowlistOwner.       This contract can be called by the deployer of the       contract [DaccredDeployer] but is also protected       as to the allowlistOwner must be the signer of the `sig.`",
        "notice": "Callable by the deployer of this contract [DaccredDeployer].",
        "params": {
          "addr": "Address to be minted to.",
          "hash": "Hash of message signed.",
          "sig": "Signature.",
          "tokenId": "TokenId to be issued.",
          "tokenURI": "URI of token to be issued."
        }
      },
      "ownerOf(uint256)": {
        "details": "ABTs assigned to zero address are considered invalid, and queries  about them do throw.",
        "notice": "Find the address bound to an ERC4973 account-bound token",
        "params": {
          "tokenId": "The identifier for an ABT"
        },
        "returns": {
          "_0": "The address of the owner bound to the ABT"
        }
      },
      "ownerRevokeWithSignature(bytes32,bytes,uint256)": {
        "details": "Ref SoulboundCore.sol revokeWithSignature       This function grants the access to only the       deployer of the contract, unlike the core       that allows the function for anyone who has a       signature signed by the allowlistOwner.       This contract can be called by the deployer of the       contract [DaccredDeployer] but is also protected       as to the allowlistOwner must be the signer of the `sig.`",
        "notice": "Callable by the deployer of this contract [DaccredDeployer].",
        "params": {
          "hash": "Hash of message signed.",
          "sig": "Signature.",
          "tokenId": "TokenId to be issued."
        }
      },
      "payToReceiveToken(address,uint256)": {
        "details": "Allows the `_receiver` to pay the price of one token to        fully mint the pending token.",
        "notice": "Callable by the deployer of this contract [DaccredDeployer].",
        "params": {
          "_receiver": "Receiver of the token.",
          "tokenId": "Pending tokenId for the receiver."
        }
      },
      "redeemMintedToken(address,uint256,uint256)": {
        "details": "For expired minted tokens, this function redeems them and makes       valid for another period of time.       Tokens must be expired for it to be redeemed.       Emits the {Redeemed} event.",
        "notice": "Callable by the deployer of this contract [DaccredDeployer].",
        "params": {
          "_receiver": "Receiver of the token.",
          "_tokenExpiryDate": "New expiry date for tokens.",
          "tokenId": "Pending tokenId for the receiver."
        }
      },
      "redeemMintedTokenWithSignature(address,address,uint256,uint256,bytes32,bytes)": {
        "details": "Allows the allowlistOwner to redeem an expired minted        token on behalf of the tokenOwner.",
        "notice": "Callable by the deployer of this contract [DaccredDeployer]           and the allowlistOwner.",
        "params": {
          "_caller": "Allowlist owner.",
          "_receiver": "Address of receiver.",
          "_tokenExpiryDate": "Days to extend the token.",
          "hash": "Hash of message.",
          "sig": "Signature.",
          "tokenId": "TokenId."
        }
      },
      "redeemPendingToken(address,uint256,uint256)": {
        "details": "For expired pending tokens, this function redeems them and makes       valid for another period of time.       Tokens must be expired for it to be redeemed.       Emits the {Redeemed} event.",
        "notice": "Callable by the deployer of this contract [DaccredDeployer].",
        "params": {
          "_receiver": "Receiver of the token.",
          "_tokenExpiryDate": "New expiry date for tokens.",
          "tokenId": "Pending tokenId for the receiver."
        }
      },
      "redeemPendingTokenWithSignature(address,address,uint256,uint256,bytes32,bytes)": {
        "details": "Allows the allowlistOwner to redeem an expired pending        token on behalf of the tokenOwner.",
        "notice": "Callable by the deployer of this contract [DaccredDeployer]           and the allowlistOwner.",
        "params": {
          "_caller": "Allowlist owner.",
          "_receiver": "Address of receiver.",
          "_tokenExpiryDate": "Days to extend the token.",
          "hash": "Hash of message.",
          "sig": "Signature.",
          "tokenId": "TokenId."
        }
      },
      "renounceOwnership()": {
        "details": "Leaves the contract without owner. It will not be possible to call       `onlyOwner` functions anymore. Can only be called by the current owner.       NOTE: Renouncing ownership will leave the contract without an owner,       thereby removing any functionality that is only available to the owner."
      },
      "revokeWithSignature(bytes32,bytes,uint256)": {
        "details": "Revokes the ownership of `tokenId` from the owner.       The token must exist and the signature must be signed the       allowlistOwner.       This emits the {RevokeWithSignature} event.",
        "notice": "Callable by anyone.",
        "params": {
          "hash": "Hashed message by the allowlistOwner.",
          "sig": "Signature, signed by the allowlistOwner.",
          "tokenId": "Id of the token to revoke."
        }
      },
      "setBaseURI(address,string)": {
        "details": "Allows the `caller` (allowlistOwner) to set the baseURI.       This is really important when the caller wants to mint       Multiple tokens with the same base URI.",
        "notice": "Callable by the deployer of this contract [DaccredDeployer]           and the allowlistOwner."
      },
      "setPrice(address,uint256)": {
        "details": "Allows `caller` to set `_price` as price of one token.",
        "notice": "Callable by the deployer of this contract [DaccredDeployer]           and the allowlistOwner.",
        "params": {
          "_price": "New price.",
          "caller": "AllowlistOwner."
        }
      },
      "supportsInterface(bytes4)": {
        "details": "See {IERC165-supportsInterface}."
      },
      "transferOwnership(address)": {
        "details": "Transfers ownership of the contract to a new account (`newOwner`).       Can only be called by the current owner."
      },
      "verifySignature(bytes32,bytes)": {
        "details": "Returns true if the signer of signature `sig` is the `allowlistOwner`.       And false if otherwise.",
        "notice": "Callable by anyone.",
        "returns": {
          "_0": "bool true or false."
        }
      },
      "verifySigner(address,bytes32,bytes)": {
        "details": "Returns true if the signer of `_signature` is `_signer`.",
        "notice": "Callable by anyone.",
        "returns": {
          "_0": "bool true or false."
        }
      },
      "withdraw(address)": {
        "details": "Allows the allowlistowner to withdraw his funds to his wallet.",
        "notice": "Callable by the deployer of this contract [DaccredDeployer]           and the allowlistOwner.",
        "params": {
          "_caller": "Address of allowlistowner."
        }
      }
    },
    "stateVariables": {
      "locked": {
        "details": "ReEntrancy Lock."
      },
      "pending": {
        "details": "Pending token receivals."
      },
      "pendingReceivers": {
        "details": "Pending address to receive tokens."
      },
      "priceLimit": {
        "details": "Price Limit [in eth] set by deploying contract."
      },
      "tax": {
        "details": "Tax for token redemptions.         15 represents 1.5% of total sales."
      },
      "tokenPrice": {
        "details": "Price of individual tokens, set by deployer."
      },
      "totalRevenue": {
        "details": "Total revenue from sales."
      },
      "totalSales": {
        "details": "Total sales of tokens [Total tokens paid for]."
      }
    },
    "title": "Soulbound Redeemable.",
    "version": 1
  },
  "opcodes": "PUSH1 0x80 PUSH1 0x40 MSTORE PUSH1 0x4 CALLDATASIZE LT PUSH2 0x20E JUMPI PUSH1 0x0 CALLDATALOAD PUSH1 0xE0 SHR DUP1 PUSH4 0x95D89B41 GT PUSH2 0x118 JUMPI DUP1 PUSH4 0xDACA6F78 GT PUSH2 0xA0 JUMPI DUP1 PUSH4 0xED734730 GT PUSH2 0x6F JUMPI DUP1 PUSH4 0xED734730 EQ PUSH2 0x601 JUMPI DUP1 PUSH4 0xF2FDE38B EQ PUSH2 0x614 JUMPI DUP1 PUSH4 0xF577A500 EQ PUSH2 0x634 JUMPI DUP1 PUSH4 0xFAD54DE7 EQ PUSH2 0x664 JUMPI DUP1 PUSH4 0xFB8F198D EQ PUSH2 0x679 JUMPI PUSH1 0x0 DUP1 REVERT JUMPDEST DUP1 PUSH4 0xDACA6F78 EQ PUSH2 0x581 JUMPI DUP1 PUSH4 0xE8C58763 EQ PUSH2 0x5A1 JUMPI DUP1 PUSH4 0xE92B0842 EQ PUSH2 0x5C1 JUMPI DUP1 PUSH4 0xEA5353C7 EQ PUSH2 0x5E1 JUMPI PUSH1 0x0 DUP1 REVERT JUMPDEST DUP1 PUSH4 0xBD97A6AD GT PUSH2 0xE7 JUMPI DUP1 PUSH4 0xBD97A6AD EQ PUSH2 0x4EC JUMPI DUP1 PUSH4 0xC3CAB38A EQ PUSH2 0x50C JUMPI DUP1 PUSH4 0xC87B56DD EQ PUSH2 0x52C JUMPI DUP1 PUSH4 0xC9DD94C7 EQ PUSH2 0x54C JUMPI DUP1 PUSH4 0xC9E4C54D EQ PUSH2 0x561 JUMPI PUSH1 0x0 DUP1 REVERT JUMPDEST DUP1 PUSH4 0x95D89B41 EQ PUSH2 0x49C JUMPI DUP1 PUSH4 0x983A8B94 EQ PUSH2 0x4B1 JUMPI DUP1 PUSH4 0xA0B97DAA EQ PUSH2 0x4C4 JUMPI DUP1 PUSH4 0xBD131786 EQ PUSH2 0x4D9 JUMPI PUSH1 0x0 DUP1 REVERT JUMPDEST DUP1 PUSH4 0x51CFF8D9 GT PUSH2 0x19B JUMPI DUP1 PUSH4 0x6E0A8746 GT PUSH2 0x16A JUMPI DUP1 PUSH4 0x6E0A8746 EQ PUSH2 0x40B JUMPI DUP1 PUSH4 0x70A08231 EQ PUSH2 0x429 JUMPI DUP1 PUSH4 0x715018A6 EQ PUSH2 0x449 JUMPI DUP1 PUSH4 0x88433651 EQ PUSH2 0x45E JUMPI DUP1 PUSH4 0x8DA5CB5B EQ PUSH2 0x47E JUMPI PUSH1 0x0 DUP1 REVERT JUMPDEST DUP1 PUSH4 0x51CFF8D9 EQ PUSH2 0x332 JUMPI DUP1 PUSH4 0x5899E7B2 EQ PUSH2 0x352 JUMPI DUP1 PUSH4 0x6352211E EQ PUSH2 0x398 JUMPI DUP1 PUSH4 0x6833F200 EQ PUSH2 0x3D0 JUMPI PUSH1 0x0 DUP1 REVERT JUMPDEST DUP1 PUSH4 0x1F04D135 GT PUSH2 0x1E2 JUMPI DUP1 PUSH4 0x1F04D135 EQ PUSH2 0x2AC JUMPI DUP1 PUSH4 0x210FA96B EQ PUSH2 0x2CC JUMPI DUP1 PUSH4 0x33E085C1 EQ PUSH2 0x2EC JUMPI DUP1 PUSH4 0x3D1A350E EQ PUSH2 0x2FF JUMPI DUP1 PUSH4 0x42966C68 EQ PUSH2 0x312 JUMPI PUSH1 0x0 DUP1 REVERT JUMPDEST DUP1 PUSH3 0xE4768B EQ PUSH2 0x213 JUMPI DUP1 PUSH4 0x1FFC9A7 EQ PUSH2 0x235 JUMPI DUP1 PUSH4 0x6FDDE03 EQ PUSH2 0x26A JUMPI DUP1 PUSH4 0x8C92E57 EQ PUSH2 0x28C JUMPI JUMPDEST PUSH1 0x0 DUP1 REVERT JUMPDEST CALLVALUE DUP1 ISZERO PUSH2 0x21F JUMPI PUSH1 0x0 DUP1 REVERT JUMPDEST POP PUSH2 0x233 PUSH2 0x22E CALLDATASIZE PUSH1 0x4 PUSH2 0x262B JUMP JUMPDEST PUSH2 0x699 JUMP JUMPDEST STOP JUMPDEST CALLVALUE DUP1 ISZERO PUSH2 0x241 JUMPI PUSH1 0x0 DUP1 REVERT JUMPDEST POP PUSH2 0x255 PUSH2 0x250 CALLDATASIZE PUSH1 0x4 PUSH2 0x2655 JUMP JUMPDEST PUSH2 0x746 JUMP JUMPDEST PUSH1 0x40 MLOAD SWAP1 ISZERO ISZERO DUP2 MSTORE PUSH1 0x20 ADD JUMPDEST PUSH1 0x40 MLOAD DUP1 SWAP2 SUB SWAP1 RETURN JUMPDEST CALLVALUE DUP1 ISZERO PUSH2 0x276 JUMPI PUSH1 0x0 DUP1 REVERT JUMPDEST POP PUSH2 0x27F PUSH2 0x798 JUMP JUMPDEST PUSH1 0x40 MLOAD PUSH2 0x261 SWAP2 SWAP1 PUSH2 0x26AF JUMP JUMPDEST CALLVALUE DUP1 ISZERO PUSH2 0x298 JUMPI PUSH1 0x0 DUP1 REVERT JUMPDEST POP PUSH2 0x233 PUSH2 0x2A7 CALLDATASIZE PUSH1 0x4 PUSH2 0x2785 JUMP JUMPDEST PUSH2 0x82A JUMP JUMPDEST CALLVALUE DUP1 ISZERO PUSH2 0x2B8 JUMPI PUSH1 0x0 DUP1 REVERT JUMPDEST POP PUSH2 0x233 PUSH2 0x2C7 CALLDATASIZE PUSH1 0x4 PUSH2 0x2785 JUMP JUMPDEST PUSH2 0x960 JUMP JUMPDEST CALLVALUE DUP1 ISZERO PUSH2 0x2D8 JUMPI PUSH1 0x0 DUP1 REVERT JUMPDEST POP PUSH2 0x27F PUSH2 0x2E7 CALLDATASIZE PUSH1 0x4 PUSH2 0x27D5 JUMP JUMPDEST PUSH2 0x9DA JUMP JUMPDEST PUSH2 0x233 PUSH2 0x2FA CALLDATASIZE PUSH1 0x4 PUSH2 0x262B JUMP JUMPDEST PUSH2 0xA59 JUMP JUMPDEST PUSH2 0x233 PUSH2 0x30D CALLDATASIZE PUSH1 0x4 PUSH2 0x27EE JUMP JUMPDEST PUSH2 0xD4F JUMP JUMPDEST CALLVALUE DUP1 ISZERO PUSH2 0x31E JUMPI PUSH1 0x0 DUP1 REVERT JUMPDEST POP PUSH2 0x233 PUSH2 0x32D CALLDATASIZE PUSH1 0x4 PUSH2 0x27D5 JUMP JUMPDEST PUSH2 0x101F JUMP JUMPDEST CALLVALUE DUP1 ISZERO PUSH2 0x33E JUMPI PUSH1 0x0 DUP1 REVERT JUMPDEST POP PUSH2 0x233 PUSH2 0x34D CALLDATASIZE PUSH1 0x4 PUSH2 0x2821 JUMP JUMPDEST PUSH2 0x1094 JUMP JUMPDEST CALLVALUE DUP1 ISZERO PUSH2 0x35E JUMPI PUSH1 0x0 DUP1 REVERT JUMPDEST POP PUSH2 0x255 PUSH2 0x36D CALLDATASIZE PUSH1 0x4 PUSH2 0x262B JUMP JUMPDEST PUSH1 0x1 PUSH1 0x1 PUSH1 0xA0 SHL SUB SWAP2 SWAP1 SWAP2 AND PUSH1 0x0 SWAP1 DUP2 MSTORE PUSH1 0x8 PUSH1 0x20 SWAP1 DUP2 MSTORE PUSH1 0x40 DUP1 DUP4 KECCAK256 SWAP4 DUP4 MSTORE SWAP3 SWAP1 MSTORE KECCAK256 SLOAD PUSH1 0xFF AND SWAP1 JUMP JUMPDEST CALLVALUE DUP1 ISZERO PUSH2 0x3A4 JUMPI PUSH1 0x0 DUP1 REVERT JUMPDEST POP PUSH2 0x3B8 PUSH2 0x3B3 CALLDATASIZE PUSH1 0x4 PUSH2 0x27D5 JUMP JUMPDEST PUSH2 0x11C8 JUMP JUMPDEST PUSH1 0x40 MLOAD PUSH1 0x1 PUSH1 0x1 PUSH1 0xA0 SHL SUB SWAP1 SWAP2 AND DUP2 MSTORE PUSH1 0x20 ADD PUSH2 0x261 JUMP JUMPDEST CALLVALUE DUP1 ISZERO PUSH2 0x3DC JUMPI PUSH1 0x0 DUP1 REVERT JUMPDEST POP PUSH2 0x3FD PUSH2 0x3EB CALLDATASIZE PUSH1 0x4 PUSH2 0x27D5 JUMP JUMPDEST PUSH1 0x0 SWAP1 DUP2 MSTORE PUSH1 0x20 DUP2 SWAP1 MSTORE PUSH1 0x40 SWAP1 KECCAK256 SLOAD SWAP1 JUMP JUMPDEST PUSH1 0x40 MLOAD SWAP1 DUP2 MSTORE PUSH1 0x20 ADD PUSH2 0x261 JUMP JUMPDEST CALLVALUE DUP1 ISZERO PUSH2 0x417 JUMPI PUSH1 0x0 DUP1 REVERT JUMPDEST POP PUSH1 0x9 SLOAD PUSH1 0x1 PUSH1 0x1 PUSH1 0xA0 SHL SUB AND PUSH2 0x3B8 JUMP JUMPDEST CALLVALUE DUP1 ISZERO PUSH2 0x435 JUMPI PUSH1 0x0 DUP1 REVERT JUMPDEST POP PUSH2 0x3FD PUSH2 0x444 CALLDATASIZE PUSH1 0x4 PUSH2 0x2821 JUMP JUMPDEST PUSH2 0x122D JUMP JUMPDEST CALLVALUE DUP1 ISZERO PUSH2 0x455 JUMPI PUSH1 0x0 DUP1 REVERT JUMPDEST POP PUSH2 0x233 PUSH2 0x12B6 JUMP JUMPDEST CALLVALUE DUP1 ISZERO PUSH2 0x46A JUMPI PUSH1 0x0 DUP1 REVERT JUMPDEST POP PUSH2 0x233 PUSH2 0x479 CALLDATASIZE PUSH1 0x4 PUSH2 0x283C JUMP JUMPDEST PUSH2 0x12CA JUMP JUMPDEST CALLVALUE DUP1 ISZERO PUSH2 0x48A JUMPI PUSH1 0x0 DUP1 REVERT JUMPDEST POP PUSH1 0x6 SLOAD PUSH1 0x1 PUSH1 0x1 PUSH1 0xA0 SHL SUB AND PUSH2 0x3B8 JUMP JUMPDEST CALLVALUE DUP1 ISZERO PUSH2 0x4A8 JUMPI PUSH1 0x0 DUP1 REVERT JUMPDEST POP PUSH2 0x27F PUSH2 0x131E JUMP JUMPDEST PUSH2 0x233 PUSH2 0x4BF CALLDATASIZE PUSH1 0x4 PUSH2 0x288A JUMP JUMPDEST PUSH2 0x132D JUMP JUMPDEST CALLVALUE DUP1 ISZERO PUSH2 0x4D0 JUMPI PUSH1 0x0 DUP1 REVERT JUMPDEST POP PUSH1 0xE SLOAD PUSH2 0x3FD JUMP JUMPDEST PUSH2 0x233 PUSH2 0x4E7 CALLDATASIZE PUSH1 0x4 PUSH2 0x288A JUMP JUMPDEST PUSH2 0x1403 JUMP JUMPDEST CALLVALUE DUP1 ISZERO PUSH2 0x4F8 JUMPI PUSH1 0x0 DUP1 REVERT JUMPDEST POP PUSH2 0x233 PUSH2 0x507 CALLDATASIZE PUSH1 0x4 PUSH2 0x2904 JUMP JUMPDEST PUSH2 0x14C6 JUMP JUMPDEST CALLVALUE DUP1 ISZERO PUSH2 0x518 JUMPI PUSH1 0x0 DUP1 REVERT JUMPDEST POP PUSH2 0x233 PUSH2 0x527 CALLDATASIZE PUSH1 0x4 PUSH2 0x2946 JUMP JUMPDEST PUSH2 0x1698 JUMP JUMPDEST CALLVALUE DUP1 ISZERO PUSH2 0x538 JUMPI PUSH1 0x0 DUP1 REVERT JUMPDEST POP PUSH2 0x27F PUSH2 0x547 CALLDATASIZE PUSH1 0x4 PUSH2 0x27D5 JUMP JUMPDEST PUSH2 0x16F0 JUMP JUMPDEST CALLVALUE DUP1 ISZERO PUSH2 0x558 JUMPI PUSH1 0x0 DUP1 REVERT JUMPDEST POP PUSH2 0x27F PUSH2 0x17E5 JUMP JUMPDEST CALLVALUE DUP1 ISZERO PUSH2 0x56D JUMPI PUSH1 0x0 DUP1 REVERT JUMPDEST POP PUSH2 0x233 PUSH2 0x57C CALLDATASIZE PUSH1 0x4 PUSH2 0x2968 JUMP JUMPDEST PUSH2 0x1841 JUMP JUMPDEST CALLVALUE DUP1 ISZERO PUSH2 0x58D JUMPI PUSH1 0x0 DUP1 REVERT JUMPDEST POP PUSH2 0x255 PUSH2 0x59C CALLDATASIZE PUSH1 0x4 PUSH2 0x29F0 JUMP JUMPDEST PUSH2 0x194E JUMP JUMPDEST CALLVALUE DUP1 ISZERO PUSH2 0x5AD JUMPI PUSH1 0x0 DUP1 REVERT JUMPDEST POP PUSH2 0x3FD PUSH2 0x5BC CALLDATASIZE PUSH1 0x4 PUSH2 0x27D5 JUMP JUMPDEST PUSH2 0x1961 JUMP JUMPDEST CALLVALUE DUP1 ISZERO PUSH2 0x5CD JUMPI PUSH1 0x0 DUP1 REVERT JUMPDEST POP PUSH2 0x255 PUSH2 0x5DC CALLDATASIZE PUSH1 0x4 PUSH2 0x2A21 JUMP JUMPDEST PUSH2 0x199E JUMP JUMPDEST CALLVALUE DUP1 ISZERO PUSH2 0x5ED JUMPI PUSH1 0x0 DUP1 REVERT JUMPDEST POP PUSH2 0x233 PUSH2 0x5FC CALLDATASIZE PUSH1 0x4 PUSH2 0x2968 JUMP JUMPDEST PUSH2 0x1A32 JUMP JUMPDEST PUSH2 0x233 PUSH2 0x60F CALLDATASIZE PUSH1 0x4 PUSH2 0x27EE JUMP JUMPDEST PUSH2 0x1A8F JUMP JUMPDEST CALLVALUE DUP1 ISZERO PUSH2 0x620 JUMPI PUSH1 0x0 DUP1 REVERT JUMPDEST POP PUSH2 0x233 PUSH2 0x62F CALLDATASIZE PUSH1 0x4 PUSH2 0x2821 JUMP JUMPDEST PUSH2 0x1C19 JUMP JUMPDEST CALLVALUE DUP1 ISZERO PUSH2 0x640 JUMPI PUSH1 0x0 DUP1 REVERT JUMPDEST POP PUSH2 0x255 PUSH2 0x64F CALLDATASIZE PUSH1 0x4 PUSH2 0x27D5 JUMP JUMPDEST PUSH1 0x0 SWAP1 DUP2 MSTORE PUSH1 0x20 DUP2 SWAP1 MSTORE PUSH1 0x40 SWAP1 KECCAK256 SLOAD TIMESTAMP GT ISZERO SWAP1 JUMP JUMPDEST CALLVALUE DUP1 ISZERO PUSH2 0x670 JUMPI PUSH1 0x0 DUP1 REVERT JUMPDEST POP PUSH1 0xF SLOAD PUSH2 0x3FD JUMP JUMPDEST CALLVALUE DUP1 ISZERO PUSH2 0x685 JUMPI PUSH1 0x0 DUP1 REVERT JUMPDEST POP PUSH2 0x3B8 PUSH2 0x694 CALLDATASIZE PUSH1 0x4 PUSH2 0x262B JUMP JUMPDEST PUSH2 0x1C8F JUMP JUMPDEST PUSH2 0x6A1 PUSH2 0x1DA3 JUMP JUMPDEST DUP2 PUSH2 0x6B4 PUSH1 0x9 SLOAD PUSH1 0x1 PUSH1 0x1 PUSH1 0xA0 SHL SUB AND SWAP1 JUMP JUMPDEST PUSH1 0x1 PUSH1 0x1 PUSH1 0xA0 SHL SUB AND DUP2 PUSH1 0x1 PUSH1 0x1 PUSH1 0xA0 SHL SUB AND EQ PUSH2 0x6ED JUMPI PUSH1 0x40 MLOAD PUSH3 0x461BCD PUSH1 0xE5 SHL DUP2 MSTORE PUSH1 0x4 ADD PUSH2 0x6E4 SWAP1 PUSH2 0x2A78 JUMP JUMPDEST PUSH1 0x40 MLOAD DUP1 SWAP2 SUB SWAP1 REVERT JUMPDEST PUSH1 0xE SLOAD DUP3 GT ISZERO PUSH2 0x73F JUMPI PUSH1 0x40 MLOAD PUSH3 0x461BCD PUSH1 0xE5 SHL DUP2 MSTORE PUSH1 0x20 PUSH1 0x4 DUP3 ADD MSTORE PUSH1 0x18 PUSH1 0x24 DUP3 ADD MSTORE PUSH32 0x507269636520686967686572207468616E206C696D69742E0000000000000000 PUSH1 0x44 DUP3 ADD MSTORE PUSH1 0x64 ADD PUSH2 0x6E4 JUMP JUMPDEST POP PUSH1 0xF SSTORE POP JUMP JUMPDEST PUSH1 0x0 PUSH1 0x1 PUSH1 0x1 PUSH1 0xE0 SHL SUB NOT DUP3 AND PUSH4 0x5B5E139F PUSH1 0xE0 SHL EQ DUP1 PUSH2 0x777 JUMPI POP PUSH1 0x1 PUSH1 0x1 PUSH1 0xE0 SHL SUB NOT DUP3 AND PUSH4 0x5164CF47 PUSH1 0xE0 SHL EQ JUMPDEST DUP1 PUSH2 0x792 JUMPI POP PUSH4 0x1FFC9A7 PUSH1 0xE0 SHL PUSH1 0x1 PUSH1 0x1 PUSH1 0xE0 SHL SUB NOT DUP4 AND EQ JUMPDEST SWAP3 SWAP2 POP POP JUMP JUMPDEST PUSH1 0x60 PUSH1 0x1 DUP1 SLOAD PUSH2 0x7A7 SWAP1 PUSH2 0x2AA6 JUMP JUMPDEST DUP1 PUSH1 0x1F ADD PUSH1 0x20 DUP1 SWAP2 DIV MUL PUSH1 0x20 ADD PUSH1 0x40 MLOAD SWAP1 DUP2 ADD PUSH1 0x40 MSTORE DUP1 SWAP3 SWAP2 SWAP1 DUP2 DUP2 MSTORE PUSH1 0x20 ADD DUP3 DUP1 SLOAD PUSH2 0x7D3 SWAP1 PUSH2 0x2AA6 JUMP JUMPDEST DUP1 ISZERO PUSH2 0x820 JUMPI DUP1 PUSH1 0x1F LT PUSH2 0x7F5 JUMPI PUSH2 0x100 DUP1 DUP4 SLOAD DIV MUL DUP4 MSTORE SWAP2 PUSH1 0x20 ADD SWAP2 PUSH2 0x820 JUMP JUMPDEST DUP3 ADD SWAP2 SWAP1 PUSH1 0x0 MSTORE PUSH1 0x20 PUSH1 0x0 KECCAK256 SWAP1 JUMPDEST DUP2 SLOAD DUP2 MSTORE SWAP1 PUSH1 0x1 ADD SWAP1 PUSH1 0x20 ADD DUP1 DUP4 GT PUSH2 0x803 JUMPI DUP3 SWAP1 SUB PUSH1 0x1F AND DUP3 ADD SWAP2 JUMPDEST POP POP POP POP POP SWAP1 POP SWAP1 JUMP JUMPDEST PUSH2 0x833 DUP2 PUSH2 0x1DFD JUMP JUMPDEST PUSH2 0x87F JUMPI PUSH1 0x40 MLOAD PUSH3 0x461BCD PUSH1 0xE5 SHL DUP2 MSTORE PUSH1 0x20 PUSH1 0x4 DUP3 ADD MSTORE PUSH1 0x1B PUSH1 0x24 DUP3 ADD MSTORE PUSH32 0x5265766F6B65206F6620696E6578697374656E7420746F6B656E2E0000000000 PUSH1 0x44 DUP3 ADD MSTORE PUSH1 0x64 ADD PUSH2 0x6E4 JUMP JUMPDEST DUP2 MLOAD PUSH1 0x41 EQ PUSH2 0x8CB JUMPI PUSH1 0x40 MLOAD PUSH3 0x461BCD PUSH1 0xE5 SHL DUP2 MSTORE PUSH1 0x20 PUSH1 0x4 DUP3 ADD MSTORE PUSH1 0x18 PUSH1 0x24 DUP3 ADD MSTORE PUSH24 0x92DCECC2D8D2C840E6D2CEDCC2E8EAE4CA40D8CADCCEE8D PUSH1 0x43 SHL PUSH1 0x44 DUP3 ADD MSTORE PUSH1 0x64 ADD PUSH2 0x6E4 JUMP JUMPDEST PUSH2 0x8D5 DUP4 DUP4 PUSH2 0x194E JUMP JUMPDEST PUSH2 0x91D JUMPI PUSH1 0x40 MLOAD PUSH3 0x461BCD PUSH1 0xE5 SHL DUP2 MSTORE PUSH1 0x20 PUSH1 0x4 DUP3 ADD MSTORE PUSH1 0x19 PUSH1 0x24 DUP3 ADD MSTORE PUSH25 0x2430B9B4103737BA1039B4B3B732B210313C9037BBB732B917 PUSH1 0x39 SHL PUSH1 0x44 DUP3 ADD MSTORE PUSH1 0x64 ADD PUSH2 0x6E4 JUMP JUMPDEST PUSH2 0x92F PUSH2 0x929 DUP3 PUSH2 0x11C8 JUMP JUMPDEST DUP3 PUSH2 0x1E1A JUMP JUMPDEST POP PUSH1 0x40 MLOAD DUP2 SWAP1 PUSH32 0xF947BF2266AFEDE98F27AD2312DB8B2A17921852307F979B6F14A2B41FA774BC SWAP1 PUSH1 0x0 SWAP1 LOG2 POP POP POP JUMP JUMPDEST PUSH2 0x968 PUSH2 0x1DA3 JUMP JUMPDEST PUSH1 0xB SLOAD ISZERO PUSH2 0x98A JUMPI PUSH1 0xB DUP1 SLOAD SWAP1 PUSH1 0x0 PUSH2 0x980 DUP4 PUSH2 0x2AF7 JUMP JUMPDEST SWAP2 SWAP1 POP SSTORE POP PUSH2 0x9CA JUMP JUMPDEST PUSH1 0x40 MLOAD PUSH3 0x461BCD PUSH1 0xE5 SHL DUP2 MSTORE PUSH1 0x20 PUSH1 0x4 DUP3 ADD MSTORE PUSH1 0x15 PUSH1 0x24 DUP3 ADD MSTORE PUSH21 0x2637BBB2B9BA103634B6B4BA103932B0B1B432B217 PUSH1 0x59 SHL PUSH1 0x44 DUP3 ADD MSTORE PUSH1 0x64 ADD PUSH2 0x6E4 JUMP JUMPDEST PUSH2 0x9D5 DUP4 DUP4 DUP4 PUSH2 0x82A JUMP JUMPDEST POP POP POP JUMP JUMPDEST PUSH1 0x60 PUSH2 0x9E4 PUSH2 0x17E5 JUMP JUMPDEST MLOAD PUSH2 0xA21 JUMPI PUSH1 0x40 MLOAD PUSH3 0x461BCD PUSH1 0xE5 SHL DUP2 MSTORE PUSH1 0x20 PUSH1 0x4 DUP3 ADD MSTORE PUSH1 0xD PUSH1 0x24 DUP3 ADD MSTORE PUSH13 0x456D7074792062617365555249 PUSH1 0x98 SHL PUSH1 0x44 DUP3 ADD MSTORE PUSH1 0x64 ADD PUSH2 0x6E4 JUMP JUMPDEST PUSH2 0xA29 PUSH2 0x17E5 JUMP JUMPDEST PUSH2 0xA32 DUP4 PUSH2 0x1EE2 JUMP JUMPDEST PUSH1 0x40 MLOAD PUSH1 0x20 ADD PUSH2 0xA43 SWAP3 SWAP2 SWAP1 PUSH2 0x2B0E JUMP JUMPDEST PUSH1 0x40 MLOAD PUSH1 0x20 DUP2 DUP4 SUB SUB DUP2 MSTORE SWAP1 PUSH1 0x40 MSTORE SWAP1 POP SWAP2 SWAP1 POP JUMP JUMPDEST PUSH2 0xA61 PUSH2 0x1DA3 JUMP JUMPDEST PUSH1 0x13 SLOAD PUSH1 0xFF AND ISZERO PUSH2 0xA71 JUMPI PUSH1 0x0 DUP1 REVERT JUMPDEST PUSH1 0x13 DUP1 SLOAD PUSH1 0xFF NOT AND PUSH1 0x1 OR SWAP1 SSTORE PUSH1 0x1 PUSH1 0x1 PUSH1 0xA0 SHL SUB DUP3 AND PUSH2 0xAA4 JUMPI PUSH1 0x40 MLOAD PUSH3 0x461BCD PUSH1 0xE5 SHL DUP2 MSTORE PUSH1 0x4 ADD PUSH2 0x6E4 SWAP1 PUSH2 0x2B3D JUMP JUMPDEST PUSH2 0xAAD DUP2 PUSH2 0x1DFD JUMP JUMPDEST ISZERO PUSH2 0xAFA JUMPI PUSH1 0x40 MLOAD PUSH3 0x461BCD PUSH1 0xE5 SHL DUP2 MSTORE PUSH1 0x20 PUSH1 0x4 DUP3 ADD MSTORE PUSH1 0x1F PUSH1 0x24 DUP3 ADD MSTORE PUSH32 0x4D696E74206F6620616C7265616479206578697374696E6720746F6B656E2E00 PUSH1 0x44 DUP3 ADD MSTORE PUSH1 0x64 ADD PUSH2 0x6E4 JUMP JUMPDEST PUSH1 0x0 DUP2 DUP2 MSTORE PUSH1 0x10 PUSH1 0x20 MSTORE PUSH1 0x40 SWAP1 KECCAK256 SLOAD PUSH1 0xFF AND PUSH2 0xB52 JUMPI PUSH1 0x40 MLOAD PUSH3 0x461BCD PUSH1 0xE5 SHL DUP2 MSTORE PUSH1 0x20 PUSH1 0x4 DUP3 ADD MSTORE PUSH1 0x17 PUSH1 0x24 DUP3 ADD MSTORE PUSH23 0x20B63932B0B23C903932B1B2B4BB32B2103A37B5B2B717 PUSH1 0x49 SHL PUSH1 0x44 DUP3 ADD MSTORE PUSH1 0x64 ADD PUSH2 0x6E4 JUMP JUMPDEST PUSH1 0x0 DUP2 DUP2 MSTORE PUSH1 0x11 PUSH1 0x20 MSTORE PUSH1 0x40 SWAP1 KECCAK256 SLOAD PUSH1 0x1 PUSH1 0x1 PUSH1 0xA0 SHL SUB DUP4 DUP2 AND SWAP2 AND EQ PUSH2 0xBB3 JUMPI PUSH1 0x40 MLOAD PUSH3 0x461BCD PUSH1 0xE5 SHL DUP2 MSTORE PUSH1 0x20 PUSH1 0x4 DUP3 ADD MSTORE PUSH1 0x15 PUSH1 0x24 DUP3 ADD MSTORE PUSH21 0x2737BA103832B73234B733903932B1B2B4BB32B917 PUSH1 0x59 SHL PUSH1 0x44 DUP3 ADD MSTORE PUSH1 0x64 ADD PUSH2 0x6E4 JUMP JUMPDEST PUSH1 0x0 DUP2 DUP2 MSTORE PUSH1 0x20 DUP2 SWAP1 MSTORE PUSH1 0x40 SWAP1 KECCAK256 SLOAD TIMESTAMP GT ISZERO PUSH2 0xC22 JUMPI PUSH1 0x40 MLOAD PUSH3 0x461BCD PUSH1 0xE5 SHL DUP2 MSTORE PUSH1 0x20 PUSH1 0x4 DUP3 ADD MSTORE PUSH1 0x28 PUSH1 0x24 DUP3 ADD MSTORE PUSH32 0x526563656976616C206F66206578706972656420746F6B656E2C207265646565 PUSH1 0x44 DUP3 ADD MSTORE PUSH8 0x36903A37B5B2B717 PUSH1 0xC1 SHL PUSH1 0x64 DUP3 ADD MSTORE PUSH1 0x84 ADD PUSH2 0x6E4 JUMP JUMPDEST PUSH1 0xF SLOAD CALLVALUE LT ISZERO PUSH2 0xC74 JUMPI PUSH1 0x40 MLOAD PUSH3 0x461BCD PUSH1 0xE5 SHL DUP2 MSTORE PUSH1 0x20 PUSH1 0x4 DUP3 ADD MSTORE PUSH1 0x1C PUSH1 0x24 DUP3 ADD MSTORE PUSH32 0x5072696365206C6F776572207468616E20746F6B656E20636F73742E00000000 PUSH1 0x44 DUP3 ADD MSTORE PUSH1 0x64 ADD PUSH2 0x6E4 JUMP JUMPDEST PUSH1 0x0 PUSH1 0xF SLOAD CALLVALUE GT ISZERO PUSH2 0xCC8 JUMPI PUSH1 0xF SLOAD PUSH2 0xC8D SWAP1 CALLVALUE PUSH2 0x2B6C JUMP JUMPDEST PUSH1 0x40 MLOAD SWAP1 SWAP2 POP PUSH1 0x1 PUSH1 0x1 PUSH1 0xA0 SHL SUB DUP5 AND SWAP1 DUP3 ISZERO PUSH2 0x8FC MUL SWAP1 DUP4 SWAP1 PUSH1 0x0 DUP2 DUP2 DUP2 DUP6 DUP9 DUP9 CALL SWAP4 POP POP POP POP ISZERO DUP1 ISZERO PUSH2 0xCC6 JUMPI RETURNDATASIZE PUSH1 0x0 DUP1 RETURNDATACOPY RETURNDATASIZE PUSH1 0x0 REVERT JUMPDEST POP JUMPDEST PUSH1 0x0 PUSH2 0xCD3 DUP4 PUSH2 0x9DA JUMP JUMPDEST SWAP1 POP PUSH2 0xCE0 DUP5 DUP5 DUP4 PUSH2 0x1FE8 JUMP JUMPDEST POP PUSH1 0xC DUP1 SLOAD SWAP1 PUSH1 0x0 PUSH2 0xCF1 DUP4 PUSH2 0x2B83 JUMP JUMPDEST SWAP2 SWAP1 POP SSTORE POP PUSH1 0xF SLOAD PUSH1 0xD PUSH1 0x0 DUP3 DUP3 SLOAD PUSH2 0xD0A SWAP2 SWAP1 PUSH2 0x2B9E JUMP JUMPDEST SWAP1 SWAP2 SSTORE POP POP POP PUSH1 0x0 SWAP2 DUP3 MSTORE POP PUSH1 0x10 PUSH1 0x20 SWAP1 DUP2 MSTORE PUSH1 0x40 DUP1 DUP4 KECCAK256 DUP1 SLOAD PUSH1 0xFF NOT SWAP1 DUP2 AND SWAP1 SWAP2 SSTORE PUSH1 0x11 SWAP1 SWAP3 MSTORE SWAP1 SWAP2 KECCAK256 DUP1 SLOAD PUSH1 0x1 PUSH1 0x1 PUSH1 0xA0 SHL SUB NOT AND SWAP1 SSTORE PUSH1 0x13 DUP1 SLOAD SWAP1 SWAP2 AND SWAP1 SSTORE POP JUMP JUMPDEST PUSH2 0xD57 PUSH2 0x1DA3 JUMP JUMPDEST PUSH1 0x13 SLOAD PUSH1 0xFF AND ISZERO PUSH2 0xD67 JUMPI PUSH1 0x0 DUP1 REVERT JUMPDEST PUSH1 0x13 DUP1 SLOAD PUSH1 0xFF NOT AND PUSH1 0x1 OR SWAP1 SSTORE PUSH1 0x1 PUSH1 0x1 PUSH1 0xA0 SHL SUB DUP4 AND PUSH2 0xDCA JUMPI PUSH1 0x40 MLOAD PUSH3 0x461BCD PUSH1 0xE5 SHL DUP2 MSTORE PUSH1 0x20 PUSH1 0x4 DUP3 ADD MSTORE PUSH1 0x1B PUSH1 0x24 DUP3 ADD MSTORE PUSH32 0x526564656D7074696F6E20746F207A65726F20616464726573732E0000000000 PUSH1 0x44 DUP3 ADD MSTORE PUSH1 0x64 ADD PUSH2 0x6E4 JUMP JUMPDEST PUSH2 0xDD3 DUP3 PUSH2 0x1DFD JUMP JUMPDEST PUSH2 0xE29 JUMPI PUSH1 0x40 MLOAD PUSH3 0x461BCD PUSH1 0xE5 SHL DUP2 MSTORE PUSH1 0x20 PUSH1 0x4 DUP3 ADD MSTORE PUSH1 0x21 PUSH1 0x24 DUP3 ADD MSTORE PUSH32 0x526564656D7074696F6E206F66206E6F6E2D6578697374696E6720746F6B656E PUSH1 0x44 DUP3 ADD MSTORE PUSH1 0x17 PUSH1 0xF9 SHL PUSH1 0x64 DUP3 ADD MSTORE PUSH1 0x84 ADD PUSH2 0x6E4 JUMP JUMPDEST PUSH1 0x0 DUP3 DUP2 MSTORE PUSH1 0x10 PUSH1 0x20 MSTORE PUSH1 0x40 SWAP1 KECCAK256 SLOAD PUSH1 0xFF AND ISZERO PUSH2 0xE7F JUMPI PUSH1 0x40 MLOAD PUSH3 0x461BCD PUSH1 0xE5 SHL DUP2 MSTORE PUSH1 0x20 PUSH1 0x4 DUP3 ADD MSTORE PUSH1 0x14 PUSH1 0x24 DUP3 ADD MSTORE PUSH20 0x2A37B5B2B71039BA34B636103832B73234B73397 PUSH1 0x61 SHL PUSH1 0x44 DUP3 ADD MSTORE PUSH1 0x64 ADD PUSH2 0x6E4 JUMP JUMPDEST DUP3 PUSH1 0x1 PUSH1 0x1 PUSH1 0xA0 SHL SUB AND PUSH2 0xE92 DUP4 PUSH2 0x11C8 JUMP JUMPDEST PUSH1 0x1 PUSH1 0x1 PUSH1 0xA0 SHL SUB AND EQ PUSH2 0xEDB JUMPI PUSH1 0x40 MLOAD PUSH3 0x461BCD PUSH1 0xE5 SHL DUP2 MSTORE PUSH1 0x20 PUSH1 0x4 DUP3 ADD MSTORE PUSH1 0x10 PUSH1 0x24 DUP3 ADD MSTORE PUSH16 0x2737BA103A37B5B2B71037BBB732B917 PUSH1 0x81 SHL PUSH1 0x44 DUP3 ADD MSTORE PUSH1 0x64 ADD PUSH2 0x6E4 JUMP JUMPDEST PUSH1 0x0 DUP3 DUP2 MSTORE PUSH1 0x20 DUP2 SWAP1 MSTORE PUSH1 0x40 SWAP1 KECCAK256 SLOAD TIMESTAMP GT PUSH2 0xF2B JUMPI PUSH1 0x40 MLOAD PUSH3 0x461BCD PUSH1 0xE5 SHL DUP2 MSTORE PUSH1 0x20 PUSH1 0x4 DUP3 ADD MSTORE PUSH1 0x10 PUSH1 0x24 DUP3 ADD MSTORE PUSH16 0x2A37B5B2B7103AB732BC3834B932B217 PUSH1 0x81 SHL PUSH1 0x44 DUP3 ADD MSTORE PUSH1 0x64 ADD PUSH2 0x6E4 JUMP JUMPDEST PUSH1 0x0 PUSH2 0xF38 PUSH1 0x12 SLOAD PUSH2 0x1FFF JUMP JUMPDEST SWAP1 POP DUP1 CALLVALUE LT ISZERO PUSH2 0xF8A JUMPI PUSH1 0x40 MLOAD PUSH3 0x461BCD PUSH1 0xE5 SHL DUP2 MSTORE PUSH1 0x20 PUSH1 0x4 DUP3 ADD DUP2 SWAP1 MSTORE PUSH1 0x24 DUP3 ADD MSTORE PUSH32 0x5072696365206C6F776572207468616E20726564656D7074696F6E207461782E PUSH1 0x44 DUP3 ADD MSTORE PUSH1 0x64 ADD PUSH2 0x6E4 JUMP JUMPDEST PUSH1 0x0 DUP2 ISZERO PUSH2 0xFD7 JUMPI PUSH2 0xF9C DUP3 CALLVALUE PUSH2 0x2B6C JUMP JUMPDEST PUSH1 0x40 MLOAD SWAP1 SWAP2 POP PUSH1 0x1 PUSH1 0x1 PUSH1 0xA0 SHL SUB DUP7 AND SWAP1 DUP3 ISZERO PUSH2 0x8FC MUL SWAP1 DUP4 SWAP1 PUSH1 0x0 DUP2 DUP2 DUP2 DUP6 DUP9 DUP9 CALL SWAP4 POP POP POP POP ISZERO DUP1 ISZERO PUSH2 0xFD5 JUMPI RETURNDATASIZE PUSH1 0x0 DUP1 RETURNDATACOPY RETURNDATASIZE PUSH1 0x0 REVERT JUMPDEST POP JUMPDEST PUSH2 0xFE1 DUP5 DUP5 PUSH2 0x1698 JUMP JUMPDEST PUSH1 0x40 MLOAD DUP4 SWAP1 DUP6 SWAP1 PUSH32 0x6F73B7B8D37DF32EA60A45EADC8FC3D2D716D705EE099BD506817482CE847316 SWAP1 PUSH1 0x0 SWAP1 LOG3 POP POP PUSH1 0x13 DUP1 SLOAD PUSH1 0xFF NOT AND SWAP1 SSTORE POP POP POP JUMP JUMPDEST PUSH2 0x1028 DUP2 PUSH2 0x11C8 JUMP JUMPDEST PUSH1 0x1 PUSH1 0x1 PUSH1 0xA0 SHL SUB AND CALLER PUSH1 0x1 PUSH1 0x1 PUSH1 0xA0 SHL SUB AND EQ PUSH2 0x1088 JUMPI PUSH1 0x40 MLOAD PUSH3 0x461BCD PUSH1 0xE5 SHL DUP2 MSTORE PUSH1 0x20 PUSH1 0x4 DUP3 ADD MSTORE PUSH1 0x1A PUSH1 0x24 DUP3 ADD MSTORE PUSH32 0x6275726E3A2073656E646572206D757374206265206F776E6572000000000000 PUSH1 0x44 DUP3 ADD MSTORE PUSH1 0x64 ADD PUSH2 0x6E4 JUMP JUMPDEST PUSH2 0x1091 DUP2 PUSH2 0x203B JUMP JUMPDEST POP JUMP JUMPDEST PUSH2 0x109C PUSH2 0x1DA3 JUMP JUMPDEST DUP1 PUSH2 0x10AF PUSH1 0x9 SLOAD PUSH1 0x1 PUSH1 0x1 PUSH1 0xA0 SHL SUB AND SWAP1 JUMP JUMPDEST PUSH1 0x1 PUSH1 0x1 PUSH1 0xA0 SHL SUB AND DUP2 PUSH1 0x1 PUSH1 0x1 PUSH1 0xA0 SHL SUB AND EQ PUSH2 0x10DF JUMPI PUSH1 0x40 MLOAD PUSH3 0x461BCD PUSH1 0xE5 SHL DUP2 MSTORE PUSH1 0x4 ADD PUSH2 0x6E4 SWAP1 PUSH2 0x2A78 JUMP JUMPDEST PUSH1 0x1 PUSH1 0x1 PUSH1 0xA0 SHL SUB DUP3 AND PUSH2 0x1135 JUMPI PUSH1 0x40 MLOAD PUSH3 0x461BCD PUSH1 0xE5 SHL DUP2 MSTORE PUSH1 0x20 PUSH1 0x4 DUP3 ADD MSTORE PUSH1 0x18 PUSH1 0x24 DUP3 ADD MSTORE PUSH32 0x53656E64696E6720746F207A65726F20616464726573732E0000000000000000 PUSH1 0x44 DUP3 ADD MSTORE PUSH1 0x64 ADD PUSH2 0x6E4 JUMP JUMPDEST PUSH1 0xD SLOAD SELFBALANCE LT ISZERO PUSH2 0x1187 JUMPI PUSH1 0x40 MLOAD PUSH3 0x461BCD PUSH1 0xE5 SHL DUP2 MSTORE PUSH1 0x20 PUSH1 0x4 DUP3 ADD MSTORE PUSH1 0x1C PUSH1 0x24 DUP3 ADD MSTORE PUSH32 0x526576656E756520213D20436F6E74726163742062616C616E63652E00000000 PUSH1 0x44 DUP3 ADD MSTORE PUSH1 0x64 ADD PUSH2 0x6E4 JUMP JUMPDEST PUSH1 0xD SLOAD PUSH1 0x40 MLOAD PUSH1 0x1 PUSH1 0x1 PUSH1 0xA0 SHL SUB DUP5 AND SWAP2 DUP1 ISZERO PUSH2 0x8FC MUL SWAP2 PUSH1 0x0 DUP2 DUP2 DUP2 DUP6 DUP9 DUP9 CALL SWAP4 POP POP POP POP ISZERO DUP1 ISZERO PUSH2 0x11BE JUMPI RETURNDATASIZE PUSH1 0x0 DUP1 RETURNDATACOPY RETURNDATASIZE PUSH1 0x0 REVERT JUMPDEST POP POP PUSH1 0x0 PUSH1 0xD SSTORE POP JUMP JUMPDEST PUSH1 0x0 DUP2 DUP2 MSTORE PUSH1 0x3 PUSH1 0x20 MSTORE PUSH1 0x40 DUP2 KECCAK256 SLOAD PUSH1 0x1 PUSH1 0x1 PUSH1 0xA0 SHL SUB AND DUP1 PUSH2 0x792 JUMPI PUSH1 0x40 MLOAD PUSH3 0x461BCD PUSH1 0xE5 SHL DUP2 MSTORE PUSH1 0x20 PUSH1 0x4 DUP3 ADD MSTORE PUSH1 0x1C PUSH1 0x24 DUP3 ADD MSTORE PUSH32 0x6F776E65724F663A20746F6B656E20646F65736E277420657869737400000000 PUSH1 0x44 DUP3 ADD MSTORE PUSH1 0x64 ADD PUSH2 0x6E4 JUMP JUMPDEST PUSH1 0x0 PUSH1 0x1 PUSH1 0x1 PUSH1 0xA0 SHL SUB DUP3 AND PUSH2 0x129A JUMPI PUSH1 0x40 MLOAD PUSH3 0x461BCD PUSH1 0xE5 SHL DUP2 MSTORE PUSH1 0x20 PUSH1 0x4 DUP3 ADD MSTORE PUSH1 0x2C PUSH1 0x24 DUP3 ADD MSTORE PUSH32 0x62616C616E63654F663A2061646472657373207A65726F206973206E6F742061 PUSH1 0x44 DUP3 ADD MSTORE PUSH12 0x103B30B634B21037BBB732B9 PUSH1 0xA1 SHL PUSH1 0x64 DUP3 ADD MSTORE PUSH1 0x84 ADD PUSH2 0x6E4 JUMP JUMPDEST POP PUSH1 0x1 PUSH1 0x1 PUSH1 0xA0 SHL SUB AND PUSH1 0x0 SWAP1 DUP2 MSTORE PUSH1 0x5 PUSH1 0x20 MSTORE PUSH1 0x40 SWAP1 KECCAK256 SLOAD SWAP1 JUMP JUMPDEST PUSH2 0x12BE PUSH2 0x1DA3 JUMP JUMPDEST PUSH2 0x12C8 PUSH1 0x0 PUSH2 0x20E2 JUMP JUMPDEST JUMP JUMPDEST PUSH2 0x12D2 PUSH2 0x1DA3 JUMP JUMPDEST DUP2 PUSH2 0x12E5 PUSH1 0x9 SLOAD PUSH1 0x1 PUSH1 0x1 PUSH1 0xA0 SHL SUB AND SWAP1 JUMP JUMPDEST PUSH1 0x1 PUSH1 0x1 PUSH1 0xA0 SHL SUB AND DUP2 PUSH1 0x1 PUSH1 0x1 PUSH1 0xA0 SHL SUB AND EQ PUSH2 0x1315 JUMPI PUSH1 0x40 MLOAD PUSH3 0x461BCD PUSH1 0xE5 SHL DUP2 MSTORE PUSH1 0x4 ADD PUSH2 0x6E4 SWAP1 PUSH2 0x2A78 JUMP JUMPDEST PUSH2 0x9D5 DUP3 PUSH2 0x2134 JUMP JUMPDEST PUSH1 0x60 PUSH1 0x2 DUP1 SLOAD PUSH2 0x7A7 SWAP1 PUSH2 0x2AA6 JUMP JUMPDEST PUSH2 0x1335 PUSH2 0x1DA3 JUMP JUMPDEST DUP6 PUSH2 0x1348 PUSH1 0x9 SLOAD PUSH1 0x1 PUSH1 0x1 PUSH1 0xA0 SHL SUB AND SWAP1 JUMP JUMPDEST PUSH1 0x1 PUSH1 0x1 PUSH1 0xA0 SHL SUB AND DUP2 PUSH1 0x1 PUSH1 0x1 PUSH1 0xA0 SHL SUB AND EQ PUSH2 0x1378 JUMPI PUSH1 0x40 MLOAD PUSH3 0x461BCD PUSH1 0xE5 SHL DUP2 MSTORE PUSH1 0x4 ADD PUSH2 0x6E4 SWAP1 PUSH2 0x2A78 JUMP JUMPDEST PUSH1 0x13 SLOAD PUSH1 0xFF AND ISZERO PUSH2 0x1388 JUMPI PUSH1 0x0 DUP1 REVERT JUMPDEST PUSH1 0x13 DUP1 SLOAD PUSH1 0xFF NOT AND PUSH1 0x1 OR SWAP1 SSTORE PUSH2 0x139F DUP4 DUP4 PUSH2 0x194E JUMP JUMPDEST PUSH2 0x13E5 JUMPI PUSH1 0x40 MLOAD PUSH3 0x461BCD PUSH1 0xE5 SHL DUP2 MSTORE PUSH1 0x20 PUSH1 0x4 DUP3 ADD MSTORE PUSH1 0x17 PUSH1 0x24 DUP3 ADD MSTORE PUSH23 0x2430B9B4103737BA1039B4B3B732B210313C903CB7BA97 PUSH1 0x49 SHL PUSH1 0x44 DUP3 ADD MSTORE PUSH1 0x64 ADD PUSH2 0x6E4 JUMP JUMPDEST PUSH2 0x13F0 DUP7 DUP7 DUP7 PUSH2 0xD4F JUMP JUMPDEST POP POP PUSH1 0x13 DUP1 SLOAD PUSH1 0xFF NOT AND SWAP1 SSTORE POP POP POP POP POP JUMP JUMPDEST PUSH2 0x140B PUSH2 0x1DA3 JUMP JUMPDEST DUP6 PUSH2 0x141E PUSH1 0x9 SLOAD PUSH1 0x1 PUSH1 0x1 PUSH1 0xA0 SHL SUB AND SWAP1 JUMP JUMPDEST PUSH1 0x1 PUSH1 0x1 PUSH1 0xA0 SHL SUB AND DUP2 PUSH1 0x1 PUSH1 0x1 PUSH1 0xA0 SHL SUB AND EQ PUSH2 0x144E JUMPI PUSH1 0x40 MLOAD PUSH3 0x461BCD PUSH1 0xE5 SHL DUP2 MSTORE PUSH1 0x4 ADD PUSH2 0x6E4 SWAP1 PUSH2 0x2A78 JUMP JUMPDEST PUSH1 0x13 SLOAD PUSH1 0xFF AND ISZERO PUSH2 0x145E JUMPI PUSH1 0x0 DUP1 REVERT JUMPDEST PUSH1 0x13 DUP1 SLOAD PUSH1 0xFF NOT AND PUSH1 0x1 OR SWAP1 SSTORE PUSH2 0x1475 DUP4 DUP4 PUSH2 0x194E JUMP JUMPDEST PUSH2 0x14BB JUMPI PUSH1 0x40 MLOAD PUSH3 0x461BCD PUSH1 0xE5 SHL DUP2 MSTORE PUSH1 0x20 PUSH1 0x4 DUP3 ADD MSTORE PUSH1 0x17 PUSH1 0x24 DUP3 ADD MSTORE PUSH23 0x2430B9B4103737BA1039B4B3B732B210313C903CB7BA97 PUSH1 0x49 SHL PUSH1 0x44 DUP3 ADD MSTORE PUSH1 0x64 ADD PUSH2 0x6E4 JUMP JUMPDEST PUSH2 0x13F0 DUP7 DUP7 DUP7 PUSH2 0x1A8F JUMP JUMPDEST PUSH2 0x14CE PUSH2 0x1DA3 JUMP JUMPDEST DUP4 PUSH2 0x14E1 PUSH1 0x9 SLOAD PUSH1 0x1 PUSH1 0x1 PUSH1 0xA0 SHL SUB AND SWAP1 JUMP JUMPDEST PUSH1 0x1 PUSH1 0x1 PUSH1 0xA0 SHL SUB AND DUP2 PUSH1 0x1 PUSH1 0x1 PUSH1 0xA0 SHL SUB AND EQ PUSH2 0x1511 JUMPI PUSH1 0x40 MLOAD PUSH3 0x461BCD PUSH1 0xE5 SHL DUP2 MSTORE PUSH1 0x4 ADD PUSH2 0x6E4 SWAP1 PUSH2 0x2A78 JUMP JUMPDEST PUSH1 0xA SLOAD PUSH1 0xB SLOAD LT PUSH2 0x1559 JUMPI PUSH1 0x40 MLOAD PUSH3 0x461BCD PUSH1 0xE5 SHL DUP2 MSTORE PUSH1 0x20 PUSH1 0x4 DUP3 ADD MSTORE PUSH1 0x12 PUSH1 0x24 DUP3 ADD MSTORE PUSH18 0x24B9B9BAB29021B0B8102932B0B1B432B217 PUSH1 0x71 SHL PUSH1 0x44 DUP3 ADD MSTORE PUSH1 0x64 ADD PUSH2 0x6E4 JUMP JUMPDEST PUSH1 0x1 PUSH1 0x1 PUSH1 0xA0 SHL SUB DUP5 AND PUSH2 0x157F JUMPI PUSH1 0x40 MLOAD PUSH3 0x461BCD PUSH1 0xE5 SHL DUP2 MSTORE PUSH1 0x4 ADD PUSH2 0x6E4 SWAP1 PUSH2 0x2B3D JUMP JUMPDEST PUSH2 0x1588 DUP4 PUSH2 0x1DFD JUMP JUMPDEST ISZERO PUSH2 0x15D5 JUMPI PUSH1 0x40 MLOAD PUSH3 0x461BCD PUSH1 0xE5 SHL DUP2 MSTORE PUSH1 0x20 PUSH1 0x4 DUP3 ADD MSTORE PUSH1 0x1F PUSH1 0x24 DUP3 ADD MSTORE PUSH32 0x4D696E74206F6620616C7265616479206578697374696E6720746F6B656E2E00 PUSH1 0x44 DUP3 ADD MSTORE PUSH1 0x64 ADD PUSH2 0x6E4 JUMP JUMPDEST PUSH1 0x0 DUP4 DUP2 MSTORE PUSH1 0x10 PUSH1 0x20 MSTORE PUSH1 0x40 SWAP1 KECCAK256 SLOAD PUSH1 0xFF AND ISZERO PUSH2 0x1634 JUMPI PUSH1 0x40 MLOAD PUSH3 0x461BCD PUSH1 0xE5 SHL DUP2 MSTORE PUSH1 0x20 PUSH1 0x4 DUP3 ADD MSTORE PUSH1 0x1E PUSH1 0x24 DUP3 ADD MSTORE PUSH32 0x4D696E74206F6620616C72656164792070656E64696E6720746F6B656E2E0000 PUSH1 0x44 DUP3 ADD MSTORE PUSH1 0x64 ADD PUSH2 0x6E4 JUMP JUMPDEST PUSH1 0x0 DUP4 DUP2 MSTORE PUSH1 0x10 PUSH1 0x20 SWAP1 DUP2 MSTORE PUSH1 0x40 DUP1 DUP4 KECCAK256 DUP1 SLOAD PUSH1 0xFF NOT AND PUSH1 0x1 OR SWAP1 SSTORE PUSH1 0x11 SWAP1 SWAP2 MSTORE SWAP1 KECCAK256 DUP1 SLOAD PUSH1 0x1 PUSH1 0x1 PUSH1 0xA0 SHL SUB DUP7 AND PUSH1 0x1 PUSH1 0x1 PUSH1 0xA0 SHL SUB NOT SWAP1 SWAP2 AND OR SWAP1 SSTORE PUSH2 0x167C DUP4 DUP4 PUSH2 0x1698 JUMP JUMPDEST PUSH1 0xB DUP1 SLOAD SWAP1 PUSH1 0x0 PUSH2 0x168C DUP4 PUSH2 0x2B83 JUMP JUMPDEST SWAP2 SWAP1 POP SSTORE POP POP POP POP POP POP JUMP JUMPDEST PUSH2 0x16A2 DUP2 TIMESTAMP PUSH2 0x2B9E JUMP JUMPDEST PUSH1 0x0 DUP4 DUP2 MSTORE PUSH1 0x20 DUP2 DUP2 MSTORE PUSH1 0x40 SWAP2 DUP3 SWAP1 KECCAK256 SWAP3 SWAP1 SWAP3 SSTORE DUP1 MLOAD DUP5 DUP2 MSTORE SWAP2 DUP3 ADD DUP4 SWAP1 MSTORE PUSH32 0x41A73BEB1018A8B63E0F451A8A4F483806142CF14BE45B1A58A23776A1E9B4BC SWAP2 ADD PUSH1 0x40 MLOAD DUP1 SWAP2 SUB SWAP1 LOG1 POP POP JUMP JUMPDEST PUSH1 0x60 PUSH2 0x16FB DUP3 PUSH2 0x1DFD JUMP JUMPDEST PUSH2 0x1747 JUMPI PUSH1 0x40 MLOAD PUSH3 0x461BCD PUSH1 0xE5 SHL DUP2 MSTORE PUSH1 0x20 PUSH1 0x4 DUP3 ADD MSTORE PUSH1 0x1D PUSH1 0x24 DUP3 ADD MSTORE PUSH32 0x746F6B656E5552493A20746F6B656E20646F65736E2774206578697374000000 PUSH1 0x44 DUP3 ADD MSTORE PUSH1 0x64 ADD PUSH2 0x6E4 JUMP JUMPDEST PUSH1 0x0 DUP3 DUP2 MSTORE PUSH1 0x4 PUSH1 0x20 MSTORE PUSH1 0x40 SWAP1 KECCAK256 DUP1 SLOAD PUSH2 0x1760 SWAP1 PUSH2 0x2AA6 JUMP JUMPDEST DUP1 PUSH1 0x1F ADD PUSH1 0x20 DUP1 SWAP2 DIV MUL PUSH1 0x20 ADD PUSH1 0x40 MLOAD SWAP1 DUP2 ADD PUSH1 0x40 MSTORE DUP1 SWAP3 SWAP2 SWAP1 DUP2 DUP2 MSTORE PUSH1 0x20 ADD DUP3 DUP1 SLOAD PUSH2 0x178C SWAP1 PUSH2 0x2AA6 JUMP JUMPDEST DUP1 ISZERO PUSH2 0x17D9 JUMPI DUP1 PUSH1 0x1F LT PUSH2 0x17AE JUMPI PUSH2 0x100 DUP1 DUP4 SLOAD DIV MUL DUP4 MSTORE SWAP2 PUSH1 0x20 ADD SWAP2 PUSH2 0x17D9 JUMP JUMPDEST DUP3 ADD SWAP2 SWAP1 PUSH1 0x0 MSTORE PUSH1 0x20 PUSH1 0x0 KECCAK256 SWAP1 JUMPDEST DUP2 SLOAD DUP2 MSTORE SWAP1 PUSH1 0x1 ADD SWAP1 PUSH1 0x20 ADD DUP1 DUP4 GT PUSH2 0x17BC JUMPI DUP3 SWAP1 SUB PUSH1 0x1F AND DUP3 ADD SWAP2 JUMPDEST POP POP POP POP POP SWAP1 POP SWAP2 SWAP1 POP JUMP JUMPDEST PUSH1 0x60 PUSH1 0x7 DUP1 SLOAD PUSH2 0x17F4 SWAP1 PUSH2 0x2AA6 JUMP JUMPDEST ISZERO ISZERO SWAP1 POP PUSH2 0x1834 JUMPI PUSH1 0x40 MLOAD PUSH3 0x461BCD PUSH1 0xE5 SHL DUP2 MSTORE PUSH1 0x20 PUSH1 0x4 DUP3 ADD MSTORE PUSH1 0xD PUSH1 0x24 DUP3 ADD MSTORE PUSH13 0x456D7074792062617365555249 PUSH1 0x98 SHL PUSH1 0x44 DUP3 ADD MSTORE PUSH1 0x64 ADD PUSH2 0x6E4 JUMP JUMPDEST PUSH1 0x7 DUP1 SLOAD PUSH2 0x7A7 SWAP1 PUSH2 0x2AA6 JUMP JUMPDEST PUSH1 0x1 PUSH1 0x1 PUSH1 0xA0 SHL SUB DUP6 AND PUSH2 0x1867 JUMPI PUSH1 0x40 MLOAD PUSH3 0x461BCD PUSH1 0xE5 SHL DUP2 MSTORE PUSH1 0x4 ADD PUSH2 0x6E4 SWAP1 PUSH2 0x2B3D JUMP JUMPDEST DUP3 MLOAD PUSH1 0x41 EQ PUSH2 0x18B3 JUMPI PUSH1 0x40 MLOAD PUSH3 0x461BCD PUSH1 0xE5 SHL DUP2 MSTORE PUSH1 0x20 PUSH1 0x4 DUP3 ADD MSTORE PUSH1 0x18 PUSH1 0x24 DUP3 ADD MSTORE PUSH24 0x92DCECC2D8D2C840E6D2CEDCC2E8EAE4CA40D8CADCCEE8D PUSH1 0x43 SHL PUSH1 0x44 DUP3 ADD MSTORE PUSH1 0x64 ADD PUSH2 0x6E4 JUMP JUMPDEST PUSH2 0x18BD DUP5 DUP5 PUSH2 0x194E JUMP JUMPDEST PUSH2 0x1905 JUMPI PUSH1 0x40 MLOAD PUSH3 0x461BCD PUSH1 0xE5 SHL DUP2 MSTORE PUSH1 0x20 PUSH1 0x4 DUP3 ADD MSTORE PUSH1 0x19 PUSH1 0x24 DUP3 ADD MSTORE PUSH25 0x2430B9B4103737BA1039B4B3B732B210313C9037BBB732B917 PUSH1 0x39 SHL PUSH1 0x44 DUP3 ADD MSTORE PUSH1 0x64 ADD PUSH2 0x6E4 JUMP JUMPDEST PUSH2 0x1910 DUP6 DUP4 DUP4 PUSH2 0x1FE8 JUMP JUMPDEST POP PUSH1 0x40 MLOAD DUP3 SWAP1 PUSH1 0x1 PUSH1 0x1 PUSH1 0xA0 SHL SUB DUP8 AND SWAP1 PUSH32 0x79AF0E59B31823DD289CEEBABC4D63D25F35926B8548E3A084A500C9D4E18556 SWAP1 PUSH1 0x0 SWAP1 LOG3 POP POP POP POP POP JUMP JUMPDEST PUSH1 0x0 PUSH2 0x195A DUP4 DUP4 PUSH2 0x218A JUMP JUMPDEST SWAP4 SWAP3 POP POP POP JUMP JUMPDEST PUSH1 0x0 DUP2 DUP2 MSTORE PUSH1 0x20 DUP2 SWAP1 MSTORE PUSH1 0x40 DUP2 KECCAK256 SLOAD TIMESTAMP GT ISZERO PUSH2 0x197F JUMPI POP PUSH1 0x0 SWAP2 SWAP1 POP JUMP JUMPDEST PUSH1 0x0 DUP3 DUP2 MSTORE PUSH1 0x20 DUP2 SWAP1 MSTORE PUSH1 0x40 SWAP1 KECCAK256 SLOAD PUSH2 0x792 SWAP1 TIMESTAMP SWAP1 PUSH2 0x2B6C JUMP JUMPDEST SWAP2 SWAP1 POP JUMP JUMPDEST PUSH1 0x20 DUP2 DUP2 ADD MLOAD PUSH1 0x40 DUP1 DUP5 ADD MLOAD PUSH1 0x60 DUP1 DUP7 ADD MLOAD DUP4 MLOAD PUSH1 0x0 DUP1 DUP3 MSTORE DUP2 DUP9 ADD DUP1 DUP8 MSTORE DUP11 SWAP1 MSTORE SWAP2 DUP3 BYTE DUP2 DUP7 ADD DUP2 SWAP1 MSTORE SWAP3 DUP2 ADD DUP7 SWAP1 MSTORE PUSH1 0x80 DUP2 ADD DUP5 SWAP1 MSTORE SWAP4 MLOAD SWAP1 SWAP6 SWAP3 SWAP4 SWAP2 SWAP3 PUSH1 0x1 SWAP3 PUSH1 0xA0 DUP1 DUP3 ADD SWAP4 PUSH1 0x1F NOT DUP2 ADD SWAP3 DUP2 SWAP1 SUB SWAP1 SWAP2 ADD SWAP1 DUP6 GAS STATICCALL ISZERO DUP1 ISZERO PUSH2 0x1A08 JUMPI RETURNDATASIZE PUSH1 0x0 DUP1 RETURNDATACOPY RETURNDATASIZE PUSH1 0x0 REVERT JUMPDEST POP POP POP PUSH1 0x20 PUSH1 0x40 MLOAD SUB MLOAD PUSH1 0x1 PUSH1 0x1 PUSH1 0xA0 SHL SUB AND DUP8 PUSH1 0x1 PUSH1 0x1 PUSH1 0xA0 SHL SUB AND EQ SWAP4 POP POP POP POP SWAP4 SWAP3 POP POP POP JUMP JUMPDEST PUSH2 0x1A3A PUSH2 0x1DA3 JUMP JUMPDEST PUSH1 0xA SLOAD PUSH1 0xB SLOAD LT PUSH2 0x1A82 JUMPI PUSH1 0x40 MLOAD PUSH3 0x461BCD PUSH1 0xE5 SHL DUP2 MSTORE PUSH1 0x20 PUSH1 0x4 DUP3 ADD MSTORE PUSH1 0x12 PUSH1 0x24 DUP3 ADD MSTORE PUSH18 0x24B9B9BAB29021B0B8102932B0B1B432B217 PUSH1 0x71 SHL PUSH1 0x44 DUP3 ADD MSTORE PUSH1 0x64 ADD PUSH2 0x6E4 JUMP JUMPDEST PUSH2 0x167C DUP6 DUP6 DUP6 DUP6 DUP6 PUSH2 0x1841 JUMP JUMPDEST PUSH2 0x1A97 PUSH2 0x1DA3 JUMP JUMPDEST PUSH1 0x13 SLOAD PUSH1 0xFF AND ISZERO PUSH2 0x1AA7 JUMPI PUSH1 0x0 DUP1 REVERT JUMPDEST PUSH1 0x13 DUP1 SLOAD PUSH1 0xFF NOT AND PUSH1 0x1 OR SWAP1 SSTORE PUSH1 0x1 PUSH1 0x1 PUSH1 0xA0 SHL SUB DUP4 AND PUSH2 0x1B0A JUMPI PUSH1 0x40 MLOAD PUSH3 0x461BCD PUSH1 0xE5 SHL DUP2 MSTORE PUSH1 0x20 PUSH1 0x4 DUP3 ADD MSTORE PUSH1 0x1B PUSH1 0x24 DUP3 ADD MSTORE PUSH32 0x526564656D7074696F6E20746F207A65726F20616464726573732E0000000000 PUSH1 0x44 DUP3 ADD MSTORE PUSH1 0x64 ADD PUSH2 0x6E4 JUMP JUMPDEST PUSH2 0x1B13 DUP3 PUSH2 0x1DFD JUMP JUMPDEST ISZERO PUSH2 0x1B60 JUMPI PUSH1 0x40 MLOAD PUSH3 0x461BCD PUSH1 0xE5 SHL DUP2 MSTORE PUSH1 0x20 PUSH1 0x4 DUP3 ADD MSTORE PUSH1 0x1D PUSH1 0x24 DUP3 ADD MSTORE PUSH32 0x526564656D7074696F6E206F66206578697374696E6720746F6B656E2E000000 PUSH1 0x44 DUP3 ADD MSTORE PUSH1 0x64 ADD PUSH2 0x6E4 JUMP JUMPDEST PUSH1 0x0 DUP3 DUP2 MSTORE PUSH1 0x10 PUSH1 0x20 MSTORE PUSH1 0x40 SWAP1 KECCAK256 SLOAD PUSH1 0xFF AND PUSH2 0x1BB8 JUMPI PUSH1 0x40 MLOAD PUSH3 0x461BCD PUSH1 0xE5 SHL DUP2 MSTORE PUSH1 0x20 PUSH1 0x4 DUP3 ADD MSTORE PUSH1 0x17 PUSH1 0x24 DUP3 ADD MSTORE PUSH23 0x20B63932B0B23C903932B1B2B4BB32B2103A37B5B2B717 PUSH1 0x49 SHL PUSH1 0x44 DUP3 ADD MSTORE PUSH1 0x64 ADD PUSH2 0x6E4 JUMP JUMPDEST PUSH1 0x0 DUP3 DUP2 MSTORE PUSH1 0x11 PUSH1 0x20 MSTORE PUSH1 0x40 SWAP1 KECCAK256 SLOAD PUSH1 0x1 PUSH1 0x1 PUSH1 0xA0 SHL SUB DUP5 DUP2 AND SWAP2 AND EQ PUSH2 0xEDB JUMPI PUSH1 0x40 MLOAD PUSH3 0x461BCD PUSH1 0xE5 SHL DUP2 MSTORE PUSH1 0x20 PUSH1 0x4 DUP3 ADD MSTORE PUSH1 0x15 PUSH1 0x24 DUP3 ADD MSTORE PUSH21 0x2737BA103832B73234B733903932B1B2B4BB32B917 PUSH1 0x59 SHL PUSH1 0x44 DUP3 ADD MSTORE PUSH1 0x64 ADD PUSH2 0x6E4 JUMP JUMPDEST PUSH2 0x1C21 PUSH2 0x1DA3 JUMP JUMPDEST PUSH1 0x1 PUSH1 0x1 PUSH1 0xA0 SHL SUB DUP2 AND PUSH2 0x1C86 JUMPI PUSH1 0x40 MLOAD PUSH3 0x461BCD PUSH1 0xE5 SHL DUP2 MSTORE PUSH1 0x20 PUSH1 0x4 DUP3 ADD MSTORE PUSH1 0x26 PUSH1 0x24 DUP3 ADD MSTORE PUSH32 0x4F776E61626C653A206E6577206F776E657220697320746865207A65726F2061 PUSH1 0x44 DUP3 ADD MSTORE PUSH6 0x646472657373 PUSH1 0xD0 SHL PUSH1 0x64 DUP3 ADD MSTORE PUSH1 0x84 ADD PUSH2 0x6E4 JUMP JUMPDEST PUSH2 0x1091 DUP2 PUSH2 0x20E2 JUMP JUMPDEST PUSH1 0x0 PUSH1 0x1 PUSH1 0x1 PUSH1 0xA0 SHL SUB DUP4 AND PUSH2 0x1CE7 JUMPI PUSH1 0x40 MLOAD PUSH3 0x461BCD PUSH1 0xE5 SHL DUP2 MSTORE PUSH1 0x20 PUSH1 0x4 DUP3 ADD MSTORE PUSH1 0x17 PUSH1 0x24 DUP3 ADD MSTORE PUSH32 0x517565727920666F72207A65726F20616464726573732E000000000000000000 PUSH1 0x44 DUP3 ADD MSTORE PUSH1 0x64 ADD PUSH2 0x6E4 JUMP JUMPDEST PUSH2 0x1CF0 DUP3 PUSH2 0x1DFD JUMP JUMPDEST PUSH2 0x1D32 JUMPI PUSH1 0x40 MLOAD PUSH3 0x461BCD PUSH1 0xE5 SHL DUP2 MSTORE PUSH1 0x20 PUSH1 0x4 DUP3 ADD MSTORE PUSH1 0x13 PUSH1 0x24 DUP3 ADD MSTORE PUSH19 0x2737B716B2BC34B9BA32B73A103A37B5B2B717 PUSH1 0x69 SHL PUSH1 0x44 DUP3 ADD MSTORE PUSH1 0x64 ADD PUSH2 0x6E4 JUMP JUMPDEST DUP3 PUSH1 0x1 PUSH1 0x1 PUSH1 0xA0 SHL SUB AND PUSH2 0x1D45 DUP4 PUSH2 0x11C8 JUMP JUMPDEST PUSH1 0x1 PUSH1 0x1 PUSH1 0xA0 SHL SUB AND EQ PUSH2 0x1D9B JUMPI PUSH1 0x40 MLOAD PUSH3 0x461BCD PUSH1 0xE5 SHL DUP2 MSTORE PUSH1 0x20 PUSH1 0x4 DUP3 ADD MSTORE PUSH1 0x1A PUSH1 0x24 DUP3 ADD MSTORE PUSH32 0x546F6B656E206E6F74206F776E65642062792061646472657373000000000000 PUSH1 0x44 DUP3 ADD MSTORE PUSH1 0x64 ADD PUSH2 0x6E4 JUMP JUMPDEST POP ADDRESS SWAP3 SWAP2 POP POP JUMP JUMPDEST PUSH1 0x6 SLOAD PUSH1 0x1 PUSH1 0x1 PUSH1 0xA0 SHL SUB AND CALLER EQ PUSH2 0x12C8 JUMPI PUSH1 0x40 MLOAD PUSH3 0x461BCD PUSH1 0xE5 SHL DUP2 MSTORE PUSH1 0x20 PUSH1 0x4 DUP3 ADD DUP2 SWAP1 MSTORE PUSH1 0x24 DUP3 ADD MSTORE PUSH32 0x4F776E61626C653A2063616C6C6572206973206E6F7420746865206F776E6572 PUSH1 0x44 DUP3 ADD MSTORE PUSH1 0x64 ADD PUSH2 0x6E4 JUMP JUMPDEST PUSH1 0x0 SWAP1 DUP2 MSTORE PUSH1 0x3 PUSH1 0x20 MSTORE PUSH1 0x40 SWAP1 KECCAK256 SLOAD PUSH1 0x1 PUSH1 0x1 PUSH1 0xA0 SHL SUB AND ISZERO ISZERO SWAP1 JUMP JUMPDEST PUSH1 0x0 PUSH2 0x1E25 DUP3 PUSH2 0x1DFD JUMP JUMPDEST PUSH2 0x1E67 JUMPI PUSH1 0x40 MLOAD PUSH3 0x461BCD PUSH1 0xE5 SHL DUP2 MSTORE PUSH1 0x20 PUSH1 0x4 DUP3 ADD MSTORE PUSH1 0x13 PUSH1 0x24 DUP3 ADD MSTORE PUSH19 0x2737B716B2BC34B9BA32B73A103A37B5B2B717 PUSH1 0x69 SHL PUSH1 0x44 DUP3 ADD MSTORE PUSH1 0x64 ADD PUSH2 0x6E4 JUMP JUMPDEST DUP3 PUSH1 0x1 PUSH1 0x1 PUSH1 0xA0 SHL SUB AND PUSH2 0x1E7A DUP4 PUSH2 0x11C8 JUMP JUMPDEST PUSH1 0x1 PUSH1 0x1 PUSH1 0xA0 SHL SUB AND EQ PUSH2 0x1ED0 JUMPI PUSH1 0x40 MLOAD PUSH3 0x461BCD PUSH1 0xE5 SHL DUP2 MSTORE PUSH1 0x20 PUSH1 0x4 DUP3 ADD MSTORE PUSH1 0x1A PUSH1 0x24 DUP3 ADD MSTORE PUSH32 0x546F6B656E206E6F74206F776E65642062792061646472657373000000000000 PUSH1 0x44 DUP3 ADD MSTORE PUSH1 0x64 ADD PUSH2 0x6E4 JUMP JUMPDEST PUSH2 0x1ED9 DUP3 PUSH2 0x230D JUMP JUMPDEST POP PUSH1 0x1 SWAP3 SWAP2 POP POP JUMP JUMPDEST PUSH1 0x60 DUP2 PUSH2 0x1F06 JUMPI POP POP PUSH1 0x40 DUP1 MLOAD DUP1 DUP3 ADD SWAP1 SWAP2 MSTORE PUSH1 0x1 DUP2 MSTORE PUSH1 0x3 PUSH1 0xFC SHL PUSH1 0x20 DUP3 ADD MSTORE SWAP1 JUMP JUMPDEST DUP2 PUSH1 0x0 JUMPDEST DUP2 ISZERO PUSH2 0x1F30 JUMPI DUP1 PUSH2 0x1F1A DUP2 PUSH2 0x2B83 JUMP JUMPDEST SWAP2 POP PUSH2 0x1F29 SWAP1 POP PUSH1 0xA DUP4 PUSH2 0x2BCC JUMP JUMPDEST SWAP2 POP PUSH2 0x1F0A JUMP JUMPDEST PUSH1 0x0 DUP2 PUSH8 0xFFFFFFFFFFFFFFFF DUP2 GT ISZERO PUSH2 0x1F4B JUMPI PUSH2 0x1F4B PUSH2 0x26E2 JUMP JUMPDEST PUSH1 0x40 MLOAD SWAP1 DUP1 DUP3 MSTORE DUP1 PUSH1 0x1F ADD PUSH1 0x1F NOT AND PUSH1 0x20 ADD DUP3 ADD PUSH1 0x40 MSTORE DUP1 ISZERO PUSH2 0x1F75 JUMPI PUSH1 0x20 DUP3 ADD DUP2 DUP1 CALLDATASIZE DUP4 CALLDATACOPY ADD SWAP1 POP JUMPDEST POP SWAP1 POP JUMPDEST DUP5 ISZERO PUSH2 0x1FE0 JUMPI PUSH2 0x1F8A PUSH1 0x1 DUP4 PUSH2 0x2B6C JUMP JUMPDEST SWAP2 POP PUSH2 0x1F97 PUSH1 0xA DUP7 PUSH2 0x2BE0 JUMP JUMPDEST PUSH2 0x1FA2 SWAP1 PUSH1 0x30 PUSH2 0x2B9E JUMP JUMPDEST PUSH1 0xF8 SHL DUP2 DUP4 DUP2 MLOAD DUP2 LT PUSH2 0x1FB7 JUMPI PUSH2 0x1FB7 PUSH2 0x2BF4 JUMP JUMPDEST PUSH1 0x20 ADD ADD SWAP1 PUSH1 0x1 PUSH1 0x1 PUSH1 0xF8 SHL SUB NOT AND SWAP1 DUP2 PUSH1 0x0 BYTE SWAP1 MSTORE8 POP PUSH2 0x1FD9 PUSH1 0xA DUP7 PUSH2 0x2BCC JUMP JUMPDEST SWAP5 POP PUSH2 0x1F79 JUMP JUMPDEST SWAP5 SWAP4 POP POP POP POP JUMP JUMPDEST PUSH1 0x0 PUSH2 0x1FF5 DUP5 DUP5 DUP5 PUSH2 0x23A3 JUMP JUMPDEST POP PUSH1 0x1 SWAP4 SWAP3 POP POP POP JUMP JUMPDEST PUSH1 0x0 PUSH5 0x746A528800 PUSH1 0xD SLOAD LT ISZERO PUSH2 0x2015 JUMPI PUSH1 0x0 SWAP2 POP JUMPDEST PUSH2 0x3E8 PUSH1 0xD SLOAD DUP4 PUSH2 0x2026 SWAP2 SWAP1 PUSH2 0x2C0A JUMP JUMPDEST PUSH2 0x2031 SWAP1 PUSH1 0xA PUSH2 0x2C0A JUMP JUMPDEST PUSH2 0x792 SWAP2 SWAP1 PUSH2 0x2BCC JUMP JUMPDEST PUSH1 0x0 PUSH2 0x2046 DUP3 PUSH2 0x11C8 JUMP JUMPDEST PUSH1 0x1 PUSH1 0x1 PUSH1 0xA0 SHL SUB DUP2 AND PUSH1 0x0 SWAP1 DUP2 MSTORE PUSH1 0x5 PUSH1 0x20 MSTORE PUSH1 0x40 DUP2 KECCAK256 DUP1 SLOAD SWAP3 SWAP4 POP PUSH1 0x1 SWAP3 SWAP1 SWAP2 SWAP1 PUSH2 0x2074 SWAP1 DUP5 SWAP1 PUSH2 0x2B6C JUMP JUMPDEST SWAP1 SWAP2 SSTORE POP POP PUSH1 0x0 DUP3 DUP2 MSTORE PUSH1 0x3 PUSH1 0x20 SWAP1 DUP2 MSTORE PUSH1 0x40 DUP1 DUP4 KECCAK256 DUP1 SLOAD PUSH1 0x1 PUSH1 0x1 PUSH1 0xA0 SHL SUB NOT AND SWAP1 SSTORE PUSH1 0x4 SWAP1 SWAP2 MSTORE DUP2 KECCAK256 PUSH2 0x20A8 SWAP2 PUSH2 0x2541 JUMP JUMPDEST PUSH1 0x40 MLOAD DUP3 SWAP1 PUSH1 0x1 PUSH1 0x1 PUSH1 0xA0 SHL SUB DUP4 AND SWAP1 PUSH32 0xEC9AB91322523C899EDE7830EC9BFC992B5981CDCC27B91162FB23DE5791117B SWAP1 PUSH1 0x0 SWAP1 LOG3 POP POP JUMP JUMPDEST PUSH1 0x6 DUP1 SLOAD PUSH1 0x1 PUSH1 0x1 PUSH1 0xA0 SHL SUB DUP4 DUP2 AND PUSH1 0x1 PUSH1 0x1 PUSH1 0xA0 SHL SUB NOT DUP4 AND DUP2 OR SWAP1 SWAP4 SSTORE PUSH1 0x40 MLOAD SWAP2 AND SWAP2 SWAP1 DUP3 SWAP1 PUSH32 0x8BE0079C531659141344CD1FD0A4F28419497F9722A3DAAFE3B4186F6B6457E0 SWAP1 PUSH1 0x0 SWAP1 LOG3 POP POP JUMP JUMPDEST DUP1 MLOAD PUSH2 0x2173 JUMPI PUSH1 0x40 MLOAD PUSH3 0x461BCD PUSH1 0xE5 SHL DUP2 MSTORE PUSH1 0x20 PUSH1 0x4 DUP3 ADD MSTORE PUSH1 0xE PUSH1 0x24 DUP3 ADD MSTORE PUSH14 0x92DCECC2D8D2C840D8CADCCEE8D PUSH1 0x93 SHL PUSH1 0x44 DUP3 ADD MSTORE PUSH1 0x64 ADD PUSH2 0x6E4 JUMP JUMPDEST DUP1 MLOAD PUSH2 0x2186 SWAP1 PUSH1 0x7 SWAP1 PUSH1 0x20 DUP5 ADD SWAP1 PUSH2 0x257B JUMP JUMPDEST POP POP JUMP JUMPDEST PUSH1 0x0 PUSH2 0x2194 PUSH2 0x1DA3 JUMP JUMPDEST PUSH1 0x6 SLOAD PUSH1 0x1 PUSH1 0x1 PUSH1 0xA0 SHL SUB AND CALLER EQ PUSH2 0x2202 JUMPI PUSH1 0x40 MLOAD PUSH3 0x461BCD PUSH1 0xE5 SHL DUP2 MSTORE PUSH1 0x20 PUSH1 0x4 DUP3 ADD MSTORE PUSH1 0x2B PUSH1 0x24 DUP3 ADD MSTORE PUSH32 0x4552433732313A3A2043616C6C20746F20636F6E7472616374206D6164652062 PUSH1 0x44 DUP3 ADD MSTORE PUSH11 0x3C903737B716B7BBB732B9 PUSH1 0xA9 SHL PUSH1 0x64 DUP3 ADD MSTORE PUSH1 0x84 ADD PUSH2 0x6E4 JUMP JUMPDEST DUP2 MLOAD PUSH1 0x41 EQ PUSH2 0x2253 JUMPI PUSH1 0x40 MLOAD PUSH3 0x461BCD PUSH1 0xE5 SHL DUP2 MSTORE PUSH1 0x20 PUSH1 0x4 DUP3 ADD MSTORE PUSH1 0x1E PUSH1 0x24 DUP3 ADD MSTORE PUSH32 0x4572723A3A20496E76616C6964207369676E6174757265206C656E6774680000 PUSH1 0x44 DUP3 ADD MSTORE PUSH1 0x64 ADD PUSH2 0x6E4 JUMP JUMPDEST PUSH1 0x20 DUP3 DUP2 ADD MLOAD PUSH1 0x40 DUP1 DUP6 ADD MLOAD PUSH1 0x60 DUP1 DUP8 ADD MLOAD DUP4 MLOAD PUSH1 0x0 DUP1 DUP3 MSTORE SWAP7 DUP2 ADD DUP1 DUP7 MSTORE DUP11 SWAP1 MSTORE SWAP1 DUP7 BYTE SWAP4 DUP2 ADD DUP5 SWAP1 MSTORE SWAP1 DUP2 ADD DUP5 SWAP1 MSTORE PUSH1 0x80 DUP2 ADD DUP3 SWAP1 MSTORE SWAP3 SWAP4 SWAP1 SWAP3 PUSH1 0x1 SWAP1 PUSH1 0xA0 ADD PUSH1 0x20 PUSH1 0x40 MLOAD PUSH1 0x20 DUP2 SUB SWAP1 DUP1 DUP5 SUB SWAP1 DUP6 GAS STATICCALL ISZERO DUP1 ISZERO PUSH2 0x22B7 JUMPI RETURNDATASIZE PUSH1 0x0 DUP1 RETURNDATACOPY RETURNDATASIZE PUSH1 0x0 REVERT JUMPDEST POP POP PUSH1 0x40 MLOAD PUSH1 0x1F NOT DUP2 ADD MLOAD PUSH1 0x9 SLOAD SWAP1 SWAP4 POP PUSH1 0x1 PUSH1 0x1 PUSH1 0xA0 SHL SUB DUP1 DUP6 AND SWAP2 AND EQ SWAP2 POP DUP2 SWAP1 DUP10 SWAP1 PUSH32 0x7E4FE2A2A805A357593FDBDDE58C02F6A53D8B4960744CD31A98697FC11C2E36 SWAP1 PUSH1 0x0 SWAP1 LOG3 SWAP8 SWAP7 POP POP POP POP POP POP POP JUMP JUMPDEST PUSH2 0x2316 DUP2 PUSH2 0x1DFD JUMP JUMPDEST PUSH2 0x2362 JUMPI PUSH1 0x40 MLOAD PUSH3 0x461BCD PUSH1 0xE5 SHL DUP2 MSTORE PUSH1 0x20 PUSH1 0x4 DUP3 ADD MSTORE PUSH1 0x18 PUSH1 0x24 DUP3 ADD MSTORE PUSH32 0x4275726E206F6620696E6578697374656E7420746F6B656E0000000000000000 PUSH1 0x44 DUP3 ADD MSTORE PUSH1 0x64 ADD PUSH2 0x6E4 JUMP JUMPDEST PUSH1 0x0 PUSH2 0x236D DUP3 PUSH2 0x11C8 JUMP JUMPDEST SWAP1 POP PUSH2 0x2378 DUP3 PUSH2 0x203B JUMP JUMPDEST PUSH1 0x1 PUSH1 0x1 PUSH1 0xA0 SHL SUB AND PUSH1 0x0 SWAP1 DUP2 MSTORE PUSH1 0x8 PUSH1 0x20 SWAP1 DUP2 MSTORE PUSH1 0x40 DUP1 DUP4 KECCAK256 SWAP4 DUP4 MSTORE SWAP3 SWAP1 MSTORE KECCAK256 DUP1 SLOAD PUSH1 0xFF NOT AND SWAP1 SSTORE JUMP JUMPDEST PUSH1 0x1 PUSH1 0x1 PUSH1 0xA0 SHL SUB DUP4 AND PUSH2 0x23C9 JUMPI PUSH1 0x40 MLOAD PUSH3 0x461BCD PUSH1 0xE5 SHL DUP2 MSTORE PUSH1 0x4 ADD PUSH2 0x6E4 SWAP1 PUSH2 0x2B3D JUMP JUMPDEST DUP1 MLOAD PUSH2 0x2409 JUMPI PUSH1 0x40 MLOAD PUSH3 0x461BCD PUSH1 0xE5 SHL DUP2 MSTORE PUSH1 0x20 PUSH1 0x4 DUP3 ADD MSTORE PUSH1 0xF PUSH1 0x24 DUP3 ADD MSTORE PUSH15 0x22B6B83A3C903A37B5B2B72AA92497 PUSH1 0x89 SHL PUSH1 0x44 DUP3 ADD MSTORE PUSH1 0x64 ADD PUSH2 0x6E4 JUMP JUMPDEST PUSH2 0x2414 DUP4 DUP4 DUP4 PUSH2 0x2446 JUMP JUMPDEST POP POP PUSH1 0x1 PUSH1 0x1 PUSH1 0xA0 SHL SUB SWAP1 SWAP2 AND PUSH1 0x0 SWAP1 DUP2 MSTORE PUSH1 0x8 PUSH1 0x20 SWAP1 DUP2 MSTORE PUSH1 0x40 DUP1 DUP4 KECCAK256 SWAP4 DUP4 MSTORE SWAP3 SWAP1 MSTORE KECCAK256 DUP1 SLOAD PUSH1 0xFF NOT AND PUSH1 0x1 OR SWAP1 SSTORE JUMP JUMPDEST PUSH1 0x0 PUSH2 0x2451 DUP4 PUSH2 0x1DFD JUMP JUMPDEST ISZERO PUSH2 0x2495 JUMPI PUSH1 0x40 MLOAD PUSH3 0x461BCD PUSH1 0xE5 SHL DUP2 MSTORE PUSH1 0x20 PUSH1 0x4 DUP3 ADD MSTORE PUSH1 0x14 PUSH1 0x24 DUP3 ADD MSTORE PUSH20 0x6D696E743A20746F6B656E494420657869737473 PUSH1 0x60 SHL PUSH1 0x44 DUP3 ADD MSTORE PUSH1 0x64 ADD PUSH2 0x6E4 JUMP JUMPDEST PUSH1 0x1 PUSH1 0x1 PUSH1 0xA0 SHL SUB DUP5 AND PUSH1 0x0 SWAP1 DUP2 MSTORE PUSH1 0x5 PUSH1 0x20 MSTORE PUSH1 0x40 DUP2 KECCAK256 DUP1 SLOAD PUSH1 0x1 SWAP3 SWAP1 PUSH2 0x24BE SWAP1 DUP5 SWAP1 PUSH2 0x2B9E JUMP JUMPDEST SWAP1 SWAP2 SSTORE POP POP PUSH1 0x0 DUP4 DUP2 MSTORE PUSH1 0x3 PUSH1 0x20 SWAP1 DUP2 MSTORE PUSH1 0x40 DUP1 DUP4 KECCAK256 DUP1 SLOAD PUSH1 0x1 PUSH1 0x1 PUSH1 0xA0 SHL SUB NOT AND PUSH1 0x1 PUSH1 0x1 PUSH1 0xA0 SHL SUB DUP10 AND OR SWAP1 SSTORE PUSH1 0x4 DUP3 MSTORE SWAP1 SWAP2 KECCAK256 DUP4 MLOAD PUSH2 0x2502 SWAP3 DUP6 ADD SWAP1 PUSH2 0x257B JUMP JUMPDEST POP PUSH1 0x40 MLOAD DUP4 SWAP1 PUSH1 0x1 PUSH1 0x1 PUSH1 0xA0 SHL SUB DUP7 AND SWAP1 PUSH32 0xE9274A84B19E9428826DE6BAE8C48329354F8F0E73F771B97CAE2D9DCCD45A27 SWAP1 PUSH1 0x0 SWAP1 LOG3 POP SWAP1 SWAP3 SWAP2 POP POP JUMP JUMPDEST POP DUP1 SLOAD PUSH2 0x254D SWAP1 PUSH2 0x2AA6 JUMP JUMPDEST PUSH1 0x0 DUP3 SSTORE DUP1 PUSH1 0x1F LT PUSH2 0x255D JUMPI POP POP JUMP JUMPDEST PUSH1 0x1F ADD PUSH1 0x20 SWAP1 DIV SWAP1 PUSH1 0x0 MSTORE PUSH1 0x20 PUSH1 0x0 KECCAK256 SWAP1 DUP2 ADD SWAP1 PUSH2 0x1091 SWAP2 SWAP1 PUSH2 0x25FF JUMP JUMPDEST DUP3 DUP1 SLOAD PUSH2 0x2587 SWAP1 PUSH2 0x2AA6 JUMP JUMPDEST SWAP1 PUSH1 0x0 MSTORE PUSH1 0x20 PUSH1 0x0 KECCAK256 SWAP1 PUSH1 0x1F ADD PUSH1 0x20 SWAP1 DIV DUP2 ADD SWAP3 DUP3 PUSH2 0x25A9 JUMPI PUSH1 0x0 DUP6 SSTORE PUSH2 0x25EF JUMP JUMPDEST DUP3 PUSH1 0x1F LT PUSH2 0x25C2 JUMPI DUP1 MLOAD PUSH1 0xFF NOT AND DUP4 DUP1 ADD OR DUP6 SSTORE PUSH2 0x25EF JUMP JUMPDEST DUP3 DUP1 ADD PUSH1 0x1 ADD DUP6 SSTORE DUP3 ISZERO PUSH2 0x25EF JUMPI SWAP2 DUP3 ADD JUMPDEST DUP3 DUP2 GT ISZERO PUSH2 0x25EF JUMPI DUP3 MLOAD DUP3 SSTORE SWAP2 PUSH1 0x20 ADD SWAP2 SWAP1 PUSH1 0x1 ADD SWAP1 PUSH2 0x25D4 JUMP JUMPDEST POP PUSH2 0x25FB SWAP3 SWAP2 POP PUSH2 0x25FF JUMP JUMPDEST POP SWAP1 JUMP JUMPDEST JUMPDEST DUP1 DUP3 GT ISZERO PUSH2 0x25FB JUMPI PUSH1 0x0 DUP2 SSTORE PUSH1 0x1 ADD PUSH2 0x2600 JUMP JUMPDEST DUP1 CALLDATALOAD PUSH1 0x1 PUSH1 0x1 PUSH1 0xA0 SHL SUB DUP2 AND DUP2 EQ PUSH2 0x1999 JUMPI PUSH1 0x0 DUP1 REVERT JUMPDEST PUSH1 0x0 DUP1 PUSH1 0x40 DUP4 DUP6 SUB SLT ISZERO PUSH2 0x263E JUMPI PUSH1 0x0 DUP1 REVERT JUMPDEST PUSH2 0x2647 DUP4 PUSH2 0x2614 JUMP JUMPDEST SWAP5 PUSH1 0x20 SWAP4 SWAP1 SWAP4 ADD CALLDATALOAD SWAP4 POP POP POP JUMP JUMPDEST PUSH1 0x0 PUSH1 0x20 DUP3 DUP5 SUB SLT ISZERO PUSH2 0x2667 JUMPI PUSH1 0x0 DUP1 REVERT JUMPDEST DUP2 CALLDATALOAD PUSH1 0x1 PUSH1 0x1 PUSH1 0xE0 SHL SUB NOT DUP2 AND DUP2 EQ PUSH2 0x195A JUMPI PUSH1 0x0 DUP1 REVERT JUMPDEST PUSH1 0x0 JUMPDEST DUP4 DUP2 LT ISZERO PUSH2 0x269A JUMPI DUP2 DUP2 ADD MLOAD DUP4 DUP3 ADD MSTORE PUSH1 0x20 ADD PUSH2 0x2682 JUMP JUMPDEST DUP4 DUP2 GT ISZERO PUSH2 0x26A9 JUMPI PUSH1 0x0 DUP5 DUP5 ADD MSTORE JUMPDEST POP POP POP POP JUMP JUMPDEST PUSH1 0x20 DUP2 MSTORE PUSH1 0x0 DUP3 MLOAD DUP1 PUSH1 0x20 DUP5 ADD MSTORE PUSH2 0x26CE DUP2 PUSH1 0x40 DUP6 ADD PUSH1 0x20 DUP8 ADD PUSH2 0x267F JUMP JUMPDEST PUSH1 0x1F ADD PUSH1 0x1F NOT AND SWAP2 SWAP1 SWAP2 ADD PUSH1 0x40 ADD SWAP3 SWAP2 POP POP JUMP JUMPDEST PUSH4 0x4E487B71 PUSH1 0xE0 SHL PUSH1 0x0 MSTORE PUSH1 0x41 PUSH1 0x4 MSTORE PUSH1 0x24 PUSH1 0x0 REVERT JUMPDEST PUSH1 0x0 DUP3 PUSH1 0x1F DUP4 ADD SLT PUSH2 0x2709 JUMPI PUSH1 0x0 DUP1 REVERT JUMPDEST DUP2 CALLDATALOAD PUSH8 0xFFFFFFFFFFFFFFFF DUP1 DUP3 GT ISZERO PUSH2 0x2724 JUMPI PUSH2 0x2724 PUSH2 0x26E2 JUMP JUMPDEST PUSH1 0x40 MLOAD PUSH1 0x1F DUP4 ADD PUSH1 0x1F NOT SWAP1 DUP2 AND PUSH1 0x3F ADD AND DUP2 ADD SWAP1 DUP3 DUP3 GT DUP2 DUP4 LT OR ISZERO PUSH2 0x274C JUMPI PUSH2 0x274C PUSH2 0x26E2 JUMP JUMPDEST DUP2 PUSH1 0x40 MSTORE DUP4 DUP2 MSTORE DUP7 PUSH1 0x20 DUP6 DUP9 ADD ADD GT ISZERO PUSH2 0x2765 JUMPI PUSH1 0x0 DUP1 REVERT JUMPDEST DUP4 PUSH1 0x20 DUP8 ADD PUSH1 0x20 DUP4 ADD CALLDATACOPY PUSH1 0x0 PUSH1 0x20 DUP6 DUP4 ADD ADD MSTORE DUP1 SWAP5 POP POP POP POP POP SWAP3 SWAP2 POP POP JUMP JUMPDEST PUSH1 0x0 DUP1 PUSH1 0x0 PUSH1 0x60 DUP5 DUP7 SUB SLT ISZERO PUSH2 0x279A JUMPI PUSH1 0x0 DUP1 REVERT JUMPDEST DUP4 CALLDATALOAD SWAP3 POP PUSH1 0x20 DUP5 ADD CALLDATALOAD PUSH8 0xFFFFFFFFFFFFFFFF DUP2 GT ISZERO PUSH2 0x27B8 JUMPI PUSH1 0x0 DUP1 REVERT JUMPDEST PUSH2 0x27C4 DUP7 DUP3 DUP8 ADD PUSH2 0x26F8 JUMP JUMPDEST SWAP3 POP POP PUSH1 0x40 DUP5 ADD CALLDATALOAD SWAP1 POP SWAP3 POP SWAP3 POP SWAP3 JUMP JUMPDEST PUSH1 0x0 PUSH1 0x20 DUP3 DUP5 SUB SLT ISZERO PUSH2 0x27E7 JUMPI PUSH1 0x0 DUP1 REVERT JUMPDEST POP CALLDATALOAD SWAP2 SWAP1 POP JUMP JUMPDEST PUSH1 0x0 DUP1 PUSH1 0x0 PUSH1 0x60 DUP5 DUP7 SUB SLT ISZERO PUSH2 0x2803 JUMPI PUSH1 0x0 DUP1 REVERT JUMPDEST PUSH2 0x280C DUP5 PUSH2 0x2614 JUMP JUMPDEST SWAP6 PUSH1 0x20 DUP6 ADD CALLDATALOAD SWAP6 POP PUSH1 0x40 SWAP1 SWAP5 ADD CALLDATALOAD SWAP4 SWAP3 POP POP POP JUMP JUMPDEST PUSH1 0x0 PUSH1 0x20 DUP3 DUP5 SUB SLT ISZERO PUSH2 0x2833 JUMPI PUSH1 0x0 DUP1 REVERT JUMPDEST PUSH2 0x195A DUP3 PUSH2 0x2614 JUMP JUMPDEST PUSH1 0x0 DUP1 PUSH1 0x40 DUP4 DUP6 SUB SLT ISZERO PUSH2 0x284F JUMPI PUSH1 0x0 DUP1 REVERT JUMPDEST PUSH2 0x2858 DUP4 PUSH2 0x2614 JUMP JUMPDEST SWAP2 POP PUSH1 0x20 DUP4 ADD CALLDATALOAD PUSH8 0xFFFFFFFFFFFFFFFF DUP2 GT ISZERO PUSH2 0x2874 JUMPI PUSH1 0x0 DUP1 REVERT JUMPDEST PUSH2 0x2880 DUP6 DUP3 DUP7 ADD PUSH2 0x26F8 JUMP JUMPDEST SWAP2 POP POP SWAP3 POP SWAP3 SWAP1 POP JUMP JUMPDEST PUSH1 0x0 DUP1 PUSH1 0x0 DUP1 PUSH1 0x0 DUP1 PUSH1 0xC0 DUP8 DUP10 SUB SLT ISZERO PUSH2 0x28A3 JUMPI PUSH1 0x0 DUP1 REVERT JUMPDEST PUSH2 0x28AC DUP8 PUSH2 0x2614 JUMP JUMPDEST SWAP6 POP PUSH2 0x28BA PUSH1 0x20 DUP9 ADD PUSH2 0x2614 JUMP JUMPDEST SWAP5 POP PUSH1 0x40 DUP8 ADD CALLDATALOAD SWAP4 POP PUSH1 0x60 DUP8 ADD CALLDATALOAD SWAP3 POP PUSH1 0x80 DUP8 ADD CALLDATALOAD SWAP2 POP PUSH1 0xA0 DUP8 ADD CALLDATALOAD PUSH8 0xFFFFFFFFFFFFFFFF DUP2 GT ISZERO PUSH2 0x28EB JUMPI PUSH1 0x0 DUP1 REVERT JUMPDEST PUSH2 0x28F7 DUP10 DUP3 DUP11 ADD PUSH2 0x26F8 JUMP JUMPDEST SWAP2 POP POP SWAP3 SWAP6 POP SWAP3 SWAP6 POP SWAP3 SWAP6 JUMP JUMPDEST PUSH1 0x0 DUP1 PUSH1 0x0 DUP1 PUSH1 0x80 DUP6 DUP8 SUB SLT ISZERO PUSH2 0x291A JUMPI PUSH1 0x0 DUP1 REVERT JUMPDEST PUSH2 0x2923 DUP6 PUSH2 0x2614 JUMP JUMPDEST SWAP4 POP PUSH2 0x2931 PUSH1 0x20 DUP7 ADD PUSH2 0x2614 JUMP JUMPDEST SWAP4 SWAP7 SWAP4 SWAP6 POP POP POP POP PUSH1 0x40 DUP3 ADD CALLDATALOAD SWAP2 PUSH1 0x60 ADD CALLDATALOAD SWAP1 JUMP JUMPDEST PUSH1 0x0 DUP1 PUSH1 0x40 DUP4 DUP6 SUB SLT ISZERO PUSH2 0x2959 JUMPI PUSH1 0x0 DUP1 REVERT JUMPDEST POP POP DUP1 CALLDATALOAD SWAP3 PUSH1 0x20 SWAP1 SWAP2 ADD CALLDATALOAD SWAP2 POP JUMP JUMPDEST PUSH1 0x0 DUP1 PUSH1 0x0 DUP1 PUSH1 0x0 PUSH1 0xA0 DUP7 DUP9 SUB SLT ISZERO PUSH2 0x2980 JUMPI PUSH1 0x0 DUP1 REVERT JUMPDEST PUSH2 0x2989 DUP7 PUSH2 0x2614 JUMP JUMPDEST SWAP5 POP PUSH1 0x20 DUP7 ADD CALLDATALOAD SWAP4 POP PUSH1 0x40 DUP7 ADD CALLDATALOAD PUSH8 0xFFFFFFFFFFFFFFFF DUP1 DUP3 GT ISZERO PUSH2 0x29AD JUMPI PUSH1 0x0 DUP1 REVERT JUMPDEST PUSH2 0x29B9 DUP10 DUP4 DUP11 ADD PUSH2 0x26F8 JUMP JUMPDEST SWAP5 POP PUSH1 0x60 DUP9 ADD CALLDATALOAD SWAP4 POP PUSH1 0x80 DUP9 ADD CALLDATALOAD SWAP2 POP DUP1 DUP3 GT ISZERO PUSH2 0x29D6 JUMPI PUSH1 0x0 DUP1 REVERT JUMPDEST POP PUSH2 0x29E3 DUP9 DUP3 DUP10 ADD PUSH2 0x26F8 JUMP JUMPDEST SWAP2 POP POP SWAP3 SWAP6 POP SWAP3 SWAP6 SWAP1 SWAP4 POP JUMP JUMPDEST PUSH1 0x0 DUP1 PUSH1 0x40 DUP4 DUP6 SUB SLT ISZERO PUSH2 0x2A03 JUMPI PUSH1 0x0 DUP1 REVERT JUMPDEST DUP3 CALLDATALOAD SWAP2 POP PUSH1 0x20 DUP4 ADD CALLDATALOAD PUSH8 0xFFFFFFFFFFFFFFFF DUP2 GT ISZERO PUSH2 0x2874 JUMPI PUSH1 0x0 DUP1 REVERT JUMPDEST PUSH1 0x0 DUP1 PUSH1 0x0 PUSH1 0x60 DUP5 DUP7 SUB SLT ISZERO PUSH2 0x2A36 JUMPI PUSH1 0x0 DUP1 REVERT JUMPDEST PUSH2 0x2A3F DUP5 PUSH2 0x2614 JUMP JUMPDEST SWAP3 POP PUSH1 0x20 DUP5 ADD CALLDATALOAD SWAP2 POP PUSH1 0x40 DUP5 ADD CALLDATALOAD PUSH8 0xFFFFFFFFFFFFFFFF DUP2 GT ISZERO PUSH2 0x2A62 JUMPI PUSH1 0x0 DUP1 REVERT JUMPDEST PUSH2 0x2A6E DUP7 DUP3 DUP8 ADD PUSH2 0x26F8 JUMP JUMPDEST SWAP2 POP POP SWAP3 POP SWAP3 POP SWAP3 JUMP JUMPDEST PUSH1 0x20 DUP1 DUP3 MSTORE PUSH1 0x14 SWAP1 DUP3 ADD MSTORE PUSH20 0x4E6F7420416C6C6F776C697374204F776E657221 PUSH1 0x60 SHL PUSH1 0x40 DUP3 ADD MSTORE PUSH1 0x60 ADD SWAP1 JUMP JUMPDEST PUSH1 0x1 DUP2 DUP2 SHR SWAP1 DUP3 AND DUP1 PUSH2 0x2ABA JUMPI PUSH1 0x7F DUP3 AND SWAP2 POP JUMPDEST PUSH1 0x20 DUP3 LT DUP2 EQ ISZERO PUSH2 0x2ADB JUMPI PUSH4 0x4E487B71 PUSH1 0xE0 SHL PUSH1 0x0 MSTORE PUSH1 0x22 PUSH1 0x4 MSTORE PUSH1 0x24 PUSH1 0x0 REVERT JUMPDEST POP SWAP2 SWAP1 POP JUMP JUMPDEST PUSH4 0x4E487B71 PUSH1 0xE0 SHL PUSH1 0x0 MSTORE PUSH1 0x11 PUSH1 0x4 MSTORE PUSH1 0x24 PUSH1 0x0 REVERT JUMPDEST PUSH1 0x0 DUP2 PUSH2 0x2B06 JUMPI PUSH2 0x2B06 PUSH2 0x2AE1 JUMP JUMPDEST POP PUSH1 0x0 NOT ADD SWAP1 JUMP JUMPDEST PUSH1 0x0 DUP4 MLOAD PUSH2 0x2B20 DUP2 DUP5 PUSH1 0x20 DUP9 ADD PUSH2 0x267F JUMP JUMPDEST DUP4 MLOAD SWAP1 DUP4 ADD SWAP1 PUSH2 0x2B34 DUP2 DUP4 PUSH1 0x20 DUP9 ADD PUSH2 0x267F JUMP JUMPDEST ADD SWAP5 SWAP4 POP POP POP POP JUMP JUMPDEST PUSH1 0x20 DUP1 DUP3 MSTORE PUSH1 0x15 SWAP1 DUP3 ADD MSTORE PUSH21 0x26B4B73A103A37903D32B9379030B2323932B9B997 PUSH1 0x59 SHL PUSH1 0x40 DUP3 ADD MSTORE PUSH1 0x60 ADD SWAP1 JUMP JUMPDEST PUSH1 0x0 DUP3 DUP3 LT ISZERO PUSH2 0x2B7E JUMPI PUSH2 0x2B7E PUSH2 0x2AE1 JUMP JUMPDEST POP SUB SWAP1 JUMP JUMPDEST PUSH1 0x0 PUSH1 0x0 NOT DUP3 EQ ISZERO PUSH2 0x2B97 JUMPI PUSH2 0x2B97 PUSH2 0x2AE1 JUMP JUMPDEST POP PUSH1 0x1 ADD SWAP1 JUMP JUMPDEST PUSH1 0x0 DUP3 NOT DUP3 GT ISZERO PUSH2 0x2BB1 JUMPI PUSH2 0x2BB1 PUSH2 0x2AE1 JUMP JUMPDEST POP ADD SWAP1 JUMP JUMPDEST PUSH4 0x4E487B71 PUSH1 0xE0 SHL PUSH1 0x0 MSTORE PUSH1 0x12 PUSH1 0x4 MSTORE PUSH1 0x24 PUSH1 0x0 REVERT JUMPDEST PUSH1 0x0 DUP3 PUSH2 0x2BDB JUMPI PUSH2 0x2BDB PUSH2 0x2BB6 JUMP JUMPDEST POP DIV SWAP1 JUMP JUMPDEST PUSH1 0x0 DUP3 PUSH2 0x2BEF JUMPI PUSH2 0x2BEF PUSH2 0x2BB6 JUMP JUMPDEST POP MOD SWAP1 JUMP JUMPDEST PUSH4 0x4E487B71 PUSH1 0xE0 SHL PUSH1 0x0 MSTORE PUSH1 0x32 PUSH1 0x4 MSTORE PUSH1 0x24 PUSH1 0x0 REVERT JUMPDEST PUSH1 0x0 DUP2 PUSH1 0x0 NOT DIV DUP4 GT DUP3 ISZERO ISZERO AND ISZERO PUSH2 0x2C24 JUMPI PUSH2 0x2C24 PUSH2 0x2AE1 JUMP JUMPDEST POP MUL SWAP1 JUMP INVALID LOG2 PUSH5 0x6970667358 0x22 SLT KECCAK256 0xDA 0xCD SWAP4 0xA7 0xD5 0xDD 0xC4 STATICCALL 0x23 0xE4 LOG4 0x26 PUSH1 0xB9 0xAA ADD 0xE1 BALANCE PUSH9 0x1603ECE4B2F2935B04 0xE0 PC 0xF6 0xA6 PUSH5 0x736F6C6343 STOP ADDMOD 0xC STOP CALLER ",
  "sha1": "2293235835fa13e9e83bbb903725577d26069f43",
  "source": "// SPDX-License-Identifier: GPL-3.0\npragma solidity ^0.8.0;\n\nimport \"./SoulboundWithSignature.sol\";\nimport \"./IsValidWithDate.sol\";\n\n/**\n* @title Soulbound Redeemable.\n* @author Daccred.\n* @dev  An instance of the Soulbound token with capped supply\n*       and tokens having their own individual expiry date.\n*       Tokens are minted to and are pendng until receivers\n*       pay to receive their complete token.\n*/\ncontract SoulboundRedeemable is IsValidWithDate, SoulboundWithSignature {\n    /// @dev Total sales of tokens [Total tokens paid for].\n    uint256 private totalSales;\n    /// @dev Total revenue from sales.\n    uint256 private totalRevenue;\n    /// @dev Price Limit [in eth] set by deploying contract.\n    uint256 private priceLimit;\n    /// @dev Price of individual tokens, set by deployer.\n    uint256 private tokenPrice;\n    /// @dev Pending token receivals.\n    mapping(uint256 => bool) private pending;\n    /// @dev Pending address to receive tokens.\n    mapping(uint256 => address) private pendingReceivers;\n    /// @dev    Tax for token redemptions.\n    ///         15 represents 1.5% of total sales.\n    uint256 private tax = 15;\n    /// @dev ReEntrancy Lock.\n    bool private locked; \n\n    /// @dev Emitted when a token is redeemed.\n    event Redeemed(uint256 indexed tokenId, uint256 indexed extension);\n\n    /// @dev    Deploy the SoulboundWithSignature with set\n    ///         total supply, priceLimit and price of an individual token.\n    constructor(\n        string memory name, \n        string memory symbol,\n        address _allowlistOwner,\n        uint256 _totalSupply,\n        uint256 _priceLimit,\n        uint256 _tokenPrice\n    )\n    SoulboundWithSignature(\n        name, \n        symbol, \n        _allowlistOwner, \n        _totalSupply\n    )\n    {\n        /// @dev Ensure that limit is higher or equal to individual token price.\n        require(_tokenPrice <= _priceLimit, \"Price higher than limit.\");\n        /// @dev Set priceLimit.\n        priceLimit = _priceLimit;\n        /// @dev Set individual token price.\n        tokenPrice = _tokenPrice;\n    }\n\n    /**\n    * @dev Protect against Re-Entrancy.\n    */\n    modifier nonReentrant() {\n        require(!locked);\n        locked = true;\n        _;\n        locked = false;\n    }\n\n    /**\n    * @dev Return the price of one token, set by the deployer.\n    *\n    * @notice Callable by anyone.\n    *\n    * @return _tokenPrice Price of a single token.\n    */\n    function getIndividualTokenPrice() public view returns(uint256 _tokenPrice) {\n        _tokenPrice = tokenPrice;\n    }\n\n    /**\n    * @dev Return the highest possible price for a token.\n    *\n    * @notice Callable by anyone.\n    *\n    * @return _priceLimit Highest possible price.\n    */\n    function getPriceLimit() public view returns(uint256 _priceLimit) {\n        _priceLimit = priceLimit;\n    }\n\n    /**\n    * @dev Allows `caller` to set `_price` as price of one token.\n    *\n    * @notice   Callable by the deployer of this contract [DaccredDeployer]\n    *           and the allowlistOwner.\n    *\n    * @param caller AllowlistOwner.\n    * @param _price New price.\n    */\n    function setPrice(address caller, uint256 _price) \n    public \n    onlyOwner\n    onlyAllowlistOwner(caller)\n    {\n        /// @dev Ensure that the price passed isn't more than the price limit.\n        require(_price <= getPriceLimit(), \"Price higher than limit.\");\n        /// @dev Set price.\n        tokenPrice = _price;\n    }\n\n    /**\n    * @dev  Mints a pending soulbound token to `to`.\n    *       Pending tokens are minted and the receiver pays\n    *       to receive and completely mint them.\n    *\n    * @notice   Callable by the deployer of this contract [DaccredDeployer]\n    *           and the allowlistOwner.\n    *\n    * @param from               Allowlist owner.\n    * @param to                 Receiver.\n    * @param tokenId            Id of token to be minted.\n    * @param _tokenExpiryDate   Set expiry date from the deployer.\n    */\n    function mintPendingRedeemableToken(\n        address from,\n        address to,\n        uint256 tokenId,\n        uint256 _tokenExpiryDate\n    ) public onlyOwner onlyAllowlistOwner(from)\n    {\n        /// @dev Ensure that the supply is not crossed.\n        /// @dev    Should all soulbound tokens need to be limited,\n        ///         copy this code and paste in Soulboundcore.sol\n        ///         issueWithSignature function.\n        require(supply < totalSupply, \"Issue Cap Reached.\");\n        /// @dev Require `to` is not a zero address.\n        require(to != address(0), \"Mint to zero address.\");\n        /// @dev Require the token does not exist already.\n        require(!_exists(tokenId), \"Mint of already existing token.\");\n        /// @dev Require that the token is not on the pending list.\n        require(!pending[tokenId], \"Mint of already pending token.\");\n        /// @dev Set the token's pending state to true.\n        pending[tokenId] = true;\n        /// @dev Set the pending receiver of the token to `to`.\n        pendingReceivers[tokenId] = to;\n        /// @dev Set a new expiry date for the token.\n        extendExpiry(tokenId, _tokenExpiryDate);\n        /// @dev Increment supply.\n        supply++;\n    }\n\n    /**\n    * @dev  Allows the `_receiver` to pay the price of one token to \n    *       fully mint the pending token.\n    *\n    * @notice   Callable by the deployer of this contract [DaccredDeployer].\n    *\n    * @param _receiver  Receiver of the token.\n    * @param tokenId    Pending tokenId for the receiver.\n    */\n    function payToReceiveToken(address _receiver, uint256 tokenId)\n    public\n    payable\n    onlyOwner\n    nonReentrant\n    {\n        /// @dev Require that the receiver is not a zero address.\n        require(_receiver != address(0), \"Mint to zero address.\");\n        /// @dev Require that the token does not exist yet.\n        require(!_exists(tokenId), \"Mint of already existing token.\");\n        /// @dev Require that the token is indeed pending.\n        require(pending[tokenId], \"Already received token.\");\n        /// @dev    Require that the expected receiver of pending \n        ///         token is the `_receiver`.\n        require(pendingReceivers[tokenId] == _receiver, \"Not pending receiver.\");\n        /// @dev Require that the token has not expired already.\n        require(isValid(tokenId), \"Receival of expired token, redeem token.\");\n        /// @dev Require that the amount sent is GTE the price of one token.\n        require(msg.value >= tokenPrice, \"Price lower than token cost.\");\n        /// @dev Initialize balance.\n        uint256 balance;\n        \n        /// @dev If the amount sent is bigger than the price of one token.\n        if (msg.value > tokenPrice) {\n            /// @dev Calculate the balance of the `_receiver`.\n            balance = msg.value - tokenPrice;\n            /// @dev Pay the `_receiver` his balance.\n            payable(_receiver).transfer(balance);\n        }\n\n        /// @dev Generate tokenURI.\n        string memory _tokenURI = generateTokenURI(tokenId);\n        /// @dev Finally issue the token to the `_receiver`.\n        issue(\n            _receiver,\n            tokenId,\n            _tokenURI\n        );\n        /// @dev Increment totalSales.\n        totalSales++;\n        /// @dev Add to the total Revenue.\n        totalRevenue += tokenPrice;\n        /// @dev Set the pending token to false.\n        pending[tokenId] = false;\n        /// @dev Delete the pending receiver.\n        delete pendingReceivers[tokenId];\n    }\n\n    /**\n    * @dev  For expired pending tokens, this function redeems them and makes\n    *       valid for another period of time.\n    *       Tokens must be expired for it to be redeemed.\n    *       Emits the {Redeemed} event.\n    *\n    * @notice   Callable by the deployer of this contract [DaccredDeployer].\n    *\n    * @param _receiver          Receiver of the token.\n    * @param tokenId            Pending tokenId for the receiver.\n    * @param _tokenExpiryDate   New expiry date for tokens.\n    */\n    function redeemPendingToken(\n        address _receiver, \n        uint256 tokenId,\n        uint256 _tokenExpiryDate\n    ) \n    public\n    payable\n    onlyOwner\n    nonReentrant\n    {\n        /// @dev Require _receiver is not a zero address.\n        require(_receiver != address(0), \"Redemption to zero address.\");\n        /// @dev Require tokenId is existent.\n        require(!_exists(tokenId), \"Redemption of existing token.\");\n        /// @dev Require that the token is still pending.\n        require(pending[tokenId], \"Already received token.\");\n        /// @dev Require that the pending receiver is the `_receiver`.\n        require(pendingReceivers[tokenId] == _receiver, \"Not pending receiver.\");\n        /// @dev Require the token has expired.\n        require(!isValid(tokenId), \"Token unexpired.\");\n        /// @dev Calculate tax.\n        uint256 _tax = calculateTax(tax);\n        /// @dev Require that the amount sent is GTE the tax.\n        require(msg.value >= _tax, \"Price lower than redemption tax.\");\n        /// @dev Initiate balance.\n        uint256 balance;\n\n        /// @dev If the tax is not 0.\n        if (_tax != 0) {\n            /// @dev Calculate receiver's balance.\n            balance = msg.value - _tax;\n            /// @dev Pay to receiver.\n            payable(_receiver).transfer(balance);\n        }\n\n        /// @dev Extend expiry of tokenId.\n        extendExpiry(tokenId, _tokenExpiryDate);\n        /// @dev Emit the Redeemed event.\n        emit Redeemed(tokenId, _tokenExpiryDate);\n    }\n\n    /**\n    * @dev  For expired minted tokens, this function redeems them and makes\n    *       valid for another period of time.\n    *       Tokens must be expired for it to be redeemed.\n    *       Emits the {Redeemed} event.\n    *\n    * @notice   Callable by the deployer of this contract [DaccredDeployer].\n    *\n    * @param _receiver          Receiver of the token.\n    * @param tokenId            Pending tokenId for the receiver.\n    * @param _tokenExpiryDate   New expiry date for tokens.\n    */\n    function redeemMintedToken(\n        address _receiver, \n        uint256 tokenId,\n        uint256 _tokenExpiryDate\n    ) \n    public\n    payable\n    onlyOwner\n    nonReentrant\n    {\n        /// @dev Require _receiver is not a zero address.\n        require(_receiver != address(0), \"Redemption to zero address.\");\n        /// @dev Require tokenId is existent.\n        require(_exists(tokenId), \"Redemption of non-existing token.\");\n        /// @dev Require that the token is still pending.\n        require(!pending[tokenId], \"Token still pending.\");\n        /// @dev Require that the pending receiver is the `_receiver`.\n        require(ownerOf(tokenId) == _receiver, \"Not token owner.\");\n        /// @dev Require the token has expired.\n        require(!isValid(tokenId), \"Token unexpired.\");\n        /// @dev Calculate tax.\n        uint256 _tax = calculateTax(tax);\n        /// @dev Require that the amount sent is GTE the tax.\n        require(msg.value >= _tax, \"Price lower than redemption tax.\");\n        /// @dev Initiate balance.\n        uint256 balance;\n\n        /// @dev If the tax is not 0.\n        if (_tax != 0) {\n            /// @dev Calculate receiver's balance.\n            balance = msg.value - _tax;\n            /// @dev Pay to receiver.\n            payable(_receiver).transfer(balance);\n        }\n\n        /// @dev Extend expiry of tokenId.\n        extendExpiry(tokenId, _tokenExpiryDate);\n        /// @dev Emit the Redeemed event.\n        emit Redeemed(tokenId, _tokenExpiryDate);\n    }\n\n    /**\n    * @dev  Allows the allowlistOwner to redeem an expired pending \n    *       token on behalf of the tokenOwner.\n    *\n    * @notice   Callable by the deployer of this contract [DaccredDeployer]\n    *           and the allowlistOwner.\n    *\n    * @param _caller            Allowlist owner.\n    * @param _receiver          Address of receiver.\n    * @param tokenId            TokenId.\n    * @param _tokenExpiryDate   Days to extend the token.\n    * @param hash               Hash of message.\n    * @param sig                Signature.\n    */\n    function redeemPendingTokenWithSignature(\n        address _caller,\n        address _receiver, \n        uint256 tokenId,\n        uint256 _tokenExpiryDate,\n        bytes32 hash,\n        bytes memory sig\n    )\n    public\n    payable\n    onlyOwner\n    onlyAllowlistOwner(_caller)\n    nonReentrant\n    {\n        /// @dev Require that the signer is the allowlistowner.\n        require(verifySignature(hash, sig), \"Hash not signed by you.\");\n        /// @dev RedeemToken.\n        redeemPendingToken(\n            _receiver,\n            tokenId,\n            _tokenExpiryDate\n        );\n    }\n\n    /**\n    * @dev  Allows the allowlistOwner to redeem an expired minted \n    *       token on behalf of the tokenOwner.\n    *\n    * @notice   Callable by the deployer of this contract [DaccredDeployer]\n    *           and the allowlistOwner.\n    *\n    * @param _caller            Allowlist owner.\n    * @param _receiver          Address of receiver.\n    * @param tokenId            TokenId.\n    * @param _tokenExpiryDate   Days to extend the token.\n    * @param hash               Hash of message.\n    * @param sig                Signature.\n    */\n    function redeemMintedTokenWithSignature(\n        address _caller,\n        address _receiver, \n        uint256 tokenId,\n        uint256 _tokenExpiryDate,\n        bytes32 hash,\n        bytes memory sig\n    )\n    public\n    payable\n    onlyOwner\n    onlyAllowlistOwner(_caller)\n    nonReentrant\n    {\n        /// @dev Require that the signer is the allowlistowner.\n        require(verifySignature(hash, sig), \"Hash not signed by you.\");\n        /// @dev RedeemToken.\n        redeemMintedToken(\n            _receiver,\n            tokenId,\n            _tokenExpiryDate\n        );\n    }\n\n    /**\n    * @dev  Allows the allowlistowner to withdraw his funds to his wallet.\n    *\n    * @notice   Callable by the deployer of this contract [DaccredDeployer]\n    *           and the allowlistOwner.\n    *\n    * @param _caller Address of allowlistowner.\n    */\n    function withdraw(address _caller)\n    public\n    onlyOwner\n    onlyAllowlistOwner(_caller)\n    {\n        /// @dev Require that the allowlistowner is not a zero address.\n        require(_caller != address(0), \"Sending to zero address.\");\n        /// @dev Require that the balance of this contract is GTE the totalRevenue.\n        require(address(this).balance >= totalRevenue, \"Revenue != Contract balance.\");\n        /// @dev Pay the totalRevenue to the allowlistowner.\n        payable(_caller).transfer(totalRevenue);\n        /// @dev Set the totalRevenue to 0.\n        totalRevenue = 0;\n    }\n\n    /**\n    * @dev Calculates the tax off the totalSales.\n    *\n    * @param _tax Percentage tax.\n    *\n    * @return __tax Tax calculated.\n    */\n    function calculateTax(uint256 _tax) private view returns(uint256 __tax) {\n        /// Grant free tax if the total revenue of the contract is\n        /// in range of 0 - 500 gwei.\n        if (totalRevenue >= 0 && totalRevenue < 500 gwei) {\n            /// @dev Set tax to 0.\n            _tax = 0;\n        }\n\n        /// Else simply calculate tax on total revenue.\n        __tax = (_tax * totalRevenue * 10) / 1000;\n    }\n}\n",
  "sourcePath": "contracts/extensions/SoulboundRedeemable.sol",
  "type": "contract"
}