{
  "abi": [
    {
      "inputs": [
        {
          "internalType": "string",
          "name": "name",
          "type": "string"
        },
        {
          "internalType": "string",
          "name": "symbol",
          "type": "string"
        },
        {
          "internalType": "address",
          "name": "_allowlistOwner",
          "type": "address"
        },
        {
          "internalType": "uint256",
          "name": "_totalSupply",
          "type": "uint256"
        }
      ],
      "stateMutability": "nonpayable",
      "type": "constructor"
    },
    {
      "inputs": [
        {
          "internalType": "address",
          "name": "_address",
          "type": "address"
        }
      ],
      "name": "Unsigned",
      "type": "error"
    },
    {
      "anonymous": false,
      "inputs": [
        {
          "indexed": true,
          "internalType": "address",
          "name": "to",
          "type": "address"
        },
        {
          "indexed": true,
          "internalType": "uint256",
          "name": "tokenId",
          "type": "uint256"
        }
      ],
      "name": "Attest",
      "type": "event"
    },
    {
      "anonymous": false,
      "inputs": [
        {
          "indexed": true,
          "internalType": "address",
          "name": "to",
          "type": "address"
        },
        {
          "indexed": true,
          "internalType": "uint256",
          "name": "tokenId",
          "type": "uint256"
        }
      ],
      "name": "IssueWithSignature",
      "type": "event"
    },
    {
      "anonymous": false,
      "inputs": [
        {
          "indexed": true,
          "internalType": "address",
          "name": "previousOwner",
          "type": "address"
        },
        {
          "indexed": true,
          "internalType": "address",
          "name": "newOwner",
          "type": "address"
        }
      ],
      "name": "OwnershipTransferred",
      "type": "event"
    },
    {
      "anonymous": false,
      "inputs": [
        {
          "indexed": true,
          "internalType": "address",
          "name": "to",
          "type": "address"
        },
        {
          "indexed": true,
          "internalType": "uint256",
          "name": "tokenId",
          "type": "uint256"
        }
      ],
      "name": "Revoke",
      "type": "event"
    },
    {
      "anonymous": false,
      "inputs": [
        {
          "indexed": true,
          "internalType": "uint256",
          "name": "tokenId",
          "type": "uint256"
        }
      ],
      "name": "RevokeWithSignature",
      "type": "event"
    },
    {
      "anonymous": false,
      "inputs": [
        {
          "indexed": true,
          "internalType": "address",
          "name": "_address",
          "type": "address"
        }
      ],
      "name": "Signed",
      "type": "event"
    },
    {
      "anonymous": false,
      "inputs": [
        {
          "indexed": true,
          "internalType": "address",
          "name": "_address",
          "type": "address"
        }
      ],
      "name": "Verified",
      "type": "event"
    },
    {
      "anonymous": false,
      "inputs": [
        {
          "indexed": true,
          "internalType": "bytes32",
          "name": "addressHash",
          "type": "bytes32"
        },
        {
          "indexed": true,
          "internalType": "bool",
          "name": "result",
          "type": "bool"
        }
      ],
      "name": "VerifySignature",
      "type": "event"
    },
    {
      "inputs": [],
      "name": "_getBaseURI",
      "outputs": [
        {
          "internalType": "string",
          "name": "_baseURI",
          "type": "string"
        }
      ],
      "stateMutability": "view",
      "type": "function"
    },
    {
      "inputs": [
        {
          "internalType": "address",
          "name": "owner",
          "type": "address"
        }
      ],
      "name": "balanceOf",
      "outputs": [
        {
          "internalType": "uint256",
          "name": "",
          "type": "uint256"
        }
      ],
      "stateMutability": "view",
      "type": "function"
    },
    {
      "inputs": [
        {
          "internalType": "uint256",
          "name": "tokenId",
          "type": "uint256"
        }
      ],
      "name": "burn",
      "outputs": [],
      "stateMutability": "nonpayable",
      "type": "function"
    },
    {
      "inputs": [
        {
          "internalType": "uint256",
          "name": "tokenId",
          "type": "uint256"
        }
      ],
      "name": "generateTokenURI",
      "outputs": [
        {
          "internalType": "string",
          "name": "_tokenURI",
          "type": "string"
        }
      ],
      "stateMutability": "view",
      "type": "function"
    },
    {
      "inputs": [],
      "name": "getAllowlistOwner",
      "outputs": [
        {
          "internalType": "address",
          "name": "",
          "type": "address"
        }
      ],
      "stateMutability": "view",
      "type": "function"
    },
    {
      "inputs": [
        {
          "internalType": "address",
          "name": "_to",
          "type": "address"
        },
        {
          "internalType": "uint256",
          "name": "_tokenId",
          "type": "uint256"
        }
      ],
      "name": "isMinted",
      "outputs": [
        {
          "internalType": "bool",
          "name": "",
          "type": "bool"
        }
      ],
      "stateMutability": "view",
      "type": "function"
    },
    {
      "inputs": [
        {
          "internalType": "address",
          "name": "addr",
          "type": "address"
        },
        {
          "internalType": "bytes32",
          "name": "hash",
          "type": "bytes32"
        },
        {
          "internalType": "bytes",
          "name": "sig",
          "type": "bytes"
        },
        {
          "internalType": "uint256",
          "name": "tokenId",
          "type": "uint256"
        },
        {
          "internalType": "string",
          "name": "tokenURI",
          "type": "string"
        }
      ],
      "name": "issueWithSignature",
      "outputs": [],
      "stateMutability": "nonpayable",
      "type": "function"
    },
    {
      "inputs": [
        {
          "internalType": "address",
          "name": "_to",
          "type": "address"
        },
        {
          "internalType": "uint256",
          "name": "_tokenId",
          "type": "uint256"
        }
      ],
      "name": "issuerOf",
      "outputs": [
        {
          "internalType": "address",
          "name": "",
          "type": "address"
        }
      ],
      "stateMutability": "view",
      "type": "function"
    },
    {
      "inputs": [],
      "name": "name",
      "outputs": [
        {
          "internalType": "string",
          "name": "",
          "type": "string"
        }
      ],
      "stateMutability": "view",
      "type": "function"
    },
    {
      "inputs": [],
      "name": "owner",
      "outputs": [
        {
          "internalType": "address",
          "name": "",
          "type": "address"
        }
      ],
      "stateMutability": "view",
      "type": "function"
    },
    {
      "inputs": [
        {
          "internalType": "address",
          "name": "addr",
          "type": "address"
        },
        {
          "internalType": "bytes32",
          "name": "hash",
          "type": "bytes32"
        },
        {
          "internalType": "bytes",
          "name": "sig",
          "type": "bytes"
        },
        {
          "internalType": "uint256",
          "name": "tokenId",
          "type": "uint256"
        },
        {
          "internalType": "string",
          "name": "tokenURI",
          "type": "string"
        }
      ],
      "name": "ownerIssueWithSignature",
      "outputs": [],
      "stateMutability": "nonpayable",
      "type": "function"
    },
    {
      "inputs": [
        {
          "internalType": "uint256",
          "name": "tokenId",
          "type": "uint256"
        }
      ],
      "name": "ownerOf",
      "outputs": [
        {
          "internalType": "address",
          "name": "",
          "type": "address"
        }
      ],
      "stateMutability": "view",
      "type": "function"
    },
    {
      "inputs": [
        {
          "internalType": "bytes32",
          "name": "hash",
          "type": "bytes32"
        },
        {
          "internalType": "bytes",
          "name": "sig",
          "type": "bytes"
        },
        {
          "internalType": "uint256",
          "name": "tokenId",
          "type": "uint256"
        }
      ],
      "name": "ownerRevokeWithSignature",
      "outputs": [],
      "stateMutability": "nonpayable",
      "type": "function"
    },
    {
      "inputs": [],
      "name": "renounceOwnership",
      "outputs": [],
      "stateMutability": "nonpayable",
      "type": "function"
    },
    {
      "inputs": [
        {
          "internalType": "bytes32",
          "name": "hash",
          "type": "bytes32"
        },
        {
          "internalType": "bytes",
          "name": "sig",
          "type": "bytes"
        },
        {
          "internalType": "uint256",
          "name": "tokenId",
          "type": "uint256"
        }
      ],
      "name": "revokeWithSignature",
      "outputs": [],
      "stateMutability": "nonpayable",
      "type": "function"
    },
    {
      "inputs": [
        {
          "internalType": "address",
          "name": "caller",
          "type": "address"
        },
        {
          "internalType": "string",
          "name": "_baseURI",
          "type": "string"
        }
      ],
      "name": "setBaseURI",
      "outputs": [],
      "stateMutability": "nonpayable",
      "type": "function"
    },
    {
      "inputs": [
        {
          "internalType": "bytes4",
          "name": "interfaceId",
          "type": "bytes4"
        }
      ],
      "name": "supportsInterface",
      "outputs": [
        {
          "internalType": "bool",
          "name": "",
          "type": "bool"
        }
      ],
      "stateMutability": "view",
      "type": "function"
    },
    {
      "inputs": [],
      "name": "symbol",
      "outputs": [
        {
          "internalType": "string",
          "name": "",
          "type": "string"
        }
      ],
      "stateMutability": "view",
      "type": "function"
    },
    {
      "inputs": [
        {
          "internalType": "uint256",
          "name": "tokenId",
          "type": "uint256"
        }
      ],
      "name": "tokenURI",
      "outputs": [
        {
          "internalType": "string",
          "name": "",
          "type": "string"
        }
      ],
      "stateMutability": "view",
      "type": "function"
    },
    {
      "inputs": [
        {
          "internalType": "address",
          "name": "newOwner",
          "type": "address"
        }
      ],
      "name": "transferOwnership",
      "outputs": [],
      "stateMutability": "nonpayable",
      "type": "function"
    },
    {
      "inputs": [
        {
          "internalType": "bytes32",
          "name": "hash",
          "type": "bytes32"
        },
        {
          "internalType": "bytes",
          "name": "sig",
          "type": "bytes"
        }
      ],
      "name": "verifySignature",
      "outputs": [
        {
          "internalType": "bool",
          "name": "",
          "type": "bool"
        }
      ],
      "stateMutability": "nonpayable",
      "type": "function"
    },
    {
      "inputs": [
        {
          "internalType": "address",
          "name": "_signer",
          "type": "address"
        },
        {
          "internalType": "bytes32",
          "name": "_hash",
          "type": "bytes32"
        },
        {
          "internalType": "bytes",
          "name": "_signature",
          "type": "bytes"
        }
      ],
      "name": "verifySigner",
      "outputs": [
        {
          "internalType": "bool",
          "name": "",
          "type": "bool"
        }
      ],
      "stateMutability": "pure",
      "type": "function"
    }
  ],
  "bytecode": "60806040523480156200001157600080fd5b5060405162001dcc38038062001dcc83398101604081905262000034916200029a565b83838383818484818181600090805190602001906200005592919062000127565b5080516200006b90600190602084019062000127565b5050506200008862000082620000d160201b60201c565b620000d5565b5050600880546001600160a01b0319166001600160a01b039290921691909117905580620000bd57620f4240600955620000c3565b60098190555b50505050505050506200036a565b3390565b600580546001600160a01b038381166001600160a01b0319831681179093556040519116919082907f8be0079c531659141344cd1fd0a4f28419497f9722a3daafe3b4186f6b6457e090600090a35050565b82805462000135906200032d565b90600052602060002090601f016020900481019282620001595760008555620001a4565b82601f106200017457805160ff1916838001178555620001a4565b82800160010185558215620001a4579182015b82811115620001a457825182559160200191906001019062000187565b50620001b2929150620001b6565b5090565b5b80821115620001b25760008155600101620001b7565b634e487b7160e01b600052604160045260246000fd5b600082601f830112620001f557600080fd5b81516001600160401b0380821115620002125762000212620001cd565b604051601f8301601f19908116603f011681019082821181831017156200023d576200023d620001cd565b816040528381526020925086838588010111156200025a57600080fd5b600091505b838210156200027e57858201830151818301840152908201906200025f565b83821115620002905760008385830101525b9695505050505050565b60008060008060808587031215620002b157600080fd5b84516001600160401b0380821115620002c957600080fd5b620002d788838901620001e3565b95506020870151915080821115620002ee57600080fd5b50620002fd87828801620001e3565b604087015190945090506001600160a01b03811681146200031d57600080fd5b6060959095015193969295505050565b600181811c908216806200034257607f821691505b602082108114156200036457634e487b7160e01b600052602260045260246000fd5b50919050565b611a52806200037a6000396000f3fe608060405234801561001057600080fd5b50600436106101425760003560e01c806388433651116100b8578063c9e4c54d1161007c578063c9e4c54d146102b7578063daca6f78146102ca578063e92b0842146102dd578063ea5353c7146102f0578063f2fde38b14610303578063fb8f198d1461031657600080fd5b806388433651146102705780638da5cb5b1461028357806395d89b4114610294578063c87b56dd1461029c578063c9dd94c7146102af57600080fd5b806342966c681161010a57806342966c68146101bf5780635899e7b2146101d25780636352211e1461020b5780636e0a87461461023657806370a0823114610247578063715018a61461026857600080fd5b806301ffc9a71461014757806306fdde031461016f57806308c92e57146101845780631f04d13514610199578063210fa96b146101ac575b600080fd5b61015a61015536600461158f565b610329565b60405190151581526020015b60405180910390f35b61017761037b565b60405161016691906115e9565b6101976101923660046116bf565b61040d565b005b6101976101a73660046116bf565b610548565b6101776101ba36600461170f565b6105c2565b6101976101cd36600461170f565b610641565b61015a6101e0366004611744565b6001600160a01b03919091166000908152600760209081526040808320938352929052205460ff1690565b61021e61021936600461170f565b6106b6565b6040516001600160a01b039091168152602001610166565b6008546001600160a01b031661021e565b61025a61025536600461176e565b61071b565b604051908152602001610166565b6101976107a4565b61019761027e366004611789565b6107b8565b6005546001600160a01b031661021e565b610177610833565b6101776102aa36600461170f565b610842565b610177610937565b6101976102c53660046117d7565b610993565b61015a6102d836600461185f565b610ac8565b61015a6102eb366004611890565b610adb565b6101976102fe3660046117d7565b610b6f565b61019761031136600461176e565b610be8565b61021e610324366004611744565b610c5e565b60006001600160e01b03198216635b5e139f60e01b148061035a57506001600160e01b03198216635164cf4760e01b145b8061037557506301ffc9a760e01b6001600160e01b03198316145b92915050565b60606000805461038a906118e7565b80601f01602080910402602001604051908101604052809291908181526020018280546103b6906118e7565b80156104035780601f106103d857610100808354040283529160200191610403565b820191906000526020600020905b8154815290600101906020018083116103e657829003601f168201915b5050505050905090565b61041681610d72565b6104675760405162461bcd60e51b815260206004820152601b60248201527f5265766f6b65206f6620696e6578697374656e7420746f6b656e2e000000000060448201526064015b60405180910390fd5b81516041146104b35760405162461bcd60e51b8152602060048201526018602482015277092dcecc2d8d2c840e6d2cedcc2e8eae4ca40d8cadccee8d60431b604482015260640161045e565b6104bd8383610ac8565b6105055760405162461bcd60e51b81526020600482015260196024820152782430b9b4103737ba1039b4b3b732b210313c9037bbb732b91760391b604482015260640161045e565b610517610511826106b6565b82610d8f565b5060405181907ff947bf2266afede98f27ad2312db8b2a17921852307f979b6f14a2b41fa774bc90600090a2505050565b610550610e57565b600a541561057257600a805490600061056883611938565b91905055506105b2565b60405162461bcd60e51b81526020600482015260156024820152742637bbb2b9ba103634b6b4ba103932b0b1b432b21760591b604482015260640161045e565b6105bd83838361040d565b505050565b60606105cc610937565b516106095760405162461bcd60e51b815260206004820152600d60248201526c456d707479206261736555524960981b604482015260640161045e565b610611610937565b61061a83610eb1565b60405160200161062b92919061194f565b6040516020818303038152906040529050919050565b61064a816106b6565b6001600160a01b0316336001600160a01b0316146106aa5760405162461bcd60e51b815260206004820152601a60248201527f6275726e3a2073656e646572206d757374206265206f776e6572000000000000604482015260640161045e565b6106b381610fb7565b50565b6000818152600260205260408120546001600160a01b0316806103755760405162461bcd60e51b815260206004820152601c60248201527f6f776e65724f663a20746f6b656e20646f65736e277420657869737400000000604482015260640161045e565b60006001600160a01b0382166107885760405162461bcd60e51b815260206004820152602c60248201527f62616c616e63654f663a2061646472657373207a65726f206973206e6f74206160448201526b103b30b634b21037bbb732b960a11b606482015260840161045e565b506001600160a01b031660009081526004602052604090205490565b6107ac610e57565b6107b6600061105e565b565b6107c0610e57565b816107d36008546001600160a01b031690565b6001600160a01b0316816001600160a01b03161461082a5760405162461bcd60e51b81526020600482015260146024820152734e6f7420416c6c6f776c697374204f776e65722160601b604482015260640161045e565b6105bd826110b0565b60606001805461038a906118e7565b606061084d82610d72565b6108995760405162461bcd60e51b815260206004820152601d60248201527f746f6b656e5552493a20746f6b656e20646f65736e2774206578697374000000604482015260640161045e565b600082815260036020526040902080546108b2906118e7565b80601f01602080910402602001604051908101604052809291908181526020018280546108de906118e7565b801561092b5780601f106109005761010080835404028352916020019161092b565b820191906000526020600020905b81548152906001019060200180831161090e57829003601f168201915b50505050509050919050565b606060068054610946906118e7565b151590506109865760405162461bcd60e51b815260206004820152600d60248201526c456d707479206261736555524960981b604482015260640161045e565b6006805461038a906118e7565b6001600160a01b0385166109e15760405162461bcd60e51b815260206004820152601560248201527426b4b73a103a37903d32b9379030b2323932b9b99760591b604482015260640161045e565b8251604114610a2d5760405162461bcd60e51b8152602060048201526018602482015277092dcecc2d8d2c840e6d2cedcc2e8eae4ca40d8cadccee8d60431b604482015260640161045e565b610a378484610ac8565b610a7f5760405162461bcd60e51b81526020600482015260196024820152782430b9b4103737ba1039b4b3b732b210313c9037bbb732b91760391b604482015260640161045e565b610a8a858383611106565b5060405182906001600160a01b038716907f79af0e59b31823dd289ceebabc4d63d25f35926b8548e3a084a500c9d4e1855690600090a35050505050565b6000610ad4838361111d565b9392505050565b602081810151604080840151606080860151835160008082528188018087528a905291821a81860181905292810186905260808101849052935190959293919260019260a080820193601f1981019281900390910190855afa158015610b45573d6000803e3d6000fd5b505050602060405103516001600160a01b0316876001600160a01b03161493505050509392505050565b610b77610e57565b600954600a5410610bbf5760405162461bcd60e51b815260206004820152601260248201527124b9b9bab29021b0b8102932b0b1b432b21760711b604482015260640161045e565b610bcc8585858585610993565b600a8054906000610bdc8361197e565b91905055505050505050565b610bf0610e57565b6001600160a01b038116610c555760405162461bcd60e51b815260206004820152602660248201527f4f776e61626c653a206e6577206f776e657220697320746865207a65726f206160448201526564647265737360d01b606482015260840161045e565b6106b38161105e565b60006001600160a01b038316610cb65760405162461bcd60e51b815260206004820152601760248201527f517565727920666f72207a65726f20616464726573732e000000000000000000604482015260640161045e565b610cbf82610d72565b610d015760405162461bcd60e51b81526020600482015260136024820152722737b716b2bc34b9ba32b73a103a37b5b2b71760691b604482015260640161045e565b826001600160a01b0316610d14836106b6565b6001600160a01b031614610d6a5760405162461bcd60e51b815260206004820152601a60248201527f546f6b656e206e6f74206f776e65642062792061646472657373000000000000604482015260640161045e565b503092915050565b6000908152600260205260409020546001600160a01b0316151590565b6000610d9a82610d72565b610ddc5760405162461bcd60e51b81526020600482015260136024820152722737b716b2bc34b9ba32b73a103a37b5b2b71760691b604482015260640161045e565b826001600160a01b0316610def836106b6565b6001600160a01b031614610e455760405162461bcd60e51b815260206004820152601a60248201527f546f6b656e206e6f74206f776e65642062792061646472657373000000000000604482015260640161045e565b610e4e826112a0565b50600192915050565b6005546001600160a01b031633146107b65760405162461bcd60e51b815260206004820181905260248201527f4f776e61626c653a2063616c6c6572206973206e6f7420746865206f776e6572604482015260640161045e565b606081610ed55750506040805180820190915260018152600360fc1b602082015290565b8160005b8115610eff5780610ee98161197e565b9150610ef89050600a836119af565b9150610ed9565b60008167ffffffffffffffff811115610f1a57610f1a61161c565b6040519080825280601f01601f191660200182016040528015610f44576020820181803683370190505b5090505b8415610faf57610f596001836119c3565b9150610f66600a866119da565b610f719060306119ee565b60f81b818381518110610f8657610f86611a06565b60200101906001600160f81b031916908160001a905350610fa8600a866119af565b9450610f48565b949350505050565b6000610fc2826106b6565b6001600160a01b03811660009081526004602052604081208054929350600192909190610ff09084906119c3565b9091555050600082815260026020908152604080832080546001600160a01b031916905560039091528120611024916114bc565b60405182906001600160a01b038316907fec9ab91322523c899ede7830ec9bfc992b5981cdcc27b91162fb23de5791117b90600090a35050565b600580546001600160a01b038381166001600160a01b0319831681179093556040519116919082907f8be0079c531659141344cd1fd0a4f28419497f9722a3daafe3b4186f6b6457e090600090a35050565b80516110ef5760405162461bcd60e51b815260206004820152600e60248201526d092dcecc2d8d2c840d8cadccee8d60931b604482015260640161045e565b80516111029060069060208401906114f6565b5050565b6000611113848484611336565b5060019392505050565b6000611127610e57565b6005546001600160a01b031633146111955760405162461bcd60e51b815260206004820152602b60248201527f4552433732313a3a2043616c6c20746f20636f6e7472616374206d616465206260448201526a3c903737b716b7bbb732b960a91b606482015260840161045e565b81516041146111e65760405162461bcd60e51b815260206004820152601e60248201527f4572723a3a20496e76616c6964207369676e6174757265206c656e6774680000604482015260640161045e565b602082810151604080850151606080870151835160008082529681018086528a905290861a938101849052908101849052608081018290529293909260019060a0016020604051602081039080840390855afa15801561124a573d6000803e3d6000fd5b5050604051601f198101516008549093506001600160a01b038085169116149150819089907f7e4fe2a2a805a357593fdbdde58c02f6a53d8b4960744cd31a98697fc11c2e3690600090a3979650505050505050565b6112a981610d72565b6112f55760405162461bcd60e51b815260206004820152601860248201527f4275726e206f6620696e6578697374656e7420746f6b656e0000000000000000604482015260640161045e565b6000611300826106b6565b905061130b82610fb7565b6001600160a01b0316600090815260076020908152604080832093835292905220805460ff19169055565b6001600160a01b0383166113845760405162461bcd60e51b815260206004820152601560248201527426b4b73a103a37903d32b9379030b2323932b9b99760591b604482015260640161045e565b61138f8383836113c1565b50506001600160a01b03909116600090815260076020908152604080832093835292905220805460ff19166001179055565b60006113cc83610d72565b156114105760405162461bcd60e51b81526020600482015260146024820152736d696e743a20746f6b656e49442065786973747360601b604482015260640161045e565b6001600160a01b03841660009081526004602052604081208054600192906114399084906119ee565b9091555050600083815260026020908152604080832080546001600160a01b0319166001600160a01b03891617905560038252909120835161147d928501906114f6565b5060405183906001600160a01b038616907fe9274a84b19e9428826de6bae8c48329354f8f0e73f771b97cae2d9dccd45a2790600090a3509092915050565b5080546114c8906118e7565b6000825580601f106114d8575050565b601f0160209004906000526020600020908101906106b3919061157a565b828054611502906118e7565b90600052602060002090601f016020900481019282611524576000855561156a565b82601f1061153d57805160ff191683800117855561156a565b8280016001018555821561156a579182015b8281111561156a57825182559160200191906001019061154f565b5061157692915061157a565b5090565b5b80821115611576576000815560010161157b565b6000602082840312156115a157600080fd5b81356001600160e01b031981168114610ad457600080fd5b60005b838110156115d45781810151838201526020016115bc565b838111156115e3576000848401525b50505050565b60208152600082518060208401526116088160408501602087016115b9565b601f01601f19169190910160400192915050565b634e487b7160e01b600052604160045260246000fd5b600082601f83011261164357600080fd5b813567ffffffffffffffff8082111561165e5761165e61161c565b604051601f8301601f19908116603f011681019082821181831017156116865761168661161c565b8160405283815286602085880101111561169f57600080fd5b836020870160208301376000602085830101528094505050505092915050565b6000806000606084860312156116d457600080fd5b83359250602084013567ffffffffffffffff8111156116f257600080fd5b6116fe86828701611632565b925050604084013590509250925092565b60006020828403121561172157600080fd5b5035919050565b80356001600160a01b038116811461173f57600080fd5b919050565b6000806040838503121561175757600080fd5b61176083611728565b946020939093013593505050565b60006020828403121561178057600080fd5b610ad482611728565b6000806040838503121561179c57600080fd5b6117a583611728565b9150602083013567ffffffffffffffff8111156117c157600080fd5b6117cd85828601611632565b9150509250929050565b600080600080600060a086880312156117ef57600080fd5b6117f886611728565b945060208601359350604086013567ffffffffffffffff8082111561181c57600080fd5b61182889838a01611632565b945060608801359350608088013591508082111561184557600080fd5b5061185288828901611632565b9150509295509295909350565b6000806040838503121561187257600080fd5b82359150602083013567ffffffffffffffff8111156117c157600080fd5b6000806000606084860312156118a557600080fd5b6118ae84611728565b925060208401359150604084013567ffffffffffffffff8111156118d157600080fd5b6118dd86828701611632565b9150509250925092565b600181811c908216806118fb57607f821691505b6020821081141561191c57634e487b7160e01b600052602260045260246000fd5b50919050565b634e487b7160e01b600052601160045260246000fd5b60008161194757611947611922565b506000190190565b600083516119618184602088016115b9565b8351908301906119758183602088016115b9565b01949350505050565b600060001982141561199257611992611922565b5060010190565b634e487b7160e01b600052601260045260246000fd5b6000826119be576119be611999565b500490565b6000828210156119d5576119d5611922565b500390565b6000826119e9576119e9611999565b500690565b60008219821115611a0157611a01611922565b500190565b634e487b7160e01b600052603260045260246000fdfea26469706673582212201766ce017b84848265eb9745cec1b3600a9aa5eb72486357225bc1d762aabcbe64736f6c634300080c0033",
  "bytecodeSha1": "977b4259c35c66e4b6e5ba86160dc470410d7a73",
  "compiler": {
    "evm_version": "istanbul",
    "optimizer": {
      "enabled": true,
      "runs": 200
    },
    "version": "0.8.12+commit.f00d7308"
  },
  "contractName": "SoulboundWithSignature",
  "language": "Solidity",
  "natspec": {
    "author": "Daccred.",
    "details": "SoulboundWithSignature contract template allows freedom of       issuing and revoking tokens with Signature while controlling       the totalSupply of the token.",
    "errors": {
      "Unsigned(address)": [
        {
          "details": "Thrown when the address passed to the verify function is not signed."
        }
      ]
    },
    "kind": "dev",
    "methods": {
      "_getBaseURI()": {
        "details": "Returns already set baseURI if it exists.",
        "notice": "Callable by anyone.",
        "returns": {
          "_baseURI": "baseURI set."
        }
      },
      "balanceOf(address)": {
        "details": "ABTs assigned to the zero address are considered invalid, and this  function throws for queries about the zero address.",
        "notice": "Count all ABTs assigned to an owner",
        "params": {
          "owner": "An address for whom to query the balance"
        },
        "returns": {
          "_0": "The number of ABTs owned by `owner`, possibly zero"
        }
      },
      "burn(uint256)": {
        "details": "Must emit a `event Revoke` with the `address to` field pointing to  the zero address.",
        "notice": "Destroys `tokenId`. At any time, an ABT receiver must be able to  disassociate themselves from an ABT publicly through calling this  function.",
        "params": {
          "tokenId": "The identifier for an ABT"
        }
      },
      "constructor": {
        "details": "Deploys inherited contract and sub contracts."
      },
      "generateTokenURI(uint256)": {
        "details": "Using the `tokenId` passed, it generates a `stringified` tokenURI,       packing the baseURI and the current tokenId.       Makes use of OpenZeppelin's uint to string function.",
        "notice": "Callable by anyone.",
        "params": {
          "tokenId": "ID of token whose tokenURI is desired."
        },
        "returns": {
          "_tokenURI": "TokenURI of the passed tokenId."
        }
      },
      "getAllowlistOwner()": {
        "details": "Return the allowlistOwner.",
        "notice": "Callable by anyone.",
        "returns": {
          "_0": "address of allowlistOwner."
        }
      },
      "isMinted(address,uint256)": {
        "details": "Returns true if token `_tokenId` was minted from this contract to `_to`.       `_to` must not be a 0 address.       `_tokenId` must be an existent token.",
        "notice": "Callable by anyone.",
        "params": {
          "_to": "Address to which token `_tokenId` is minted.",
          "_tokenId": "Token minted."
        },
        "returns": {
          "_0": "bool true or false."
        }
      },
      "issueWithSignature(address,bytes32,bytes,uint256,string)": {
        "details": "Mints a particular quantity of tokens to `to`,        on the condition that the address has been        signed by the allowlistOwner off-chain.       This will emit the {MintSoulboundToken} event       from the Soulbound.sol.",
        "notice": "Callable by anyone.",
        "params": {
          "addr": "Address to mint tokens to.",
          "hash": "Hashed message by the allowlistOwner.",
          "sig": "Signature, signed by the allowlistOwner.",
          "tokenId": "Id of the tokens to mint to the `addr`.",
          "tokenURI": "URI of the token to be minted."
        }
      },
      "issuerOf(address,uint256)": {
        "details": "Since a token cannnot be minted twice.       This function returns the address that minted token `_tokenId` to `_to`,       otherwise this contract.       `_to` must not be a 0 address.       `_tokenId` must be an existent token.       Owner of _tokenId must be _to.",
        "notice": "Callable by anyone.",
        "params": {
          "_to": "Address to which token `_tokenId` is minted.",
          "_tokenId": "Token minted."
        },
        "returns": {
          "_0": "address of issuer."
        }
      },
      "owner()": {
        "details": "Returns the address of the current owner."
      },
      "ownerIssueWithSignature(address,bytes32,bytes,uint256,string)": {
        "details": "Ref SoulboundCore.sol issueWithSignature       This function grants the access to only the       deployer of the contract, unlike the core       that allows the function for anyone who has a       signature signed by the allowlistOwner.       This contract can be called by the deployer of the       contract [DaccredDeployer] but is also protected       as to the allowlistOwner must be the signer of the `sig.`",
        "notice": "Callable by the deployer of this contract [DaccredDeployer].",
        "params": {
          "addr": "Address to be minted to.",
          "hash": "Hash of message signed.",
          "sig": "Signature.",
          "tokenId": "TokenId to be issued.",
          "tokenURI": "URI of token to be issued."
        }
      },
      "ownerOf(uint256)": {
        "details": "ABTs assigned to zero address are considered invalid, and queries  about them do throw.",
        "notice": "Find the address bound to an ERC4973 account-bound token",
        "params": {
          "tokenId": "The identifier for an ABT"
        },
        "returns": {
          "_0": "The address of the owner bound to the ABT"
        }
      },
      "ownerRevokeWithSignature(bytes32,bytes,uint256)": {
        "details": "Ref SoulboundCore.sol revokeWithSignature       This function grants the access to only the       deployer of the contract, unlike the core       that allows the function for anyone who has a       signature signed by the allowlistOwner.       This contract can be called by the deployer of the       contract [DaccredDeployer] but is also protected       as to the allowlistOwner must be the signer of the `sig.`",
        "notice": "Callable by the deployer of this contract [DaccredDeployer].",
        "params": {
          "hash": "Hash of message signed.",
          "sig": "Signature.",
          "tokenId": "TokenId to be issued."
        }
      },
      "renounceOwnership()": {
        "details": "Leaves the contract without owner. It will not be possible to call       `onlyOwner` functions anymore. Can only be called by the current owner.       NOTE: Renouncing ownership will leave the contract without an owner,       thereby removing any functionality that is only available to the owner."
      },
      "revokeWithSignature(bytes32,bytes,uint256)": {
        "details": "Revokes the ownership of `tokenId` from the owner.       The token must exist and the signature must be signed the       allowlistOwner.       This emits the {RevokeWithSignature} event.",
        "notice": "Callable by anyone.",
        "params": {
          "hash": "Hashed message by the allowlistOwner.",
          "sig": "Signature, signed by the allowlistOwner.",
          "tokenId": "Id of the token to revoke."
        }
      },
      "setBaseURI(address,string)": {
        "details": "Allows the `caller` (allowlistOwner) to set the baseURI.       This is really important when the caller wants to mint       Multiple tokens with the same base URI.",
        "notice": "Callable by the deployer of this contract [DaccredDeployer]           and the allowlistOwner."
      },
      "supportsInterface(bytes4)": {
        "details": "See {IERC165-supportsInterface}."
      },
      "transferOwnership(address)": {
        "details": "Transfers ownership of the contract to a new account (`newOwner`).       Can only be called by the current owner."
      },
      "verifySignature(bytes32,bytes)": {
        "details": "Returns true if the signer of signature `sig` is the `allowlistOwner`.       And false if otherwise.",
        "notice": "Callable by anyone.",
        "returns": {
          "_0": "bool true or false."
        }
      },
      "verifySigner(address,bytes32,bytes)": {
        "details": "Returns true if the signer of `_signature` is `_signer`.",
        "notice": "Callable by anyone.",
        "returns": {
          "_0": "bool true or false."
        }
      }
    },
    "title": "SoulboundWithSignature.",
    "version": 1
  },
  "opcodes": "PUSH1 0x80 PUSH1 0x40 MSTORE CALLVALUE DUP1 ISZERO PUSH2 0x10 JUMPI PUSH1 0x0 DUP1 REVERT JUMPDEST POP PUSH1 0x4 CALLDATASIZE LT PUSH2 0x142 JUMPI PUSH1 0x0 CALLDATALOAD PUSH1 0xE0 SHR DUP1 PUSH4 0x88433651 GT PUSH2 0xB8 JUMPI DUP1 PUSH4 0xC9E4C54D GT PUSH2 0x7C JUMPI DUP1 PUSH4 0xC9E4C54D EQ PUSH2 0x2B7 JUMPI DUP1 PUSH4 0xDACA6F78 EQ PUSH2 0x2CA JUMPI DUP1 PUSH4 0xE92B0842 EQ PUSH2 0x2DD JUMPI DUP1 PUSH4 0xEA5353C7 EQ PUSH2 0x2F0 JUMPI DUP1 PUSH4 0xF2FDE38B EQ PUSH2 0x303 JUMPI DUP1 PUSH4 0xFB8F198D EQ PUSH2 0x316 JUMPI PUSH1 0x0 DUP1 REVERT JUMPDEST DUP1 PUSH4 0x88433651 EQ PUSH2 0x270 JUMPI DUP1 PUSH4 0x8DA5CB5B EQ PUSH2 0x283 JUMPI DUP1 PUSH4 0x95D89B41 EQ PUSH2 0x294 JUMPI DUP1 PUSH4 0xC87B56DD EQ PUSH2 0x29C JUMPI DUP1 PUSH4 0xC9DD94C7 EQ PUSH2 0x2AF JUMPI PUSH1 0x0 DUP1 REVERT JUMPDEST DUP1 PUSH4 0x42966C68 GT PUSH2 0x10A JUMPI DUP1 PUSH4 0x42966C68 EQ PUSH2 0x1BF JUMPI DUP1 PUSH4 0x5899E7B2 EQ PUSH2 0x1D2 JUMPI DUP1 PUSH4 0x6352211E EQ PUSH2 0x20B JUMPI DUP1 PUSH4 0x6E0A8746 EQ PUSH2 0x236 JUMPI DUP1 PUSH4 0x70A08231 EQ PUSH2 0x247 JUMPI DUP1 PUSH4 0x715018A6 EQ PUSH2 0x268 JUMPI PUSH1 0x0 DUP1 REVERT JUMPDEST DUP1 PUSH4 0x1FFC9A7 EQ PUSH2 0x147 JUMPI DUP1 PUSH4 0x6FDDE03 EQ PUSH2 0x16F JUMPI DUP1 PUSH4 0x8C92E57 EQ PUSH2 0x184 JUMPI DUP1 PUSH4 0x1F04D135 EQ PUSH2 0x199 JUMPI DUP1 PUSH4 0x210FA96B EQ PUSH2 0x1AC JUMPI JUMPDEST PUSH1 0x0 DUP1 REVERT JUMPDEST PUSH2 0x15A PUSH2 0x155 CALLDATASIZE PUSH1 0x4 PUSH2 0x158F JUMP JUMPDEST PUSH2 0x329 JUMP JUMPDEST PUSH1 0x40 MLOAD SWAP1 ISZERO ISZERO DUP2 MSTORE PUSH1 0x20 ADD JUMPDEST PUSH1 0x40 MLOAD DUP1 SWAP2 SUB SWAP1 RETURN JUMPDEST PUSH2 0x177 PUSH2 0x37B JUMP JUMPDEST PUSH1 0x40 MLOAD PUSH2 0x166 SWAP2 SWAP1 PUSH2 0x15E9 JUMP JUMPDEST PUSH2 0x197 PUSH2 0x192 CALLDATASIZE PUSH1 0x4 PUSH2 0x16BF JUMP JUMPDEST PUSH2 0x40D JUMP JUMPDEST STOP JUMPDEST PUSH2 0x197 PUSH2 0x1A7 CALLDATASIZE PUSH1 0x4 PUSH2 0x16BF JUMP JUMPDEST PUSH2 0x548 JUMP JUMPDEST PUSH2 0x177 PUSH2 0x1BA CALLDATASIZE PUSH1 0x4 PUSH2 0x170F JUMP JUMPDEST PUSH2 0x5C2 JUMP JUMPDEST PUSH2 0x197 PUSH2 0x1CD CALLDATASIZE PUSH1 0x4 PUSH2 0x170F JUMP JUMPDEST PUSH2 0x641 JUMP JUMPDEST PUSH2 0x15A PUSH2 0x1E0 CALLDATASIZE PUSH1 0x4 PUSH2 0x1744 JUMP JUMPDEST PUSH1 0x1 PUSH1 0x1 PUSH1 0xA0 SHL SUB SWAP2 SWAP1 SWAP2 AND PUSH1 0x0 SWAP1 DUP2 MSTORE PUSH1 0x7 PUSH1 0x20 SWAP1 DUP2 MSTORE PUSH1 0x40 DUP1 DUP4 KECCAK256 SWAP4 DUP4 MSTORE SWAP3 SWAP1 MSTORE KECCAK256 SLOAD PUSH1 0xFF AND SWAP1 JUMP JUMPDEST PUSH2 0x21E PUSH2 0x219 CALLDATASIZE PUSH1 0x4 PUSH2 0x170F JUMP JUMPDEST PUSH2 0x6B6 JUMP JUMPDEST PUSH1 0x40 MLOAD PUSH1 0x1 PUSH1 0x1 PUSH1 0xA0 SHL SUB SWAP1 SWAP2 AND DUP2 MSTORE PUSH1 0x20 ADD PUSH2 0x166 JUMP JUMPDEST PUSH1 0x8 SLOAD PUSH1 0x1 PUSH1 0x1 PUSH1 0xA0 SHL SUB AND PUSH2 0x21E JUMP JUMPDEST PUSH2 0x25A PUSH2 0x255 CALLDATASIZE PUSH1 0x4 PUSH2 0x176E JUMP JUMPDEST PUSH2 0x71B JUMP JUMPDEST PUSH1 0x40 MLOAD SWAP1 DUP2 MSTORE PUSH1 0x20 ADD PUSH2 0x166 JUMP JUMPDEST PUSH2 0x197 PUSH2 0x7A4 JUMP JUMPDEST PUSH2 0x197 PUSH2 0x27E CALLDATASIZE PUSH1 0x4 PUSH2 0x1789 JUMP JUMPDEST PUSH2 0x7B8 JUMP JUMPDEST PUSH1 0x5 SLOAD PUSH1 0x1 PUSH1 0x1 PUSH1 0xA0 SHL SUB AND PUSH2 0x21E JUMP JUMPDEST PUSH2 0x177 PUSH2 0x833 JUMP JUMPDEST PUSH2 0x177 PUSH2 0x2AA CALLDATASIZE PUSH1 0x4 PUSH2 0x170F JUMP JUMPDEST PUSH2 0x842 JUMP JUMPDEST PUSH2 0x177 PUSH2 0x937 JUMP JUMPDEST PUSH2 0x197 PUSH2 0x2C5 CALLDATASIZE PUSH1 0x4 PUSH2 0x17D7 JUMP JUMPDEST PUSH2 0x993 JUMP JUMPDEST PUSH2 0x15A PUSH2 0x2D8 CALLDATASIZE PUSH1 0x4 PUSH2 0x185F JUMP JUMPDEST PUSH2 0xAC8 JUMP JUMPDEST PUSH2 0x15A PUSH2 0x2EB CALLDATASIZE PUSH1 0x4 PUSH2 0x1890 JUMP JUMPDEST PUSH2 0xADB JUMP JUMPDEST PUSH2 0x197 PUSH2 0x2FE CALLDATASIZE PUSH1 0x4 PUSH2 0x17D7 JUMP JUMPDEST PUSH2 0xB6F JUMP JUMPDEST PUSH2 0x197 PUSH2 0x311 CALLDATASIZE PUSH1 0x4 PUSH2 0x176E JUMP JUMPDEST PUSH2 0xBE8 JUMP JUMPDEST PUSH2 0x21E PUSH2 0x324 CALLDATASIZE PUSH1 0x4 PUSH2 0x1744 JUMP JUMPDEST PUSH2 0xC5E JUMP JUMPDEST PUSH1 0x0 PUSH1 0x1 PUSH1 0x1 PUSH1 0xE0 SHL SUB NOT DUP3 AND PUSH4 0x5B5E139F PUSH1 0xE0 SHL EQ DUP1 PUSH2 0x35A JUMPI POP PUSH1 0x1 PUSH1 0x1 PUSH1 0xE0 SHL SUB NOT DUP3 AND PUSH4 0x5164CF47 PUSH1 0xE0 SHL EQ JUMPDEST DUP1 PUSH2 0x375 JUMPI POP PUSH4 0x1FFC9A7 PUSH1 0xE0 SHL PUSH1 0x1 PUSH1 0x1 PUSH1 0xE0 SHL SUB NOT DUP4 AND EQ JUMPDEST SWAP3 SWAP2 POP POP JUMP JUMPDEST PUSH1 0x60 PUSH1 0x0 DUP1 SLOAD PUSH2 0x38A SWAP1 PUSH2 0x18E7 JUMP JUMPDEST DUP1 PUSH1 0x1F ADD PUSH1 0x20 DUP1 SWAP2 DIV MUL PUSH1 0x20 ADD PUSH1 0x40 MLOAD SWAP1 DUP2 ADD PUSH1 0x40 MSTORE DUP1 SWAP3 SWAP2 SWAP1 DUP2 DUP2 MSTORE PUSH1 0x20 ADD DUP3 DUP1 SLOAD PUSH2 0x3B6 SWAP1 PUSH2 0x18E7 JUMP JUMPDEST DUP1 ISZERO PUSH2 0x403 JUMPI DUP1 PUSH1 0x1F LT PUSH2 0x3D8 JUMPI PUSH2 0x100 DUP1 DUP4 SLOAD DIV MUL DUP4 MSTORE SWAP2 PUSH1 0x20 ADD SWAP2 PUSH2 0x403 JUMP JUMPDEST DUP3 ADD SWAP2 SWAP1 PUSH1 0x0 MSTORE PUSH1 0x20 PUSH1 0x0 KECCAK256 SWAP1 JUMPDEST DUP2 SLOAD DUP2 MSTORE SWAP1 PUSH1 0x1 ADD SWAP1 PUSH1 0x20 ADD DUP1 DUP4 GT PUSH2 0x3E6 JUMPI DUP3 SWAP1 SUB PUSH1 0x1F AND DUP3 ADD SWAP2 JUMPDEST POP POP POP POP POP SWAP1 POP SWAP1 JUMP JUMPDEST PUSH2 0x416 DUP2 PUSH2 0xD72 JUMP JUMPDEST PUSH2 0x467 JUMPI PUSH1 0x40 MLOAD PUSH3 0x461BCD PUSH1 0xE5 SHL DUP2 MSTORE PUSH1 0x20 PUSH1 0x4 DUP3 ADD MSTORE PUSH1 0x1B PUSH1 0x24 DUP3 ADD MSTORE PUSH32 0x5265766F6B65206F6620696E6578697374656E7420746F6B656E2E0000000000 PUSH1 0x44 DUP3 ADD MSTORE PUSH1 0x64 ADD JUMPDEST PUSH1 0x40 MLOAD DUP1 SWAP2 SUB SWAP1 REVERT JUMPDEST DUP2 MLOAD PUSH1 0x41 EQ PUSH2 0x4B3 JUMPI PUSH1 0x40 MLOAD PUSH3 0x461BCD PUSH1 0xE5 SHL DUP2 MSTORE PUSH1 0x20 PUSH1 0x4 DUP3 ADD MSTORE PUSH1 0x18 PUSH1 0x24 DUP3 ADD MSTORE PUSH24 0x92DCECC2D8D2C840E6D2CEDCC2E8EAE4CA40D8CADCCEE8D PUSH1 0x43 SHL PUSH1 0x44 DUP3 ADD MSTORE PUSH1 0x64 ADD PUSH2 0x45E JUMP JUMPDEST PUSH2 0x4BD DUP4 DUP4 PUSH2 0xAC8 JUMP JUMPDEST PUSH2 0x505 JUMPI PUSH1 0x40 MLOAD PUSH3 0x461BCD PUSH1 0xE5 SHL DUP2 MSTORE PUSH1 0x20 PUSH1 0x4 DUP3 ADD MSTORE PUSH1 0x19 PUSH1 0x24 DUP3 ADD MSTORE PUSH25 0x2430B9B4103737BA1039B4B3B732B210313C9037BBB732B917 PUSH1 0x39 SHL PUSH1 0x44 DUP3 ADD MSTORE PUSH1 0x64 ADD PUSH2 0x45E JUMP JUMPDEST PUSH2 0x517 PUSH2 0x511 DUP3 PUSH2 0x6B6 JUMP JUMPDEST DUP3 PUSH2 0xD8F JUMP JUMPDEST POP PUSH1 0x40 MLOAD DUP2 SWAP1 PUSH32 0xF947BF2266AFEDE98F27AD2312DB8B2A17921852307F979B6F14A2B41FA774BC SWAP1 PUSH1 0x0 SWAP1 LOG2 POP POP POP JUMP JUMPDEST PUSH2 0x550 PUSH2 0xE57 JUMP JUMPDEST PUSH1 0xA SLOAD ISZERO PUSH2 0x572 JUMPI PUSH1 0xA DUP1 SLOAD SWAP1 PUSH1 0x0 PUSH2 0x568 DUP4 PUSH2 0x1938 JUMP JUMPDEST SWAP2 SWAP1 POP SSTORE POP PUSH2 0x5B2 JUMP JUMPDEST PUSH1 0x40 MLOAD PUSH3 0x461BCD PUSH1 0xE5 SHL DUP2 MSTORE PUSH1 0x20 PUSH1 0x4 DUP3 ADD MSTORE PUSH1 0x15 PUSH1 0x24 DUP3 ADD MSTORE PUSH21 0x2637BBB2B9BA103634B6B4BA103932B0B1B432B217 PUSH1 0x59 SHL PUSH1 0x44 DUP3 ADD MSTORE PUSH1 0x64 ADD PUSH2 0x45E JUMP JUMPDEST PUSH2 0x5BD DUP4 DUP4 DUP4 PUSH2 0x40D JUMP JUMPDEST POP POP POP JUMP JUMPDEST PUSH1 0x60 PUSH2 0x5CC PUSH2 0x937 JUMP JUMPDEST MLOAD PUSH2 0x609 JUMPI PUSH1 0x40 MLOAD PUSH3 0x461BCD PUSH1 0xE5 SHL DUP2 MSTORE PUSH1 0x20 PUSH1 0x4 DUP3 ADD MSTORE PUSH1 0xD PUSH1 0x24 DUP3 ADD MSTORE PUSH13 0x456D7074792062617365555249 PUSH1 0x98 SHL PUSH1 0x44 DUP3 ADD MSTORE PUSH1 0x64 ADD PUSH2 0x45E JUMP JUMPDEST PUSH2 0x611 PUSH2 0x937 JUMP JUMPDEST PUSH2 0x61A DUP4 PUSH2 0xEB1 JUMP JUMPDEST PUSH1 0x40 MLOAD PUSH1 0x20 ADD PUSH2 0x62B SWAP3 SWAP2 SWAP1 PUSH2 0x194F JUMP JUMPDEST PUSH1 0x40 MLOAD PUSH1 0x20 DUP2 DUP4 SUB SUB DUP2 MSTORE SWAP1 PUSH1 0x40 MSTORE SWAP1 POP SWAP2 SWAP1 POP JUMP JUMPDEST PUSH2 0x64A DUP2 PUSH2 0x6B6 JUMP JUMPDEST PUSH1 0x1 PUSH1 0x1 PUSH1 0xA0 SHL SUB AND CALLER PUSH1 0x1 PUSH1 0x1 PUSH1 0xA0 SHL SUB AND EQ PUSH2 0x6AA JUMPI PUSH1 0x40 MLOAD PUSH3 0x461BCD PUSH1 0xE5 SHL DUP2 MSTORE PUSH1 0x20 PUSH1 0x4 DUP3 ADD MSTORE PUSH1 0x1A PUSH1 0x24 DUP3 ADD MSTORE PUSH32 0x6275726E3A2073656E646572206D757374206265206F776E6572000000000000 PUSH1 0x44 DUP3 ADD MSTORE PUSH1 0x64 ADD PUSH2 0x45E JUMP JUMPDEST PUSH2 0x6B3 DUP2 PUSH2 0xFB7 JUMP JUMPDEST POP JUMP JUMPDEST PUSH1 0x0 DUP2 DUP2 MSTORE PUSH1 0x2 PUSH1 0x20 MSTORE PUSH1 0x40 DUP2 KECCAK256 SLOAD PUSH1 0x1 PUSH1 0x1 PUSH1 0xA0 SHL SUB AND DUP1 PUSH2 0x375 JUMPI PUSH1 0x40 MLOAD PUSH3 0x461BCD PUSH1 0xE5 SHL DUP2 MSTORE PUSH1 0x20 PUSH1 0x4 DUP3 ADD MSTORE PUSH1 0x1C PUSH1 0x24 DUP3 ADD MSTORE PUSH32 0x6F776E65724F663A20746F6B656E20646F65736E277420657869737400000000 PUSH1 0x44 DUP3 ADD MSTORE PUSH1 0x64 ADD PUSH2 0x45E JUMP JUMPDEST PUSH1 0x0 PUSH1 0x1 PUSH1 0x1 PUSH1 0xA0 SHL SUB DUP3 AND PUSH2 0x788 JUMPI PUSH1 0x40 MLOAD PUSH3 0x461BCD PUSH1 0xE5 SHL DUP2 MSTORE PUSH1 0x20 PUSH1 0x4 DUP3 ADD MSTORE PUSH1 0x2C PUSH1 0x24 DUP3 ADD MSTORE PUSH32 0x62616C616E63654F663A2061646472657373207A65726F206973206E6F742061 PUSH1 0x44 DUP3 ADD MSTORE PUSH12 0x103B30B634B21037BBB732B9 PUSH1 0xA1 SHL PUSH1 0x64 DUP3 ADD MSTORE PUSH1 0x84 ADD PUSH2 0x45E JUMP JUMPDEST POP PUSH1 0x1 PUSH1 0x1 PUSH1 0xA0 SHL SUB AND PUSH1 0x0 SWAP1 DUP2 MSTORE PUSH1 0x4 PUSH1 0x20 MSTORE PUSH1 0x40 SWAP1 KECCAK256 SLOAD SWAP1 JUMP JUMPDEST PUSH2 0x7AC PUSH2 0xE57 JUMP JUMPDEST PUSH2 0x7B6 PUSH1 0x0 PUSH2 0x105E JUMP JUMPDEST JUMP JUMPDEST PUSH2 0x7C0 PUSH2 0xE57 JUMP JUMPDEST DUP2 PUSH2 0x7D3 PUSH1 0x8 SLOAD PUSH1 0x1 PUSH1 0x1 PUSH1 0xA0 SHL SUB AND SWAP1 JUMP JUMPDEST PUSH1 0x1 PUSH1 0x1 PUSH1 0xA0 SHL SUB AND DUP2 PUSH1 0x1 PUSH1 0x1 PUSH1 0xA0 SHL SUB AND EQ PUSH2 0x82A JUMPI PUSH1 0x40 MLOAD PUSH3 0x461BCD PUSH1 0xE5 SHL DUP2 MSTORE PUSH1 0x20 PUSH1 0x4 DUP3 ADD MSTORE PUSH1 0x14 PUSH1 0x24 DUP3 ADD MSTORE PUSH20 0x4E6F7420416C6C6F776C697374204F776E657221 PUSH1 0x60 SHL PUSH1 0x44 DUP3 ADD MSTORE PUSH1 0x64 ADD PUSH2 0x45E JUMP JUMPDEST PUSH2 0x5BD DUP3 PUSH2 0x10B0 JUMP JUMPDEST PUSH1 0x60 PUSH1 0x1 DUP1 SLOAD PUSH2 0x38A SWAP1 PUSH2 0x18E7 JUMP JUMPDEST PUSH1 0x60 PUSH2 0x84D DUP3 PUSH2 0xD72 JUMP JUMPDEST PUSH2 0x899 JUMPI PUSH1 0x40 MLOAD PUSH3 0x461BCD PUSH1 0xE5 SHL DUP2 MSTORE PUSH1 0x20 PUSH1 0x4 DUP3 ADD MSTORE PUSH1 0x1D PUSH1 0x24 DUP3 ADD MSTORE PUSH32 0x746F6B656E5552493A20746F6B656E20646F65736E2774206578697374000000 PUSH1 0x44 DUP3 ADD MSTORE PUSH1 0x64 ADD PUSH2 0x45E JUMP JUMPDEST PUSH1 0x0 DUP3 DUP2 MSTORE PUSH1 0x3 PUSH1 0x20 MSTORE PUSH1 0x40 SWAP1 KECCAK256 DUP1 SLOAD PUSH2 0x8B2 SWAP1 PUSH2 0x18E7 JUMP JUMPDEST DUP1 PUSH1 0x1F ADD PUSH1 0x20 DUP1 SWAP2 DIV MUL PUSH1 0x20 ADD PUSH1 0x40 MLOAD SWAP1 DUP2 ADD PUSH1 0x40 MSTORE DUP1 SWAP3 SWAP2 SWAP1 DUP2 DUP2 MSTORE PUSH1 0x20 ADD DUP3 DUP1 SLOAD PUSH2 0x8DE SWAP1 PUSH2 0x18E7 JUMP JUMPDEST DUP1 ISZERO PUSH2 0x92B JUMPI DUP1 PUSH1 0x1F LT PUSH2 0x900 JUMPI PUSH2 0x100 DUP1 DUP4 SLOAD DIV MUL DUP4 MSTORE SWAP2 PUSH1 0x20 ADD SWAP2 PUSH2 0x92B JUMP JUMPDEST DUP3 ADD SWAP2 SWAP1 PUSH1 0x0 MSTORE PUSH1 0x20 PUSH1 0x0 KECCAK256 SWAP1 JUMPDEST DUP2 SLOAD DUP2 MSTORE SWAP1 PUSH1 0x1 ADD SWAP1 PUSH1 0x20 ADD DUP1 DUP4 GT PUSH2 0x90E JUMPI DUP3 SWAP1 SUB PUSH1 0x1F AND DUP3 ADD SWAP2 JUMPDEST POP POP POP POP POP SWAP1 POP SWAP2 SWAP1 POP JUMP JUMPDEST PUSH1 0x60 PUSH1 0x6 DUP1 SLOAD PUSH2 0x946 SWAP1 PUSH2 0x18E7 JUMP JUMPDEST ISZERO ISZERO SWAP1 POP PUSH2 0x986 JUMPI PUSH1 0x40 MLOAD PUSH3 0x461BCD PUSH1 0xE5 SHL DUP2 MSTORE PUSH1 0x20 PUSH1 0x4 DUP3 ADD MSTORE PUSH1 0xD PUSH1 0x24 DUP3 ADD MSTORE PUSH13 0x456D7074792062617365555249 PUSH1 0x98 SHL PUSH1 0x44 DUP3 ADD MSTORE PUSH1 0x64 ADD PUSH2 0x45E JUMP JUMPDEST PUSH1 0x6 DUP1 SLOAD PUSH2 0x38A SWAP1 PUSH2 0x18E7 JUMP JUMPDEST PUSH1 0x1 PUSH1 0x1 PUSH1 0xA0 SHL SUB DUP6 AND PUSH2 0x9E1 JUMPI PUSH1 0x40 MLOAD PUSH3 0x461BCD PUSH1 0xE5 SHL DUP2 MSTORE PUSH1 0x20 PUSH1 0x4 DUP3 ADD MSTORE PUSH1 0x15 PUSH1 0x24 DUP3 ADD MSTORE PUSH21 0x26B4B73A103A37903D32B9379030B2323932B9B997 PUSH1 0x59 SHL PUSH1 0x44 DUP3 ADD MSTORE PUSH1 0x64 ADD PUSH2 0x45E JUMP JUMPDEST DUP3 MLOAD PUSH1 0x41 EQ PUSH2 0xA2D JUMPI PUSH1 0x40 MLOAD PUSH3 0x461BCD PUSH1 0xE5 SHL DUP2 MSTORE PUSH1 0x20 PUSH1 0x4 DUP3 ADD MSTORE PUSH1 0x18 PUSH1 0x24 DUP3 ADD MSTORE PUSH24 0x92DCECC2D8D2C840E6D2CEDCC2E8EAE4CA40D8CADCCEE8D PUSH1 0x43 SHL PUSH1 0x44 DUP3 ADD MSTORE PUSH1 0x64 ADD PUSH2 0x45E JUMP JUMPDEST PUSH2 0xA37 DUP5 DUP5 PUSH2 0xAC8 JUMP JUMPDEST PUSH2 0xA7F JUMPI PUSH1 0x40 MLOAD PUSH3 0x461BCD PUSH1 0xE5 SHL DUP2 MSTORE PUSH1 0x20 PUSH1 0x4 DUP3 ADD MSTORE PUSH1 0x19 PUSH1 0x24 DUP3 ADD MSTORE PUSH25 0x2430B9B4103737BA1039B4B3B732B210313C9037BBB732B917 PUSH1 0x39 SHL PUSH1 0x44 DUP3 ADD MSTORE PUSH1 0x64 ADD PUSH2 0x45E JUMP JUMPDEST PUSH2 0xA8A DUP6 DUP4 DUP4 PUSH2 0x1106 JUMP JUMPDEST POP PUSH1 0x40 MLOAD DUP3 SWAP1 PUSH1 0x1 PUSH1 0x1 PUSH1 0xA0 SHL SUB DUP8 AND SWAP1 PUSH32 0x79AF0E59B31823DD289CEEBABC4D63D25F35926B8548E3A084A500C9D4E18556 SWAP1 PUSH1 0x0 SWAP1 LOG3 POP POP POP POP POP JUMP JUMPDEST PUSH1 0x0 PUSH2 0xAD4 DUP4 DUP4 PUSH2 0x111D JUMP JUMPDEST SWAP4 SWAP3 POP POP POP JUMP JUMPDEST PUSH1 0x20 DUP2 DUP2 ADD MLOAD PUSH1 0x40 DUP1 DUP5 ADD MLOAD PUSH1 0x60 DUP1 DUP7 ADD MLOAD DUP4 MLOAD PUSH1 0x0 DUP1 DUP3 MSTORE DUP2 DUP9 ADD DUP1 DUP8 MSTORE DUP11 SWAP1 MSTORE SWAP2 DUP3 BYTE DUP2 DUP7 ADD DUP2 SWAP1 MSTORE SWAP3 DUP2 ADD DUP7 SWAP1 MSTORE PUSH1 0x80 DUP2 ADD DUP5 SWAP1 MSTORE SWAP4 MLOAD SWAP1 SWAP6 SWAP3 SWAP4 SWAP2 SWAP3 PUSH1 0x1 SWAP3 PUSH1 0xA0 DUP1 DUP3 ADD SWAP4 PUSH1 0x1F NOT DUP2 ADD SWAP3 DUP2 SWAP1 SUB SWAP1 SWAP2 ADD SWAP1 DUP6 GAS STATICCALL ISZERO DUP1 ISZERO PUSH2 0xB45 JUMPI RETURNDATASIZE PUSH1 0x0 DUP1 RETURNDATACOPY RETURNDATASIZE PUSH1 0x0 REVERT JUMPDEST POP POP POP PUSH1 0x20 PUSH1 0x40 MLOAD SUB MLOAD PUSH1 0x1 PUSH1 0x1 PUSH1 0xA0 SHL SUB AND DUP8 PUSH1 0x1 PUSH1 0x1 PUSH1 0xA0 SHL SUB AND EQ SWAP4 POP POP POP POP SWAP4 SWAP3 POP POP POP JUMP JUMPDEST PUSH2 0xB77 PUSH2 0xE57 JUMP JUMPDEST PUSH1 0x9 SLOAD PUSH1 0xA SLOAD LT PUSH2 0xBBF JUMPI PUSH1 0x40 MLOAD PUSH3 0x461BCD PUSH1 0xE5 SHL DUP2 MSTORE PUSH1 0x20 PUSH1 0x4 DUP3 ADD MSTORE PUSH1 0x12 PUSH1 0x24 DUP3 ADD MSTORE PUSH18 0x24B9B9BAB29021B0B8102932B0B1B432B217 PUSH1 0x71 SHL PUSH1 0x44 DUP3 ADD MSTORE PUSH1 0x64 ADD PUSH2 0x45E JUMP JUMPDEST PUSH2 0xBCC DUP6 DUP6 DUP6 DUP6 DUP6 PUSH2 0x993 JUMP JUMPDEST PUSH1 0xA DUP1 SLOAD SWAP1 PUSH1 0x0 PUSH2 0xBDC DUP4 PUSH2 0x197E JUMP JUMPDEST SWAP2 SWAP1 POP SSTORE POP POP POP POP POP POP JUMP JUMPDEST PUSH2 0xBF0 PUSH2 0xE57 JUMP JUMPDEST PUSH1 0x1 PUSH1 0x1 PUSH1 0xA0 SHL SUB DUP2 AND PUSH2 0xC55 JUMPI PUSH1 0x40 MLOAD PUSH3 0x461BCD PUSH1 0xE5 SHL DUP2 MSTORE PUSH1 0x20 PUSH1 0x4 DUP3 ADD MSTORE PUSH1 0x26 PUSH1 0x24 DUP3 ADD MSTORE PUSH32 0x4F776E61626C653A206E6577206F776E657220697320746865207A65726F2061 PUSH1 0x44 DUP3 ADD MSTORE PUSH6 0x646472657373 PUSH1 0xD0 SHL PUSH1 0x64 DUP3 ADD MSTORE PUSH1 0x84 ADD PUSH2 0x45E JUMP JUMPDEST PUSH2 0x6B3 DUP2 PUSH2 0x105E JUMP JUMPDEST PUSH1 0x0 PUSH1 0x1 PUSH1 0x1 PUSH1 0xA0 SHL SUB DUP4 AND PUSH2 0xCB6 JUMPI PUSH1 0x40 MLOAD PUSH3 0x461BCD PUSH1 0xE5 SHL DUP2 MSTORE PUSH1 0x20 PUSH1 0x4 DUP3 ADD MSTORE PUSH1 0x17 PUSH1 0x24 DUP3 ADD MSTORE PUSH32 0x517565727920666F72207A65726F20616464726573732E000000000000000000 PUSH1 0x44 DUP3 ADD MSTORE PUSH1 0x64 ADD PUSH2 0x45E JUMP JUMPDEST PUSH2 0xCBF DUP3 PUSH2 0xD72 JUMP JUMPDEST PUSH2 0xD01 JUMPI PUSH1 0x40 MLOAD PUSH3 0x461BCD PUSH1 0xE5 SHL DUP2 MSTORE PUSH1 0x20 PUSH1 0x4 DUP3 ADD MSTORE PUSH1 0x13 PUSH1 0x24 DUP3 ADD MSTORE PUSH19 0x2737B716B2BC34B9BA32B73A103A37B5B2B717 PUSH1 0x69 SHL PUSH1 0x44 DUP3 ADD MSTORE PUSH1 0x64 ADD PUSH2 0x45E JUMP JUMPDEST DUP3 PUSH1 0x1 PUSH1 0x1 PUSH1 0xA0 SHL SUB AND PUSH2 0xD14 DUP4 PUSH2 0x6B6 JUMP JUMPDEST PUSH1 0x1 PUSH1 0x1 PUSH1 0xA0 SHL SUB AND EQ PUSH2 0xD6A JUMPI PUSH1 0x40 MLOAD PUSH3 0x461BCD PUSH1 0xE5 SHL DUP2 MSTORE PUSH1 0x20 PUSH1 0x4 DUP3 ADD MSTORE PUSH1 0x1A PUSH1 0x24 DUP3 ADD MSTORE PUSH32 0x546F6B656E206E6F74206F776E65642062792061646472657373000000000000 PUSH1 0x44 DUP3 ADD MSTORE PUSH1 0x64 ADD PUSH2 0x45E JUMP JUMPDEST POP ADDRESS SWAP3 SWAP2 POP POP JUMP JUMPDEST PUSH1 0x0 SWAP1 DUP2 MSTORE PUSH1 0x2 PUSH1 0x20 MSTORE PUSH1 0x40 SWAP1 KECCAK256 SLOAD PUSH1 0x1 PUSH1 0x1 PUSH1 0xA0 SHL SUB AND ISZERO ISZERO SWAP1 JUMP JUMPDEST PUSH1 0x0 PUSH2 0xD9A DUP3 PUSH2 0xD72 JUMP JUMPDEST PUSH2 0xDDC JUMPI PUSH1 0x40 MLOAD PUSH3 0x461BCD PUSH1 0xE5 SHL DUP2 MSTORE PUSH1 0x20 PUSH1 0x4 DUP3 ADD MSTORE PUSH1 0x13 PUSH1 0x24 DUP3 ADD MSTORE PUSH19 0x2737B716B2BC34B9BA32B73A103A37B5B2B717 PUSH1 0x69 SHL PUSH1 0x44 DUP3 ADD MSTORE PUSH1 0x64 ADD PUSH2 0x45E JUMP JUMPDEST DUP3 PUSH1 0x1 PUSH1 0x1 PUSH1 0xA0 SHL SUB AND PUSH2 0xDEF DUP4 PUSH2 0x6B6 JUMP JUMPDEST PUSH1 0x1 PUSH1 0x1 PUSH1 0xA0 SHL SUB AND EQ PUSH2 0xE45 JUMPI PUSH1 0x40 MLOAD PUSH3 0x461BCD PUSH1 0xE5 SHL DUP2 MSTORE PUSH1 0x20 PUSH1 0x4 DUP3 ADD MSTORE PUSH1 0x1A PUSH1 0x24 DUP3 ADD MSTORE PUSH32 0x546F6B656E206E6F74206F776E65642062792061646472657373000000000000 PUSH1 0x44 DUP3 ADD MSTORE PUSH1 0x64 ADD PUSH2 0x45E JUMP JUMPDEST PUSH2 0xE4E DUP3 PUSH2 0x12A0 JUMP JUMPDEST POP PUSH1 0x1 SWAP3 SWAP2 POP POP JUMP JUMPDEST PUSH1 0x5 SLOAD PUSH1 0x1 PUSH1 0x1 PUSH1 0xA0 SHL SUB AND CALLER EQ PUSH2 0x7B6 JUMPI PUSH1 0x40 MLOAD PUSH3 0x461BCD PUSH1 0xE5 SHL DUP2 MSTORE PUSH1 0x20 PUSH1 0x4 DUP3 ADD DUP2 SWAP1 MSTORE PUSH1 0x24 DUP3 ADD MSTORE PUSH32 0x4F776E61626C653A2063616C6C6572206973206E6F7420746865206F776E6572 PUSH1 0x44 DUP3 ADD MSTORE PUSH1 0x64 ADD PUSH2 0x45E JUMP JUMPDEST PUSH1 0x60 DUP2 PUSH2 0xED5 JUMPI POP POP PUSH1 0x40 DUP1 MLOAD DUP1 DUP3 ADD SWAP1 SWAP2 MSTORE PUSH1 0x1 DUP2 MSTORE PUSH1 0x3 PUSH1 0xFC SHL PUSH1 0x20 DUP3 ADD MSTORE SWAP1 JUMP JUMPDEST DUP2 PUSH1 0x0 JUMPDEST DUP2 ISZERO PUSH2 0xEFF JUMPI DUP1 PUSH2 0xEE9 DUP2 PUSH2 0x197E JUMP JUMPDEST SWAP2 POP PUSH2 0xEF8 SWAP1 POP PUSH1 0xA DUP4 PUSH2 0x19AF JUMP JUMPDEST SWAP2 POP PUSH2 0xED9 JUMP JUMPDEST PUSH1 0x0 DUP2 PUSH8 0xFFFFFFFFFFFFFFFF DUP2 GT ISZERO PUSH2 0xF1A JUMPI PUSH2 0xF1A PUSH2 0x161C JUMP JUMPDEST PUSH1 0x40 MLOAD SWAP1 DUP1 DUP3 MSTORE DUP1 PUSH1 0x1F ADD PUSH1 0x1F NOT AND PUSH1 0x20 ADD DUP3 ADD PUSH1 0x40 MSTORE DUP1 ISZERO PUSH2 0xF44 JUMPI PUSH1 0x20 DUP3 ADD DUP2 DUP1 CALLDATASIZE DUP4 CALLDATACOPY ADD SWAP1 POP JUMPDEST POP SWAP1 POP JUMPDEST DUP5 ISZERO PUSH2 0xFAF JUMPI PUSH2 0xF59 PUSH1 0x1 DUP4 PUSH2 0x19C3 JUMP JUMPDEST SWAP2 POP PUSH2 0xF66 PUSH1 0xA DUP7 PUSH2 0x19DA JUMP JUMPDEST PUSH2 0xF71 SWAP1 PUSH1 0x30 PUSH2 0x19EE JUMP JUMPDEST PUSH1 0xF8 SHL DUP2 DUP4 DUP2 MLOAD DUP2 LT PUSH2 0xF86 JUMPI PUSH2 0xF86 PUSH2 0x1A06 JUMP JUMPDEST PUSH1 0x20 ADD ADD SWAP1 PUSH1 0x1 PUSH1 0x1 PUSH1 0xF8 SHL SUB NOT AND SWAP1 DUP2 PUSH1 0x0 BYTE SWAP1 MSTORE8 POP PUSH2 0xFA8 PUSH1 0xA DUP7 PUSH2 0x19AF JUMP JUMPDEST SWAP5 POP PUSH2 0xF48 JUMP JUMPDEST SWAP5 SWAP4 POP POP POP POP JUMP JUMPDEST PUSH1 0x0 PUSH2 0xFC2 DUP3 PUSH2 0x6B6 JUMP JUMPDEST PUSH1 0x1 PUSH1 0x1 PUSH1 0xA0 SHL SUB DUP2 AND PUSH1 0x0 SWAP1 DUP2 MSTORE PUSH1 0x4 PUSH1 0x20 MSTORE PUSH1 0x40 DUP2 KECCAK256 DUP1 SLOAD SWAP3 SWAP4 POP PUSH1 0x1 SWAP3 SWAP1 SWAP2 SWAP1 PUSH2 0xFF0 SWAP1 DUP5 SWAP1 PUSH2 0x19C3 JUMP JUMPDEST SWAP1 SWAP2 SSTORE POP POP PUSH1 0x0 DUP3 DUP2 MSTORE PUSH1 0x2 PUSH1 0x20 SWAP1 DUP2 MSTORE PUSH1 0x40 DUP1 DUP4 KECCAK256 DUP1 SLOAD PUSH1 0x1 PUSH1 0x1 PUSH1 0xA0 SHL SUB NOT AND SWAP1 SSTORE PUSH1 0x3 SWAP1 SWAP2 MSTORE DUP2 KECCAK256 PUSH2 0x1024 SWAP2 PUSH2 0x14BC JUMP JUMPDEST PUSH1 0x40 MLOAD DUP3 SWAP1 PUSH1 0x1 PUSH1 0x1 PUSH1 0xA0 SHL SUB DUP4 AND SWAP1 PUSH32 0xEC9AB91322523C899EDE7830EC9BFC992B5981CDCC27B91162FB23DE5791117B SWAP1 PUSH1 0x0 SWAP1 LOG3 POP POP JUMP JUMPDEST PUSH1 0x5 DUP1 SLOAD PUSH1 0x1 PUSH1 0x1 PUSH1 0xA0 SHL SUB DUP4 DUP2 AND PUSH1 0x1 PUSH1 0x1 PUSH1 0xA0 SHL SUB NOT DUP4 AND DUP2 OR SWAP1 SWAP4 SSTORE PUSH1 0x40 MLOAD SWAP2 AND SWAP2 SWAP1 DUP3 SWAP1 PUSH32 0x8BE0079C531659141344CD1FD0A4F28419497F9722A3DAAFE3B4186F6B6457E0 SWAP1 PUSH1 0x0 SWAP1 LOG3 POP POP JUMP JUMPDEST DUP1 MLOAD PUSH2 0x10EF JUMPI PUSH1 0x40 MLOAD PUSH3 0x461BCD PUSH1 0xE5 SHL DUP2 MSTORE PUSH1 0x20 PUSH1 0x4 DUP3 ADD MSTORE PUSH1 0xE PUSH1 0x24 DUP3 ADD MSTORE PUSH14 0x92DCECC2D8D2C840D8CADCCEE8D PUSH1 0x93 SHL PUSH1 0x44 DUP3 ADD MSTORE PUSH1 0x64 ADD PUSH2 0x45E JUMP JUMPDEST DUP1 MLOAD PUSH2 0x1102 SWAP1 PUSH1 0x6 SWAP1 PUSH1 0x20 DUP5 ADD SWAP1 PUSH2 0x14F6 JUMP JUMPDEST POP POP JUMP JUMPDEST PUSH1 0x0 PUSH2 0x1113 DUP5 DUP5 DUP5 PUSH2 0x1336 JUMP JUMPDEST POP PUSH1 0x1 SWAP4 SWAP3 POP POP POP JUMP JUMPDEST PUSH1 0x0 PUSH2 0x1127 PUSH2 0xE57 JUMP JUMPDEST PUSH1 0x5 SLOAD PUSH1 0x1 PUSH1 0x1 PUSH1 0xA0 SHL SUB AND CALLER EQ PUSH2 0x1195 JUMPI PUSH1 0x40 MLOAD PUSH3 0x461BCD PUSH1 0xE5 SHL DUP2 MSTORE PUSH1 0x20 PUSH1 0x4 DUP3 ADD MSTORE PUSH1 0x2B PUSH1 0x24 DUP3 ADD MSTORE PUSH32 0x4552433732313A3A2043616C6C20746F20636F6E7472616374206D6164652062 PUSH1 0x44 DUP3 ADD MSTORE PUSH11 0x3C903737B716B7BBB732B9 PUSH1 0xA9 SHL PUSH1 0x64 DUP3 ADD MSTORE PUSH1 0x84 ADD PUSH2 0x45E JUMP JUMPDEST DUP2 MLOAD PUSH1 0x41 EQ PUSH2 0x11E6 JUMPI PUSH1 0x40 MLOAD PUSH3 0x461BCD PUSH1 0xE5 SHL DUP2 MSTORE PUSH1 0x20 PUSH1 0x4 DUP3 ADD MSTORE PUSH1 0x1E PUSH1 0x24 DUP3 ADD MSTORE PUSH32 0x4572723A3A20496E76616C6964207369676E6174757265206C656E6774680000 PUSH1 0x44 DUP3 ADD MSTORE PUSH1 0x64 ADD PUSH2 0x45E JUMP JUMPDEST PUSH1 0x20 DUP3 DUP2 ADD MLOAD PUSH1 0x40 DUP1 DUP6 ADD MLOAD PUSH1 0x60 DUP1 DUP8 ADD MLOAD DUP4 MLOAD PUSH1 0x0 DUP1 DUP3 MSTORE SWAP7 DUP2 ADD DUP1 DUP7 MSTORE DUP11 SWAP1 MSTORE SWAP1 DUP7 BYTE SWAP4 DUP2 ADD DUP5 SWAP1 MSTORE SWAP1 DUP2 ADD DUP5 SWAP1 MSTORE PUSH1 0x80 DUP2 ADD DUP3 SWAP1 MSTORE SWAP3 SWAP4 SWAP1 SWAP3 PUSH1 0x1 SWAP1 PUSH1 0xA0 ADD PUSH1 0x20 PUSH1 0x40 MLOAD PUSH1 0x20 DUP2 SUB SWAP1 DUP1 DUP5 SUB SWAP1 DUP6 GAS STATICCALL ISZERO DUP1 ISZERO PUSH2 0x124A JUMPI RETURNDATASIZE PUSH1 0x0 DUP1 RETURNDATACOPY RETURNDATASIZE PUSH1 0x0 REVERT JUMPDEST POP POP PUSH1 0x40 MLOAD PUSH1 0x1F NOT DUP2 ADD MLOAD PUSH1 0x8 SLOAD SWAP1 SWAP4 POP PUSH1 0x1 PUSH1 0x1 PUSH1 0xA0 SHL SUB DUP1 DUP6 AND SWAP2 AND EQ SWAP2 POP DUP2 SWAP1 DUP10 SWAP1 PUSH32 0x7E4FE2A2A805A357593FDBDDE58C02F6A53D8B4960744CD31A98697FC11C2E36 SWAP1 PUSH1 0x0 SWAP1 LOG3 SWAP8 SWAP7 POP POP POP POP POP POP POP JUMP JUMPDEST PUSH2 0x12A9 DUP2 PUSH2 0xD72 JUMP JUMPDEST PUSH2 0x12F5 JUMPI PUSH1 0x40 MLOAD PUSH3 0x461BCD PUSH1 0xE5 SHL DUP2 MSTORE PUSH1 0x20 PUSH1 0x4 DUP3 ADD MSTORE PUSH1 0x18 PUSH1 0x24 DUP3 ADD MSTORE PUSH32 0x4275726E206F6620696E6578697374656E7420746F6B656E0000000000000000 PUSH1 0x44 DUP3 ADD MSTORE PUSH1 0x64 ADD PUSH2 0x45E JUMP JUMPDEST PUSH1 0x0 PUSH2 0x1300 DUP3 PUSH2 0x6B6 JUMP JUMPDEST SWAP1 POP PUSH2 0x130B DUP3 PUSH2 0xFB7 JUMP JUMPDEST PUSH1 0x1 PUSH1 0x1 PUSH1 0xA0 SHL SUB AND PUSH1 0x0 SWAP1 DUP2 MSTORE PUSH1 0x7 PUSH1 0x20 SWAP1 DUP2 MSTORE PUSH1 0x40 DUP1 DUP4 KECCAK256 SWAP4 DUP4 MSTORE SWAP3 SWAP1 MSTORE KECCAK256 DUP1 SLOAD PUSH1 0xFF NOT AND SWAP1 SSTORE JUMP JUMPDEST PUSH1 0x1 PUSH1 0x1 PUSH1 0xA0 SHL SUB DUP4 AND PUSH2 0x1384 JUMPI PUSH1 0x40 MLOAD PUSH3 0x461BCD PUSH1 0xE5 SHL DUP2 MSTORE PUSH1 0x20 PUSH1 0x4 DUP3 ADD MSTORE PUSH1 0x15 PUSH1 0x24 DUP3 ADD MSTORE PUSH21 0x26B4B73A103A37903D32B9379030B2323932B9B997 PUSH1 0x59 SHL PUSH1 0x44 DUP3 ADD MSTORE PUSH1 0x64 ADD PUSH2 0x45E JUMP JUMPDEST PUSH2 0x138F DUP4 DUP4 DUP4 PUSH2 0x13C1 JUMP JUMPDEST POP POP PUSH1 0x1 PUSH1 0x1 PUSH1 0xA0 SHL SUB SWAP1 SWAP2 AND PUSH1 0x0 SWAP1 DUP2 MSTORE PUSH1 0x7 PUSH1 0x20 SWAP1 DUP2 MSTORE PUSH1 0x40 DUP1 DUP4 KECCAK256 SWAP4 DUP4 MSTORE SWAP3 SWAP1 MSTORE KECCAK256 DUP1 SLOAD PUSH1 0xFF NOT AND PUSH1 0x1 OR SWAP1 SSTORE JUMP JUMPDEST PUSH1 0x0 PUSH2 0x13CC DUP4 PUSH2 0xD72 JUMP JUMPDEST ISZERO PUSH2 0x1410 JUMPI PUSH1 0x40 MLOAD PUSH3 0x461BCD PUSH1 0xE5 SHL DUP2 MSTORE PUSH1 0x20 PUSH1 0x4 DUP3 ADD MSTORE PUSH1 0x14 PUSH1 0x24 DUP3 ADD MSTORE PUSH20 0x6D696E743A20746F6B656E494420657869737473 PUSH1 0x60 SHL PUSH1 0x44 DUP3 ADD MSTORE PUSH1 0x64 ADD PUSH2 0x45E JUMP JUMPDEST PUSH1 0x1 PUSH1 0x1 PUSH1 0xA0 SHL SUB DUP5 AND PUSH1 0x0 SWAP1 DUP2 MSTORE PUSH1 0x4 PUSH1 0x20 MSTORE PUSH1 0x40 DUP2 KECCAK256 DUP1 SLOAD PUSH1 0x1 SWAP3 SWAP1 PUSH2 0x1439 SWAP1 DUP5 SWAP1 PUSH2 0x19EE JUMP JUMPDEST SWAP1 SWAP2 SSTORE POP POP PUSH1 0x0 DUP4 DUP2 MSTORE PUSH1 0x2 PUSH1 0x20 SWAP1 DUP2 MSTORE PUSH1 0x40 DUP1 DUP4 KECCAK256 DUP1 SLOAD PUSH1 0x1 PUSH1 0x1 PUSH1 0xA0 SHL SUB NOT AND PUSH1 0x1 PUSH1 0x1 PUSH1 0xA0 SHL SUB DUP10 AND OR SWAP1 SSTORE PUSH1 0x3 DUP3 MSTORE SWAP1 SWAP2 KECCAK256 DUP4 MLOAD PUSH2 0x147D SWAP3 DUP6 ADD SWAP1 PUSH2 0x14F6 JUMP JUMPDEST POP PUSH1 0x40 MLOAD DUP4 SWAP1 PUSH1 0x1 PUSH1 0x1 PUSH1 0xA0 SHL SUB DUP7 AND SWAP1 PUSH32 0xE9274A84B19E9428826DE6BAE8C48329354F8F0E73F771B97CAE2D9DCCD45A27 SWAP1 PUSH1 0x0 SWAP1 LOG3 POP SWAP1 SWAP3 SWAP2 POP POP JUMP JUMPDEST POP DUP1 SLOAD PUSH2 0x14C8 SWAP1 PUSH2 0x18E7 JUMP JUMPDEST PUSH1 0x0 DUP3 SSTORE DUP1 PUSH1 0x1F LT PUSH2 0x14D8 JUMPI POP POP JUMP JUMPDEST PUSH1 0x1F ADD PUSH1 0x20 SWAP1 DIV SWAP1 PUSH1 0x0 MSTORE PUSH1 0x20 PUSH1 0x0 KECCAK256 SWAP1 DUP2 ADD SWAP1 PUSH2 0x6B3 SWAP2 SWAP1 PUSH2 0x157A JUMP JUMPDEST DUP3 DUP1 SLOAD PUSH2 0x1502 SWAP1 PUSH2 0x18E7 JUMP JUMPDEST SWAP1 PUSH1 0x0 MSTORE PUSH1 0x20 PUSH1 0x0 KECCAK256 SWAP1 PUSH1 0x1F ADD PUSH1 0x20 SWAP1 DIV DUP2 ADD SWAP3 DUP3 PUSH2 0x1524 JUMPI PUSH1 0x0 DUP6 SSTORE PUSH2 0x156A JUMP JUMPDEST DUP3 PUSH1 0x1F LT PUSH2 0x153D JUMPI DUP1 MLOAD PUSH1 0xFF NOT AND DUP4 DUP1 ADD OR DUP6 SSTORE PUSH2 0x156A JUMP JUMPDEST DUP3 DUP1 ADD PUSH1 0x1 ADD DUP6 SSTORE DUP3 ISZERO PUSH2 0x156A JUMPI SWAP2 DUP3 ADD JUMPDEST DUP3 DUP2 GT ISZERO PUSH2 0x156A JUMPI DUP3 MLOAD DUP3 SSTORE SWAP2 PUSH1 0x20 ADD SWAP2 SWAP1 PUSH1 0x1 ADD SWAP1 PUSH2 0x154F JUMP JUMPDEST POP PUSH2 0x1576 SWAP3 SWAP2 POP PUSH2 0x157A JUMP JUMPDEST POP SWAP1 JUMP JUMPDEST JUMPDEST DUP1 DUP3 GT ISZERO PUSH2 0x1576 JUMPI PUSH1 0x0 DUP2 SSTORE PUSH1 0x1 ADD PUSH2 0x157B JUMP JUMPDEST PUSH1 0x0 PUSH1 0x20 DUP3 DUP5 SUB SLT ISZERO PUSH2 0x15A1 JUMPI PUSH1 0x0 DUP1 REVERT JUMPDEST DUP2 CALLDATALOAD PUSH1 0x1 PUSH1 0x1 PUSH1 0xE0 SHL SUB NOT DUP2 AND DUP2 EQ PUSH2 0xAD4 JUMPI PUSH1 0x0 DUP1 REVERT JUMPDEST PUSH1 0x0 JUMPDEST DUP4 DUP2 LT ISZERO PUSH2 0x15D4 JUMPI DUP2 DUP2 ADD MLOAD DUP4 DUP3 ADD MSTORE PUSH1 0x20 ADD PUSH2 0x15BC JUMP JUMPDEST DUP4 DUP2 GT ISZERO PUSH2 0x15E3 JUMPI PUSH1 0x0 DUP5 DUP5 ADD MSTORE JUMPDEST POP POP POP POP JUMP JUMPDEST PUSH1 0x20 DUP2 MSTORE PUSH1 0x0 DUP3 MLOAD DUP1 PUSH1 0x20 DUP5 ADD MSTORE PUSH2 0x1608 DUP2 PUSH1 0x40 DUP6 ADD PUSH1 0x20 DUP8 ADD PUSH2 0x15B9 JUMP JUMPDEST PUSH1 0x1F ADD PUSH1 0x1F NOT AND SWAP2 SWAP1 SWAP2 ADD PUSH1 0x40 ADD SWAP3 SWAP2 POP POP JUMP JUMPDEST PUSH4 0x4E487B71 PUSH1 0xE0 SHL PUSH1 0x0 MSTORE PUSH1 0x41 PUSH1 0x4 MSTORE PUSH1 0x24 PUSH1 0x0 REVERT JUMPDEST PUSH1 0x0 DUP3 PUSH1 0x1F DUP4 ADD SLT PUSH2 0x1643 JUMPI PUSH1 0x0 DUP1 REVERT JUMPDEST DUP2 CALLDATALOAD PUSH8 0xFFFFFFFFFFFFFFFF DUP1 DUP3 GT ISZERO PUSH2 0x165E JUMPI PUSH2 0x165E PUSH2 0x161C JUMP JUMPDEST PUSH1 0x40 MLOAD PUSH1 0x1F DUP4 ADD PUSH1 0x1F NOT SWAP1 DUP2 AND PUSH1 0x3F ADD AND DUP2 ADD SWAP1 DUP3 DUP3 GT DUP2 DUP4 LT OR ISZERO PUSH2 0x1686 JUMPI PUSH2 0x1686 PUSH2 0x161C JUMP JUMPDEST DUP2 PUSH1 0x40 MSTORE DUP4 DUP2 MSTORE DUP7 PUSH1 0x20 DUP6 DUP9 ADD ADD GT ISZERO PUSH2 0x169F JUMPI PUSH1 0x0 DUP1 REVERT JUMPDEST DUP4 PUSH1 0x20 DUP8 ADD PUSH1 0x20 DUP4 ADD CALLDATACOPY PUSH1 0x0 PUSH1 0x20 DUP6 DUP4 ADD ADD MSTORE DUP1 SWAP5 POP POP POP POP POP SWAP3 SWAP2 POP POP JUMP JUMPDEST PUSH1 0x0 DUP1 PUSH1 0x0 PUSH1 0x60 DUP5 DUP7 SUB SLT ISZERO PUSH2 0x16D4 JUMPI PUSH1 0x0 DUP1 REVERT JUMPDEST DUP4 CALLDATALOAD SWAP3 POP PUSH1 0x20 DUP5 ADD CALLDATALOAD PUSH8 0xFFFFFFFFFFFFFFFF DUP2 GT ISZERO PUSH2 0x16F2 JUMPI PUSH1 0x0 DUP1 REVERT JUMPDEST PUSH2 0x16FE DUP7 DUP3 DUP8 ADD PUSH2 0x1632 JUMP JUMPDEST SWAP3 POP POP PUSH1 0x40 DUP5 ADD CALLDATALOAD SWAP1 POP SWAP3 POP SWAP3 POP SWAP3 JUMP JUMPDEST PUSH1 0x0 PUSH1 0x20 DUP3 DUP5 SUB SLT ISZERO PUSH2 0x1721 JUMPI PUSH1 0x0 DUP1 REVERT JUMPDEST POP CALLDATALOAD SWAP2 SWAP1 POP JUMP JUMPDEST DUP1 CALLDATALOAD PUSH1 0x1 PUSH1 0x1 PUSH1 0xA0 SHL SUB DUP2 AND DUP2 EQ PUSH2 0x173F JUMPI PUSH1 0x0 DUP1 REVERT JUMPDEST SWAP2 SWAP1 POP JUMP JUMPDEST PUSH1 0x0 DUP1 PUSH1 0x40 DUP4 DUP6 SUB SLT ISZERO PUSH2 0x1757 JUMPI PUSH1 0x0 DUP1 REVERT JUMPDEST PUSH2 0x1760 DUP4 PUSH2 0x1728 JUMP JUMPDEST SWAP5 PUSH1 0x20 SWAP4 SWAP1 SWAP4 ADD CALLDATALOAD SWAP4 POP POP POP JUMP JUMPDEST PUSH1 0x0 PUSH1 0x20 DUP3 DUP5 SUB SLT ISZERO PUSH2 0x1780 JUMPI PUSH1 0x0 DUP1 REVERT JUMPDEST PUSH2 0xAD4 DUP3 PUSH2 0x1728 JUMP JUMPDEST PUSH1 0x0 DUP1 PUSH1 0x40 DUP4 DUP6 SUB SLT ISZERO PUSH2 0x179C JUMPI PUSH1 0x0 DUP1 REVERT JUMPDEST PUSH2 0x17A5 DUP4 PUSH2 0x1728 JUMP JUMPDEST SWAP2 POP PUSH1 0x20 DUP4 ADD CALLDATALOAD PUSH8 0xFFFFFFFFFFFFFFFF DUP2 GT ISZERO PUSH2 0x17C1 JUMPI PUSH1 0x0 DUP1 REVERT JUMPDEST PUSH2 0x17CD DUP6 DUP3 DUP7 ADD PUSH2 0x1632 JUMP JUMPDEST SWAP2 POP POP SWAP3 POP SWAP3 SWAP1 POP JUMP JUMPDEST PUSH1 0x0 DUP1 PUSH1 0x0 DUP1 PUSH1 0x0 PUSH1 0xA0 DUP7 DUP9 SUB SLT ISZERO PUSH2 0x17EF JUMPI PUSH1 0x0 DUP1 REVERT JUMPDEST PUSH2 0x17F8 DUP7 PUSH2 0x1728 JUMP JUMPDEST SWAP5 POP PUSH1 0x20 DUP7 ADD CALLDATALOAD SWAP4 POP PUSH1 0x40 DUP7 ADD CALLDATALOAD PUSH8 0xFFFFFFFFFFFFFFFF DUP1 DUP3 GT ISZERO PUSH2 0x181C JUMPI PUSH1 0x0 DUP1 REVERT JUMPDEST PUSH2 0x1828 DUP10 DUP4 DUP11 ADD PUSH2 0x1632 JUMP JUMPDEST SWAP5 POP PUSH1 0x60 DUP9 ADD CALLDATALOAD SWAP4 POP PUSH1 0x80 DUP9 ADD CALLDATALOAD SWAP2 POP DUP1 DUP3 GT ISZERO PUSH2 0x1845 JUMPI PUSH1 0x0 DUP1 REVERT JUMPDEST POP PUSH2 0x1852 DUP9 DUP3 DUP10 ADD PUSH2 0x1632 JUMP JUMPDEST SWAP2 POP POP SWAP3 SWAP6 POP SWAP3 SWAP6 SWAP1 SWAP4 POP JUMP JUMPDEST PUSH1 0x0 DUP1 PUSH1 0x40 DUP4 DUP6 SUB SLT ISZERO PUSH2 0x1872 JUMPI PUSH1 0x0 DUP1 REVERT JUMPDEST DUP3 CALLDATALOAD SWAP2 POP PUSH1 0x20 DUP4 ADD CALLDATALOAD PUSH8 0xFFFFFFFFFFFFFFFF DUP2 GT ISZERO PUSH2 0x17C1 JUMPI PUSH1 0x0 DUP1 REVERT JUMPDEST PUSH1 0x0 DUP1 PUSH1 0x0 PUSH1 0x60 DUP5 DUP7 SUB SLT ISZERO PUSH2 0x18A5 JUMPI PUSH1 0x0 DUP1 REVERT JUMPDEST PUSH2 0x18AE DUP5 PUSH2 0x1728 JUMP JUMPDEST SWAP3 POP PUSH1 0x20 DUP5 ADD CALLDATALOAD SWAP2 POP PUSH1 0x40 DUP5 ADD CALLDATALOAD PUSH8 0xFFFFFFFFFFFFFFFF DUP2 GT ISZERO PUSH2 0x18D1 JUMPI PUSH1 0x0 DUP1 REVERT JUMPDEST PUSH2 0x18DD DUP7 DUP3 DUP8 ADD PUSH2 0x1632 JUMP JUMPDEST SWAP2 POP POP SWAP3 POP SWAP3 POP SWAP3 JUMP JUMPDEST PUSH1 0x1 DUP2 DUP2 SHR SWAP1 DUP3 AND DUP1 PUSH2 0x18FB JUMPI PUSH1 0x7F DUP3 AND SWAP2 POP JUMPDEST PUSH1 0x20 DUP3 LT DUP2 EQ ISZERO PUSH2 0x191C JUMPI PUSH4 0x4E487B71 PUSH1 0xE0 SHL PUSH1 0x0 MSTORE PUSH1 0x22 PUSH1 0x4 MSTORE PUSH1 0x24 PUSH1 0x0 REVERT JUMPDEST POP SWAP2 SWAP1 POP JUMP JUMPDEST PUSH4 0x4E487B71 PUSH1 0xE0 SHL PUSH1 0x0 MSTORE PUSH1 0x11 PUSH1 0x4 MSTORE PUSH1 0x24 PUSH1 0x0 REVERT JUMPDEST PUSH1 0x0 DUP2 PUSH2 0x1947 JUMPI PUSH2 0x1947 PUSH2 0x1922 JUMP JUMPDEST POP PUSH1 0x0 NOT ADD SWAP1 JUMP JUMPDEST PUSH1 0x0 DUP4 MLOAD PUSH2 0x1961 DUP2 DUP5 PUSH1 0x20 DUP9 ADD PUSH2 0x15B9 JUMP JUMPDEST DUP4 MLOAD SWAP1 DUP4 ADD SWAP1 PUSH2 0x1975 DUP2 DUP4 PUSH1 0x20 DUP9 ADD PUSH2 0x15B9 JUMP JUMPDEST ADD SWAP5 SWAP4 POP POP POP POP JUMP JUMPDEST PUSH1 0x0 PUSH1 0x0 NOT DUP3 EQ ISZERO PUSH2 0x1992 JUMPI PUSH2 0x1992 PUSH2 0x1922 JUMP JUMPDEST POP PUSH1 0x1 ADD SWAP1 JUMP JUMPDEST PUSH4 0x4E487B71 PUSH1 0xE0 SHL PUSH1 0x0 MSTORE PUSH1 0x12 PUSH1 0x4 MSTORE PUSH1 0x24 PUSH1 0x0 REVERT JUMPDEST PUSH1 0x0 DUP3 PUSH2 0x19BE JUMPI PUSH2 0x19BE PUSH2 0x1999 JUMP JUMPDEST POP DIV SWAP1 JUMP JUMPDEST PUSH1 0x0 DUP3 DUP3 LT ISZERO PUSH2 0x19D5 JUMPI PUSH2 0x19D5 PUSH2 0x1922 JUMP JUMPDEST POP SUB SWAP1 JUMP JUMPDEST PUSH1 0x0 DUP3 PUSH2 0x19E9 JUMPI PUSH2 0x19E9 PUSH2 0x1999 JUMP JUMPDEST POP MOD SWAP1 JUMP JUMPDEST PUSH1 0x0 DUP3 NOT DUP3 GT ISZERO PUSH2 0x1A01 JUMPI PUSH2 0x1A01 PUSH2 0x1922 JUMP JUMPDEST POP ADD SWAP1 JUMP JUMPDEST PUSH4 0x4E487B71 PUSH1 0xE0 SHL PUSH1 0x0 MSTORE PUSH1 0x32 PUSH1 0x4 MSTORE PUSH1 0x24 PUSH1 0x0 REVERT INVALID LOG2 PUSH5 0x6970667358 0x22 SLT KECCAK256 OR PUSH7 0xCE017B84848265 0xEB SWAP8 GASLIMIT 0xCE 0xC1 0xB3 PUSH1 0xA SWAP11 0xA5 0xEB PUSH19 0x486357225BC1D762AABCBE64736F6C63430008 0xC STOP CALLER ",
  "sha1": "c122f08d0d5f7326090bad4f868b5cb94f5bfa5e",
  "source": "// SPDX-License-Identifier: GPL-3.0\npragma solidity ^0.8.0;\n\nimport \"./SoulboundCore.sol\";\n\n/**\n* @title SoulboundWithSignature.\n* @author Daccred.\n* @dev  SoulboundWithSignature contract template allows freedom of\n*       issuing and revoking tokens with Signature while controlling\n*       the totalSupply of the token.\n*/\ncontract SoulboundWithSignature is SoulboundCore {\n    /// @dev Deploys inherited contract and sub contracts.\n    constructor(\n        string memory name, \n        string memory symbol,\n        address _allowlistOwner,\n        uint256 _totalSupply\n    )\n    SoulboundCore(\n        name, \n        symbol, \n        _allowlistOwner, \n        _totalSupply\n    ) {}\n\n    /**\n    * @dev Ref SoulboundCore.sol issueWithSignature\n    *       This function grants the access to only the\n    *       deployer of the contract, unlike the core\n    *       that allows the function for anyone who has a\n    *       signature signed by the allowlistOwner.\n    *       This contract can be called by the deployer of the\n    *       contract [DaccredDeployer] but is also protected\n    *       as to the allowlistOwner must be the signer of the `sig.`\n    *\n    * @notice Callable by the deployer of this contract [DaccredDeployer].\n    *\n    * @param addr       Address to be minted to.\n    * @param hash       Hash of message signed.\n    * @param sig        Signature.\n    * @param tokenId    TokenId to be issued.\n    * @param tokenURI   URI of token to be issued.\n    */\n    function ownerIssueWithSignature(\n        address addr,\n        bytes32 hash,\n        bytes memory sig,\n        uint256 tokenId,\n        string memory tokenURI\n    ) public onlyOwner\n    {\n        /// @dev Ensure that the supply is not crossed.\n        /// @dev    Should all soulbound tokens need to be limited,\n        ///         copy this code and paste in Soulboundcore.sol\n        ///         issueWithSignature function.\n        require(supply < totalSupply, \"Issue Cap Reached.\");\n        /// @dev Issue With Signature.\n        issueWithSignature(\n            addr,\n            hash,\n            sig,\n            tokenId,\n            tokenURI\n        );\n        /// @dev Incrememt supply on successful issue.\n        supply++;\n    }\n\n    /**\n    * @dev Ref SoulboundCore.sol revokeWithSignature\n    *       This function grants the access to only the\n    *       deployer of the contract, unlike the core\n    *       that allows the function for anyone who has a\n    *       signature signed by the allowlistOwner.\n    *       This contract can be called by the deployer of the\n    *       contract [DaccredDeployer] but is also protected\n    *       as to the allowlistOwner must be the signer of the `sig.`\n    *\n    * @notice Callable by the deployer of this contract [DaccredDeployer].\n    *\n    * @param hash       Hash of message signed.\n    * @param sig        Signature.\n    * @param tokenId    TokenId to be issued.\n    */\n    function ownerRevokeWithSignature(\n        bytes32 hash,\n        bytes memory sig,\n        uint256 tokenId\n    ) public onlyOwner\n    {\n        /// @dev    If the supply control is not 0,\n        ///         decrement the supply.\n        ///         Should all soulbound tokens need to be limited,\n        ///         copy this code and paste in Soulboundcore.sol\n        ///         revokeWithSignature function.\n        if (supply != 0) {\n            /// @dev Decrement supply.\n            supply--;\n        } else {\n            /// @dev Throw error if 0 is reached.\n            revert(\"Lowest limit reached.\");\n        }\n\n        /// @dev Revoke With Signature.\n        revokeWithSignature(\n            hash,\n            sig,\n            tokenId\n        );\n    }\n}\n",
  "sourcePath": "contracts/extensions/SoulboundWithSignature.sol",
  "type": "contract"
}