{
  "abi": [
    {
      "inputs": [
        {
          "internalType": "string",
          "name": "name",
          "type": "string"
        },
        {
          "internalType": "string",
          "name": "symbol",
          "type": "string"
        }
      ],
      "stateMutability": "nonpayable",
      "type": "constructor"
    },
    {
      "anonymous": false,
      "inputs": [
        {
          "indexed": true,
          "internalType": "address",
          "name": "to",
          "type": "address"
        },
        {
          "indexed": true,
          "internalType": "uint256",
          "name": "tokenId",
          "type": "uint256"
        }
      ],
      "name": "Attest",
      "type": "event"
    },
    {
      "anonymous": false,
      "inputs": [
        {
          "indexed": true,
          "internalType": "address",
          "name": "to",
          "type": "address"
        },
        {
          "indexed": true,
          "internalType": "uint256",
          "name": "tokenId",
          "type": "uint256"
        }
      ],
      "name": "Revoke",
      "type": "event"
    },
    {
      "inputs": [],
      "name": "_getBaseURI",
      "outputs": [
        {
          "internalType": "string",
          "name": "_baseURI",
          "type": "string"
        }
      ],
      "stateMutability": "view",
      "type": "function"
    },
    {
      "inputs": [
        {
          "internalType": "address",
          "name": "owner",
          "type": "address"
        }
      ],
      "name": "balanceOf",
      "outputs": [
        {
          "internalType": "uint256",
          "name": "",
          "type": "uint256"
        }
      ],
      "stateMutability": "view",
      "type": "function"
    },
    {
      "inputs": [
        {
          "internalType": "uint256",
          "name": "tokenId",
          "type": "uint256"
        }
      ],
      "name": "burn",
      "outputs": [],
      "stateMutability": "nonpayable",
      "type": "function"
    },
    {
      "inputs": [
        {
          "internalType": "address",
          "name": "_to",
          "type": "address"
        },
        {
          "internalType": "uint256",
          "name": "_tokenId",
          "type": "uint256"
        }
      ],
      "name": "isMinted",
      "outputs": [
        {
          "internalType": "bool",
          "name": "",
          "type": "bool"
        }
      ],
      "stateMutability": "view",
      "type": "function"
    },
    {
      "inputs": [
        {
          "internalType": "address",
          "name": "_to",
          "type": "address"
        },
        {
          "internalType": "uint256",
          "name": "_tokenId",
          "type": "uint256"
        }
      ],
      "name": "issuerOf",
      "outputs": [
        {
          "internalType": "address",
          "name": "",
          "type": "address"
        }
      ],
      "stateMutability": "view",
      "type": "function"
    },
    {
      "inputs": [],
      "name": "name",
      "outputs": [
        {
          "internalType": "string",
          "name": "",
          "type": "string"
        }
      ],
      "stateMutability": "view",
      "type": "function"
    },
    {
      "inputs": [
        {
          "internalType": "uint256",
          "name": "tokenId",
          "type": "uint256"
        }
      ],
      "name": "ownerOf",
      "outputs": [
        {
          "internalType": "address",
          "name": "",
          "type": "address"
        }
      ],
      "stateMutability": "view",
      "type": "function"
    },
    {
      "inputs": [
        {
          "internalType": "bytes4",
          "name": "interfaceId",
          "type": "bytes4"
        }
      ],
      "name": "supportsInterface",
      "outputs": [
        {
          "internalType": "bool",
          "name": "",
          "type": "bool"
        }
      ],
      "stateMutability": "view",
      "type": "function"
    },
    {
      "inputs": [],
      "name": "symbol",
      "outputs": [
        {
          "internalType": "string",
          "name": "",
          "type": "string"
        }
      ],
      "stateMutability": "view",
      "type": "function"
    },
    {
      "inputs": [
        {
          "internalType": "uint256",
          "name": "tokenId",
          "type": "uint256"
        }
      ],
      "name": "tokenURI",
      "outputs": [
        {
          "internalType": "string",
          "name": "",
          "type": "string"
        }
      ],
      "stateMutability": "view",
      "type": "function"
    }
  ],
  "bytecode": "60806040523480156200001157600080fd5b5060405162000bb238038062000bb28339810160408190526200003491620001e1565b8151829082906200004d9060009060208501906200006e565b508051620000639060019060208401906200006e565b505050505062000288565b8280546200007c906200024b565b90600052602060002090601f016020900481019282620000a05760008555620000eb565b82601f10620000bb57805160ff1916838001178555620000eb565b82800160010185558215620000eb579182015b82811115620000eb578251825591602001919060010190620000ce565b50620000f9929150620000fd565b5090565b5b80821115620000f95760008155600101620000fe565b634e487b7160e01b600052604160045260246000fd5b600082601f8301126200013c57600080fd5b81516001600160401b038082111562000159576200015962000114565b604051601f8301601f19908116603f0116810190828211818310171562000184576200018462000114565b81604052838152602092508683858801011115620001a157600080fd5b600091505b83821015620001c55785820183015181830184015290820190620001a6565b83821115620001d75760008385830101525b9695505050505050565b60008060408385031215620001f557600080fd5b82516001600160401b03808211156200020d57600080fd5b6200021b868387016200012a565b935060208501519150808211156200023257600080fd5b5062000241858286016200012a565b9150509250929050565b600181811c908216806200026057607f821691505b602082108114156200028257634e487b7160e01b600052602260045260246000fd5b50919050565b61091a80620002986000396000f3fe608060405234801561001057600080fd5b506004361061009e5760003560e01c806370a082311161006657806370a082311461015957806395d89b411461017a578063c87b56dd14610182578063c9dd94c714610195578063fb8f198d1461019d57600080fd5b806301ffc9a7146100a357806306fdde03146100cb57806342966c68146100e05780635899e7b2146100f55780636352211e1461012e575b600080fd5b6100b66100b1366004610784565b6101b0565b60405190151581526020015b60405180910390f35b6100d3610202565b6040516100c291906107b5565b6100f36100ee36600461080a565b610294565b005b6100b661010336600461083f565b6001600160a01b03919091166000908152600660209081526040808320938352929052205460ff1690565b61014161013c36600461080a565b61030e565b6040516001600160a01b0390911681526020016100c2565b61016c610167366004610869565b610373565b6040519081526020016100c2565b6100d36103fc565b6100d361019036600461080a565b61040b565b6100d3610510565b6101416101ab36600461083f565b61056c565b60006001600160e01b03198216635b5e139f60e01b14806101e157506001600160e01b03198216635164cf4760e01b145b806101fc57506301ffc9a760e01b6001600160e01b03198316145b92915050565b60606000805461021190610884565b80601f016020809104026020016040519081016040528092919081815260200182805461023d90610884565b801561028a5780601f1061025f5761010080835404028352916020019161028a565b820191906000526020600020905b81548152906001019060200180831161026d57829003601f168201915b5050505050905090565b61029d8161030e565b6001600160a01b0316336001600160a01b0316146103025760405162461bcd60e51b815260206004820152601a60248201527f6275726e3a2073656e646572206d757374206265206f776e657200000000000060448201526064015b60405180910390fd5b61030b8161068f565b50565b6000818152600260205260408120546001600160a01b0316806101fc5760405162461bcd60e51b815260206004820152601c60248201527f6f776e65724f663a20746f6b656e20646f65736e27742065786973740000000060448201526064016102f9565b60006001600160a01b0382166103e05760405162461bcd60e51b815260206004820152602c60248201527f62616c616e63654f663a2061646472657373207a65726f206973206e6f74206160448201526b103b30b634b21037bbb732b960a11b60648201526084016102f9565b506001600160a01b031660009081526004602052604090205490565b60606001805461021190610884565b6000818152600260205260409020546060906001600160a01b03166104725760405162461bcd60e51b815260206004820152601d60248201527f746f6b656e5552493a20746f6b656e20646f65736e277420657869737400000060448201526064016102f9565b6000828152600360205260409020805461048b90610884565b80601f01602080910402602001604051908101604052809291908181526020018280546104b790610884565b80156105045780601f106104d957610100808354040283529160200191610504565b820191906000526020600020905b8154815290600101906020018083116104e757829003601f168201915b50505050509050919050565b60606005805461051f90610884565b1515905061055f5760405162461bcd60e51b815260206004820152600d60248201526c456d707479206261736555524960981b60448201526064016102f9565b6005805461021190610884565b60006001600160a01b0383166105c45760405162461bcd60e51b815260206004820152601760248201527f517565727920666f72207a65726f20616464726573732e00000000000000000060448201526064016102f9565b6000828152600260205260409020546001600160a01b031661061e5760405162461bcd60e51b81526020600482015260136024820152722737b716b2bc34b9ba32b73a103a37b5b2b71760691b60448201526064016102f9565b826001600160a01b03166106318361030e565b6001600160a01b0316146106875760405162461bcd60e51b815260206004820152601a60248201527f546f6b656e206e6f74206f776e6564206279206164647265737300000000000060448201526064016102f9565b503092915050565b600061069a8261030e565b6001600160a01b038116600090815260046020526040812080549293506001929091906106c89084906108bf565b9091555050600082815260026020908152604080832080546001600160a01b0319169055600390915281206106fc91610736565b60405182906001600160a01b038316907fec9ab91322523c899ede7830ec9bfc992b5981cdcc27b91162fb23de5791117b90600090a35050565b50805461074290610884565b6000825580601f10610752575050565b601f01602090049060005260206000209081019061030b91905b80821115610780576000815560010161076c565b5090565b60006020828403121561079657600080fd5b81356001600160e01b0319811681146107ae57600080fd5b9392505050565b600060208083528351808285015260005b818110156107e2578581018301518582016040015282016107c6565b818111156107f4576000604083870101525b50601f01601f1916929092016040019392505050565b60006020828403121561081c57600080fd5b5035919050565b80356001600160a01b038116811461083a57600080fd5b919050565b6000806040838503121561085257600080fd5b61085b83610823565b946020939093013593505050565b60006020828403121561087b57600080fd5b6107ae82610823565b600181811c9082168061089857607f821691505b602082108114156108b957634e487b7160e01b600052602260045260246000fd5b50919050565b6000828210156108df57634e487b7160e01b600052601160045260246000fd5b50039056fea264697066735822122008eb3b37f1136254d6712051496ba6d6d84cd7d144b36ae1a2d8293a4ae057a964736f6c634300080c0033",
  "bytecodeSha1": "7bfb658c83d02297e9cbbef45272cd96f06eaa62",
  "compiler": {
    "evm_version": "istanbul",
    "optimizer": {
      "enabled": true,
      "runs": 200
    },
    "version": "0.8.12+commit.f00d7308"
  },
  "contractName": "Soulbound",
  "language": "Solidity",
  "natspec": {
    "author": "Daccred.",
    "details": "Soulbound Token Base Template.       This contract was inspired by       https://github.com/ethereum/EIPs/blob/master/assets/eip-4973/ERC-4973.sol       This contract is inherited by any contract to implement the Soulbound       template.       Soulbound tokens  cannot be transferred when minted to a particular address.       This is the base instance of the contract,       it includes minting functions and revoke functions.       Inheriting functions can wrap around the specified functions.       Also, this base contract instance does not include a capped supply.",
    "kind": "dev",
    "methods": {
      "_getBaseURI()": {
        "details": "Returns already set baseURI if it exists.",
        "notice": "Callable by anyone.",
        "returns": {
          "_baseURI": "baseURI set."
        }
      },
      "balanceOf(address)": {
        "details": "ABTs assigned to the zero address are considered invalid, and this  function throws for queries about the zero address.",
        "notice": "Count all ABTs assigned to an owner",
        "params": {
          "owner": "An address for whom to query the balance"
        },
        "returns": {
          "_0": "The number of ABTs owned by `owner`, possibly zero"
        }
      },
      "burn(uint256)": {
        "details": "Must emit a `event Revoke` with the `address to` field pointing to  the zero address.",
        "notice": "Destroys `tokenId`. At any time, an ABT receiver must be able to  disassociate themselves from an ABT publicly through calling this  function.",
        "params": {
          "tokenId": "The identifier for an ABT"
        }
      },
      "constructor": {
        "details": "Allows the deployer to set a name and a symbol for the token."
      },
      "isMinted(address,uint256)": {
        "details": "Returns true if token `_tokenId` was minted from this contract to `_to`.       `_to` must not be a 0 address.       `_tokenId` must be an existent token.",
        "notice": "Callable by anyone.",
        "params": {
          "_to": "Address to which token `_tokenId` is minted.",
          "_tokenId": "Token minted."
        },
        "returns": {
          "_0": "bool true or false."
        }
      },
      "issuerOf(address,uint256)": {
        "details": "Since a token cannnot be minted twice.       This function returns the address that minted token `_tokenId` to `_to`,       otherwise this contract.       `_to` must not be a 0 address.       `_tokenId` must be an existent token.       Owner of _tokenId must be _to.",
        "notice": "Callable by anyone.",
        "params": {
          "_to": "Address to which token `_tokenId` is minted.",
          "_tokenId": "Token minted."
        },
        "returns": {
          "_0": "address of issuer."
        }
      },
      "ownerOf(uint256)": {
        "details": "ABTs assigned to zero address are considered invalid, and queries  about them do throw.",
        "notice": "Find the address bound to an ERC4973 account-bound token",
        "params": {
          "tokenId": "The identifier for an ABT"
        },
        "returns": {
          "_0": "The address of the owner bound to the ABT"
        }
      },
      "supportsInterface(bytes4)": {
        "details": "See {IERC165-supportsInterface}."
      }
    },
    "stateVariables": {
      "baseURI": {
        "details": "Stores the base URI on cases when the user wants to mint a token,       it automatically generates a string casted tokenURI using the       generateTokenURI function. This variable can only be modified by       the allowlist owner."
      },
      "mints": {
        "details": "Mapping of speific addresses to tokenIds and boolean for mint records."
      }
    },
    "title": "Soulbound Token Contract.",
    "version": 1
  },
  "opcodes": "PUSH1 0x80 PUSH1 0x40 MSTORE CALLVALUE DUP1 ISZERO PUSH2 0x10 JUMPI PUSH1 0x0 DUP1 REVERT JUMPDEST POP PUSH1 0x4 CALLDATASIZE LT PUSH2 0x9E JUMPI PUSH1 0x0 CALLDATALOAD PUSH1 0xE0 SHR DUP1 PUSH4 0x70A08231 GT PUSH2 0x66 JUMPI DUP1 PUSH4 0x70A08231 EQ PUSH2 0x159 JUMPI DUP1 PUSH4 0x95D89B41 EQ PUSH2 0x17A JUMPI DUP1 PUSH4 0xC87B56DD EQ PUSH2 0x182 JUMPI DUP1 PUSH4 0xC9DD94C7 EQ PUSH2 0x195 JUMPI DUP1 PUSH4 0xFB8F198D EQ PUSH2 0x19D JUMPI PUSH1 0x0 DUP1 REVERT JUMPDEST DUP1 PUSH4 0x1FFC9A7 EQ PUSH2 0xA3 JUMPI DUP1 PUSH4 0x6FDDE03 EQ PUSH2 0xCB JUMPI DUP1 PUSH4 0x42966C68 EQ PUSH2 0xE0 JUMPI DUP1 PUSH4 0x5899E7B2 EQ PUSH2 0xF5 JUMPI DUP1 PUSH4 0x6352211E EQ PUSH2 0x12E JUMPI JUMPDEST PUSH1 0x0 DUP1 REVERT JUMPDEST PUSH2 0xB6 PUSH2 0xB1 CALLDATASIZE PUSH1 0x4 PUSH2 0x784 JUMP JUMPDEST PUSH2 0x1B0 JUMP JUMPDEST PUSH1 0x40 MLOAD SWAP1 ISZERO ISZERO DUP2 MSTORE PUSH1 0x20 ADD JUMPDEST PUSH1 0x40 MLOAD DUP1 SWAP2 SUB SWAP1 RETURN JUMPDEST PUSH2 0xD3 PUSH2 0x202 JUMP JUMPDEST PUSH1 0x40 MLOAD PUSH2 0xC2 SWAP2 SWAP1 PUSH2 0x7B5 JUMP JUMPDEST PUSH2 0xF3 PUSH2 0xEE CALLDATASIZE PUSH1 0x4 PUSH2 0x80A JUMP JUMPDEST PUSH2 0x294 JUMP JUMPDEST STOP JUMPDEST PUSH2 0xB6 PUSH2 0x103 CALLDATASIZE PUSH1 0x4 PUSH2 0x83F JUMP JUMPDEST PUSH1 0x1 PUSH1 0x1 PUSH1 0xA0 SHL SUB SWAP2 SWAP1 SWAP2 AND PUSH1 0x0 SWAP1 DUP2 MSTORE PUSH1 0x6 PUSH1 0x20 SWAP1 DUP2 MSTORE PUSH1 0x40 DUP1 DUP4 KECCAK256 SWAP4 DUP4 MSTORE SWAP3 SWAP1 MSTORE KECCAK256 SLOAD PUSH1 0xFF AND SWAP1 JUMP JUMPDEST PUSH2 0x141 PUSH2 0x13C CALLDATASIZE PUSH1 0x4 PUSH2 0x80A JUMP JUMPDEST PUSH2 0x30E JUMP JUMPDEST PUSH1 0x40 MLOAD PUSH1 0x1 PUSH1 0x1 PUSH1 0xA0 SHL SUB SWAP1 SWAP2 AND DUP2 MSTORE PUSH1 0x20 ADD PUSH2 0xC2 JUMP JUMPDEST PUSH2 0x16C PUSH2 0x167 CALLDATASIZE PUSH1 0x4 PUSH2 0x869 JUMP JUMPDEST PUSH2 0x373 JUMP JUMPDEST PUSH1 0x40 MLOAD SWAP1 DUP2 MSTORE PUSH1 0x20 ADD PUSH2 0xC2 JUMP JUMPDEST PUSH2 0xD3 PUSH2 0x3FC JUMP JUMPDEST PUSH2 0xD3 PUSH2 0x190 CALLDATASIZE PUSH1 0x4 PUSH2 0x80A JUMP JUMPDEST PUSH2 0x40B JUMP JUMPDEST PUSH2 0xD3 PUSH2 0x510 JUMP JUMPDEST PUSH2 0x141 PUSH2 0x1AB CALLDATASIZE PUSH1 0x4 PUSH2 0x83F JUMP JUMPDEST PUSH2 0x56C JUMP JUMPDEST PUSH1 0x0 PUSH1 0x1 PUSH1 0x1 PUSH1 0xE0 SHL SUB NOT DUP3 AND PUSH4 0x5B5E139F PUSH1 0xE0 SHL EQ DUP1 PUSH2 0x1E1 JUMPI POP PUSH1 0x1 PUSH1 0x1 PUSH1 0xE0 SHL SUB NOT DUP3 AND PUSH4 0x5164CF47 PUSH1 0xE0 SHL EQ JUMPDEST DUP1 PUSH2 0x1FC JUMPI POP PUSH4 0x1FFC9A7 PUSH1 0xE0 SHL PUSH1 0x1 PUSH1 0x1 PUSH1 0xE0 SHL SUB NOT DUP4 AND EQ JUMPDEST SWAP3 SWAP2 POP POP JUMP JUMPDEST PUSH1 0x60 PUSH1 0x0 DUP1 SLOAD PUSH2 0x211 SWAP1 PUSH2 0x884 JUMP JUMPDEST DUP1 PUSH1 0x1F ADD PUSH1 0x20 DUP1 SWAP2 DIV MUL PUSH1 0x20 ADD PUSH1 0x40 MLOAD SWAP1 DUP2 ADD PUSH1 0x40 MSTORE DUP1 SWAP3 SWAP2 SWAP1 DUP2 DUP2 MSTORE PUSH1 0x20 ADD DUP3 DUP1 SLOAD PUSH2 0x23D SWAP1 PUSH2 0x884 JUMP JUMPDEST DUP1 ISZERO PUSH2 0x28A JUMPI DUP1 PUSH1 0x1F LT PUSH2 0x25F JUMPI PUSH2 0x100 DUP1 DUP4 SLOAD DIV MUL DUP4 MSTORE SWAP2 PUSH1 0x20 ADD SWAP2 PUSH2 0x28A JUMP JUMPDEST DUP3 ADD SWAP2 SWAP1 PUSH1 0x0 MSTORE PUSH1 0x20 PUSH1 0x0 KECCAK256 SWAP1 JUMPDEST DUP2 SLOAD DUP2 MSTORE SWAP1 PUSH1 0x1 ADD SWAP1 PUSH1 0x20 ADD DUP1 DUP4 GT PUSH2 0x26D JUMPI DUP3 SWAP1 SUB PUSH1 0x1F AND DUP3 ADD SWAP2 JUMPDEST POP POP POP POP POP SWAP1 POP SWAP1 JUMP JUMPDEST PUSH2 0x29D DUP2 PUSH2 0x30E JUMP JUMPDEST PUSH1 0x1 PUSH1 0x1 PUSH1 0xA0 SHL SUB AND CALLER PUSH1 0x1 PUSH1 0x1 PUSH1 0xA0 SHL SUB AND EQ PUSH2 0x302 JUMPI PUSH1 0x40 MLOAD PUSH3 0x461BCD PUSH1 0xE5 SHL DUP2 MSTORE PUSH1 0x20 PUSH1 0x4 DUP3 ADD MSTORE PUSH1 0x1A PUSH1 0x24 DUP3 ADD MSTORE PUSH32 0x6275726E3A2073656E646572206D757374206265206F776E6572000000000000 PUSH1 0x44 DUP3 ADD MSTORE PUSH1 0x64 ADD JUMPDEST PUSH1 0x40 MLOAD DUP1 SWAP2 SUB SWAP1 REVERT JUMPDEST PUSH2 0x30B DUP2 PUSH2 0x68F JUMP JUMPDEST POP JUMP JUMPDEST PUSH1 0x0 DUP2 DUP2 MSTORE PUSH1 0x2 PUSH1 0x20 MSTORE PUSH1 0x40 DUP2 KECCAK256 SLOAD PUSH1 0x1 PUSH1 0x1 PUSH1 0xA0 SHL SUB AND DUP1 PUSH2 0x1FC JUMPI PUSH1 0x40 MLOAD PUSH3 0x461BCD PUSH1 0xE5 SHL DUP2 MSTORE PUSH1 0x20 PUSH1 0x4 DUP3 ADD MSTORE PUSH1 0x1C PUSH1 0x24 DUP3 ADD MSTORE PUSH32 0x6F776E65724F663A20746F6B656E20646F65736E277420657869737400000000 PUSH1 0x44 DUP3 ADD MSTORE PUSH1 0x64 ADD PUSH2 0x2F9 JUMP JUMPDEST PUSH1 0x0 PUSH1 0x1 PUSH1 0x1 PUSH1 0xA0 SHL SUB DUP3 AND PUSH2 0x3E0 JUMPI PUSH1 0x40 MLOAD PUSH3 0x461BCD PUSH1 0xE5 SHL DUP2 MSTORE PUSH1 0x20 PUSH1 0x4 DUP3 ADD MSTORE PUSH1 0x2C PUSH1 0x24 DUP3 ADD MSTORE PUSH32 0x62616C616E63654F663A2061646472657373207A65726F206973206E6F742061 PUSH1 0x44 DUP3 ADD MSTORE PUSH12 0x103B30B634B21037BBB732B9 PUSH1 0xA1 SHL PUSH1 0x64 DUP3 ADD MSTORE PUSH1 0x84 ADD PUSH2 0x2F9 JUMP JUMPDEST POP PUSH1 0x1 PUSH1 0x1 PUSH1 0xA0 SHL SUB AND PUSH1 0x0 SWAP1 DUP2 MSTORE PUSH1 0x4 PUSH1 0x20 MSTORE PUSH1 0x40 SWAP1 KECCAK256 SLOAD SWAP1 JUMP JUMPDEST PUSH1 0x60 PUSH1 0x1 DUP1 SLOAD PUSH2 0x211 SWAP1 PUSH2 0x884 JUMP JUMPDEST PUSH1 0x0 DUP2 DUP2 MSTORE PUSH1 0x2 PUSH1 0x20 MSTORE PUSH1 0x40 SWAP1 KECCAK256 SLOAD PUSH1 0x60 SWAP1 PUSH1 0x1 PUSH1 0x1 PUSH1 0xA0 SHL SUB AND PUSH2 0x472 JUMPI PUSH1 0x40 MLOAD PUSH3 0x461BCD PUSH1 0xE5 SHL DUP2 MSTORE PUSH1 0x20 PUSH1 0x4 DUP3 ADD MSTORE PUSH1 0x1D PUSH1 0x24 DUP3 ADD MSTORE PUSH32 0x746F6B656E5552493A20746F6B656E20646F65736E2774206578697374000000 PUSH1 0x44 DUP3 ADD MSTORE PUSH1 0x64 ADD PUSH2 0x2F9 JUMP JUMPDEST PUSH1 0x0 DUP3 DUP2 MSTORE PUSH1 0x3 PUSH1 0x20 MSTORE PUSH1 0x40 SWAP1 KECCAK256 DUP1 SLOAD PUSH2 0x48B SWAP1 PUSH2 0x884 JUMP JUMPDEST DUP1 PUSH1 0x1F ADD PUSH1 0x20 DUP1 SWAP2 DIV MUL PUSH1 0x20 ADD PUSH1 0x40 MLOAD SWAP1 DUP2 ADD PUSH1 0x40 MSTORE DUP1 SWAP3 SWAP2 SWAP1 DUP2 DUP2 MSTORE PUSH1 0x20 ADD DUP3 DUP1 SLOAD PUSH2 0x4B7 SWAP1 PUSH2 0x884 JUMP JUMPDEST DUP1 ISZERO PUSH2 0x504 JUMPI DUP1 PUSH1 0x1F LT PUSH2 0x4D9 JUMPI PUSH2 0x100 DUP1 DUP4 SLOAD DIV MUL DUP4 MSTORE SWAP2 PUSH1 0x20 ADD SWAP2 PUSH2 0x504 JUMP JUMPDEST DUP3 ADD SWAP2 SWAP1 PUSH1 0x0 MSTORE PUSH1 0x20 PUSH1 0x0 KECCAK256 SWAP1 JUMPDEST DUP2 SLOAD DUP2 MSTORE SWAP1 PUSH1 0x1 ADD SWAP1 PUSH1 0x20 ADD DUP1 DUP4 GT PUSH2 0x4E7 JUMPI DUP3 SWAP1 SUB PUSH1 0x1F AND DUP3 ADD SWAP2 JUMPDEST POP POP POP POP POP SWAP1 POP SWAP2 SWAP1 POP JUMP JUMPDEST PUSH1 0x60 PUSH1 0x5 DUP1 SLOAD PUSH2 0x51F SWAP1 PUSH2 0x884 JUMP JUMPDEST ISZERO ISZERO SWAP1 POP PUSH2 0x55F JUMPI PUSH1 0x40 MLOAD PUSH3 0x461BCD PUSH1 0xE5 SHL DUP2 MSTORE PUSH1 0x20 PUSH1 0x4 DUP3 ADD MSTORE PUSH1 0xD PUSH1 0x24 DUP3 ADD MSTORE PUSH13 0x456D7074792062617365555249 PUSH1 0x98 SHL PUSH1 0x44 DUP3 ADD MSTORE PUSH1 0x64 ADD PUSH2 0x2F9 JUMP JUMPDEST PUSH1 0x5 DUP1 SLOAD PUSH2 0x211 SWAP1 PUSH2 0x884 JUMP JUMPDEST PUSH1 0x0 PUSH1 0x1 PUSH1 0x1 PUSH1 0xA0 SHL SUB DUP4 AND PUSH2 0x5C4 JUMPI PUSH1 0x40 MLOAD PUSH3 0x461BCD PUSH1 0xE5 SHL DUP2 MSTORE PUSH1 0x20 PUSH1 0x4 DUP3 ADD MSTORE PUSH1 0x17 PUSH1 0x24 DUP3 ADD MSTORE PUSH32 0x517565727920666F72207A65726F20616464726573732E000000000000000000 PUSH1 0x44 DUP3 ADD MSTORE PUSH1 0x64 ADD PUSH2 0x2F9 JUMP JUMPDEST PUSH1 0x0 DUP3 DUP2 MSTORE PUSH1 0x2 PUSH1 0x20 MSTORE PUSH1 0x40 SWAP1 KECCAK256 SLOAD PUSH1 0x1 PUSH1 0x1 PUSH1 0xA0 SHL SUB AND PUSH2 0x61E JUMPI PUSH1 0x40 MLOAD PUSH3 0x461BCD PUSH1 0xE5 SHL DUP2 MSTORE PUSH1 0x20 PUSH1 0x4 DUP3 ADD MSTORE PUSH1 0x13 PUSH1 0x24 DUP3 ADD MSTORE PUSH19 0x2737B716B2BC34B9BA32B73A103A37B5B2B717 PUSH1 0x69 SHL PUSH1 0x44 DUP3 ADD MSTORE PUSH1 0x64 ADD PUSH2 0x2F9 JUMP JUMPDEST DUP3 PUSH1 0x1 PUSH1 0x1 PUSH1 0xA0 SHL SUB AND PUSH2 0x631 DUP4 PUSH2 0x30E JUMP JUMPDEST PUSH1 0x1 PUSH1 0x1 PUSH1 0xA0 SHL SUB AND EQ PUSH2 0x687 JUMPI PUSH1 0x40 MLOAD PUSH3 0x461BCD PUSH1 0xE5 SHL DUP2 MSTORE PUSH1 0x20 PUSH1 0x4 DUP3 ADD MSTORE PUSH1 0x1A PUSH1 0x24 DUP3 ADD MSTORE PUSH32 0x546F6B656E206E6F74206F776E65642062792061646472657373000000000000 PUSH1 0x44 DUP3 ADD MSTORE PUSH1 0x64 ADD PUSH2 0x2F9 JUMP JUMPDEST POP ADDRESS SWAP3 SWAP2 POP POP JUMP JUMPDEST PUSH1 0x0 PUSH2 0x69A DUP3 PUSH2 0x30E JUMP JUMPDEST PUSH1 0x1 PUSH1 0x1 PUSH1 0xA0 SHL SUB DUP2 AND PUSH1 0x0 SWAP1 DUP2 MSTORE PUSH1 0x4 PUSH1 0x20 MSTORE PUSH1 0x40 DUP2 KECCAK256 DUP1 SLOAD SWAP3 SWAP4 POP PUSH1 0x1 SWAP3 SWAP1 SWAP2 SWAP1 PUSH2 0x6C8 SWAP1 DUP5 SWAP1 PUSH2 0x8BF JUMP JUMPDEST SWAP1 SWAP2 SSTORE POP POP PUSH1 0x0 DUP3 DUP2 MSTORE PUSH1 0x2 PUSH1 0x20 SWAP1 DUP2 MSTORE PUSH1 0x40 DUP1 DUP4 KECCAK256 DUP1 SLOAD PUSH1 0x1 PUSH1 0x1 PUSH1 0xA0 SHL SUB NOT AND SWAP1 SSTORE PUSH1 0x3 SWAP1 SWAP2 MSTORE DUP2 KECCAK256 PUSH2 0x6FC SWAP2 PUSH2 0x736 JUMP JUMPDEST PUSH1 0x40 MLOAD DUP3 SWAP1 PUSH1 0x1 PUSH1 0x1 PUSH1 0xA0 SHL SUB DUP4 AND SWAP1 PUSH32 0xEC9AB91322523C899EDE7830EC9BFC992B5981CDCC27B91162FB23DE5791117B SWAP1 PUSH1 0x0 SWAP1 LOG3 POP POP JUMP JUMPDEST POP DUP1 SLOAD PUSH2 0x742 SWAP1 PUSH2 0x884 JUMP JUMPDEST PUSH1 0x0 DUP3 SSTORE DUP1 PUSH1 0x1F LT PUSH2 0x752 JUMPI POP POP JUMP JUMPDEST PUSH1 0x1F ADD PUSH1 0x20 SWAP1 DIV SWAP1 PUSH1 0x0 MSTORE PUSH1 0x20 PUSH1 0x0 KECCAK256 SWAP1 DUP2 ADD SWAP1 PUSH2 0x30B SWAP2 SWAP1 JUMPDEST DUP1 DUP3 GT ISZERO PUSH2 0x780 JUMPI PUSH1 0x0 DUP2 SSTORE PUSH1 0x1 ADD PUSH2 0x76C JUMP JUMPDEST POP SWAP1 JUMP JUMPDEST PUSH1 0x0 PUSH1 0x20 DUP3 DUP5 SUB SLT ISZERO PUSH2 0x796 JUMPI PUSH1 0x0 DUP1 REVERT JUMPDEST DUP2 CALLDATALOAD PUSH1 0x1 PUSH1 0x1 PUSH1 0xE0 SHL SUB NOT DUP2 AND DUP2 EQ PUSH2 0x7AE JUMPI PUSH1 0x0 DUP1 REVERT JUMPDEST SWAP4 SWAP3 POP POP POP JUMP JUMPDEST PUSH1 0x0 PUSH1 0x20 DUP1 DUP4 MSTORE DUP4 MLOAD DUP1 DUP3 DUP6 ADD MSTORE PUSH1 0x0 JUMPDEST DUP2 DUP2 LT ISZERO PUSH2 0x7E2 JUMPI DUP6 DUP2 ADD DUP4 ADD MLOAD DUP6 DUP3 ADD PUSH1 0x40 ADD MSTORE DUP3 ADD PUSH2 0x7C6 JUMP JUMPDEST DUP2 DUP2 GT ISZERO PUSH2 0x7F4 JUMPI PUSH1 0x0 PUSH1 0x40 DUP4 DUP8 ADD ADD MSTORE JUMPDEST POP PUSH1 0x1F ADD PUSH1 0x1F NOT AND SWAP3 SWAP1 SWAP3 ADD PUSH1 0x40 ADD SWAP4 SWAP3 POP POP POP JUMP JUMPDEST PUSH1 0x0 PUSH1 0x20 DUP3 DUP5 SUB SLT ISZERO PUSH2 0x81C JUMPI PUSH1 0x0 DUP1 REVERT JUMPDEST POP CALLDATALOAD SWAP2 SWAP1 POP JUMP JUMPDEST DUP1 CALLDATALOAD PUSH1 0x1 PUSH1 0x1 PUSH1 0xA0 SHL SUB DUP2 AND DUP2 EQ PUSH2 0x83A JUMPI PUSH1 0x0 DUP1 REVERT JUMPDEST SWAP2 SWAP1 POP JUMP JUMPDEST PUSH1 0x0 DUP1 PUSH1 0x40 DUP4 DUP6 SUB SLT ISZERO PUSH2 0x852 JUMPI PUSH1 0x0 DUP1 REVERT JUMPDEST PUSH2 0x85B DUP4 PUSH2 0x823 JUMP JUMPDEST SWAP5 PUSH1 0x20 SWAP4 SWAP1 SWAP4 ADD CALLDATALOAD SWAP4 POP POP POP JUMP JUMPDEST PUSH1 0x0 PUSH1 0x20 DUP3 DUP5 SUB SLT ISZERO PUSH2 0x87B JUMPI PUSH1 0x0 DUP1 REVERT JUMPDEST PUSH2 0x7AE DUP3 PUSH2 0x823 JUMP JUMPDEST PUSH1 0x1 DUP2 DUP2 SHR SWAP1 DUP3 AND DUP1 PUSH2 0x898 JUMPI PUSH1 0x7F DUP3 AND SWAP2 POP JUMPDEST PUSH1 0x20 DUP3 LT DUP2 EQ ISZERO PUSH2 0x8B9 JUMPI PUSH4 0x4E487B71 PUSH1 0xE0 SHL PUSH1 0x0 MSTORE PUSH1 0x22 PUSH1 0x4 MSTORE PUSH1 0x24 PUSH1 0x0 REVERT JUMPDEST POP SWAP2 SWAP1 POP JUMP JUMPDEST PUSH1 0x0 DUP3 DUP3 LT ISZERO PUSH2 0x8DF JUMPI PUSH4 0x4E487B71 PUSH1 0xE0 SHL PUSH1 0x0 MSTORE PUSH1 0x11 PUSH1 0x4 MSTORE PUSH1 0x24 PUSH1 0x0 REVERT JUMPDEST POP SUB SWAP1 JUMP INVALID LOG2 PUSH5 0x6970667358 0x22 SLT KECCAK256 ADDMOD 0xEB EXTCODESIZE CALLDATACOPY CALL SGT PUSH3 0x54D671 KECCAK256 MLOAD 0x49 PUSH12 0xA6D6D84CD7D144B36AE1A2D8 0x29 GASPRICE 0x4A 0xE0 JUMPI 0xA9 PUSH5 0x736F6C6343 STOP ADDMOD 0xC STOP CALLER ",
  "sha1": "d9f26a29a09c85afaedb624e24cd5a5f322d1db6",
  "source": "// SPDX-License-Identifier: GPL-3.0\npragma solidity ^0.8.8;\n\nimport \"../contracts/interfaces/ISoulbound.sol\";\nimport \"../eips/ERC-4973.sol\";\n\n/**\n* @title Soulbound Token Contract.\n* @author Daccred.\n* @dev  Soulbound Token Base Template.\n*       This contract was inspired by\n*       https://github.com/ethereum/EIPs/blob/master/assets/eip-4973/ERC-4973.sol\n*       This contract is inherited by any contract to implement the Soulbound\n*       template.\n*       Soulbound tokens  cannot be transferred when minted to a particular address.\n*       This is the base instance of the contract,\n*       it includes minting functions and revoke functions.\n*       Inheriting functions can wrap around the specified functions.\n*       Also, this base contract instance does not include a capped supply.\n*/\ncontract Soulbound is ERC4973 {\n    /** \n    * @dev  Stores the base URI on cases when the user wants to mint a token,\n    *       it automatically generates a string casted tokenURI using the\n    *       generateTokenURI function. This variable can only be modified by\n    *       the allowlist owner.\n    */\n    string private baseURI;\n\n    /// @dev Mapping of speific addresses to tokenIds and boolean for mint records.\n    mapping(address => mapping(uint256 => bool)) private mints;\n\n    /// @dev Allows the deployer to set a name and a symbol for the token.\n    constructor(string memory name, string memory symbol) ERC4973(name, symbol) {}\n\n    /**\n    * @dev  Mints a new token `_tokenId` to `_to`, giving to ownership of token `_tokenId`.\n    *       This function will be used hand in hand with ERC721's _mint() function.\n    *       Emits the {Attest} event.\n    *       `_to` cannot transfer the token.\n    *       `_to` must not be a 0 address.\n    *       `_tokenId` must be an existent token.\n    *       This does not evaluate total supply of tokens before minting.\n    *\n    * @notice Callable by anyone.\n    *\n    * @param _to        Address to which token `_tokenId` is minted.\n    * @param _tokenId   Token to mint.\n    * @param tokenURI   Auto generated or user passed URI for minted token.\n    *\n    * @return bool true or false.\n    */\n    function issue(\n        address _to, \n        uint256 _tokenId, \n        string memory tokenURI\n    ) internal returns(bool)\n    {\n        /// @dev Mint Soulbound token to `_to` using ERC4973 _mint().\n        mintSoulboundToken(\n            _to, \n            _tokenId, \n            tokenURI\n        );\n        /// @dev Return true.\n        return true;\n    }\n\n    /**\n    * @dev  Withdraws ownership of token `_tokenId` from `_From`.\n    *       This will be done when the ERC721's _burn() function is called.\n    *       Emits the {Revoke} event.\n    *       `_from` must own the token.\n    *       `_from` must not be a 0 address.\n    *       `_tokenId` must be an existent token.\n    *       The function can only be called by the issuer of the token.\n    *       This modifier onlyIssuer will be implemented in the contract.\n    *       [Modifiers cannot be made in interfaces].\n    *       This does not evaluate total supply of tokens before minting.\n    *\n    * @notice Callable by this or inheriting contract.\n    *\n    * @param _from      Address which owns token `_tokenId`.\n    * @param _tokenId   Token to revoke.\n    *\n    * @return bool true or false.\n    */\n    function revoke(address _from, uint256 _tokenId) internal returns(bool) {\n        /// @dev Require token exists.\n        require(_exists(_tokenId), \"Non-existent token.\");\n        /// @dev Require _tokenId is owned by _from.\n        require(ownerOf(_tokenId) == _from, \"Token not owned by address\");\n        /// @dev Burn the token.\n        burnSoulboundToken(_tokenId);\n        /// @dev Return true.\n        return true;\n    }\n\n    /**\n    * @dev  Since a token cannnot be minted twice.\n    *       This function returns the address that minted token `_tokenId` to `_to`,\n    *       otherwise this contract.\n    *       `_to` must not be a 0 address.\n    *       `_tokenId` must be an existent token.\n    *       Owner of _tokenId must be _to.\n    *\n    * @notice Callable by anyone.\n    *\n    * @param _to        Address to which token `_tokenId` is minted.\n    * @param _tokenId   Token minted.\n    *\n    * @return address of issuer.\n    */\n    function issuerOf(address _to, uint256 _tokenId) public view returns(address) {\n        /// @dev Require _to is not a zero address.\n        require(_to != address(0), \"Query for zero address.\");\n        /// @dev Require token exists.\n        require(_exists(_tokenId), \"Non-existent token.\");\n        /// @dev Require _tokenId is owned by _to.\n        require(ownerOf(_tokenId) == _to, \"Token not owned by address\");\n        /// @dev Returns this address.\n        return address(this);\n    }\n\n    /**\n    * @dev  Returns true if token `_tokenId` was minted from this contract to `_to`.\n    *       `_to` must not be a 0 address.\n    *       `_tokenId` must be an existent token.\n    *\n    * @notice Callable by anyone.\n    *\n    * @param _to        Address to which token `_tokenId` is minted.\n    * @param _tokenId   Token minted.\n    *\n    * @return bool true or false.\n    */\n    function isMinted(\n        address _to, \n        uint256 _tokenId\n    ) public view returns(bool) {\n        return mints[_to][_tokenId];\n    }\n\n    /**\n    * @dev Mints `tokenId` of the soulbound token to `to`.\n    *\n    * @param to         Receiver of the tokens.\n    * @param tokenId    Amount to be minted, GT 0.\n    * @param tokenURI   URI of token minted.\n    */\n    function mintSoulboundToken(\n        address to, \n        uint256 tokenId, \n        string memory tokenURI\n    ) private \n    {\n        /// @dev Require the address receiving is not a zero address.\n        require(to != address(0), \"Mint to zero address.\");\n        /// @dev    ERC-4973 doesn't include checks for empty tokenURIs\n        ///         but they should be necessary.\n        require(bytes(tokenURI).length != 0, \"Empty tokenURI.\");\n        /// @dev    Mint to the `to` address.\n        ///         ERC4973 runs check for existent token.\n        _mint(to, tokenId, tokenURI);\n        /// @dev Set record of owner to true;\n        mints[to][tokenId] = true;\n    }\n\n    /**\n    * @dev  Burns a soulbound token, on the condition that\n    *       the token exists.\n    *\n    * @param tokenId Token to be burnt.\n    */\n    function burnSoulboundToken(uint256 tokenId) private {\n        /// @dev Checks that the token actually exists.\n        require(_exists(tokenId), \"Burn of inexistent token\");\n        /// @dev Get owner of token tokenId.\n        address _tokenOwner = ownerOf(tokenId);\n        /// @dev Burn the token.\n        _burn(tokenId);\n        /// @dev Set record of owner to false.\n        mints[_tokenOwner][tokenId] = false;\n    }\n\n    /**\n    * @dev Sets the baseURI to `_baseURI`.\n    *\n    * @notice Callable by this or inheriting contract.\n    *\n    * @param _baseURI String URI.\n    */\n    function _setBaseURI(string memory _baseURI) internal {\n        /// @dev Ensure that the word length is 0.\n        require(bytes(_baseURI).length != 0, \"Invalid length\");\n        /// @dev Set baseURI.\n        baseURI = _baseURI;\n    }\n\n    /**\n    * @dev Returns already set baseURI if it exists.\n    *\n    * @notice Callable by anyone.\n    *\n    * @return _baseURI baseURI set.\n    */\n    function _getBaseURI() public view returns(string memory _baseURI) {\n        /// @dev Require baseURI length is not 0.\n        require(bytes(baseURI).length != 0, \"Empty baseURI\");\n        /// @dev Return baseURI.\n        _baseURI = baseURI;\n    }\n}\n",
  "sourcePath": "contracts/extensions/Soulbound.sol",
  "type": "contract"
}