{
  "contractName": "DacredFactory",
  "abi": [
    {
      "inputs": [
        {
          "internalType": "string",
          "name": "_name",
          "type": "string"
        },
        {
          "internalType": "string",
          "name": "_symbol",
          "type": "string"
        }
      ],
      "stateMutability": "nonpayable",
      "type": "constructor"
    },
    {
      "anonymous": false,
      "inputs": [
        {
          "indexed": true,
          "internalType": "address",
          "name": "owner",
          "type": "address"
        },
        {
          "indexed": true,
          "internalType": "address",
          "name": "approved",
          "type": "address"
        },
        {
          "indexed": true,
          "internalType": "uint256",
          "name": "tokenId",
          "type": "uint256"
        }
      ],
      "name": "Approval",
      "type": "event"
    },
    {
      "anonymous": false,
      "inputs": [
        {
          "indexed": true,
          "internalType": "address",
          "name": "owner",
          "type": "address"
        },
        {
          "indexed": true,
          "internalType": "address",
          "name": "operator",
          "type": "address"
        },
        {
          "indexed": false,
          "internalType": "bool",
          "name": "approved",
          "type": "bool"
        }
      ],
      "name": "ApprovalForAll",
      "type": "event"
    },
    {
      "anonymous": false,
      "inputs": [
        {
          "indexed": false,
          "internalType": "address",
          "name": "recipient",
          "type": "address"
        },
        {
          "indexed": false,
          "internalType": "uint256",
          "name": "tokenId",
          "type": "uint256"
        }
      ],
      "name": "CredentialAwarded",
      "type": "event"
    },
    {
      "anonymous": false,
      "inputs": [
        {
          "indexed": true,
          "internalType": "address",
          "name": "previousOwner",
          "type": "address"
        },
        {
          "indexed": true,
          "internalType": "address",
          "name": "newOwner",
          "type": "address"
        }
      ],
      "name": "OwnershipTransferred",
      "type": "event"
    },
    {
      "anonymous": false,
      "inputs": [
        {
          "indexed": true,
          "internalType": "address",
          "name": "from",
          "type": "address"
        },
        {
          "indexed": true,
          "internalType": "address",
          "name": "to",
          "type": "address"
        },
        {
          "indexed": true,
          "internalType": "uint256",
          "name": "tokenId",
          "type": "uint256"
        }
      ],
      "name": "Transfer",
      "type": "event"
    },
    {
      "inputs": [
        {
          "internalType": "address",
          "name": "to",
          "type": "address"
        },
        {
          "internalType": "uint256",
          "name": "tokenId",
          "type": "uint256"
        }
      ],
      "name": "approve",
      "outputs": [],
      "stateMutability": "nonpayable",
      "type": "function"
    },
    {
      "inputs": [
        {
          "internalType": "address",
          "name": "owner",
          "type": "address"
        }
      ],
      "name": "balanceOf",
      "outputs": [
        {
          "internalType": "uint256",
          "name": "",
          "type": "uint256"
        }
      ],
      "stateMutability": "view",
      "type": "function"
    },
    {
      "inputs": [
        {
          "internalType": "uint256",
          "name": "tokenId",
          "type": "uint256"
        }
      ],
      "name": "getApproved",
      "outputs": [
        {
          "internalType": "address",
          "name": "",
          "type": "address"
        }
      ],
      "stateMutability": "view",
      "type": "function"
    },
    {
      "inputs": [
        {
          "internalType": "address",
          "name": "owner",
          "type": "address"
        },
        {
          "internalType": "address",
          "name": "operator",
          "type": "address"
        }
      ],
      "name": "isApprovedForAll",
      "outputs": [
        {
          "internalType": "bool",
          "name": "",
          "type": "bool"
        }
      ],
      "stateMutability": "view",
      "type": "function"
    },
    {
      "inputs": [],
      "name": "name",
      "outputs": [
        {
          "internalType": "string",
          "name": "",
          "type": "string"
        }
      ],
      "stateMutability": "view",
      "type": "function"
    },
    {
      "inputs": [],
      "name": "owner",
      "outputs": [
        {
          "internalType": "address",
          "name": "",
          "type": "address"
        }
      ],
      "stateMutability": "view",
      "type": "function"
    },
    {
      "inputs": [
        {
          "internalType": "uint256",
          "name": "tokenId",
          "type": "uint256"
        }
      ],
      "name": "ownerOf",
      "outputs": [
        {
          "internalType": "address",
          "name": "",
          "type": "address"
        }
      ],
      "stateMutability": "view",
      "type": "function"
    },
    {
      "inputs": [],
      "name": "renounceOwnership",
      "outputs": [],
      "stateMutability": "nonpayable",
      "type": "function"
    },
    {
      "inputs": [
        {
          "internalType": "address",
          "name": "from",
          "type": "address"
        },
        {
          "internalType": "address",
          "name": "to",
          "type": "address"
        },
        {
          "internalType": "uint256",
          "name": "tokenId",
          "type": "uint256"
        }
      ],
      "name": "safeTransferFrom",
      "outputs": [],
      "stateMutability": "nonpayable",
      "type": "function"
    },
    {
      "inputs": [
        {
          "internalType": "address",
          "name": "from",
          "type": "address"
        },
        {
          "internalType": "address",
          "name": "to",
          "type": "address"
        },
        {
          "internalType": "uint256",
          "name": "tokenId",
          "type": "uint256"
        },
        {
          "internalType": "bytes",
          "name": "_data",
          "type": "bytes"
        }
      ],
      "name": "safeTransferFrom",
      "outputs": [],
      "stateMutability": "nonpayable",
      "type": "function"
    },
    {
      "inputs": [
        {
          "internalType": "address",
          "name": "operator",
          "type": "address"
        },
        {
          "internalType": "bool",
          "name": "approved",
          "type": "bool"
        }
      ],
      "name": "setApprovalForAll",
      "outputs": [],
      "stateMutability": "nonpayable",
      "type": "function"
    },
    {
      "inputs": [
        {
          "internalType": "bytes4",
          "name": "interfaceId",
          "type": "bytes4"
        }
      ],
      "name": "supportsInterface",
      "outputs": [
        {
          "internalType": "bool",
          "name": "",
          "type": "bool"
        }
      ],
      "stateMutability": "view",
      "type": "function"
    },
    {
      "inputs": [],
      "name": "symbol",
      "outputs": [
        {
          "internalType": "string",
          "name": "",
          "type": "string"
        }
      ],
      "stateMutability": "view",
      "type": "function"
    },
    {
      "inputs": [
        {
          "internalType": "uint256",
          "name": "tokenId",
          "type": "uint256"
        }
      ],
      "name": "tokenURI",
      "outputs": [
        {
          "internalType": "string",
          "name": "",
          "type": "string"
        }
      ],
      "stateMutability": "view",
      "type": "function"
    },
    {
      "inputs": [
        {
          "internalType": "address",
          "name": "from",
          "type": "address"
        },
        {
          "internalType": "address",
          "name": "to",
          "type": "address"
        },
        {
          "internalType": "uint256",
          "name": "tokenId",
          "type": "uint256"
        }
      ],
      "name": "transferFrom",
      "outputs": [],
      "stateMutability": "nonpayable",
      "type": "function"
    },
    {
      "inputs": [
        {
          "internalType": "address",
          "name": "newOwner",
          "type": "address"
        }
      ],
      "name": "transferOwnership",
      "outputs": [],
      "stateMutability": "nonpayable",
      "type": "function"
    },
    {
      "inputs": [
        {
          "internalType": "address",
          "name": "recipient",
          "type": "address"
        },
        {
          "internalType": "string",
          "name": "tokenURI",
          "type": "string"
        }
      ],
      "name": "awardCredential",
      "outputs": [
        {
          "internalType": "uint256",
          "name": "",
          "type": "uint256"
        }
      ],
      "stateMutability": "nonpayable",
      "type": "function"
    }
  ],
  "bytecode": "0x60806040523480156200001157600080fd5b506040516200348238038062003482833981810160405281019062000037919062000291565b818181600090805190602001906200005192919062000163565b5080600190805190602001906200006a92919062000163565b5050506200008d620000816200009560201b60201c565b6200009d60201b60201c565b50506200049a565b600033905090565b6000600760009054906101000a900473ffffffffffffffffffffffffffffffffffffffff16905081600760006101000a81548173ffffffffffffffffffffffffffffffffffffffff021916908373ffffffffffffffffffffffffffffffffffffffff1602179055508173ffffffffffffffffffffffffffffffffffffffff168173ffffffffffffffffffffffffffffffffffffffff167f8be0079c531659141344cd1fd0a4f28419497f9722a3daafe3b4186f6b6457e060405160405180910390a35050565b8280546200017190620003ab565b90600052602060002090601f016020900481019282620001955760008555620001e1565b82601f10620001b057805160ff1916838001178555620001e1565b82800160010185558215620001e1579182015b82811115620001e0578251825591602001919060010190620001c3565b5b509050620001f09190620001f4565b5090565b5b808211156200020f576000816000905550600101620001f5565b5090565b60006200022a62000224846200033f565b62000316565b9050828152602081018484840111156200024957620002486200047a565b5b6200025684828562000375565b509392505050565b600082601f83011262000276576200027562000475565b5b81516200028884826020860162000213565b91505092915050565b60008060408385031215620002ab57620002aa62000484565b5b600083015167ffffffffffffffff811115620002cc57620002cb6200047f565b5b620002da858286016200025e565b925050602083015167ffffffffffffffff811115620002fe57620002fd6200047f565b5b6200030c858286016200025e565b9150509250929050565b60006200032262000335565b9050620003308282620003e1565b919050565b6000604051905090565b600067ffffffffffffffff8211156200035d576200035c62000446565b5b620003688262000489565b9050602081019050919050565b60005b838110156200039557808201518184015260208101905062000378565b83811115620003a5576000848401525b50505050565b60006002820490506001821680620003c457607f821691505b60208210811415620003db57620003da62000417565b5b50919050565b620003ec8262000489565b810181811067ffffffffffffffff821117156200040e576200040d62000446565b5b80604052505050565b7f4e487b7100000000000000000000000000000000000000000000000000000000600052602260045260246000fd5b7f4e487b7100000000000000000000000000000000000000000000000000000000600052604160045260246000fd5b600080fd5b600080fd5b600080fd5b600080fd5b6000601f19601f8301169050919050565b612fd880620004aa6000396000f3fe608060405234801561001057600080fd5b506004361061010b5760003560e01c8063715018a6116100a2578063a22cb46511610071578063a22cb465146102b8578063b88d4fde146102d4578063c87b56dd146102f0578063e985e9c514610320578063f2fde38b146103505761010b565b8063715018a6146102425780637c3a58011461024c5780638da5cb5b1461027c57806395d89b411461029a5761010b565b806323b872dd116100de57806323b872dd146101aa57806342842e0e146101c65780636352211e146101e257806370a08231146102125761010b565b806301ffc9a71461011057806306fdde0314610140578063081812fc1461015e578063095ea7b31461018e575b600080fd5b61012a60048036038101906101259190611f0f565b61036c565b6040516101379190612390565b60405180910390f35b61014861044e565b60405161015591906123ab565b60405180910390f35b61017860048036038101906101739190611f69565b6104e0565b6040516101859190612300565b60405180910390f35b6101a860048036038101906101a39190611ecf565b610565565b005b6101c460048036038101906101bf9190611d5d565b61067d565b005b6101e060048036038101906101db9190611d5d565b6106dd565b005b6101fc60048036038101906101f79190611f69565b6106fd565b6040516102099190612300565b60405180910390f35b61022c60048036038101906102279190611cf0565b6107af565b604051610239919061260d565b60405180910390f35b61024a610867565b005b61026660048036038101906102619190611e73565b6108ef565b604051610273919061260d565b60405180910390f35b610284610960565b6040516102919190612300565b60405180910390f35b6102a261098a565b6040516102af91906123ab565b60405180910390f35b6102d260048036038101906102cd9190611e33565b610a1c565b005b6102ee60048036038101906102e99190611db0565b610b9d565b005b61030a60048036038101906103059190611f69565b610bff565b60405161031791906123ab565b60405180910390f35b61033a60048036038101906103359190611d1d565b610d51565b6040516103479190612390565b60405180910390f35b61036a60048036038101906103659190611cf0565b610de5565b005b60007f80ac58cd000000000000000000000000000000000000000000000000000000007bffffffffffffffffffffffffffffffffffffffffffffffffffffffff1916827bffffffffffffffffffffffffffffffffffffffffffffffffffffffff1916148061043757507f5b5e139f000000000000000000000000000000000000000000000000000000007bffffffffffffffffffffffffffffffffffffffffffffffffffffffff1916827bffffffffffffffffffffffffffffffffffffffffffffffffffffffff1916145b80610447575061044682610edd565b5b9050919050565b60606000805461045d90612863565b80601f016020809104026020016040519081016040528092919081815260200182805461048990612863565b80156104d65780601f106104ab576101008083540402835291602001916104d6565b820191906000526020600020905b8154815290600101906020018083116104b957829003601f168201915b5050505050905090565b60006104eb82610f47565b61052a576040517f08c379a00000000000000000000000000000000000000000000000000000000081526004016105219061254d565b60405180910390fd5b6004600083815260200190815260200160002060009054906101000a900473ffffffffffffffffffffffffffffffffffffffff169050919050565b6000610570826106fd565b90508073ffffffffffffffffffffffffffffffffffffffff168373ffffffffffffffffffffffffffffffffffffffff1614156105e1576040517f08c379a00000000000000000000000000000000000000000000000000000000081526004016105d8906125cd565b60405180910390fd5b8073ffffffffffffffffffffffffffffffffffffffff16610600610fb3565b73ffffffffffffffffffffffffffffffffffffffff16148061062f575061062e81610629610fb3565b610d51565b5b61066e576040517f08c379a00000000000000000000000000000000000000000000000000000000081526004016106659061248d565b60405180910390fd5b6106788383610fbb565b505050565b61068e610688610fb3565b82611074565b6106cd576040517f08c379a00000000000000000000000000000000000000000000000000000000081526004016106c4906125ed565b60405180910390fd5b6106d8838383611152565b505050565b6106f883838360405180602001604052806000815250610b9d565b505050565b6000806002600084815260200190815260200160002060009054906101000a900473ffffffffffffffffffffffffffffffffffffffff169050600073ffffffffffffffffffffffffffffffffffffffff168173ffffffffffffffffffffffffffffffffffffffff1614156107a6576040517f08c379a000000000000000000000000000000000000000000000000000000000815260040161079d906124cd565b60405180910390fd5b80915050919050565b60008073ffffffffffffffffffffffffffffffffffffffff168273ffffffffffffffffffffffffffffffffffffffff161415610820576040517f08c379a0000000000000000000000000000000000000000000000000000000008152600401610817906124ad565b60405180910390fd5b600360008373ffffffffffffffffffffffffffffffffffffffff1673ffffffffffffffffffffffffffffffffffffffff168152602001908152602001600020549050919050565b61086f610fb3565b73ffffffffffffffffffffffffffffffffffffffff1661088d610960565b73ffffffffffffffffffffffffffffffffffffffff16146108e3576040517f08c379a00000000000000000000000000000000000000000000000000000000081526004016108da9061256d565b60405180910390fd5b6108ed60006113ae565b565b60006108fb6008611474565b6000610907600861148a565b90506109138482611498565b61091d8184611666565b7fd055e65e60f4f152227c84f04fb4dba4466f6eea9384ccdaab2bed38b0ea279c338260405161094e929190612367565b60405180910390a18091505092915050565b6000600760009054906101000a900473ffffffffffffffffffffffffffffffffffffffff16905090565b60606001805461099990612863565b80601f01602080910402602001604051908101604052809291908181526020018280546109c590612863565b8015610a125780601f106109e757610100808354040283529160200191610a12565b820191906000526020600020905b8154815290600101906020018083116109f557829003601f168201915b5050505050905090565b610a24610fb3565b73ffffffffffffffffffffffffffffffffffffffff168273ffffffffffffffffffffffffffffffffffffffff161415610a92576040517f08c379a0000000000000000000000000000000000000000000000000000000008152600401610a899061244d565b60405180910390fd5b8060056000610a9f610fb3565b73ffffffffffffffffffffffffffffffffffffffff1673ffffffffffffffffffffffffffffffffffffffff16815260200190815260200160002060008473ffffffffffffffffffffffffffffffffffffffff1673ffffffffffffffffffffffffffffffffffffffff16815260200190815260200160002060006101000a81548160ff0219169083151502179055508173ffffffffffffffffffffffffffffffffffffffff16610b4c610fb3565b73ffffffffffffffffffffffffffffffffffffffff167f17307eab39ab6107e8899845ad3d59bd9653f200f220920489ca2b5937696c3183604051610b919190612390565b60405180910390a35050565b610bae610ba8610fb3565b83611074565b610bed576040517f08c379a0000000000000000000000000000000000000000000000000000000008152600401610be4906125ed565b60405180910390fd5b610bf9848484846116da565b50505050565b6060610c0a82610f47565b610c49576040517f08c379a0000000000000000000000000000000000000000000000000000000008152600401610c409061252d565b60405180910390fd5b6000600660008481526020019081526020016000208054610c6990612863565b80601f0160208091040260200160405190810160405280929190818152602001828054610c9590612863565b8015610ce25780601f10610cb757610100808354040283529160200191610ce2565b820191906000526020600020905b815481529060010190602001808311610cc557829003601f168201915b505050505090506000610cf3611736565b9050600081511415610d09578192505050610d4c565b600082511115610d3e578082604051602001610d269291906122dc565b60405160208183030381529060405292505050610d4c565b610d478461174d565b925050505b919050565b6000600560008473ffffffffffffffffffffffffffffffffffffffff1673ffffffffffffffffffffffffffffffffffffffff16815260200190815260200160002060008373ffffffffffffffffffffffffffffffffffffffff1673ffffffffffffffffffffffffffffffffffffffff16815260200190815260200160002060009054906101000a900460ff16905092915050565b610ded610fb3565b73ffffffffffffffffffffffffffffffffffffffff16610e0b610960565b73ffffffffffffffffffffffffffffffffffffffff1614610e61576040517f08c379a0000000000000000000000000000000000000000000000000000000008152600401610e589061256d565b60405180910390fd5b600073ffffffffffffffffffffffffffffffffffffffff168173ffffffffffffffffffffffffffffffffffffffff161415610ed1576040517f08c379a0000000000000000000000000000000000000000000000000000000008152600401610ec8906123ed565b60405180910390fd5b610eda816113ae565b50565b60007f01ffc9a7000000000000000000000000000000000000000000000000000000007bffffffffffffffffffffffffffffffffffffffffffffffffffffffff1916827bffffffffffffffffffffffffffffffffffffffffffffffffffffffff1916149050919050565b60008073ffffffffffffffffffffffffffffffffffffffff166002600084815260200190815260200160002060009054906101000a900473ffffffffffffffffffffffffffffffffffffffff1673ffffffffffffffffffffffffffffffffffffffff1614159050919050565b600033905090565b816004600083815260200190815260200160002060006101000a81548173ffffffffffffffffffffffffffffffffffffffff021916908373ffffffffffffffffffffffffffffffffffffffff160217905550808273ffffffffffffffffffffffffffffffffffffffff1661102e836106fd565b73ffffffffffffffffffffffffffffffffffffffff167f8c5be1e5ebec7d5bd14f71427d1e84f3dd0314c0f7b2291e5b200ac8c7c3b92560405160405180910390a45050565b600061107f82610f47565b6110be576040517f08c379a00000000000000000000000000000000000000000000000000000000081526004016110b59061246d565b60405180910390fd5b60006110c9836106fd565b90508073ffffffffffffffffffffffffffffffffffffffff168473ffffffffffffffffffffffffffffffffffffffff16148061113857508373ffffffffffffffffffffffffffffffffffffffff16611120846104e0565b73ffffffffffffffffffffffffffffffffffffffff16145b8061114957506111488185610d51565b5b91505092915050565b8273ffffffffffffffffffffffffffffffffffffffff16611172826106fd565b73ffffffffffffffffffffffffffffffffffffffff16146111c8576040517f08c379a00000000000000000000000000000000000000000000000000000000081526004016111bf9061258d565b60405180910390fd5b600073ffffffffffffffffffffffffffffffffffffffff168273ffffffffffffffffffffffffffffffffffffffff161415611238576040517f08c379a000000000000000000000000000000000000000000000000000000000815260040161122f9061242d565b60405180910390fd5b6112438383836117f4565b61124e600082610fbb565b6001600360008573ffffffffffffffffffffffffffffffffffffffff1673ffffffffffffffffffffffffffffffffffffffff168152602001908152602001600020600082825461129e9190612779565b925050819055506001600360008473ffffffffffffffffffffffffffffffffffffffff1673ffffffffffffffffffffffffffffffffffffffff16815260200190815260200160002060008282546112f591906126f2565b92505081905550816002600083815260200190815260200160002060006101000a81548173ffffffffffffffffffffffffffffffffffffffff021916908373ffffffffffffffffffffffffffffffffffffffff160217905550808273ffffffffffffffffffffffffffffffffffffffff168473ffffffffffffffffffffffffffffffffffffffff167fddf252ad1be2c89b69c2b068fc378daa952ba7f163c4a11628f55a4df523b3ef60405160405180910390a4505050565b6000600760009054906101000a900473ffffffffffffffffffffffffffffffffffffffff16905081600760006101000a81548173ffffffffffffffffffffffffffffffffffffffff021916908373ffffffffffffffffffffffffffffffffffffffff1602179055508173ffffffffffffffffffffffffffffffffffffffff168173ffffffffffffffffffffffffffffffffffffffff167f8be0079c531659141344cd1fd0a4f28419497f9722a3daafe3b4186f6b6457e060405160405180910390a35050565b6001816000016000828254019250508190555050565b600081600001549050919050565b600073ffffffffffffffffffffffffffffffffffffffff168273ffffffffffffffffffffffffffffffffffffffff161415611508576040517f08c379a00000000000000000000000000000000000000000000000000000000081526004016114ff9061250d565b60405180910390fd5b61151181610f47565b15611551576040517f08c379a00000000000000000000000000000000000000000000000000000000081526004016115489061240d565b60405180910390fd5b61155d600083836117f4565b6001600360008473ffffffffffffffffffffffffffffffffffffffff1673ffffffffffffffffffffffffffffffffffffffff16815260200190815260200160002060008282546115ad91906126f2565b92505081905550816002600083815260200190815260200160002060006101000a81548173ffffffffffffffffffffffffffffffffffffffff021916908373ffffffffffffffffffffffffffffffffffffffff160217905550808273ffffffffffffffffffffffffffffffffffffffff16600073ffffffffffffffffffffffffffffffffffffffff167fddf252ad1be2c89b69c2b068fc378daa952ba7f163c4a11628f55a4df523b3ef60405160405180910390a45050565b61166f82610f47565b6116ae576040517f08c379a00000000000000000000000000000000000000000000000000000000081526004016116a5906124ed565b60405180910390fd5b806006600084815260200190815260200160002090805190602001906116d5929190611b04565b505050565b6116e5848484611152565b6116f1848484846117f9565b611730576040517f08c379a0000000000000000000000000000000000000000000000000000000008152600401611727906123cd565b60405180910390fd5b50505050565b606060405180602001604052806000815250905090565b606061175882610f47565b611797576040517f08c379a000000000000000000000000000000000000000000000000000000000815260040161178e906125ad565b60405180910390fd5b60006117a1611736565b905060008151116117c157604051806020016040528060008152506117ec565b806117cb84611990565b6040516020016117dc9291906122dc565b6040516020818303038152906040525b915050919050565b505050565b600061181a8473ffffffffffffffffffffffffffffffffffffffff16611af1565b15611983578373ffffffffffffffffffffffffffffffffffffffff1663150b7a02611843610fb3565b8786866040518563ffffffff1660e01b8152600401611865949392919061231b565b602060405180830381600087803b15801561187f57600080fd5b505af19250505080156118b057506040513d601f19601f820116820180604052508101906118ad9190611f3c565b60015b611933573d80600081146118e0576040519150601f19603f3d011682016040523d82523d6000602084013e6118e5565b606091505b5060008151141561192b576040517f08c379a0000000000000000000000000000000000000000000000000000000008152600401611922906123cd565b60405180910390fd5b805181602001fd5b63150b7a0260e01b7bffffffffffffffffffffffffffffffffffffffffffffffffffffffff1916817bffffffffffffffffffffffffffffffffffffffffffffffffffffffff191614915050611988565b600190505b949350505050565b606060008214156119d8576040518060400160405280600181526020017f30000000000000000000000000000000000000000000000000000000000000008152509050611aec565b600082905060005b60008214611a0a5780806119f3906128c6565b915050600a82611a039190612748565b91506119e0565b60008167ffffffffffffffff811115611a2657611a256129fc565b5b6040519080825280601f01601f191660200182016040528015611a585781602001600182028036833780820191505090505b5090505b60008514611ae557600182611a719190612779565b9150600a85611a80919061290f565b6030611a8c91906126f2565b60f81b818381518110611aa257611aa16129cd565b5b60200101907effffffffffffffffffffffffffffffffffffffffffffffffffffffffffffff1916908160001a905350600a85611ade9190612748565b9450611a5c565b8093505050505b919050565b600080823b905060008111915050919050565b828054611b1090612863565b90600052602060002090601f016020900481019282611b325760008555611b79565b82601f10611b4b57805160ff1916838001178555611b79565b82800160010185558215611b79579182015b82811115611b78578251825591602001919060010190611b5d565b5b509050611b869190611b8a565b5090565b5b80821115611ba3576000816000905550600101611b8b565b5090565b6000611bba611bb58461264d565b612628565b905082815260208101848484011115611bd657611bd5612a30565b5b611be1848285612821565b509392505050565b6000611bfc611bf78461267e565b612628565b905082815260208101848484011115611c1857611c17612a30565b5b611c23848285612821565b509392505050565b600081359050611c3a81612f46565b92915050565b600081359050611c4f81612f5d565b92915050565b600081359050611c6481612f74565b92915050565b600081519050611c7981612f74565b92915050565b600082601f830112611c9457611c93612a2b565b5b8135611ca4848260208601611ba7565b91505092915050565b600082601f830112611cc257611cc1612a2b565b5b8135611cd2848260208601611be9565b91505092915050565b600081359050611cea81612f8b565b92915050565b600060208284031215611d0657611d05612a3a565b5b6000611d1484828501611c2b565b91505092915050565b60008060408385031215611d3457611d33612a3a565b5b6000611d4285828601611c2b565b9250506020611d5385828601611c2b565b9150509250929050565b600080600060608486031215611d7657611d75612a3a565b5b6000611d8486828701611c2b565b9350506020611d9586828701611c2b565b9250506040611da686828701611cdb565b9150509250925092565b60008060008060808587031215611dca57611dc9612a3a565b5b6000611dd887828801611c2b565b9450506020611de987828801611c2b565b9350506040611dfa87828801611cdb565b925050606085013567ffffffffffffffff811115611e1b57611e1a612a35565b5b611e2787828801611c7f565b91505092959194509250565b60008060408385031215611e4a57611e49612a3a565b5b6000611e5885828601611c2b565b9250506020611e6985828601611c40565b9150509250929050565b60008060408385031215611e8a57611e89612a3a565b5b6000611e9885828601611c2b565b925050602083013567ffffffffffffffff811115611eb957611eb8612a35565b5b611ec585828601611cad565b9150509250929050565b60008060408385031215611ee657611ee5612a3a565b5b6000611ef485828601611c2b565b9250506020611f0585828601611cdb565b9150509250929050565b600060208284031215611f2557611f24612a3a565b5b6000611f3384828501611c55565b91505092915050565b600060208284031215611f5257611f51612a3a565b5b6000611f6084828501611c6a565b91505092915050565b600060208284031215611f7f57611f7e612a3a565b5b6000611f8d84828501611cdb565b91505092915050565b611f9f816127ad565b82525050565b611fae816127bf565b82525050565b6000611fbf826126af565b611fc981856126c5565b9350611fd9818560208601612830565b611fe281612a3f565b840191505092915050565b6000611ff8826126ba565b61200281856126d6565b9350612012818560208601612830565b61201b81612a3f565b840191505092915050565b6000612031826126ba565b61203b81856126e7565b935061204b818560208601612830565b80840191505092915050565b60006120646032836126d6565b915061206f82612a50565b604082019050919050565b60006120876026836126d6565b915061209282612a9f565b604082019050919050565b60006120aa601c836126d6565b91506120b582612aee565b602082019050919050565b60006120cd6024836126d6565b91506120d882612b17565b604082019050919050565b60006120f06019836126d6565b91506120fb82612b66565b602082019050919050565b6000612113602c836126d6565b915061211e82612b8f565b604082019050919050565b60006121366038836126d6565b915061214182612bde565b604082019050919050565b6000612159602a836126d6565b915061216482612c2d565b604082019050919050565b600061217c6029836126d6565b915061218782612c7c565b604082019050919050565b600061219f602e836126d6565b91506121aa82612ccb565b604082019050919050565b60006121c26020836126d6565b91506121cd82612d1a565b602082019050919050565b60006121e56031836126d6565b91506121f082612d43565b604082019050919050565b6000612208602c836126d6565b915061221382612d92565b604082019050919050565b600061222b6020836126d6565b915061223682612de1565b602082019050919050565b600061224e6029836126d6565b915061225982612e0a565b604082019050919050565b6000612271602f836126d6565b915061227c82612e59565b604082019050919050565b60006122946021836126d6565b915061229f82612ea8565b604082019050919050565b60006122b76031836126d6565b91506122c282612ef7565b604082019050919050565b6122d681612817565b82525050565b60006122e88285612026565b91506122f48284612026565b91508190509392505050565b60006020820190506123156000830184611f96565b92915050565b60006080820190506123306000830187611f96565b61233d6020830186611f96565b61234a60408301856122cd565b818103606083015261235c8184611fb4565b905095945050505050565b600060408201905061237c6000830185611f96565b61238960208301846122cd565b9392505050565b60006020820190506123a56000830184611fa5565b92915050565b600060208201905081810360008301526123c58184611fed565b905092915050565b600060208201905081810360008301526123e681612057565b9050919050565b600060208201905081810360008301526124068161207a565b9050919050565b600060208201905081810360008301526124268161209d565b9050919050565b60006020820190508181036000830152612446816120c0565b9050919050565b60006020820190508181036000830152612466816120e3565b9050919050565b6000602082019050818103600083015261248681612106565b9050919050565b600060208201905081810360008301526124a681612129565b9050919050565b600060208201905081810360008301526124c68161214c565b9050919050565b600060208201905081810360008301526124e68161216f565b9050919050565b6000602082019050818103600083015261250681612192565b9050919050565b60006020820190508181036000830152612526816121b5565b9050919050565b60006020820190508181036000830152612546816121d8565b9050919050565b60006020820190508181036000830152612566816121fb565b9050919050565b600060208201905081810360008301526125868161221e565b9050919050565b600060208201905081810360008301526125a681612241565b9050919050565b600060208201905081810360008301526125c681612264565b9050919050565b600060208201905081810360008301526125e681612287565b9050919050565b60006020820190508181036000830152612606816122aa565b9050919050565b600060208201905061262260008301846122cd565b92915050565b6000612632612643565b905061263e8282612895565b919050565b6000604051905090565b600067ffffffffffffffff821115612668576126676129fc565b5b61267182612a3f565b9050602081019050919050565b600067ffffffffffffffff821115612699576126986129fc565b5b6126a282612a3f565b9050602081019050919050565b600081519050919050565b600081519050919050565b600082825260208201905092915050565b600082825260208201905092915050565b600081905092915050565b60006126fd82612817565b915061270883612817565b9250827fffffffffffffffffffffffffffffffffffffffffffffffffffffffffffffffff0382111561273d5761273c612940565b5b828201905092915050565b600061275382612817565b915061275e83612817565b92508261276e5761276d61296f565b5b828204905092915050565b600061278482612817565b915061278f83612817565b9250828210156127a2576127a1612940565b5b828203905092915050565b60006127b8826127f7565b9050919050565b60008115159050919050565b60007fffffffff0000000000000000000000000000000000000000000000000000000082169050919050565b600073ffffffffffffffffffffffffffffffffffffffff82169050919050565b6000819050919050565b82818337600083830152505050565b60005b8381101561284e578082015181840152602081019050612833565b8381111561285d576000848401525b50505050565b6000600282049050600182168061287b57607f821691505b6020821081141561288f5761288e61299e565b5b50919050565b61289e82612a3f565b810181811067ffffffffffffffff821117156128bd576128bc6129fc565b5b80604052505050565b60006128d182612817565b91507fffffffffffffffffffffffffffffffffffffffffffffffffffffffffffffffff82141561290457612903612940565b5b600182019050919050565b600061291a82612817565b915061292583612817565b9250826129355761293461296f565b5b828206905092915050565b7f4e487b7100000000000000000000000000000000000000000000000000000000600052601160045260246000fd5b7f4e487b7100000000000000000000000000000000000000000000000000000000600052601260045260246000fd5b7f4e487b7100000000000000000000000000000000000000000000000000000000600052602260045260246000fd5b7f4e487b7100000000000000000000000000000000000000000000000000000000600052603260045260246000fd5b7f4e487b7100000000000000000000000000000000000000000000000000000000600052604160045260246000fd5b600080fd5b600080fd5b600080fd5b600080fd5b6000601f19601f8301169050919050565b7f4552433732313a207472616e7366657220746f206e6f6e20455243373231526560008201527f63656976657220696d706c656d656e7465720000000000000000000000000000602082015250565b7f4f776e61626c653a206e6577206f776e657220697320746865207a65726f206160008201527f6464726573730000000000000000000000000000000000000000000000000000602082015250565b7f4552433732313a20746f6b656e20616c7265616479206d696e74656400000000600082015250565b7f4552433732313a207472616e7366657220746f20746865207a65726f2061646460008201527f7265737300000000000000000000000000000000000000000000000000000000602082015250565b7f4552433732313a20617070726f766520746f2063616c6c657200000000000000600082015250565b7f4552433732313a206f70657261746f7220717565727920666f72206e6f6e657860008201527f697374656e7420746f6b656e0000000000000000000000000000000000000000602082015250565b7f4552433732313a20617070726f76652063616c6c6572206973206e6f74206f7760008201527f6e6572206e6f7220617070726f76656420666f7220616c6c0000000000000000602082015250565b7f4552433732313a2062616c616e636520717565727920666f7220746865207a6560008201527f726f206164647265737300000000000000000000000000000000000000000000602082015250565b7f4552433732313a206f776e657220717565727920666f72206e6f6e657869737460008201527f656e7420746f6b656e0000000000000000000000000000000000000000000000602082015250565b7f45524337323155524953746f726167653a2055524920736574206f66206e6f6e60008201527f6578697374656e7420746f6b656e000000000000000000000000000000000000602082015250565b7f4552433732313a206d696e7420746f20746865207a65726f2061646472657373600082015250565b7f45524337323155524953746f726167653a2055524920717565727920666f722060008201527f6e6f6e6578697374656e7420746f6b656e000000000000000000000000000000602082015250565b7f4552433732313a20617070726f76656420717565727920666f72206e6f6e657860008201527f697374656e7420746f6b656e0000000000000000000000000000000000000000602082015250565b7f4f776e61626c653a2063616c6c6572206973206e6f7420746865206f776e6572600082015250565b7f4552433732313a207472616e73666572206f6620746f6b656e2074686174206960008201527f73206e6f74206f776e0000000000000000000000000000000000000000000000602082015250565b7f4552433732314d657461646174613a2055524920717565727920666f72206e6f60008201527f6e6578697374656e7420746f6b656e0000000000000000000000000000000000602082015250565b7f4552433732313a20617070726f76616c20746f2063757272656e74206f776e6560008201527f7200000000000000000000000000000000000000000000000000000000000000602082015250565b7f4552433732313a207472616e736665722063616c6c6572206973206e6f74206f60008201527f776e6572206e6f7220617070726f766564000000000000000000000000000000602082015250565b612f4f816127ad565b8114612f5a57600080fd5b50565b612f66816127bf565b8114612f7157600080fd5b50565b612f7d816127cb565b8114612f8857600080fd5b50565b612f9481612817565b8114612f9f57600080fd5b5056fea2646970667358221220ad990ab1099322a4e241c4757e1728edb4bb122e66e555fb4f6e9beb3dc8ed8664736f6c63430008070033",
  "immutableReferences": {},
  "source": "// SPDX-License-Identifier: MIT\npragma solidity ^0.8.0;\n\nimport \"@openzeppelin/contracts/token/ERC721/extensions/ERC721URIStorage.sol\";\nimport \"@openzeppelin/contracts/access/Ownable.sol\";\nimport \"@openzeppelin/contracts/utils/Counters.sol\";\n\ncontract DacredFactory is ERC721URIStorage, Ownable {\n    using Counters for Counters.Counter;\n    Counters.Counter private _tokenIds;\n\n    event CredentialAwarded(address recipient, uint tokenId);\n\n    constructor(string memory _name, string memory _symbol) ERC721(_name, _symbol) {}\n\n    function awardCredential(address recipient, string memory tokenURI) public returns(uint256) {\n        _tokenIds.increment();\n\n        uint256 newItemId = _tokenIds.current();\n        _mint(recipient, newItemId);\n        _setTokenURI(newItemId, tokenURI);\n\n        emit CredentialAwarded(msg.sender, newItemId);\n\n        return newItemId;\n    }\n}",
  "sourcePath": "/Users/apple/srv/koolamusic/daccred.io/contracts/src/contracts/impl/DacredFactory.sol",
  "compiler": {
    "name": "solc",
    "version": "0.8.7+commit.e28d00a7.Emscripten.clang"
  },
  "schemaVersion": "3.4.3",
  "updatedAt": "2021-12-01T12:34:18.070Z",
  "devdoc": {
    "kind": "dev",
    "methods": {
      "approve(address,uint256)": {
        "details": "See {IERC721-approve}."
      },
      "balanceOf(address)": {
        "details": "See {IERC721-balanceOf}."
      },
      "getApproved(uint256)": {
        "details": "See {IERC721-getApproved}."
      },
      "isApprovedForAll(address,address)": {
        "details": "See {IERC721-isApprovedForAll}."
      },
      "name()": {
        "details": "See {IERC721Metadata-name}."
      },
      "owner()": {
        "details": "Returns the address of the current owner."
      },
      "ownerOf(uint256)": {
        "details": "See {IERC721-ownerOf}."
      },
      "renounceOwnership()": {
        "details": "Leaves the contract without owner. It will not be possible to call `onlyOwner` functions anymore. Can only be called by the current owner. NOTE: Renouncing ownership will leave the contract without an owner, thereby removing any functionality that is only available to the owner."
      },
      "safeTransferFrom(address,address,uint256)": {
        "details": "See {IERC721-safeTransferFrom}."
      },
      "safeTransferFrom(address,address,uint256,bytes)": {
        "details": "See {IERC721-safeTransferFrom}."
      },
      "setApprovalForAll(address,bool)": {
        "details": "See {IERC721-setApprovalForAll}."
      },
      "supportsInterface(bytes4)": {
        "details": "See {IERC165-supportsInterface}."
      },
      "symbol()": {
        "details": "See {IERC721Metadata-symbol}."
      },
      "tokenURI(uint256)": {
        "details": "See {IERC721Metadata-tokenURI}."
      },
      "transferFrom(address,address,uint256)": {
        "details": "See {IERC721-transferFrom}."
      },
      "transferOwnership(address)": {
        "details": "Transfers ownership of the contract to a new account (`newOwner`). Can only be called by the current owner."
      }
    },
    "version": 1
  },
  "userdoc": {
    "kind": "user",
    "methods": {},
    "version": 1
  }
}